{
  "abi": [
    {
      "inputs": [],
      "stateMutability": "nonpayable",
      "type": "constructor"
    },
    {
      "inputs": [
        {
          "internalType": "uint256",
          "name": "cowboyId1",
          "type": "uint256"
        },
        {
          "internalType": "uint256",
          "name": "cowboyId2",
          "type": "uint256"
        }
      ],
      "name": "createBattle",
      "outputs": [],
      "stateMutability": "nonpayable",
      "type": "function"
    },
    {
      "inputs": [
        {
          "internalType": "string",
          "name": "_name",
          "type": "string"
        }
      ],
      "name": "createCowboy",
      "outputs": [],
      "stateMutability": "nonpayable",
      "type": "function"
    },
    {
      "inputs": [],
      "name": "getAllBattles",
      "outputs": [
        {
          "components": [
            {
              "internalType": "uint256",
              "name": "cowboyId0",
              "type": "uint256"
            },
            {
              "internalType": "uint256",
              "name": "cowboyId1",
              "type": "uint256"
            },
            {
              "internalType": "string",
              "name": "winner",
              "type": "string"
            },
            {
              "internalType": "uint256",
              "name": "turnCounter",
              "type": "uint256"
            },
            {
              "internalType": "bool",
              "name": "gameOver",
              "type": "bool"
            }
          ],
          "internalType": "struct BattleHandler.Battle[]",
          "name": "",
          "type": "tuple[]"
        }
      ],
      "stateMutability": "view",
      "type": "function"
    },
    {
      "inputs": [],
      "name": "getAllCowboys",
      "outputs": [
        {
          "components": [
            {
              "internalType": "string",
              "name": "name",
              "type": "string"
            },
            {
              "internalType": "uint256",
              "name": "shots",
              "type": "uint256"
            },
            {
              "internalType": "bool",
              "name": "takenTurn",
              "type": "bool"
            },
            {
              "internalType": "bool",
              "name": "reloading",
              "type": "bool"
            },
            {
              "internalType": "bool",
              "name": "shooting",
              "type": "bool"
            }
          ],
          "internalType": "struct BattleHandler.Cowboy[]",
          "name": "",
          "type": "tuple[]"
        }
      ],
      "stateMutability": "view",
      "type": "function"
    },
    {
      "inputs": [
        {
          "internalType": "uint256",
          "name": "battleId",
          "type": "uint256"
        }
      ],
      "name": "getBattle",
      "outputs": [
        {
          "components": [
            {
              "internalType": "uint256",
              "name": "cowboyId0",
              "type": "uint256"
            },
            {
              "internalType": "uint256",
              "name": "cowboyId1",
              "type": "uint256"
            },
            {
              "internalType": "string",
              "name": "winner",
              "type": "string"
            },
            {
              "internalType": "uint256",
              "name": "turnCounter",
              "type": "uint256"
            },
            {
              "internalType": "bool",
              "name": "gameOver",
              "type": "bool"
            }
          ],
          "internalType": "struct BattleHandler.Battle",
          "name": "",
          "type": "tuple"
        }
      ],
      "stateMutability": "view",
      "type": "function"
    },
    {
      "inputs": [
        {
          "internalType": "uint256",
          "name": "cowboyId",
          "type": "uint256"
        }
      ],
      "name": "getCowboy",
      "outputs": [
        {
          "components": [
            {
              "internalType": "string",
              "name": "name",
              "type": "string"
            },
            {
              "internalType": "uint256",
              "name": "shots",
              "type": "uint256"
            },
            {
              "internalType": "bool",
              "name": "takenTurn",
              "type": "bool"
            },
            {
              "internalType": "bool",
              "name": "reloading",
              "type": "bool"
            },
            {
              "internalType": "bool",
              "name": "shooting",
              "type": "bool"
            }
          ],
          "internalType": "struct BattleHandler.Cowboy",
          "name": "",
          "type": "tuple"
        }
      ],
      "stateMutability": "view",
      "type": "function"
    },
    {
      "inputs": [
        {
          "internalType": "uint256",
          "name": "battleId",
          "type": "uint256"
        }
      ],
      "name": "getWinner",
      "outputs": [
        {
          "internalType": "string",
          "name": "",
          "type": "string"
        }
      ],
      "stateMutability": "view",
      "type": "function"
    },
    {
      "inputs": [
        {
          "internalType": "uint256",
          "name": "command",
          "type": "uint256"
        },
        {
          "internalType": "uint256",
          "name": "cowboyId",
          "type": "uint256"
        },
        {
          "internalType": "uint256",
          "name": "battleId",
          "type": "uint256"
        }
      ],
      "name": "takeTurn",
      "outputs": [],
      "stateMutability": "nonpayable",
      "type": "function"
    }
  ],
  "devdoc": {
    "author": "mattauer@umich.edu",
    "kind": "dev",
    "methods": {
      "createBattle(uint256,uint256)": {
        "details": "creates a new battle",
        "params": {
          "cowboyId1": "id of cowboy1",
          "cowboyId2": "id of cowboy2"
        }
      },
      "createCowboy(string)": {
        "details": "creates a new cowboy",
        "params": {
          "_name": "name of the new cowboy*"
        }
      },
      "getAllBattles()": {
        "details": "returns all of the battles",
        "returns": {
          "_0": "a list of all of the battles"
        }
      },
      "getAllCowboys()": {
        "details": "returns all of the cowboys",
        "returns": {
          "_0": "a list of all of the cowboys"
        }
      },
      "getBattle(uint256)": {
        "details": "returns the battle of the give battle id",
        "params": {
          "battleId": "id of the battle to return"
        },
        "returns": {
          "_0": "the battle of the given id*"
        }
      },
      "getCowboy(uint256)": {
        "details": "returns the cowboy of the given id",
        "params": {
          "cowboyId": "id of the cowboy to return"
        },
        "returns": {
          "_0": "the cowboy of the given id"
        }
      },
      "getWinner(uint256)": {
        "details": "returns the winning name if the battle is over",
        "params": {
          "battleId": "id of the battle to get the winner"
        },
        "returns": {
          "_0": "returns the name of the winner of the battle*"
        }
      },
      "takeTurn(uint256,uint256,uint256)": {
        "details": "takes turn for a cowboy in a battle",
        "params": {
          "battleId": "specifies the battle for this turn",
          "command": "what action the cowboy takes",
          "cowboyId": "specifies which cowboy to command"
        }
      }
    },
    "title": "handles cowboy battling",
    "version": 1
  },
  "evm": {
    "assembly": "    /* \"BattleHandler.sol\":142:5724  contract BattleHandler {\r... */\n  mstore(0x40, 0x80)\n    /* \"BattleHandler.sol\":544:560  constructor() {} */\n  callvalue\n  dup1\n  iszero\n  tag_1\n  jumpi\n  0x00\n  dup1\n  revert\ntag_1:\n  pop\n    /* \"BattleHandler.sol\":142:5724  contract BattleHandler {\r... */\n  dataSize(sub_0)\n  dup1\n  dataOffset(sub_0)\n  0x00\n  codecopy\n  0x00\n  return\nstop\n\nsub_0: assembly {\n        /* \"BattleHandler.sol\":142:5724  contract BattleHandler {\r... */\n      mstore(0x40, 0x80)\n      callvalue\n      dup1\n      iszero\n      tag_1\n      jumpi\n      0x00\n      dup1\n      revert\n    tag_1:\n      pop\n      jumpi(tag_2, lt(calldatasize, 0x04))\n      shr(0xe0, calldataload(0x00))\n      dup1\n      0x6dd0ce7a\n      gt\n      tag_11\n      jumpi\n      dup1\n      0x6dd0ce7a\n      eq\n      tag_7\n      jumpi\n      dup1\n      0x7dbef372\n      eq\n      tag_8\n      jumpi\n      dup1\n      0xdc118019\n      eq\n      tag_9\n      jumpi\n      dup1\n      0xdf73c49f\n      eq\n      tag_10\n      jumpi\n      jump(tag_2)\n    tag_11:\n      dup1\n      0x3c145f75\n      eq\n      tag_3\n      jumpi\n      dup1\n      0x4129b2c9\n      eq\n      tag_4\n      jumpi\n      dup1\n      0x5c93fc3d\n      eq\n      tag_5\n      jumpi\n      dup1\n      0x5f4a0b85\n      eq\n      tag_6\n      jumpi\n    tag_2:\n      0x00\n      dup1\n      revert\n        /* \"BattleHandler.sol\":2201:2302  function getAllCowboys() external view returns (Cowboy[] memory) {\r... */\n    tag_3:\n      tag_12\n      tag_13\n      jump\t// in\n    tag_12:\n      mload(0x40)\n      tag_14\n      swap2\n      swap1\n      tag_15\n      jump\t// in\n    tag_14:\n      mload(0x40)\n      dup1\n      swap2\n      sub\n      swap1\n      return\n        /* \"BattleHandler.sol\":992:1220  function getWinner(uint battleId) external view returns (string memory) {\r... */\n    tag_4:\n      tag_16\n      0x04\n      dup1\n      calldatasize\n      sub\n      dup2\n      add\n      swap1\n      tag_17\n      swap2\n      swap1\n      tag_18\n      jump\t// in\n    tag_17:\n      tag_19\n      jump\t// in\n    tag_16:\n      mload(0x40)\n      tag_20\n      swap2\n      swap1\n      tag_21\n      jump\t// in\n    tag_20:\n      mload(0x40)\n      dup1\n      swap2\n      sub\n      swap1\n      return\n        /* \"BattleHandler.sol\":1659:1762  function getAllBattles() external view returns (Battle[] memory) {\r... */\n    tag_5:\n      tag_22\n      tag_23\n      jump\t// in\n    tag_22:\n      mload(0x40)\n      tag_24\n      swap2\n      swap1\n      tag_25\n      jump\t// in\n    tag_24:\n      mload(0x40)\n      dup1\n      swap2\n      sub\n      swap1\n      return\n        /* \"BattleHandler.sol\":2404:2527  function createCowboy(string memory _name) public {\r... */\n    tag_6:\n      tag_26\n      0x04\n      dup1\n      calldatasize\n      sub\n      dup2\n      add\n      swap1\n      tag_27\n      swap2\n      swap1\n      tag_28\n      jump\t// in\n    tag_27:\n      tag_29\n      jump\t// in\n    tag_26:\n      stop\n        /* \"BattleHandler.sol\":1391:1549  function getBattle(uint battleId) external idInBounds(battleId, battleList.length) view returns (Battle memory) {\r... */\n    tag_7:\n      tag_30\n      0x04\n      dup1\n      calldatasize\n      sub\n      dup2\n      add\n      swap1\n      tag_31\n      swap2\n      swap1\n      tag_18\n      jump\t// in\n    tag_31:\n      tag_32\n      jump\t// in\n    tag_30:\n      mload(0x40)\n      tag_33\n      swap2\n      swap1\n      tag_34\n      jump\t// in\n    tag_33:\n      mload(0x40)\n      dup1\n      swap2\n      sub\n      swap1\n      return\n        /* \"BattleHandler.sol\":3122:4122  function takeTurn(uint command, uint cowboyId, uint battleId) public idInBounds(cowboyId, cowboyList.length) idInBounds(battleId, battleList.length) {\r... */\n    tag_8:\n      tag_35\n      0x04\n      dup1\n      calldatasize\n      sub\n      dup2\n      add\n      swap1\n      tag_36\n      swap2\n      swap1\n      tag_37\n      jump\t// in\n    tag_36:\n      tag_38\n      jump\t// in\n    tag_35:\n      stop\n        /* \"BattleHandler.sol\":1928:2088  function getCowboy(uint cowboyId) external idInBounds(cowboyId, cowboyList.length) view returns (Cowboy memory) {\r... */\n    tag_9:\n      tag_39\n      0x04\n      dup1\n      calldatasize\n      sub\n      dup2\n      add\n      swap1\n      tag_40\n      swap2\n      swap1\n      tag_18\n      jump\t// in\n    tag_40:\n      tag_41\n      jump\t// in\n    tag_39:\n      mload(0x40)\n      tag_42\n      swap2\n      swap1\n      tag_43\n      jump\t// in\n    tag_42:\n      mload(0x40)\n      dup1\n      swap2\n      sub\n      swap1\n      return\n        /* \"BattleHandler.sol\":2662:2883  function createBattle(uint cowboyId1, uint cowboyId2) public idInBounds(cowboyId1, cowboyList.length) idInBounds(cowboyId2, cowboyList.length) {\r... */\n    tag_10:\n      tag_44\n      0x04\n      dup1\n      calldatasize\n      sub\n      dup2\n      add\n      swap1\n      tag_45\n      swap2\n      swap1\n      tag_46\n      jump\t// in\n    tag_45:\n      tag_47\n      jump\t// in\n    tag_44:\n      stop\n        /* \"BattleHandler.sol\":2201:2302  function getAllCowboys() external view returns (Cowboy[] memory) {\r... */\n    tag_13:\n        /* \"BattleHandler.sol\":2249:2264  Cowboy[] memory */\n      0x60\n        /* \"BattleHandler.sol\":2284:2294  cowboyList */\n      0x01\n        /* \"BattleHandler.sol\":2277:2294  return cowboyList */\n      dup1\n      sload\n      dup1\n      0x20\n      mul\n      0x20\n      add\n      mload(0x40)\n      swap1\n      dup2\n      add\n      0x40\n      mstore\n      dup1\n      swap3\n      swap2\n      swap1\n      dup2\n      dup2\n      mstore\n      0x20\n      add\n      0x00\n      swap1\n    tag_49:\n      dup3\n      dup3\n      lt\n      iszero\n      tag_50\n      jumpi\n      dup4\n      dup3\n      swap1\n      0x00\n      mstore\n      keccak256(0x00, 0x20)\n      swap1\n      0x03\n      mul\n      add\n      mload(0x40)\n      dup1\n      0xa0\n      add\n      0x40\n      mstore\n      swap1\n      dup2\n      0x00\n      dup3\n      add\n      dup1\n      sload\n      tag_52\n      swap1\n      tag_53\n      jump\t// in\n    tag_52:\n      dup1\n      0x1f\n      add\n      0x20\n      dup1\n      swap2\n      div\n      mul\n      0x20\n      add\n      mload(0x40)\n      swap1\n      dup2\n      add\n      0x40\n      mstore\n      dup1\n      swap3\n      swap2\n      swap1\n      dup2\n      dup2\n      mstore\n      0x20\n      add\n      dup3\n      dup1\n      sload\n      tag_54\n      swap1\n      tag_53\n      jump\t// in\n    tag_54:\n      dup1\n      iszero\n      tag_55\n      jumpi\n      dup1\n      0x1f\n      lt\n      tag_56\n      jumpi\n      0x0100\n      dup1\n      dup4\n      sload\n      div\n      mul\n      dup4\n      mstore\n      swap2\n      0x20\n      add\n      swap2\n      jump(tag_55)\n    tag_56:\n      dup3\n      add\n      swap2\n      swap1\n      0x00\n      mstore\n      keccak256(0x00, 0x20)\n      swap1\n    tag_57:\n      dup2\n      sload\n      dup2\n      mstore\n      swap1\n      0x01\n      add\n      swap1\n      0x20\n      add\n      dup1\n      dup4\n      gt\n      tag_57\n      jumpi\n      dup3\n      swap1\n      sub\n      0x1f\n      and\n      dup3\n      add\n      swap2\n    tag_55:\n      pop\n      pop\n      pop\n      pop\n      pop\n      dup2\n      mstore\n      0x20\n      add\n      0x01\n      dup3\n      add\n      sload\n      dup2\n      mstore\n      0x20\n      add\n      0x02\n      dup3\n      add\n      0x00\n      swap1\n      sload\n      swap1\n      0x0100\n      exp\n      swap1\n      div\n      0xff\n      and\n      iszero\n      iszero\n      iszero\n      iszero\n      dup2\n      mstore\n      0x20\n      add\n      0x02\n      dup3\n      add\n      0x01\n      swap1\n      sload\n      swap1\n      0x0100\n      exp\n      swap1\n      div\n      0xff\n      and\n      iszero\n      iszero\n      iszero\n      iszero\n      dup2\n      mstore\n      0x20\n      add\n      0x02\n      dup3\n      add\n      0x02\n      swap1\n      sload\n      swap1\n      0x0100\n      exp\n      swap1\n      div\n      0xff\n      and\n      iszero\n      iszero\n      iszero\n      iszero\n      dup2\n      mstore\n      pop\n      pop\n      dup2\n      mstore\n      0x20\n      add\n      swap1\n      0x01\n      add\n      swap1\n      jump(tag_49)\n    tag_50:\n      pop\n      pop\n      pop\n      pop\n      swap1\n      pop\n        /* \"BattleHandler.sol\":2201:2302  function getAllCowboys() external view returns (Cowboy[] memory) {\r... */\n      swap1\n      jump\t// out\n        /* \"BattleHandler.sol\":992:1220  function getWinner(uint battleId) external view returns (string memory) {\r... */\n    tag_19:\n        /* \"BattleHandler.sol\":1049:1062  string memory */\n      0x60\n        /* \"BattleHandler.sol\":1075:1096  Battle storage battle */\n      0x00\n        /* \"BattleHandler.sol\":1099:1109  battleList */\n      dup1\n        /* \"BattleHandler.sol\":1110:1118  battleId */\n      dup4\n        /* \"BattleHandler.sol\":1099:1119  battleList[battleId] */\n      dup2\n      sload\n      dup2\n      lt\n      tag_59\n      jumpi\n      tag_60\n      tag_61\n      jump\t// in\n    tag_60:\n    tag_59:\n      swap1\n      0x00\n      mstore\n      keccak256(0x00, 0x20)\n      swap1\n      0x05\n      mul\n      add\n        /* \"BattleHandler.sol\":1075:1119  Battle storage battle = battleList[battleId] */\n      swap1\n      pop\n        /* \"BattleHandler.sol\":1138:1144  battle */\n      dup1\n        /* \"BattleHandler.sol\":1138:1153  battle.gameOver */\n      0x04\n      add\n      0x00\n      swap1\n      sload\n      swap1\n      0x0100\n      exp\n      swap1\n      div\n      0xff\n      and\n        /* \"BattleHandler.sol\":1130:1181  require(battle.gameOver, \"There is no winner yet.\") */\n      tag_63\n      jumpi\n      mload(0x40)\n      0x08c379a000000000000000000000000000000000000000000000000000000000\n      dup2\n      mstore\n      0x04\n      add\n      tag_64\n      swap1\n      tag_65\n      jump\t// in\n    tag_64:\n      mload(0x40)\n      dup1\n      swap2\n      sub\n      swap1\n      revert\n    tag_63:\n        /* \"BattleHandler.sol\":1199:1205  battle */\n      dup1\n        /* \"BattleHandler.sol\":1199:1212  battle.winner */\n      0x02\n      add\n        /* \"BattleHandler.sol\":1192:1212  return battle.winner */\n      dup1\n      sload\n      tag_66\n      swap1\n      tag_53\n      jump\t// in\n    tag_66:\n      dup1\n      0x1f\n      add\n      0x20\n      dup1\n      swap2\n      div\n      mul\n      0x20\n      add\n      mload(0x40)\n      swap1\n      dup2\n      add\n      0x40\n      mstore\n      dup1\n      swap3\n      swap2\n      swap1\n      dup2\n      dup2\n      mstore\n      0x20\n      add\n      dup3\n      dup1\n      sload\n      tag_67\n      swap1\n      tag_53\n      jump\t// in\n    tag_67:\n      dup1\n      iszero\n      tag_68\n      jumpi\n      dup1\n      0x1f\n      lt\n      tag_69\n      jumpi\n      0x0100\n      dup1\n      dup4\n      sload\n      div\n      mul\n      dup4\n      mstore\n      swap2\n      0x20\n      add\n      swap2\n      jump(tag_68)\n    tag_69:\n      dup3\n      add\n      swap2\n      swap1\n      0x00\n      mstore\n      keccak256(0x00, 0x20)\n      swap1\n    tag_70:\n      dup2\n      sload\n      dup2\n      mstore\n      swap1\n      0x01\n      add\n      swap1\n      0x20\n      add\n      dup1\n      dup4\n      gt\n      tag_70\n      jumpi\n      dup3\n      swap1\n      sub\n      0x1f\n      and\n      dup3\n      add\n      swap2\n    tag_68:\n      pop\n      pop\n      pop\n      pop\n      pop\n      swap2\n      pop\n      pop\n        /* \"BattleHandler.sol\":992:1220  function getWinner(uint battleId) external view returns (string memory) {\r... */\n      swap2\n      swap1\n      pop\n      jump\t// out\n        /* \"BattleHandler.sol\":1659:1762  function getAllBattles() external view returns (Battle[] memory) {\r... */\n    tag_23:\n        /* \"BattleHandler.sol\":1707:1722  Battle[] memory */\n      0x60\n        /* \"BattleHandler.sol\":1743:1753  battleList */\n      0x00\n        /* \"BattleHandler.sol\":1736:1753  return battleList */\n      dup1\n      sload\n      dup1\n      0x20\n      mul\n      0x20\n      add\n      mload(0x40)\n      swap1\n      dup2\n      add\n      0x40\n      mstore\n      dup1\n      swap3\n      swap2\n      swap1\n      dup2\n      dup2\n      mstore\n      0x20\n      add\n      0x00\n      swap1\n    tag_72:\n      dup3\n      dup3\n      lt\n      iszero\n      tag_73\n      jumpi\n      dup4\n      dup3\n      swap1\n      0x00\n      mstore\n      keccak256(0x00, 0x20)\n      swap1\n      0x05\n      mul\n      add\n      mload(0x40)\n      dup1\n      0xa0\n      add\n      0x40\n      mstore\n      swap1\n      dup2\n      0x00\n      dup3\n      add\n      sload\n      dup2\n      mstore\n      0x20\n      add\n      0x01\n      dup3\n      add\n      sload\n      dup2\n      mstore\n      0x20\n      add\n      0x02\n      dup3\n      add\n      dup1\n      sload\n      tag_75\n      swap1\n      tag_53\n      jump\t// in\n    tag_75:\n      dup1\n      0x1f\n      add\n      0x20\n      dup1\n      swap2\n      div\n      mul\n      0x20\n      add\n      mload(0x40)\n      swap1\n      dup2\n      add\n      0x40\n      mstore\n      dup1\n      swap3\n      swap2\n      swap1\n      dup2\n      dup2\n      mstore\n      0x20\n      add\n      dup3\n      dup1\n      sload\n      tag_76\n      swap1\n      tag_53\n      jump\t// in\n    tag_76:\n      dup1\n      iszero\n      tag_77\n      jumpi\n      dup1\n      0x1f\n      lt\n      tag_78\n      jumpi\n      0x0100\n      dup1\n      dup4\n      sload\n      div\n      mul\n      dup4\n      mstore\n      swap2\n      0x20\n      add\n      swap2\n      jump(tag_77)\n    tag_78:\n      dup3\n      add\n      swap2\n      swap1\n      0x00\n      mstore\n      keccak256(0x00, 0x20)\n      swap1\n    tag_79:\n      dup2\n      sload\n      dup2\n      mstore\n      swap1\n      0x01\n      add\n      swap1\n      0x20\n      add\n      dup1\n      dup4\n      gt\n      tag_79\n      jumpi\n      dup3\n      swap1\n      sub\n      0x1f\n      and\n      dup3\n      add\n      swap2\n    tag_77:\n      pop\n      pop\n      pop\n      pop\n      pop\n      dup2\n      mstore\n      0x20\n      add\n      0x03\n      dup3\n      add\n      sload\n      dup2\n      mstore\n      0x20\n      add\n      0x04\n      dup3\n      add\n      0x00\n      swap1\n      sload\n      swap1\n      0x0100\n      exp\n      swap1\n      div\n      0xff\n      and\n      iszero\n      iszero\n      iszero\n      iszero\n      dup2\n      mstore\n      pop\n      pop\n      dup2\n      mstore\n      0x20\n      add\n      swap1\n      0x01\n      add\n      swap1\n      jump(tag_72)\n    tag_73:\n      pop\n      pop\n      pop\n      pop\n      swap1\n      pop\n        /* \"BattleHandler.sol\":1659:1762  function getAllBattles() external view returns (Battle[] memory) {\r... */\n      swap1\n      jump\t// out\n        /* \"BattleHandler.sol\":2404:2527  function createCowboy(string memory _name) public {\r... */\n    tag_29:\n        /* \"BattleHandler.sol\":2465:2475  cowboyList */\n      0x01\n        /* \"BattleHandler.sol\":2481:2518  Cowboy(_name, 0, false, false, false) */\n      mload(0x40)\n      dup1\n      0xa0\n      add\n      0x40\n      mstore\n      dup1\n        /* \"BattleHandler.sol\":2488:2493  _name */\n      dup4\n        /* \"BattleHandler.sol\":2481:2518  Cowboy(_name, 0, false, false, false) */\n      dup2\n      mstore\n      0x20\n      add\n        /* \"BattleHandler.sol\":2495:2496  0 */\n      0x00\n        /* \"BattleHandler.sol\":2481:2518  Cowboy(_name, 0, false, false, false) */\n      dup2\n      mstore\n      0x20\n      add\n        /* \"BattleHandler.sol\":2498:2503  false */\n      0x00\n        /* \"BattleHandler.sol\":2481:2518  Cowboy(_name, 0, false, false, false) */\n      iszero\n      iszero\n      dup2\n      mstore\n      0x20\n      add\n        /* \"BattleHandler.sol\":2505:2510  false */\n      0x00\n        /* \"BattleHandler.sol\":2481:2518  Cowboy(_name, 0, false, false, false) */\n      iszero\n      iszero\n      dup2\n      mstore\n      0x20\n      add\n        /* \"BattleHandler.sol\":2512:2517  false */\n      0x00\n        /* \"BattleHandler.sol\":2481:2518  Cowboy(_name, 0, false, false, false) */\n      iszero\n      iszero\n      dup2\n      mstore\n      pop\n        /* \"BattleHandler.sol\":2465:2519  cowboyList.push(Cowboy(_name, 0, false, false, false)) */\n      swap1\n      dup1\n      0x01\n      dup2\n      sload\n      add\n      dup1\n      dup3\n      sstore\n      dup1\n      swap2\n      pop\n      pop\n      0x01\n      swap1\n      sub\n      swap1\n      0x00\n      mstore\n      keccak256(0x00, 0x20)\n      swap1\n      0x03\n      mul\n      add\n      0x00\n      swap1\n      swap2\n      swap1\n      swap2\n      swap1\n      swap2\n      pop\n      0x00\n      dup3\n      add\n      mload\n      dup2\n      0x00\n      add\n      swap1\n      dup1\n      mload\n      swap1\n      0x20\n      add\n      swap1\n      tag_82\n      swap3\n      swap2\n      swap1\n      tag_83\n      jump\t// in\n    tag_82:\n      pop\n      0x20\n      dup3\n      add\n      mload\n      dup2\n      0x01\n      add\n      sstore\n      0x40\n      dup3\n      add\n      mload\n      dup2\n      0x02\n      add\n      exp(0x0100, 0x00)\n      dup2\n      sload\n      dup2\n      0xff\n      mul\n      not\n      and\n      swap1\n      dup4\n      iszero\n      iszero\n      mul\n      or\n      swap1\n      sstore\n      pop\n      0x60\n      dup3\n      add\n      mload\n      dup2\n      0x02\n      add\n      exp(0x0100, 0x01)\n      dup2\n      sload\n      dup2\n      0xff\n      mul\n      not\n      and\n      swap1\n      dup4\n      iszero\n      iszero\n      mul\n      or\n      swap1\n      sstore\n      pop\n      0x80\n      dup3\n      add\n      mload\n      dup2\n      0x02\n      add\n      exp(0x0100, 0x02)\n      dup2\n      sload\n      dup2\n      0xff\n      mul\n      not\n      and\n      swap1\n      dup4\n      iszero\n      iszero\n      mul\n      or\n      swap1\n      sstore\n      pop\n      pop\n      pop\n        /* \"BattleHandler.sol\":2404:2527  function createCowboy(string memory _name) public {\r... */\n      pop\n      jump\t// out\n        /* \"BattleHandler.sol\":1391:1549  function getBattle(uint battleId) external idInBounds(battleId, battleList.length) view returns (Battle memory) {\r... */\n    tag_32:\n        /* \"BattleHandler.sol\":1488:1501  Battle memory */\n      tag_84\n      tag_85\n      jump\t// in\n    tag_84:\n        /* \"BattleHandler.sol\":1445:1453  battleId */\n      dup2\n        /* \"BattleHandler.sol\":1455:1465  battleList */\n      0x00\n        /* \"BattleHandler.sol\":1455:1472  battleList.length */\n      dup1\n      sload\n      swap1\n      pop\n        /* \"BattleHandler.sol\":724:733  arrLength */\n      dup1\n        /* \"BattleHandler.sol\":719:721  id */\n      dup3\n        /* \"BattleHandler.sol\":719:733  id < arrLength */\n      lt\n        /* \"BattleHandler.sol\":711:767  require(id < arrLength, \"The given id is out of bounds\") */\n      tag_87\n      jumpi\n      mload(0x40)\n      0x08c379a000000000000000000000000000000000000000000000000000000000\n      dup2\n      mstore\n      0x04\n      add\n      tag_88\n      swap1\n      tag_89\n      jump\t// in\n    tag_88:\n      mload(0x40)\n      dup1\n      swap2\n      sub\n      swap1\n      revert\n    tag_87:\n        /* \"BattleHandler.sol\":1521:1531  battleList */\n      0x00\n        /* \"BattleHandler.sol\":1532:1540  battleId */\n      dup5\n        /* \"BattleHandler.sol\":1521:1541  battleList[battleId] */\n      dup2\n      sload\n      dup2\n      lt\n      tag_91\n      jumpi\n      tag_92\n      tag_61\n      jump\t// in\n    tag_92:\n    tag_91:\n      swap1\n      0x00\n      mstore\n      keccak256(0x00, 0x20)\n      swap1\n      0x05\n      mul\n      add\n        /* \"BattleHandler.sol\":1514:1541  return battleList[battleId] */\n      mload(0x40)\n      dup1\n      0xa0\n      add\n      0x40\n      mstore\n      swap1\n      dup2\n      0x00\n      dup3\n      add\n      sload\n      dup2\n      mstore\n      0x20\n      add\n      0x01\n      dup3\n      add\n      sload\n      dup2\n      mstore\n      0x20\n      add\n      0x02\n      dup3\n      add\n      dup1\n      sload\n      tag_94\n      swap1\n      tag_53\n      jump\t// in\n    tag_94:\n      dup1\n      0x1f\n      add\n      0x20\n      dup1\n      swap2\n      div\n      mul\n      0x20\n      add\n      mload(0x40)\n      swap1\n      dup2\n      add\n      0x40\n      mstore\n      dup1\n      swap3\n      swap2\n      swap1\n      dup2\n      dup2\n      mstore\n      0x20\n      add\n      dup3\n      dup1\n      sload\n      tag_95\n      swap1\n      tag_53\n      jump\t// in\n    tag_95:\n      dup1\n      iszero\n      tag_96\n      jumpi\n      dup1\n      0x1f\n      lt\n      tag_97\n      jumpi\n      0x0100\n      dup1\n      dup4\n      sload\n      div\n      mul\n      dup4\n      mstore\n      swap2\n      0x20\n      add\n      swap2\n      jump(tag_96)\n    tag_97:\n      dup3\n      add\n      swap2\n      swap1\n      0x00\n      mstore\n      keccak256(0x00, 0x20)\n      swap1\n    tag_98:\n      dup2\n      sload\n      dup2\n      mstore\n      swap1\n      0x01\n      add\n      swap1\n      0x20\n      add\n      dup1\n      dup4\n      gt\n      tag_98\n      jumpi\n      dup3\n      swap1\n      sub\n      0x1f\n      and\n      dup3\n      add\n      swap2\n    tag_96:\n      pop\n      pop\n      pop\n      pop\n      pop\n      dup2\n      mstore\n      0x20\n      add\n      0x03\n      dup3\n      add\n      sload\n      dup2\n      mstore\n      0x20\n      add\n      0x04\n      dup3\n      add\n      0x00\n      swap1\n      sload\n      swap1\n      0x0100\n      exp\n      swap1\n      div\n      0xff\n      and\n      iszero\n      iszero\n      iszero\n      iszero\n      dup2\n      mstore\n      pop\n      pop\n      swap3\n      pop\n        /* \"BattleHandler.sol\":1391:1549  function getBattle(uint battleId) external idInBounds(battleId, battleList.length) view returns (Battle memory) {\r... */\n      pop\n      pop\n      swap2\n      swap1\n      pop\n      jump\t// out\n        /* \"BattleHandler.sol\":3122:4122  function takeTurn(uint command, uint cowboyId, uint battleId) public idInBounds(cowboyId, cowboyList.length) idInBounds(battleId, battleList.length) {\r... */\n    tag_38:\n        /* \"BattleHandler.sol\":3202:3210  cowboyId */\n      dup2\n        /* \"BattleHandler.sol\":3212:3222  cowboyList */\n      0x01\n        /* \"BattleHandler.sol\":3212:3229  cowboyList.length */\n      dup1\n      sload\n      swap1\n      pop\n        /* \"BattleHandler.sol\":724:733  arrLength */\n      dup1\n        /* \"BattleHandler.sol\":719:721  id */\n      dup3\n        /* \"BattleHandler.sol\":719:733  id < arrLength */\n      lt\n        /* \"BattleHandler.sol\":711:767  require(id < arrLength, \"The given id is out of bounds\") */\n      tag_100\n      jumpi\n      mload(0x40)\n      0x08c379a000000000000000000000000000000000000000000000000000000000\n      dup2\n      mstore\n      0x04\n      add\n      tag_101\n      swap1\n      tag_89\n      jump\t// in\n    tag_101:\n      mload(0x40)\n      dup1\n      swap2\n      sub\n      swap1\n      revert\n    tag_100:\n        /* \"BattleHandler.sol\":3242:3250  battleId */\n      dup3\n        /* \"BattleHandler.sol\":3252:3262  battleList */\n      0x00\n        /* \"BattleHandler.sol\":3252:3269  battleList.length */\n      dup1\n      sload\n      swap1\n      pop\n        /* \"BattleHandler.sol\":724:733  arrLength */\n      dup1\n        /* \"BattleHandler.sol\":719:721  id */\n      dup3\n        /* \"BattleHandler.sol\":719:733  id < arrLength */\n      lt\n        /* \"BattleHandler.sol\":711:767  require(id < arrLength, \"The given id is out of bounds\") */\n      tag_103\n      jumpi\n      mload(0x40)\n      0x08c379a000000000000000000000000000000000000000000000000000000000\n      dup2\n      mstore\n      0x04\n      add\n      tag_104\n      swap1\n      tag_89\n      jump\t// in\n    tag_104:\n      mload(0x40)\n      dup1\n      swap2\n      sub\n      swap1\n      revert\n    tag_103:\n        /* \"BattleHandler.sol\":3282:3303  Battle storage battle */\n      0x00\n        /* \"BattleHandler.sol\":3306:3316  battleList */\n      dup1\n        /* \"BattleHandler.sol\":3317:3325  battleId */\n      dup7\n        /* \"BattleHandler.sol\":3306:3326  battleList[battleId] */\n      dup2\n      sload\n      dup2\n      lt\n      tag_106\n      jumpi\n      tag_107\n      tag_61\n      jump\t// in\n    tag_107:\n    tag_106:\n      swap1\n      0x00\n      mstore\n      keccak256(0x00, 0x20)\n      swap1\n      0x05\n      mul\n      add\n        /* \"BattleHandler.sol\":3282:3326  Battle storage battle = battleList[battleId] */\n      swap1\n      pop\n        /* \"BattleHandler.sol\":3346:3352  battle */\n      dup1\n        /* \"BattleHandler.sol\":3346:3361  battle.gameOver */\n      0x04\n      add\n      0x00\n      swap1\n      sload\n      swap1\n      0x0100\n      exp\n      swap1\n      div\n      0xff\n      and\n        /* \"BattleHandler.sol\":3345:3361  !battle.gameOver */\n      iszero\n        /* \"BattleHandler.sol\":3337:3412  require(!battle.gameOver, \"The game is over your cowboy can't take turns.\") */\n      tag_109\n      jumpi\n      mload(0x40)\n      0x08c379a000000000000000000000000000000000000000000000000000000000\n      dup2\n      mstore\n      0x04\n      add\n      tag_110\n      swap1\n      tag_111\n      jump\t// in\n    tag_110:\n      mload(0x40)\n      dup1\n      swap2\n      sub\n      swap1\n      revert\n    tag_109:\n        /* \"BattleHandler.sol\":3443:3449  battle */\n      dup1\n        /* \"BattleHandler.sol\":3443:3459  battle.cowboyId0 */\n      0x00\n      add\n      sload\n        /* \"BattleHandler.sol\":3431:3439  cowboyId */\n      dup8\n        /* \"BattleHandler.sol\":3431:3459  cowboyId == battle.cowboyId0 */\n      eq\n        /* \"BattleHandler.sol\":3431:3491  cowboyId == battle.cowboyId0 || cowboyId == battle.cowboyId1 */\n      dup1\n      tag_112\n      jumpi\n      pop\n        /* \"BattleHandler.sol\":3475:3481  battle */\n      dup1\n        /* \"BattleHandler.sol\":3475:3491  battle.cowboyId1 */\n      0x01\n      add\n      sload\n        /* \"BattleHandler.sol\":3463:3471  cowboyId */\n      dup8\n        /* \"BattleHandler.sol\":3463:3491  cowboyId == battle.cowboyId1 */\n      eq\n        /* \"BattleHandler.sol\":3431:3491  cowboyId == battle.cowboyId0 || cowboyId == battle.cowboyId1 */\n    tag_112:\n        /* \"BattleHandler.sol\":3423:3539  require(cowboyId == battle.cowboyId0 || cowboyId == battle.cowboyId1, \"The given cowboy is not in the given battle\") */\n      tag_113\n      jumpi\n      mload(0x40)\n      0x08c379a000000000000000000000000000000000000000000000000000000000\n      dup2\n      mstore\n      0x04\n      add\n      tag_114\n      swap1\n      tag_115\n      jump\t// in\n    tag_114:\n      mload(0x40)\n      dup1\n      swap2\n      sub\n      swap1\n      revert\n    tag_113:\n        /* \"BattleHandler.sol\":3550:3571  Cowboy storage cowboy */\n      0x00\n        /* \"BattleHandler.sol\":3574:3584  cowboyList */\n      0x01\n        /* \"BattleHandler.sol\":3585:3593  cowboyId */\n      dup9\n        /* \"BattleHandler.sol\":3574:3594  cowboyList[cowboyId] */\n      dup2\n      sload\n      dup2\n      lt\n      tag_116\n      jumpi\n      tag_117\n      tag_61\n      jump\t// in\n    tag_117:\n    tag_116:\n      swap1\n      0x00\n      mstore\n      keccak256(0x00, 0x20)\n      swap1\n      0x03\n      mul\n      add\n        /* \"BattleHandler.sol\":3550:3594  Cowboy storage cowboy = cowboyList[cowboyId] */\n      swap1\n      pop\n        /* \"BattleHandler.sol\":3614:3620  cowboy */\n      dup1\n        /* \"BattleHandler.sol\":3614:3630  cowboy.takenTurn */\n      0x02\n      add\n      0x00\n      swap1\n      sload\n      swap1\n      0x0100\n      exp\n      swap1\n      div\n      0xff\n      and\n        /* \"BattleHandler.sol\":3613:3630  !cowboy.takenTurn */\n      iszero\n        /* \"BattleHandler.sol\":3605:3675  require(!cowboy.takenTurn, \"Cowboy has already taken turn this round\") */\n      tag_119\n      jumpi\n      mload(0x40)\n      0x08c379a000000000000000000000000000000000000000000000000000000000\n      dup2\n      mstore\n      0x04\n      add\n      tag_120\n      swap1\n      tag_121\n      jump\t// in\n    tag_120:\n      mload(0x40)\n      dup1\n      swap2\n      sub\n      swap1\n      revert\n    tag_119:\n        /* \"BattleHandler.sol\":3703:3704  0 */\n      0x00\n        /* \"BattleHandler.sol\":3692:3699  command */\n      dup10\n        /* \"BattleHandler.sol\":3692:3704  command == 0 */\n      eq\n        /* \"BattleHandler.sol\":3688:3915  if (command == 0) {\r... */\n      iszero\n      tag_122\n      jumpi\n        /* \"BattleHandler.sol\":3721:3735  reload(cowboy) */\n      tag_123\n        /* \"BattleHandler.sol\":3728:3734  cowboy */\n      dup2\n        /* \"BattleHandler.sol\":3721:3727  reload */\n      tag_124\n        /* \"BattleHandler.sol\":3721:3735  reload(cowboy) */\n      jump\t// in\n    tag_123:\n        /* \"BattleHandler.sol\":3688:3915  if (command == 0) {\r... */\n      jump(tag_125)\n    tag_122:\n        /* \"BattleHandler.sol\":3768:3769  1 */\n      0x01\n        /* \"BattleHandler.sol\":3757:3764  command */\n      dup10\n        /* \"BattleHandler.sol\":3757:3769  command == 1 */\n      eq\n        /* \"BattleHandler.sol\":3753:3915  if (command == 1) {\r... */\n      iszero\n      tag_126\n      jumpi\n        /* \"BattleHandler.sol\":3786:3799  shoot(cowboy) */\n      tag_127\n        /* \"BattleHandler.sol\":3792:3798  cowboy */\n      dup2\n        /* \"BattleHandler.sol\":3786:3791  shoot */\n      tag_128\n        /* \"BattleHandler.sol\":3786:3799  shoot(cowboy) */\n      jump\t// in\n    tag_127:\n        /* \"BattleHandler.sol\":3753:3915  if (command == 1) {\r... */\n      jump(tag_129)\n    tag_126:\n        /* \"BattleHandler.sol\":3832:3833  2 */\n      0x02\n        /* \"BattleHandler.sol\":3821:3828  command */\n      dup10\n        /* \"BattleHandler.sol\":3821:3833  command == 2 */\n      eq\n        /* \"BattleHandler.sol\":3817:3915  if (command == 2) {\r... */\n      iszero\n      tag_130\n      jumpi\n        /* \"BattleHandler.sol\":3850:3863  dodge(cowboy) */\n      tag_131\n        /* \"BattleHandler.sol\":3856:3862  cowboy */\n      dup2\n        /* \"BattleHandler.sol\":3850:3855  dodge */\n      tag_132\n        /* \"BattleHandler.sol\":3850:3863  dodge(cowboy) */\n      jump\t// in\n    tag_131:\n        /* \"BattleHandler.sol\":3817:3915  if (command == 2) {\r... */\n      jump(tag_133)\n    tag_130:\n    tag_133:\n        /* \"BattleHandler.sol\":3753:3915  if (command == 1) {\r... */\n    tag_129:\n        /* \"BattleHandler.sol\":3688:3915  if (command == 0) {\r... */\n    tag_125:\n        /* \"BattleHandler.sol\":3944:3948  true */\n      0x01\n        /* \"BattleHandler.sol\":3925:3931  cowboy */\n      dup2\n        /* \"BattleHandler.sol\":3925:3941  cowboy.takenTurn */\n      0x02\n      add\n      0x00\n        /* \"BattleHandler.sol\":3925:3948  cowboy.takenTurn = true */\n      0x0100\n      exp\n      dup2\n      sload\n      dup2\n      0xff\n      mul\n      not\n      and\n      swap1\n      dup4\n      iszero\n      iszero\n      mul\n      or\n      swap1\n      sstore\n      pop\n        /* \"BattleHandler.sol\":3959:3965  battle */\n      dup2\n        /* \"BattleHandler.sol\":3959:3977  battle.turnCounter */\n      0x03\n      add\n      0x00\n        /* \"BattleHandler.sol\":3959:3979  battle.turnCounter++ */\n      dup2\n      sload\n      dup1\n      swap3\n      swap2\n      swap1\n      tag_134\n      swap1\n      tag_135\n      jump\t// in\n    tag_134:\n      swap2\n      swap1\n      pop\n      sstore\n      pop\n        /* \"BattleHandler.sol\":4016:4017  2 */\n      0x02\n        /* \"BattleHandler.sol\":3994:4000  battle */\n      dup3\n        /* \"BattleHandler.sol\":3994:4012  battle.turnCounter */\n      0x03\n      add\n      sload\n        /* \"BattleHandler.sol\":3994:4017  battle.turnCounter == 2 */\n      eq\n        /* \"BattleHandler.sol\":3990:4115  if (battle.turnCounter == 2) {\r... */\n      iszero\n      tag_136\n      jumpi\n        /* \"BattleHandler.sol\":4085:4103  finishTurn(battle) */\n      tag_137\n        /* \"BattleHandler.sol\":4096:4102  battle */\n      dup3\n        /* \"BattleHandler.sol\":4085:4095  finishTurn */\n      tag_138\n        /* \"BattleHandler.sol\":4085:4103  finishTurn(battle) */\n      jump\t// in\n    tag_137:\n        /* \"BattleHandler.sol\":3990:4115  if (battle.turnCounter == 2) {\r... */\n    tag_136:\n        /* \"BattleHandler.sol\":3271:4122  {\r... */\n      pop\n      pop\n        /* \"BattleHandler.sol\":779:780  _ */\n      pop\n      pop\n        /* \"BattleHandler.sol\":3122:4122  function takeTurn(uint command, uint cowboyId, uint battleId) public idInBounds(cowboyId, cowboyList.length) idInBounds(battleId, battleList.length) {\r... */\n      pop\n      pop\n      pop\n      pop\n      pop\n      jump\t// out\n        /* \"BattleHandler.sol\":1928:2088  function getCowboy(uint cowboyId) external idInBounds(cowboyId, cowboyList.length) view returns (Cowboy memory) {\r... */\n    tag_41:\n        /* \"BattleHandler.sol\":2025:2038  Cowboy memory */\n      tag_139\n      tag_140\n      jump\t// in\n    tag_139:\n        /* \"BattleHandler.sol\":1982:1990  cowboyId */\n      dup2\n        /* \"BattleHandler.sol\":1992:2002  cowboyList */\n      0x01\n        /* \"BattleHandler.sol\":1992:2009  cowboyList.length */\n      dup1\n      sload\n      swap1\n      pop\n        /* \"BattleHandler.sol\":724:733  arrLength */\n      dup1\n        /* \"BattleHandler.sol\":719:721  id */\n      dup3\n        /* \"BattleHandler.sol\":719:733  id < arrLength */\n      lt\n        /* \"BattleHandler.sol\":711:767  require(id < arrLength, \"The given id is out of bounds\") */\n      tag_142\n      jumpi\n      mload(0x40)\n      0x08c379a000000000000000000000000000000000000000000000000000000000\n      dup2\n      mstore\n      0x04\n      add\n      tag_143\n      swap1\n      tag_89\n      jump\t// in\n    tag_143:\n      mload(0x40)\n      dup1\n      swap2\n      sub\n      swap1\n      revert\n    tag_142:\n        /* \"BattleHandler.sol\":2059:2069  cowboyList */\n      0x01\n        /* \"BattleHandler.sol\":2070:2078  cowboyId */\n      dup5\n        /* \"BattleHandler.sol\":2059:2079  cowboyList[cowboyId] */\n      dup2\n      sload\n      dup2\n      lt\n      tag_145\n      jumpi\n      tag_146\n      tag_61\n      jump\t// in\n    tag_146:\n    tag_145:\n      swap1\n      0x00\n      mstore\n      keccak256(0x00, 0x20)\n      swap1\n      0x03\n      mul\n      add\n        /* \"BattleHandler.sol\":2052:2079  return cowboyList[cowboyId] */\n      mload(0x40)\n      dup1\n      0xa0\n      add\n      0x40\n      mstore\n      swap1\n      dup2\n      0x00\n      dup3\n      add\n      dup1\n      sload\n      tag_148\n      swap1\n      tag_53\n      jump\t// in\n    tag_148:\n      dup1\n      0x1f\n      add\n      0x20\n      dup1\n      swap2\n      div\n      mul\n      0x20\n      add\n      mload(0x40)\n      swap1\n      dup2\n      add\n      0x40\n      mstore\n      dup1\n      swap3\n      swap2\n      swap1\n      dup2\n      dup2\n      mstore\n      0x20\n      add\n      dup3\n      dup1\n      sload\n      tag_149\n      swap1\n      tag_53\n      jump\t// in\n    tag_149:\n      dup1\n      iszero\n      tag_150\n      jumpi\n      dup1\n      0x1f\n      lt\n      tag_151\n      jumpi\n      0x0100\n      dup1\n      dup4\n      sload\n      div\n      mul\n      dup4\n      mstore\n      swap2\n      0x20\n      add\n      swap2\n      jump(tag_150)\n    tag_151:\n      dup3\n      add\n      swap2\n      swap1\n      0x00\n      mstore\n      keccak256(0x00, 0x20)\n      swap1\n    tag_152:\n      dup2\n      sload\n      dup2\n      mstore\n      swap1\n      0x01\n      add\n      swap1\n      0x20\n      add\n      dup1\n      dup4\n      gt\n      tag_152\n      jumpi\n      dup3\n      swap1\n      sub\n      0x1f\n      and\n      dup3\n      add\n      swap2\n    tag_150:\n      pop\n      pop\n      pop\n      pop\n      pop\n      dup2\n      mstore\n      0x20\n      add\n      0x01\n      dup3\n      add\n      sload\n      dup2\n      mstore\n      0x20\n      add\n      0x02\n      dup3\n      add\n      0x00\n      swap1\n      sload\n      swap1\n      0x0100\n      exp\n      swap1\n      div\n      0xff\n      and\n      iszero\n      iszero\n      iszero\n      iszero\n      dup2\n      mstore\n      0x20\n      add\n      0x02\n      dup3\n      add\n      0x01\n      swap1\n      sload\n      swap1\n      0x0100\n      exp\n      swap1\n      div\n      0xff\n      and\n      iszero\n      iszero\n      iszero\n      iszero\n      dup2\n      mstore\n      0x20\n      add\n      0x02\n      dup3\n      add\n      0x02\n      swap1\n      sload\n      swap1\n      0x0100\n      exp\n      swap1\n      div\n      0xff\n      and\n      iszero\n      iszero\n      iszero\n      iszero\n      dup2\n      mstore\n      pop\n      pop\n      swap3\n      pop\n        /* \"BattleHandler.sol\":1928:2088  function getCowboy(uint cowboyId) external idInBounds(cowboyId, cowboyList.length) view returns (Cowboy memory) {\r... */\n      pop\n      pop\n      swap2\n      swap1\n      pop\n      jump\t// out\n        /* \"BattleHandler.sol\":2662:2883  function createBattle(uint cowboyId1, uint cowboyId2) public idInBounds(cowboyId1, cowboyList.length) idInBounds(cowboyId2, cowboyList.length) {\r... */\n    tag_47:\n        /* \"BattleHandler.sol\":2734:2743  cowboyId1 */\n      dup2\n        /* \"BattleHandler.sol\":2745:2755  cowboyList */\n      0x01\n        /* \"BattleHandler.sol\":2745:2762  cowboyList.length */\n      dup1\n      sload\n      swap1\n      pop\n        /* \"BattleHandler.sol\":724:733  arrLength */\n      dup1\n        /* \"BattleHandler.sol\":719:721  id */\n      dup3\n        /* \"BattleHandler.sol\":719:733  id < arrLength */\n      lt\n        /* \"BattleHandler.sol\":711:767  require(id < arrLength, \"The given id is out of bounds\") */\n      tag_154\n      jumpi\n      mload(0x40)\n      0x08c379a000000000000000000000000000000000000000000000000000000000\n      dup2\n      mstore\n      0x04\n      add\n      tag_155\n      swap1\n      tag_89\n      jump\t// in\n    tag_155:\n      mload(0x40)\n      dup1\n      swap2\n      sub\n      swap1\n      revert\n    tag_154:\n        /* \"BattleHandler.sol\":2775:2784  cowboyId2 */\n      dup3\n        /* \"BattleHandler.sol\":2786:2796  cowboyList */\n      0x01\n        /* \"BattleHandler.sol\":2786:2803  cowboyList.length */\n      dup1\n      sload\n      swap1\n      pop\n        /* \"BattleHandler.sol\":724:733  arrLength */\n      dup1\n        /* \"BattleHandler.sol\":719:721  id */\n      dup3\n        /* \"BattleHandler.sol\":719:733  id < arrLength */\n      lt\n        /* \"BattleHandler.sol\":711:767  require(id < arrLength, \"The given id is out of bounds\") */\n      tag_157\n      jumpi\n      mload(0x40)\n      0x08c379a000000000000000000000000000000000000000000000000000000000\n      dup2\n      mstore\n      0x04\n      add\n      tag_158\n      swap1\n      tag_89\n      jump\t// in\n    tag_158:\n      mload(0x40)\n      dup1\n      swap2\n      sub\n      swap1\n      revert\n    tag_157:\n        /* \"BattleHandler.sol\":2816:2826  battleList */\n      0x00\n        /* \"BattleHandler.sol\":2832:2874  Battle(cowboyId1, cowboyId2, \"\", 0, false) */\n      mload(0x40)\n      dup1\n      0xa0\n      add\n      0x40\n      mstore\n      dup1\n        /* \"BattleHandler.sol\":2839:2848  cowboyId1 */\n      dup9\n        /* \"BattleHandler.sol\":2832:2874  Battle(cowboyId1, cowboyId2, \"\", 0, false) */\n      dup2\n      mstore\n      0x20\n      add\n        /* \"BattleHandler.sol\":2850:2859  cowboyId2 */\n      dup8\n        /* \"BattleHandler.sol\":2832:2874  Battle(cowboyId1, cowboyId2, \"\", 0, false) */\n      dup2\n      mstore\n      0x20\n      add\n      mload(0x40)\n      dup1\n      0x20\n      add\n      0x40\n      mstore\n      dup1\n      0x00\n      dup2\n      mstore\n      pop\n      dup2\n      mstore\n      0x20\n      add\n        /* \"BattleHandler.sol\":2865:2866  0 */\n      0x00\n        /* \"BattleHandler.sol\":2832:2874  Battle(cowboyId1, cowboyId2, \"\", 0, false) */\n      dup2\n      mstore\n      0x20\n      add\n        /* \"BattleHandler.sol\":2868:2873  false */\n      0x00\n        /* \"BattleHandler.sol\":2832:2874  Battle(cowboyId1, cowboyId2, \"\", 0, false) */\n      iszero\n      iszero\n      dup2\n      mstore\n      pop\n        /* \"BattleHandler.sol\":2816:2875  battleList.push(Battle(cowboyId1, cowboyId2, \"\", 0, false)) */\n      swap1\n      dup1\n      0x01\n      dup2\n      sload\n      add\n      dup1\n      dup3\n      sstore\n      dup1\n      swap2\n      pop\n      pop\n      0x01\n      swap1\n      sub\n      swap1\n      0x00\n      mstore\n      keccak256(0x00, 0x20)\n      swap1\n      0x05\n      mul\n      add\n      0x00\n      swap1\n      swap2\n      swap1\n      swap2\n      swap1\n      swap2\n      pop\n      0x00\n      dup3\n      add\n      mload\n      dup2\n      0x00\n      add\n      sstore\n      0x20\n      dup3\n      add\n      mload\n      dup2\n      0x01\n      add\n      sstore\n      0x40\n      dup3\n      add\n      mload\n      dup2\n      0x02\n      add\n      swap1\n      dup1\n      mload\n      swap1\n      0x20\n      add\n      swap1\n      tag_161\n      swap3\n      swap2\n      swap1\n      tag_83\n      jump\t// in\n    tag_161:\n      pop\n      0x60\n      dup3\n      add\n      mload\n      dup2\n      0x03\n      add\n      sstore\n      0x80\n      dup3\n      add\n      mload\n      dup2\n      0x04\n      add\n      exp(0x0100, 0x00)\n      dup2\n      sload\n      dup2\n      0xff\n      mul\n      not\n      and\n      swap1\n      dup4\n      iszero\n      iszero\n      mul\n      or\n      swap1\n      sstore\n      pop\n      pop\n      pop\n        /* \"BattleHandler.sol\":779:780  _ */\n      pop\n      pop\n        /* \"BattleHandler.sol\":2662:2883  function createBattle(uint cowboyId1, uint cowboyId2) public idInBounds(cowboyId1, cowboyList.length) idInBounds(cowboyId2, cowboyList.length) {\r... */\n      pop\n      pop\n      pop\n      pop\n      jump\t// out\n        /* \"BattleHandler.sol\":5030:5179  function reload(Cowboy storage cowboy) internal {\r... */\n    tag_124:\n        /* \"BattleHandler.sol\":5089:5095  cowboy */\n      dup1\n        /* \"BattleHandler.sol\":5089:5101  cowboy.shots */\n      0x01\n      add\n      0x00\n        /* \"BattleHandler.sol\":5089:5103  cowboy.shots++ */\n      dup2\n      sload\n      dup1\n      swap3\n      swap2\n      swap1\n      tag_163\n      swap1\n      tag_135\n      jump\t// in\n    tag_163:\n      swap2\n      swap1\n      pop\n      sstore\n      pop\n        /* \"BattleHandler.sol\":5133:5137  true */\n      0x01\n        /* \"BattleHandler.sol\":5114:5120  cowboy */\n      dup2\n        /* \"BattleHandler.sol\":5114:5130  cowboy.reloading */\n      0x02\n      add\n      0x01\n        /* \"BattleHandler.sol\":5114:5137  cowboy.reloading = true */\n      0x0100\n      exp\n      dup2\n      sload\n      dup2\n      0xff\n      mul\n      not\n      and\n      swap1\n      dup4\n      iszero\n      iszero\n      mul\n      or\n      swap1\n      sstore\n      pop\n        /* \"BattleHandler.sol\":5166:5171  false */\n      0x00\n        /* \"BattleHandler.sol\":5148:5154  cowboy */\n      dup2\n        /* \"BattleHandler.sol\":5148:5163  cowboy.shooting */\n      0x02\n      add\n      0x02\n        /* \"BattleHandler.sol\":5148:5171  cowboy.shooting = false */\n      0x0100\n      exp\n      dup2\n      sload\n      dup2\n      0xff\n      mul\n      not\n      and\n      swap1\n      dup4\n      iszero\n      iszero\n      mul\n      or\n      swap1\n      sstore\n      pop\n        /* \"BattleHandler.sol\":5030:5179  function reload(Cowboy storage cowboy) internal {\r... */\n      pop\n      jump\t// out\n        /* \"BattleHandler.sol\":5281:5506  function shoot(Cowboy storage cowboy) internal {\r... */\n    tag_128:\n        /* \"BattleHandler.sol\":5363:5364  1 */\n      0x01\n        /* \"BattleHandler.sol\":5347:5353  cowboy */\n      dup2\n        /* \"BattleHandler.sol\":5347:5359  cowboy.shots */\n      0x01\n      add\n      sload\n        /* \"BattleHandler.sol\":5347:5364  cowboy.shots >= 1 */\n      lt\n      iszero\n        /* \"BattleHandler.sol\":5339:5405  require(cowboy.shots >= 1, \"Your cowboy can't shoot without ammo\") */\n      tag_165\n      jumpi\n      mload(0x40)\n      0x08c379a000000000000000000000000000000000000000000000000000000000\n      dup2\n      mstore\n      0x04\n      add\n      tag_166\n      swap1\n      tag_167\n      jump\t// in\n    tag_166:\n      mload(0x40)\n      dup1\n      swap2\n      sub\n      swap1\n      revert\n    tag_165:\n        /* \"BattleHandler.sol\":5416:5422  cowboy */\n      dup1\n        /* \"BattleHandler.sol\":5416:5428  cowboy.shots */\n      0x01\n      add\n      0x00\n        /* \"BattleHandler.sol\":5416:5430  cowboy.shots-- */\n      dup2\n      sload\n      dup1\n      swap3\n      swap2\n      swap1\n      tag_168\n      swap1\n      tag_169\n      jump\t// in\n    tag_168:\n      swap2\n      swap1\n      pop\n      sstore\n      pop\n        /* \"BattleHandler.sol\":5460:5465  false */\n      0x00\n        /* \"BattleHandler.sol\":5441:5447  cowboy */\n      dup2\n        /* \"BattleHandler.sol\":5441:5457  cowboy.reloading */\n      0x02\n      add\n      0x01\n        /* \"BattleHandler.sol\":5441:5465  cowboy.reloading = false */\n      0x0100\n      exp\n      dup2\n      sload\n      dup2\n      0xff\n      mul\n      not\n      and\n      swap1\n      dup4\n      iszero\n      iszero\n      mul\n      or\n      swap1\n      sstore\n      pop\n        /* \"BattleHandler.sol\":5494:5498  true */\n      0x01\n        /* \"BattleHandler.sol\":5476:5482  cowboy */\n      dup2\n        /* \"BattleHandler.sol\":5476:5491  cowboy.shooting */\n      0x02\n      add\n      0x02\n        /* \"BattleHandler.sol\":5476:5498  cowboy.shooting = true */\n      0x0100\n      exp\n      dup2\n      sload\n      dup2\n      0xff\n      mul\n      not\n      and\n      swap1\n      dup4\n      iszero\n      iszero\n      mul\n      or\n      swap1\n      sstore\n      pop\n        /* \"BattleHandler.sol\":5281:5506  function shoot(Cowboy storage cowboy) internal {\r... */\n      pop\n      jump\t// out\n        /* \"BattleHandler.sol\":5597:5721  function dodge(Cowboy storage cowboy) internal {\r... */\n    tag_132:\n        /* \"BattleHandler.sol\":5674:5679  false */\n      0x00\n        /* \"BattleHandler.sol\":5655:5661  cowboy */\n      dup2\n        /* \"BattleHandler.sol\":5655:5671  cowboy.reloading */\n      0x02\n      add\n      0x01\n        /* \"BattleHandler.sol\":5655:5679  cowboy.reloading = false */\n      0x0100\n      exp\n      dup2\n      sload\n      dup2\n      0xff\n      mul\n      not\n      and\n      swap1\n      dup4\n      iszero\n      iszero\n      mul\n      or\n      swap1\n      sstore\n      pop\n        /* \"BattleHandler.sol\":5708:5713  false */\n      0x00\n        /* \"BattleHandler.sol\":5690:5696  cowboy */\n      dup2\n        /* \"BattleHandler.sol\":5690:5705  cowboy.shooting */\n      0x02\n      add\n      0x02\n        /* \"BattleHandler.sol\":5690:5713  cowboy.shooting = false */\n      0x0100\n      exp\n      dup2\n      sload\n      dup2\n      0xff\n      mul\n      not\n      and\n      swap1\n      dup4\n      iszero\n      iszero\n      mul\n      or\n      swap1\n      sstore\n      pop\n        /* \"BattleHandler.sol\":5597:5721  function dodge(Cowboy storage cowboy) internal {\r... */\n      pop\n      jump\t// out\n        /* \"BattleHandler.sol\":4259:4929  function finishTurn(Battle storage battle) internal {\r... */\n    tag_138:\n        /* \"BattleHandler.sol\":4322:4344  Cowboy storage cowboy1 */\n      0x00\n        /* \"BattleHandler.sol\":4347:4357  cowboyList */\n      0x01\n        /* \"BattleHandler.sol\":4358:4364  battle */\n      dup3\n        /* \"BattleHandler.sol\":4358:4374  battle.cowboyId0 */\n      0x00\n      add\n      sload\n        /* \"BattleHandler.sol\":4347:4375  cowboyList[battle.cowboyId0] */\n      dup2\n      sload\n      dup2\n      lt\n      tag_172\n      jumpi\n      tag_173\n      tag_61\n      jump\t// in\n    tag_173:\n    tag_172:\n      swap1\n      0x00\n      mstore\n      keccak256(0x00, 0x20)\n      swap1\n      0x03\n      mul\n      add\n        /* \"BattleHandler.sol\":4322:4375  Cowboy storage cowboy1 = cowboyList[battle.cowboyId0] */\n      swap1\n      pop\n        /* \"BattleHandler.sol\":4386:4408  Cowboy storage cowboy2 */\n      0x00\n        /* \"BattleHandler.sol\":4411:4421  cowboyList */\n      0x01\n        /* \"BattleHandler.sol\":4422:4428  battle */\n      dup4\n        /* \"BattleHandler.sol\":4422:4438  battle.cowboyId1 */\n      0x01\n      add\n      sload\n        /* \"BattleHandler.sol\":4411:4439  cowboyList[battle.cowboyId1] */\n      dup2\n      sload\n      dup2\n      lt\n      tag_175\n      jumpi\n      tag_176\n      tag_61\n      jump\t// in\n    tag_176:\n    tag_175:\n      swap1\n      0x00\n      mstore\n      keccak256(0x00, 0x20)\n      swap1\n      0x03\n      mul\n      add\n        /* \"BattleHandler.sol\":4386:4439  Cowboy storage cowboy2 = cowboyList[battle.cowboyId1] */\n      swap1\n      pop\n        /* \"BattleHandler.sol\":4454:4461  cowboy1 */\n      dup2\n        /* \"BattleHandler.sol\":4454:4470  cowboy1.shooting */\n      0x02\n      add\n      0x02\n      swap1\n      sload\n      swap1\n      0x0100\n      exp\n      swap1\n      div\n      0xff\n      and\n        /* \"BattleHandler.sol\":4454:4491  cowboy1.shooting && cowboy2.reloading */\n      dup1\n      iszero\n      tag_178\n      jumpi\n      pop\n        /* \"BattleHandler.sol\":4474:4481  cowboy2 */\n      dup1\n        /* \"BattleHandler.sol\":4474:4491  cowboy2.reloading */\n      0x02\n      add\n      0x01\n      swap1\n      sload\n      swap1\n      0x0100\n      exp\n      swap1\n      div\n      0xff\n      and\n        /* \"BattleHandler.sol\":4454:4491  cowboy1.shooting && cowboy2.reloading */\n    tag_178:\n        /* \"BattleHandler.sol\":4450:4785  if (cowboy1.shooting && cowboy2.reloading) {\r... */\n      iszero\n      tag_179\n      jumpi\n        /* \"BattleHandler.sol\":4554:4561  cowboy1 */\n      dup2\n        /* \"BattleHandler.sol\":4554:4566  cowboy1.name */\n      0x00\n      add\n        /* \"BattleHandler.sol\":4538:4544  battle */\n      dup4\n        /* \"BattleHandler.sol\":4538:4551  battle.winner */\n      0x02\n      add\n        /* \"BattleHandler.sol\":4538:4566  battle.winner = cowboy1.name */\n      swap1\n      dup1\n      sload\n      tag_180\n      swap1\n      tag_53\n      jump\t// in\n    tag_180:\n      tag_181\n      swap3\n      swap2\n      swap1\n      tag_182\n      jump\t// in\n    tag_181:\n      pop\n        /* \"BattleHandler.sol\":4599:4603  true */\n      0x01\n        /* \"BattleHandler.sol\":4581:4587  battle */\n      dup4\n        /* \"BattleHandler.sol\":4581:4596  battle.gameOver */\n      0x04\n      add\n      0x00\n        /* \"BattleHandler.sol\":4581:4603  battle.gameOver = true */\n      0x0100\n      exp\n      dup2\n      sload\n      dup2\n      0xff\n      mul\n      not\n      and\n      swap1\n      dup4\n      iszero\n      iszero\n      mul\n      or\n      swap1\n      sstore\n      pop\n        /* \"BattleHandler.sol\":4450:4785  if (cowboy1.shooting && cowboy2.reloading) {\r... */\n      jump(tag_183)\n    tag_179:\n        /* \"BattleHandler.sol\":4625:4632  cowboy2 */\n      dup1\n        /* \"BattleHandler.sol\":4625:4641  cowboy2.shooting */\n      0x02\n      add\n      0x02\n      swap1\n      sload\n      swap1\n      0x0100\n      exp\n      swap1\n      div\n      0xff\n      and\n        /* \"BattleHandler.sol\":4625:4662  cowboy2.shooting && cowboy1.reloading */\n      dup1\n      iszero\n      tag_184\n      jumpi\n      pop\n        /* \"BattleHandler.sol\":4645:4652  cowboy1 */\n      dup2\n        /* \"BattleHandler.sol\":4645:4662  cowboy1.reloading */\n      0x02\n      add\n      0x01\n      swap1\n      sload\n      swap1\n      0x0100\n      exp\n      swap1\n      div\n      0xff\n      and\n        /* \"BattleHandler.sol\":4625:4662  cowboy2.shooting && cowboy1.reloading */\n    tag_184:\n        /* \"BattleHandler.sol\":4621:4785  if (cowboy2.shooting && cowboy1.reloading){\r... */\n      iszero\n      tag_185\n      jumpi\n        /* \"BattleHandler.sol\":4724:4731  cowboy2 */\n      dup1\n        /* \"BattleHandler.sol\":4724:4736  cowboy2.name */\n      0x00\n      add\n        /* \"BattleHandler.sol\":4708:4714  battle */\n      dup4\n        /* \"BattleHandler.sol\":4708:4721  battle.winner */\n      0x02\n      add\n        /* \"BattleHandler.sol\":4708:4736  battle.winner = cowboy2.name */\n      swap1\n      dup1\n      sload\n      tag_186\n      swap1\n      tag_53\n      jump\t// in\n    tag_186:\n      tag_187\n      swap3\n      swap2\n      swap1\n      tag_182\n      jump\t// in\n    tag_187:\n      pop\n        /* \"BattleHandler.sol\":4769:4773  true */\n      0x01\n        /* \"BattleHandler.sol\":4751:4757  battle */\n      dup4\n        /* \"BattleHandler.sol\":4751:4766  battle.gameOver */\n      0x04\n      add\n      0x00\n        /* \"BattleHandler.sol\":4751:4773  battle.gameOver = true */\n      0x0100\n      exp\n      dup2\n      sload\n      dup2\n      0xff\n      mul\n      not\n      and\n      swap1\n      dup4\n      iszero\n      iszero\n      mul\n      or\n      swap1\n      sstore\n      pop\n        /* \"BattleHandler.sol\":4621:4785  if (cowboy2.shooting && cowboy1.reloading){\r... */\n    tag_185:\n        /* \"BattleHandler.sol\":4450:4785  if (cowboy1.shooting && cowboy2.reloading) {\r... */\n    tag_183:\n        /* \"BattleHandler.sol\":4847:4852  false */\n      0x00\n        /* \"BattleHandler.sol\":4827:4834  cowboy1 */\n      dup3\n        /* \"BattleHandler.sol\":4827:4844  cowboy1.takenTurn */\n      0x02\n      add\n      0x00\n        /* \"BattleHandler.sol\":4827:4852  cowboy1.takenTurn = false */\n      0x0100\n      exp\n      dup2\n      sload\n      dup2\n      0xff\n      mul\n      not\n      and\n      swap1\n      dup4\n      iszero\n      iszero\n      mul\n      or\n      swap1\n      sstore\n      pop\n        /* \"BattleHandler.sol\":4883:4888  false */\n      0x00\n        /* \"BattleHandler.sol\":4863:4870  cowboy2 */\n      dup2\n        /* \"BattleHandler.sol\":4863:4880  cowboy2.takenTurn */\n      0x02\n      add\n      0x00\n        /* \"BattleHandler.sol\":4863:4888  cowboy2.takenTurn = false */\n      0x0100\n      exp\n      dup2\n      sload\n      dup2\n      0xff\n      mul\n      not\n      and\n      swap1\n      dup4\n      iszero\n      iszero\n      mul\n      or\n      swap1\n      sstore\n      pop\n        /* \"BattleHandler.sol\":4920:4921  0 */\n      0x00\n        /* \"BattleHandler.sol\":4899:4905  battle */\n      dup4\n        /* \"BattleHandler.sol\":4899:4917  battle.turnCounter */\n      0x03\n      add\n        /* \"BattleHandler.sol\":4899:4921  battle.turnCounter = 0 */\n      dup2\n      swap1\n      sstore\n      pop\n        /* \"BattleHandler.sol\":4311:4929  {\r... */\n      pop\n      pop\n        /* \"BattleHandler.sol\":4259:4929  function finishTurn(Battle storage battle) internal {\r... */\n      pop\n      jump\t// out\n    tag_83:\n      dup3\n      dup1\n      sload\n      tag_188\n      swap1\n      tag_53\n      jump\t// in\n    tag_188:\n      swap1\n      0x00\n      mstore\n      keccak256(0x00, 0x20)\n      swap1\n      0x1f\n      add\n      0x20\n      swap1\n      div\n      dup2\n      add\n      swap3\n      dup3\n      tag_190\n      jumpi\n      0x00\n      dup6\n      sstore\n      jump(tag_189)\n    tag_190:\n      dup3\n      0x1f\n      lt\n      tag_191\n      jumpi\n      dup1\n      mload\n      not(0xff)\n      and\n      dup4\n      dup1\n      add\n      or\n      dup6\n      sstore\n      jump(tag_189)\n    tag_191:\n      dup3\n      dup1\n      add\n      0x01\n      add\n      dup6\n      sstore\n      dup3\n      iszero\n      tag_189\n      jumpi\n      swap2\n      dup3\n      add\n    tag_192:\n      dup3\n      dup2\n      gt\n      iszero\n      tag_193\n      jumpi\n      dup3\n      mload\n      dup3\n      sstore\n      swap2\n      0x20\n      add\n      swap2\n      swap1\n      0x01\n      add\n      swap1\n      jump(tag_192)\n    tag_193:\n    tag_189:\n      pop\n      swap1\n      pop\n      tag_194\n      swap2\n      swap1\n      tag_195\n      jump\t// in\n    tag_194:\n      pop\n      swap1\n      jump\t// out\n    tag_85:\n      mload(0x40)\n      dup1\n      0xa0\n      add\n      0x40\n      mstore\n      dup1\n      0x00\n      dup2\n      mstore\n      0x20\n      add\n      0x00\n      dup2\n      mstore\n      0x20\n      add\n      0x60\n      dup2\n      mstore\n      0x20\n      add\n      0x00\n      dup2\n      mstore\n      0x20\n      add\n      iszero(iszero(0x00))\n      dup2\n      mstore\n      pop\n      swap1\n      jump\t// out\n    tag_140:\n      mload(0x40)\n      dup1\n      0xa0\n      add\n      0x40\n      mstore\n      dup1\n      0x60\n      dup2\n      mstore\n      0x20\n      add\n      0x00\n      dup2\n      mstore\n      0x20\n      add\n      iszero(iszero(0x00))\n      dup2\n      mstore\n      0x20\n      add\n      iszero(iszero(0x00))\n      dup2\n      mstore\n      0x20\n      add\n      iszero(iszero(0x00))\n      dup2\n      mstore\n      pop\n      swap1\n      jump\t// out\n    tag_182:\n      dup3\n      dup1\n      sload\n      tag_196\n      swap1\n      tag_53\n      jump\t// in\n    tag_196:\n      swap1\n      0x00\n      mstore\n      keccak256(0x00, 0x20)\n      swap1\n      0x1f\n      add\n      0x20\n      swap1\n      div\n      dup2\n      add\n      swap3\n      dup3\n      tag_198\n      jumpi\n      0x00\n      dup6\n      sstore\n      jump(tag_197)\n    tag_198:\n      dup3\n      0x1f\n      lt\n      tag_199\n      jumpi\n      dup1\n      sload\n      dup6\n      sstore\n      jump(tag_197)\n    tag_199:\n      dup3\n      dup1\n      add\n      0x01\n      add\n      dup6\n      sstore\n      dup3\n      iszero\n      tag_197\n      jumpi\n      0x00\n      mstore\n      keccak256(0x00, 0x20)\n      swap2\n      0x1f\n      add\n      0x20\n      swap1\n      div\n      dup3\n      add\n    tag_200:\n      dup3\n      dup2\n      gt\n      iszero\n      tag_201\n      jumpi\n      dup3\n      sload\n      dup3\n      sstore\n      swap2\n      0x01\n      add\n      swap2\n      swap1\n      0x01\n      add\n      swap1\n      jump(tag_200)\n    tag_201:\n    tag_197:\n      pop\n      swap1\n      pop\n      tag_202\n      swap2\n      swap1\n      tag_195\n      jump\t// in\n    tag_202:\n      pop\n      swap1\n      jump\t// out\n    tag_195:\n    tag_203:\n      dup1\n      dup3\n      gt\n      iszero\n      tag_204\n      jumpi\n      0x00\n      dup2\n      0x00\n      swap1\n      sstore\n      pop\n      0x01\n      add\n      jump(tag_203)\n    tag_204:\n      pop\n      swap1\n      jump\t// out\n        /* \"#utility.yul\":7:419   */\n    tag_206:\n        /* \"#utility.yul\":85:90   */\n      0x00\n        /* \"#utility.yul\":110:176   */\n      tag_208\n        /* \"#utility.yul\":126:175   */\n      tag_209\n        /* \"#utility.yul\":168:174   */\n      dup5\n        /* \"#utility.yul\":126:175   */\n      tag_210\n      jump\t// in\n    tag_209:\n        /* \"#utility.yul\":110:176   */\n      tag_211\n      jump\t// in\n    tag_208:\n        /* \"#utility.yul\":101:176   */\n      swap1\n      pop\n        /* \"#utility.yul\":199:205   */\n      dup3\n        /* \"#utility.yul\":192:197   */\n      dup2\n        /* \"#utility.yul\":185:206   */\n      mstore\n        /* \"#utility.yul\":237:241   */\n      0x20\n        /* \"#utility.yul\":230:235   */\n      dup2\n        /* \"#utility.yul\":226:242   */\n      add\n        /* \"#utility.yul\":275:278   */\n      dup5\n        /* \"#utility.yul\":266:272   */\n      dup5\n        /* \"#utility.yul\":261:264   */\n      dup5\n        /* \"#utility.yul\":257:273   */\n      add\n        /* \"#utility.yul\":254:279   */\n      gt\n        /* \"#utility.yul\":251:363   */\n      iszero\n      tag_212\n      jumpi\n        /* \"#utility.yul\":282:361   */\n      tag_213\n      tag_214\n      jump\t// in\n    tag_213:\n        /* \"#utility.yul\":251:363   */\n    tag_212:\n        /* \"#utility.yul\":372:413   */\n      tag_215\n        /* \"#utility.yul\":406:412   */\n      dup5\n        /* \"#utility.yul\":401:404   */\n      dup3\n        /* \"#utility.yul\":396:399   */\n      dup6\n        /* \"#utility.yul\":372:413   */\n      tag_216\n      jump\t// in\n    tag_215:\n        /* \"#utility.yul\":91:419   */\n      pop\n        /* \"#utility.yul\":7:419   */\n      swap4\n      swap3\n      pop\n      pop\n      pop\n      jump\t// out\n        /* \"#utility.yul\":439:779   */\n    tag_217:\n        /* \"#utility.yul\":495:500   */\n      0x00\n        /* \"#utility.yul\":544:547   */\n      dup3\n        /* \"#utility.yul\":537:541   */\n      0x1f\n        /* \"#utility.yul\":529:535   */\n      dup4\n        /* \"#utility.yul\":525:542   */\n      add\n        /* \"#utility.yul\":521:548   */\n      slt\n        /* \"#utility.yul\":511:633   */\n      tag_219\n      jumpi\n        /* \"#utility.yul\":552:631   */\n      tag_220\n      tag_221\n      jump\t// in\n    tag_220:\n        /* \"#utility.yul\":511:633   */\n    tag_219:\n        /* \"#utility.yul\":669:675   */\n      dup2\n        /* \"#utility.yul\":656:676   */\n      calldataload\n        /* \"#utility.yul\":694:773   */\n      tag_222\n        /* \"#utility.yul\":769:772   */\n      dup5\n        /* \"#utility.yul\":761:767   */\n      dup3\n        /* \"#utility.yul\":754:758   */\n      0x20\n        /* \"#utility.yul\":746:752   */\n      dup7\n        /* \"#utility.yul\":742:759   */\n      add\n        /* \"#utility.yul\":694:773   */\n      tag_206\n      jump\t// in\n    tag_222:\n        /* \"#utility.yul\":685:773   */\n      swap2\n      pop\n        /* \"#utility.yul\":501:779   */\n      pop\n        /* \"#utility.yul\":439:779   */\n      swap3\n      swap2\n      pop\n      pop\n      jump\t// out\n        /* \"#utility.yul\":785:924   */\n    tag_223:\n        /* \"#utility.yul\":831:836   */\n      0x00\n        /* \"#utility.yul\":869:875   */\n      dup2\n        /* \"#utility.yul\":856:876   */\n      calldataload\n        /* \"#utility.yul\":847:876   */\n      swap1\n      pop\n        /* \"#utility.yul\":885:918   */\n      tag_225\n        /* \"#utility.yul\":912:917   */\n      dup2\n        /* \"#utility.yul\":885:918   */\n      tag_226\n      jump\t// in\n    tag_225:\n        /* \"#utility.yul\":785:924   */\n      swap3\n      swap2\n      pop\n      pop\n      jump\t// out\n        /* \"#utility.yul\":930:1439   */\n    tag_28:\n        /* \"#utility.yul\":999:1005   */\n      0x00\n        /* \"#utility.yul\":1048:1050   */\n      0x20\n        /* \"#utility.yul\":1036:1045   */\n      dup3\n        /* \"#utility.yul\":1027:1034   */\n      dup5\n        /* \"#utility.yul\":1023:1046   */\n      sub\n        /* \"#utility.yul\":1019:1051   */\n      slt\n        /* \"#utility.yul\":1016:1135   */\n      iszero\n      tag_228\n      jumpi\n        /* \"#utility.yul\":1054:1133   */\n      tag_229\n      tag_230\n      jump\t// in\n    tag_229:\n        /* \"#utility.yul\":1016:1135   */\n    tag_228:\n        /* \"#utility.yul\":1202:1203   */\n      0x00\n        /* \"#utility.yul\":1191:1200   */\n      dup3\n        /* \"#utility.yul\":1187:1204   */\n      add\n        /* \"#utility.yul\":1174:1205   */\n      calldataload\n        /* \"#utility.yul\":1232:1250   */\n      0xffffffffffffffff\n        /* \"#utility.yul\":1224:1230   */\n      dup2\n        /* \"#utility.yul\":1221:1251   */\n      gt\n        /* \"#utility.yul\":1218:1335   */\n      iszero\n      tag_231\n      jumpi\n        /* \"#utility.yul\":1254:1333   */\n      tag_232\n      tag_233\n      jump\t// in\n    tag_232:\n        /* \"#utility.yul\":1218:1335   */\n    tag_231:\n        /* \"#utility.yul\":1359:1422   */\n      tag_234\n        /* \"#utility.yul\":1414:1421   */\n      dup5\n        /* \"#utility.yul\":1405:1411   */\n      dup3\n        /* \"#utility.yul\":1394:1403   */\n      dup6\n        /* \"#utility.yul\":1390:1412   */\n      add\n        /* \"#utility.yul\":1359:1422   */\n      tag_217\n      jump\t// in\n    tag_234:\n        /* \"#utility.yul\":1349:1422   */\n      swap2\n      pop\n        /* \"#utility.yul\":1145:1432   */\n      pop\n        /* \"#utility.yul\":930:1439   */\n      swap3\n      swap2\n      pop\n      pop\n      jump\t// out\n        /* \"#utility.yul\":1445:1774   */\n    tag_18:\n        /* \"#utility.yul\":1504:1510   */\n      0x00\n        /* \"#utility.yul\":1553:1555   */\n      0x20\n        /* \"#utility.yul\":1541:1550   */\n      dup3\n        /* \"#utility.yul\":1532:1539   */\n      dup5\n        /* \"#utility.yul\":1528:1551   */\n      sub\n        /* \"#utility.yul\":1524:1556   */\n      slt\n        /* \"#utility.yul\":1521:1640   */\n      iszero\n      tag_236\n      jumpi\n        /* \"#utility.yul\":1559:1638   */\n      tag_237\n      tag_230\n      jump\t// in\n    tag_237:\n        /* \"#utility.yul\":1521:1640   */\n    tag_236:\n        /* \"#utility.yul\":1679:1680   */\n      0x00\n        /* \"#utility.yul\":1704:1757   */\n      tag_238\n        /* \"#utility.yul\":1749:1756   */\n      dup5\n        /* \"#utility.yul\":1740:1746   */\n      dup3\n        /* \"#utility.yul\":1729:1738   */\n      dup6\n        /* \"#utility.yul\":1725:1747   */\n      add\n        /* \"#utility.yul\":1704:1757   */\n      tag_223\n      jump\t// in\n    tag_238:\n        /* \"#utility.yul\":1694:1757   */\n      swap2\n      pop\n        /* \"#utility.yul\":1650:1767   */\n      pop\n        /* \"#utility.yul\":1445:1774   */\n      swap3\n      swap2\n      pop\n      pop\n      jump\t// out\n        /* \"#utility.yul\":1780:2254   */\n    tag_46:\n        /* \"#utility.yul\":1848:1854   */\n      0x00\n        /* \"#utility.yul\":1856:1862   */\n      dup1\n        /* \"#utility.yul\":1905:1907   */\n      0x40\n        /* \"#utility.yul\":1893:1902   */\n      dup4\n        /* \"#utility.yul\":1884:1891   */\n      dup6\n        /* \"#utility.yul\":1880:1903   */\n      sub\n        /* \"#utility.yul\":1876:1908   */\n      slt\n        /* \"#utility.yul\":1873:1992   */\n      iszero\n      tag_240\n      jumpi\n        /* \"#utility.yul\":1911:1990   */\n      tag_241\n      tag_230\n      jump\t// in\n    tag_241:\n        /* \"#utility.yul\":1873:1992   */\n    tag_240:\n        /* \"#utility.yul\":2031:2032   */\n      0x00\n        /* \"#utility.yul\":2056:2109   */\n      tag_242\n        /* \"#utility.yul\":2101:2108   */\n      dup6\n        /* \"#utility.yul\":2092:2098   */\n      dup3\n        /* \"#utility.yul\":2081:2090   */\n      dup7\n        /* \"#utility.yul\":2077:2099   */\n      add\n        /* \"#utility.yul\":2056:2109   */\n      tag_223\n      jump\t// in\n    tag_242:\n        /* \"#utility.yul\":2046:2109   */\n      swap3\n      pop\n        /* \"#utility.yul\":2002:2119   */\n      pop\n        /* \"#utility.yul\":2158:2160   */\n      0x20\n        /* \"#utility.yul\":2184:2237   */\n      tag_243\n        /* \"#utility.yul\":2229:2236   */\n      dup6\n        /* \"#utility.yul\":2220:2226   */\n      dup3\n        /* \"#utility.yul\":2209:2218   */\n      dup7\n        /* \"#utility.yul\":2205:2227   */\n      add\n        /* \"#utility.yul\":2184:2237   */\n      tag_223\n      jump\t// in\n    tag_243:\n        /* \"#utility.yul\":2174:2237   */\n      swap2\n      pop\n        /* \"#utility.yul\":2129:2247   */\n      pop\n        /* \"#utility.yul\":1780:2254   */\n      swap3\n      pop\n      swap3\n      swap1\n      pop\n      jump\t// out\n        /* \"#utility.yul\":2260:2879   */\n    tag_37:\n        /* \"#utility.yul\":2337:2343   */\n      0x00\n        /* \"#utility.yul\":2345:2351   */\n      dup1\n        /* \"#utility.yul\":2353:2359   */\n      0x00\n        /* \"#utility.yul\":2402:2404   */\n      0x60\n        /* \"#utility.yul\":2390:2399   */\n      dup5\n        /* \"#utility.yul\":2381:2388   */\n      dup7\n        /* \"#utility.yul\":2377:2400   */\n      sub\n        /* \"#utility.yul\":2373:2405   */\n      slt\n        /* \"#utility.yul\":2370:2489   */\n      iszero\n      tag_245\n      jumpi\n        /* \"#utility.yul\":2408:2487   */\n      tag_246\n      tag_230\n      jump\t// in\n    tag_246:\n        /* \"#utility.yul\":2370:2489   */\n    tag_245:\n        /* \"#utility.yul\":2528:2529   */\n      0x00\n        /* \"#utility.yul\":2553:2606   */\n      tag_247\n        /* \"#utility.yul\":2598:2605   */\n      dup7\n        /* \"#utility.yul\":2589:2595   */\n      dup3\n        /* \"#utility.yul\":2578:2587   */\n      dup8\n        /* \"#utility.yul\":2574:2596   */\n      add\n        /* \"#utility.yul\":2553:2606   */\n      tag_223\n      jump\t// in\n    tag_247:\n        /* \"#utility.yul\":2543:2606   */\n      swap4\n      pop\n        /* \"#utility.yul\":2499:2616   */\n      pop\n        /* \"#utility.yul\":2655:2657   */\n      0x20\n        /* \"#utility.yul\":2681:2734   */\n      tag_248\n        /* \"#utility.yul\":2726:2733   */\n      dup7\n        /* \"#utility.yul\":2717:2723   */\n      dup3\n        /* \"#utility.yul\":2706:2715   */\n      dup8\n        /* \"#utility.yul\":2702:2724   */\n      add\n        /* \"#utility.yul\":2681:2734   */\n      tag_223\n      jump\t// in\n    tag_248:\n        /* \"#utility.yul\":2671:2734   */\n      swap3\n      pop\n        /* \"#utility.yul\":2626:2744   */\n      pop\n        /* \"#utility.yul\":2783:2785   */\n      0x40\n        /* \"#utility.yul\":2809:2862   */\n      tag_249\n        /* \"#utility.yul\":2854:2861   */\n      dup7\n        /* \"#utility.yul\":2845:2851   */\n      dup3\n        /* \"#utility.yul\":2834:2843   */\n      dup8\n        /* \"#utility.yul\":2830:2852   */\n      add\n        /* \"#utility.yul\":2809:2862   */\n      tag_223\n      jump\t// in\n    tag_249:\n        /* \"#utility.yul\":2799:2862   */\n      swap2\n      pop\n        /* \"#utility.yul\":2754:2872   */\n      pop\n        /* \"#utility.yul\":2260:2879   */\n      swap3\n      pop\n      swap3\n      pop\n      swap3\n      jump\t// out\n        /* \"#utility.yul\":2885:3129   */\n    tag_250:\n        /* \"#utility.yul\":2998:3008   */\n      0x00\n        /* \"#utility.yul\":3033:3123   */\n      tag_252\n        /* \"#utility.yul\":3119:3122   */\n      dup4\n        /* \"#utility.yul\":3111:3117   */\n      dup4\n        /* \"#utility.yul\":3033:3123   */\n      tag_253\n      jump\t// in\n    tag_252:\n        /* \"#utility.yul\":3019:3123   */\n      swap1\n      pop\n        /* \"#utility.yul\":2885:3129   */\n      swap3\n      swap2\n      pop\n      pop\n      jump\t// out\n        /* \"#utility.yul\":3135:3379   */\n    tag_254:\n        /* \"#utility.yul\":3248:3258   */\n      0x00\n        /* \"#utility.yul\":3283:3373   */\n      tag_256\n        /* \"#utility.yul\":3369:3372   */\n      dup4\n        /* \"#utility.yul\":3361:3367   */\n      dup4\n        /* \"#utility.yul\":3283:3373   */\n      tag_257\n      jump\t// in\n    tag_256:\n        /* \"#utility.yul\":3269:3373   */\n      swap1\n      pop\n        /* \"#utility.yul\":3135:3379   */\n      swap3\n      swap2\n      pop\n      pop\n      jump\t// out\n        /* \"#utility.yul\":3455:4542   */\n    tag_258:\n        /* \"#utility.yul\":3618:3621   */\n      0x00\n        /* \"#utility.yul\":3647:3723   */\n      tag_260\n        /* \"#utility.yul\":3717:3722   */\n      dup3\n        /* \"#utility.yul\":3647:3723   */\n      tag_261\n      jump\t// in\n    tag_260:\n        /* \"#utility.yul\":3739:3847   */\n      tag_262\n        /* \"#utility.yul\":3840:3846   */\n      dup2\n        /* \"#utility.yul\":3835:3838   */\n      dup6\n        /* \"#utility.yul\":3739:3847   */\n      tag_263\n      jump\t// in\n    tag_262:\n        /* \"#utility.yul\":3732:3847   */\n      swap4\n      pop\n        /* \"#utility.yul\":3873:3876   */\n      dup4\n        /* \"#utility.yul\":3918:3922   */\n      0x20\n        /* \"#utility.yul\":3910:3916   */\n      dup3\n        /* \"#utility.yul\":3906:3923   */\n      mul\n        /* \"#utility.yul\":3901:3904   */\n      dup6\n        /* \"#utility.yul\":3897:3924   */\n      add\n        /* \"#utility.yul\":3948:4026   */\n      tag_264\n        /* \"#utility.yul\":4020:4025   */\n      dup6\n        /* \"#utility.yul\":3948:4026   */\n      tag_265\n      jump\t// in\n    tag_264:\n        /* \"#utility.yul\":4049:4056   */\n      dup1\n        /* \"#utility.yul\":4080:4081   */\n      0x00\n        /* \"#utility.yul\":4065:4497   */\n    tag_266:\n        /* \"#utility.yul\":4090:4096   */\n      dup6\n        /* \"#utility.yul\":4087:4088   */\n      dup2\n        /* \"#utility.yul\":4084:4097   */\n      lt\n        /* \"#utility.yul\":4065:4497   */\n      iszero\n      tag_268\n      jumpi\n        /* \"#utility.yul\":4161:4170   */\n      dup5\n        /* \"#utility.yul\":4155:4159   */\n      dup5\n        /* \"#utility.yul\":4151:4171   */\n      sub\n        /* \"#utility.yul\":4146:4149   */\n      dup10\n        /* \"#utility.yul\":4139:4172   */\n      mstore\n        /* \"#utility.yul\":4212:4218   */\n      dup2\n        /* \"#utility.yul\":4206:4219   */\n      mload\n        /* \"#utility.yul\":4240:4348   */\n      tag_269\n        /* \"#utility.yul\":4343:4347   */\n      dup6\n        /* \"#utility.yul\":4328:4341   */\n      dup3\n        /* \"#utility.yul\":4240:4348   */\n      tag_250\n      jump\t// in\n    tag_269:\n        /* \"#utility.yul\":4232:4348   */\n      swap5\n      pop\n        /* \"#utility.yul\":4371:4453   */\n      tag_270\n        /* \"#utility.yul\":4446:4452   */\n      dup4\n        /* \"#utility.yul\":4371:4453   */\n      tag_271\n      jump\t// in\n    tag_270:\n        /* \"#utility.yul\":4361:4453   */\n      swap3\n      pop\n        /* \"#utility.yul\":4482:4486   */\n      0x20\n        /* \"#utility.yul\":4477:4480   */\n      dup11\n        /* \"#utility.yul\":4473:4487   */\n      add\n        /* \"#utility.yul\":4466:4487   */\n      swap10\n      pop\n        /* \"#utility.yul\":4125:4497   */\n      pop\n        /* \"#utility.yul\":4112:4113   */\n      0x01\n        /* \"#utility.yul\":4109:4110   */\n      dup2\n        /* \"#utility.yul\":4105:4114   */\n      add\n        /* \"#utility.yul\":4100:4114   */\n      swap1\n      pop\n        /* \"#utility.yul\":4065:4497   */\n      jump(tag_266)\n    tag_268:\n        /* \"#utility.yul\":4069:4083   */\n      pop\n        /* \"#utility.yul\":4513:4517   */\n      dup3\n        /* \"#utility.yul\":4506:4517   */\n      swap8\n      pop\n        /* \"#utility.yul\":4533:4536   */\n      dup8\n        /* \"#utility.yul\":4526:4536   */\n      swap6\n      pop\n        /* \"#utility.yul\":3623:4542   */\n      pop\n      pop\n      pop\n      pop\n      pop\n        /* \"#utility.yul\":3455:4542   */\n      swap3\n      swap2\n      pop\n      pop\n      jump\t// out\n        /* \"#utility.yul\":4618:5705   */\n    tag_272:\n        /* \"#utility.yul\":4781:4784   */\n      0x00\n        /* \"#utility.yul\":4810:4886   */\n      tag_274\n        /* \"#utility.yul\":4880:4885   */\n      dup3\n        /* \"#utility.yul\":4810:4886   */\n      tag_275\n      jump\t// in\n    tag_274:\n        /* \"#utility.yul\":4902:5010   */\n      tag_276\n        /* \"#utility.yul\":5003:5009   */\n      dup2\n        /* \"#utility.yul\":4998:5001   */\n      dup6\n        /* \"#utility.yul\":4902:5010   */\n      tag_277\n      jump\t// in\n    tag_276:\n        /* \"#utility.yul\":4895:5010   */\n      swap4\n      pop\n        /* \"#utility.yul\":5036:5039   */\n      dup4\n        /* \"#utility.yul\":5081:5085   */\n      0x20\n        /* \"#utility.yul\":5073:5079   */\n      dup3\n        /* \"#utility.yul\":5069:5086   */\n      mul\n        /* \"#utility.yul\":5064:5067   */\n      dup6\n        /* \"#utility.yul\":5060:5087   */\n      add\n        /* \"#utility.yul\":5111:5189   */\n      tag_278\n        /* \"#utility.yul\":5183:5188   */\n      dup6\n        /* \"#utility.yul\":5111:5189   */\n      tag_279\n      jump\t// in\n    tag_278:\n        /* \"#utility.yul\":5212:5219   */\n      dup1\n        /* \"#utility.yul\":5243:5244   */\n      0x00\n        /* \"#utility.yul\":5228:5660   */\n    tag_280:\n        /* \"#utility.yul\":5253:5259   */\n      dup6\n        /* \"#utility.yul\":5250:5251   */\n      dup2\n        /* \"#utility.yul\":5247:5260   */\n      lt\n        /* \"#utility.yul\":5228:5660   */\n      iszero\n      tag_282\n      jumpi\n        /* \"#utility.yul\":5324:5333   */\n      dup5\n        /* \"#utility.yul\":5318:5322   */\n      dup5\n        /* \"#utility.yul\":5314:5334   */\n      sub\n        /* \"#utility.yul\":5309:5312   */\n      dup10\n        /* \"#utility.yul\":5302:5335   */\n      mstore\n        /* \"#utility.yul\":5375:5381   */\n      dup2\n        /* \"#utility.yul\":5369:5382   */\n      mload\n        /* \"#utility.yul\":5403:5511   */\n      tag_283\n        /* \"#utility.yul\":5506:5510   */\n      dup6\n        /* \"#utility.yul\":5491:5504   */\n      dup3\n        /* \"#utility.yul\":5403:5511   */\n      tag_254\n      jump\t// in\n    tag_283:\n        /* \"#utility.yul\":5395:5511   */\n      swap5\n      pop\n        /* \"#utility.yul\":5534:5616   */\n      tag_284\n        /* \"#utility.yul\":5609:5615   */\n      dup4\n        /* \"#utility.yul\":5534:5616   */\n      tag_285\n      jump\t// in\n    tag_284:\n        /* \"#utility.yul\":5524:5616   */\n      swap3\n      pop\n        /* \"#utility.yul\":5645:5649   */\n      0x20\n        /* \"#utility.yul\":5640:5643   */\n      dup11\n        /* \"#utility.yul\":5636:5650   */\n      add\n        /* \"#utility.yul\":5629:5650   */\n      swap10\n      pop\n        /* \"#utility.yul\":5288:5660   */\n      pop\n        /* \"#utility.yul\":5275:5276   */\n      0x01\n        /* \"#utility.yul\":5272:5273   */\n      dup2\n        /* \"#utility.yul\":5268:5277   */\n      add\n        /* \"#utility.yul\":5263:5277   */\n      swap1\n      pop\n        /* \"#utility.yul\":5228:5660   */\n      jump(tag_280)\n    tag_282:\n        /* \"#utility.yul\":5232:5246   */\n      pop\n        /* \"#utility.yul\":5676:5680   */\n      dup3\n        /* \"#utility.yul\":5669:5680   */\n      swap8\n      pop\n        /* \"#utility.yul\":5696:5699   */\n      dup8\n        /* \"#utility.yul\":5689:5699   */\n      swap6\n      pop\n        /* \"#utility.yul\":4786:5705   */\n      pop\n      pop\n      pop\n      pop\n      pop\n        /* \"#utility.yul\":4618:5705   */\n      swap3\n      swap2\n      pop\n      pop\n      jump\t// out\n        /* \"#utility.yul\":5711:5810   */\n    tag_286:\n        /* \"#utility.yul\":5782:5803   */\n      tag_288\n        /* \"#utility.yul\":5797:5802   */\n      dup2\n        /* \"#utility.yul\":5782:5803   */\n      tag_289\n      jump\t// in\n    tag_288:\n        /* \"#utility.yul\":5777:5780   */\n      dup3\n        /* \"#utility.yul\":5770:5804   */\n      mstore\n        /* \"#utility.yul\":5711:5810   */\n      pop\n      pop\n      jump\t// out\n        /* \"#utility.yul\":5816:6160   */\n    tag_290:\n        /* \"#utility.yul\":5894:5897   */\n      0x00\n        /* \"#utility.yul\":5922:5961   */\n      tag_292\n        /* \"#utility.yul\":5955:5960   */\n      dup3\n        /* \"#utility.yul\":5922:5961   */\n      tag_293\n      jump\t// in\n    tag_292:\n        /* \"#utility.yul\":5977:6038   */\n      tag_294\n        /* \"#utility.yul\":6031:6037   */\n      dup2\n        /* \"#utility.yul\":6026:6029   */\n      dup6\n        /* \"#utility.yul\":5977:6038   */\n      tag_295\n      jump\t// in\n    tag_294:\n        /* \"#utility.yul\":5970:6038   */\n      swap4\n      pop\n        /* \"#utility.yul\":6047:6099   */\n      tag_296\n        /* \"#utility.yul\":6092:6098   */\n      dup2\n        /* \"#utility.yul\":6087:6090   */\n      dup6\n        /* \"#utility.yul\":6080:6084   */\n      0x20\n        /* \"#utility.yul\":6073:6078   */\n      dup7\n        /* \"#utility.yul\":6069:6085   */\n      add\n        /* \"#utility.yul\":6047:6099   */\n      tag_297\n      jump\t// in\n    tag_296:\n        /* \"#utility.yul\":6124:6153   */\n      tag_298\n        /* \"#utility.yul\":6146:6152   */\n      dup2\n        /* \"#utility.yul\":6124:6153   */\n      tag_299\n      jump\t// in\n    tag_298:\n        /* \"#utility.yul\":6119:6122   */\n      dup5\n        /* \"#utility.yul\":6115:6154   */\n      add\n        /* \"#utility.yul\":6108:6154   */\n      swap2\n      pop\n        /* \"#utility.yul\":5898:6160   */\n      pop\n        /* \"#utility.yul\":5816:6160   */\n      swap3\n      swap2\n      pop\n      pop\n      jump\t// out\n        /* \"#utility.yul\":6166:6530   */\n    tag_300:\n        /* \"#utility.yul\":6254:6257   */\n      0x00\n        /* \"#utility.yul\":6282:6321   */\n      tag_302\n        /* \"#utility.yul\":6315:6320   */\n      dup3\n        /* \"#utility.yul\":6282:6321   */\n      tag_293\n      jump\t// in\n    tag_302:\n        /* \"#utility.yul\":6337:6408   */\n      tag_303\n        /* \"#utility.yul\":6401:6407   */\n      dup2\n        /* \"#utility.yul\":6396:6399   */\n      dup6\n        /* \"#utility.yul\":6337:6408   */\n      tag_304\n      jump\t// in\n    tag_303:\n        /* \"#utility.yul\":6330:6408   */\n      swap4\n      pop\n        /* \"#utility.yul\":6417:6469   */\n      tag_305\n        /* \"#utility.yul\":6462:6468   */\n      dup2\n        /* \"#utility.yul\":6457:6460   */\n      dup6\n        /* \"#utility.yul\":6450:6454   */\n      0x20\n        /* \"#utility.yul\":6443:6448   */\n      dup7\n        /* \"#utility.yul\":6439:6455   */\n      add\n        /* \"#utility.yul\":6417:6469   */\n      tag_297\n      jump\t// in\n    tag_305:\n        /* \"#utility.yul\":6494:6523   */\n      tag_306\n        /* \"#utility.yul\":6516:6522   */\n      dup2\n        /* \"#utility.yul\":6494:6523   */\n      tag_299\n      jump\t// in\n    tag_306:\n        /* \"#utility.yul\":6489:6492   */\n      dup5\n        /* \"#utility.yul\":6485:6524   */\n      add\n        /* \"#utility.yul\":6478:6524   */\n      swap2\n      pop\n        /* \"#utility.yul\":6258:6530   */\n      pop\n        /* \"#utility.yul\":6166:6530   */\n      swap3\n      swap2\n      pop\n      pop\n      jump\t// out\n        /* \"#utility.yul\":6536:6902   */\n    tag_307:\n        /* \"#utility.yul\":6678:6681   */\n      0x00\n        /* \"#utility.yul\":6699:6766   */\n      tag_309\n        /* \"#utility.yul\":6763:6765   */\n      0x28\n        /* \"#utility.yul\":6758:6761   */\n      dup4\n        /* \"#utility.yul\":6699:6766   */\n      tag_304\n      jump\t// in\n    tag_309:\n        /* \"#utility.yul\":6692:6766   */\n      swap2\n      pop\n        /* \"#utility.yul\":6775:6868   */\n      tag_310\n        /* \"#utility.yul\":6864:6867   */\n      dup3\n        /* \"#utility.yul\":6775:6868   */\n      tag_311\n      jump\t// in\n    tag_310:\n        /* \"#utility.yul\":6893:6895   */\n      0x40\n        /* \"#utility.yul\":6888:6891   */\n      dup3\n        /* \"#utility.yul\":6884:6896   */\n      add\n        /* \"#utility.yul\":6877:6896   */\n      swap1\n      pop\n        /* \"#utility.yul\":6536:6902   */\n      swap2\n      swap1\n      pop\n      jump\t// out\n        /* \"#utility.yul\":6908:7274   */\n    tag_312:\n        /* \"#utility.yul\":7050:7053   */\n      0x00\n        /* \"#utility.yul\":7071:7138   */\n      tag_314\n        /* \"#utility.yul\":7135:7137   */\n      0x1d\n        /* \"#utility.yul\":7130:7133   */\n      dup4\n        /* \"#utility.yul\":7071:7138   */\n      tag_304\n      jump\t// in\n    tag_314:\n        /* \"#utility.yul\":7064:7138   */\n      swap2\n      pop\n        /* \"#utility.yul\":7147:7240   */\n      tag_315\n        /* \"#utility.yul\":7236:7239   */\n      dup3\n        /* \"#utility.yul\":7147:7240   */\n      tag_316\n      jump\t// in\n    tag_315:\n        /* \"#utility.yul\":7265:7267   */\n      0x20\n        /* \"#utility.yul\":7260:7263   */\n      dup3\n        /* \"#utility.yul\":7256:7268   */\n      add\n        /* \"#utility.yul\":7249:7268   */\n      swap1\n      pop\n        /* \"#utility.yul\":6908:7274   */\n      swap2\n      swap1\n      pop\n      jump\t// out\n        /* \"#utility.yul\":7280:7646   */\n    tag_317:\n        /* \"#utility.yul\":7422:7425   */\n      0x00\n        /* \"#utility.yul\":7443:7510   */\n      tag_319\n        /* \"#utility.yul\":7507:7509   */\n      0x2b\n        /* \"#utility.yul\":7502:7505   */\n      dup4\n        /* \"#utility.yul\":7443:7510   */\n      tag_304\n      jump\t// in\n    tag_319:\n        /* \"#utility.yul\":7436:7510   */\n      swap2\n      pop\n        /* \"#utility.yul\":7519:7612   */\n      tag_320\n        /* \"#utility.yul\":7608:7611   */\n      dup3\n        /* \"#utility.yul\":7519:7612   */\n      tag_321\n      jump\t// in\n    tag_320:\n        /* \"#utility.yul\":7637:7639   */\n      0x40\n        /* \"#utility.yul\":7632:7635   */\n      dup3\n        /* \"#utility.yul\":7628:7640   */\n      add\n        /* \"#utility.yul\":7621:7640   */\n      swap1\n      pop\n        /* \"#utility.yul\":7280:7646   */\n      swap2\n      swap1\n      pop\n      jump\t// out\n        /* \"#utility.yul\":7652:8018   */\n    tag_322:\n        /* \"#utility.yul\":7794:7797   */\n      0x00\n        /* \"#utility.yul\":7815:7882   */\n      tag_324\n        /* \"#utility.yul\":7879:7881   */\n      0x2e\n        /* \"#utility.yul\":7874:7877   */\n      dup4\n        /* \"#utility.yul\":7815:7882   */\n      tag_304\n      jump\t// in\n    tag_324:\n        /* \"#utility.yul\":7808:7882   */\n      swap2\n      pop\n        /* \"#utility.yul\":7891:7984   */\n      tag_325\n        /* \"#utility.yul\":7980:7983   */\n      dup3\n        /* \"#utility.yul\":7891:7984   */\n      tag_326\n      jump\t// in\n    tag_325:\n        /* \"#utility.yul\":8009:8011   */\n      0x40\n        /* \"#utility.yul\":8004:8007   */\n      dup3\n        /* \"#utility.yul\":8000:8012   */\n      add\n        /* \"#utility.yul\":7993:8012   */\n      swap1\n      pop\n        /* \"#utility.yul\":7652:8018   */\n      swap2\n      swap1\n      pop\n      jump\t// out\n        /* \"#utility.yul\":8024:8390   */\n    tag_327:\n        /* \"#utility.yul\":8166:8169   */\n      0x00\n        /* \"#utility.yul\":8187:8254   */\n      tag_329\n        /* \"#utility.yul\":8251:8253   */\n      0x17\n        /* \"#utility.yul\":8246:8249   */\n      dup4\n        /* \"#utility.yul\":8187:8254   */\n      tag_304\n      jump\t// in\n    tag_329:\n        /* \"#utility.yul\":8180:8254   */\n      swap2\n      pop\n        /* \"#utility.yul\":8263:8356   */\n      tag_330\n        /* \"#utility.yul\":8352:8355   */\n      dup3\n        /* \"#utility.yul\":8263:8356   */\n      tag_331\n      jump\t// in\n    tag_330:\n        /* \"#utility.yul\":8381:8383   */\n      0x20\n        /* \"#utility.yul\":8376:8379   */\n      dup3\n        /* \"#utility.yul\":8372:8384   */\n      add\n        /* \"#utility.yul\":8365:8384   */\n      swap1\n      pop\n        /* \"#utility.yul\":8024:8390   */\n      swap2\n      swap1\n      pop\n      jump\t// out\n        /* \"#utility.yul\":8396:8762   */\n    tag_332:\n        /* \"#utility.yul\":8538:8541   */\n      0x00\n        /* \"#utility.yul\":8559:8626   */\n      tag_334\n        /* \"#utility.yul\":8623:8625   */\n      0x24\n        /* \"#utility.yul\":8618:8621   */\n      dup4\n        /* \"#utility.yul\":8559:8626   */\n      tag_304\n      jump\t// in\n    tag_334:\n        /* \"#utility.yul\":8552:8626   */\n      swap2\n      pop\n        /* \"#utility.yul\":8635:8728   */\n      tag_335\n        /* \"#utility.yul\":8724:8727   */\n      dup3\n        /* \"#utility.yul\":8635:8728   */\n      tag_336\n      jump\t// in\n    tag_335:\n        /* \"#utility.yul\":8753:8755   */\n      0x40\n        /* \"#utility.yul\":8748:8751   */\n      dup3\n        /* \"#utility.yul\":8744:8756   */\n      add\n        /* \"#utility.yul\":8737:8756   */\n      swap1\n      pop\n        /* \"#utility.yul\":8396:8762   */\n      swap2\n      swap1\n      pop\n      jump\t// out\n        /* \"#utility.yul\":8834:9963   */\n    tag_253:\n        /* \"#utility.yul\":8937:8940   */\n      0x00\n        /* \"#utility.yul\":8973:8977   */\n      0xa0\n        /* \"#utility.yul\":8968:8971   */\n      dup4\n        /* \"#utility.yul\":8964:8978   */\n      add\n        /* \"#utility.yul\":9065:9069   */\n      0x00\n        /* \"#utility.yul\":9058:9063   */\n      dup4\n        /* \"#utility.yul\":9054:9070   */\n      add\n        /* \"#utility.yul\":9048:9071   */\n      mload\n        /* \"#utility.yul\":9084:9147   */\n      tag_338\n        /* \"#utility.yul\":9141:9145   */\n      0x00\n        /* \"#utility.yul\":9136:9139   */\n      dup7\n        /* \"#utility.yul\":9132:9146   */\n      add\n        /* \"#utility.yul\":9118:9130   */\n      dup3\n        /* \"#utility.yul\":9084:9147   */\n      tag_339\n      jump\t// in\n    tag_338:\n        /* \"#utility.yul\":8988:9157   */\n      pop\n        /* \"#utility.yul\":9244:9248   */\n      0x20\n        /* \"#utility.yul\":9237:9242   */\n      dup4\n        /* \"#utility.yul\":9233:9249   */\n      add\n        /* \"#utility.yul\":9227:9250   */\n      mload\n        /* \"#utility.yul\":9263:9326   */\n      tag_340\n        /* \"#utility.yul\":9320:9324   */\n      0x20\n        /* \"#utility.yul\":9315:9318   */\n      dup7\n        /* \"#utility.yul\":9311:9325   */\n      add\n        /* \"#utility.yul\":9297:9309   */\n      dup3\n        /* \"#utility.yul\":9263:9326   */\n      tag_339\n      jump\t// in\n    tag_340:\n        /* \"#utility.yul\":9167:9336   */\n      pop\n        /* \"#utility.yul\":9420:9424   */\n      0x40\n        /* \"#utility.yul\":9413:9418   */\n      dup4\n        /* \"#utility.yul\":9409:9425   */\n      add\n        /* \"#utility.yul\":9403:9426   */\n      mload\n        /* \"#utility.yul\":9473:9476   */\n      dup5\n        /* \"#utility.yul\":9467:9471   */\n      dup3\n        /* \"#utility.yul\":9463:9477   */\n      sub\n        /* \"#utility.yul\":9456:9460   */\n      0x40\n        /* \"#utility.yul\":9451:9454   */\n      dup7\n        /* \"#utility.yul\":9447:9461   */\n      add\n        /* \"#utility.yul\":9440:9478   */\n      mstore\n        /* \"#utility.yul\":9499:9572   */\n      tag_341\n        /* \"#utility.yul\":9567:9571   */\n      dup3\n        /* \"#utility.yul\":9553:9565   */\n      dup3\n        /* \"#utility.yul\":9499:9572   */\n      tag_290\n      jump\t// in\n    tag_341:\n        /* \"#utility.yul\":9491:9572   */\n      swap2\n      pop\n        /* \"#utility.yul\":9346:9583   */\n      pop\n        /* \"#utility.yul\":9672:9676   */\n      0x60\n        /* \"#utility.yul\":9665:9670   */\n      dup4\n        /* \"#utility.yul\":9661:9677   */\n      add\n        /* \"#utility.yul\":9655:9678   */\n      mload\n        /* \"#utility.yul\":9691:9754   */\n      tag_342\n        /* \"#utility.yul\":9748:9752   */\n      0x60\n        /* \"#utility.yul\":9743:9746   */\n      dup7\n        /* \"#utility.yul\":9739:9753   */\n      add\n        /* \"#utility.yul\":9725:9737   */\n      dup3\n        /* \"#utility.yul\":9691:9754   */\n      tag_339\n      jump\t// in\n    tag_342:\n        /* \"#utility.yul\":9593:9764   */\n      pop\n        /* \"#utility.yul\":9850:9854   */\n      0x80\n        /* \"#utility.yul\":9843:9848   */\n      dup4\n        /* \"#utility.yul\":9839:9855   */\n      add\n        /* \"#utility.yul\":9833:9856   */\n      mload\n        /* \"#utility.yul\":9869:9926   */\n      tag_343\n        /* \"#utility.yul\":9920:9924   */\n      0x80\n        /* \"#utility.yul\":9915:9918   */\n      dup7\n        /* \"#utility.yul\":9911:9925   */\n      add\n        /* \"#utility.yul\":9897:9909   */\n      dup3\n        /* \"#utility.yul\":9869:9926   */\n      tag_286\n      jump\t// in\n    tag_343:\n        /* \"#utility.yul\":9774:9936   */\n      pop\n        /* \"#utility.yul\":9953:9957   */\n      dup1\n        /* \"#utility.yul\":9946:9957   */\n      swap2\n      pop\n        /* \"#utility.yul\":8942:9963   */\n      pop\n        /* \"#utility.yul\":8834:9963   */\n      swap3\n      swap2\n      pop\n      pop\n      jump\t// out\n        /* \"#utility.yul\":10035:11174   */\n    tag_344:\n        /* \"#utility.yul\":10148:10151   */\n      0x00\n        /* \"#utility.yul\":10184:10188   */\n      0xa0\n        /* \"#utility.yul\":10179:10182   */\n      dup4\n        /* \"#utility.yul\":10175:10189   */\n      add\n        /* \"#utility.yul\":10276:10280   */\n      0x00\n        /* \"#utility.yul\":10269:10274   */\n      dup4\n        /* \"#utility.yul\":10265:10281   */\n      add\n        /* \"#utility.yul\":10259:10282   */\n      mload\n        /* \"#utility.yul\":10295:10358   */\n      tag_346\n        /* \"#utility.yul\":10352:10356   */\n      0x00\n        /* \"#utility.yul\":10347:10350   */\n      dup7\n        /* \"#utility.yul\":10343:10357   */\n      add\n        /* \"#utility.yul\":10329:10341   */\n      dup3\n        /* \"#utility.yul\":10295:10358   */\n      tag_339\n      jump\t// in\n    tag_346:\n        /* \"#utility.yul\":10199:10368   */\n      pop\n        /* \"#utility.yul\":10455:10459   */\n      0x20\n        /* \"#utility.yul\":10448:10453   */\n      dup4\n        /* \"#utility.yul\":10444:10460   */\n      add\n        /* \"#utility.yul\":10438:10461   */\n      mload\n        /* \"#utility.yul\":10474:10537   */\n      tag_347\n        /* \"#utility.yul\":10531:10535   */\n      0x20\n        /* \"#utility.yul\":10526:10529   */\n      dup7\n        /* \"#utility.yul\":10522:10536   */\n      add\n        /* \"#utility.yul\":10508:10520   */\n      dup3\n        /* \"#utility.yul\":10474:10537   */\n      tag_339\n      jump\t// in\n    tag_347:\n        /* \"#utility.yul\":10378:10547   */\n      pop\n        /* \"#utility.yul\":10631:10635   */\n      0x40\n        /* \"#utility.yul\":10624:10629   */\n      dup4\n        /* \"#utility.yul\":10620:10636   */\n      add\n        /* \"#utility.yul\":10614:10637   */\n      mload\n        /* \"#utility.yul\":10684:10687   */\n      dup5\n        /* \"#utility.yul\":10678:10682   */\n      dup3\n        /* \"#utility.yul\":10674:10688   */\n      sub\n        /* \"#utility.yul\":10667:10671   */\n      0x40\n        /* \"#utility.yul\":10662:10665   */\n      dup7\n        /* \"#utility.yul\":10658:10672   */\n      add\n        /* \"#utility.yul\":10651:10689   */\n      mstore\n        /* \"#utility.yul\":10710:10783   */\n      tag_348\n        /* \"#utility.yul\":10778:10782   */\n      dup3\n        /* \"#utility.yul\":10764:10776   */\n      dup3\n        /* \"#utility.yul\":10710:10783   */\n      tag_290\n      jump\t// in\n    tag_348:\n        /* \"#utility.yul\":10702:10783   */\n      swap2\n      pop\n        /* \"#utility.yul\":10557:10794   */\n      pop\n        /* \"#utility.yul\":10883:10887   */\n      0x60\n        /* \"#utility.yul\":10876:10881   */\n      dup4\n        /* \"#utility.yul\":10872:10888   */\n      add\n        /* \"#utility.yul\":10866:10889   */\n      mload\n        /* \"#utility.yul\":10902:10965   */\n      tag_349\n        /* \"#utility.yul\":10959:10963   */\n      0x60\n        /* \"#utility.yul\":10954:10957   */\n      dup7\n        /* \"#utility.yul\":10950:10964   */\n      add\n        /* \"#utility.yul\":10936:10948   */\n      dup3\n        /* \"#utility.yul\":10902:10965   */\n      tag_339\n      jump\t// in\n    tag_349:\n        /* \"#utility.yul\":10804:10975   */\n      pop\n        /* \"#utility.yul\":11061:11065   */\n      0x80\n        /* \"#utility.yul\":11054:11059   */\n      dup4\n        /* \"#utility.yul\":11050:11066   */\n      add\n        /* \"#utility.yul\":11044:11067   */\n      mload\n        /* \"#utility.yul\":11080:11137   */\n      tag_350\n        /* \"#utility.yul\":11131:11135   */\n      0x80\n        /* \"#utility.yul\":11126:11129   */\n      dup7\n        /* \"#utility.yul\":11122:11136   */\n      add\n        /* \"#utility.yul\":11108:11120   */\n      dup3\n        /* \"#utility.yul\":11080:11137   */\n      tag_286\n      jump\t// in\n    tag_350:\n        /* \"#utility.yul\":10985:11147   */\n      pop\n        /* \"#utility.yul\":11164:11168   */\n      dup1\n        /* \"#utility.yul\":11157:11168   */\n      swap2\n      pop\n        /* \"#utility.yul\":10153:11174   */\n      pop\n        /* \"#utility.yul\":10035:11174   */\n      swap3\n      swap2\n      pop\n      pop\n      jump\t// out\n        /* \"#utility.yul\":11246:12355   */\n    tag_257:\n        /* \"#utility.yul\":11349:11352   */\n      0x00\n        /* \"#utility.yul\":11385:11389   */\n      0xa0\n        /* \"#utility.yul\":11380:11383   */\n      dup4\n        /* \"#utility.yul\":11376:11390   */\n      add\n        /* \"#utility.yul\":11472:11476   */\n      0x00\n        /* \"#utility.yul\":11465:11470   */\n      dup4\n        /* \"#utility.yul\":11461:11477   */\n      add\n        /* \"#utility.yul\":11455:11478   */\n      mload\n        /* \"#utility.yul\":11525:11528   */\n      dup5\n        /* \"#utility.yul\":11519:11523   */\n      dup3\n        /* \"#utility.yul\":11515:11529   */\n      sub\n        /* \"#utility.yul\":11508:11512   */\n      0x00\n        /* \"#utility.yul\":11503:11506   */\n      dup7\n        /* \"#utility.yul\":11499:11513   */\n      add\n        /* \"#utility.yul\":11492:11530   */\n      mstore\n        /* \"#utility.yul\":11551:11624   */\n      tag_352\n        /* \"#utility.yul\":11619:11623   */\n      dup3\n        /* \"#utility.yul\":11605:11617   */\n      dup3\n        /* \"#utility.yul\":11551:11624   */\n      tag_290\n      jump\t// in\n    tag_352:\n        /* \"#utility.yul\":11543:11624   */\n      swap2\n      pop\n        /* \"#utility.yul\":11400:11635   */\n      pop\n        /* \"#utility.yul\":11718:11722   */\n      0x20\n        /* \"#utility.yul\":11711:11716   */\n      dup4\n        /* \"#utility.yul\":11707:11723   */\n      add\n        /* \"#utility.yul\":11701:11724   */\n      mload\n        /* \"#utility.yul\":11737:11800   */\n      tag_353\n        /* \"#utility.yul\":11794:11798   */\n      0x20\n        /* \"#utility.yul\":11789:11792   */\n      dup7\n        /* \"#utility.yul\":11785:11799   */\n      add\n        /* \"#utility.yul\":11771:11783   */\n      dup3\n        /* \"#utility.yul\":11737:11800   */\n      tag_339\n      jump\t// in\n    tag_353:\n        /* \"#utility.yul\":11645:11810   */\n      pop\n        /* \"#utility.yul\":11897:11901   */\n      0x40\n        /* \"#utility.yul\":11890:11895   */\n      dup4\n        /* \"#utility.yul\":11886:11902   */\n      add\n        /* \"#utility.yul\":11880:11903   */\n      mload\n        /* \"#utility.yul\":11916:11973   */\n      tag_354\n        /* \"#utility.yul\":11967:11971   */\n      0x40\n        /* \"#utility.yul\":11962:11965   */\n      dup7\n        /* \"#utility.yul\":11958:11972   */\n      add\n        /* \"#utility.yul\":11944:11956   */\n      dup3\n        /* \"#utility.yul\":11916:11973   */\n      tag_286\n      jump\t// in\n    tag_354:\n        /* \"#utility.yul\":11820:11983   */\n      pop\n        /* \"#utility.yul\":12070:12074   */\n      0x60\n        /* \"#utility.yul\":12063:12068   */\n      dup4\n        /* \"#utility.yul\":12059:12075   */\n      add\n        /* \"#utility.yul\":12053:12076   */\n      mload\n        /* \"#utility.yul\":12089:12146   */\n      tag_355\n        /* \"#utility.yul\":12140:12144   */\n      0x60\n        /* \"#utility.yul\":12135:12138   */\n      dup7\n        /* \"#utility.yul\":12131:12145   */\n      add\n        /* \"#utility.yul\":12117:12129   */\n      dup3\n        /* \"#utility.yul\":12089:12146   */\n      tag_286\n      jump\t// in\n    tag_355:\n        /* \"#utility.yul\":11993:12156   */\n      pop\n        /* \"#utility.yul\":12242:12246   */\n      0x80\n        /* \"#utility.yul\":12235:12240   */\n      dup4\n        /* \"#utility.yul\":12231:12247   */\n      add\n        /* \"#utility.yul\":12225:12248   */\n      mload\n        /* \"#utility.yul\":12261:12318   */\n      tag_356\n        /* \"#utility.yul\":12312:12316   */\n      0x80\n        /* \"#utility.yul\":12307:12310   */\n      dup7\n        /* \"#utility.yul\":12303:12317   */\n      add\n        /* \"#utility.yul\":12289:12301   */\n      dup3\n        /* \"#utility.yul\":12261:12318   */\n      tag_286\n      jump\t// in\n    tag_356:\n        /* \"#utility.yul\":12166:12328   */\n      pop\n        /* \"#utility.yul\":12345:12349   */\n      dup1\n        /* \"#utility.yul\":12338:12349   */\n      swap2\n      pop\n        /* \"#utility.yul\":11354:12355   */\n      pop\n        /* \"#utility.yul\":11246:12355   */\n      swap3\n      swap2\n      pop\n      pop\n      jump\t// out\n        /* \"#utility.yul\":12427:13546   */\n    tag_357:\n        /* \"#utility.yul\":12540:12543   */\n      0x00\n        /* \"#utility.yul\":12576:12580   */\n      0xa0\n        /* \"#utility.yul\":12571:12574   */\n      dup4\n        /* \"#utility.yul\":12567:12581   */\n      add\n        /* \"#utility.yul\":12663:12667   */\n      0x00\n        /* \"#utility.yul\":12656:12661   */\n      dup4\n        /* \"#utility.yul\":12652:12668   */\n      add\n        /* \"#utility.yul\":12646:12669   */\n      mload\n        /* \"#utility.yul\":12716:12719   */\n      dup5\n        /* \"#utility.yul\":12710:12714   */\n      dup3\n        /* \"#utility.yul\":12706:12720   */\n      sub\n        /* \"#utility.yul\":12699:12703   */\n      0x00\n        /* \"#utility.yul\":12694:12697   */\n      dup7\n        /* \"#utility.yul\":12690:12704   */\n      add\n        /* \"#utility.yul\":12683:12721   */\n      mstore\n        /* \"#utility.yul\":12742:12815   */\n      tag_359\n        /* \"#utility.yul\":12810:12814   */\n      dup3\n        /* \"#utility.yul\":12796:12808   */\n      dup3\n        /* \"#utility.yul\":12742:12815   */\n      tag_290\n      jump\t// in\n    tag_359:\n        /* \"#utility.yul\":12734:12815   */\n      swap2\n      pop\n        /* \"#utility.yul\":12591:12826   */\n      pop\n        /* \"#utility.yul\":12909:12913   */\n      0x20\n        /* \"#utility.yul\":12902:12907   */\n      dup4\n        /* \"#utility.yul\":12898:12914   */\n      add\n        /* \"#utility.yul\":12892:12915   */\n      mload\n        /* \"#utility.yul\":12928:12991   */\n      tag_360\n        /* \"#utility.yul\":12985:12989   */\n      0x20\n        /* \"#utility.yul\":12980:12983   */\n      dup7\n        /* \"#utility.yul\":12976:12990   */\n      add\n        /* \"#utility.yul\":12962:12974   */\n      dup3\n        /* \"#utility.yul\":12928:12991   */\n      tag_339\n      jump\t// in\n    tag_360:\n        /* \"#utility.yul\":12836:13001   */\n      pop\n        /* \"#utility.yul\":13088:13092   */\n      0x40\n        /* \"#utility.yul\":13081:13086   */\n      dup4\n        /* \"#utility.yul\":13077:13093   */\n      add\n        /* \"#utility.yul\":13071:13094   */\n      mload\n        /* \"#utility.yul\":13107:13164   */\n      tag_361\n        /* \"#utility.yul\":13158:13162   */\n      0x40\n        /* \"#utility.yul\":13153:13156   */\n      dup7\n        /* \"#utility.yul\":13149:13163   */\n      add\n        /* \"#utility.yul\":13135:13147   */\n      dup3\n        /* \"#utility.yul\":13107:13164   */\n      tag_286\n      jump\t// in\n    tag_361:\n        /* \"#utility.yul\":13011:13174   */\n      pop\n        /* \"#utility.yul\":13261:13265   */\n      0x60\n        /* \"#utility.yul\":13254:13259   */\n      dup4\n        /* \"#utility.yul\":13250:13266   */\n      add\n        /* \"#utility.yul\":13244:13267   */\n      mload\n        /* \"#utility.yul\":13280:13337   */\n      tag_362\n        /* \"#utility.yul\":13331:13335   */\n      0x60\n        /* \"#utility.yul\":13326:13329   */\n      dup7\n        /* \"#utility.yul\":13322:13336   */\n      add\n        /* \"#utility.yul\":13308:13320   */\n      dup3\n        /* \"#utility.yul\":13280:13337   */\n      tag_286\n      jump\t// in\n    tag_362:\n        /* \"#utility.yul\":13184:13347   */\n      pop\n        /* \"#utility.yul\":13433:13437   */\n      0x80\n        /* \"#utility.yul\":13426:13431   */\n      dup4\n        /* \"#utility.yul\":13422:13438   */\n      add\n        /* \"#utility.yul\":13416:13439   */\n      mload\n        /* \"#utility.yul\":13452:13509   */\n      tag_363\n        /* \"#utility.yul\":13503:13507   */\n      0x80\n        /* \"#utility.yul\":13498:13501   */\n      dup7\n        /* \"#utility.yul\":13494:13508   */\n      add\n        /* \"#utility.yul\":13480:13492   */\n      dup3\n        /* \"#utility.yul\":13452:13509   */\n      tag_286\n      jump\t// in\n    tag_363:\n        /* \"#utility.yul\":13357:13519   */\n      pop\n        /* \"#utility.yul\":13536:13540   */\n      dup1\n        /* \"#utility.yul\":13529:13540   */\n      swap2\n      pop\n        /* \"#utility.yul\":12545:13546   */\n      pop\n        /* \"#utility.yul\":12427:13546   */\n      swap3\n      swap2\n      pop\n      pop\n      jump\t// out\n        /* \"#utility.yul\":13552:13660   */\n    tag_339:\n        /* \"#utility.yul\":13629:13653   */\n      tag_365\n        /* \"#utility.yul\":13647:13652   */\n      dup2\n        /* \"#utility.yul\":13629:13653   */\n      tag_366\n      jump\t// in\n    tag_365:\n        /* \"#utility.yul\":13624:13627   */\n      dup3\n        /* \"#utility.yul\":13617:13654   */\n      mstore\n        /* \"#utility.yul\":13552:13660   */\n      pop\n      pop\n      jump\t// out\n        /* \"#utility.yul\":13666:14127   */\n    tag_25:\n        /* \"#utility.yul\":13853:13857   */\n      0x00\n        /* \"#utility.yul\":13891:13893   */\n      0x20\n        /* \"#utility.yul\":13880:13889   */\n      dup3\n        /* \"#utility.yul\":13876:13894   */\n      add\n        /* \"#utility.yul\":13868:13894   */\n      swap1\n      pop\n        /* \"#utility.yul\":13940:13949   */\n      dup2\n        /* \"#utility.yul\":13934:13938   */\n      dup2\n        /* \"#utility.yul\":13930:13950   */\n      sub\n        /* \"#utility.yul\":13926:13927   */\n      0x00\n        /* \"#utility.yul\":13915:13924   */\n      dup4\n        /* \"#utility.yul\":13911:13928   */\n      add\n        /* \"#utility.yul\":13904:13951   */\n      mstore\n        /* \"#utility.yul\":13968:14120   */\n      tag_368\n        /* \"#utility.yul\":14115:14119   */\n      dup2\n        /* \"#utility.yul\":14106:14112   */\n      dup5\n        /* \"#utility.yul\":13968:14120   */\n      tag_258\n      jump\t// in\n    tag_368:\n        /* \"#utility.yul\":13960:14120   */\n      swap1\n      pop\n        /* \"#utility.yul\":13666:14127   */\n      swap3\n      swap2\n      pop\n      pop\n      jump\t// out\n        /* \"#utility.yul\":14133:14594   */\n    tag_15:\n        /* \"#utility.yul\":14320:14324   */\n      0x00\n        /* \"#utility.yul\":14358:14360   */\n      0x20\n        /* \"#utility.yul\":14347:14356   */\n      dup3\n        /* \"#utility.yul\":14343:14361   */\n      add\n        /* \"#utility.yul\":14335:14361   */\n      swap1\n      pop\n        /* \"#utility.yul\":14407:14416   */\n      dup2\n        /* \"#utility.yul\":14401:14405   */\n      dup2\n        /* \"#utility.yul\":14397:14417   */\n      sub\n        /* \"#utility.yul\":14393:14394   */\n      0x00\n        /* \"#utility.yul\":14382:14391   */\n      dup4\n        /* \"#utility.yul\":14378:14395   */\n      add\n        /* \"#utility.yul\":14371:14418   */\n      mstore\n        /* \"#utility.yul\":14435:14587   */\n      tag_370\n        /* \"#utility.yul\":14582:14586   */\n      dup2\n        /* \"#utility.yul\":14573:14579   */\n      dup5\n        /* \"#utility.yul\":14435:14587   */\n      tag_272\n      jump\t// in\n    tag_370:\n        /* \"#utility.yul\":14427:14587   */\n      swap1\n      pop\n        /* \"#utility.yul\":14133:14594   */\n      swap3\n      swap2\n      pop\n      pop\n      jump\t// out\n        /* \"#utility.yul\":14600:14913   */\n    tag_21:\n        /* \"#utility.yul\":14713:14717   */\n      0x00\n        /* \"#utility.yul\":14751:14753   */\n      0x20\n        /* \"#utility.yul\":14740:14749   */\n      dup3\n        /* \"#utility.yul\":14736:14754   */\n      add\n        /* \"#utility.yul\":14728:14754   */\n      swap1\n      pop\n        /* \"#utility.yul\":14800:14809   */\n      dup2\n        /* \"#utility.yul\":14794:14798   */\n      dup2\n        /* \"#utility.yul\":14790:14810   */\n      sub\n        /* \"#utility.yul\":14786:14787   */\n      0x00\n        /* \"#utility.yul\":14775:14784   */\n      dup4\n        /* \"#utility.yul\":14771:14788   */\n      add\n        /* \"#utility.yul\":14764:14811   */\n      mstore\n        /* \"#utility.yul\":14828:14906   */\n      tag_372\n        /* \"#utility.yul\":14901:14905   */\n      dup2\n        /* \"#utility.yul\":14892:14898   */\n      dup5\n        /* \"#utility.yul\":14828:14906   */\n      tag_300\n      jump\t// in\n    tag_372:\n        /* \"#utility.yul\":14820:14906   */\n      swap1\n      pop\n        /* \"#utility.yul\":14600:14913   */\n      swap3\n      swap2\n      pop\n      pop\n      jump\t// out\n        /* \"#utility.yul\":14919:15338   */\n    tag_121:\n        /* \"#utility.yul\":15085:15089   */\n      0x00\n        /* \"#utility.yul\":15123:15125   */\n      0x20\n        /* \"#utility.yul\":15112:15121   */\n      dup3\n        /* \"#utility.yul\":15108:15126   */\n      add\n        /* \"#utility.yul\":15100:15126   */\n      swap1\n      pop\n        /* \"#utility.yul\":15172:15181   */\n      dup2\n        /* \"#utility.yul\":15166:15170   */\n      dup2\n        /* \"#utility.yul\":15162:15182   */\n      sub\n        /* \"#utility.yul\":15158:15159   */\n      0x00\n        /* \"#utility.yul\":15147:15156   */\n      dup4\n        /* \"#utility.yul\":15143:15160   */\n      add\n        /* \"#utility.yul\":15136:15183   */\n      mstore\n        /* \"#utility.yul\":15200:15331   */\n      tag_374\n        /* \"#utility.yul\":15326:15330   */\n      dup2\n        /* \"#utility.yul\":15200:15331   */\n      tag_307\n      jump\t// in\n    tag_374:\n        /* \"#utility.yul\":15192:15331   */\n      swap1\n      pop\n        /* \"#utility.yul\":14919:15338   */\n      swap2\n      swap1\n      pop\n      jump\t// out\n        /* \"#utility.yul\":15344:15763   */\n    tag_89:\n        /* \"#utility.yul\":15510:15514   */\n      0x00\n        /* \"#utility.yul\":15548:15550   */\n      0x20\n        /* \"#utility.yul\":15537:15546   */\n      dup3\n        /* \"#utility.yul\":15533:15551   */\n      add\n        /* \"#utility.yul\":15525:15551   */\n      swap1\n      pop\n        /* \"#utility.yul\":15597:15606   */\n      dup2\n        /* \"#utility.yul\":15591:15595   */\n      dup2\n        /* \"#utility.yul\":15587:15607   */\n      sub\n        /* \"#utility.yul\":15583:15584   */\n      0x00\n        /* \"#utility.yul\":15572:15581   */\n      dup4\n        /* \"#utility.yul\":15568:15585   */\n      add\n        /* \"#utility.yul\":15561:15608   */\n      mstore\n        /* \"#utility.yul\":15625:15756   */\n      tag_376\n        /* \"#utility.yul\":15751:15755   */\n      dup2\n        /* \"#utility.yul\":15625:15756   */\n      tag_312\n      jump\t// in\n    tag_376:\n        /* \"#utility.yul\":15617:15756   */\n      swap1\n      pop\n        /* \"#utility.yul\":15344:15763   */\n      swap2\n      swap1\n      pop\n      jump\t// out\n        /* \"#utility.yul\":15769:16188   */\n    tag_115:\n        /* \"#utility.yul\":15935:15939   */\n      0x00\n        /* \"#utility.yul\":15973:15975   */\n      0x20\n        /* \"#utility.yul\":15962:15971   */\n      dup3\n        /* \"#utility.yul\":15958:15976   */\n      add\n        /* \"#utility.yul\":15950:15976   */\n      swap1\n      pop\n        /* \"#utility.yul\":16022:16031   */\n      dup2\n        /* \"#utility.yul\":16016:16020   */\n      dup2\n        /* \"#utility.yul\":16012:16032   */\n      sub\n        /* \"#utility.yul\":16008:16009   */\n      0x00\n        /* \"#utility.yul\":15997:16006   */\n      dup4\n        /* \"#utility.yul\":15993:16010   */\n      add\n        /* \"#utility.yul\":15986:16033   */\n      mstore\n        /* \"#utility.yul\":16050:16181   */\n      tag_378\n        /* \"#utility.yul\":16176:16180   */\n      dup2\n        /* \"#utility.yul\":16050:16181   */\n      tag_317\n      jump\t// in\n    tag_378:\n        /* \"#utility.yul\":16042:16181   */\n      swap1\n      pop\n        /* \"#utility.yul\":15769:16188   */\n      swap2\n      swap1\n      pop\n      jump\t// out\n        /* \"#utility.yul\":16194:16613   */\n    tag_111:\n        /* \"#utility.yul\":16360:16364   */\n      0x00\n        /* \"#utility.yul\":16398:16400   */\n      0x20\n        /* \"#utility.yul\":16387:16396   */\n      dup3\n        /* \"#utility.yul\":16383:16401   */\n      add\n        /* \"#utility.yul\":16375:16401   */\n      swap1\n      pop\n        /* \"#utility.yul\":16447:16456   */\n      dup2\n        /* \"#utility.yul\":16441:16445   */\n      dup2\n        /* \"#utility.yul\":16437:16457   */\n      sub\n        /* \"#utility.yul\":16433:16434   */\n      0x00\n        /* \"#utility.yul\":16422:16431   */\n      dup4\n        /* \"#utility.yul\":16418:16435   */\n      add\n        /* \"#utility.yul\":16411:16458   */\n      mstore\n        /* \"#utility.yul\":16475:16606   */\n      tag_380\n        /* \"#utility.yul\":16601:16605   */\n      dup2\n        /* \"#utility.yul\":16475:16606   */\n      tag_322\n      jump\t// in\n    tag_380:\n        /* \"#utility.yul\":16467:16606   */\n      swap1\n      pop\n        /* \"#utility.yul\":16194:16613   */\n      swap2\n      swap1\n      pop\n      jump\t// out\n        /* \"#utility.yul\":16619:17038   */\n    tag_65:\n        /* \"#utility.yul\":16785:16789   */\n      0x00\n        /* \"#utility.yul\":16823:16825   */\n      0x20\n        /* \"#utility.yul\":16812:16821   */\n      dup3\n        /* \"#utility.yul\":16808:16826   */\n      add\n        /* \"#utility.yul\":16800:16826   */\n      swap1\n      pop\n        /* \"#utility.yul\":16872:16881   */\n      dup2\n        /* \"#utility.yul\":16866:16870   */\n      dup2\n        /* \"#utility.yul\":16862:16882   */\n      sub\n        /* \"#utility.yul\":16858:16859   */\n      0x00\n        /* \"#utility.yul\":16847:16856   */\n      dup4\n        /* \"#utility.yul\":16843:16860   */\n      add\n        /* \"#utility.yul\":16836:16883   */\n      mstore\n        /* \"#utility.yul\":16900:17031   */\n      tag_382\n        /* \"#utility.yul\":17026:17030   */\n      dup2\n        /* \"#utility.yul\":16900:17031   */\n      tag_327\n      jump\t// in\n    tag_382:\n        /* \"#utility.yul\":16892:17031   */\n      swap1\n      pop\n        /* \"#utility.yul\":16619:17038   */\n      swap2\n      swap1\n      pop\n      jump\t// out\n        /* \"#utility.yul\":17044:17463   */\n    tag_167:\n        /* \"#utility.yul\":17210:17214   */\n      0x00\n        /* \"#utility.yul\":17248:17250   */\n      0x20\n        /* \"#utility.yul\":17237:17246   */\n      dup3\n        /* \"#utility.yul\":17233:17251   */\n      add\n        /* \"#utility.yul\":17225:17251   */\n      swap1\n      pop\n        /* \"#utility.yul\":17297:17306   */\n      dup2\n        /* \"#utility.yul\":17291:17295   */\n      dup2\n        /* \"#utility.yul\":17287:17307   */\n      sub\n        /* \"#utility.yul\":17283:17284   */\n      0x00\n        /* \"#utility.yul\":17272:17281   */\n      dup4\n        /* \"#utility.yul\":17268:17285   */\n      add\n        /* \"#utility.yul\":17261:17308   */\n      mstore\n        /* \"#utility.yul\":17325:17456   */\n      tag_384\n        /* \"#utility.yul\":17451:17455   */\n      dup2\n        /* \"#utility.yul\":17325:17456   */\n      tag_332\n      jump\t// in\n    tag_384:\n        /* \"#utility.yul\":17317:17456   */\n      swap1\n      pop\n        /* \"#utility.yul\":17044:17463   */\n      swap2\n      swap1\n      pop\n      jump\t// out\n        /* \"#utility.yul\":17469:17830   */\n    tag_34:\n        /* \"#utility.yul\":17606:17610   */\n      0x00\n        /* \"#utility.yul\":17644:17646   */\n      0x20\n        /* \"#utility.yul\":17633:17642   */\n      dup3\n        /* \"#utility.yul\":17629:17647   */\n      add\n        /* \"#utility.yul\":17621:17647   */\n      swap1\n      pop\n        /* \"#utility.yul\":17693:17702   */\n      dup2\n        /* \"#utility.yul\":17687:17691   */\n      dup2\n        /* \"#utility.yul\":17683:17703   */\n      sub\n        /* \"#utility.yul\":17679:17680   */\n      0x00\n        /* \"#utility.yul\":17668:17677   */\n      dup4\n        /* \"#utility.yul\":17664:17681   */\n      add\n        /* \"#utility.yul\":17657:17704   */\n      mstore\n        /* \"#utility.yul\":17721:17823   */\n      tag_386\n        /* \"#utility.yul\":17818:17822   */\n      dup2\n        /* \"#utility.yul\":17809:17815   */\n      dup5\n        /* \"#utility.yul\":17721:17823   */\n      tag_344\n      jump\t// in\n    tag_386:\n        /* \"#utility.yul\":17713:17823   */\n      swap1\n      pop\n        /* \"#utility.yul\":17469:17830   */\n      swap3\n      swap2\n      pop\n      pop\n      jump\t// out\n        /* \"#utility.yul\":17836:18197   */\n    tag_43:\n        /* \"#utility.yul\":17973:17977   */\n      0x00\n        /* \"#utility.yul\":18011:18013   */\n      0x20\n        /* \"#utility.yul\":18000:18009   */\n      dup3\n        /* \"#utility.yul\":17996:18014   */\n      add\n        /* \"#utility.yul\":17988:18014   */\n      swap1\n      pop\n        /* \"#utility.yul\":18060:18069   */\n      dup2\n        /* \"#utility.yul\":18054:18058   */\n      dup2\n        /* \"#utility.yul\":18050:18070   */\n      sub\n        /* \"#utility.yul\":18046:18047   */\n      0x00\n        /* \"#utility.yul\":18035:18044   */\n      dup4\n        /* \"#utility.yul\":18031:18048   */\n      add\n        /* \"#utility.yul\":18024:18071   */\n      mstore\n        /* \"#utility.yul\":18088:18190   */\n      tag_388\n        /* \"#utility.yul\":18185:18189   */\n      dup2\n        /* \"#utility.yul\":18176:18182   */\n      dup5\n        /* \"#utility.yul\":18088:18190   */\n      tag_357\n      jump\t// in\n    tag_388:\n        /* \"#utility.yul\":18080:18190   */\n      swap1\n      pop\n        /* \"#utility.yul\":17836:18197   */\n      swap3\n      swap2\n      pop\n      pop\n      jump\t// out\n        /* \"#utility.yul\":18203:18332   */\n    tag_211:\n        /* \"#utility.yul\":18237:18243   */\n      0x00\n        /* \"#utility.yul\":18264:18284   */\n      tag_390\n      tag_391\n      jump\t// in\n    tag_390:\n        /* \"#utility.yul\":18254:18284   */\n      swap1\n      pop\n        /* \"#utility.yul\":18293:18326   */\n      tag_392\n        /* \"#utility.yul\":18321:18325   */\n      dup3\n        /* \"#utility.yul\":18313:18319   */\n      dup3\n        /* \"#utility.yul\":18293:18326   */\n      tag_393\n      jump\t// in\n    tag_392:\n        /* \"#utility.yul\":18203:18332   */\n      swap2\n      swap1\n      pop\n      jump\t// out\n        /* \"#utility.yul\":18338:18413   */\n    tag_391:\n        /* \"#utility.yul\":18371:18377   */\n      0x00\n        /* \"#utility.yul\":18404:18406   */\n      0x40\n        /* \"#utility.yul\":18398:18407   */\n      mload\n        /* \"#utility.yul\":18388:18407   */\n      swap1\n      pop\n        /* \"#utility.yul\":18338:18413   */\n      swap1\n      jump\t// out\n        /* \"#utility.yul\":18419:18727   */\n    tag_210:\n        /* \"#utility.yul\":18481:18485   */\n      0x00\n        /* \"#utility.yul\":18571:18589   */\n      0xffffffffffffffff\n        /* \"#utility.yul\":18563:18569   */\n      dup3\n        /* \"#utility.yul\":18560:18590   */\n      gt\n        /* \"#utility.yul\":18557:18613   */\n      iszero\n      tag_396\n      jumpi\n        /* \"#utility.yul\":18593:18611   */\n      tag_397\n      tag_398\n      jump\t// in\n    tag_397:\n        /* \"#utility.yul\":18557:18613   */\n    tag_396:\n        /* \"#utility.yul\":18631:18660   */\n      tag_399\n        /* \"#utility.yul\":18653:18659   */\n      dup3\n        /* \"#utility.yul\":18631:18660   */\n      tag_299\n      jump\t// in\n    tag_399:\n        /* \"#utility.yul\":18623:18660   */\n      swap1\n      pop\n        /* \"#utility.yul\":18715:18719   */\n      0x20\n        /* \"#utility.yul\":18709:18713   */\n      dup2\n        /* \"#utility.yul\":18705:18720   */\n      add\n        /* \"#utility.yul\":18697:18720   */\n      swap1\n      pop\n        /* \"#utility.yul\":18419:18727   */\n      swap2\n      swap1\n      pop\n      jump\t// out\n        /* \"#utility.yul\":18733:18887   */\n    tag_265:\n        /* \"#utility.yul\":18822:18826   */\n      0x00\n        /* \"#utility.yul\":18845:18848   */\n      dup2\n        /* \"#utility.yul\":18837:18848   */\n      swap1\n      pop\n        /* \"#utility.yul\":18875:18879   */\n      0x20\n        /* \"#utility.yul\":18870:18873   */\n      dup3\n        /* \"#utility.yul\":18866:18880   */\n      add\n        /* \"#utility.yul\":18858:18880   */\n      swap1\n      pop\n        /* \"#utility.yul\":18733:18887   */\n      swap2\n      swap1\n      pop\n      jump\t// out\n        /* \"#utility.yul\":18893:19047   */\n    tag_279:\n        /* \"#utility.yul\":18982:18986   */\n      0x00\n        /* \"#utility.yul\":19005:19008   */\n      dup2\n        /* \"#utility.yul\":18997:19008   */\n      swap1\n      pop\n        /* \"#utility.yul\":19035:19039   */\n      0x20\n        /* \"#utility.yul\":19030:19033   */\n      dup3\n        /* \"#utility.yul\":19026:19040   */\n      add\n        /* \"#utility.yul\":19018:19040   */\n      swap1\n      pop\n        /* \"#utility.yul\":18893:19047   */\n      swap2\n      swap1\n      pop\n      jump\t// out\n        /* \"#utility.yul\":19053:19189   */\n    tag_261:\n        /* \"#utility.yul\":19142:19148   */\n      0x00\n        /* \"#utility.yul\":19176:19181   */\n      dup2\n        /* \"#utility.yul\":19170:19182   */\n      mload\n        /* \"#utility.yul\":19160:19182   */\n      swap1\n      pop\n        /* \"#utility.yul\":19053:19189   */\n      swap2\n      swap1\n      pop\n      jump\t// out\n        /* \"#utility.yul\":19195:19331   */\n    tag_275:\n        /* \"#utility.yul\":19284:19290   */\n      0x00\n        /* \"#utility.yul\":19318:19323   */\n      dup2\n        /* \"#utility.yul\":19312:19324   */\n      mload\n        /* \"#utility.yul\":19302:19324   */\n      swap1\n      pop\n        /* \"#utility.yul\":19195:19331   */\n      swap2\n      swap1\n      pop\n      jump\t// out\n        /* \"#utility.yul\":19337:19436   */\n    tag_293:\n        /* \"#utility.yul\":19389:19395   */\n      0x00\n        /* \"#utility.yul\":19423:19428   */\n      dup2\n        /* \"#utility.yul\":19417:19429   */\n      mload\n        /* \"#utility.yul\":19407:19429   */\n      swap1\n      pop\n        /* \"#utility.yul\":19337:19436   */\n      swap2\n      swap1\n      pop\n      jump\t// out\n        /* \"#utility.yul\":19442:19577   */\n    tag_271:\n        /* \"#utility.yul\":19534:19538   */\n      0x00\n        /* \"#utility.yul\":19566:19570   */\n      0x20\n        /* \"#utility.yul\":19561:19564   */\n      dup3\n        /* \"#utility.yul\":19557:19571   */\n      add\n        /* \"#utility.yul\":19549:19571   */\n      swap1\n      pop\n        /* \"#utility.yul\":19442:19577   */\n      swap2\n      swap1\n      pop\n      jump\t// out\n        /* \"#utility.yul\":19583:19718   */\n    tag_285:\n        /* \"#utility.yul\":19675:19679   */\n      0x00\n        /* \"#utility.yul\":19707:19711   */\n      0x20\n        /* \"#utility.yul\":19702:19705   */\n      dup3\n        /* \"#utility.yul\":19698:19712   */\n      add\n        /* \"#utility.yul\":19690:19712   */\n      swap1\n      pop\n        /* \"#utility.yul\":19583:19718   */\n      swap2\n      swap1\n      pop\n      jump\t// out\n        /* \"#utility.yul\":19724:19930   */\n    tag_263:\n        /* \"#utility.yul\":19845:19856   */\n      0x00\n        /* \"#utility.yul\":19879:19885   */\n      dup3\n        /* \"#utility.yul\":19874:19877   */\n      dup3\n        /* \"#utility.yul\":19867:19886   */\n      mstore\n        /* \"#utility.yul\":19919:19923   */\n      0x20\n        /* \"#utility.yul\":19914:19917   */\n      dup3\n        /* \"#utility.yul\":19910:19924   */\n      add\n        /* \"#utility.yul\":19895:19924   */\n      swap1\n      pop\n        /* \"#utility.yul\":19724:19930   */\n      swap3\n      swap2\n      pop\n      pop\n      jump\t// out\n        /* \"#utility.yul\":19936:20142   */\n    tag_277:\n        /* \"#utility.yul\":20057:20068   */\n      0x00\n        /* \"#utility.yul\":20091:20097   */\n      dup3\n        /* \"#utility.yul\":20086:20089   */\n      dup3\n        /* \"#utility.yul\":20079:20098   */\n      mstore\n        /* \"#utility.yul\":20131:20135   */\n      0x20\n        /* \"#utility.yul\":20126:20129   */\n      dup3\n        /* \"#utility.yul\":20122:20136   */\n      add\n        /* \"#utility.yul\":20107:20136   */\n      swap1\n      pop\n        /* \"#utility.yul\":19936:20142   */\n      swap3\n      swap2\n      pop\n      pop\n      jump\t// out\n        /* \"#utility.yul\":20148:20307   */\n    tag_295:\n        /* \"#utility.yul\":20222:20233   */\n      0x00\n        /* \"#utility.yul\":20256:20262   */\n      dup3\n        /* \"#utility.yul\":20251:20254   */\n      dup3\n        /* \"#utility.yul\":20244:20263   */\n      mstore\n        /* \"#utility.yul\":20296:20300   */\n      0x20\n        /* \"#utility.yul\":20291:20294   */\n      dup3\n        /* \"#utility.yul\":20287:20301   */\n      add\n        /* \"#utility.yul\":20272:20301   */\n      swap1\n      pop\n        /* \"#utility.yul\":20148:20307   */\n      swap3\n      swap2\n      pop\n      pop\n      jump\t// out\n        /* \"#utility.yul\":20313:20482   */\n    tag_304:\n        /* \"#utility.yul\":20397:20408   */\n      0x00\n        /* \"#utility.yul\":20431:20437   */\n      dup3\n        /* \"#utility.yul\":20426:20429   */\n      dup3\n        /* \"#utility.yul\":20419:20438   */\n      mstore\n        /* \"#utility.yul\":20471:20475   */\n      0x20\n        /* \"#utility.yul\":20466:20469   */\n      dup3\n        /* \"#utility.yul\":20462:20476   */\n      add\n        /* \"#utility.yul\":20447:20476   */\n      swap1\n      pop\n        /* \"#utility.yul\":20313:20482   */\n      swap3\n      swap2\n      pop\n      pop\n      jump\t// out\n        /* \"#utility.yul\":20488:20578   */\n    tag_289:\n        /* \"#utility.yul\":20522:20529   */\n      0x00\n        /* \"#utility.yul\":20565:20570   */\n      dup2\n        /* \"#utility.yul\":20558:20571   */\n      iszero\n        /* \"#utility.yul\":20551:20572   */\n      iszero\n        /* \"#utility.yul\":20540:20572   */\n      swap1\n      pop\n        /* \"#utility.yul\":20488:20578   */\n      swap2\n      swap1\n      pop\n      jump\t// out\n        /* \"#utility.yul\":20584:20661   */\n    tag_366:\n        /* \"#utility.yul\":20621:20628   */\n      0x00\n        /* \"#utility.yul\":20650:20655   */\n      dup2\n        /* \"#utility.yul\":20639:20655   */\n      swap1\n      pop\n        /* \"#utility.yul\":20584:20661   */\n      swap2\n      swap1\n      pop\n      jump\t// out\n        /* \"#utility.yul\":20667:20821   */\n    tag_216:\n        /* \"#utility.yul\":20751:20757   */\n      dup3\n        /* \"#utility.yul\":20746:20749   */\n      dup2\n        /* \"#utility.yul\":20741:20744   */\n      dup4\n        /* \"#utility.yul\":20728:20758   */\n      calldatacopy\n        /* \"#utility.yul\":20813:20814   */\n      0x00\n        /* \"#utility.yul\":20804:20810   */\n      dup4\n        /* \"#utility.yul\":20799:20802   */\n      dup4\n        /* \"#utility.yul\":20795:20811   */\n      add\n        /* \"#utility.yul\":20788:20815   */\n      mstore\n        /* \"#utility.yul\":20667:20821   */\n      pop\n      pop\n      pop\n      jump\t// out\n        /* \"#utility.yul\":20827:21134   */\n    tag_297:\n        /* \"#utility.yul\":20895:20896   */\n      0x00\n        /* \"#utility.yul\":20905:21018   */\n    tag_415:\n        /* \"#utility.yul\":20919:20925   */\n      dup4\n        /* \"#utility.yul\":20916:20917   */\n      dup2\n        /* \"#utility.yul\":20913:20926   */\n      lt\n        /* \"#utility.yul\":20905:21018   */\n      iszero\n      tag_417\n      jumpi\n        /* \"#utility.yul\":21004:21005   */\n      dup1\n        /* \"#utility.yul\":20999:21002   */\n      dup3\n        /* \"#utility.yul\":20995:21006   */\n      add\n        /* \"#utility.yul\":20989:21007   */\n      mload\n        /* \"#utility.yul\":20985:20986   */\n      dup2\n        /* \"#utility.yul\":20980:20983   */\n      dup5\n        /* \"#utility.yul\":20976:20987   */\n      add\n        /* \"#utility.yul\":20969:21008   */\n      mstore\n        /* \"#utility.yul\":20941:20943   */\n      0x20\n        /* \"#utility.yul\":20938:20939   */\n      dup2\n        /* \"#utility.yul\":20934:20944   */\n      add\n        /* \"#utility.yul\":20929:20944   */\n      swap1\n      pop\n        /* \"#utility.yul\":20905:21018   */\n      jump(tag_415)\n    tag_417:\n        /* \"#utility.yul\":21036:21042   */\n      dup4\n        /* \"#utility.yul\":21033:21034   */\n      dup2\n        /* \"#utility.yul\":21030:21043   */\n      gt\n        /* \"#utility.yul\":21027:21128   */\n      iszero\n      tag_418\n      jumpi\n        /* \"#utility.yul\":21116:21117   */\n      0x00\n        /* \"#utility.yul\":21107:21113   */\n      dup5\n        /* \"#utility.yul\":21102:21105   */\n      dup5\n        /* \"#utility.yul\":21098:21114   */\n      add\n        /* \"#utility.yul\":21091:21118   */\n      mstore\n        /* \"#utility.yul\":21027:21128   */\n    tag_418:\n        /* \"#utility.yul\":20876:21134   */\n      pop\n        /* \"#utility.yul\":20827:21134   */\n      pop\n      pop\n      pop\n      jump\t// out\n        /* \"#utility.yul\":21140:21311   */\n    tag_169:\n        /* \"#utility.yul\":21179:21182   */\n      0x00\n        /* \"#utility.yul\":21202:21226   */\n      tag_420\n        /* \"#utility.yul\":21220:21225   */\n      dup3\n        /* \"#utility.yul\":21202:21226   */\n      tag_366\n      jump\t// in\n    tag_420:\n        /* \"#utility.yul\":21193:21226   */\n      swap2\n      pop\n        /* \"#utility.yul\":21248:21252   */\n      0x00\n        /* \"#utility.yul\":21241:21246   */\n      dup3\n        /* \"#utility.yul\":21238:21253   */\n      eq\n        /* \"#utility.yul\":21235:21276   */\n      iszero\n      tag_421\n      jumpi\n        /* \"#utility.yul\":21256:21274   */\n      tag_422\n      tag_423\n      jump\t// in\n    tag_422:\n        /* \"#utility.yul\":21235:21276   */\n    tag_421:\n        /* \"#utility.yul\":21303:21304   */\n      0x01\n        /* \"#utility.yul\":21296:21301   */\n      dup3\n        /* \"#utility.yul\":21292:21305   */\n      sub\n        /* \"#utility.yul\":21285:21305   */\n      swap1\n      pop\n        /* \"#utility.yul\":21140:21311   */\n      swap2\n      swap1\n      pop\n      jump\t// out\n        /* \"#utility.yul\":21317:21637   */\n    tag_53:\n        /* \"#utility.yul\":21361:21367   */\n      0x00\n        /* \"#utility.yul\":21398:21399   */\n      0x02\n        /* \"#utility.yul\":21392:21396   */\n      dup3\n        /* \"#utility.yul\":21388:21400   */\n      div\n        /* \"#utility.yul\":21378:21400   */\n      swap1\n      pop\n        /* \"#utility.yul\":21445:21446   */\n      0x01\n        /* \"#utility.yul\":21439:21443   */\n      dup3\n        /* \"#utility.yul\":21435:21447   */\n      and\n        /* \"#utility.yul\":21466:21484   */\n      dup1\n        /* \"#utility.yul\":21456:21537   */\n      tag_425\n      jumpi\n        /* \"#utility.yul\":21522:21526   */\n      0x7f\n        /* \"#utility.yul\":21514:21520   */\n      dup3\n        /* \"#utility.yul\":21510:21527   */\n      and\n        /* \"#utility.yul\":21500:21527   */\n      swap2\n      pop\n        /* \"#utility.yul\":21456:21537   */\n    tag_425:\n        /* \"#utility.yul\":21584:21586   */\n      0x20\n        /* \"#utility.yul\":21576:21582   */\n      dup3\n        /* \"#utility.yul\":21573:21587   */\n      lt\n        /* \"#utility.yul\":21553:21571   */\n      dup2\n        /* \"#utility.yul\":21550:21588   */\n      eq\n        /* \"#utility.yul\":21547:21631   */\n      iszero\n      tag_426\n      jumpi\n        /* \"#utility.yul\":21603:21621   */\n      tag_427\n      tag_428\n      jump\t// in\n    tag_427:\n        /* \"#utility.yul\":21547:21631   */\n    tag_426:\n        /* \"#utility.yul\":21368:21637   */\n      pop\n        /* \"#utility.yul\":21317:21637   */\n      swap2\n      swap1\n      pop\n      jump\t// out\n        /* \"#utility.yul\":21643:21924   */\n    tag_393:\n        /* \"#utility.yul\":21726:21753   */\n      tag_430\n        /* \"#utility.yul\":21748:21752   */\n      dup3\n        /* \"#utility.yul\":21726:21753   */\n      tag_299\n      jump\t// in\n    tag_430:\n        /* \"#utility.yul\":21718:21724   */\n      dup2\n        /* \"#utility.yul\":21714:21754   */\n      add\n        /* \"#utility.yul\":21856:21862   */\n      dup2\n        /* \"#utility.yul\":21844:21854   */\n      dup2\n        /* \"#utility.yul\":21841:21863   */\n      lt\n        /* \"#utility.yul\":21820:21838   */\n      0xffffffffffffffff\n        /* \"#utility.yul\":21808:21818   */\n      dup3\n        /* \"#utility.yul\":21805:21839   */\n      gt\n        /* \"#utility.yul\":21802:21864   */\n      or\n        /* \"#utility.yul\":21799:21887   */\n      iszero\n      tag_431\n      jumpi\n        /* \"#utility.yul\":21867:21885   */\n      tag_432\n      tag_398\n      jump\t// in\n    tag_432:\n        /* \"#utility.yul\":21799:21887   */\n    tag_431:\n        /* \"#utility.yul\":21907:21917   */\n      dup1\n        /* \"#utility.yul\":21903:21905   */\n      0x40\n        /* \"#utility.yul\":21896:21918   */\n      mstore\n        /* \"#utility.yul\":21686:21924   */\n      pop\n        /* \"#utility.yul\":21643:21924   */\n      pop\n      pop\n      jump\t// out\n        /* \"#utility.yul\":21930:22163   */\n    tag_135:\n        /* \"#utility.yul\":21969:21972   */\n      0x00\n        /* \"#utility.yul\":21992:22016   */\n      tag_434\n        /* \"#utility.yul\":22010:22015   */\n      dup3\n        /* \"#utility.yul\":21992:22016   */\n      tag_366\n      jump\t// in\n    tag_434:\n        /* \"#utility.yul\":21983:22016   */\n      swap2\n      pop\n        /* \"#utility.yul\":22038:22104   */\n      0xffffffffffffffffffffffffffffffffffffffffffffffffffffffffffffffff\n        /* \"#utility.yul\":22031:22036   */\n      dup3\n        /* \"#utility.yul\":22028:22105   */\n      eq\n        /* \"#utility.yul\":22025:22128   */\n      iszero\n      tag_435\n      jumpi\n        /* \"#utility.yul\":22108:22126   */\n      tag_436\n      tag_423\n      jump\t// in\n    tag_436:\n        /* \"#utility.yul\":22025:22128   */\n    tag_435:\n        /* \"#utility.yul\":22155:22156   */\n      0x01\n        /* \"#utility.yul\":22148:22153   */\n      dup3\n        /* \"#utility.yul\":22144:22157   */\n      add\n        /* \"#utility.yul\":22137:22157   */\n      swap1\n      pop\n        /* \"#utility.yul\":21930:22163   */\n      swap2\n      swap1\n      pop\n      jump\t// out\n        /* \"#utility.yul\":22169:22349   */\n    tag_423:\n        /* \"#utility.yul\":22217:22294   */\n      0x4e487b7100000000000000000000000000000000000000000000000000000000\n        /* \"#utility.yul\":22214:22215   */\n      0x00\n        /* \"#utility.yul\":22207:22295   */\n      mstore\n        /* \"#utility.yul\":22314:22318   */\n      0x11\n        /* \"#utility.yul\":22311:22312   */\n      0x04\n        /* \"#utility.yul\":22304:22319   */\n      mstore\n        /* \"#utility.yul\":22338:22342   */\n      0x24\n        /* \"#utility.yul\":22335:22336   */\n      0x00\n        /* \"#utility.yul\":22328:22343   */\n      revert\n        /* \"#utility.yul\":22355:22535   */\n    tag_428:\n        /* \"#utility.yul\":22403:22480   */\n      0x4e487b7100000000000000000000000000000000000000000000000000000000\n        /* \"#utility.yul\":22400:22401   */\n      0x00\n        /* \"#utility.yul\":22393:22481   */\n      mstore\n        /* \"#utility.yul\":22500:22504   */\n      0x22\n        /* \"#utility.yul\":22497:22498   */\n      0x04\n        /* \"#utility.yul\":22490:22505   */\n      mstore\n        /* \"#utility.yul\":22524:22528   */\n      0x24\n        /* \"#utility.yul\":22521:22522   */\n      0x00\n        /* \"#utility.yul\":22514:22529   */\n      revert\n        /* \"#utility.yul\":22541:22721   */\n    tag_61:\n        /* \"#utility.yul\":22589:22666   */\n      0x4e487b7100000000000000000000000000000000000000000000000000000000\n        /* \"#utility.yul\":22586:22587   */\n      0x00\n        /* \"#utility.yul\":22579:22667   */\n      mstore\n        /* \"#utility.yul\":22686:22690   */\n      0x32\n        /* \"#utility.yul\":22683:22684   */\n      0x04\n        /* \"#utility.yul\":22676:22691   */\n      mstore\n        /* \"#utility.yul\":22710:22714   */\n      0x24\n        /* \"#utility.yul\":22707:22708   */\n      0x00\n        /* \"#utility.yul\":22700:22715   */\n      revert\n        /* \"#utility.yul\":22727:22907   */\n    tag_398:\n        /* \"#utility.yul\":22775:22852   */\n      0x4e487b7100000000000000000000000000000000000000000000000000000000\n        /* \"#utility.yul\":22772:22773   */\n      0x00\n        /* \"#utility.yul\":22765:22853   */\n      mstore\n        /* \"#utility.yul\":22872:22876   */\n      0x41\n        /* \"#utility.yul\":22869:22870   */\n      0x04\n        /* \"#utility.yul\":22862:22877   */\n      mstore\n        /* \"#utility.yul\":22896:22900   */\n      0x24\n        /* \"#utility.yul\":22893:22894   */\n      0x00\n        /* \"#utility.yul\":22886:22901   */\n      revert\n        /* \"#utility.yul\":22913:23030   */\n    tag_221:\n        /* \"#utility.yul\":23022:23023   */\n      0x00\n        /* \"#utility.yul\":23019:23020   */\n      dup1\n        /* \"#utility.yul\":23012:23024   */\n      revert\n        /* \"#utility.yul\":23036:23153   */\n    tag_214:\n        /* \"#utility.yul\":23145:23146   */\n      0x00\n        /* \"#utility.yul\":23142:23143   */\n      dup1\n        /* \"#utility.yul\":23135:23147   */\n      revert\n        /* \"#utility.yul\":23159:23276   */\n    tag_233:\n        /* \"#utility.yul\":23268:23269   */\n      0x00\n        /* \"#utility.yul\":23265:23266   */\n      dup1\n        /* \"#utility.yul\":23258:23270   */\n      revert\n        /* \"#utility.yul\":23282:23399   */\n    tag_230:\n        /* \"#utility.yul\":23391:23392   */\n      0x00\n        /* \"#utility.yul\":23388:23389   */\n      dup1\n        /* \"#utility.yul\":23381:23393   */\n      revert\n        /* \"#utility.yul\":23405:23507   */\n    tag_299:\n        /* \"#utility.yul\":23446:23452   */\n      0x00\n        /* \"#utility.yul\":23497:23499   */\n      0x1f\n        /* \"#utility.yul\":23493:23500   */\n      not\n        /* \"#utility.yul\":23488:23490   */\n      0x1f\n        /* \"#utility.yul\":23481:23486   */\n      dup4\n        /* \"#utility.yul\":23477:23491   */\n      add\n        /* \"#utility.yul\":23473:23501   */\n      and\n        /* \"#utility.yul\":23463:23501   */\n      swap1\n      pop\n        /* \"#utility.yul\":23405:23507   */\n      swap2\n      swap1\n      pop\n      jump\t// out\n        /* \"#utility.yul\":23513:23740   */\n    tag_311:\n        /* \"#utility.yul\":23653:23687   */\n      0x436f77626f792068617320616c72656164792074616b656e207475726e207468\n        /* \"#utility.yul\":23649:23650   */\n      0x00\n        /* \"#utility.yul\":23641:23647   */\n      dup3\n        /* \"#utility.yul\":23637:23651   */\n      add\n        /* \"#utility.yul\":23630:23688   */\n      mstore\n        /* \"#utility.yul\":23722:23732   */\n      0x697320726f756e64000000000000000000000000000000000000000000000000\n        /* \"#utility.yul\":23717:23719   */\n      0x20\n        /* \"#utility.yul\":23709:23715   */\n      dup3\n        /* \"#utility.yul\":23705:23720   */\n      add\n        /* \"#utility.yul\":23698:23733   */\n      mstore\n        /* \"#utility.yul\":23513:23740   */\n      pop\n      jump\t// out\n        /* \"#utility.yul\":23746:23925   */\n    tag_316:\n        /* \"#utility.yul\":23886:23917   */\n      0x54686520676976656e206964206973206f7574206f6620626f756e6473000000\n        /* \"#utility.yul\":23882:23883   */\n      0x00\n        /* \"#utility.yul\":23874:23880   */\n      dup3\n        /* \"#utility.yul\":23870:23884   */\n      add\n        /* \"#utility.yul\":23863:23918   */\n      mstore\n        /* \"#utility.yul\":23746:23925   */\n      pop\n      jump\t// out\n        /* \"#utility.yul\":23931:24161   */\n    tag_321:\n        /* \"#utility.yul\":24071:24105   */\n      0x54686520676976656e20636f77626f79206973206e6f7420696e207468652067\n        /* \"#utility.yul\":24067:24068   */\n      0x00\n        /* \"#utility.yul\":24059:24065   */\n      dup3\n        /* \"#utility.yul\":24055:24069   */\n      add\n        /* \"#utility.yul\":24048:24106   */\n      mstore\n        /* \"#utility.yul\":24140:24153   */\n      0x6976656e20626174746c65000000000000000000000000000000000000000000\n        /* \"#utility.yul\":24135:24137   */\n      0x20\n        /* \"#utility.yul\":24127:24133   */\n      dup3\n        /* \"#utility.yul\":24123:24138   */\n      add\n        /* \"#utility.yul\":24116:24154   */\n      mstore\n        /* \"#utility.yul\":23931:24161   */\n      pop\n      jump\t// out\n        /* \"#utility.yul\":24167:24400   */\n    tag_326:\n        /* \"#utility.yul\":24307:24341   */\n      0x5468652067616d65206973206f76657220796f757220636f77626f792063616e\n        /* \"#utility.yul\":24303:24304   */\n      0x00\n        /* \"#utility.yul\":24295:24301   */\n      dup3\n        /* \"#utility.yul\":24291:24305   */\n      add\n        /* \"#utility.yul\":24284:24342   */\n      mstore\n        /* \"#utility.yul\":24376:24392   */\n      0x27742074616b65207475726e732e000000000000000000000000000000000000\n        /* \"#utility.yul\":24371:24373   */\n      0x20\n        /* \"#utility.yul\":24363:24369   */\n      dup3\n        /* \"#utility.yul\":24359:24374   */\n      add\n        /* \"#utility.yul\":24352:24393   */\n      mstore\n        /* \"#utility.yul\":24167:24400   */\n      pop\n      jump\t// out\n        /* \"#utility.yul\":24406:24579   */\n    tag_331:\n        /* \"#utility.yul\":24546:24571   */\n      0x5468657265206973206e6f2077696e6e6572207965742e000000000000000000\n        /* \"#utility.yul\":24542:24543   */\n      0x00\n        /* \"#utility.yul\":24534:24540   */\n      dup3\n        /* \"#utility.yul\":24530:24544   */\n      add\n        /* \"#utility.yul\":24523:24572   */\n      mstore\n        /* \"#utility.yul\":24406:24579   */\n      pop\n      jump\t// out\n        /* \"#utility.yul\":24585:24808   */\n    tag_336:\n        /* \"#utility.yul\":24725:24759   */\n      0x596f757220636f77626f792063616e27742073686f6f7420776974686f757420\n        /* \"#utility.yul\":24721:24722   */\n      0x00\n        /* \"#utility.yul\":24713:24719   */\n      dup3\n        /* \"#utility.yul\":24709:24723   */\n      add\n        /* \"#utility.yul\":24702:24760   */\n      mstore\n        /* \"#utility.yul\":24794:24800   */\n      0x616d6d6f00000000000000000000000000000000000000000000000000000000\n        /* \"#utility.yul\":24789:24791   */\n      0x20\n        /* \"#utility.yul\":24781:24787   */\n      dup3\n        /* \"#utility.yul\":24777:24792   */\n      add\n        /* \"#utility.yul\":24770:24801   */\n      mstore\n        /* \"#utility.yul\":24585:24808   */\n      pop\n      jump\t// out\n        /* \"#utility.yul\":24814:24936   */\n    tag_226:\n        /* \"#utility.yul\":24887:24911   */\n      tag_453\n        /* \"#utility.yul\":24905:24910   */\n      dup2\n        /* \"#utility.yul\":24887:24911   */\n      tag_366\n      jump\t// in\n    tag_453:\n        /* \"#utility.yul\":24880:24885   */\n      dup2\n        /* \"#utility.yul\":24877:24912   */\n      eq\n        /* \"#utility.yul\":24867:24930   */\n      tag_454\n      jumpi\n        /* \"#utility.yul\":24926:24927   */\n      0x00\n        /* \"#utility.yul\":24923:24924   */\n      dup1\n        /* \"#utility.yul\":24916:24928   */\n      revert\n        /* \"#utility.yul\":24867:24930   */\n    tag_454:\n        /* \"#utility.yul\":24814:24936   */\n      pop\n      jump\t// out\n\n    auxdata: 0xa264697066735822122064241d0eef869c45eb802610827fcb07da55c946202ea1c5220bc4e53ca1634664736f6c63430008070033\n}\n",
    "bytecode": {
      "linkReferences": {},
      "object": "608060405234801561001057600080fd5b50611d1c806100206000396000f3fe608060405234801561001057600080fd5b50600436106100885760003560e01c80636dd0ce7a1161005b5780636dd0ce7a146101155780637dbef37214610145578063dc11801914610161578063df73c49f1461019157610088565b80633c145f751461008d5780634129b2c9146100ab5780635c93fc3d146100db5780635f4a0b85146100f9575b600080fd5b6100956101ad565b6040516100a291906116f5565b60405180910390f35b6100c560048036038101906100c091906111c7565b6102f9565b6040516100d29190611717565b60405180910390f35b6100e3610406565b6040516100f091906116d3565b60405180910390f35b610113600480360381019061010e919061117e565b610530565b005b61012f600480360381019061012a91906111c7565b610618565b60405161013c91906117f9565b60405180910390f35b61015f600480360381019061015a9190611234565b61076a565b005b61017b600480360381019061017691906111c7565b6109e0565b604051610188919061181b565b60405180910390f35b6101ab60048036038101906101a691906111f4565b610b54565b005b60606001805480602002602001604051908101604052809291908181526020016000905b828210156102f057838290600052602060002090600302016040518060a0016040529081600082018054610204906119b4565b80601f0160208091040260200160405190810160405280929190818152602001828054610230906119b4565b801561027d5780601f106102525761010080835404028352916020019161027d565b820191906000526020600020905b81548152906001019060200180831161026057829003601f168201915b50505050508152602001600182015481526020016002820160009054906101000a900460ff161515151581526020016002820160019054906101000a900460ff161515151581526020016002820160029054906101000a900460ff161515151581525050815260200190600101906101d1565b50505050905090565b606060008083815481106103105761030f611abe565b5b906000526020600020906005020190508060040160009054906101000a900460ff16610371576040517f08c379a0000000000000000000000000000000000000000000000000000000008152600401610368906117b9565b60405180910390fd5b806002018054610380906119b4565b80601f01602080910402602001604051908101604052809291908181526020018280546103ac906119b4565b80156103f95780601f106103ce576101008083540402835291602001916103f9565b820191906000526020600020905b8154815290600101906020018083116103dc57829003601f168201915b5050505050915050919050565b60606000805480602002602001604051908101604052809291908181526020016000905b8282101561052757838290600052602060002090600502016040518060a00160405290816000820154815260200160018201548152602001600282018054610471906119b4565b80601f016020809104026020016040519081016040528092919081815260200182805461049d906119b4565b80156104ea5780601f106104bf576101008083540402835291602001916104ea565b820191906000526020600020905b8154815290600101906020018083116104cd57829003601f168201915b50505050508152602001600382015481526020016004820160009054906101000a900460ff1615151515815250508152602001906001019061042a565b50505050905090565b60016040518060a001604052808381526020016000815260200160001515815260200160001515815260200160001515815250908060018154018082558091505060019003906000526020600020906003020160009091909190915060008201518160000190805190602001906105a8929190610f63565b506020820151816001015560408201518160020160006101000a81548160ff02191690831515021790555060608201518160020160016101000a81548160ff02191690831515021790555060808201518160020160026101000a81548160ff021916908315150217905550505050565b610620610fe9565b81600080549050808210610669576040517f08c379a000000000000000000000000000000000000000000000000000000000815260040161066090611759565b60405180910390fd5b6000848154811061067d5761067c611abe565b5b90600052602060002090600502016040518060a001604052908160008201548152602001600182015481526020016002820180546106ba906119b4565b80601f01602080910402602001604051908101604052809291908181526020018280546106e6906119b4565b80156107335780601f1061070857610100808354040283529160200191610733565b820191906000526020600020905b81548152906001019060200180831161071657829003601f168201915b50505050508152602001600382015481526020016004820160009054906101000a900460ff16151515158152505092505050919050565b816001805490508082106107b3576040517f08c379a00000000000000000000000000000000000000000000000000000000081526004016107aa90611759565b60405180910390fd5b826000805490508082106107fc576040517f08c379a00000000000000000000000000000000000000000000000000000000081526004016107f390611759565b60405180910390fd5b600080868154811061081157610810611abe565b5b906000526020600020906005020190508060040160009054906101000a900460ff1615610873576040517f08c379a000000000000000000000000000000000000000000000000000000000815260040161086a90611799565b60405180910390fd5b80600001548714806108885750806001015487145b6108c7576040517f08c379a00000000000000000000000000000000000000000000000000000000081526004016108be90611779565b60405180910390fd5b6000600188815481106108dd576108dc611abe565b5b906000526020600020906003020190508060020160009054906101000a900460ff161561093f576040517f08c379a000000000000000000000000000000000000000000000000000000000815260040161093690611739565b60405180910390fd5b60008914156109565761095181610cb0565b610987565b600189141561096d5761096881610d07565b610986565b60028914156109845761097f81610da6565b610985565b5b5b5b60018160020160006101000a81548160ff0219169083151502179055508160030160008154809291906109b990611a17565b91905055506002826003015414156109d5576109d482610de3565b5b505050505050505050565b6109e861101a565b81600180549050808210610a31576040517f08c379a0000000000000000000000000000000000000000000000000000000008152600401610a2890611759565b60405180910390fd5b60018481548110610a4557610a44611abe565b5b90600052602060002090600302016040518060a0016040529081600082018054610a6e906119b4565b80601f0160208091040260200160405190810160405280929190818152602001828054610a9a906119b4565b8015610ae75780601f10610abc57610100808354040283529160200191610ae7565b820191906000526020600020905b815481529060010190602001808311610aca57829003601f168201915b50505050508152602001600182015481526020016002820160009054906101000a900460ff161515151581526020016002820160019054906101000a900460ff161515151581526020016002820160029054906101000a900460ff16151515158152505092505050919050565b81600180549050808210610b9d576040517f08c379a0000000000000000000000000000000000000000000000000000000008152600401610b9490611759565b60405180910390fd5b82600180549050808210610be6576040517f08c379a0000000000000000000000000000000000000000000000000000000008152600401610bdd90611759565b60405180910390fd5b60006040518060a001604052808881526020018781526020016040518060200160405280600081525081526020016000815260200160001515815250908060018154018082558091505060019003906000526020600020906005020160009091909190915060008201518160000155602082015181600101556040820151816002019080519060200190610c7b929190610f63565b506060820151816003015560808201518160040160006101000a81548160ff0219169083151502179055505050505050505050565b806001016000815480929190610cc590611a17565b919050555060018160020160016101000a81548160ff02191690831515021790555060008160020160026101000a81548160ff02191690831515021790555050565b600181600101541015610d4f576040517f08c379a0000000000000000000000000000000000000000000000000000000008152600401610d46906117d9565b60405180910390fd5b806001016000815480929190610d649061198a565b919050555060008160020160016101000a81548160ff02191690831515021790555060018160020160026101000a81548160ff02191690831515021790555050565b60008160020160016101000a81548160ff02191690831515021790555060008160020160026101000a81548160ff02191690831515021790555050565b60006001826000015481548110610dfd57610dfc611abe565b5b9060005260206000209060030201905060006001836001015481548110610e2757610e26611abe565b5b906000526020600020906003020190508160020160029054906101000a900460ff168015610e6357508060020160019054906101000a900460ff165b15610eaa578160000183600201908054610e7c906119b4565b610e8792919061104f565b5060018360040160006101000a81548160ff021916908315150217905550610f1a565b8060020160029054906101000a900460ff168015610ed657508160020160019054906101000a900460ff165b15610f19578060000183600201908054610eef906119b4565b610efa92919061104f565b5060018360040160006101000a81548160ff0219169083151502179055505b5b60008260020160006101000a81548160ff02191690831515021790555060008160020160006101000a81548160ff02191690831515021790555060008360030181905550505050565b828054610f6f906119b4565b90600052602060002090601f016020900481019282610f915760008555610fd8565b82601f10610faa57805160ff1916838001178555610fd8565b82800160010185558215610fd8579182015b82811115610fd7578251825591602001919060010190610fbc565b5b509050610fe591906110dc565b5090565b6040518060a00160405280600081526020016000815260200160608152602001600081526020016000151581525090565b6040518060a0016040528060608152602001600081526020016000151581526020016000151581526020016000151581525090565b82805461105b906119b4565b90600052602060002090601f01602090048101928261107d57600085556110cb565b82601f1061108e57805485556110cb565b828001600101855582156110cb57600052602060002091601f016020900482015b828111156110ca5782548255916001019190600101906110af565b5b5090506110d891906110dc565b5090565b5b808211156110f55760008160009055506001016110dd565b5090565b600061110c61110784611862565b61183d565b90508281526020810184848401111561112857611127611b21565b5b611133848285611948565b509392505050565b600082601f8301126111505761114f611b1c565b5b81356111608482602086016110f9565b91505092915050565b60008135905061117881611ccf565b92915050565b60006020828403121561119457611193611b2b565b5b600082013567ffffffffffffffff8111156111b2576111b1611b26565b5b6111be8482850161113b565b91505092915050565b6000602082840312156111dd576111dc611b2b565b5b60006111eb84828501611169565b91505092915050565b6000806040838503121561120b5761120a611b2b565b5b600061121985828601611169565b925050602061122a85828601611169565b9150509250929050565b60008060006060848603121561124d5761124c611b2b565b5b600061125b86828701611169565b935050602061126c86828701611169565b925050604061127d86828701611169565b9150509250925092565b600061129383836114ec565b905092915050565b60006112a783836115d8565b905092915050565b60006112ba826118b3565b6112c481856118ee565b9350836020820285016112d685611893565b8060005b8581101561131257848403895281516112f38582611287565b94506112fe836118d4565b925060208a019950506001810190506112da565b50829750879550505050505092915050565b600061132f826118be565b61133981856118ff565b93508360208202850161134b856118a3565b8060005b858110156113875784840389528151611368858261129b565b9450611373836118e1565b925060208a0199505060018101905061134f565b50829750879550505050505092915050565b6113a281611932565b82525050565b60006113b3826118c9565b6113bd8185611910565b93506113cd818560208601611957565b6113d681611b30565b840191505092915050565b60006113ec826118c9565b6113f68185611921565b9350611406818560208601611957565b61140f81611b30565b840191505092915050565b6000611427602883611921565b915061143282611b41565b604082019050919050565b600061144a601d83611921565b915061145582611b90565b602082019050919050565b600061146d602b83611921565b915061147882611bb9565b604082019050919050565b6000611490602e83611921565b915061149b82611c08565b604082019050919050565b60006114b3601783611921565b91506114be82611c57565b602082019050919050565b60006114d6602483611921565b91506114e182611c80565b604082019050919050565b600060a08301600083015161150460008601826116c4565b50602083015161151760208601826116c4565b506040830151848203604086015261152f82826113a8565b915050606083015161154460608601826116c4565b5060808301516115576080860182611399565b508091505092915050565b600060a08301600083015161157a60008601826116c4565b50602083015161158d60208601826116c4565b50604083015184820360408601526115a582826113a8565b91505060608301516115ba60608601826116c4565b5060808301516115cd6080860182611399565b508091505092915050565b600060a08301600083015184820360008601526115f582826113a8565b915050602083015161160a60208601826116c4565b50604083015161161d6040860182611399565b5060608301516116306060860182611399565b5060808301516116436080860182611399565b508091505092915050565b600060a083016000830151848203600086015261166b82826113a8565b915050602083015161168060208601826116c4565b5060408301516116936040860182611399565b5060608301516116a66060860182611399565b5060808301516116b96080860182611399565b508091505092915050565b6116cd8161193e565b82525050565b600060208201905081810360008301526116ed81846112af565b905092915050565b6000602082019050818103600083015261170f8184611324565b905092915050565b6000602082019050818103600083015261173181846113e1565b905092915050565b600060208201905081810360008301526117528161141a565b9050919050565b600060208201905081810360008301526117728161143d565b9050919050565b6000602082019050818103600083015261179281611460565b9050919050565b600060208201905081810360008301526117b281611483565b9050919050565b600060208201905081810360008301526117d2816114a6565b9050919050565b600060208201905081810360008301526117f2816114c9565b9050919050565b600060208201905081810360008301526118138184611562565b905092915050565b60006020820190508181036000830152611835818461164e565b905092915050565b6000611847611858565b905061185382826119e6565b919050565b6000604051905090565b600067ffffffffffffffff82111561187d5761187c611aed565b5b61188682611b30565b9050602081019050919050565b6000819050602082019050919050565b6000819050602082019050919050565b600081519050919050565b600081519050919050565b600081519050919050565b6000602082019050919050565b6000602082019050919050565b600082825260208201905092915050565b600082825260208201905092915050565b600082825260208201905092915050565b600082825260208201905092915050565b60008115159050919050565b6000819050919050565b82818337600083830152505050565b60005b8381101561197557808201518184015260208101905061195a565b83811115611984576000848401525b50505050565b60006119958261193e565b915060008214156119a9576119a8611a60565b5b600182039050919050565b600060028204905060018216806119cc57607f821691505b602082108114156119e0576119df611a8f565b5b50919050565b6119ef82611b30565b810181811067ffffffffffffffff82111715611a0e57611a0d611aed565b5b80604052505050565b6000611a228261193e565b91507fffffffffffffffffffffffffffffffffffffffffffffffffffffffffffffffff821415611a5557611a54611a60565b5b600182019050919050565b7f4e487b7100000000000000000000000000000000000000000000000000000000600052601160045260246000fd5b7f4e487b7100000000000000000000000000000000000000000000000000000000600052602260045260246000fd5b7f4e487b7100000000000000000000000000000000000000000000000000000000600052603260045260246000fd5b7f4e487b7100000000000000000000000000000000000000000000000000000000600052604160045260246000fd5b600080fd5b600080fd5b600080fd5b600080fd5b6000601f19601f8301169050919050565b7f436f77626f792068617320616c72656164792074616b656e207475726e20746860008201527f697320726f756e64000000000000000000000000000000000000000000000000602082015250565b7f54686520676976656e206964206973206f7574206f6620626f756e6473000000600082015250565b7f54686520676976656e20636f77626f79206973206e6f7420696e20746865206760008201527f6976656e20626174746c65000000000000000000000000000000000000000000602082015250565b7f5468652067616d65206973206f76657220796f757220636f77626f792063616e60008201527f27742074616b65207475726e732e000000000000000000000000000000000000602082015250565b7f5468657265206973206e6f2077696e6e6572207965742e000000000000000000600082015250565b7f596f757220636f77626f792063616e27742073686f6f7420776974686f75742060008201527f616d6d6f00000000000000000000000000000000000000000000000000000000602082015250565b611cd88161193e565b8114611ce357600080fd5b5056fea264697066735822122064241d0eef869c45eb802610827fcb07da55c946202ea1c5220bc4e53ca1634664736f6c63430008070033",
      "opcodes": "PUSH1 0x80 PUSH1 0x40 MSTORE CALLVALUE DUP1 ISZERO PUSH2 0x10 JUMPI PUSH1 0x0 DUP1 REVERT JUMPDEST POP PUSH2 0x1D1C DUP1 PUSH2 0x20 PUSH1 0x0 CODECOPY PUSH1 0x0 RETURN INVALID PUSH1 0x80 PUSH1 0x40 MSTORE CALLVALUE DUP1 ISZERO PUSH2 0x10 JUMPI PUSH1 0x0 DUP1 REVERT JUMPDEST POP PUSH1 0x4 CALLDATASIZE LT PUSH2 0x88 JUMPI PUSH1 0x0 CALLDATALOAD PUSH1 0xE0 SHR DUP1 PUSH4 0x6DD0CE7A GT PUSH2 0x5B JUMPI DUP1 PUSH4 0x6DD0CE7A EQ PUSH2 0x115 JUMPI DUP1 PUSH4 0x7DBEF372 EQ PUSH2 0x145 JUMPI DUP1 PUSH4 0xDC118019 EQ PUSH2 0x161 JUMPI DUP1 PUSH4 0xDF73C49F EQ PUSH2 0x191 JUMPI PUSH2 0x88 JUMP JUMPDEST DUP1 PUSH4 0x3C145F75 EQ PUSH2 0x8D JUMPI DUP1 PUSH4 0x4129B2C9 EQ PUSH2 0xAB JUMPI DUP1 PUSH4 0x5C93FC3D EQ PUSH2 0xDB JUMPI DUP1 PUSH4 0x5F4A0B85 EQ PUSH2 0xF9 JUMPI JUMPDEST PUSH1 0x0 DUP1 REVERT JUMPDEST PUSH2 0x95 PUSH2 0x1AD JUMP JUMPDEST PUSH1 0x40 MLOAD PUSH2 0xA2 SWAP2 SWAP1 PUSH2 0x16F5 JUMP JUMPDEST PUSH1 0x40 MLOAD DUP1 SWAP2 SUB SWAP1 RETURN JUMPDEST PUSH2 0xC5 PUSH1 0x4 DUP1 CALLDATASIZE SUB DUP2 ADD SWAP1 PUSH2 0xC0 SWAP2 SWAP1 PUSH2 0x11C7 JUMP JUMPDEST PUSH2 0x2F9 JUMP JUMPDEST PUSH1 0x40 MLOAD PUSH2 0xD2 SWAP2 SWAP1 PUSH2 0x1717 JUMP JUMPDEST PUSH1 0x40 MLOAD DUP1 SWAP2 SUB SWAP1 RETURN JUMPDEST PUSH2 0xE3 PUSH2 0x406 JUMP JUMPDEST PUSH1 0x40 MLOAD PUSH2 0xF0 SWAP2 SWAP1 PUSH2 0x16D3 JUMP JUMPDEST PUSH1 0x40 MLOAD DUP1 SWAP2 SUB SWAP1 RETURN JUMPDEST PUSH2 0x113 PUSH1 0x4 DUP1 CALLDATASIZE SUB DUP2 ADD SWAP1 PUSH2 0x10E SWAP2 SWAP1 PUSH2 0x117E JUMP JUMPDEST PUSH2 0x530 JUMP JUMPDEST STOP JUMPDEST PUSH2 0x12F PUSH1 0x4 DUP1 CALLDATASIZE SUB DUP2 ADD SWAP1 PUSH2 0x12A SWAP2 SWAP1 PUSH2 0x11C7 JUMP JUMPDEST PUSH2 0x618 JUMP JUMPDEST PUSH1 0x40 MLOAD PUSH2 0x13C SWAP2 SWAP1 PUSH2 0x17F9 JUMP JUMPDEST PUSH1 0x40 MLOAD DUP1 SWAP2 SUB SWAP1 RETURN JUMPDEST PUSH2 0x15F PUSH1 0x4 DUP1 CALLDATASIZE SUB DUP2 ADD SWAP1 PUSH2 0x15A SWAP2 SWAP1 PUSH2 0x1234 JUMP JUMPDEST PUSH2 0x76A JUMP JUMPDEST STOP JUMPDEST PUSH2 0x17B PUSH1 0x4 DUP1 CALLDATASIZE SUB DUP2 ADD SWAP1 PUSH2 0x176 SWAP2 SWAP1 PUSH2 0x11C7 JUMP JUMPDEST PUSH2 0x9E0 JUMP JUMPDEST PUSH1 0x40 MLOAD PUSH2 0x188 SWAP2 SWAP1 PUSH2 0x181B JUMP JUMPDEST PUSH1 0x40 MLOAD DUP1 SWAP2 SUB SWAP1 RETURN JUMPDEST PUSH2 0x1AB PUSH1 0x4 DUP1 CALLDATASIZE SUB DUP2 ADD SWAP1 PUSH2 0x1A6 SWAP2 SWAP1 PUSH2 0x11F4 JUMP JUMPDEST PUSH2 0xB54 JUMP JUMPDEST STOP JUMPDEST PUSH1 0x60 PUSH1 0x1 DUP1 SLOAD DUP1 PUSH1 0x20 MUL PUSH1 0x20 ADD PUSH1 0x40 MLOAD SWAP1 DUP2 ADD PUSH1 0x40 MSTORE DUP1 SWAP3 SWAP2 SWAP1 DUP2 DUP2 MSTORE PUSH1 0x20 ADD PUSH1 0x0 SWAP1 JUMPDEST DUP3 DUP3 LT ISZERO PUSH2 0x2F0 JUMPI DUP4 DUP3 SWAP1 PUSH1 0x0 MSTORE PUSH1 0x20 PUSH1 0x0 KECCAK256 SWAP1 PUSH1 0x3 MUL ADD PUSH1 0x40 MLOAD DUP1 PUSH1 0xA0 ADD PUSH1 0x40 MSTORE SWAP1 DUP2 PUSH1 0x0 DUP3 ADD DUP1 SLOAD PUSH2 0x204 SWAP1 PUSH2 0x19B4 JUMP JUMPDEST DUP1 PUSH1 0x1F ADD PUSH1 0x20 DUP1 SWAP2 DIV MUL PUSH1 0x20 ADD PUSH1 0x40 MLOAD SWAP1 DUP2 ADD PUSH1 0x40 MSTORE DUP1 SWAP3 SWAP2 SWAP1 DUP2 DUP2 MSTORE PUSH1 0x20 ADD DUP3 DUP1 SLOAD PUSH2 0x230 SWAP1 PUSH2 0x19B4 JUMP JUMPDEST DUP1 ISZERO PUSH2 0x27D JUMPI DUP1 PUSH1 0x1F LT PUSH2 0x252 JUMPI PUSH2 0x100 DUP1 DUP4 SLOAD DIV MUL DUP4 MSTORE SWAP2 PUSH1 0x20 ADD SWAP2 PUSH2 0x27D JUMP JUMPDEST DUP3 ADD SWAP2 SWAP1 PUSH1 0x0 MSTORE PUSH1 0x20 PUSH1 0x0 KECCAK256 SWAP1 JUMPDEST DUP2 SLOAD DUP2 MSTORE SWAP1 PUSH1 0x1 ADD SWAP1 PUSH1 0x20 ADD DUP1 DUP4 GT PUSH2 0x260 JUMPI DUP3 SWAP1 SUB PUSH1 0x1F AND DUP3 ADD SWAP2 JUMPDEST POP POP POP POP POP DUP2 MSTORE PUSH1 0x20 ADD PUSH1 0x1 DUP3 ADD SLOAD DUP2 MSTORE PUSH1 0x20 ADD PUSH1 0x2 DUP3 ADD PUSH1 0x0 SWAP1 SLOAD SWAP1 PUSH2 0x100 EXP SWAP1 DIV PUSH1 0xFF AND ISZERO ISZERO ISZERO ISZERO DUP2 MSTORE PUSH1 0x20 ADD PUSH1 0x2 DUP3 ADD PUSH1 0x1 SWAP1 SLOAD SWAP1 PUSH2 0x100 EXP SWAP1 DIV PUSH1 0xFF AND ISZERO ISZERO ISZERO ISZERO DUP2 MSTORE PUSH1 0x20 ADD PUSH1 0x2 DUP3 ADD PUSH1 0x2 SWAP1 SLOAD SWAP1 PUSH2 0x100 EXP SWAP1 DIV PUSH1 0xFF AND ISZERO ISZERO ISZERO ISZERO DUP2 MSTORE POP POP DUP2 MSTORE PUSH1 0x20 ADD SWAP1 PUSH1 0x1 ADD SWAP1 PUSH2 0x1D1 JUMP JUMPDEST POP POP POP POP SWAP1 POP SWAP1 JUMP JUMPDEST PUSH1 0x60 PUSH1 0x0 DUP1 DUP4 DUP2 SLOAD DUP2 LT PUSH2 0x310 JUMPI PUSH2 0x30F PUSH2 0x1ABE JUMP JUMPDEST JUMPDEST SWAP1 PUSH1 0x0 MSTORE PUSH1 0x20 PUSH1 0x0 KECCAK256 SWAP1 PUSH1 0x5 MUL ADD SWAP1 POP DUP1 PUSH1 0x4 ADD PUSH1 0x0 SWAP1 SLOAD SWAP1 PUSH2 0x100 EXP SWAP1 DIV PUSH1 0xFF AND PUSH2 0x371 JUMPI PUSH1 0x40 MLOAD PUSH32 0x8C379A000000000000000000000000000000000000000000000000000000000 DUP2 MSTORE PUSH1 0x4 ADD PUSH2 0x368 SWAP1 PUSH2 0x17B9 JUMP JUMPDEST PUSH1 0x40 MLOAD DUP1 SWAP2 SUB SWAP1 REVERT JUMPDEST DUP1 PUSH1 0x2 ADD DUP1 SLOAD PUSH2 0x380 SWAP1 PUSH2 0x19B4 JUMP JUMPDEST DUP1 PUSH1 0x1F ADD PUSH1 0x20 DUP1 SWAP2 DIV MUL PUSH1 0x20 ADD PUSH1 0x40 MLOAD SWAP1 DUP2 ADD PUSH1 0x40 MSTORE DUP1 SWAP3 SWAP2 SWAP1 DUP2 DUP2 MSTORE PUSH1 0x20 ADD DUP3 DUP1 SLOAD PUSH2 0x3AC SWAP1 PUSH2 0x19B4 JUMP JUMPDEST DUP1 ISZERO PUSH2 0x3F9 JUMPI DUP1 PUSH1 0x1F LT PUSH2 0x3CE JUMPI PUSH2 0x100 DUP1 DUP4 SLOAD DIV MUL DUP4 MSTORE SWAP2 PUSH1 0x20 ADD SWAP2 PUSH2 0x3F9 JUMP JUMPDEST DUP3 ADD SWAP2 SWAP1 PUSH1 0x0 MSTORE PUSH1 0x20 PUSH1 0x0 KECCAK256 SWAP1 JUMPDEST DUP2 SLOAD DUP2 MSTORE SWAP1 PUSH1 0x1 ADD SWAP1 PUSH1 0x20 ADD DUP1 DUP4 GT PUSH2 0x3DC JUMPI DUP3 SWAP1 SUB PUSH1 0x1F AND DUP3 ADD SWAP2 JUMPDEST POP POP POP POP POP SWAP2 POP POP SWAP2 SWAP1 POP JUMP JUMPDEST PUSH1 0x60 PUSH1 0x0 DUP1 SLOAD DUP1 PUSH1 0x20 MUL PUSH1 0x20 ADD PUSH1 0x40 MLOAD SWAP1 DUP2 ADD PUSH1 0x40 MSTORE DUP1 SWAP3 SWAP2 SWAP1 DUP2 DUP2 MSTORE PUSH1 0x20 ADD PUSH1 0x0 SWAP1 JUMPDEST DUP3 DUP3 LT ISZERO PUSH2 0x527 JUMPI DUP4 DUP3 SWAP1 PUSH1 0x0 MSTORE PUSH1 0x20 PUSH1 0x0 KECCAK256 SWAP1 PUSH1 0x5 MUL ADD PUSH1 0x40 MLOAD DUP1 PUSH1 0xA0 ADD PUSH1 0x40 MSTORE SWAP1 DUP2 PUSH1 0x0 DUP3 ADD SLOAD DUP2 MSTORE PUSH1 0x20 ADD PUSH1 0x1 DUP3 ADD SLOAD DUP2 MSTORE PUSH1 0x20 ADD PUSH1 0x2 DUP3 ADD DUP1 SLOAD PUSH2 0x471 SWAP1 PUSH2 0x19B4 JUMP JUMPDEST DUP1 PUSH1 0x1F ADD PUSH1 0x20 DUP1 SWAP2 DIV MUL PUSH1 0x20 ADD PUSH1 0x40 MLOAD SWAP1 DUP2 ADD PUSH1 0x40 MSTORE DUP1 SWAP3 SWAP2 SWAP1 DUP2 DUP2 MSTORE PUSH1 0x20 ADD DUP3 DUP1 SLOAD PUSH2 0x49D SWAP1 PUSH2 0x19B4 JUMP JUMPDEST DUP1 ISZERO PUSH2 0x4EA JUMPI DUP1 PUSH1 0x1F LT PUSH2 0x4BF JUMPI PUSH2 0x100 DUP1 DUP4 SLOAD DIV MUL DUP4 MSTORE SWAP2 PUSH1 0x20 ADD SWAP2 PUSH2 0x4EA JUMP JUMPDEST DUP3 ADD SWAP2 SWAP1 PUSH1 0x0 MSTORE PUSH1 0x20 PUSH1 0x0 KECCAK256 SWAP1 JUMPDEST DUP2 SLOAD DUP2 MSTORE SWAP1 PUSH1 0x1 ADD SWAP1 PUSH1 0x20 ADD DUP1 DUP4 GT PUSH2 0x4CD JUMPI DUP3 SWAP1 SUB PUSH1 0x1F AND DUP3 ADD SWAP2 JUMPDEST POP POP POP POP POP DUP2 MSTORE PUSH1 0x20 ADD PUSH1 0x3 DUP3 ADD SLOAD DUP2 MSTORE PUSH1 0x20 ADD PUSH1 0x4 DUP3 ADD PUSH1 0x0 SWAP1 SLOAD SWAP1 PUSH2 0x100 EXP SWAP1 DIV PUSH1 0xFF AND ISZERO ISZERO ISZERO ISZERO DUP2 MSTORE POP POP DUP2 MSTORE PUSH1 0x20 ADD SWAP1 PUSH1 0x1 ADD SWAP1 PUSH2 0x42A JUMP JUMPDEST POP POP POP POP SWAP1 POP SWAP1 JUMP JUMPDEST PUSH1 0x1 PUSH1 0x40 MLOAD DUP1 PUSH1 0xA0 ADD PUSH1 0x40 MSTORE DUP1 DUP4 DUP2 MSTORE PUSH1 0x20 ADD PUSH1 0x0 DUP2 MSTORE PUSH1 0x20 ADD PUSH1 0x0 ISZERO ISZERO DUP2 MSTORE PUSH1 0x20 ADD PUSH1 0x0 ISZERO ISZERO DUP2 MSTORE PUSH1 0x20 ADD PUSH1 0x0 ISZERO ISZERO DUP2 MSTORE POP SWAP1 DUP1 PUSH1 0x1 DUP2 SLOAD ADD DUP1 DUP3 SSTORE DUP1 SWAP2 POP POP PUSH1 0x1 SWAP1 SUB SWAP1 PUSH1 0x0 MSTORE PUSH1 0x20 PUSH1 0x0 KECCAK256 SWAP1 PUSH1 0x3 MUL ADD PUSH1 0x0 SWAP1 SWAP2 SWAP1 SWAP2 SWAP1 SWAP2 POP PUSH1 0x0 DUP3 ADD MLOAD DUP2 PUSH1 0x0 ADD SWAP1 DUP1 MLOAD SWAP1 PUSH1 0x20 ADD SWAP1 PUSH2 0x5A8 SWAP3 SWAP2 SWAP1 PUSH2 0xF63 JUMP JUMPDEST POP PUSH1 0x20 DUP3 ADD MLOAD DUP2 PUSH1 0x1 ADD SSTORE PUSH1 0x40 DUP3 ADD MLOAD DUP2 PUSH1 0x2 ADD PUSH1 0x0 PUSH2 0x100 EXP DUP2 SLOAD DUP2 PUSH1 0xFF MUL NOT AND SWAP1 DUP4 ISZERO ISZERO MUL OR SWAP1 SSTORE POP PUSH1 0x60 DUP3 ADD MLOAD DUP2 PUSH1 0x2 ADD PUSH1 0x1 PUSH2 0x100 EXP DUP2 SLOAD DUP2 PUSH1 0xFF MUL NOT AND SWAP1 DUP4 ISZERO ISZERO MUL OR SWAP1 SSTORE POP PUSH1 0x80 DUP3 ADD MLOAD DUP2 PUSH1 0x2 ADD PUSH1 0x2 PUSH2 0x100 EXP DUP2 SLOAD DUP2 PUSH1 0xFF MUL NOT AND SWAP1 DUP4 ISZERO ISZERO MUL OR SWAP1 SSTORE POP POP POP POP JUMP JUMPDEST PUSH2 0x620 PUSH2 0xFE9 JUMP JUMPDEST DUP2 PUSH1 0x0 DUP1 SLOAD SWAP1 POP DUP1 DUP3 LT PUSH2 0x669 JUMPI PUSH1 0x40 MLOAD PUSH32 0x8C379A000000000000000000000000000000000000000000000000000000000 DUP2 MSTORE PUSH1 0x4 ADD PUSH2 0x660 SWAP1 PUSH2 0x1759 JUMP JUMPDEST PUSH1 0x40 MLOAD DUP1 SWAP2 SUB SWAP1 REVERT JUMPDEST PUSH1 0x0 DUP5 DUP2 SLOAD DUP2 LT PUSH2 0x67D JUMPI PUSH2 0x67C PUSH2 0x1ABE JUMP JUMPDEST JUMPDEST SWAP1 PUSH1 0x0 MSTORE PUSH1 0x20 PUSH1 0x0 KECCAK256 SWAP1 PUSH1 0x5 MUL ADD PUSH1 0x40 MLOAD DUP1 PUSH1 0xA0 ADD PUSH1 0x40 MSTORE SWAP1 DUP2 PUSH1 0x0 DUP3 ADD SLOAD DUP2 MSTORE PUSH1 0x20 ADD PUSH1 0x1 DUP3 ADD SLOAD DUP2 MSTORE PUSH1 0x20 ADD PUSH1 0x2 DUP3 ADD DUP1 SLOAD PUSH2 0x6BA SWAP1 PUSH2 0x19B4 JUMP JUMPDEST DUP1 PUSH1 0x1F ADD PUSH1 0x20 DUP1 SWAP2 DIV MUL PUSH1 0x20 ADD PUSH1 0x40 MLOAD SWAP1 DUP2 ADD PUSH1 0x40 MSTORE DUP1 SWAP3 SWAP2 SWAP1 DUP2 DUP2 MSTORE PUSH1 0x20 ADD DUP3 DUP1 SLOAD PUSH2 0x6E6 SWAP1 PUSH2 0x19B4 JUMP JUMPDEST DUP1 ISZERO PUSH2 0x733 JUMPI DUP1 PUSH1 0x1F LT PUSH2 0x708 JUMPI PUSH2 0x100 DUP1 DUP4 SLOAD DIV MUL DUP4 MSTORE SWAP2 PUSH1 0x20 ADD SWAP2 PUSH2 0x733 JUMP JUMPDEST DUP3 ADD SWAP2 SWAP1 PUSH1 0x0 MSTORE PUSH1 0x20 PUSH1 0x0 KECCAK256 SWAP1 JUMPDEST DUP2 SLOAD DUP2 MSTORE SWAP1 PUSH1 0x1 ADD SWAP1 PUSH1 0x20 ADD DUP1 DUP4 GT PUSH2 0x716 JUMPI DUP3 SWAP1 SUB PUSH1 0x1F AND DUP3 ADD SWAP2 JUMPDEST POP POP POP POP POP DUP2 MSTORE PUSH1 0x20 ADD PUSH1 0x3 DUP3 ADD SLOAD DUP2 MSTORE PUSH1 0x20 ADD PUSH1 0x4 DUP3 ADD PUSH1 0x0 SWAP1 SLOAD SWAP1 PUSH2 0x100 EXP SWAP1 DIV PUSH1 0xFF AND ISZERO ISZERO ISZERO ISZERO DUP2 MSTORE POP POP SWAP3 POP POP POP SWAP2 SWAP1 POP JUMP JUMPDEST DUP2 PUSH1 0x1 DUP1 SLOAD SWAP1 POP DUP1 DUP3 LT PUSH2 0x7B3 JUMPI PUSH1 0x40 MLOAD PUSH32 0x8C379A000000000000000000000000000000000000000000000000000000000 DUP2 MSTORE PUSH1 0x4 ADD PUSH2 0x7AA SWAP1 PUSH2 0x1759 JUMP JUMPDEST PUSH1 0x40 MLOAD DUP1 SWAP2 SUB SWAP1 REVERT JUMPDEST DUP3 PUSH1 0x0 DUP1 SLOAD SWAP1 POP DUP1 DUP3 LT PUSH2 0x7FC JUMPI PUSH1 0x40 MLOAD PUSH32 0x8C379A000000000000000000000000000000000000000000000000000000000 DUP2 MSTORE PUSH1 0x4 ADD PUSH2 0x7F3 SWAP1 PUSH2 0x1759 JUMP JUMPDEST PUSH1 0x40 MLOAD DUP1 SWAP2 SUB SWAP1 REVERT JUMPDEST PUSH1 0x0 DUP1 DUP7 DUP2 SLOAD DUP2 LT PUSH2 0x811 JUMPI PUSH2 0x810 PUSH2 0x1ABE JUMP JUMPDEST JUMPDEST SWAP1 PUSH1 0x0 MSTORE PUSH1 0x20 PUSH1 0x0 KECCAK256 SWAP1 PUSH1 0x5 MUL ADD SWAP1 POP DUP1 PUSH1 0x4 ADD PUSH1 0x0 SWAP1 SLOAD SWAP1 PUSH2 0x100 EXP SWAP1 DIV PUSH1 0xFF AND ISZERO PUSH2 0x873 JUMPI PUSH1 0x40 MLOAD PUSH32 0x8C379A000000000000000000000000000000000000000000000000000000000 DUP2 MSTORE PUSH1 0x4 ADD PUSH2 0x86A SWAP1 PUSH2 0x1799 JUMP JUMPDEST PUSH1 0x40 MLOAD DUP1 SWAP2 SUB SWAP1 REVERT JUMPDEST DUP1 PUSH1 0x0 ADD SLOAD DUP8 EQ DUP1 PUSH2 0x888 JUMPI POP DUP1 PUSH1 0x1 ADD SLOAD DUP8 EQ JUMPDEST PUSH2 0x8C7 JUMPI PUSH1 0x40 MLOAD PUSH32 0x8C379A000000000000000000000000000000000000000000000000000000000 DUP2 MSTORE PUSH1 0x4 ADD PUSH2 0x8BE SWAP1 PUSH2 0x1779 JUMP JUMPDEST PUSH1 0x40 MLOAD DUP1 SWAP2 SUB SWAP1 REVERT JUMPDEST PUSH1 0x0 PUSH1 0x1 DUP9 DUP2 SLOAD DUP2 LT PUSH2 0x8DD JUMPI PUSH2 0x8DC PUSH2 0x1ABE JUMP JUMPDEST JUMPDEST SWAP1 PUSH1 0x0 MSTORE PUSH1 0x20 PUSH1 0x0 KECCAK256 SWAP1 PUSH1 0x3 MUL ADD SWAP1 POP DUP1 PUSH1 0x2 ADD PUSH1 0x0 SWAP1 SLOAD SWAP1 PUSH2 0x100 EXP SWAP1 DIV PUSH1 0xFF AND ISZERO PUSH2 0x93F JUMPI PUSH1 0x40 MLOAD PUSH32 0x8C379A000000000000000000000000000000000000000000000000000000000 DUP2 MSTORE PUSH1 0x4 ADD PUSH2 0x936 SWAP1 PUSH2 0x1739 JUMP JUMPDEST PUSH1 0x40 MLOAD DUP1 SWAP2 SUB SWAP1 REVERT JUMPDEST PUSH1 0x0 DUP10 EQ ISZERO PUSH2 0x956 JUMPI PUSH2 0x951 DUP2 PUSH2 0xCB0 JUMP JUMPDEST PUSH2 0x987 JUMP JUMPDEST PUSH1 0x1 DUP10 EQ ISZERO PUSH2 0x96D JUMPI PUSH2 0x968 DUP2 PUSH2 0xD07 JUMP JUMPDEST PUSH2 0x986 JUMP JUMPDEST PUSH1 0x2 DUP10 EQ ISZERO PUSH2 0x984 JUMPI PUSH2 0x97F DUP2 PUSH2 0xDA6 JUMP JUMPDEST PUSH2 0x985 JUMP JUMPDEST JUMPDEST JUMPDEST JUMPDEST PUSH1 0x1 DUP2 PUSH1 0x2 ADD PUSH1 0x0 PUSH2 0x100 EXP DUP2 SLOAD DUP2 PUSH1 0xFF MUL NOT AND SWAP1 DUP4 ISZERO ISZERO MUL OR SWAP1 SSTORE POP DUP2 PUSH1 0x3 ADD PUSH1 0x0 DUP2 SLOAD DUP1 SWAP3 SWAP2 SWAP1 PUSH2 0x9B9 SWAP1 PUSH2 0x1A17 JUMP JUMPDEST SWAP2 SWAP1 POP SSTORE POP PUSH1 0x2 DUP3 PUSH1 0x3 ADD SLOAD EQ ISZERO PUSH2 0x9D5 JUMPI PUSH2 0x9D4 DUP3 PUSH2 0xDE3 JUMP JUMPDEST JUMPDEST POP POP POP POP POP POP POP POP POP JUMP JUMPDEST PUSH2 0x9E8 PUSH2 0x101A JUMP JUMPDEST DUP2 PUSH1 0x1 DUP1 SLOAD SWAP1 POP DUP1 DUP3 LT PUSH2 0xA31 JUMPI PUSH1 0x40 MLOAD PUSH32 0x8C379A000000000000000000000000000000000000000000000000000000000 DUP2 MSTORE PUSH1 0x4 ADD PUSH2 0xA28 SWAP1 PUSH2 0x1759 JUMP JUMPDEST PUSH1 0x40 MLOAD DUP1 SWAP2 SUB SWAP1 REVERT JUMPDEST PUSH1 0x1 DUP5 DUP2 SLOAD DUP2 LT PUSH2 0xA45 JUMPI PUSH2 0xA44 PUSH2 0x1ABE JUMP JUMPDEST JUMPDEST SWAP1 PUSH1 0x0 MSTORE PUSH1 0x20 PUSH1 0x0 KECCAK256 SWAP1 PUSH1 0x3 MUL ADD PUSH1 0x40 MLOAD DUP1 PUSH1 0xA0 ADD PUSH1 0x40 MSTORE SWAP1 DUP2 PUSH1 0x0 DUP3 ADD DUP1 SLOAD PUSH2 0xA6E SWAP1 PUSH2 0x19B4 JUMP JUMPDEST DUP1 PUSH1 0x1F ADD PUSH1 0x20 DUP1 SWAP2 DIV MUL PUSH1 0x20 ADD PUSH1 0x40 MLOAD SWAP1 DUP2 ADD PUSH1 0x40 MSTORE DUP1 SWAP3 SWAP2 SWAP1 DUP2 DUP2 MSTORE PUSH1 0x20 ADD DUP3 DUP1 SLOAD PUSH2 0xA9A SWAP1 PUSH2 0x19B4 JUMP JUMPDEST DUP1 ISZERO PUSH2 0xAE7 JUMPI DUP1 PUSH1 0x1F LT PUSH2 0xABC JUMPI PUSH2 0x100 DUP1 DUP4 SLOAD DIV MUL DUP4 MSTORE SWAP2 PUSH1 0x20 ADD SWAP2 PUSH2 0xAE7 JUMP JUMPDEST DUP3 ADD SWAP2 SWAP1 PUSH1 0x0 MSTORE PUSH1 0x20 PUSH1 0x0 KECCAK256 SWAP1 JUMPDEST DUP2 SLOAD DUP2 MSTORE SWAP1 PUSH1 0x1 ADD SWAP1 PUSH1 0x20 ADD DUP1 DUP4 GT PUSH2 0xACA JUMPI DUP3 SWAP1 SUB PUSH1 0x1F AND DUP3 ADD SWAP2 JUMPDEST POP POP POP POP POP DUP2 MSTORE PUSH1 0x20 ADD PUSH1 0x1 DUP3 ADD SLOAD DUP2 MSTORE PUSH1 0x20 ADD PUSH1 0x2 DUP3 ADD PUSH1 0x0 SWAP1 SLOAD SWAP1 PUSH2 0x100 EXP SWAP1 DIV PUSH1 0xFF AND ISZERO ISZERO ISZERO ISZERO DUP2 MSTORE PUSH1 0x20 ADD PUSH1 0x2 DUP3 ADD PUSH1 0x1 SWAP1 SLOAD SWAP1 PUSH2 0x100 EXP SWAP1 DIV PUSH1 0xFF AND ISZERO ISZERO ISZERO ISZERO DUP2 MSTORE PUSH1 0x20 ADD PUSH1 0x2 DUP3 ADD PUSH1 0x2 SWAP1 SLOAD SWAP1 PUSH2 0x100 EXP SWAP1 DIV PUSH1 0xFF AND ISZERO ISZERO ISZERO ISZERO DUP2 MSTORE POP POP SWAP3 POP POP POP SWAP2 SWAP1 POP JUMP JUMPDEST DUP2 PUSH1 0x1 DUP1 SLOAD SWAP1 POP DUP1 DUP3 LT PUSH2 0xB9D JUMPI PUSH1 0x40 MLOAD PUSH32 0x8C379A000000000000000000000000000000000000000000000000000000000 DUP2 MSTORE PUSH1 0x4 ADD PUSH2 0xB94 SWAP1 PUSH2 0x1759 JUMP JUMPDEST PUSH1 0x40 MLOAD DUP1 SWAP2 SUB SWAP1 REVERT JUMPDEST DUP3 PUSH1 0x1 DUP1 SLOAD SWAP1 POP DUP1 DUP3 LT PUSH2 0xBE6 JUMPI PUSH1 0x40 MLOAD PUSH32 0x8C379A000000000000000000000000000000000000000000000000000000000 DUP2 MSTORE PUSH1 0x4 ADD PUSH2 0xBDD SWAP1 PUSH2 0x1759 JUMP JUMPDEST PUSH1 0x40 MLOAD DUP1 SWAP2 SUB SWAP1 REVERT JUMPDEST PUSH1 0x0 PUSH1 0x40 MLOAD DUP1 PUSH1 0xA0 ADD PUSH1 0x40 MSTORE DUP1 DUP9 DUP2 MSTORE PUSH1 0x20 ADD DUP8 DUP2 MSTORE PUSH1 0x20 ADD PUSH1 0x40 MLOAD DUP1 PUSH1 0x20 ADD PUSH1 0x40 MSTORE DUP1 PUSH1 0x0 DUP2 MSTORE POP DUP2 MSTORE PUSH1 0x20 ADD PUSH1 0x0 DUP2 MSTORE PUSH1 0x20 ADD PUSH1 0x0 ISZERO ISZERO DUP2 MSTORE POP SWAP1 DUP1 PUSH1 0x1 DUP2 SLOAD ADD DUP1 DUP3 SSTORE DUP1 SWAP2 POP POP PUSH1 0x1 SWAP1 SUB SWAP1 PUSH1 0x0 MSTORE PUSH1 0x20 PUSH1 0x0 KECCAK256 SWAP1 PUSH1 0x5 MUL ADD PUSH1 0x0 SWAP1 SWAP2 SWAP1 SWAP2 SWAP1 SWAP2 POP PUSH1 0x0 DUP3 ADD MLOAD DUP2 PUSH1 0x0 ADD SSTORE PUSH1 0x20 DUP3 ADD MLOAD DUP2 PUSH1 0x1 ADD SSTORE PUSH1 0x40 DUP3 ADD MLOAD DUP2 PUSH1 0x2 ADD SWAP1 DUP1 MLOAD SWAP1 PUSH1 0x20 ADD SWAP1 PUSH2 0xC7B SWAP3 SWAP2 SWAP1 PUSH2 0xF63 JUMP JUMPDEST POP PUSH1 0x60 DUP3 ADD MLOAD DUP2 PUSH1 0x3 ADD SSTORE PUSH1 0x80 DUP3 ADD MLOAD DUP2 PUSH1 0x4 ADD PUSH1 0x0 PUSH2 0x100 EXP DUP2 SLOAD DUP2 PUSH1 0xFF MUL NOT AND SWAP1 DUP4 ISZERO ISZERO MUL OR SWAP1 SSTORE POP POP POP POP POP POP POP POP POP JUMP JUMPDEST DUP1 PUSH1 0x1 ADD PUSH1 0x0 DUP2 SLOAD DUP1 SWAP3 SWAP2 SWAP1 PUSH2 0xCC5 SWAP1 PUSH2 0x1A17 JUMP JUMPDEST SWAP2 SWAP1 POP SSTORE POP PUSH1 0x1 DUP2 PUSH1 0x2 ADD PUSH1 0x1 PUSH2 0x100 EXP DUP2 SLOAD DUP2 PUSH1 0xFF MUL NOT AND SWAP1 DUP4 ISZERO ISZERO MUL OR SWAP1 SSTORE POP PUSH1 0x0 DUP2 PUSH1 0x2 ADD PUSH1 0x2 PUSH2 0x100 EXP DUP2 SLOAD DUP2 PUSH1 0xFF MUL NOT AND SWAP1 DUP4 ISZERO ISZERO MUL OR SWAP1 SSTORE POP POP JUMP JUMPDEST PUSH1 0x1 DUP2 PUSH1 0x1 ADD SLOAD LT ISZERO PUSH2 0xD4F JUMPI PUSH1 0x40 MLOAD PUSH32 0x8C379A000000000000000000000000000000000000000000000000000000000 DUP2 MSTORE PUSH1 0x4 ADD PUSH2 0xD46 SWAP1 PUSH2 0x17D9 JUMP JUMPDEST PUSH1 0x40 MLOAD DUP1 SWAP2 SUB SWAP1 REVERT JUMPDEST DUP1 PUSH1 0x1 ADD PUSH1 0x0 DUP2 SLOAD DUP1 SWAP3 SWAP2 SWAP1 PUSH2 0xD64 SWAP1 PUSH2 0x198A JUMP JUMPDEST SWAP2 SWAP1 POP SSTORE POP PUSH1 0x0 DUP2 PUSH1 0x2 ADD PUSH1 0x1 PUSH2 0x100 EXP DUP2 SLOAD DUP2 PUSH1 0xFF MUL NOT AND SWAP1 DUP4 ISZERO ISZERO MUL OR SWAP1 SSTORE POP PUSH1 0x1 DUP2 PUSH1 0x2 ADD PUSH1 0x2 PUSH2 0x100 EXP DUP2 SLOAD DUP2 PUSH1 0xFF MUL NOT AND SWAP1 DUP4 ISZERO ISZERO MUL OR SWAP1 SSTORE POP POP JUMP JUMPDEST PUSH1 0x0 DUP2 PUSH1 0x2 ADD PUSH1 0x1 PUSH2 0x100 EXP DUP2 SLOAD DUP2 PUSH1 0xFF MUL NOT AND SWAP1 DUP4 ISZERO ISZERO MUL OR SWAP1 SSTORE POP PUSH1 0x0 DUP2 PUSH1 0x2 ADD PUSH1 0x2 PUSH2 0x100 EXP DUP2 SLOAD DUP2 PUSH1 0xFF MUL NOT AND SWAP1 DUP4 ISZERO ISZERO MUL OR SWAP1 SSTORE POP POP JUMP JUMPDEST PUSH1 0x0 PUSH1 0x1 DUP3 PUSH1 0x0 ADD SLOAD DUP2 SLOAD DUP2 LT PUSH2 0xDFD JUMPI PUSH2 0xDFC PUSH2 0x1ABE JUMP JUMPDEST JUMPDEST SWAP1 PUSH1 0x0 MSTORE PUSH1 0x20 PUSH1 0x0 KECCAK256 SWAP1 PUSH1 0x3 MUL ADD SWAP1 POP PUSH1 0x0 PUSH1 0x1 DUP4 PUSH1 0x1 ADD SLOAD DUP2 SLOAD DUP2 LT PUSH2 0xE27 JUMPI PUSH2 0xE26 PUSH2 0x1ABE JUMP JUMPDEST JUMPDEST SWAP1 PUSH1 0x0 MSTORE PUSH1 0x20 PUSH1 0x0 KECCAK256 SWAP1 PUSH1 0x3 MUL ADD SWAP1 POP DUP2 PUSH1 0x2 ADD PUSH1 0x2 SWAP1 SLOAD SWAP1 PUSH2 0x100 EXP SWAP1 DIV PUSH1 0xFF AND DUP1 ISZERO PUSH2 0xE63 JUMPI POP DUP1 PUSH1 0x2 ADD PUSH1 0x1 SWAP1 SLOAD SWAP1 PUSH2 0x100 EXP SWAP1 DIV PUSH1 0xFF AND JUMPDEST ISZERO PUSH2 0xEAA JUMPI DUP2 PUSH1 0x0 ADD DUP4 PUSH1 0x2 ADD SWAP1 DUP1 SLOAD PUSH2 0xE7C SWAP1 PUSH2 0x19B4 JUMP JUMPDEST PUSH2 0xE87 SWAP3 SWAP2 SWAP1 PUSH2 0x104F JUMP JUMPDEST POP PUSH1 0x1 DUP4 PUSH1 0x4 ADD PUSH1 0x0 PUSH2 0x100 EXP DUP2 SLOAD DUP2 PUSH1 0xFF MUL NOT AND SWAP1 DUP4 ISZERO ISZERO MUL OR SWAP1 SSTORE POP PUSH2 0xF1A JUMP JUMPDEST DUP1 PUSH1 0x2 ADD PUSH1 0x2 SWAP1 SLOAD SWAP1 PUSH2 0x100 EXP SWAP1 DIV PUSH1 0xFF AND DUP1 ISZERO PUSH2 0xED6 JUMPI POP DUP2 PUSH1 0x2 ADD PUSH1 0x1 SWAP1 SLOAD SWAP1 PUSH2 0x100 EXP SWAP1 DIV PUSH1 0xFF AND JUMPDEST ISZERO PUSH2 0xF19 JUMPI DUP1 PUSH1 0x0 ADD DUP4 PUSH1 0x2 ADD SWAP1 DUP1 SLOAD PUSH2 0xEEF SWAP1 PUSH2 0x19B4 JUMP JUMPDEST PUSH2 0xEFA SWAP3 SWAP2 SWAP1 PUSH2 0x104F JUMP JUMPDEST POP PUSH1 0x1 DUP4 PUSH1 0x4 ADD PUSH1 0x0 PUSH2 0x100 EXP DUP2 SLOAD DUP2 PUSH1 0xFF MUL NOT AND SWAP1 DUP4 ISZERO ISZERO MUL OR SWAP1 SSTORE POP JUMPDEST JUMPDEST PUSH1 0x0 DUP3 PUSH1 0x2 ADD PUSH1 0x0 PUSH2 0x100 EXP DUP2 SLOAD DUP2 PUSH1 0xFF MUL NOT AND SWAP1 DUP4 ISZERO ISZERO MUL OR SWAP1 SSTORE POP PUSH1 0x0 DUP2 PUSH1 0x2 ADD PUSH1 0x0 PUSH2 0x100 EXP DUP2 SLOAD DUP2 PUSH1 0xFF MUL NOT AND SWAP1 DUP4 ISZERO ISZERO MUL OR SWAP1 SSTORE POP PUSH1 0x0 DUP4 PUSH1 0x3 ADD DUP2 SWAP1 SSTORE POP POP POP POP JUMP JUMPDEST DUP3 DUP1 SLOAD PUSH2 0xF6F SWAP1 PUSH2 0x19B4 JUMP JUMPDEST SWAP1 PUSH1 0x0 MSTORE PUSH1 0x20 PUSH1 0x0 KECCAK256 SWAP1 PUSH1 0x1F ADD PUSH1 0x20 SWAP1 DIV DUP2 ADD SWAP3 DUP3 PUSH2 0xF91 JUMPI PUSH1 0x0 DUP6 SSTORE PUSH2 0xFD8 JUMP JUMPDEST DUP3 PUSH1 0x1F LT PUSH2 0xFAA JUMPI DUP1 MLOAD PUSH1 0xFF NOT AND DUP4 DUP1 ADD OR DUP6 SSTORE PUSH2 0xFD8 JUMP JUMPDEST DUP3 DUP1 ADD PUSH1 0x1 ADD DUP6 SSTORE DUP3 ISZERO PUSH2 0xFD8 JUMPI SWAP2 DUP3 ADD JUMPDEST DUP3 DUP2 GT ISZERO PUSH2 0xFD7 JUMPI DUP3 MLOAD DUP3 SSTORE SWAP2 PUSH1 0x20 ADD SWAP2 SWAP1 PUSH1 0x1 ADD SWAP1 PUSH2 0xFBC JUMP JUMPDEST JUMPDEST POP SWAP1 POP PUSH2 0xFE5 SWAP2 SWAP1 PUSH2 0x10DC JUMP JUMPDEST POP SWAP1 JUMP JUMPDEST PUSH1 0x40 MLOAD DUP1 PUSH1 0xA0 ADD PUSH1 0x40 MSTORE DUP1 PUSH1 0x0 DUP2 MSTORE PUSH1 0x20 ADD PUSH1 0x0 DUP2 MSTORE PUSH1 0x20 ADD PUSH1 0x60 DUP2 MSTORE PUSH1 0x20 ADD PUSH1 0x0 DUP2 MSTORE PUSH1 0x20 ADD PUSH1 0x0 ISZERO ISZERO DUP2 MSTORE POP SWAP1 JUMP JUMPDEST PUSH1 0x40 MLOAD DUP1 PUSH1 0xA0 ADD PUSH1 0x40 MSTORE DUP1 PUSH1 0x60 DUP2 MSTORE PUSH1 0x20 ADD PUSH1 0x0 DUP2 MSTORE PUSH1 0x20 ADD PUSH1 0x0 ISZERO ISZERO DUP2 MSTORE PUSH1 0x20 ADD PUSH1 0x0 ISZERO ISZERO DUP2 MSTORE PUSH1 0x20 ADD PUSH1 0x0 ISZERO ISZERO DUP2 MSTORE POP SWAP1 JUMP JUMPDEST DUP3 DUP1 SLOAD PUSH2 0x105B SWAP1 PUSH2 0x19B4 JUMP JUMPDEST SWAP1 PUSH1 0x0 MSTORE PUSH1 0x20 PUSH1 0x0 KECCAK256 SWAP1 PUSH1 0x1F ADD PUSH1 0x20 SWAP1 DIV DUP2 ADD SWAP3 DUP3 PUSH2 0x107D JUMPI PUSH1 0x0 DUP6 SSTORE PUSH2 0x10CB JUMP JUMPDEST DUP3 PUSH1 0x1F LT PUSH2 0x108E JUMPI DUP1 SLOAD DUP6 SSTORE PUSH2 0x10CB JUMP JUMPDEST DUP3 DUP1 ADD PUSH1 0x1 ADD DUP6 SSTORE DUP3 ISZERO PUSH2 0x10CB JUMPI PUSH1 0x0 MSTORE PUSH1 0x20 PUSH1 0x0 KECCAK256 SWAP2 PUSH1 0x1F ADD PUSH1 0x20 SWAP1 DIV DUP3 ADD JUMPDEST DUP3 DUP2 GT ISZERO PUSH2 0x10CA JUMPI DUP3 SLOAD DUP3 SSTORE SWAP2 PUSH1 0x1 ADD SWAP2 SWAP1 PUSH1 0x1 ADD SWAP1 PUSH2 0x10AF JUMP JUMPDEST JUMPDEST POP SWAP1 POP PUSH2 0x10D8 SWAP2 SWAP1 PUSH2 0x10DC JUMP JUMPDEST POP SWAP1 JUMP JUMPDEST JUMPDEST DUP1 DUP3 GT ISZERO PUSH2 0x10F5 JUMPI PUSH1 0x0 DUP2 PUSH1 0x0 SWAP1 SSTORE POP PUSH1 0x1 ADD PUSH2 0x10DD JUMP JUMPDEST POP SWAP1 JUMP JUMPDEST PUSH1 0x0 PUSH2 0x110C PUSH2 0x1107 DUP5 PUSH2 0x1862 JUMP JUMPDEST PUSH2 0x183D JUMP JUMPDEST SWAP1 POP DUP3 DUP2 MSTORE PUSH1 0x20 DUP2 ADD DUP5 DUP5 DUP5 ADD GT ISZERO PUSH2 0x1128 JUMPI PUSH2 0x1127 PUSH2 0x1B21 JUMP JUMPDEST JUMPDEST PUSH2 0x1133 DUP5 DUP3 DUP6 PUSH2 0x1948 JUMP JUMPDEST POP SWAP4 SWAP3 POP POP POP JUMP JUMPDEST PUSH1 0x0 DUP3 PUSH1 0x1F DUP4 ADD SLT PUSH2 0x1150 JUMPI PUSH2 0x114F PUSH2 0x1B1C JUMP JUMPDEST JUMPDEST DUP2 CALLDATALOAD PUSH2 0x1160 DUP5 DUP3 PUSH1 0x20 DUP7 ADD PUSH2 0x10F9 JUMP JUMPDEST SWAP2 POP POP SWAP3 SWAP2 POP POP JUMP JUMPDEST PUSH1 0x0 DUP2 CALLDATALOAD SWAP1 POP PUSH2 0x1178 DUP2 PUSH2 0x1CCF JUMP JUMPDEST SWAP3 SWAP2 POP POP JUMP JUMPDEST PUSH1 0x0 PUSH1 0x20 DUP3 DUP5 SUB SLT ISZERO PUSH2 0x1194 JUMPI PUSH2 0x1193 PUSH2 0x1B2B JUMP JUMPDEST JUMPDEST PUSH1 0x0 DUP3 ADD CALLDATALOAD PUSH8 0xFFFFFFFFFFFFFFFF DUP2 GT ISZERO PUSH2 0x11B2 JUMPI PUSH2 0x11B1 PUSH2 0x1B26 JUMP JUMPDEST JUMPDEST PUSH2 0x11BE DUP5 DUP3 DUP6 ADD PUSH2 0x113B JUMP JUMPDEST SWAP2 POP POP SWAP3 SWAP2 POP POP JUMP JUMPDEST PUSH1 0x0 PUSH1 0x20 DUP3 DUP5 SUB SLT ISZERO PUSH2 0x11DD JUMPI PUSH2 0x11DC PUSH2 0x1B2B JUMP JUMPDEST JUMPDEST PUSH1 0x0 PUSH2 0x11EB DUP5 DUP3 DUP6 ADD PUSH2 0x1169 JUMP JUMPDEST SWAP2 POP POP SWAP3 SWAP2 POP POP JUMP JUMPDEST PUSH1 0x0 DUP1 PUSH1 0x40 DUP4 DUP6 SUB SLT ISZERO PUSH2 0x120B JUMPI PUSH2 0x120A PUSH2 0x1B2B JUMP JUMPDEST JUMPDEST PUSH1 0x0 PUSH2 0x1219 DUP6 DUP3 DUP7 ADD PUSH2 0x1169 JUMP JUMPDEST SWAP3 POP POP PUSH1 0x20 PUSH2 0x122A DUP6 DUP3 DUP7 ADD PUSH2 0x1169 JUMP JUMPDEST SWAP2 POP POP SWAP3 POP SWAP3 SWAP1 POP JUMP JUMPDEST PUSH1 0x0 DUP1 PUSH1 0x0 PUSH1 0x60 DUP5 DUP7 SUB SLT ISZERO PUSH2 0x124D JUMPI PUSH2 0x124C PUSH2 0x1B2B JUMP JUMPDEST JUMPDEST PUSH1 0x0 PUSH2 0x125B DUP7 DUP3 DUP8 ADD PUSH2 0x1169 JUMP JUMPDEST SWAP4 POP POP PUSH1 0x20 PUSH2 0x126C DUP7 DUP3 DUP8 ADD PUSH2 0x1169 JUMP JUMPDEST SWAP3 POP POP PUSH1 0x40 PUSH2 0x127D DUP7 DUP3 DUP8 ADD PUSH2 0x1169 JUMP JUMPDEST SWAP2 POP POP SWAP3 POP SWAP3 POP SWAP3 JUMP JUMPDEST PUSH1 0x0 PUSH2 0x1293 DUP4 DUP4 PUSH2 0x14EC JUMP JUMPDEST SWAP1 POP SWAP3 SWAP2 POP POP JUMP JUMPDEST PUSH1 0x0 PUSH2 0x12A7 DUP4 DUP4 PUSH2 0x15D8 JUMP JUMPDEST SWAP1 POP SWAP3 SWAP2 POP POP JUMP JUMPDEST PUSH1 0x0 PUSH2 0x12BA DUP3 PUSH2 0x18B3 JUMP JUMPDEST PUSH2 0x12C4 DUP2 DUP6 PUSH2 0x18EE JUMP JUMPDEST SWAP4 POP DUP4 PUSH1 0x20 DUP3 MUL DUP6 ADD PUSH2 0x12D6 DUP6 PUSH2 0x1893 JUMP JUMPDEST DUP1 PUSH1 0x0 JUMPDEST DUP6 DUP2 LT ISZERO PUSH2 0x1312 JUMPI DUP5 DUP5 SUB DUP10 MSTORE DUP2 MLOAD PUSH2 0x12F3 DUP6 DUP3 PUSH2 0x1287 JUMP JUMPDEST SWAP5 POP PUSH2 0x12FE DUP4 PUSH2 0x18D4 JUMP JUMPDEST SWAP3 POP PUSH1 0x20 DUP11 ADD SWAP10 POP POP PUSH1 0x1 DUP2 ADD SWAP1 POP PUSH2 0x12DA JUMP JUMPDEST POP DUP3 SWAP8 POP DUP8 SWAP6 POP POP POP POP POP POP SWAP3 SWAP2 POP POP JUMP JUMPDEST PUSH1 0x0 PUSH2 0x132F DUP3 PUSH2 0x18BE JUMP JUMPDEST PUSH2 0x1339 DUP2 DUP6 PUSH2 0x18FF JUMP JUMPDEST SWAP4 POP DUP4 PUSH1 0x20 DUP3 MUL DUP6 ADD PUSH2 0x134B DUP6 PUSH2 0x18A3 JUMP JUMPDEST DUP1 PUSH1 0x0 JUMPDEST DUP6 DUP2 LT ISZERO PUSH2 0x1387 JUMPI DUP5 DUP5 SUB DUP10 MSTORE DUP2 MLOAD PUSH2 0x1368 DUP6 DUP3 PUSH2 0x129B JUMP JUMPDEST SWAP5 POP PUSH2 0x1373 DUP4 PUSH2 0x18E1 JUMP JUMPDEST SWAP3 POP PUSH1 0x20 DUP11 ADD SWAP10 POP POP PUSH1 0x1 DUP2 ADD SWAP1 POP PUSH2 0x134F JUMP JUMPDEST POP DUP3 SWAP8 POP DUP8 SWAP6 POP POP POP POP POP POP SWAP3 SWAP2 POP POP JUMP JUMPDEST PUSH2 0x13A2 DUP2 PUSH2 0x1932 JUMP JUMPDEST DUP3 MSTORE POP POP JUMP JUMPDEST PUSH1 0x0 PUSH2 0x13B3 DUP3 PUSH2 0x18C9 JUMP JUMPDEST PUSH2 0x13BD DUP2 DUP6 PUSH2 0x1910 JUMP JUMPDEST SWAP4 POP PUSH2 0x13CD DUP2 DUP6 PUSH1 0x20 DUP7 ADD PUSH2 0x1957 JUMP JUMPDEST PUSH2 0x13D6 DUP2 PUSH2 0x1B30 JUMP JUMPDEST DUP5 ADD SWAP2 POP POP SWAP3 SWAP2 POP POP JUMP JUMPDEST PUSH1 0x0 PUSH2 0x13EC DUP3 PUSH2 0x18C9 JUMP JUMPDEST PUSH2 0x13F6 DUP2 DUP6 PUSH2 0x1921 JUMP JUMPDEST SWAP4 POP PUSH2 0x1406 DUP2 DUP6 PUSH1 0x20 DUP7 ADD PUSH2 0x1957 JUMP JUMPDEST PUSH2 0x140F DUP2 PUSH2 0x1B30 JUMP JUMPDEST DUP5 ADD SWAP2 POP POP SWAP3 SWAP2 POP POP JUMP JUMPDEST PUSH1 0x0 PUSH2 0x1427 PUSH1 0x28 DUP4 PUSH2 0x1921 JUMP JUMPDEST SWAP2 POP PUSH2 0x1432 DUP3 PUSH2 0x1B41 JUMP JUMPDEST PUSH1 0x40 DUP3 ADD SWAP1 POP SWAP2 SWAP1 POP JUMP JUMPDEST PUSH1 0x0 PUSH2 0x144A PUSH1 0x1D DUP4 PUSH2 0x1921 JUMP JUMPDEST SWAP2 POP PUSH2 0x1455 DUP3 PUSH2 0x1B90 JUMP JUMPDEST PUSH1 0x20 DUP3 ADD SWAP1 POP SWAP2 SWAP1 POP JUMP JUMPDEST PUSH1 0x0 PUSH2 0x146D PUSH1 0x2B DUP4 PUSH2 0x1921 JUMP JUMPDEST SWAP2 POP PUSH2 0x1478 DUP3 PUSH2 0x1BB9 JUMP JUMPDEST PUSH1 0x40 DUP3 ADD SWAP1 POP SWAP2 SWAP1 POP JUMP JUMPDEST PUSH1 0x0 PUSH2 0x1490 PUSH1 0x2E DUP4 PUSH2 0x1921 JUMP JUMPDEST SWAP2 POP PUSH2 0x149B DUP3 PUSH2 0x1C08 JUMP JUMPDEST PUSH1 0x40 DUP3 ADD SWAP1 POP SWAP2 SWAP1 POP JUMP JUMPDEST PUSH1 0x0 PUSH2 0x14B3 PUSH1 0x17 DUP4 PUSH2 0x1921 JUMP JUMPDEST SWAP2 POP PUSH2 0x14BE DUP3 PUSH2 0x1C57 JUMP JUMPDEST PUSH1 0x20 DUP3 ADD SWAP1 POP SWAP2 SWAP1 POP JUMP JUMPDEST PUSH1 0x0 PUSH2 0x14D6 PUSH1 0x24 DUP4 PUSH2 0x1921 JUMP JUMPDEST SWAP2 POP PUSH2 0x14E1 DUP3 PUSH2 0x1C80 JUMP JUMPDEST PUSH1 0x40 DUP3 ADD SWAP1 POP SWAP2 SWAP1 POP JUMP JUMPDEST PUSH1 0x0 PUSH1 0xA0 DUP4 ADD PUSH1 0x0 DUP4 ADD MLOAD PUSH2 0x1504 PUSH1 0x0 DUP7 ADD DUP3 PUSH2 0x16C4 JUMP JUMPDEST POP PUSH1 0x20 DUP4 ADD MLOAD PUSH2 0x1517 PUSH1 0x20 DUP7 ADD DUP3 PUSH2 0x16C4 JUMP JUMPDEST POP PUSH1 0x40 DUP4 ADD MLOAD DUP5 DUP3 SUB PUSH1 0x40 DUP7 ADD MSTORE PUSH2 0x152F DUP3 DUP3 PUSH2 0x13A8 JUMP JUMPDEST SWAP2 POP POP PUSH1 0x60 DUP4 ADD MLOAD PUSH2 0x1544 PUSH1 0x60 DUP7 ADD DUP3 PUSH2 0x16C4 JUMP JUMPDEST POP PUSH1 0x80 DUP4 ADD MLOAD PUSH2 0x1557 PUSH1 0x80 DUP7 ADD DUP3 PUSH2 0x1399 JUMP JUMPDEST POP DUP1 SWAP2 POP POP SWAP3 SWAP2 POP POP JUMP JUMPDEST PUSH1 0x0 PUSH1 0xA0 DUP4 ADD PUSH1 0x0 DUP4 ADD MLOAD PUSH2 0x157A PUSH1 0x0 DUP7 ADD DUP3 PUSH2 0x16C4 JUMP JUMPDEST POP PUSH1 0x20 DUP4 ADD MLOAD PUSH2 0x158D PUSH1 0x20 DUP7 ADD DUP3 PUSH2 0x16C4 JUMP JUMPDEST POP PUSH1 0x40 DUP4 ADD MLOAD DUP5 DUP3 SUB PUSH1 0x40 DUP7 ADD MSTORE PUSH2 0x15A5 DUP3 DUP3 PUSH2 0x13A8 JUMP JUMPDEST SWAP2 POP POP PUSH1 0x60 DUP4 ADD MLOAD PUSH2 0x15BA PUSH1 0x60 DUP7 ADD DUP3 PUSH2 0x16C4 JUMP JUMPDEST POP PUSH1 0x80 DUP4 ADD MLOAD PUSH2 0x15CD PUSH1 0x80 DUP7 ADD DUP3 PUSH2 0x1399 JUMP JUMPDEST POP DUP1 SWAP2 POP POP SWAP3 SWAP2 POP POP JUMP JUMPDEST PUSH1 0x0 PUSH1 0xA0 DUP4 ADD PUSH1 0x0 DUP4 ADD MLOAD DUP5 DUP3 SUB PUSH1 0x0 DUP7 ADD MSTORE PUSH2 0x15F5 DUP3 DUP3 PUSH2 0x13A8 JUMP JUMPDEST SWAP2 POP POP PUSH1 0x20 DUP4 ADD MLOAD PUSH2 0x160A PUSH1 0x20 DUP7 ADD DUP3 PUSH2 0x16C4 JUMP JUMPDEST POP PUSH1 0x40 DUP4 ADD MLOAD PUSH2 0x161D PUSH1 0x40 DUP7 ADD DUP3 PUSH2 0x1399 JUMP JUMPDEST POP PUSH1 0x60 DUP4 ADD MLOAD PUSH2 0x1630 PUSH1 0x60 DUP7 ADD DUP3 PUSH2 0x1399 JUMP JUMPDEST POP PUSH1 0x80 DUP4 ADD MLOAD PUSH2 0x1643 PUSH1 0x80 DUP7 ADD DUP3 PUSH2 0x1399 JUMP JUMPDEST POP DUP1 SWAP2 POP POP SWAP3 SWAP2 POP POP JUMP JUMPDEST PUSH1 0x0 PUSH1 0xA0 DUP4 ADD PUSH1 0x0 DUP4 ADD MLOAD DUP5 DUP3 SUB PUSH1 0x0 DUP7 ADD MSTORE PUSH2 0x166B DUP3 DUP3 PUSH2 0x13A8 JUMP JUMPDEST SWAP2 POP POP PUSH1 0x20 DUP4 ADD MLOAD PUSH2 0x1680 PUSH1 0x20 DUP7 ADD DUP3 PUSH2 0x16C4 JUMP JUMPDEST POP PUSH1 0x40 DUP4 ADD MLOAD PUSH2 0x1693 PUSH1 0x40 DUP7 ADD DUP3 PUSH2 0x1399 JUMP JUMPDEST POP PUSH1 0x60 DUP4 ADD MLOAD PUSH2 0x16A6 PUSH1 0x60 DUP7 ADD DUP3 PUSH2 0x1399 JUMP JUMPDEST POP PUSH1 0x80 DUP4 ADD MLOAD PUSH2 0x16B9 PUSH1 0x80 DUP7 ADD DUP3 PUSH2 0x1399 JUMP JUMPDEST POP DUP1 SWAP2 POP POP SWAP3 SWAP2 POP POP JUMP JUMPDEST PUSH2 0x16CD DUP2 PUSH2 0x193E JUMP JUMPDEST DUP3 MSTORE POP POP JUMP JUMPDEST PUSH1 0x0 PUSH1 0x20 DUP3 ADD SWAP1 POP DUP2 DUP2 SUB PUSH1 0x0 DUP4 ADD MSTORE PUSH2 0x16ED DUP2 DUP5 PUSH2 0x12AF JUMP JUMPDEST SWAP1 POP SWAP3 SWAP2 POP POP JUMP JUMPDEST PUSH1 0x0 PUSH1 0x20 DUP3 ADD SWAP1 POP DUP2 DUP2 SUB PUSH1 0x0 DUP4 ADD MSTORE PUSH2 0x170F DUP2 DUP5 PUSH2 0x1324 JUMP JUMPDEST SWAP1 POP SWAP3 SWAP2 POP POP JUMP JUMPDEST PUSH1 0x0 PUSH1 0x20 DUP3 ADD SWAP1 POP DUP2 DUP2 SUB PUSH1 0x0 DUP4 ADD MSTORE PUSH2 0x1731 DUP2 DUP5 PUSH2 0x13E1 JUMP JUMPDEST SWAP1 POP SWAP3 SWAP2 POP POP JUMP JUMPDEST PUSH1 0x0 PUSH1 0x20 DUP3 ADD SWAP1 POP DUP2 DUP2 SUB PUSH1 0x0 DUP4 ADD MSTORE PUSH2 0x1752 DUP2 PUSH2 0x141A JUMP JUMPDEST SWAP1 POP SWAP2 SWAP1 POP JUMP JUMPDEST PUSH1 0x0 PUSH1 0x20 DUP3 ADD SWAP1 POP DUP2 DUP2 SUB PUSH1 0x0 DUP4 ADD MSTORE PUSH2 0x1772 DUP2 PUSH2 0x143D JUMP JUMPDEST SWAP1 POP SWAP2 SWAP1 POP JUMP JUMPDEST PUSH1 0x0 PUSH1 0x20 DUP3 ADD SWAP1 POP DUP2 DUP2 SUB PUSH1 0x0 DUP4 ADD MSTORE PUSH2 0x1792 DUP2 PUSH2 0x1460 JUMP JUMPDEST SWAP1 POP SWAP2 SWAP1 POP JUMP JUMPDEST PUSH1 0x0 PUSH1 0x20 DUP3 ADD SWAP1 POP DUP2 DUP2 SUB PUSH1 0x0 DUP4 ADD MSTORE PUSH2 0x17B2 DUP2 PUSH2 0x1483 JUMP JUMPDEST SWAP1 POP SWAP2 SWAP1 POP JUMP JUMPDEST PUSH1 0x0 PUSH1 0x20 DUP3 ADD SWAP1 POP DUP2 DUP2 SUB PUSH1 0x0 DUP4 ADD MSTORE PUSH2 0x17D2 DUP2 PUSH2 0x14A6 JUMP JUMPDEST SWAP1 POP SWAP2 SWAP1 POP JUMP JUMPDEST PUSH1 0x0 PUSH1 0x20 DUP3 ADD SWAP1 POP DUP2 DUP2 SUB PUSH1 0x0 DUP4 ADD MSTORE PUSH2 0x17F2 DUP2 PUSH2 0x14C9 JUMP JUMPDEST SWAP1 POP SWAP2 SWAP1 POP JUMP JUMPDEST PUSH1 0x0 PUSH1 0x20 DUP3 ADD SWAP1 POP DUP2 DUP2 SUB PUSH1 0x0 DUP4 ADD MSTORE PUSH2 0x1813 DUP2 DUP5 PUSH2 0x1562 JUMP JUMPDEST SWAP1 POP SWAP3 SWAP2 POP POP JUMP JUMPDEST PUSH1 0x0 PUSH1 0x20 DUP3 ADD SWAP1 POP DUP2 DUP2 SUB PUSH1 0x0 DUP4 ADD MSTORE PUSH2 0x1835 DUP2 DUP5 PUSH2 0x164E JUMP JUMPDEST SWAP1 POP SWAP3 SWAP2 POP POP JUMP JUMPDEST PUSH1 0x0 PUSH2 0x1847 PUSH2 0x1858 JUMP JUMPDEST SWAP1 POP PUSH2 0x1853 DUP3 DUP3 PUSH2 0x19E6 JUMP JUMPDEST SWAP2 SWAP1 POP JUMP JUMPDEST PUSH1 0x0 PUSH1 0x40 MLOAD SWAP1 POP SWAP1 JUMP JUMPDEST PUSH1 0x0 PUSH8 0xFFFFFFFFFFFFFFFF DUP3 GT ISZERO PUSH2 0x187D JUMPI PUSH2 0x187C PUSH2 0x1AED JUMP JUMPDEST JUMPDEST PUSH2 0x1886 DUP3 PUSH2 0x1B30 JUMP JUMPDEST SWAP1 POP PUSH1 0x20 DUP2 ADD SWAP1 POP SWAP2 SWAP1 POP JUMP JUMPDEST PUSH1 0x0 DUP2 SWAP1 POP PUSH1 0x20 DUP3 ADD SWAP1 POP SWAP2 SWAP1 POP JUMP JUMPDEST PUSH1 0x0 DUP2 SWAP1 POP PUSH1 0x20 DUP3 ADD SWAP1 POP SWAP2 SWAP1 POP JUMP JUMPDEST PUSH1 0x0 DUP2 MLOAD SWAP1 POP SWAP2 SWAP1 POP JUMP JUMPDEST PUSH1 0x0 DUP2 MLOAD SWAP1 POP SWAP2 SWAP1 POP JUMP JUMPDEST PUSH1 0x0 DUP2 MLOAD SWAP1 POP SWAP2 SWAP1 POP JUMP JUMPDEST PUSH1 0x0 PUSH1 0x20 DUP3 ADD SWAP1 POP SWAP2 SWAP1 POP JUMP JUMPDEST PUSH1 0x0 PUSH1 0x20 DUP3 ADD SWAP1 POP SWAP2 SWAP1 POP JUMP JUMPDEST PUSH1 0x0 DUP3 DUP3 MSTORE PUSH1 0x20 DUP3 ADD SWAP1 POP SWAP3 SWAP2 POP POP JUMP JUMPDEST PUSH1 0x0 DUP3 DUP3 MSTORE PUSH1 0x20 DUP3 ADD SWAP1 POP SWAP3 SWAP2 POP POP JUMP JUMPDEST PUSH1 0x0 DUP3 DUP3 MSTORE PUSH1 0x20 DUP3 ADD SWAP1 POP SWAP3 SWAP2 POP POP JUMP JUMPDEST PUSH1 0x0 DUP3 DUP3 MSTORE PUSH1 0x20 DUP3 ADD SWAP1 POP SWAP3 SWAP2 POP POP JUMP JUMPDEST PUSH1 0x0 DUP2 ISZERO ISZERO SWAP1 POP SWAP2 SWAP1 POP JUMP JUMPDEST PUSH1 0x0 DUP2 SWAP1 POP SWAP2 SWAP1 POP JUMP JUMPDEST DUP3 DUP2 DUP4 CALLDATACOPY PUSH1 0x0 DUP4 DUP4 ADD MSTORE POP POP POP JUMP JUMPDEST PUSH1 0x0 JUMPDEST DUP4 DUP2 LT ISZERO PUSH2 0x1975 JUMPI DUP1 DUP3 ADD MLOAD DUP2 DUP5 ADD MSTORE PUSH1 0x20 DUP2 ADD SWAP1 POP PUSH2 0x195A JUMP JUMPDEST DUP4 DUP2 GT ISZERO PUSH2 0x1984 JUMPI PUSH1 0x0 DUP5 DUP5 ADD MSTORE JUMPDEST POP POP POP POP JUMP JUMPDEST PUSH1 0x0 PUSH2 0x1995 DUP3 PUSH2 0x193E JUMP JUMPDEST SWAP2 POP PUSH1 0x0 DUP3 EQ ISZERO PUSH2 0x19A9 JUMPI PUSH2 0x19A8 PUSH2 0x1A60 JUMP JUMPDEST JUMPDEST PUSH1 0x1 DUP3 SUB SWAP1 POP SWAP2 SWAP1 POP JUMP JUMPDEST PUSH1 0x0 PUSH1 0x2 DUP3 DIV SWAP1 POP PUSH1 0x1 DUP3 AND DUP1 PUSH2 0x19CC JUMPI PUSH1 0x7F DUP3 AND SWAP2 POP JUMPDEST PUSH1 0x20 DUP3 LT DUP2 EQ ISZERO PUSH2 0x19E0 JUMPI PUSH2 0x19DF PUSH2 0x1A8F JUMP JUMPDEST JUMPDEST POP SWAP2 SWAP1 POP JUMP JUMPDEST PUSH2 0x19EF DUP3 PUSH2 0x1B30 JUMP JUMPDEST DUP2 ADD DUP2 DUP2 LT PUSH8 0xFFFFFFFFFFFFFFFF DUP3 GT OR ISZERO PUSH2 0x1A0E JUMPI PUSH2 0x1A0D PUSH2 0x1AED JUMP JUMPDEST JUMPDEST DUP1 PUSH1 0x40 MSTORE POP POP POP JUMP JUMPDEST PUSH1 0x0 PUSH2 0x1A22 DUP3 PUSH2 0x193E JUMP JUMPDEST SWAP2 POP PUSH32 0xFFFFFFFFFFFFFFFFFFFFFFFFFFFFFFFFFFFFFFFFFFFFFFFFFFFFFFFFFFFFFFFF DUP3 EQ ISZERO PUSH2 0x1A55 JUMPI PUSH2 0x1A54 PUSH2 0x1A60 JUMP JUMPDEST JUMPDEST PUSH1 0x1 DUP3 ADD SWAP1 POP SWAP2 SWAP1 POP JUMP JUMPDEST PUSH32 0x4E487B7100000000000000000000000000000000000000000000000000000000 PUSH1 0x0 MSTORE PUSH1 0x11 PUSH1 0x4 MSTORE PUSH1 0x24 PUSH1 0x0 REVERT JUMPDEST PUSH32 0x4E487B7100000000000000000000000000000000000000000000000000000000 PUSH1 0x0 MSTORE PUSH1 0x22 PUSH1 0x4 MSTORE PUSH1 0x24 PUSH1 0x0 REVERT JUMPDEST PUSH32 0x4E487B7100000000000000000000000000000000000000000000000000000000 PUSH1 0x0 MSTORE PUSH1 0x32 PUSH1 0x4 MSTORE PUSH1 0x24 PUSH1 0x0 REVERT JUMPDEST PUSH32 0x4E487B7100000000000000000000000000000000000000000000000000000000 PUSH1 0x0 MSTORE PUSH1 0x41 PUSH1 0x4 MSTORE PUSH1 0x24 PUSH1 0x0 REVERT JUMPDEST PUSH1 0x0 DUP1 REVERT JUMPDEST PUSH1 0x0 DUP1 REVERT JUMPDEST PUSH1 0x0 DUP1 REVERT JUMPDEST PUSH1 0x0 DUP1 REVERT JUMPDEST PUSH1 0x0 PUSH1 0x1F NOT PUSH1 0x1F DUP4 ADD AND SWAP1 POP SWAP2 SWAP1 POP JUMP JUMPDEST PUSH32 0x436F77626F792068617320616C72656164792074616B656E207475726E207468 PUSH1 0x0 DUP3 ADD MSTORE PUSH32 0x697320726F756E64000000000000000000000000000000000000000000000000 PUSH1 0x20 DUP3 ADD MSTORE POP JUMP JUMPDEST PUSH32 0x54686520676976656E206964206973206F7574206F6620626F756E6473000000 PUSH1 0x0 DUP3 ADD MSTORE POP JUMP JUMPDEST PUSH32 0x54686520676976656E20636F77626F79206973206E6F7420696E207468652067 PUSH1 0x0 DUP3 ADD MSTORE PUSH32 0x6976656E20626174746C65000000000000000000000000000000000000000000 PUSH1 0x20 DUP3 ADD MSTORE POP JUMP JUMPDEST PUSH32 0x5468652067616D65206973206F76657220796F757220636F77626F792063616E PUSH1 0x0 DUP3 ADD MSTORE PUSH32 0x27742074616B65207475726E732E000000000000000000000000000000000000 PUSH1 0x20 DUP3 ADD MSTORE POP JUMP JUMPDEST PUSH32 0x5468657265206973206E6F2077696E6E6572207965742E000000000000000000 PUSH1 0x0 DUP3 ADD MSTORE POP JUMP JUMPDEST PUSH32 0x596F757220636F77626F792063616E27742073686F6F7420776974686F757420 PUSH1 0x0 DUP3 ADD MSTORE PUSH32 0x616D6D6F00000000000000000000000000000000000000000000000000000000 PUSH1 0x20 DUP3 ADD MSTORE POP JUMP JUMPDEST PUSH2 0x1CD8 DUP2 PUSH2 0x193E JUMP JUMPDEST DUP2 EQ PUSH2 0x1CE3 JUMPI PUSH1 0x0 DUP1 REVERT JUMPDEST POP JUMP INVALID LOG2 PUSH5 0x6970667358 0x22 SLT KECCAK256 PUSH5 0x241D0EEF86 SWAP13 GASLIMIT 0xEB DUP1 0x26 LT DUP3 PUSH32 0xCB07DA55C946202EA1C5220BC4E53CA1634664736F6C63430008070033000000 "
    },
    "gasEstimates": {
      "creation": {
        "codeDepositCost": "1490400",
        "executionCost": "1555",
        "totalCost": "1491955"
      },
      "external": {
        "createBattle(uint256,uint256)": "infinite",
        "createCowboy(string)": "infinite",
        "getAllBattles()": "infinite",
        "getAllCowboys()": "infinite",
        "getBattle(uint256)": "infinite",
        "getCowboy(uint256)": "infinite",
        "getWinner(uint256)": "infinite",
        "takeTurn(uint256,uint256,uint256)": "infinite"
      },
      "internal": {
        "dodge(struct BattleHandler.Cowboy storage pointer)": "48657",
        "finishTurn(struct BattleHandler.Battle storage pointer)": "infinite",
        "reload(struct BattleHandler.Cowboy storage pointer)": "73023",
        "shoot(struct BattleHandler.Cowboy storage pointer)": "infinite"
      }
    },
    "methodIdentifiers": {
      "createBattle(uint256,uint256)": "df73c49f",
      "createCowboy(string)": "5f4a0b85",
      "getAllBattles()": "5c93fc3d",
      "getAllCowboys()": "3c145f75",
      "getBattle(uint256)": "6dd0ce7a",
      "getCowboy(uint256)": "dc118019",
      "getWinner(uint256)": "4129b2c9",
      "takeTurn(uint256,uint256,uint256)": "7dbef372"
    }
  },
  "storageLayout": {
    "storage": [
      {
        "astId": 28,
        "contract": "BattleHandler.sol:BattleHandler",
        "label": "battleList",
        "offset": 0,
        "slot": "0",
        "type": "t_array(t_struct(Battle)13_storage)dyn_storage"
      },
      {
        "astId": 32,
        "contract": "BattleHandler.sol:BattleHandler",
        "label": "cowboyList",
        "offset": 0,
        "slot": "1",
        "type": "t_array(t_struct(Cowboy)24_storage)dyn_storage"
      }
    ],
    "types": {
      "t_array(t_struct(Battle)13_storage)dyn_storage": {
        "base": "t_struct(Battle)13_storage",
        "encoding": "dynamic_array",
        "label": "struct BattleHandler.Battle[]",
        "numberOfBytes": "32"
      },
      "t_array(t_struct(Cowboy)24_storage)dyn_storage": {
        "base": "t_struct(Cowboy)24_storage",
        "encoding": "dynamic_array",
        "label": "struct BattleHandler.Cowboy[]",
        "numberOfBytes": "32"
      },
      "t_bool": {
        "encoding": "inplace",
        "label": "bool",
        "numberOfBytes": "1"
      },
      "t_string_storage": {
        "encoding": "bytes",
        "label": "string",
        "numberOfBytes": "32"
      },
      "t_struct(Battle)13_storage": {
        "encoding": "inplace",
        "label": "struct BattleHandler.Battle",
        "members": [
          {
            "astId": 4,
            "contract": "BattleHandler.sol:BattleHandler",
            "label": "cowboyId0",
            "offset": 0,
            "slot": "0",
            "type": "t_uint256"
          },
          {
            "astId": 6,
            "contract": "BattleHandler.sol:BattleHandler",
            "label": "cowboyId1",
            "offset": 0,
            "slot": "1",
            "type": "t_uint256"
          },
          {
            "astId": 8,
            "contract": "BattleHandler.sol:BattleHandler",
            "label": "winner",
            "offset": 0,
            "slot": "2",
            "type": "t_string_storage"
          },
          {
            "astId": 10,
            "contract": "BattleHandler.sol:BattleHandler",
            "label": "turnCounter",
            "offset": 0,
            "slot": "3",
            "type": "t_uint256"
          },
          {
            "astId": 12,
            "contract": "BattleHandler.sol:BattleHandler",
            "label": "gameOver",
            "offset": 0,
            "slot": "4",
            "type": "t_bool"
          }
        ],
        "numberOfBytes": "160"
      },
      "t_struct(Cowboy)24_storage": {
        "encoding": "inplace",
        "label": "struct BattleHandler.Cowboy",
        "members": [
          {
            "astId": 15,
            "contract": "BattleHandler.sol:BattleHandler",
            "label": "name",
            "offset": 0,
            "slot": "0",
            "type": "t_string_storage"
          },
          {
            "astId": 17,
            "contract": "BattleHandler.sol:BattleHandler",
            "label": "shots",
            "offset": 0,
            "slot": "1",
            "type": "t_uint256"
          },
          {
            "astId": 19,
            "contract": "BattleHandler.sol:BattleHandler",
            "label": "takenTurn",
            "offset": 0,
            "slot": "2",
            "type": "t_bool"
          },
          {
            "astId": 21,
            "contract": "BattleHandler.sol:BattleHandler",
            "label": "reloading",
            "offset": 1,
            "slot": "2",
            "type": "t_bool"
          },
          {
            "astId": 23,
            "contract": "BattleHandler.sol:BattleHandler",
            "label": "shooting",
            "offset": 2,
            "slot": "2",
            "type": "t_bool"
          }
        ],
        "numberOfBytes": "96"
      },
      "t_uint256": {
        "encoding": "inplace",
        "label": "uint256",
        "numberOfBytes": "32"
      }
    }
  },
  "userdoc": {
    "kind": "user",
    "methods": {},
    "version": 1
  }
}