{
  "abi": [
    {
      "inputs": [],
      "stateMutability": "nonpayable",
      "type": "constructor"
    },
    {
      "inputs": [],
      "name": "getBattle",
      "outputs": [
        {
          "components": [
            {
              "components": [
                {
                  "internalType": "string",
                  "name": "name",
                  "type": "string"
                },
                {
                  "internalType": "uint256",
                  "name": "shots",
                  "type": "uint256"
                },
                {
                  "internalType": "bool",
                  "name": "takenTurn",
                  "type": "bool"
                },
                {
                  "internalType": "bool",
                  "name": "reloading",
                  "type": "bool"
                },
                {
                  "internalType": "bool",
                  "name": "shooting",
                  "type": "bool"
                }
              ],
              "internalType": "struct BattleHandler.Cowboy",
              "name": "cowboy1",
              "type": "tuple"
            },
            {
              "components": [
                {
                  "internalType": "string",
                  "name": "name",
                  "type": "string"
                },
                {
                  "internalType": "uint256",
                  "name": "shots",
                  "type": "uint256"
                },
                {
                  "internalType": "bool",
                  "name": "takenTurn",
                  "type": "bool"
                },
                {
                  "internalType": "bool",
                  "name": "reloading",
                  "type": "bool"
                },
                {
                  "internalType": "bool",
                  "name": "shooting",
                  "type": "bool"
                }
              ],
              "internalType": "struct BattleHandler.Cowboy",
              "name": "cowboy2",
              "type": "tuple"
            },
            {
              "internalType": "string",
              "name": "winner",
              "type": "string"
            },
            {
              "internalType": "uint256",
              "name": "turnCounter",
              "type": "uint256"
            },
            {
              "internalType": "bool",
              "name": "gameOver",
              "type": "bool"
            }
          ],
          "internalType": "struct BattleHandler.Battle",
          "name": "",
          "type": "tuple"
        }
      ],
      "stateMutability": "view",
      "type": "function"
    },
    {
      "inputs": [],
      "name": "getWinner",
      "outputs": [
        {
          "internalType": "string",
          "name": "",
          "type": "string"
        }
      ],
      "stateMutability": "view",
      "type": "function"
    },
    {
      "inputs": [
        {
          "internalType": "uint256",
          "name": "command",
          "type": "uint256"
        },
        {
          "internalType": "uint256",
          "name": "cowboyId",
          "type": "uint256"
        }
      ],
      "name": "takeTurn",
      "outputs": [],
      "stateMutability": "nonpayable",
      "type": "function"
    }
  ],
  "devdoc": {
    "kind": "dev",
    "methods": {},
    "version": 1
  },
  "evm": {
    "assembly": "    /* \"BattleHandler.sol\":74:2879  contract BattleHandler {\r... */\n  mstore(0x40, 0x80)\n    /* \"BattleHandler.sol\":428:652  constructor() {\r... */\n  callvalue\n  dup1\n  iszero\n  tag_1\n  jumpi\n  0x00\n  dup1\n  revert\ntag_1:\n  pop\n    /* \"BattleHandler.sol\":453:474  Cowboy memory cowboy1 */\n  0x00\n    /* \"BattleHandler.sol\":477:514  Cowboy(\"uno\", 0, false, false, false) */\n  mload(0x40)\n  dup1\n  0xa0\n  add\n  0x40\n  mstore\n  dup1\n  mload(0x40)\n  dup1\n  0x40\n  add\n  0x40\n  mstore\n  dup1\n  0x03\n  dup2\n  mstore\n  0x20\n  add\n  0x756e6f0000000000000000000000000000000000000000000000000000000000\n  dup2\n  mstore\n  pop\n  dup2\n  mstore\n  0x20\n  add\n    /* \"BattleHandler.sol\":491:492  0 */\n  0x00\n    /* \"BattleHandler.sol\":477:514  Cowboy(\"uno\", 0, false, false, false) */\n  dup2\n  mstore\n  0x20\n  add\n    /* \"BattleHandler.sol\":494:499  false */\n  0x00\n    /* \"BattleHandler.sol\":477:514  Cowboy(\"uno\", 0, false, false, false) */\n  iszero\n  iszero\n  dup2\n  mstore\n  0x20\n  add\n    /* \"BattleHandler.sol\":501:506  false */\n  0x00\n    /* \"BattleHandler.sol\":477:514  Cowboy(\"uno\", 0, false, false, false) */\n  iszero\n  iszero\n  dup2\n  mstore\n  0x20\n  add\n    /* \"BattleHandler.sol\":508:513  false */\n  0x00\n    /* \"BattleHandler.sol\":477:514  Cowboy(\"uno\", 0, false, false, false) */\n  iszero\n  iszero\n  dup2\n  mstore\n  pop\n    /* \"BattleHandler.sol\":453:514  Cowboy memory cowboy1 = Cowboy(\"uno\", 0, false, false, false) */\n  swap1\n  pop\n    /* \"BattleHandler.sol\":525:546  Cowboy memory cowboy2 */\n  0x00\n    /* \"BattleHandler.sol\":549:586  Cowboy(\"dos\", 0, false, false, false) */\n  mload(0x40)\n  dup1\n  0xa0\n  add\n  0x40\n  mstore\n  dup1\n  mload(0x40)\n  dup1\n  0x40\n  add\n  0x40\n  mstore\n  dup1\n  0x03\n  dup2\n  mstore\n  0x20\n  add\n  0x646f730000000000000000000000000000000000000000000000000000000000\n  dup2\n  mstore\n  pop\n  dup2\n  mstore\n  0x20\n  add\n    /* \"BattleHandler.sol\":563:564  0 */\n  0x00\n    /* \"BattleHandler.sol\":549:586  Cowboy(\"dos\", 0, false, false, false) */\n  dup2\n  mstore\n  0x20\n  add\n    /* \"BattleHandler.sol\":566:571  false */\n  0x00\n    /* \"BattleHandler.sol\":549:586  Cowboy(\"dos\", 0, false, false, false) */\n  iszero\n  iszero\n  dup2\n  mstore\n  0x20\n  add\n    /* \"BattleHandler.sol\":573:578  false */\n  0x00\n    /* \"BattleHandler.sol\":549:586  Cowboy(\"dos\", 0, false, false, false) */\n  iszero\n  iszero\n  dup2\n  mstore\n  0x20\n  add\n    /* \"BattleHandler.sol\":580:585  false */\n  0x00\n    /* \"BattleHandler.sol\":549:586  Cowboy(\"dos\", 0, false, false, false) */\n  iszero\n  iszero\n  dup2\n  mstore\n  pop\n    /* \"BattleHandler.sol\":525:586  Cowboy memory cowboy2 = Cowboy(\"dos\", 0, false, false, false) */\n  swap1\n  pop\n    /* \"BattleHandler.sol\":606:644  Battle(cowboy1, cowboy2, \"\", 0, false) */\n  mload(0x40)\n  dup1\n  0xa0\n  add\n  0x40\n  mstore\n  dup1\n    /* \"BattleHandler.sol\":613:620  cowboy1 */\n  dup4\n    /* \"BattleHandler.sol\":606:644  Battle(cowboy1, cowboy2, \"\", 0, false) */\n  dup2\n  mstore\n  0x20\n  add\n    /* \"BattleHandler.sol\":622:629  cowboy2 */\n  dup3\n    /* \"BattleHandler.sol\":606:644  Battle(cowboy1, cowboy2, \"\", 0, false) */\n  dup2\n  mstore\n  0x20\n  add\n  mload(0x40)\n  dup1\n  0x20\n  add\n  0x40\n  mstore\n  dup1\n  0x00\n  dup2\n  mstore\n  pop\n  dup2\n  mstore\n  0x20\n  add\n    /* \"BattleHandler.sol\":635:636  0 */\n  0x00\n    /* \"BattleHandler.sol\":606:644  Battle(cowboy1, cowboy2, \"\", 0, false) */\n  dup2\n  mstore\n  0x20\n  add\n    /* \"BattleHandler.sol\":638:643  false */\n  0x00\n    /* \"BattleHandler.sol\":606:644  Battle(cowboy1, cowboy2, \"\", 0, false) */\n  iszero\n  iszero\n  dup2\n  mstore\n  pop\n    /* \"BattleHandler.sol\":597:603  battle */\n  0x00\n    /* \"BattleHandler.sol\":597:644  battle = Battle(cowboy1, cowboy2, \"\", 0, false) */\n  dup1\n  dup3\n  add\n  mload\n  dup2\n  0x00\n  add\n  0x00\n  dup3\n  add\n  mload\n  dup2\n  0x00\n  add\n  swap1\n  dup1\n  mload\n  swap1\n  0x20\n  add\n  swap1\n  tag_4\n  swap3\n  swap2\n  swap1\n  tag_5\n  jump\t// in\ntag_4:\n  pop\n  0x20\n  dup3\n  add\n  mload\n  dup2\n  0x01\n  add\n  sstore\n  0x40\n  dup3\n  add\n  mload\n  dup2\n  0x02\n  add\n  exp(0x0100, 0x00)\n  dup2\n  sload\n  dup2\n  0xff\n  mul\n  not\n  and\n  swap1\n  dup4\n  iszero\n  iszero\n  mul\n  or\n  swap1\n  sstore\n  pop\n  0x60\n  dup3\n  add\n  mload\n  dup2\n  0x02\n  add\n  exp(0x0100, 0x01)\n  dup2\n  sload\n  dup2\n  0xff\n  mul\n  not\n  and\n  swap1\n  dup4\n  iszero\n  iszero\n  mul\n  or\n  swap1\n  sstore\n  pop\n  0x80\n  dup3\n  add\n  mload\n  dup2\n  0x02\n  add\n  exp(0x0100, 0x02)\n  dup2\n  sload\n  dup2\n  0xff\n  mul\n  not\n  and\n  swap1\n  dup4\n  iszero\n  iszero\n  mul\n  or\n  swap1\n  sstore\n  pop\n  pop\n  pop\n  0x20\n  dup3\n  add\n  mload\n  dup2\n  0x03\n  add\n  0x00\n  dup3\n  add\n  mload\n  dup2\n  0x00\n  add\n  swap1\n  dup1\n  mload\n  swap1\n  0x20\n  add\n  swap1\n  tag_6\n  swap3\n  swap2\n  swap1\n  tag_5\n  jump\t// in\ntag_6:\n  pop\n  0x20\n  dup3\n  add\n  mload\n  dup2\n  0x01\n  add\n  sstore\n  0x40\n  dup3\n  add\n  mload\n  dup2\n  0x02\n  add\n  exp(0x0100, 0x00)\n  dup2\n  sload\n  dup2\n  0xff\n  mul\n  not\n  and\n  swap1\n  dup4\n  iszero\n  iszero\n  mul\n  or\n  swap1\n  sstore\n  pop\n  0x60\n  dup3\n  add\n  mload\n  dup2\n  0x02\n  add\n  exp(0x0100, 0x01)\n  dup2\n  sload\n  dup2\n  0xff\n  mul\n  not\n  and\n  swap1\n  dup4\n  iszero\n  iszero\n  mul\n  or\n  swap1\n  sstore\n  pop\n  0x80\n  dup3\n  add\n  mload\n  dup2\n  0x02\n  add\n  exp(0x0100, 0x02)\n  dup2\n  sload\n  dup2\n  0xff\n  mul\n  not\n  and\n  swap1\n  dup4\n  iszero\n  iszero\n  mul\n  or\n  swap1\n  sstore\n  pop\n  pop\n  pop\n  0x40\n  dup3\n  add\n  mload\n  dup2\n  0x06\n  add\n  swap1\n  dup1\n  mload\n  swap1\n  0x20\n  add\n  swap1\n  tag_7\n  swap3\n  swap2\n  swap1\n  tag_5\n  jump\t// in\ntag_7:\n  pop\n  0x60\n  dup3\n  add\n  mload\n  dup2\n  0x07\n  add\n  sstore\n  0x80\n  dup3\n  add\n  mload\n  dup2\n  0x08\n  add\n  exp(0x0100, 0x00)\n  dup2\n  sload\n  dup2\n  0xff\n  mul\n  not\n  and\n  swap1\n  dup4\n  iszero\n  iszero\n  mul\n  or\n  swap1\n  sstore\n  pop\n  swap1\n  pop\n  pop\n    /* \"BattleHandler.sol\":442:652  {\r... */\n  pop\n  pop\n    /* \"BattleHandler.sol\":74:2879  contract BattleHandler {\r... */\n  jump(tag_8)\ntag_5:\n  dup3\n  dup1\n  sload\n  tag_9\n  swap1\n  tag_10\n  jump\t// in\ntag_9:\n  swap1\n  0x00\n  mstore\n  keccak256(0x00, 0x20)\n  swap1\n  0x1f\n  add\n  0x20\n  swap1\n  div\n  dup2\n  add\n  swap3\n  dup3\n  tag_12\n  jumpi\n  0x00\n  dup6\n  sstore\n  jump(tag_11)\ntag_12:\n  dup3\n  0x1f\n  lt\n  tag_13\n  jumpi\n  dup1\n  mload\n  not(0xff)\n  and\n  dup4\n  dup1\n  add\n  or\n  dup6\n  sstore\n  jump(tag_11)\ntag_13:\n  dup3\n  dup1\n  add\n  0x01\n  add\n  dup6\n  sstore\n  dup3\n  iszero\n  tag_11\n  jumpi\n  swap2\n  dup3\n  add\ntag_14:\n  dup3\n  dup2\n  gt\n  iszero\n  tag_15\n  jumpi\n  dup3\n  mload\n  dup3\n  sstore\n  swap2\n  0x20\n  add\n  swap2\n  swap1\n  0x01\n  add\n  swap1\n  jump(tag_14)\ntag_15:\ntag_11:\n  pop\n  swap1\n  pop\n  tag_16\n  swap2\n  swap1\n  tag_17\n  jump\t// in\ntag_16:\n  pop\n  swap1\n  jump\t// out\ntag_17:\ntag_18:\n  dup1\n  dup3\n  gt\n  iszero\n  tag_19\n  jumpi\n  0x00\n  dup2\n  0x00\n  swap1\n  sstore\n  pop\n  0x01\n  add\n  jump(tag_18)\ntag_19:\n  pop\n  swap1\n  jump\t// out\n    /* \"#utility.yul\":7:327   */\ntag_10:\n    /* \"#utility.yul\":51:57   */\n  0x00\n    /* \"#utility.yul\":88:89   */\n  0x02\n    /* \"#utility.yul\":82:86   */\n  dup3\n    /* \"#utility.yul\":78:90   */\n  div\n    /* \"#utility.yul\":68:90   */\n  swap1\n  pop\n    /* \"#utility.yul\":135:136   */\n  0x01\n    /* \"#utility.yul\":129:133   */\n  dup3\n    /* \"#utility.yul\":125:137   */\n  and\n    /* \"#utility.yul\":156:174   */\n  dup1\n    /* \"#utility.yul\":146:227   */\n  tag_22\n  jumpi\n    /* \"#utility.yul\":212:216   */\n  0x7f\n    /* \"#utility.yul\":204:210   */\n  dup3\n    /* \"#utility.yul\":200:217   */\n  and\n    /* \"#utility.yul\":190:217   */\n  swap2\n  pop\n    /* \"#utility.yul\":146:227   */\ntag_22:\n    /* \"#utility.yul\":274:276   */\n  0x20\n    /* \"#utility.yul\":266:272   */\n  dup3\n    /* \"#utility.yul\":263:277   */\n  lt\n    /* \"#utility.yul\":243:261   */\n  dup2\n    /* \"#utility.yul\":240:278   */\n  eq\n    /* \"#utility.yul\":237:321   */\n  iszero\n  tag_23\n  jumpi\n    /* \"#utility.yul\":293:311   */\n  tag_24\n  tag_25\n  jump\t// in\ntag_24:\n    /* \"#utility.yul\":237:321   */\ntag_23:\n    /* \"#utility.yul\":58:327   */\n  pop\n    /* \"#utility.yul\":7:327   */\n  swap2\n  swap1\n  pop\n  jump\t// out\n    /* \"#utility.yul\":333:513   */\ntag_25:\n    /* \"#utility.yul\":381:458   */\n  0x4e487b7100000000000000000000000000000000000000000000000000000000\n    /* \"#utility.yul\":378:379   */\n  0x00\n    /* \"#utility.yul\":371:459   */\n  mstore\n    /* \"#utility.yul\":478:482   */\n  0x22\n    /* \"#utility.yul\":475:476   */\n  0x04\n    /* \"#utility.yul\":468:483   */\n  mstore\n    /* \"#utility.yul\":502:506   */\n  0x24\n    /* \"#utility.yul\":499:500   */\n  0x00\n    /* \"#utility.yul\":492:507   */\n  revert\n    /* \"BattleHandler.sol\":74:2879  contract BattleHandler {\r... */\ntag_8:\n  dataSize(sub_0)\n  dup1\n  dataOffset(sub_0)\n  0x00\n  codecopy\n  0x00\n  return\nstop\n\nsub_0: assembly {\n        /* \"BattleHandler.sol\":74:2879  contract BattleHandler {\r... */\n      mstore(0x40, 0x80)\n      callvalue\n      dup1\n      iszero\n      tag_1\n      jumpi\n      0x00\n      dup1\n      revert\n    tag_1:\n      pop\n      jumpi(tag_2, lt(calldatasize, 0x04))\n      shr(0xe0, calldataload(0x00))\n      dup1\n      0x8e7ea5b2\n      eq\n      tag_3\n      jumpi\n      dup1\n      0xd7aacb3e\n      eq\n      tag_4\n      jumpi\n      dup1\n      0xf711f7ed\n      eq\n      tag_5\n      jumpi\n    tag_2:\n      0x00\n      dup1\n      revert\n        /* \"BattleHandler.sol\":660:817  function getWinner() public view returns(string memory) {\r... */\n    tag_3:\n      tag_6\n      tag_7\n      jump\t// in\n    tag_6:\n      mload(0x40)\n      tag_8\n      swap2\n      swap1\n      tag_9\n      jump\t// in\n    tag_8:\n      mload(0x40)\n      dup1\n      swap2\n      sub\n      swap1\n      return\n        /* \"BattleHandler.sol\":825:913  function getBattle() public view returns(Battle memory) {\r... */\n    tag_4:\n      tag_10\n      tag_11\n      jump\t// in\n    tag_10:\n      mload(0x40)\n      tag_12\n      swap2\n      swap1\n      tag_13\n      jump\t// in\n    tag_12:\n      mload(0x40)\n      dup1\n      swap2\n      sub\n      swap1\n      return\n        /* \"BattleHandler.sol\":921:1779  function takeTurn(uint command, uint cowboyId) public {\r... */\n    tag_5:\n      tag_14\n      0x04\n      dup1\n      calldatasize\n      sub\n      dup2\n      add\n      swap1\n      tag_15\n      swap2\n      swap1\n      tag_16\n      jump\t// in\n    tag_15:\n      tag_17\n      jump\t// in\n    tag_14:\n      stop\n        /* \"BattleHandler.sol\":660:817  function getWinner() public view returns(string memory) {\r... */\n    tag_7:\n        /* \"BattleHandler.sol\":701:714  string memory */\n      0x60\n        /* \"BattleHandler.sol\":735:741  battle */\n      0x00\n        /* \"BattleHandler.sol\":735:750  battle.gameOver */\n      0x08\n      add\n      0x00\n      swap1\n      sload\n      swap1\n      0x0100\n      exp\n      swap1\n      div\n      0xff\n      and\n        /* \"BattleHandler.sol\":727:778  require(battle.gameOver, \"There is no winner yet.\") */\n      tag_19\n      jumpi\n      mload(0x40)\n      0x08c379a000000000000000000000000000000000000000000000000000000000\n      dup2\n      mstore\n      0x04\n      add\n      tag_20\n      swap1\n      tag_21\n      jump\t// in\n    tag_20:\n      mload(0x40)\n      dup1\n      swap2\n      sub\n      swap1\n      revert\n    tag_19:\n        /* \"BattleHandler.sol\":796:802  battle */\n      0x00\n        /* \"BattleHandler.sol\":796:809  battle.winner */\n      0x06\n      add\n        /* \"BattleHandler.sol\":789:809  return battle.winner */\n      dup1\n      sload\n      tag_22\n      swap1\n      tag_23\n      jump\t// in\n    tag_22:\n      dup1\n      0x1f\n      add\n      0x20\n      dup1\n      swap2\n      div\n      mul\n      0x20\n      add\n      mload(0x40)\n      swap1\n      dup2\n      add\n      0x40\n      mstore\n      dup1\n      swap3\n      swap2\n      swap1\n      dup2\n      dup2\n      mstore\n      0x20\n      add\n      dup3\n      dup1\n      sload\n      tag_24\n      swap1\n      tag_23\n      jump\t// in\n    tag_24:\n      dup1\n      iszero\n      tag_25\n      jumpi\n      dup1\n      0x1f\n      lt\n      tag_26\n      jumpi\n      0x0100\n      dup1\n      dup4\n      sload\n      div\n      mul\n      dup4\n      mstore\n      swap2\n      0x20\n      add\n      swap2\n      jump(tag_25)\n    tag_26:\n      dup3\n      add\n      swap2\n      swap1\n      0x00\n      mstore\n      keccak256(0x00, 0x20)\n      swap1\n    tag_27:\n      dup2\n      sload\n      dup2\n      mstore\n      swap1\n      0x01\n      add\n      swap1\n      0x20\n      add\n      dup1\n      dup4\n      gt\n      tag_27\n      jumpi\n      dup3\n      swap1\n      sub\n      0x1f\n      and\n      dup3\n      add\n      swap2\n    tag_25:\n      pop\n      pop\n      pop\n      pop\n      pop\n      swap1\n      pop\n        /* \"BattleHandler.sol\":660:817  function getWinner() public view returns(string memory) {\r... */\n      swap1\n      jump\t// out\n        /* \"BattleHandler.sol\":825:913  function getBattle() public view returns(Battle memory) {\r... */\n    tag_11:\n        /* \"BattleHandler.sol\":866:879  Battle memory */\n      tag_28\n      tag_29\n      jump\t// in\n    tag_28:\n        /* \"BattleHandler.sol\":899:905  battle */\n      0x00\n        /* \"BattleHandler.sol\":892:905  return battle */\n      mload(0x40)\n      dup1\n      0xa0\n      add\n      0x40\n      mstore\n      swap1\n      dup2\n      0x00\n      dup3\n      add\n      mload(0x40)\n      dup1\n      0xa0\n      add\n      0x40\n      mstore\n      swap1\n      dup2\n      0x00\n      dup3\n      add\n      dup1\n      sload\n      tag_31\n      swap1\n      tag_23\n      jump\t// in\n    tag_31:\n      dup1\n      0x1f\n      add\n      0x20\n      dup1\n      swap2\n      div\n      mul\n      0x20\n      add\n      mload(0x40)\n      swap1\n      dup2\n      add\n      0x40\n      mstore\n      dup1\n      swap3\n      swap2\n      swap1\n      dup2\n      dup2\n      mstore\n      0x20\n      add\n      dup3\n      dup1\n      sload\n      tag_32\n      swap1\n      tag_23\n      jump\t// in\n    tag_32:\n      dup1\n      iszero\n      tag_33\n      jumpi\n      dup1\n      0x1f\n      lt\n      tag_34\n      jumpi\n      0x0100\n      dup1\n      dup4\n      sload\n      div\n      mul\n      dup4\n      mstore\n      swap2\n      0x20\n      add\n      swap2\n      jump(tag_33)\n    tag_34:\n      dup3\n      add\n      swap2\n      swap1\n      0x00\n      mstore\n      keccak256(0x00, 0x20)\n      swap1\n    tag_35:\n      dup2\n      sload\n      dup2\n      mstore\n      swap1\n      0x01\n      add\n      swap1\n      0x20\n      add\n      dup1\n      dup4\n      gt\n      tag_35\n      jumpi\n      dup3\n      swap1\n      sub\n      0x1f\n      and\n      dup3\n      add\n      swap2\n    tag_33:\n      pop\n      pop\n      pop\n      pop\n      pop\n      dup2\n      mstore\n      0x20\n      add\n      0x01\n      dup3\n      add\n      sload\n      dup2\n      mstore\n      0x20\n      add\n      0x02\n      dup3\n      add\n      0x00\n      swap1\n      sload\n      swap1\n      0x0100\n      exp\n      swap1\n      div\n      0xff\n      and\n      iszero\n      iszero\n      iszero\n      iszero\n      dup2\n      mstore\n      0x20\n      add\n      0x02\n      dup3\n      add\n      0x01\n      swap1\n      sload\n      swap1\n      0x0100\n      exp\n      swap1\n      div\n      0xff\n      and\n      iszero\n      iszero\n      iszero\n      iszero\n      dup2\n      mstore\n      0x20\n      add\n      0x02\n      dup3\n      add\n      0x02\n      swap1\n      sload\n      swap1\n      0x0100\n      exp\n      swap1\n      div\n      0xff\n      and\n      iszero\n      iszero\n      iszero\n      iszero\n      dup2\n      mstore\n      pop\n      pop\n      dup2\n      mstore\n      0x20\n      add\n      0x03\n      dup3\n      add\n      mload(0x40)\n      dup1\n      0xa0\n      add\n      0x40\n      mstore\n      swap1\n      dup2\n      0x00\n      dup3\n      add\n      dup1\n      sload\n      tag_36\n      swap1\n      tag_23\n      jump\t// in\n    tag_36:\n      dup1\n      0x1f\n      add\n      0x20\n      dup1\n      swap2\n      div\n      mul\n      0x20\n      add\n      mload(0x40)\n      swap1\n      dup2\n      add\n      0x40\n      mstore\n      dup1\n      swap3\n      swap2\n      swap1\n      dup2\n      dup2\n      mstore\n      0x20\n      add\n      dup3\n      dup1\n      sload\n      tag_37\n      swap1\n      tag_23\n      jump\t// in\n    tag_37:\n      dup1\n      iszero\n      tag_38\n      jumpi\n      dup1\n      0x1f\n      lt\n      tag_39\n      jumpi\n      0x0100\n      dup1\n      dup4\n      sload\n      div\n      mul\n      dup4\n      mstore\n      swap2\n      0x20\n      add\n      swap2\n      jump(tag_38)\n    tag_39:\n      dup3\n      add\n      swap2\n      swap1\n      0x00\n      mstore\n      keccak256(0x00, 0x20)\n      swap1\n    tag_40:\n      dup2\n      sload\n      dup2\n      mstore\n      swap1\n      0x01\n      add\n      swap1\n      0x20\n      add\n      dup1\n      dup4\n      gt\n      tag_40\n      jumpi\n      dup3\n      swap1\n      sub\n      0x1f\n      and\n      dup3\n      add\n      swap2\n    tag_38:\n      pop\n      pop\n      pop\n      pop\n      pop\n      dup2\n      mstore\n      0x20\n      add\n      0x01\n      dup3\n      add\n      sload\n      dup2\n      mstore\n      0x20\n      add\n      0x02\n      dup3\n      add\n      0x00\n      swap1\n      sload\n      swap1\n      0x0100\n      exp\n      swap1\n      div\n      0xff\n      and\n      iszero\n      iszero\n      iszero\n      iszero\n      dup2\n      mstore\n      0x20\n      add\n      0x02\n      dup3\n      add\n      0x01\n      swap1\n      sload\n      swap1\n      0x0100\n      exp\n      swap1\n      div\n      0xff\n      and\n      iszero\n      iszero\n      iszero\n      iszero\n      dup2\n      mstore\n      0x20\n      add\n      0x02\n      dup3\n      add\n      0x02\n      swap1\n      sload\n      swap1\n      0x0100\n      exp\n      swap1\n      div\n      0xff\n      and\n      iszero\n      iszero\n      iszero\n      iszero\n      dup2\n      mstore\n      pop\n      pop\n      dup2\n      mstore\n      0x20\n      add\n      0x06\n      dup3\n      add\n      dup1\n      sload\n      tag_41\n      swap1\n      tag_23\n      jump\t// in\n    tag_41:\n      dup1\n      0x1f\n      add\n      0x20\n      dup1\n      swap2\n      div\n      mul\n      0x20\n      add\n      mload(0x40)\n      swap1\n      dup2\n      add\n      0x40\n      mstore\n      dup1\n      swap3\n      swap2\n      swap1\n      dup2\n      dup2\n      mstore\n      0x20\n      add\n      dup3\n      dup1\n      sload\n      tag_42\n      swap1\n      tag_23\n      jump\t// in\n    tag_42:\n      dup1\n      iszero\n      tag_43\n      jumpi\n      dup1\n      0x1f\n      lt\n      tag_44\n      jumpi\n      0x0100\n      dup1\n      dup4\n      sload\n      div\n      mul\n      dup4\n      mstore\n      swap2\n      0x20\n      add\n      swap2\n      jump(tag_43)\n    tag_44:\n      dup3\n      add\n      swap2\n      swap1\n      0x00\n      mstore\n      keccak256(0x00, 0x20)\n      swap1\n    tag_45:\n      dup2\n      sload\n      dup2\n      mstore\n      swap1\n      0x01\n      add\n      swap1\n      0x20\n      add\n      dup1\n      dup4\n      gt\n      tag_45\n      jumpi\n      dup3\n      swap1\n      sub\n      0x1f\n      and\n      dup3\n      add\n      swap2\n    tag_43:\n      pop\n      pop\n      pop\n      pop\n      pop\n      dup2\n      mstore\n      0x20\n      add\n      0x07\n      dup3\n      add\n      sload\n      dup2\n      mstore\n      0x20\n      add\n      0x08\n      dup3\n      add\n      0x00\n      swap1\n      sload\n      swap1\n      0x0100\n      exp\n      swap1\n      div\n      0xff\n      and\n      iszero\n      iszero\n      iszero\n      iszero\n      dup2\n      mstore\n      pop\n      pop\n      swap1\n      pop\n        /* \"BattleHandler.sol\":825:913  function getBattle() public view returns(Battle memory) {\r... */\n      swap1\n      jump\t// out\n        /* \"BattleHandler.sol\":921:1779  function takeTurn(uint command, uint cowboyId) public {\r... */\n    tag_17:\n        /* \"BattleHandler.sol\":995:1001  battle */\n      0x00\n        /* \"BattleHandler.sol\":995:1010  battle.gameOver */\n      0x08\n      add\n      0x00\n      swap1\n      sload\n      swap1\n      0x0100\n      exp\n      swap1\n      div\n      0xff\n      and\n        /* \"BattleHandler.sol\":994:1010  !battle.gameOver */\n      iszero\n        /* \"BattleHandler.sol\":986:1061  require(!battle.gameOver, \"The game is over your cowboy can't take turns.\") */\n      tag_47\n      jumpi\n      mload(0x40)\n      0x08c379a000000000000000000000000000000000000000000000000000000000\n      dup2\n      mstore\n      0x04\n      add\n      tag_48\n      swap1\n      tag_49\n      jump\t// in\n    tag_48:\n      mload(0x40)\n      dup1\n      swap2\n      sub\n      swap1\n      revert\n    tag_47:\n        /* \"BattleHandler.sol\":1072:1093  Cowboy storage cowboy */\n      0x00\n        /* \"BattleHandler.sol\":1120:1121  1 */\n      0x01\n        /* \"BattleHandler.sol\":1108:1116  cowboyId */\n      dup3\n        /* \"BattleHandler.sol\":1108:1121  cowboyId == 1 */\n      eq\n        /* \"BattleHandler.sol\":1104:1228  if (cowboyId == 1){\r... */\n      iszero\n      tag_50\n      jumpi\n        /* \"BattleHandler.sol\":1146:1152  battle */\n      0x00\n        /* \"BattleHandler.sol\":1146:1160  battle.cowboy1 */\n      dup1\n      add\n        /* \"BattleHandler.sol\":1137:1160  cowboy = battle.cowboy1 */\n      swap1\n      pop\n        /* \"BattleHandler.sol\":1104:1228  if (cowboyId == 1){\r... */\n      jump(tag_51)\n    tag_50:\n        /* \"BattleHandler.sol\":1202:1208  battle */\n      0x00\n        /* \"BattleHandler.sol\":1202:1216  battle.cowboy2 */\n      0x03\n      add\n        /* \"BattleHandler.sol\":1193:1216  cowboy = battle.cowboy2 */\n      swap1\n      pop\n        /* \"BattleHandler.sol\":1104:1228  if (cowboyId == 1){\r... */\n    tag_51:\n        /* \"BattleHandler.sol\":1247:1253  cowboy */\n      dup1\n        /* \"BattleHandler.sol\":1247:1263  cowboy.takenTurn */\n      0x02\n      add\n      0x00\n      swap1\n      sload\n      swap1\n      0x0100\n      exp\n      swap1\n      div\n      0xff\n      and\n        /* \"BattleHandler.sol\":1246:1263  !cowboy.takenTurn */\n      iszero\n        /* \"BattleHandler.sol\":1238:1308  require(!cowboy.takenTurn, \"Cowboy has already taken turn this round\") */\n      tag_52\n      jumpi\n      mload(0x40)\n      0x08c379a000000000000000000000000000000000000000000000000000000000\n      dup2\n      mstore\n      0x04\n      add\n      tag_53\n      swap1\n      tag_54\n      jump\t// in\n    tag_53:\n      mload(0x40)\n      dup1\n      swap2\n      sub\n      swap1\n      revert\n    tag_52:\n        /* \"BattleHandler.sol\":1336:1337  0 */\n      0x00\n        /* \"BattleHandler.sol\":1325:1332  command */\n      dup4\n        /* \"BattleHandler.sol\":1325:1337  command == 0 */\n      eq\n        /* \"BattleHandler.sol\":1321:1548  if (command == 0) {\r... */\n      iszero\n      tag_55\n      jumpi\n        /* \"BattleHandler.sol\":1354:1368  reload(cowboy) */\n      tag_56\n        /* \"BattleHandler.sol\":1361:1367  cowboy */\n      dup2\n        /* \"BattleHandler.sol\":1354:1360  reload */\n      tag_57\n        /* \"BattleHandler.sol\":1354:1368  reload(cowboy) */\n      jump\t// in\n    tag_56:\n        /* \"BattleHandler.sol\":1321:1548  if (command == 0) {\r... */\n      jump(tag_58)\n    tag_55:\n        /* \"BattleHandler.sol\":1401:1402  1 */\n      0x01\n        /* \"BattleHandler.sol\":1390:1397  command */\n      dup4\n        /* \"BattleHandler.sol\":1390:1402  command == 1 */\n      eq\n        /* \"BattleHandler.sol\":1386:1548  if (command == 1) {\r... */\n      iszero\n      tag_59\n      jumpi\n        /* \"BattleHandler.sol\":1419:1432  shoot(cowboy) */\n      tag_60\n        /* \"BattleHandler.sol\":1425:1431  cowboy */\n      dup2\n        /* \"BattleHandler.sol\":1419:1424  shoot */\n      tag_61\n        /* \"BattleHandler.sol\":1419:1432  shoot(cowboy) */\n      jump\t// in\n    tag_60:\n        /* \"BattleHandler.sol\":1386:1548  if (command == 1) {\r... */\n      jump(tag_62)\n    tag_59:\n        /* \"BattleHandler.sol\":1465:1466  2 */\n      0x02\n        /* \"BattleHandler.sol\":1454:1461  command */\n      dup4\n        /* \"BattleHandler.sol\":1454:1466  command == 2 */\n      eq\n        /* \"BattleHandler.sol\":1450:1548  if (command == 2) {\r... */\n      iszero\n      tag_63\n      jumpi\n        /* \"BattleHandler.sol\":1483:1496  dodge(cowboy) */\n      tag_64\n        /* \"BattleHandler.sol\":1489:1495  cowboy */\n      dup2\n        /* \"BattleHandler.sol\":1483:1488  dodge */\n      tag_65\n        /* \"BattleHandler.sol\":1483:1496  dodge(cowboy) */\n      jump\t// in\n    tag_64:\n        /* \"BattleHandler.sol\":1450:1548  if (command == 2) {\r... */\n      jump(tag_66)\n    tag_63:\n    tag_66:\n        /* \"BattleHandler.sol\":1386:1548  if (command == 1) {\r... */\n    tag_62:\n        /* \"BattleHandler.sol\":1321:1548  if (command == 0) {\r... */\n    tag_58:\n        /* \"BattleHandler.sol\":1577:1581  true */\n      0x01\n        /* \"BattleHandler.sol\":1558:1564  cowboy */\n      dup2\n        /* \"BattleHandler.sol\":1558:1574  cowboy.takenTurn */\n      0x02\n      add\n      0x00\n        /* \"BattleHandler.sol\":1558:1581  cowboy.takenTurn = true */\n      0x0100\n      exp\n      dup2\n      sload\n      dup2\n      0xff\n      mul\n      not\n      and\n      swap1\n      dup4\n      iszero\n      iszero\n      mul\n      or\n      swap1\n      sstore\n      pop\n        /* \"BattleHandler.sol\":1592:1598  battle */\n      0x00\n        /* \"BattleHandler.sol\":1592:1610  battle.turnCounter */\n      0x07\n      add\n      0x00\n        /* \"BattleHandler.sol\":1592:1612  battle.turnCounter++ */\n      dup2\n      sload\n      dup1\n      swap3\n      swap2\n      swap1\n      tag_67\n      swap1\n      tag_68\n      jump\t// in\n    tag_67:\n      swap2\n      swap1\n      pop\n      sstore\n      pop\n        /* \"BattleHandler.sol\":1649:1650  2 */\n      0x02\n        /* \"BattleHandler.sol\":1627:1633  battle */\n      0x00\n        /* \"BattleHandler.sol\":1627:1645  battle.turnCounter */\n      0x07\n      add\n      sload\n        /* \"BattleHandler.sol\":1627:1650  battle.turnCounter == 2 */\n      eq\n        /* \"BattleHandler.sol\":1623:1772  if (battle.turnCounter == 2) {\r... */\n      iszero\n      tag_69\n      jumpi\n        /* \"BattleHandler.sol\":1718:1760  finishTurn(battle.cowboy1, battle.cowboy2) */\n      tag_70\n        /* \"BattleHandler.sol\":1729:1735  battle */\n      0x00\n        /* \"BattleHandler.sol\":1729:1743  battle.cowboy1 */\n      dup1\n      add\n        /* \"BattleHandler.sol\":1745:1751  battle */\n      0x00\n        /* \"BattleHandler.sol\":1745:1759  battle.cowboy2 */\n      0x03\n      add\n        /* \"BattleHandler.sol\":1718:1728  finishTurn */\n      tag_71\n        /* \"BattleHandler.sol\":1718:1760  finishTurn(battle.cowboy1, battle.cowboy2) */\n      jump\t// in\n    tag_70:\n        /* \"BattleHandler.sol\":1623:1772  if (battle.turnCounter == 2) {\r... */\n    tag_69:\n        /* \"BattleHandler.sol\":975:1779  {\r... */\n      pop\n        /* \"BattleHandler.sol\":921:1779  function takeTurn(uint command, uint cowboyId) public {\r... */\n      pop\n      pop\n      jump\t// out\n        /* \"BattleHandler.sol\":2362:2511  function reload(Cowboy storage cowboy) internal {\r... */\n    tag_57:\n        /* \"BattleHandler.sol\":2421:2427  cowboy */\n      dup1\n        /* \"BattleHandler.sol\":2421:2433  cowboy.shots */\n      0x01\n      add\n      0x00\n        /* \"BattleHandler.sol\":2421:2435  cowboy.shots++ */\n      dup2\n      sload\n      dup1\n      swap3\n      swap2\n      swap1\n      tag_73\n      swap1\n      tag_68\n      jump\t// in\n    tag_73:\n      swap2\n      swap1\n      pop\n      sstore\n      pop\n        /* \"BattleHandler.sol\":2465:2469  true */\n      0x01\n        /* \"BattleHandler.sol\":2446:2452  cowboy */\n      dup2\n        /* \"BattleHandler.sol\":2446:2462  cowboy.reloading */\n      0x02\n      add\n      0x01\n        /* \"BattleHandler.sol\":2446:2469  cowboy.reloading = true */\n      0x0100\n      exp\n      dup2\n      sload\n      dup2\n      0xff\n      mul\n      not\n      and\n      swap1\n      dup4\n      iszero\n      iszero\n      mul\n      or\n      swap1\n      sstore\n      pop\n        /* \"BattleHandler.sol\":2498:2503  false */\n      0x00\n        /* \"BattleHandler.sol\":2480:2486  cowboy */\n      dup2\n        /* \"BattleHandler.sol\":2480:2495  cowboy.shooting */\n      0x02\n      add\n      0x02\n        /* \"BattleHandler.sol\":2480:2503  cowboy.shooting = false */\n      0x0100\n      exp\n      dup2\n      sload\n      dup2\n      0xff\n      mul\n      not\n      and\n      swap1\n      dup4\n      iszero\n      iszero\n      mul\n      or\n      swap1\n      sstore\n      pop\n        /* \"BattleHandler.sol\":2362:2511  function reload(Cowboy storage cowboy) internal {\r... */\n      pop\n      jump\t// out\n        /* \"BattleHandler.sol\":2519:2744  function shoot(Cowboy storage cowboy) internal {\r... */\n    tag_61:\n        /* \"BattleHandler.sol\":2601:2602  1 */\n      0x01\n        /* \"BattleHandler.sol\":2585:2591  cowboy */\n      dup2\n        /* \"BattleHandler.sol\":2585:2597  cowboy.shots */\n      0x01\n      add\n      sload\n        /* \"BattleHandler.sol\":2585:2602  cowboy.shots >= 1 */\n      lt\n      iszero\n        /* \"BattleHandler.sol\":2577:2643  require(cowboy.shots >= 1, \"Your cowboy can't shoot without ammo\") */\n      tag_75\n      jumpi\n      mload(0x40)\n      0x08c379a000000000000000000000000000000000000000000000000000000000\n      dup2\n      mstore\n      0x04\n      add\n      tag_76\n      swap1\n      tag_77\n      jump\t// in\n    tag_76:\n      mload(0x40)\n      dup1\n      swap2\n      sub\n      swap1\n      revert\n    tag_75:\n        /* \"BattleHandler.sol\":2654:2660  cowboy */\n      dup1\n        /* \"BattleHandler.sol\":2654:2666  cowboy.shots */\n      0x01\n      add\n      0x00\n        /* \"BattleHandler.sol\":2654:2668  cowboy.shots-- */\n      dup2\n      sload\n      dup1\n      swap3\n      swap2\n      swap1\n      tag_78\n      swap1\n      tag_79\n      jump\t// in\n    tag_78:\n      swap2\n      swap1\n      pop\n      sstore\n      pop\n        /* \"BattleHandler.sol\":2698:2703  false */\n      0x00\n        /* \"BattleHandler.sol\":2679:2685  cowboy */\n      dup2\n        /* \"BattleHandler.sol\":2679:2695  cowboy.reloading */\n      0x02\n      add\n      0x01\n        /* \"BattleHandler.sol\":2679:2703  cowboy.reloading = false */\n      0x0100\n      exp\n      dup2\n      sload\n      dup2\n      0xff\n      mul\n      not\n      and\n      swap1\n      dup4\n      iszero\n      iszero\n      mul\n      or\n      swap1\n      sstore\n      pop\n        /* \"BattleHandler.sol\":2732:2736  true */\n      0x01\n        /* \"BattleHandler.sol\":2714:2720  cowboy */\n      dup2\n        /* \"BattleHandler.sol\":2714:2729  cowboy.shooting */\n      0x02\n      add\n      0x02\n        /* \"BattleHandler.sol\":2714:2736  cowboy.shooting = true */\n      0x0100\n      exp\n      dup2\n      sload\n      dup2\n      0xff\n      mul\n      not\n      and\n      swap1\n      dup4\n      iszero\n      iszero\n      mul\n      or\n      swap1\n      sstore\n      pop\n        /* \"BattleHandler.sol\":2519:2744  function shoot(Cowboy storage cowboy) internal {\r... */\n      pop\n      jump\t// out\n        /* \"BattleHandler.sol\":2752:2876  function dodge(Cowboy storage cowboy) internal {\r... */\n    tag_65:\n        /* \"BattleHandler.sol\":2829:2834  false */\n      0x00\n        /* \"BattleHandler.sol\":2810:2816  cowboy */\n      dup2\n        /* \"BattleHandler.sol\":2810:2826  cowboy.reloading */\n      0x02\n      add\n      0x01\n        /* \"BattleHandler.sol\":2810:2834  cowboy.reloading = false */\n      0x0100\n      exp\n      dup2\n      sload\n      dup2\n      0xff\n      mul\n      not\n      and\n      swap1\n      dup4\n      iszero\n      iszero\n      mul\n      or\n      swap1\n      sstore\n      pop\n        /* \"BattleHandler.sol\":2863:2868  false */\n      0x00\n        /* \"BattleHandler.sol\":2845:2851  cowboy */\n      dup2\n        /* \"BattleHandler.sol\":2845:2860  cowboy.shooting */\n      0x02\n      add\n      0x02\n        /* \"BattleHandler.sol\":2845:2868  cowboy.shooting = false */\n      0x0100\n      exp\n      dup2\n      sload\n      dup2\n      0xff\n      mul\n      not\n      and\n      swap1\n      dup4\n      iszero\n      iszero\n      mul\n      or\n      swap1\n      sstore\n      pop\n        /* \"BattleHandler.sol\":2752:2876  function dodge(Cowboy storage cowboy) internal {\r... */\n      pop\n      jump\t// out\n        /* \"BattleHandler.sol\":1787:2354  function finishTurn(Cowboy storage cowboy1, Cowboy storage cowboy2) internal {\r... */\n    tag_71:\n        /* \"BattleHandler.sol\":1879:1886  cowboy1 */\n      dup2\n        /* \"BattleHandler.sol\":1879:1895  cowboy1.shooting */\n      0x02\n      add\n      0x02\n      swap1\n      sload\n      swap1\n      0x0100\n      exp\n      swap1\n      div\n      0xff\n      and\n        /* \"BattleHandler.sol\":1879:1916  cowboy1.shooting && cowboy2.reloading */\n      dup1\n      iszero\n      tag_82\n      jumpi\n      pop\n        /* \"BattleHandler.sol\":1899:1906  cowboy2 */\n      dup1\n        /* \"BattleHandler.sol\":1899:1916  cowboy2.reloading */\n      0x02\n      add\n      0x01\n      swap1\n      sload\n      swap1\n      0x0100\n      exp\n      swap1\n      div\n      0xff\n      and\n        /* \"BattleHandler.sol\":1879:1916  cowboy1.shooting && cowboy2.reloading */\n    tag_82:\n        /* \"BattleHandler.sol\":1875:2210  if (cowboy1.shooting && cowboy2.reloading) {\r... */\n      iszero\n      tag_83\n      jumpi\n        /* \"BattleHandler.sol\":1979:1986  cowboy1 */\n      dup2\n        /* \"BattleHandler.sol\":1979:1991  cowboy1.name */\n      0x00\n      add\n        /* \"BattleHandler.sol\":1963:1969  battle */\n      0x00\n        /* \"BattleHandler.sol\":1963:1976  battle.winner */\n      0x06\n      add\n        /* \"BattleHandler.sol\":1963:1991  battle.winner = cowboy1.name */\n      swap1\n      dup1\n      sload\n      tag_84\n      swap1\n      tag_23\n      jump\t// in\n    tag_84:\n      tag_85\n      swap3\n      swap2\n      swap1\n      tag_86\n      jump\t// in\n    tag_85:\n      pop\n        /* \"BattleHandler.sol\":2024:2028  true */\n      0x01\n        /* \"BattleHandler.sol\":2006:2012  battle */\n      0x00\n        /* \"BattleHandler.sol\":2006:2021  battle.gameOver */\n      0x08\n      add\n      0x00\n        /* \"BattleHandler.sol\":2006:2028  battle.gameOver = true */\n      0x0100\n      exp\n      dup2\n      sload\n      dup2\n      0xff\n      mul\n      not\n      and\n      swap1\n      dup4\n      iszero\n      iszero\n      mul\n      or\n      swap1\n      sstore\n      pop\n        /* \"BattleHandler.sol\":1875:2210  if (cowboy1.shooting && cowboy2.reloading) {\r... */\n      jump(tag_87)\n    tag_83:\n        /* \"BattleHandler.sol\":2050:2057  cowboy2 */\n      dup1\n        /* \"BattleHandler.sol\":2050:2066  cowboy2.shooting */\n      0x02\n      add\n      0x02\n      swap1\n      sload\n      swap1\n      0x0100\n      exp\n      swap1\n      div\n      0xff\n      and\n        /* \"BattleHandler.sol\":2050:2087  cowboy2.shooting && cowboy1.reloading */\n      dup1\n      iszero\n      tag_88\n      jumpi\n      pop\n        /* \"BattleHandler.sol\":2070:2077  cowboy1 */\n      dup2\n        /* \"BattleHandler.sol\":2070:2087  cowboy1.reloading */\n      0x02\n      add\n      0x01\n      swap1\n      sload\n      swap1\n      0x0100\n      exp\n      swap1\n      div\n      0xff\n      and\n        /* \"BattleHandler.sol\":2050:2087  cowboy2.shooting && cowboy1.reloading */\n    tag_88:\n        /* \"BattleHandler.sol\":2046:2210  if (cowboy2.shooting && cowboy1.reloading){\r... */\n      iszero\n      tag_89\n      jumpi\n        /* \"BattleHandler.sol\":2149:2156  cowboy2 */\n      dup1\n        /* \"BattleHandler.sol\":2149:2161  cowboy2.name */\n      0x00\n      add\n        /* \"BattleHandler.sol\":2133:2139  battle */\n      0x00\n        /* \"BattleHandler.sol\":2133:2146  battle.winner */\n      0x06\n      add\n        /* \"BattleHandler.sol\":2133:2161  battle.winner = cowboy2.name */\n      swap1\n      dup1\n      sload\n      tag_90\n      swap1\n      tag_23\n      jump\t// in\n    tag_90:\n      tag_91\n      swap3\n      swap2\n      swap1\n      tag_86\n      jump\t// in\n    tag_91:\n      pop\n        /* \"BattleHandler.sol\":2194:2198  true */\n      0x01\n        /* \"BattleHandler.sol\":2176:2182  battle */\n      0x00\n        /* \"BattleHandler.sol\":2176:2191  battle.gameOver */\n      0x08\n      add\n      0x00\n        /* \"BattleHandler.sol\":2176:2198  battle.gameOver = true */\n      0x0100\n      exp\n      dup2\n      sload\n      dup2\n      0xff\n      mul\n      not\n      and\n      swap1\n      dup4\n      iszero\n      iszero\n      mul\n      or\n      swap1\n      sstore\n      pop\n        /* \"BattleHandler.sol\":2046:2210  if (cowboy2.shooting && cowboy1.reloading){\r... */\n    tag_89:\n        /* \"BattleHandler.sol\":1875:2210  if (cowboy1.shooting && cowboy2.reloading) {\r... */\n    tag_87:\n        /* \"BattleHandler.sol\":2272:2277  false */\n      0x00\n        /* \"BattleHandler.sol\":2252:2259  cowboy1 */\n      dup3\n        /* \"BattleHandler.sol\":2252:2269  cowboy1.takenTurn */\n      0x02\n      add\n      0x00\n        /* \"BattleHandler.sol\":2252:2277  cowboy1.takenTurn = false */\n      0x0100\n      exp\n      dup2\n      sload\n      dup2\n      0xff\n      mul\n      not\n      and\n      swap1\n      dup4\n      iszero\n      iszero\n      mul\n      or\n      swap1\n      sstore\n      pop\n        /* \"BattleHandler.sol\":2308:2313  false */\n      0x00\n        /* \"BattleHandler.sol\":2288:2295  cowboy2 */\n      dup2\n        /* \"BattleHandler.sol\":2288:2305  cowboy2.takenTurn */\n      0x02\n      add\n      0x00\n        /* \"BattleHandler.sol\":2288:2313  cowboy2.takenTurn = false */\n      0x0100\n      exp\n      dup2\n      sload\n      dup2\n      0xff\n      mul\n      not\n      and\n      swap1\n      dup4\n      iszero\n      iszero\n      mul\n      or\n      swap1\n      sstore\n      pop\n        /* \"BattleHandler.sol\":2345:2346  0 */\n      0x00\n        /* \"BattleHandler.sol\":2324:2330  battle */\n      dup1\n        /* \"BattleHandler.sol\":2324:2342  battle.turnCounter */\n      0x07\n      add\n        /* \"BattleHandler.sol\":2324:2346  battle.turnCounter = 0 */\n      dup2\n      swap1\n      sstore\n      pop\n        /* \"BattleHandler.sol\":1787:2354  function finishTurn(Cowboy storage cowboy1, Cowboy storage cowboy2) internal {\r... */\n      pop\n      pop\n      jump\t// out\n    tag_29:\n      mload(0x40)\n      dup1\n      0xa0\n      add\n      0x40\n      mstore\n      dup1\n      tag_92\n      tag_93\n      jump\t// in\n    tag_92:\n      dup2\n      mstore\n      0x20\n      add\n      tag_94\n      tag_93\n      jump\t// in\n    tag_94:\n      dup2\n      mstore\n      0x20\n      add\n      0x60\n      dup2\n      mstore\n      0x20\n      add\n      0x00\n      dup2\n      mstore\n      0x20\n      add\n      iszero(iszero(0x00))\n      dup2\n      mstore\n      pop\n      swap1\n      jump\t// out\n    tag_86:\n      dup3\n      dup1\n      sload\n      tag_95\n      swap1\n      tag_23\n      jump\t// in\n    tag_95:\n      swap1\n      0x00\n      mstore\n      keccak256(0x00, 0x20)\n      swap1\n      0x1f\n      add\n      0x20\n      swap1\n      div\n      dup2\n      add\n      swap3\n      dup3\n      tag_97\n      jumpi\n      0x00\n      dup6\n      sstore\n      jump(tag_96)\n    tag_97:\n      dup3\n      0x1f\n      lt\n      tag_98\n      jumpi\n      dup1\n      sload\n      dup6\n      sstore\n      jump(tag_96)\n    tag_98:\n      dup3\n      dup1\n      add\n      0x01\n      add\n      dup6\n      sstore\n      dup3\n      iszero\n      tag_96\n      jumpi\n      0x00\n      mstore\n      keccak256(0x00, 0x20)\n      swap2\n      0x1f\n      add\n      0x20\n      swap1\n      div\n      dup3\n      add\n    tag_99:\n      dup3\n      dup2\n      gt\n      iszero\n      tag_100\n      jumpi\n      dup3\n      sload\n      dup3\n      sstore\n      swap2\n      0x01\n      add\n      swap2\n      swap1\n      0x01\n      add\n      swap1\n      jump(tag_99)\n    tag_100:\n    tag_96:\n      pop\n      swap1\n      pop\n      tag_101\n      swap2\n      swap1\n      tag_102\n      jump\t// in\n    tag_101:\n      pop\n      swap1\n      jump\t// out\n    tag_93:\n      mload(0x40)\n      dup1\n      0xa0\n      add\n      0x40\n      mstore\n      dup1\n      0x60\n      dup2\n      mstore\n      0x20\n      add\n      0x00\n      dup2\n      mstore\n      0x20\n      add\n      iszero(iszero(0x00))\n      dup2\n      mstore\n      0x20\n      add\n      iszero(iszero(0x00))\n      dup2\n      mstore\n      0x20\n      add\n      iszero(iszero(0x00))\n      dup2\n      mstore\n      pop\n      swap1\n      jump\t// out\n    tag_102:\n    tag_103:\n      dup1\n      dup3\n      gt\n      iszero\n      tag_104\n      jumpi\n      0x00\n      dup2\n      0x00\n      swap1\n      sstore\n      pop\n      0x01\n      add\n      jump(tag_103)\n    tag_104:\n      pop\n      swap1\n      jump\t// out\n        /* \"#utility.yul\":7:146   */\n    tag_106:\n        /* \"#utility.yul\":53:58   */\n      0x00\n        /* \"#utility.yul\":91:97   */\n      dup2\n        /* \"#utility.yul\":78:98   */\n      calldataload\n        /* \"#utility.yul\":69:98   */\n      swap1\n      pop\n        /* \"#utility.yul\":107:140   */\n      tag_108\n        /* \"#utility.yul\":134:139   */\n      dup2\n        /* \"#utility.yul\":107:140   */\n      tag_109\n      jump\t// in\n    tag_108:\n        /* \"#utility.yul\":7:146   */\n      swap3\n      swap2\n      pop\n      pop\n      jump\t// out\n        /* \"#utility.yul\":152:626   */\n    tag_16:\n        /* \"#utility.yul\":220:226   */\n      0x00\n        /* \"#utility.yul\":228:234   */\n      dup1\n        /* \"#utility.yul\":277:279   */\n      0x40\n        /* \"#utility.yul\":265:274   */\n      dup4\n        /* \"#utility.yul\":256:263   */\n      dup6\n        /* \"#utility.yul\":252:275   */\n      sub\n        /* \"#utility.yul\":248:280   */\n      slt\n        /* \"#utility.yul\":245:364   */\n      iszero\n      tag_111\n      jumpi\n        /* \"#utility.yul\":283:362   */\n      tag_112\n      tag_113\n      jump\t// in\n    tag_112:\n        /* \"#utility.yul\":245:364   */\n    tag_111:\n        /* \"#utility.yul\":403:404   */\n      0x00\n        /* \"#utility.yul\":428:481   */\n      tag_114\n        /* \"#utility.yul\":473:480   */\n      dup6\n        /* \"#utility.yul\":464:470   */\n      dup3\n        /* \"#utility.yul\":453:462   */\n      dup7\n        /* \"#utility.yul\":449:471   */\n      add\n        /* \"#utility.yul\":428:481   */\n      tag_106\n      jump\t// in\n    tag_114:\n        /* \"#utility.yul\":418:481   */\n      swap3\n      pop\n        /* \"#utility.yul\":374:491   */\n      pop\n        /* \"#utility.yul\":530:532   */\n      0x20\n        /* \"#utility.yul\":556:609   */\n      tag_115\n        /* \"#utility.yul\":601:608   */\n      dup6\n        /* \"#utility.yul\":592:598   */\n      dup3\n        /* \"#utility.yul\":581:590   */\n      dup7\n        /* \"#utility.yul\":577:599   */\n      add\n        /* \"#utility.yul\":556:609   */\n      tag_106\n      jump\t// in\n    tag_115:\n        /* \"#utility.yul\":546:609   */\n      swap2\n      pop\n        /* \"#utility.yul\":501:619   */\n      pop\n        /* \"#utility.yul\":152:626   */\n      swap3\n      pop\n      swap3\n      swap1\n      pop\n      jump\t// out\n        /* \"#utility.yul\":632:731   */\n    tag_116:\n        /* \"#utility.yul\":703:724   */\n      tag_118\n        /* \"#utility.yul\":718:723   */\n      dup2\n        /* \"#utility.yul\":703:724   */\n      tag_119\n      jump\t// in\n    tag_118:\n        /* \"#utility.yul\":698:701   */\n      dup3\n        /* \"#utility.yul\":691:725   */\n      mstore\n        /* \"#utility.yul\":632:731   */\n      pop\n      pop\n      jump\t// out\n        /* \"#utility.yul\":737:1081   */\n    tag_120:\n        /* \"#utility.yul\":815:818   */\n      0x00\n        /* \"#utility.yul\":843:882   */\n      tag_122\n        /* \"#utility.yul\":876:881   */\n      dup3\n        /* \"#utility.yul\":843:882   */\n      tag_123\n      jump\t// in\n    tag_122:\n        /* \"#utility.yul\":898:959   */\n      tag_124\n        /* \"#utility.yul\":952:958   */\n      dup2\n        /* \"#utility.yul\":947:950   */\n      dup6\n        /* \"#utility.yul\":898:959   */\n      tag_125\n      jump\t// in\n    tag_124:\n        /* \"#utility.yul\":891:959   */\n      swap4\n      pop\n        /* \"#utility.yul\":968:1020   */\n      tag_126\n        /* \"#utility.yul\":1013:1019   */\n      dup2\n        /* \"#utility.yul\":1008:1011   */\n      dup6\n        /* \"#utility.yul\":1001:1005   */\n      0x20\n        /* \"#utility.yul\":994:999   */\n      dup7\n        /* \"#utility.yul\":990:1006   */\n      add\n        /* \"#utility.yul\":968:1020   */\n      tag_127\n      jump\t// in\n    tag_126:\n        /* \"#utility.yul\":1045:1074   */\n      tag_128\n        /* \"#utility.yul\":1067:1073   */\n      dup2\n        /* \"#utility.yul\":1045:1074   */\n      tag_129\n      jump\t// in\n    tag_128:\n        /* \"#utility.yul\":1040:1043   */\n      dup5\n        /* \"#utility.yul\":1036:1075   */\n      add\n        /* \"#utility.yul\":1029:1075   */\n      swap2\n      pop\n        /* \"#utility.yul\":819:1081   */\n      pop\n        /* \"#utility.yul\":737:1081   */\n      swap3\n      swap2\n      pop\n      pop\n      jump\t// out\n        /* \"#utility.yul\":1087:1451   */\n    tag_130:\n        /* \"#utility.yul\":1175:1178   */\n      0x00\n        /* \"#utility.yul\":1203:1242   */\n      tag_132\n        /* \"#utility.yul\":1236:1241   */\n      dup3\n        /* \"#utility.yul\":1203:1242   */\n      tag_123\n      jump\t// in\n    tag_132:\n        /* \"#utility.yul\":1258:1329   */\n      tag_133\n        /* \"#utility.yul\":1322:1328   */\n      dup2\n        /* \"#utility.yul\":1317:1320   */\n      dup6\n        /* \"#utility.yul\":1258:1329   */\n      tag_134\n      jump\t// in\n    tag_133:\n        /* \"#utility.yul\":1251:1329   */\n      swap4\n      pop\n        /* \"#utility.yul\":1338:1390   */\n      tag_135\n        /* \"#utility.yul\":1383:1389   */\n      dup2\n        /* \"#utility.yul\":1378:1381   */\n      dup6\n        /* \"#utility.yul\":1371:1375   */\n      0x20\n        /* \"#utility.yul\":1364:1369   */\n      dup7\n        /* \"#utility.yul\":1360:1376   */\n      add\n        /* \"#utility.yul\":1338:1390   */\n      tag_127\n      jump\t// in\n    tag_135:\n        /* \"#utility.yul\":1415:1444   */\n      tag_136\n        /* \"#utility.yul\":1437:1443   */\n      dup2\n        /* \"#utility.yul\":1415:1444   */\n      tag_129\n      jump\t// in\n    tag_136:\n        /* \"#utility.yul\":1410:1413   */\n      dup5\n        /* \"#utility.yul\":1406:1445   */\n      add\n        /* \"#utility.yul\":1399:1445   */\n      swap2\n      pop\n        /* \"#utility.yul\":1179:1451   */\n      pop\n        /* \"#utility.yul\":1087:1451   */\n      swap3\n      swap2\n      pop\n      pop\n      jump\t// out\n        /* \"#utility.yul\":1457:1823   */\n    tag_137:\n        /* \"#utility.yul\":1599:1602   */\n      0x00\n        /* \"#utility.yul\":1620:1687   */\n      tag_139\n        /* \"#utility.yul\":1684:1686   */\n      0x28\n        /* \"#utility.yul\":1679:1682   */\n      dup4\n        /* \"#utility.yul\":1620:1687   */\n      tag_134\n      jump\t// in\n    tag_139:\n        /* \"#utility.yul\":1613:1687   */\n      swap2\n      pop\n        /* \"#utility.yul\":1696:1789   */\n      tag_140\n        /* \"#utility.yul\":1785:1788   */\n      dup3\n        /* \"#utility.yul\":1696:1789   */\n      tag_141\n      jump\t// in\n    tag_140:\n        /* \"#utility.yul\":1814:1816   */\n      0x40\n        /* \"#utility.yul\":1809:1812   */\n      dup3\n        /* \"#utility.yul\":1805:1817   */\n      add\n        /* \"#utility.yul\":1798:1817   */\n      swap1\n      pop\n        /* \"#utility.yul\":1457:1823   */\n      swap2\n      swap1\n      pop\n      jump\t// out\n        /* \"#utility.yul\":1829:2195   */\n    tag_142:\n        /* \"#utility.yul\":1971:1974   */\n      0x00\n        /* \"#utility.yul\":1992:2059   */\n      tag_144\n        /* \"#utility.yul\":2056:2058   */\n      0x2e\n        /* \"#utility.yul\":2051:2054   */\n      dup4\n        /* \"#utility.yul\":1992:2059   */\n      tag_134\n      jump\t// in\n    tag_144:\n        /* \"#utility.yul\":1985:2059   */\n      swap2\n      pop\n        /* \"#utility.yul\":2068:2161   */\n      tag_145\n        /* \"#utility.yul\":2157:2160   */\n      dup3\n        /* \"#utility.yul\":2068:2161   */\n      tag_146\n      jump\t// in\n    tag_145:\n        /* \"#utility.yul\":2186:2188   */\n      0x40\n        /* \"#utility.yul\":2181:2184   */\n      dup3\n        /* \"#utility.yul\":2177:2189   */\n      add\n        /* \"#utility.yul\":2170:2189   */\n      swap1\n      pop\n        /* \"#utility.yul\":1829:2195   */\n      swap2\n      swap1\n      pop\n      jump\t// out\n        /* \"#utility.yul\":2201:2567   */\n    tag_147:\n        /* \"#utility.yul\":2343:2346   */\n      0x00\n        /* \"#utility.yul\":2364:2431   */\n      tag_149\n        /* \"#utility.yul\":2428:2430   */\n      0x17\n        /* \"#utility.yul\":2423:2426   */\n      dup4\n        /* \"#utility.yul\":2364:2431   */\n      tag_134\n      jump\t// in\n    tag_149:\n        /* \"#utility.yul\":2357:2431   */\n      swap2\n      pop\n        /* \"#utility.yul\":2440:2533   */\n      tag_150\n        /* \"#utility.yul\":2529:2532   */\n      dup3\n        /* \"#utility.yul\":2440:2533   */\n      tag_151\n      jump\t// in\n    tag_150:\n        /* \"#utility.yul\":2558:2560   */\n      0x20\n        /* \"#utility.yul\":2553:2556   */\n      dup3\n        /* \"#utility.yul\":2549:2561   */\n      add\n        /* \"#utility.yul\":2542:2561   */\n      swap1\n      pop\n        /* \"#utility.yul\":2201:2567   */\n      swap2\n      swap1\n      pop\n      jump\t// out\n        /* \"#utility.yul\":2573:2939   */\n    tag_152:\n        /* \"#utility.yul\":2715:2718   */\n      0x00\n        /* \"#utility.yul\":2736:2803   */\n      tag_154\n        /* \"#utility.yul\":2800:2802   */\n      0x24\n        /* \"#utility.yul\":2795:2798   */\n      dup4\n        /* \"#utility.yul\":2736:2803   */\n      tag_134\n      jump\t// in\n    tag_154:\n        /* \"#utility.yul\":2729:2803   */\n      swap2\n      pop\n        /* \"#utility.yul\":2812:2905   */\n      tag_155\n        /* \"#utility.yul\":2901:2904   */\n      dup3\n        /* \"#utility.yul\":2812:2905   */\n      tag_156\n      jump\t// in\n    tag_155:\n        /* \"#utility.yul\":2930:2932   */\n      0x40\n        /* \"#utility.yul\":2925:2928   */\n      dup3\n        /* \"#utility.yul\":2921:2933   */\n      add\n        /* \"#utility.yul\":2914:2933   */\n      swap1\n      pop\n        /* \"#utility.yul\":2573:2939   */\n      swap2\n      swap1\n      pop\n      jump\t// out\n        /* \"#utility.yul\":3011:4336   */\n    tag_157:\n        /* \"#utility.yul\":3124:3127   */\n      0x00\n        /* \"#utility.yul\":3160:3164   */\n      0xa0\n        /* \"#utility.yul\":3155:3158   */\n      dup4\n        /* \"#utility.yul\":3151:3165   */\n      add\n        /* \"#utility.yul\":3250:3254   */\n      0x00\n        /* \"#utility.yul\":3243:3248   */\n      dup4\n        /* \"#utility.yul\":3239:3255   */\n      add\n        /* \"#utility.yul\":3233:3256   */\n      mload\n        /* \"#utility.yul\":3303:3306   */\n      dup5\n        /* \"#utility.yul\":3297:3301   */\n      dup3\n        /* \"#utility.yul\":3293:3307   */\n      sub\n        /* \"#utility.yul\":3286:3290   */\n      0x00\n        /* \"#utility.yul\":3281:3284   */\n      dup7\n        /* \"#utility.yul\":3277:3291   */\n      add\n        /* \"#utility.yul\":3270:3308   */\n      mstore\n        /* \"#utility.yul\":3329:3426   */\n      tag_159\n        /* \"#utility.yul\":3421:3425   */\n      dup3\n        /* \"#utility.yul\":3407:3419   */\n      dup3\n        /* \"#utility.yul\":3329:3426   */\n      tag_160\n      jump\t// in\n    tag_159:\n        /* \"#utility.yul\":3321:3426   */\n      swap2\n      pop\n        /* \"#utility.yul\":3175:3437   */\n      pop\n        /* \"#utility.yul\":3522:3526   */\n      0x20\n        /* \"#utility.yul\":3515:3520   */\n      dup4\n        /* \"#utility.yul\":3511:3527   */\n      add\n        /* \"#utility.yul\":3505:3528   */\n      mload\n        /* \"#utility.yul\":3575:3578   */\n      dup5\n        /* \"#utility.yul\":3569:3573   */\n      dup3\n        /* \"#utility.yul\":3565:3579   */\n      sub\n        /* \"#utility.yul\":3558:3562   */\n      0x20\n        /* \"#utility.yul\":3553:3556   */\n      dup7\n        /* \"#utility.yul\":3549:3563   */\n      add\n        /* \"#utility.yul\":3542:3580   */\n      mstore\n        /* \"#utility.yul\":3601:3698   */\n      tag_161\n        /* \"#utility.yul\":3693:3697   */\n      dup3\n        /* \"#utility.yul\":3679:3691   */\n      dup3\n        /* \"#utility.yul\":3601:3698   */\n      tag_160\n      jump\t// in\n    tag_161:\n        /* \"#utility.yul\":3593:3698   */\n      swap2\n      pop\n        /* \"#utility.yul\":3447:3709   */\n      pop\n        /* \"#utility.yul\":3793:3797   */\n      0x40\n        /* \"#utility.yul\":3786:3791   */\n      dup4\n        /* \"#utility.yul\":3782:3798   */\n      add\n        /* \"#utility.yul\":3776:3799   */\n      mload\n        /* \"#utility.yul\":3846:3849   */\n      dup5\n        /* \"#utility.yul\":3840:3844   */\n      dup3\n        /* \"#utility.yul\":3836:3850   */\n      sub\n        /* \"#utility.yul\":3829:3833   */\n      0x40\n        /* \"#utility.yul\":3824:3827   */\n      dup7\n        /* \"#utility.yul\":3820:3834   */\n      add\n        /* \"#utility.yul\":3813:3851   */\n      mstore\n        /* \"#utility.yul\":3872:3945   */\n      tag_162\n        /* \"#utility.yul\":3940:3944   */\n      dup3\n        /* \"#utility.yul\":3926:3938   */\n      dup3\n        /* \"#utility.yul\":3872:3945   */\n      tag_120\n      jump\t// in\n    tag_162:\n        /* \"#utility.yul\":3864:3945   */\n      swap2\n      pop\n        /* \"#utility.yul\":3719:3956   */\n      pop\n        /* \"#utility.yul\":4045:4049   */\n      0x60\n        /* \"#utility.yul\":4038:4043   */\n      dup4\n        /* \"#utility.yul\":4034:4050   */\n      add\n        /* \"#utility.yul\":4028:4051   */\n      mload\n        /* \"#utility.yul\":4064:4127   */\n      tag_163\n        /* \"#utility.yul\":4121:4125   */\n      0x60\n        /* \"#utility.yul\":4116:4119   */\n      dup7\n        /* \"#utility.yul\":4112:4126   */\n      add\n        /* \"#utility.yul\":4098:4110   */\n      dup3\n        /* \"#utility.yul\":4064:4127   */\n      tag_164\n      jump\t// in\n    tag_163:\n        /* \"#utility.yul\":3966:4137   */\n      pop\n        /* \"#utility.yul\":4223:4227   */\n      0x80\n        /* \"#utility.yul\":4216:4221   */\n      dup4\n        /* \"#utility.yul\":4212:4228   */\n      add\n        /* \"#utility.yul\":4206:4229   */\n      mload\n        /* \"#utility.yul\":4242:4299   */\n      tag_165\n        /* \"#utility.yul\":4293:4297   */\n      0x80\n        /* \"#utility.yul\":4288:4291   */\n      dup7\n        /* \"#utility.yul\":4284:4298   */\n      add\n        /* \"#utility.yul\":4270:4282   */\n      dup3\n        /* \"#utility.yul\":4242:4299   */\n      tag_116\n      jump\t// in\n    tag_165:\n        /* \"#utility.yul\":4147:4309   */\n      pop\n        /* \"#utility.yul\":4326:4330   */\n      dup1\n        /* \"#utility.yul\":4319:4330   */\n      swap2\n      pop\n        /* \"#utility.yul\":3129:4336   */\n      pop\n        /* \"#utility.yul\":3011:4336   */\n      swap3\n      swap2\n      pop\n      pop\n      jump\t// out\n        /* \"#utility.yul\":4408:5517   */\n    tag_160:\n        /* \"#utility.yul\":4511:4514   */\n      0x00\n        /* \"#utility.yul\":4547:4551   */\n      0xa0\n        /* \"#utility.yul\":4542:4545   */\n      dup4\n        /* \"#utility.yul\":4538:4552   */\n      add\n        /* \"#utility.yul\":4634:4638   */\n      0x00\n        /* \"#utility.yul\":4627:4632   */\n      dup4\n        /* \"#utility.yul\":4623:4639   */\n      add\n        /* \"#utility.yul\":4617:4640   */\n      mload\n        /* \"#utility.yul\":4687:4690   */\n      dup5\n        /* \"#utility.yul\":4681:4685   */\n      dup3\n        /* \"#utility.yul\":4677:4691   */\n      sub\n        /* \"#utility.yul\":4670:4674   */\n      0x00\n        /* \"#utility.yul\":4665:4668   */\n      dup7\n        /* \"#utility.yul\":4661:4675   */\n      add\n        /* \"#utility.yul\":4654:4692   */\n      mstore\n        /* \"#utility.yul\":4713:4786   */\n      tag_167\n        /* \"#utility.yul\":4781:4785   */\n      dup3\n        /* \"#utility.yul\":4767:4779   */\n      dup3\n        /* \"#utility.yul\":4713:4786   */\n      tag_120\n      jump\t// in\n    tag_167:\n        /* \"#utility.yul\":4705:4786   */\n      swap2\n      pop\n        /* \"#utility.yul\":4562:4797   */\n      pop\n        /* \"#utility.yul\":4880:4884   */\n      0x20\n        /* \"#utility.yul\":4873:4878   */\n      dup4\n        /* \"#utility.yul\":4869:4885   */\n      add\n        /* \"#utility.yul\":4863:4886   */\n      mload\n        /* \"#utility.yul\":4899:4962   */\n      tag_168\n        /* \"#utility.yul\":4956:4960   */\n      0x20\n        /* \"#utility.yul\":4951:4954   */\n      dup7\n        /* \"#utility.yul\":4947:4961   */\n      add\n        /* \"#utility.yul\":4933:4945   */\n      dup3\n        /* \"#utility.yul\":4899:4962   */\n      tag_164\n      jump\t// in\n    tag_168:\n        /* \"#utility.yul\":4807:4972   */\n      pop\n        /* \"#utility.yul\":5059:5063   */\n      0x40\n        /* \"#utility.yul\":5052:5057   */\n      dup4\n        /* \"#utility.yul\":5048:5064   */\n      add\n        /* \"#utility.yul\":5042:5065   */\n      mload\n        /* \"#utility.yul\":5078:5135   */\n      tag_169\n        /* \"#utility.yul\":5129:5133   */\n      0x40\n        /* \"#utility.yul\":5124:5127   */\n      dup7\n        /* \"#utility.yul\":5120:5134   */\n      add\n        /* \"#utility.yul\":5106:5118   */\n      dup3\n        /* \"#utility.yul\":5078:5135   */\n      tag_116\n      jump\t// in\n    tag_169:\n        /* \"#utility.yul\":4982:5145   */\n      pop\n        /* \"#utility.yul\":5232:5236   */\n      0x60\n        /* \"#utility.yul\":5225:5230   */\n      dup4\n        /* \"#utility.yul\":5221:5237   */\n      add\n        /* \"#utility.yul\":5215:5238   */\n      mload\n        /* \"#utility.yul\":5251:5308   */\n      tag_170\n        /* \"#utility.yul\":5302:5306   */\n      0x60\n        /* \"#utility.yul\":5297:5300   */\n      dup7\n        /* \"#utility.yul\":5293:5307   */\n      add\n        /* \"#utility.yul\":5279:5291   */\n      dup3\n        /* \"#utility.yul\":5251:5308   */\n      tag_116\n      jump\t// in\n    tag_170:\n        /* \"#utility.yul\":5155:5318   */\n      pop\n        /* \"#utility.yul\":5404:5408   */\n      0x80\n        /* \"#utility.yul\":5397:5402   */\n      dup4\n        /* \"#utility.yul\":5393:5409   */\n      add\n        /* \"#utility.yul\":5387:5410   */\n      mload\n        /* \"#utility.yul\":5423:5480   */\n      tag_171\n        /* \"#utility.yul\":5474:5478   */\n      0x80\n        /* \"#utility.yul\":5469:5472   */\n      dup7\n        /* \"#utility.yul\":5465:5479   */\n      add\n        /* \"#utility.yul\":5451:5463   */\n      dup3\n        /* \"#utility.yul\":5423:5480   */\n      tag_116\n      jump\t// in\n    tag_171:\n        /* \"#utility.yul\":5328:5490   */\n      pop\n        /* \"#utility.yul\":5507:5511   */\n      dup1\n        /* \"#utility.yul\":5500:5511   */\n      swap2\n      pop\n        /* \"#utility.yul\":4516:5517   */\n      pop\n        /* \"#utility.yul\":4408:5517   */\n      swap3\n      swap2\n      pop\n      pop\n      jump\t// out\n        /* \"#utility.yul\":5523:5631   */\n    tag_164:\n        /* \"#utility.yul\":5600:5624   */\n      tag_173\n        /* \"#utility.yul\":5618:5623   */\n      dup2\n        /* \"#utility.yul\":5600:5624   */\n      tag_174\n      jump\t// in\n    tag_173:\n        /* \"#utility.yul\":5595:5598   */\n      dup3\n        /* \"#utility.yul\":5588:5625   */\n      mstore\n        /* \"#utility.yul\":5523:5631   */\n      pop\n      pop\n      jump\t// out\n        /* \"#utility.yul\":5637:5950   */\n    tag_9:\n        /* \"#utility.yul\":5750:5754   */\n      0x00\n        /* \"#utility.yul\":5788:5790   */\n      0x20\n        /* \"#utility.yul\":5777:5786   */\n      dup3\n        /* \"#utility.yul\":5773:5791   */\n      add\n        /* \"#utility.yul\":5765:5791   */\n      swap1\n      pop\n        /* \"#utility.yul\":5837:5846   */\n      dup2\n        /* \"#utility.yul\":5831:5835   */\n      dup2\n        /* \"#utility.yul\":5827:5847   */\n      sub\n        /* \"#utility.yul\":5823:5824   */\n      0x00\n        /* \"#utility.yul\":5812:5821   */\n      dup4\n        /* \"#utility.yul\":5808:5825   */\n      add\n        /* \"#utility.yul\":5801:5848   */\n      mstore\n        /* \"#utility.yul\":5865:5943   */\n      tag_176\n        /* \"#utility.yul\":5938:5942   */\n      dup2\n        /* \"#utility.yul\":5929:5935   */\n      dup5\n        /* \"#utility.yul\":5865:5943   */\n      tag_130\n      jump\t// in\n    tag_176:\n        /* \"#utility.yul\":5857:5943   */\n      swap1\n      pop\n        /* \"#utility.yul\":5637:5950   */\n      swap3\n      swap2\n      pop\n      pop\n      jump\t// out\n        /* \"#utility.yul\":5956:6375   */\n    tag_54:\n        /* \"#utility.yul\":6122:6126   */\n      0x00\n        /* \"#utility.yul\":6160:6162   */\n      0x20\n        /* \"#utility.yul\":6149:6158   */\n      dup3\n        /* \"#utility.yul\":6145:6163   */\n      add\n        /* \"#utility.yul\":6137:6163   */\n      swap1\n      pop\n        /* \"#utility.yul\":6209:6218   */\n      dup2\n        /* \"#utility.yul\":6203:6207   */\n      dup2\n        /* \"#utility.yul\":6199:6219   */\n      sub\n        /* \"#utility.yul\":6195:6196   */\n      0x00\n        /* \"#utility.yul\":6184:6193   */\n      dup4\n        /* \"#utility.yul\":6180:6197   */\n      add\n        /* \"#utility.yul\":6173:6220   */\n      mstore\n        /* \"#utility.yul\":6237:6368   */\n      tag_178\n        /* \"#utility.yul\":6363:6367   */\n      dup2\n        /* \"#utility.yul\":6237:6368   */\n      tag_137\n      jump\t// in\n    tag_178:\n        /* \"#utility.yul\":6229:6368   */\n      swap1\n      pop\n        /* \"#utility.yul\":5956:6375   */\n      swap2\n      swap1\n      pop\n      jump\t// out\n        /* \"#utility.yul\":6381:6800   */\n    tag_49:\n        /* \"#utility.yul\":6547:6551   */\n      0x00\n        /* \"#utility.yul\":6585:6587   */\n      0x20\n        /* \"#utility.yul\":6574:6583   */\n      dup3\n        /* \"#utility.yul\":6570:6588   */\n      add\n        /* \"#utility.yul\":6562:6588   */\n      swap1\n      pop\n        /* \"#utility.yul\":6634:6643   */\n      dup2\n        /* \"#utility.yul\":6628:6632   */\n      dup2\n        /* \"#utility.yul\":6624:6644   */\n      sub\n        /* \"#utility.yul\":6620:6621   */\n      0x00\n        /* \"#utility.yul\":6609:6618   */\n      dup4\n        /* \"#utility.yul\":6605:6622   */\n      add\n        /* \"#utility.yul\":6598:6645   */\n      mstore\n        /* \"#utility.yul\":6662:6793   */\n      tag_180\n        /* \"#utility.yul\":6788:6792   */\n      dup2\n        /* \"#utility.yul\":6662:6793   */\n      tag_142\n      jump\t// in\n    tag_180:\n        /* \"#utility.yul\":6654:6793   */\n      swap1\n      pop\n        /* \"#utility.yul\":6381:6800   */\n      swap2\n      swap1\n      pop\n      jump\t// out\n        /* \"#utility.yul\":6806:7225   */\n    tag_21:\n        /* \"#utility.yul\":6972:6976   */\n      0x00\n        /* \"#utility.yul\":7010:7012   */\n      0x20\n        /* \"#utility.yul\":6999:7008   */\n      dup3\n        /* \"#utility.yul\":6995:7013   */\n      add\n        /* \"#utility.yul\":6987:7013   */\n      swap1\n      pop\n        /* \"#utility.yul\":7059:7068   */\n      dup2\n        /* \"#utility.yul\":7053:7057   */\n      dup2\n        /* \"#utility.yul\":7049:7069   */\n      sub\n        /* \"#utility.yul\":7045:7046   */\n      0x00\n        /* \"#utility.yul\":7034:7043   */\n      dup4\n        /* \"#utility.yul\":7030:7047   */\n      add\n        /* \"#utility.yul\":7023:7070   */\n      mstore\n        /* \"#utility.yul\":7087:7218   */\n      tag_182\n        /* \"#utility.yul\":7213:7217   */\n      dup2\n        /* \"#utility.yul\":7087:7218   */\n      tag_147\n      jump\t// in\n    tag_182:\n        /* \"#utility.yul\":7079:7218   */\n      swap1\n      pop\n        /* \"#utility.yul\":6806:7225   */\n      swap2\n      swap1\n      pop\n      jump\t// out\n        /* \"#utility.yul\":7231:7650   */\n    tag_77:\n        /* \"#utility.yul\":7397:7401   */\n      0x00\n        /* \"#utility.yul\":7435:7437   */\n      0x20\n        /* \"#utility.yul\":7424:7433   */\n      dup3\n        /* \"#utility.yul\":7420:7438   */\n      add\n        /* \"#utility.yul\":7412:7438   */\n      swap1\n      pop\n        /* \"#utility.yul\":7484:7493   */\n      dup2\n        /* \"#utility.yul\":7478:7482   */\n      dup2\n        /* \"#utility.yul\":7474:7494   */\n      sub\n        /* \"#utility.yul\":7470:7471   */\n      0x00\n        /* \"#utility.yul\":7459:7468   */\n      dup4\n        /* \"#utility.yul\":7455:7472   */\n      add\n        /* \"#utility.yul\":7448:7495   */\n      mstore\n        /* \"#utility.yul\":7512:7643   */\n      tag_184\n        /* \"#utility.yul\":7638:7642   */\n      dup2\n        /* \"#utility.yul\":7512:7643   */\n      tag_152\n      jump\t// in\n    tag_184:\n        /* \"#utility.yul\":7504:7643   */\n      swap1\n      pop\n        /* \"#utility.yul\":7231:7650   */\n      swap2\n      swap1\n      pop\n      jump\t// out\n        /* \"#utility.yul\":7656:8017   */\n    tag_13:\n        /* \"#utility.yul\":7793:7797   */\n      0x00\n        /* \"#utility.yul\":7831:7833   */\n      0x20\n        /* \"#utility.yul\":7820:7829   */\n      dup3\n        /* \"#utility.yul\":7816:7834   */\n      add\n        /* \"#utility.yul\":7808:7834   */\n      swap1\n      pop\n        /* \"#utility.yul\":7880:7889   */\n      dup2\n        /* \"#utility.yul\":7874:7878   */\n      dup2\n        /* \"#utility.yul\":7870:7890   */\n      sub\n        /* \"#utility.yul\":7866:7867   */\n      0x00\n        /* \"#utility.yul\":7855:7864   */\n      dup4\n        /* \"#utility.yul\":7851:7868   */\n      add\n        /* \"#utility.yul\":7844:7891   */\n      mstore\n        /* \"#utility.yul\":7908:8010   */\n      tag_186\n        /* \"#utility.yul\":8005:8009   */\n      dup2\n        /* \"#utility.yul\":7996:8002   */\n      dup5\n        /* \"#utility.yul\":7908:8010   */\n      tag_157\n      jump\t// in\n    tag_186:\n        /* \"#utility.yul\":7900:8010   */\n      swap1\n      pop\n        /* \"#utility.yul\":7656:8017   */\n      swap3\n      swap2\n      pop\n      pop\n      jump\t// out\n        /* \"#utility.yul\":8104:8203   */\n    tag_123:\n        /* \"#utility.yul\":8156:8162   */\n      0x00\n        /* \"#utility.yul\":8190:8195   */\n      dup2\n        /* \"#utility.yul\":8184:8196   */\n      mload\n        /* \"#utility.yul\":8174:8196   */\n      swap1\n      pop\n        /* \"#utility.yul\":8104:8203   */\n      swap2\n      swap1\n      pop\n      jump\t// out\n        /* \"#utility.yul\":8209:8368   */\n    tag_125:\n        /* \"#utility.yul\":8283:8294   */\n      0x00\n        /* \"#utility.yul\":8317:8323   */\n      dup3\n        /* \"#utility.yul\":8312:8315   */\n      dup3\n        /* \"#utility.yul\":8305:8324   */\n      mstore\n        /* \"#utility.yul\":8357:8361   */\n      0x20\n        /* \"#utility.yul\":8352:8355   */\n      dup3\n        /* \"#utility.yul\":8348:8362   */\n      add\n        /* \"#utility.yul\":8333:8362   */\n      swap1\n      pop\n        /* \"#utility.yul\":8209:8368   */\n      swap3\n      swap2\n      pop\n      pop\n      jump\t// out\n        /* \"#utility.yul\":8374:8543   */\n    tag_134:\n        /* \"#utility.yul\":8458:8469   */\n      0x00\n        /* \"#utility.yul\":8492:8498   */\n      dup3\n        /* \"#utility.yul\":8487:8490   */\n      dup3\n        /* \"#utility.yul\":8480:8499   */\n      mstore\n        /* \"#utility.yul\":8532:8536   */\n      0x20\n        /* \"#utility.yul\":8527:8530   */\n      dup3\n        /* \"#utility.yul\":8523:8537   */\n      add\n        /* \"#utility.yul\":8508:8537   */\n      swap1\n      pop\n        /* \"#utility.yul\":8374:8543   */\n      swap3\n      swap2\n      pop\n      pop\n      jump\t// out\n        /* \"#utility.yul\":8549:8639   */\n    tag_119:\n        /* \"#utility.yul\":8583:8590   */\n      0x00\n        /* \"#utility.yul\":8626:8631   */\n      dup2\n        /* \"#utility.yul\":8619:8632   */\n      iszero\n        /* \"#utility.yul\":8612:8633   */\n      iszero\n        /* \"#utility.yul\":8601:8633   */\n      swap1\n      pop\n        /* \"#utility.yul\":8549:8639   */\n      swap2\n      swap1\n      pop\n      jump\t// out\n        /* \"#utility.yul\":8645:8722   */\n    tag_174:\n        /* \"#utility.yul\":8682:8689   */\n      0x00\n        /* \"#utility.yul\":8711:8716   */\n      dup2\n        /* \"#utility.yul\":8700:8716   */\n      swap1\n      pop\n        /* \"#utility.yul\":8645:8722   */\n      swap2\n      swap1\n      pop\n      jump\t// out\n        /* \"#utility.yul\":8728:9035   */\n    tag_127:\n        /* \"#utility.yul\":8796:8797   */\n      0x00\n        /* \"#utility.yul\":8806:8919   */\n    tag_195:\n        /* \"#utility.yul\":8820:8826   */\n      dup4\n        /* \"#utility.yul\":8817:8818   */\n      dup2\n        /* \"#utility.yul\":8814:8827   */\n      lt\n        /* \"#utility.yul\":8806:8919   */\n      iszero\n      tag_197\n      jumpi\n        /* \"#utility.yul\":8905:8906   */\n      dup1\n        /* \"#utility.yul\":8900:8903   */\n      dup3\n        /* \"#utility.yul\":8896:8907   */\n      add\n        /* \"#utility.yul\":8890:8908   */\n      mload\n        /* \"#utility.yul\":8886:8887   */\n      dup2\n        /* \"#utility.yul\":8881:8884   */\n      dup5\n        /* \"#utility.yul\":8877:8888   */\n      add\n        /* \"#utility.yul\":8870:8909   */\n      mstore\n        /* \"#utility.yul\":8842:8844   */\n      0x20\n        /* \"#utility.yul\":8839:8840   */\n      dup2\n        /* \"#utility.yul\":8835:8845   */\n      add\n        /* \"#utility.yul\":8830:8845   */\n      swap1\n      pop\n        /* \"#utility.yul\":8806:8919   */\n      jump(tag_195)\n    tag_197:\n        /* \"#utility.yul\":8937:8943   */\n      dup4\n        /* \"#utility.yul\":8934:8935   */\n      dup2\n        /* \"#utility.yul\":8931:8944   */\n      gt\n        /* \"#utility.yul\":8928:9029   */\n      iszero\n      tag_198\n      jumpi\n        /* \"#utility.yul\":9017:9018   */\n      0x00\n        /* \"#utility.yul\":9008:9014   */\n      dup5\n        /* \"#utility.yul\":9003:9006   */\n      dup5\n        /* \"#utility.yul\":8999:9015   */\n      add\n        /* \"#utility.yul\":8992:9019   */\n      mstore\n        /* \"#utility.yul\":8928:9029   */\n    tag_198:\n        /* \"#utility.yul\":8777:9035   */\n      pop\n        /* \"#utility.yul\":8728:9035   */\n      pop\n      pop\n      pop\n      jump\t// out\n        /* \"#utility.yul\":9041:9212   */\n    tag_79:\n        /* \"#utility.yul\":9080:9083   */\n      0x00\n        /* \"#utility.yul\":9103:9127   */\n      tag_200\n        /* \"#utility.yul\":9121:9126   */\n      dup3\n        /* \"#utility.yul\":9103:9127   */\n      tag_174\n      jump\t// in\n    tag_200:\n        /* \"#utility.yul\":9094:9127   */\n      swap2\n      pop\n        /* \"#utility.yul\":9149:9153   */\n      0x00\n        /* \"#utility.yul\":9142:9147   */\n      dup3\n        /* \"#utility.yul\":9139:9154   */\n      eq\n        /* \"#utility.yul\":9136:9177   */\n      iszero\n      tag_201\n      jumpi\n        /* \"#utility.yul\":9157:9175   */\n      tag_202\n      tag_203\n      jump\t// in\n    tag_202:\n        /* \"#utility.yul\":9136:9177   */\n    tag_201:\n        /* \"#utility.yul\":9204:9205   */\n      0x01\n        /* \"#utility.yul\":9197:9202   */\n      dup3\n        /* \"#utility.yul\":9193:9206   */\n      sub\n        /* \"#utility.yul\":9186:9206   */\n      swap1\n      pop\n        /* \"#utility.yul\":9041:9212   */\n      swap2\n      swap1\n      pop\n      jump\t// out\n        /* \"#utility.yul\":9218:9538   */\n    tag_23:\n        /* \"#utility.yul\":9262:9268   */\n      0x00\n        /* \"#utility.yul\":9299:9300   */\n      0x02\n        /* \"#utility.yul\":9293:9297   */\n      dup3\n        /* \"#utility.yul\":9289:9301   */\n      div\n        /* \"#utility.yul\":9279:9301   */\n      swap1\n      pop\n        /* \"#utility.yul\":9346:9347   */\n      0x01\n        /* \"#utility.yul\":9340:9344   */\n      dup3\n        /* \"#utility.yul\":9336:9348   */\n      and\n        /* \"#utility.yul\":9367:9385   */\n      dup1\n        /* \"#utility.yul\":9357:9438   */\n      tag_205\n      jumpi\n        /* \"#utility.yul\":9423:9427   */\n      0x7f\n        /* \"#utility.yul\":9415:9421   */\n      dup3\n        /* \"#utility.yul\":9411:9428   */\n      and\n        /* \"#utility.yul\":9401:9428   */\n      swap2\n      pop\n        /* \"#utility.yul\":9357:9438   */\n    tag_205:\n        /* \"#utility.yul\":9485:9487   */\n      0x20\n        /* \"#utility.yul\":9477:9483   */\n      dup3\n        /* \"#utility.yul\":9474:9488   */\n      lt\n        /* \"#utility.yul\":9454:9472   */\n      dup2\n        /* \"#utility.yul\":9451:9489   */\n      eq\n        /* \"#utility.yul\":9448:9532   */\n      iszero\n      tag_206\n      jumpi\n        /* \"#utility.yul\":9504:9522   */\n      tag_207\n      tag_208\n      jump\t// in\n    tag_207:\n        /* \"#utility.yul\":9448:9532   */\n    tag_206:\n        /* \"#utility.yul\":9269:9538   */\n      pop\n        /* \"#utility.yul\":9218:9538   */\n      swap2\n      swap1\n      pop\n      jump\t// out\n        /* \"#utility.yul\":9544:9777   */\n    tag_68:\n        /* \"#utility.yul\":9583:9586   */\n      0x00\n        /* \"#utility.yul\":9606:9630   */\n      tag_210\n        /* \"#utility.yul\":9624:9629   */\n      dup3\n        /* \"#utility.yul\":9606:9630   */\n      tag_174\n      jump\t// in\n    tag_210:\n        /* \"#utility.yul\":9597:9630   */\n      swap2\n      pop\n        /* \"#utility.yul\":9652:9718   */\n      0xffffffffffffffffffffffffffffffffffffffffffffffffffffffffffffffff\n        /* \"#utility.yul\":9645:9650   */\n      dup3\n        /* \"#utility.yul\":9642:9719   */\n      eq\n        /* \"#utility.yul\":9639:9742   */\n      iszero\n      tag_211\n      jumpi\n        /* \"#utility.yul\":9722:9740   */\n      tag_212\n      tag_203\n      jump\t// in\n    tag_212:\n        /* \"#utility.yul\":9639:9742   */\n    tag_211:\n        /* \"#utility.yul\":9769:9770   */\n      0x01\n        /* \"#utility.yul\":9762:9767   */\n      dup3\n        /* \"#utility.yul\":9758:9771   */\n      add\n        /* \"#utility.yul\":9751:9771   */\n      swap1\n      pop\n        /* \"#utility.yul\":9544:9777   */\n      swap2\n      swap1\n      pop\n      jump\t// out\n        /* \"#utility.yul\":9783:9963   */\n    tag_203:\n        /* \"#utility.yul\":9831:9908   */\n      0x4e487b7100000000000000000000000000000000000000000000000000000000\n        /* \"#utility.yul\":9828:9829   */\n      0x00\n        /* \"#utility.yul\":9821:9909   */\n      mstore\n        /* \"#utility.yul\":9928:9932   */\n      0x11\n        /* \"#utility.yul\":9925:9926   */\n      0x04\n        /* \"#utility.yul\":9918:9933   */\n      mstore\n        /* \"#utility.yul\":9952:9956   */\n      0x24\n        /* \"#utility.yul\":9949:9950   */\n      0x00\n        /* \"#utility.yul\":9942:9957   */\n      revert\n        /* \"#utility.yul\":9969:10149   */\n    tag_208:\n        /* \"#utility.yul\":10017:10094   */\n      0x4e487b7100000000000000000000000000000000000000000000000000000000\n        /* \"#utility.yul\":10014:10015   */\n      0x00\n        /* \"#utility.yul\":10007:10095   */\n      mstore\n        /* \"#utility.yul\":10114:10118   */\n      0x22\n        /* \"#utility.yul\":10111:10112   */\n      0x04\n        /* \"#utility.yul\":10104:10119   */\n      mstore\n        /* \"#utility.yul\":10138:10142   */\n      0x24\n        /* \"#utility.yul\":10135:10136   */\n      0x00\n        /* \"#utility.yul\":10128:10143   */\n      revert\n        /* \"#utility.yul\":10278:10395   */\n    tag_113:\n        /* \"#utility.yul\":10387:10388   */\n      0x00\n        /* \"#utility.yul\":10384:10385   */\n      dup1\n        /* \"#utility.yul\":10377:10389   */\n      revert\n        /* \"#utility.yul\":10401:10503   */\n    tag_129:\n        /* \"#utility.yul\":10442:10448   */\n      0x00\n        /* \"#utility.yul\":10493:10495   */\n      0x1f\n        /* \"#utility.yul\":10489:10496   */\n      not\n        /* \"#utility.yul\":10484:10486   */\n      0x1f\n        /* \"#utility.yul\":10477:10482   */\n      dup4\n        /* \"#utility.yul\":10473:10487   */\n      add\n        /* \"#utility.yul\":10469:10497   */\n      and\n        /* \"#utility.yul\":10459:10497   */\n      swap1\n      pop\n        /* \"#utility.yul\":10401:10503   */\n      swap2\n      swap1\n      pop\n      jump\t// out\n        /* \"#utility.yul\":10509:10736   */\n    tag_141:\n        /* \"#utility.yul\":10649:10683   */\n      0x436f77626f792068617320616c72656164792074616b656e207475726e207468\n        /* \"#utility.yul\":10645:10646   */\n      0x00\n        /* \"#utility.yul\":10637:10643   */\n      dup3\n        /* \"#utility.yul\":10633:10647   */\n      add\n        /* \"#utility.yul\":10626:10684   */\n      mstore\n        /* \"#utility.yul\":10718:10728   */\n      0x697320726f756e64000000000000000000000000000000000000000000000000\n        /* \"#utility.yul\":10713:10715   */\n      0x20\n        /* \"#utility.yul\":10705:10711   */\n      dup3\n        /* \"#utility.yul\":10701:10716   */\n      add\n        /* \"#utility.yul\":10694:10729   */\n      mstore\n        /* \"#utility.yul\":10509:10736   */\n      pop\n      jump\t// out\n        /* \"#utility.yul\":10742:10975   */\n    tag_146:\n        /* \"#utility.yul\":10882:10916   */\n      0x5468652067616d65206973206f76657220796f757220636f77626f792063616e\n        /* \"#utility.yul\":10878:10879   */\n      0x00\n        /* \"#utility.yul\":10870:10876   */\n      dup3\n        /* \"#utility.yul\":10866:10880   */\n      add\n        /* \"#utility.yul\":10859:10917   */\n      mstore\n        /* \"#utility.yul\":10951:10967   */\n      0x27742074616b65207475726e732e000000000000000000000000000000000000\n        /* \"#utility.yul\":10946:10948   */\n      0x20\n        /* \"#utility.yul\":10938:10944   */\n      dup3\n        /* \"#utility.yul\":10934:10949   */\n      add\n        /* \"#utility.yul\":10927:10968   */\n      mstore\n        /* \"#utility.yul\":10742:10975   */\n      pop\n      jump\t// out\n        /* \"#utility.yul\":10981:11154   */\n    tag_151:\n        /* \"#utility.yul\":11121:11146   */\n      0x5468657265206973206e6f2077696e6e6572207965742e000000000000000000\n        /* \"#utility.yul\":11117:11118   */\n      0x00\n        /* \"#utility.yul\":11109:11115   */\n      dup3\n        /* \"#utility.yul\":11105:11119   */\n      add\n        /* \"#utility.yul\":11098:11147   */\n      mstore\n        /* \"#utility.yul\":10981:11154   */\n      pop\n      jump\t// out\n        /* \"#utility.yul\":11160:11383   */\n    tag_156:\n        /* \"#utility.yul\":11300:11334   */\n      0x596f757220636f77626f792063616e27742073686f6f7420776974686f757420\n        /* \"#utility.yul\":11296:11297   */\n      0x00\n        /* \"#utility.yul\":11288:11294   */\n      dup3\n        /* \"#utility.yul\":11284:11298   */\n      add\n        /* \"#utility.yul\":11277:11335   */\n      mstore\n        /* \"#utility.yul\":11369:11375   */\n      0x616d6d6f00000000000000000000000000000000000000000000000000000000\n        /* \"#utility.yul\":11364:11366   */\n      0x20\n        /* \"#utility.yul\":11356:11362   */\n      dup3\n        /* \"#utility.yul\":11352:11367   */\n      add\n        /* \"#utility.yul\":11345:11376   */\n      mstore\n        /* \"#utility.yul\":11160:11383   */\n      pop\n      jump\t// out\n        /* \"#utility.yul\":11389:11511   */\n    tag_109:\n        /* \"#utility.yul\":11462:11486   */\n      tag_224\n        /* \"#utility.yul\":11480:11485   */\n      dup2\n        /* \"#utility.yul\":11462:11486   */\n      tag_174\n      jump\t// in\n    tag_224:\n        /* \"#utility.yul\":11455:11460   */\n      dup2\n        /* \"#utility.yul\":11452:11487   */\n      eq\n        /* \"#utility.yul\":11442:11505   */\n      tag_225\n      jumpi\n        /* \"#utility.yul\":11501:11502   */\n      0x00\n        /* \"#utility.yul\":11498:11499   */\n      dup1\n        /* \"#utility.yul\":11491:11503   */\n      revert\n        /* \"#utility.yul\":11442:11505   */\n    tag_225:\n        /* \"#utility.yul\":11389:11511   */\n      pop\n      jump\t// out\n\n    auxdata: 0xa26469706673582212202fd11441e50421a996e5a2d96d15e9fdc18d46d38770876ac6768406a175bca964736f6c63430008070033\n}\n",
    "bytecode": {
      "linkReferences": {},
      "object": "60806040523480156200001157600080fd5b5060006040518060a001604052806040518060400160405280600381526020017f756e6f000000000000000000000000000000000000000000000000000000000081525081526020016000815260200160001515815260200160001515815260200160001515815250905060006040518060a001604052806040518060400160405280600381526020017f646f7300000000000000000000000000000000000000000000000000000000008152508152602001600081526020016000151581526020016000151581526020016000151581525090506040518060a001604052808381526020018281526020016040518060200160405280600081525081526020016000815260200160001515815250600080820151816000016000820151816000019080519060200190620001489291906200029d565b506020820151816001015560408201518160020160006101000a81548160ff02191690831515021790555060608201518160020160016101000a81548160ff02191690831515021790555060808201518160020160026101000a81548160ff02191690831515021790555050506020820151816003016000820151816000019080519060200190620001dc9291906200029d565b506020820151816001015560408201518160020160006101000a81548160ff02191690831515021790555060608201518160020160016101000a81548160ff02191690831515021790555060808201518160020160026101000a81548160ff02191690831515021790555050506040820151816006019080519060200190620002679291906200029d565b506060820151816007015560808201518160080160006101000a81548160ff0219169083151502179055509050505050620003b2565b828054620002ab906200034d565b90600052602060002090601f016020900481019282620002cf57600085556200031b565b82601f10620002ea57805160ff19168380011785556200031b565b828001600101855582156200031b579182015b828111156200031a578251825591602001919060010190620002fd565b5b5090506200032a91906200032e565b5090565b5b80821115620003495760008160009055506001016200032f565b5090565b600060028204905060018216806200036657607f821691505b602082108114156200037d576200037c62000383565b5b50919050565b7f4e487b7100000000000000000000000000000000000000000000000000000000600052602260045260246000fd5b610f5f80620003c26000396000f3fe608060405234801561001057600080fd5b50600436106100415760003560e01c80638e7ea5b214610046578063d7aacb3e14610064578063f711f7ed14610082575b600080fd5b61004e61009e565b60405161005b9190610ba9565b60405180910390f35b61006c610185565b6040516100799190610c4b565b60405180910390f35b61009c60048036038101906100979190610953565b610458565b005b6060600060080160009054906101000a900460ff166100f2576040517f08c379a00000000000000000000000000000000000000000000000000000000081526004016100e990610c0b565b60405180910390fd5b6000600601805461010290610d0d565b80601f016020809104026020016040519081016040528092919081815260200182805461012e90610d0d565b801561017b5780601f106101505761010080835404028352916020019161017b565b820191906000526020600020905b81548152906001019060200180831161015e57829003601f168201915b5050505050905090565b61018d610822565b60006040518060a0016040529081600082016040518060a00160405290816000820180546101ba90610d0d565b80601f01602080910402602001604051908101604052809291908181526020018280546101e690610d0d565b80156102335780601f1061020857610100808354040283529160200191610233565b820191906000526020600020905b81548152906001019060200180831161021657829003601f168201915b50505050508152602001600182015481526020016002820160009054906101000a900460ff161515151581526020016002820160019054906101000a900460ff161515151581526020016002820160029054906101000a900460ff1615151515815250508152602001600382016040518060a00160405290816000820180546102bb90610d0d565b80601f01602080910402602001604051908101604052809291908181526020018280546102e790610d0d565b80156103345780601f1061030957610100808354040283529160200191610334565b820191906000526020600020905b81548152906001019060200180831161031757829003601f168201915b50505050508152602001600182015481526020016002820160009054906101000a900460ff161515151581526020016002820160019054906101000a900460ff161515151581526020016002820160029054906101000a900460ff16151515158152505081526020016006820180546103ac90610d0d565b80601f01602080910402602001604051908101604052809291908181526020018280546103d890610d0d565b80156104255780601f106103fa57610100808354040283529160200191610425565b820191906000526020600020905b81548152906001019060200180831161040857829003601f168201915b50505050508152602001600782015481526020016008820160009054906101000a900460ff161515151581525050905090565b600060080160009054906101000a900460ff16156104ab576040517f08c379a00000000000000000000000000000000000000000000000000000000081526004016104a290610beb565b60405180910390fd5b600060018214156104c1576000800190506104c9565b600060030190505b8060020160009054906101000a900460ff161561051b576040517f08c379a000000000000000000000000000000000000000000000000000000000815260040161051290610bcb565b60405180910390fd5b60008314156105325761052d816105c0565b610563565b60018314156105495761054481610617565b610562565b60028314156105605761055b816106b6565b610561565b5b5b5b60018160020160006101000a81548160ff0219169083151502179055506000600701600081548092919061059690610d3f565b9190505550600260006007015414156105bb576105ba6000800160006003016106f3565b5b505050565b8060010160008154809291906105d590610d3f565b919050555060018160020160016101000a81548160ff02191690831515021790555060008160020160026101000a81548160ff02191690831515021790555050565b60018160010154101561065f576040517f08c379a000000000000000000000000000000000000000000000000000000000815260040161065690610c2b565b60405180910390fd5b80600101600081548092919061067490610ce3565b919050555060008160020160016101000a81548160ff02191690831515021790555060018160020160026101000a81548160ff02191690831515021790555050565b60008160020160016101000a81548160ff02191690831515021790555060008160020160026101000a81548160ff02191690831515021790555050565b8160020160029054906101000a900460ff16801561071f57508060020160019054906101000a900460ff165b156107685781600001600060060190805461073990610d0d565b61074492919061085f565b506001600060080160006101000a81548160ff0219169083151502179055506107da565b8060020160029054906101000a900460ff16801561079457508160020160019054906101000a900460ff165b156107d9578060000160006006019080546107ae90610d0d565b6107b992919061085f565b506001600060080160006101000a81548160ff0219169083151502179055505b5b60008260020160006101000a81548160ff02191690831515021790555060008160020160006101000a81548160ff021916908315150217905550600080600701819055505050565b6040518060a001604052806108356108ec565b81526020016108426108ec565b815260200160608152602001600081526020016000151581525090565b82805461086b90610d0d565b90600052602060002090601f01602090048101928261088d57600085556108db565b82601f1061089e57805485556108db565b828001600101855582156108db57600052602060002091601f016020900482015b828111156108da5782548255916001019190600101906108bf565b5b5090506108e89190610921565b5090565b6040518060a0016040528060608152602001600081526020016000151581526020016000151581526020016000151581525090565b5b8082111561093a576000816000905550600101610922565b5090565b60008135905061094d81610f12565b92915050565b6000806040838503121561096a57610969610de6565b5b60006109788582860161093e565b92505060206109898582860161093e565b9150509250929050565b61099c81610c9a565b82525050565b60006109ad82610c6d565b6109b78185610c78565b93506109c7818560208601610cb0565b6109d081610deb565b840191505092915050565b60006109e682610c6d565b6109f08185610c89565b9350610a00818560208601610cb0565b610a0981610deb565b840191505092915050565b6000610a21602883610c89565b9150610a2c82610dfc565b604082019050919050565b6000610a44602e83610c89565b9150610a4f82610e4b565b604082019050919050565b6000610a67601783610c89565b9150610a7282610e9a565b602082019050919050565b6000610a8a602483610c89565b9150610a9582610ec3565b604082019050919050565b600060a0830160008301518482036000860152610abd8282610b24565b91505060208301518482036020860152610ad78282610b24565b91505060408301518482036040860152610af182826109a2565b9150506060830151610b066060860182610b9a565b506080830151610b196080860182610993565b508091505092915050565b600060a0830160008301518482036000860152610b4182826109a2565b9150506020830151610b566020860182610b9a565b506040830151610b696040860182610993565b506060830151610b7c6060860182610993565b506080830151610b8f6080860182610993565b508091505092915050565b610ba381610ca6565b82525050565b60006020820190508181036000830152610bc381846109db565b905092915050565b60006020820190508181036000830152610be481610a14565b9050919050565b60006020820190508181036000830152610c0481610a37565b9050919050565b60006020820190508181036000830152610c2481610a5a565b9050919050565b60006020820190508181036000830152610c4481610a7d565b9050919050565b60006020820190508181036000830152610c658184610aa0565b905092915050565b600081519050919050565b600082825260208201905092915050565b600082825260208201905092915050565b60008115159050919050565b6000819050919050565b60005b83811015610cce578082015181840152602081019050610cb3565b83811115610cdd576000848401525b50505050565b6000610cee82610ca6565b91506000821415610d0257610d01610d88565b5b600182039050919050565b60006002820490506001821680610d2557607f821691505b60208210811415610d3957610d38610db7565b5b50919050565b6000610d4a82610ca6565b91507fffffffffffffffffffffffffffffffffffffffffffffffffffffffffffffffff821415610d7d57610d7c610d88565b5b600182019050919050565b7f4e487b7100000000000000000000000000000000000000000000000000000000600052601160045260246000fd5b7f4e487b7100000000000000000000000000000000000000000000000000000000600052602260045260246000fd5b600080fd5b6000601f19601f8301169050919050565b7f436f77626f792068617320616c72656164792074616b656e207475726e20746860008201527f697320726f756e64000000000000000000000000000000000000000000000000602082015250565b7f5468652067616d65206973206f76657220796f757220636f77626f792063616e60008201527f27742074616b65207475726e732e000000000000000000000000000000000000602082015250565b7f5468657265206973206e6f2077696e6e6572207965742e000000000000000000600082015250565b7f596f757220636f77626f792063616e27742073686f6f7420776974686f75742060008201527f616d6d6f00000000000000000000000000000000000000000000000000000000602082015250565b610f1b81610ca6565b8114610f2657600080fd5b5056fea26469706673582212202fd11441e50421a996e5a2d96d15e9fdc18d46d38770876ac6768406a175bca964736f6c63430008070033",
      "opcodes": "PUSH1 0x80 PUSH1 0x40 MSTORE CALLVALUE DUP1 ISZERO PUSH3 0x11 JUMPI PUSH1 0x0 DUP1 REVERT JUMPDEST POP PUSH1 0x0 PUSH1 0x40 MLOAD DUP1 PUSH1 0xA0 ADD PUSH1 0x40 MSTORE DUP1 PUSH1 0x40 MLOAD DUP1 PUSH1 0x40 ADD PUSH1 0x40 MSTORE DUP1 PUSH1 0x3 DUP2 MSTORE PUSH1 0x20 ADD PUSH32 0x756E6F0000000000000000000000000000000000000000000000000000000000 DUP2 MSTORE POP DUP2 MSTORE PUSH1 0x20 ADD PUSH1 0x0 DUP2 MSTORE PUSH1 0x20 ADD PUSH1 0x0 ISZERO ISZERO DUP2 MSTORE PUSH1 0x20 ADD PUSH1 0x0 ISZERO ISZERO DUP2 MSTORE PUSH1 0x20 ADD PUSH1 0x0 ISZERO ISZERO DUP2 MSTORE POP SWAP1 POP PUSH1 0x0 PUSH1 0x40 MLOAD DUP1 PUSH1 0xA0 ADD PUSH1 0x40 MSTORE DUP1 PUSH1 0x40 MLOAD DUP1 PUSH1 0x40 ADD PUSH1 0x40 MSTORE DUP1 PUSH1 0x3 DUP2 MSTORE PUSH1 0x20 ADD PUSH32 0x646F730000000000000000000000000000000000000000000000000000000000 DUP2 MSTORE POP DUP2 MSTORE PUSH1 0x20 ADD PUSH1 0x0 DUP2 MSTORE PUSH1 0x20 ADD PUSH1 0x0 ISZERO ISZERO DUP2 MSTORE PUSH1 0x20 ADD PUSH1 0x0 ISZERO ISZERO DUP2 MSTORE PUSH1 0x20 ADD PUSH1 0x0 ISZERO ISZERO DUP2 MSTORE POP SWAP1 POP PUSH1 0x40 MLOAD DUP1 PUSH1 0xA0 ADD PUSH1 0x40 MSTORE DUP1 DUP4 DUP2 MSTORE PUSH1 0x20 ADD DUP3 DUP2 MSTORE PUSH1 0x20 ADD PUSH1 0x40 MLOAD DUP1 PUSH1 0x20 ADD PUSH1 0x40 MSTORE DUP1 PUSH1 0x0 DUP2 MSTORE POP DUP2 MSTORE PUSH1 0x20 ADD PUSH1 0x0 DUP2 MSTORE PUSH1 0x20 ADD PUSH1 0x0 ISZERO ISZERO DUP2 MSTORE POP PUSH1 0x0 DUP1 DUP3 ADD MLOAD DUP2 PUSH1 0x0 ADD PUSH1 0x0 DUP3 ADD MLOAD DUP2 PUSH1 0x0 ADD SWAP1 DUP1 MLOAD SWAP1 PUSH1 0x20 ADD SWAP1 PUSH3 0x148 SWAP3 SWAP2 SWAP1 PUSH3 0x29D JUMP JUMPDEST POP PUSH1 0x20 DUP3 ADD MLOAD DUP2 PUSH1 0x1 ADD SSTORE PUSH1 0x40 DUP3 ADD MLOAD DUP2 PUSH1 0x2 ADD PUSH1 0x0 PUSH2 0x100 EXP DUP2 SLOAD DUP2 PUSH1 0xFF MUL NOT AND SWAP1 DUP4 ISZERO ISZERO MUL OR SWAP1 SSTORE POP PUSH1 0x60 DUP3 ADD MLOAD DUP2 PUSH1 0x2 ADD PUSH1 0x1 PUSH2 0x100 EXP DUP2 SLOAD DUP2 PUSH1 0xFF MUL NOT AND SWAP1 DUP4 ISZERO ISZERO MUL OR SWAP1 SSTORE POP PUSH1 0x80 DUP3 ADD MLOAD DUP2 PUSH1 0x2 ADD PUSH1 0x2 PUSH2 0x100 EXP DUP2 SLOAD DUP2 PUSH1 0xFF MUL NOT AND SWAP1 DUP4 ISZERO ISZERO MUL OR SWAP1 SSTORE POP POP POP PUSH1 0x20 DUP3 ADD MLOAD DUP2 PUSH1 0x3 ADD PUSH1 0x0 DUP3 ADD MLOAD DUP2 PUSH1 0x0 ADD SWAP1 DUP1 MLOAD SWAP1 PUSH1 0x20 ADD SWAP1 PUSH3 0x1DC SWAP3 SWAP2 SWAP1 PUSH3 0x29D JUMP JUMPDEST POP PUSH1 0x20 DUP3 ADD MLOAD DUP2 PUSH1 0x1 ADD SSTORE PUSH1 0x40 DUP3 ADD MLOAD DUP2 PUSH1 0x2 ADD PUSH1 0x0 PUSH2 0x100 EXP DUP2 SLOAD DUP2 PUSH1 0xFF MUL NOT AND SWAP1 DUP4 ISZERO ISZERO MUL OR SWAP1 SSTORE POP PUSH1 0x60 DUP3 ADD MLOAD DUP2 PUSH1 0x2 ADD PUSH1 0x1 PUSH2 0x100 EXP DUP2 SLOAD DUP2 PUSH1 0xFF MUL NOT AND SWAP1 DUP4 ISZERO ISZERO MUL OR SWAP1 SSTORE POP PUSH1 0x80 DUP3 ADD MLOAD DUP2 PUSH1 0x2 ADD PUSH1 0x2 PUSH2 0x100 EXP DUP2 SLOAD DUP2 PUSH1 0xFF MUL NOT AND SWAP1 DUP4 ISZERO ISZERO MUL OR SWAP1 SSTORE POP POP POP PUSH1 0x40 DUP3 ADD MLOAD DUP2 PUSH1 0x6 ADD SWAP1 DUP1 MLOAD SWAP1 PUSH1 0x20 ADD SWAP1 PUSH3 0x267 SWAP3 SWAP2 SWAP1 PUSH3 0x29D JUMP JUMPDEST POP PUSH1 0x60 DUP3 ADD MLOAD DUP2 PUSH1 0x7 ADD SSTORE PUSH1 0x80 DUP3 ADD MLOAD DUP2 PUSH1 0x8 ADD PUSH1 0x0 PUSH2 0x100 EXP DUP2 SLOAD DUP2 PUSH1 0xFF MUL NOT AND SWAP1 DUP4 ISZERO ISZERO MUL OR SWAP1 SSTORE POP SWAP1 POP POP POP POP PUSH3 0x3B2 JUMP JUMPDEST DUP3 DUP1 SLOAD PUSH3 0x2AB SWAP1 PUSH3 0x34D JUMP JUMPDEST SWAP1 PUSH1 0x0 MSTORE PUSH1 0x20 PUSH1 0x0 KECCAK256 SWAP1 PUSH1 0x1F ADD PUSH1 0x20 SWAP1 DIV DUP2 ADD SWAP3 DUP3 PUSH3 0x2CF JUMPI PUSH1 0x0 DUP6 SSTORE PUSH3 0x31B JUMP JUMPDEST DUP3 PUSH1 0x1F LT PUSH3 0x2EA JUMPI DUP1 MLOAD PUSH1 0xFF NOT AND DUP4 DUP1 ADD OR DUP6 SSTORE PUSH3 0x31B JUMP JUMPDEST DUP3 DUP1 ADD PUSH1 0x1 ADD DUP6 SSTORE DUP3 ISZERO PUSH3 0x31B JUMPI SWAP2 DUP3 ADD JUMPDEST DUP3 DUP2 GT ISZERO PUSH3 0x31A JUMPI DUP3 MLOAD DUP3 SSTORE SWAP2 PUSH1 0x20 ADD SWAP2 SWAP1 PUSH1 0x1 ADD SWAP1 PUSH3 0x2FD JUMP JUMPDEST JUMPDEST POP SWAP1 POP PUSH3 0x32A SWAP2 SWAP1 PUSH3 0x32E JUMP JUMPDEST POP SWAP1 JUMP JUMPDEST JUMPDEST DUP1 DUP3 GT ISZERO PUSH3 0x349 JUMPI PUSH1 0x0 DUP2 PUSH1 0x0 SWAP1 SSTORE POP PUSH1 0x1 ADD PUSH3 0x32F JUMP JUMPDEST POP SWAP1 JUMP JUMPDEST PUSH1 0x0 PUSH1 0x2 DUP3 DIV SWAP1 POP PUSH1 0x1 DUP3 AND DUP1 PUSH3 0x366 JUMPI PUSH1 0x7F DUP3 AND SWAP2 POP JUMPDEST PUSH1 0x20 DUP3 LT DUP2 EQ ISZERO PUSH3 0x37D JUMPI PUSH3 0x37C PUSH3 0x383 JUMP JUMPDEST JUMPDEST POP SWAP2 SWAP1 POP JUMP JUMPDEST PUSH32 0x4E487B7100000000000000000000000000000000000000000000000000000000 PUSH1 0x0 MSTORE PUSH1 0x22 PUSH1 0x4 MSTORE PUSH1 0x24 PUSH1 0x0 REVERT JUMPDEST PUSH2 0xF5F DUP1 PUSH3 0x3C2 PUSH1 0x0 CODECOPY PUSH1 0x0 RETURN INVALID PUSH1 0x80 PUSH1 0x40 MSTORE CALLVALUE DUP1 ISZERO PUSH2 0x10 JUMPI PUSH1 0x0 DUP1 REVERT JUMPDEST POP PUSH1 0x4 CALLDATASIZE LT PUSH2 0x41 JUMPI PUSH1 0x0 CALLDATALOAD PUSH1 0xE0 SHR DUP1 PUSH4 0x8E7EA5B2 EQ PUSH2 0x46 JUMPI DUP1 PUSH4 0xD7AACB3E EQ PUSH2 0x64 JUMPI DUP1 PUSH4 0xF711F7ED EQ PUSH2 0x82 JUMPI JUMPDEST PUSH1 0x0 DUP1 REVERT JUMPDEST PUSH2 0x4E PUSH2 0x9E JUMP JUMPDEST PUSH1 0x40 MLOAD PUSH2 0x5B SWAP2 SWAP1 PUSH2 0xBA9 JUMP JUMPDEST PUSH1 0x40 MLOAD DUP1 SWAP2 SUB SWAP1 RETURN JUMPDEST PUSH2 0x6C PUSH2 0x185 JUMP JUMPDEST PUSH1 0x40 MLOAD PUSH2 0x79 SWAP2 SWAP1 PUSH2 0xC4B JUMP JUMPDEST PUSH1 0x40 MLOAD DUP1 SWAP2 SUB SWAP1 RETURN JUMPDEST PUSH2 0x9C PUSH1 0x4 DUP1 CALLDATASIZE SUB DUP2 ADD SWAP1 PUSH2 0x97 SWAP2 SWAP1 PUSH2 0x953 JUMP JUMPDEST PUSH2 0x458 JUMP JUMPDEST STOP JUMPDEST PUSH1 0x60 PUSH1 0x0 PUSH1 0x8 ADD PUSH1 0x0 SWAP1 SLOAD SWAP1 PUSH2 0x100 EXP SWAP1 DIV PUSH1 0xFF AND PUSH2 0xF2 JUMPI PUSH1 0x40 MLOAD PUSH32 0x8C379A000000000000000000000000000000000000000000000000000000000 DUP2 MSTORE PUSH1 0x4 ADD PUSH2 0xE9 SWAP1 PUSH2 0xC0B JUMP JUMPDEST PUSH1 0x40 MLOAD DUP1 SWAP2 SUB SWAP1 REVERT JUMPDEST PUSH1 0x0 PUSH1 0x6 ADD DUP1 SLOAD PUSH2 0x102 SWAP1 PUSH2 0xD0D JUMP JUMPDEST DUP1 PUSH1 0x1F ADD PUSH1 0x20 DUP1 SWAP2 DIV MUL PUSH1 0x20 ADD PUSH1 0x40 MLOAD SWAP1 DUP2 ADD PUSH1 0x40 MSTORE DUP1 SWAP3 SWAP2 SWAP1 DUP2 DUP2 MSTORE PUSH1 0x20 ADD DUP3 DUP1 SLOAD PUSH2 0x12E SWAP1 PUSH2 0xD0D JUMP JUMPDEST DUP1 ISZERO PUSH2 0x17B JUMPI DUP1 PUSH1 0x1F LT PUSH2 0x150 JUMPI PUSH2 0x100 DUP1 DUP4 SLOAD DIV MUL DUP4 MSTORE SWAP2 PUSH1 0x20 ADD SWAP2 PUSH2 0x17B JUMP JUMPDEST DUP3 ADD SWAP2 SWAP1 PUSH1 0x0 MSTORE PUSH1 0x20 PUSH1 0x0 KECCAK256 SWAP1 JUMPDEST DUP2 SLOAD DUP2 MSTORE SWAP1 PUSH1 0x1 ADD SWAP1 PUSH1 0x20 ADD DUP1 DUP4 GT PUSH2 0x15E JUMPI DUP3 SWAP1 SUB PUSH1 0x1F AND DUP3 ADD SWAP2 JUMPDEST POP POP POP POP POP SWAP1 POP SWAP1 JUMP JUMPDEST PUSH2 0x18D PUSH2 0x822 JUMP JUMPDEST PUSH1 0x0 PUSH1 0x40 MLOAD DUP1 PUSH1 0xA0 ADD PUSH1 0x40 MSTORE SWAP1 DUP2 PUSH1 0x0 DUP3 ADD PUSH1 0x40 MLOAD DUP1 PUSH1 0xA0 ADD PUSH1 0x40 MSTORE SWAP1 DUP2 PUSH1 0x0 DUP3 ADD DUP1 SLOAD PUSH2 0x1BA SWAP1 PUSH2 0xD0D JUMP JUMPDEST DUP1 PUSH1 0x1F ADD PUSH1 0x20 DUP1 SWAP2 DIV MUL PUSH1 0x20 ADD PUSH1 0x40 MLOAD SWAP1 DUP2 ADD PUSH1 0x40 MSTORE DUP1 SWAP3 SWAP2 SWAP1 DUP2 DUP2 MSTORE PUSH1 0x20 ADD DUP3 DUP1 SLOAD PUSH2 0x1E6 SWAP1 PUSH2 0xD0D JUMP JUMPDEST DUP1 ISZERO PUSH2 0x233 JUMPI DUP1 PUSH1 0x1F LT PUSH2 0x208 JUMPI PUSH2 0x100 DUP1 DUP4 SLOAD DIV MUL DUP4 MSTORE SWAP2 PUSH1 0x20 ADD SWAP2 PUSH2 0x233 JUMP JUMPDEST DUP3 ADD SWAP2 SWAP1 PUSH1 0x0 MSTORE PUSH1 0x20 PUSH1 0x0 KECCAK256 SWAP1 JUMPDEST DUP2 SLOAD DUP2 MSTORE SWAP1 PUSH1 0x1 ADD SWAP1 PUSH1 0x20 ADD DUP1 DUP4 GT PUSH2 0x216 JUMPI DUP3 SWAP1 SUB PUSH1 0x1F AND DUP3 ADD SWAP2 JUMPDEST POP POP POP POP POP DUP2 MSTORE PUSH1 0x20 ADD PUSH1 0x1 DUP3 ADD SLOAD DUP2 MSTORE PUSH1 0x20 ADD PUSH1 0x2 DUP3 ADD PUSH1 0x0 SWAP1 SLOAD SWAP1 PUSH2 0x100 EXP SWAP1 DIV PUSH1 0xFF AND ISZERO ISZERO ISZERO ISZERO DUP2 MSTORE PUSH1 0x20 ADD PUSH1 0x2 DUP3 ADD PUSH1 0x1 SWAP1 SLOAD SWAP1 PUSH2 0x100 EXP SWAP1 DIV PUSH1 0xFF AND ISZERO ISZERO ISZERO ISZERO DUP2 MSTORE PUSH1 0x20 ADD PUSH1 0x2 DUP3 ADD PUSH1 0x2 SWAP1 SLOAD SWAP1 PUSH2 0x100 EXP SWAP1 DIV PUSH1 0xFF AND ISZERO ISZERO ISZERO ISZERO DUP2 MSTORE POP POP DUP2 MSTORE PUSH1 0x20 ADD PUSH1 0x3 DUP3 ADD PUSH1 0x40 MLOAD DUP1 PUSH1 0xA0 ADD PUSH1 0x40 MSTORE SWAP1 DUP2 PUSH1 0x0 DUP3 ADD DUP1 SLOAD PUSH2 0x2BB SWAP1 PUSH2 0xD0D JUMP JUMPDEST DUP1 PUSH1 0x1F ADD PUSH1 0x20 DUP1 SWAP2 DIV MUL PUSH1 0x20 ADD PUSH1 0x40 MLOAD SWAP1 DUP2 ADD PUSH1 0x40 MSTORE DUP1 SWAP3 SWAP2 SWAP1 DUP2 DUP2 MSTORE PUSH1 0x20 ADD DUP3 DUP1 SLOAD PUSH2 0x2E7 SWAP1 PUSH2 0xD0D JUMP JUMPDEST DUP1 ISZERO PUSH2 0x334 JUMPI DUP1 PUSH1 0x1F LT PUSH2 0x309 JUMPI PUSH2 0x100 DUP1 DUP4 SLOAD DIV MUL DUP4 MSTORE SWAP2 PUSH1 0x20 ADD SWAP2 PUSH2 0x334 JUMP JUMPDEST DUP3 ADD SWAP2 SWAP1 PUSH1 0x0 MSTORE PUSH1 0x20 PUSH1 0x0 KECCAK256 SWAP1 JUMPDEST DUP2 SLOAD DUP2 MSTORE SWAP1 PUSH1 0x1 ADD SWAP1 PUSH1 0x20 ADD DUP1 DUP4 GT PUSH2 0x317 JUMPI DUP3 SWAP1 SUB PUSH1 0x1F AND DUP3 ADD SWAP2 JUMPDEST POP POP POP POP POP DUP2 MSTORE PUSH1 0x20 ADD PUSH1 0x1 DUP3 ADD SLOAD DUP2 MSTORE PUSH1 0x20 ADD PUSH1 0x2 DUP3 ADD PUSH1 0x0 SWAP1 SLOAD SWAP1 PUSH2 0x100 EXP SWAP1 DIV PUSH1 0xFF AND ISZERO ISZERO ISZERO ISZERO DUP2 MSTORE PUSH1 0x20 ADD PUSH1 0x2 DUP3 ADD PUSH1 0x1 SWAP1 SLOAD SWAP1 PUSH2 0x100 EXP SWAP1 DIV PUSH1 0xFF AND ISZERO ISZERO ISZERO ISZERO DUP2 MSTORE PUSH1 0x20 ADD PUSH1 0x2 DUP3 ADD PUSH1 0x2 SWAP1 SLOAD SWAP1 PUSH2 0x100 EXP SWAP1 DIV PUSH1 0xFF AND ISZERO ISZERO ISZERO ISZERO DUP2 MSTORE POP POP DUP2 MSTORE PUSH1 0x20 ADD PUSH1 0x6 DUP3 ADD DUP1 SLOAD PUSH2 0x3AC SWAP1 PUSH2 0xD0D JUMP JUMPDEST DUP1 PUSH1 0x1F ADD PUSH1 0x20 DUP1 SWAP2 DIV MUL PUSH1 0x20 ADD PUSH1 0x40 MLOAD SWAP1 DUP2 ADD PUSH1 0x40 MSTORE DUP1 SWAP3 SWAP2 SWAP1 DUP2 DUP2 MSTORE PUSH1 0x20 ADD DUP3 DUP1 SLOAD PUSH2 0x3D8 SWAP1 PUSH2 0xD0D JUMP JUMPDEST DUP1 ISZERO PUSH2 0x425 JUMPI DUP1 PUSH1 0x1F LT PUSH2 0x3FA JUMPI PUSH2 0x100 DUP1 DUP4 SLOAD DIV MUL DUP4 MSTORE SWAP2 PUSH1 0x20 ADD SWAP2 PUSH2 0x425 JUMP JUMPDEST DUP3 ADD SWAP2 SWAP1 PUSH1 0x0 MSTORE PUSH1 0x20 PUSH1 0x0 KECCAK256 SWAP1 JUMPDEST DUP2 SLOAD DUP2 MSTORE SWAP1 PUSH1 0x1 ADD SWAP1 PUSH1 0x20 ADD DUP1 DUP4 GT PUSH2 0x408 JUMPI DUP3 SWAP1 SUB PUSH1 0x1F AND DUP3 ADD SWAP2 JUMPDEST POP POP POP POP POP DUP2 MSTORE PUSH1 0x20 ADD PUSH1 0x7 DUP3 ADD SLOAD DUP2 MSTORE PUSH1 0x20 ADD PUSH1 0x8 DUP3 ADD PUSH1 0x0 SWAP1 SLOAD SWAP1 PUSH2 0x100 EXP SWAP1 DIV PUSH1 0xFF AND ISZERO ISZERO ISZERO ISZERO DUP2 MSTORE POP POP SWAP1 POP SWAP1 JUMP JUMPDEST PUSH1 0x0 PUSH1 0x8 ADD PUSH1 0x0 SWAP1 SLOAD SWAP1 PUSH2 0x100 EXP SWAP1 DIV PUSH1 0xFF AND ISZERO PUSH2 0x4AB JUMPI PUSH1 0x40 MLOAD PUSH32 0x8C379A000000000000000000000000000000000000000000000000000000000 DUP2 MSTORE PUSH1 0x4 ADD PUSH2 0x4A2 SWAP1 PUSH2 0xBEB JUMP JUMPDEST PUSH1 0x40 MLOAD DUP1 SWAP2 SUB SWAP1 REVERT JUMPDEST PUSH1 0x0 PUSH1 0x1 DUP3 EQ ISZERO PUSH2 0x4C1 JUMPI PUSH1 0x0 DUP1 ADD SWAP1 POP PUSH2 0x4C9 JUMP JUMPDEST PUSH1 0x0 PUSH1 0x3 ADD SWAP1 POP JUMPDEST DUP1 PUSH1 0x2 ADD PUSH1 0x0 SWAP1 SLOAD SWAP1 PUSH2 0x100 EXP SWAP1 DIV PUSH1 0xFF AND ISZERO PUSH2 0x51B JUMPI PUSH1 0x40 MLOAD PUSH32 0x8C379A000000000000000000000000000000000000000000000000000000000 DUP2 MSTORE PUSH1 0x4 ADD PUSH2 0x512 SWAP1 PUSH2 0xBCB JUMP JUMPDEST PUSH1 0x40 MLOAD DUP1 SWAP2 SUB SWAP1 REVERT JUMPDEST PUSH1 0x0 DUP4 EQ ISZERO PUSH2 0x532 JUMPI PUSH2 0x52D DUP2 PUSH2 0x5C0 JUMP JUMPDEST PUSH2 0x563 JUMP JUMPDEST PUSH1 0x1 DUP4 EQ ISZERO PUSH2 0x549 JUMPI PUSH2 0x544 DUP2 PUSH2 0x617 JUMP JUMPDEST PUSH2 0x562 JUMP JUMPDEST PUSH1 0x2 DUP4 EQ ISZERO PUSH2 0x560 JUMPI PUSH2 0x55B DUP2 PUSH2 0x6B6 JUMP JUMPDEST PUSH2 0x561 JUMP JUMPDEST JUMPDEST JUMPDEST JUMPDEST PUSH1 0x1 DUP2 PUSH1 0x2 ADD PUSH1 0x0 PUSH2 0x100 EXP DUP2 SLOAD DUP2 PUSH1 0xFF MUL NOT AND SWAP1 DUP4 ISZERO ISZERO MUL OR SWAP1 SSTORE POP PUSH1 0x0 PUSH1 0x7 ADD PUSH1 0x0 DUP2 SLOAD DUP1 SWAP3 SWAP2 SWAP1 PUSH2 0x596 SWAP1 PUSH2 0xD3F JUMP JUMPDEST SWAP2 SWAP1 POP SSTORE POP PUSH1 0x2 PUSH1 0x0 PUSH1 0x7 ADD SLOAD EQ ISZERO PUSH2 0x5BB JUMPI PUSH2 0x5BA PUSH1 0x0 DUP1 ADD PUSH1 0x0 PUSH1 0x3 ADD PUSH2 0x6F3 JUMP JUMPDEST JUMPDEST POP POP POP JUMP JUMPDEST DUP1 PUSH1 0x1 ADD PUSH1 0x0 DUP2 SLOAD DUP1 SWAP3 SWAP2 SWAP1 PUSH2 0x5D5 SWAP1 PUSH2 0xD3F JUMP JUMPDEST SWAP2 SWAP1 POP SSTORE POP PUSH1 0x1 DUP2 PUSH1 0x2 ADD PUSH1 0x1 PUSH2 0x100 EXP DUP2 SLOAD DUP2 PUSH1 0xFF MUL NOT AND SWAP1 DUP4 ISZERO ISZERO MUL OR SWAP1 SSTORE POP PUSH1 0x0 DUP2 PUSH1 0x2 ADD PUSH1 0x2 PUSH2 0x100 EXP DUP2 SLOAD DUP2 PUSH1 0xFF MUL NOT AND SWAP1 DUP4 ISZERO ISZERO MUL OR SWAP1 SSTORE POP POP JUMP JUMPDEST PUSH1 0x1 DUP2 PUSH1 0x1 ADD SLOAD LT ISZERO PUSH2 0x65F JUMPI PUSH1 0x40 MLOAD PUSH32 0x8C379A000000000000000000000000000000000000000000000000000000000 DUP2 MSTORE PUSH1 0x4 ADD PUSH2 0x656 SWAP1 PUSH2 0xC2B JUMP JUMPDEST PUSH1 0x40 MLOAD DUP1 SWAP2 SUB SWAP1 REVERT JUMPDEST DUP1 PUSH1 0x1 ADD PUSH1 0x0 DUP2 SLOAD DUP1 SWAP3 SWAP2 SWAP1 PUSH2 0x674 SWAP1 PUSH2 0xCE3 JUMP JUMPDEST SWAP2 SWAP1 POP SSTORE POP PUSH1 0x0 DUP2 PUSH1 0x2 ADD PUSH1 0x1 PUSH2 0x100 EXP DUP2 SLOAD DUP2 PUSH1 0xFF MUL NOT AND SWAP1 DUP4 ISZERO ISZERO MUL OR SWAP1 SSTORE POP PUSH1 0x1 DUP2 PUSH1 0x2 ADD PUSH1 0x2 PUSH2 0x100 EXP DUP2 SLOAD DUP2 PUSH1 0xFF MUL NOT AND SWAP1 DUP4 ISZERO ISZERO MUL OR SWAP1 SSTORE POP POP JUMP JUMPDEST PUSH1 0x0 DUP2 PUSH1 0x2 ADD PUSH1 0x1 PUSH2 0x100 EXP DUP2 SLOAD DUP2 PUSH1 0xFF MUL NOT AND SWAP1 DUP4 ISZERO ISZERO MUL OR SWAP1 SSTORE POP PUSH1 0x0 DUP2 PUSH1 0x2 ADD PUSH1 0x2 PUSH2 0x100 EXP DUP2 SLOAD DUP2 PUSH1 0xFF MUL NOT AND SWAP1 DUP4 ISZERO ISZERO MUL OR SWAP1 SSTORE POP POP JUMP JUMPDEST DUP2 PUSH1 0x2 ADD PUSH1 0x2 SWAP1 SLOAD SWAP1 PUSH2 0x100 EXP SWAP1 DIV PUSH1 0xFF AND DUP1 ISZERO PUSH2 0x71F JUMPI POP DUP1 PUSH1 0x2 ADD PUSH1 0x1 SWAP1 SLOAD SWAP1 PUSH2 0x100 EXP SWAP1 DIV PUSH1 0xFF AND JUMPDEST ISZERO PUSH2 0x768 JUMPI DUP2 PUSH1 0x0 ADD PUSH1 0x0 PUSH1 0x6 ADD SWAP1 DUP1 SLOAD PUSH2 0x739 SWAP1 PUSH2 0xD0D JUMP JUMPDEST PUSH2 0x744 SWAP3 SWAP2 SWAP1 PUSH2 0x85F JUMP JUMPDEST POP PUSH1 0x1 PUSH1 0x0 PUSH1 0x8 ADD PUSH1 0x0 PUSH2 0x100 EXP DUP2 SLOAD DUP2 PUSH1 0xFF MUL NOT AND SWAP1 DUP4 ISZERO ISZERO MUL OR SWAP1 SSTORE POP PUSH2 0x7DA JUMP JUMPDEST DUP1 PUSH1 0x2 ADD PUSH1 0x2 SWAP1 SLOAD SWAP1 PUSH2 0x100 EXP SWAP1 DIV PUSH1 0xFF AND DUP1 ISZERO PUSH2 0x794 JUMPI POP DUP2 PUSH1 0x2 ADD PUSH1 0x1 SWAP1 SLOAD SWAP1 PUSH2 0x100 EXP SWAP1 DIV PUSH1 0xFF AND JUMPDEST ISZERO PUSH2 0x7D9 JUMPI DUP1 PUSH1 0x0 ADD PUSH1 0x0 PUSH1 0x6 ADD SWAP1 DUP1 SLOAD PUSH2 0x7AE SWAP1 PUSH2 0xD0D JUMP JUMPDEST PUSH2 0x7B9 SWAP3 SWAP2 SWAP1 PUSH2 0x85F JUMP JUMPDEST POP PUSH1 0x1 PUSH1 0x0 PUSH1 0x8 ADD PUSH1 0x0 PUSH2 0x100 EXP DUP2 SLOAD DUP2 PUSH1 0xFF MUL NOT AND SWAP1 DUP4 ISZERO ISZERO MUL OR SWAP1 SSTORE POP JUMPDEST JUMPDEST PUSH1 0x0 DUP3 PUSH1 0x2 ADD PUSH1 0x0 PUSH2 0x100 EXP DUP2 SLOAD DUP2 PUSH1 0xFF MUL NOT AND SWAP1 DUP4 ISZERO ISZERO MUL OR SWAP1 SSTORE POP PUSH1 0x0 DUP2 PUSH1 0x2 ADD PUSH1 0x0 PUSH2 0x100 EXP DUP2 SLOAD DUP2 PUSH1 0xFF MUL NOT AND SWAP1 DUP4 ISZERO ISZERO MUL OR SWAP1 SSTORE POP PUSH1 0x0 DUP1 PUSH1 0x7 ADD DUP2 SWAP1 SSTORE POP POP POP JUMP JUMPDEST PUSH1 0x40 MLOAD DUP1 PUSH1 0xA0 ADD PUSH1 0x40 MSTORE DUP1 PUSH2 0x835 PUSH2 0x8EC JUMP JUMPDEST DUP2 MSTORE PUSH1 0x20 ADD PUSH2 0x842 PUSH2 0x8EC JUMP JUMPDEST DUP2 MSTORE PUSH1 0x20 ADD PUSH1 0x60 DUP2 MSTORE PUSH1 0x20 ADD PUSH1 0x0 DUP2 MSTORE PUSH1 0x20 ADD PUSH1 0x0 ISZERO ISZERO DUP2 MSTORE POP SWAP1 JUMP JUMPDEST DUP3 DUP1 SLOAD PUSH2 0x86B SWAP1 PUSH2 0xD0D JUMP JUMPDEST SWAP1 PUSH1 0x0 MSTORE PUSH1 0x20 PUSH1 0x0 KECCAK256 SWAP1 PUSH1 0x1F ADD PUSH1 0x20 SWAP1 DIV DUP2 ADD SWAP3 DUP3 PUSH2 0x88D JUMPI PUSH1 0x0 DUP6 SSTORE PUSH2 0x8DB JUMP JUMPDEST DUP3 PUSH1 0x1F LT PUSH2 0x89E JUMPI DUP1 SLOAD DUP6 SSTORE PUSH2 0x8DB JUMP JUMPDEST DUP3 DUP1 ADD PUSH1 0x1 ADD DUP6 SSTORE DUP3 ISZERO PUSH2 0x8DB JUMPI PUSH1 0x0 MSTORE PUSH1 0x20 PUSH1 0x0 KECCAK256 SWAP2 PUSH1 0x1F ADD PUSH1 0x20 SWAP1 DIV DUP3 ADD JUMPDEST DUP3 DUP2 GT ISZERO PUSH2 0x8DA JUMPI DUP3 SLOAD DUP3 SSTORE SWAP2 PUSH1 0x1 ADD SWAP2 SWAP1 PUSH1 0x1 ADD SWAP1 PUSH2 0x8BF JUMP JUMPDEST JUMPDEST POP SWAP1 POP PUSH2 0x8E8 SWAP2 SWAP1 PUSH2 0x921 JUMP JUMPDEST POP SWAP1 JUMP JUMPDEST PUSH1 0x40 MLOAD DUP1 PUSH1 0xA0 ADD PUSH1 0x40 MSTORE DUP1 PUSH1 0x60 DUP2 MSTORE PUSH1 0x20 ADD PUSH1 0x0 DUP2 MSTORE PUSH1 0x20 ADD PUSH1 0x0 ISZERO ISZERO DUP2 MSTORE PUSH1 0x20 ADD PUSH1 0x0 ISZERO ISZERO DUP2 MSTORE PUSH1 0x20 ADD PUSH1 0x0 ISZERO ISZERO DUP2 MSTORE POP SWAP1 JUMP JUMPDEST JUMPDEST DUP1 DUP3 GT ISZERO PUSH2 0x93A JUMPI PUSH1 0x0 DUP2 PUSH1 0x0 SWAP1 SSTORE POP PUSH1 0x1 ADD PUSH2 0x922 JUMP JUMPDEST POP SWAP1 JUMP JUMPDEST PUSH1 0x0 DUP2 CALLDATALOAD SWAP1 POP PUSH2 0x94D DUP2 PUSH2 0xF12 JUMP JUMPDEST SWAP3 SWAP2 POP POP JUMP JUMPDEST PUSH1 0x0 DUP1 PUSH1 0x40 DUP4 DUP6 SUB SLT ISZERO PUSH2 0x96A JUMPI PUSH2 0x969 PUSH2 0xDE6 JUMP JUMPDEST JUMPDEST PUSH1 0x0 PUSH2 0x978 DUP6 DUP3 DUP7 ADD PUSH2 0x93E JUMP JUMPDEST SWAP3 POP POP PUSH1 0x20 PUSH2 0x989 DUP6 DUP3 DUP7 ADD PUSH2 0x93E JUMP JUMPDEST SWAP2 POP POP SWAP3 POP SWAP3 SWAP1 POP JUMP JUMPDEST PUSH2 0x99C DUP2 PUSH2 0xC9A JUMP JUMPDEST DUP3 MSTORE POP POP JUMP JUMPDEST PUSH1 0x0 PUSH2 0x9AD DUP3 PUSH2 0xC6D JUMP JUMPDEST PUSH2 0x9B7 DUP2 DUP6 PUSH2 0xC78 JUMP JUMPDEST SWAP4 POP PUSH2 0x9C7 DUP2 DUP6 PUSH1 0x20 DUP7 ADD PUSH2 0xCB0 JUMP JUMPDEST PUSH2 0x9D0 DUP2 PUSH2 0xDEB JUMP JUMPDEST DUP5 ADD SWAP2 POP POP SWAP3 SWAP2 POP POP JUMP JUMPDEST PUSH1 0x0 PUSH2 0x9E6 DUP3 PUSH2 0xC6D JUMP JUMPDEST PUSH2 0x9F0 DUP2 DUP6 PUSH2 0xC89 JUMP JUMPDEST SWAP4 POP PUSH2 0xA00 DUP2 DUP6 PUSH1 0x20 DUP7 ADD PUSH2 0xCB0 JUMP JUMPDEST PUSH2 0xA09 DUP2 PUSH2 0xDEB JUMP JUMPDEST DUP5 ADD SWAP2 POP POP SWAP3 SWAP2 POP POP JUMP JUMPDEST PUSH1 0x0 PUSH2 0xA21 PUSH1 0x28 DUP4 PUSH2 0xC89 JUMP JUMPDEST SWAP2 POP PUSH2 0xA2C DUP3 PUSH2 0xDFC JUMP JUMPDEST PUSH1 0x40 DUP3 ADD SWAP1 POP SWAP2 SWAP1 POP JUMP JUMPDEST PUSH1 0x0 PUSH2 0xA44 PUSH1 0x2E DUP4 PUSH2 0xC89 JUMP JUMPDEST SWAP2 POP PUSH2 0xA4F DUP3 PUSH2 0xE4B JUMP JUMPDEST PUSH1 0x40 DUP3 ADD SWAP1 POP SWAP2 SWAP1 POP JUMP JUMPDEST PUSH1 0x0 PUSH2 0xA67 PUSH1 0x17 DUP4 PUSH2 0xC89 JUMP JUMPDEST SWAP2 POP PUSH2 0xA72 DUP3 PUSH2 0xE9A JUMP JUMPDEST PUSH1 0x20 DUP3 ADD SWAP1 POP SWAP2 SWAP1 POP JUMP JUMPDEST PUSH1 0x0 PUSH2 0xA8A PUSH1 0x24 DUP4 PUSH2 0xC89 JUMP JUMPDEST SWAP2 POP PUSH2 0xA95 DUP3 PUSH2 0xEC3 JUMP JUMPDEST PUSH1 0x40 DUP3 ADD SWAP1 POP SWAP2 SWAP1 POP JUMP JUMPDEST PUSH1 0x0 PUSH1 0xA0 DUP4 ADD PUSH1 0x0 DUP4 ADD MLOAD DUP5 DUP3 SUB PUSH1 0x0 DUP7 ADD MSTORE PUSH2 0xABD DUP3 DUP3 PUSH2 0xB24 JUMP JUMPDEST SWAP2 POP POP PUSH1 0x20 DUP4 ADD MLOAD DUP5 DUP3 SUB PUSH1 0x20 DUP7 ADD MSTORE PUSH2 0xAD7 DUP3 DUP3 PUSH2 0xB24 JUMP JUMPDEST SWAP2 POP POP PUSH1 0x40 DUP4 ADD MLOAD DUP5 DUP3 SUB PUSH1 0x40 DUP7 ADD MSTORE PUSH2 0xAF1 DUP3 DUP3 PUSH2 0x9A2 JUMP JUMPDEST SWAP2 POP POP PUSH1 0x60 DUP4 ADD MLOAD PUSH2 0xB06 PUSH1 0x60 DUP7 ADD DUP3 PUSH2 0xB9A JUMP JUMPDEST POP PUSH1 0x80 DUP4 ADD MLOAD PUSH2 0xB19 PUSH1 0x80 DUP7 ADD DUP3 PUSH2 0x993 JUMP JUMPDEST POP DUP1 SWAP2 POP POP SWAP3 SWAP2 POP POP JUMP JUMPDEST PUSH1 0x0 PUSH1 0xA0 DUP4 ADD PUSH1 0x0 DUP4 ADD MLOAD DUP5 DUP3 SUB PUSH1 0x0 DUP7 ADD MSTORE PUSH2 0xB41 DUP3 DUP3 PUSH2 0x9A2 JUMP JUMPDEST SWAP2 POP POP PUSH1 0x20 DUP4 ADD MLOAD PUSH2 0xB56 PUSH1 0x20 DUP7 ADD DUP3 PUSH2 0xB9A JUMP JUMPDEST POP PUSH1 0x40 DUP4 ADD MLOAD PUSH2 0xB69 PUSH1 0x40 DUP7 ADD DUP3 PUSH2 0x993 JUMP JUMPDEST POP PUSH1 0x60 DUP4 ADD MLOAD PUSH2 0xB7C PUSH1 0x60 DUP7 ADD DUP3 PUSH2 0x993 JUMP JUMPDEST POP PUSH1 0x80 DUP4 ADD MLOAD PUSH2 0xB8F PUSH1 0x80 DUP7 ADD DUP3 PUSH2 0x993 JUMP JUMPDEST POP DUP1 SWAP2 POP POP SWAP3 SWAP2 POP POP JUMP JUMPDEST PUSH2 0xBA3 DUP2 PUSH2 0xCA6 JUMP JUMPDEST DUP3 MSTORE POP POP JUMP JUMPDEST PUSH1 0x0 PUSH1 0x20 DUP3 ADD SWAP1 POP DUP2 DUP2 SUB PUSH1 0x0 DUP4 ADD MSTORE PUSH2 0xBC3 DUP2 DUP5 PUSH2 0x9DB JUMP JUMPDEST SWAP1 POP SWAP3 SWAP2 POP POP JUMP JUMPDEST PUSH1 0x0 PUSH1 0x20 DUP3 ADD SWAP1 POP DUP2 DUP2 SUB PUSH1 0x0 DUP4 ADD MSTORE PUSH2 0xBE4 DUP2 PUSH2 0xA14 JUMP JUMPDEST SWAP1 POP SWAP2 SWAP1 POP JUMP JUMPDEST PUSH1 0x0 PUSH1 0x20 DUP3 ADD SWAP1 POP DUP2 DUP2 SUB PUSH1 0x0 DUP4 ADD MSTORE PUSH2 0xC04 DUP2 PUSH2 0xA37 JUMP JUMPDEST SWAP1 POP SWAP2 SWAP1 POP JUMP JUMPDEST PUSH1 0x0 PUSH1 0x20 DUP3 ADD SWAP1 POP DUP2 DUP2 SUB PUSH1 0x0 DUP4 ADD MSTORE PUSH2 0xC24 DUP2 PUSH2 0xA5A JUMP JUMPDEST SWAP1 POP SWAP2 SWAP1 POP JUMP JUMPDEST PUSH1 0x0 PUSH1 0x20 DUP3 ADD SWAP1 POP DUP2 DUP2 SUB PUSH1 0x0 DUP4 ADD MSTORE PUSH2 0xC44 DUP2 PUSH2 0xA7D JUMP JUMPDEST SWAP1 POP SWAP2 SWAP1 POP JUMP JUMPDEST PUSH1 0x0 PUSH1 0x20 DUP3 ADD SWAP1 POP DUP2 DUP2 SUB PUSH1 0x0 DUP4 ADD MSTORE PUSH2 0xC65 DUP2 DUP5 PUSH2 0xAA0 JUMP JUMPDEST SWAP1 POP SWAP3 SWAP2 POP POP JUMP JUMPDEST PUSH1 0x0 DUP2 MLOAD SWAP1 POP SWAP2 SWAP1 POP JUMP JUMPDEST PUSH1 0x0 DUP3 DUP3 MSTORE PUSH1 0x20 DUP3 ADD SWAP1 POP SWAP3 SWAP2 POP POP JUMP JUMPDEST PUSH1 0x0 DUP3 DUP3 MSTORE PUSH1 0x20 DUP3 ADD SWAP1 POP SWAP3 SWAP2 POP POP JUMP JUMPDEST PUSH1 0x0 DUP2 ISZERO ISZERO SWAP1 POP SWAP2 SWAP1 POP JUMP JUMPDEST PUSH1 0x0 DUP2 SWAP1 POP SWAP2 SWAP1 POP JUMP JUMPDEST PUSH1 0x0 JUMPDEST DUP4 DUP2 LT ISZERO PUSH2 0xCCE JUMPI DUP1 DUP3 ADD MLOAD DUP2 DUP5 ADD MSTORE PUSH1 0x20 DUP2 ADD SWAP1 POP PUSH2 0xCB3 JUMP JUMPDEST DUP4 DUP2 GT ISZERO PUSH2 0xCDD JUMPI PUSH1 0x0 DUP5 DUP5 ADD MSTORE JUMPDEST POP POP POP POP JUMP JUMPDEST PUSH1 0x0 PUSH2 0xCEE DUP3 PUSH2 0xCA6 JUMP JUMPDEST SWAP2 POP PUSH1 0x0 DUP3 EQ ISZERO PUSH2 0xD02 JUMPI PUSH2 0xD01 PUSH2 0xD88 JUMP JUMPDEST JUMPDEST PUSH1 0x1 DUP3 SUB SWAP1 POP SWAP2 SWAP1 POP JUMP JUMPDEST PUSH1 0x0 PUSH1 0x2 DUP3 DIV SWAP1 POP PUSH1 0x1 DUP3 AND DUP1 PUSH2 0xD25 JUMPI PUSH1 0x7F DUP3 AND SWAP2 POP JUMPDEST PUSH1 0x20 DUP3 LT DUP2 EQ ISZERO PUSH2 0xD39 JUMPI PUSH2 0xD38 PUSH2 0xDB7 JUMP JUMPDEST JUMPDEST POP SWAP2 SWAP1 POP JUMP JUMPDEST PUSH1 0x0 PUSH2 0xD4A DUP3 PUSH2 0xCA6 JUMP JUMPDEST SWAP2 POP PUSH32 0xFFFFFFFFFFFFFFFFFFFFFFFFFFFFFFFFFFFFFFFFFFFFFFFFFFFFFFFFFFFFFFFF DUP3 EQ ISZERO PUSH2 0xD7D JUMPI PUSH2 0xD7C PUSH2 0xD88 JUMP JUMPDEST JUMPDEST PUSH1 0x1 DUP3 ADD SWAP1 POP SWAP2 SWAP1 POP JUMP JUMPDEST PUSH32 0x4E487B7100000000000000000000000000000000000000000000000000000000 PUSH1 0x0 MSTORE PUSH1 0x11 PUSH1 0x4 MSTORE PUSH1 0x24 PUSH1 0x0 REVERT JUMPDEST PUSH32 0x4E487B7100000000000000000000000000000000000000000000000000000000 PUSH1 0x0 MSTORE PUSH1 0x22 PUSH1 0x4 MSTORE PUSH1 0x24 PUSH1 0x0 REVERT JUMPDEST PUSH1 0x0 DUP1 REVERT JUMPDEST PUSH1 0x0 PUSH1 0x1F NOT PUSH1 0x1F DUP4 ADD AND SWAP1 POP SWAP2 SWAP1 POP JUMP JUMPDEST PUSH32 0x436F77626F792068617320616C72656164792074616B656E207475726E207468 PUSH1 0x0 DUP3 ADD MSTORE PUSH32 0x697320726F756E64000000000000000000000000000000000000000000000000 PUSH1 0x20 DUP3 ADD MSTORE POP JUMP JUMPDEST PUSH32 0x5468652067616D65206973206F76657220796F757220636F77626F792063616E PUSH1 0x0 DUP3 ADD MSTORE PUSH32 0x27742074616B65207475726E732E000000000000000000000000000000000000 PUSH1 0x20 DUP3 ADD MSTORE POP JUMP JUMPDEST PUSH32 0x5468657265206973206E6F2077696E6E6572207965742E000000000000000000 PUSH1 0x0 DUP3 ADD MSTORE POP JUMP JUMPDEST PUSH32 0x596F757220636F77626F792063616E27742073686F6F7420776974686F757420 PUSH1 0x0 DUP3 ADD MSTORE PUSH32 0x616D6D6F00000000000000000000000000000000000000000000000000000000 PUSH1 0x20 DUP3 ADD MSTORE POP JUMP JUMPDEST PUSH2 0xF1B DUP2 PUSH2 0xCA6 JUMP JUMPDEST DUP2 EQ PUSH2 0xF26 JUMPI PUSH1 0x0 DUP1 REVERT JUMPDEST POP JUMP INVALID LOG2 PUSH5 0x6970667358 0x22 SLT KECCAK256 0x2F 0xD1 EQ COINBASE 0xE5 DIV 0x21 0xA9 SWAP7 0xE5 LOG2 0xD9 PUSH14 0x15E9FDC18D46D38770876AC67684 MOD LOG1 PUSH22 0xBCA964736F6C63430008070033000000000000000000 "
    },
    "gasEstimates": {
      "creation": {
        "codeDepositCost": "787000",
        "executionCost": "infinite",
        "totalCost": "infinite"
      },
      "external": {
        "getBattle()": "infinite",
        "getWinner()": "infinite",
        "takeTurn(uint256,uint256)": "infinite"
      },
      "internal": {
        "dodge(struct BattleHandler.Cowboy storage pointer)": "48657",
        "finishTurn(struct BattleHandler.Cowboy storage pointer,struct BattleHandler.Cowboy storage pointer)": "infinite",
        "reload(struct BattleHandler.Cowboy storage pointer)": "73023",
        "shoot(struct BattleHandler.Cowboy storage pointer)": "infinite"
      }
    },
    "methodIdentifiers": {
      "getBattle()": "d7aacb3e",
      "getWinner()": "8e7ea5b2",
      "takeTurn(uint256,uint256)": "f711f7ed"
    }
  },
  "storageLayout": {
    "storage": [
      {
        "astId": 28,
        "contract": "BattleHandler.sol:BattleHandler",
        "label": "battle",
        "offset": 0,
        "slot": "0",
        "type": "t_struct(Battle)14_storage"
      }
    ],
    "types": {
      "t_bool": {
        "encoding": "inplace",
        "label": "bool",
        "numberOfBytes": "1"
      },
      "t_string_storage": {
        "encoding": "bytes",
        "label": "string",
        "numberOfBytes": "32"
      },
      "t_struct(Battle)14_storage": {
        "encoding": "inplace",
        "label": "struct BattleHandler.Battle",
        "members": [
          {
            "astId": 4,
            "contract": "BattleHandler.sol:BattleHandler",
            "label": "cowboy1",
            "offset": 0,
            "slot": "0",
            "type": "t_struct(Cowboy)25_storage"
          },
          {
            "astId": 7,
            "contract": "BattleHandler.sol:BattleHandler",
            "label": "cowboy2",
            "offset": 0,
            "slot": "3",
            "type": "t_struct(Cowboy)25_storage"
          },
          {
            "astId": 9,
            "contract": "BattleHandler.sol:BattleHandler",
            "label": "winner",
            "offset": 0,
            "slot": "6",
            "type": "t_string_storage"
          },
          {
            "astId": 11,
            "contract": "BattleHandler.sol:BattleHandler",
            "label": "turnCounter",
            "offset": 0,
            "slot": "7",
            "type": "t_uint256"
          },
          {
            "astId": 13,
            "contract": "BattleHandler.sol:BattleHandler",
            "label": "gameOver",
            "offset": 0,
            "slot": "8",
            "type": "t_bool"
          }
        ],
        "numberOfBytes": "288"
      },
      "t_struct(Cowboy)25_storage": {
        "encoding": "inplace",
        "label": "struct BattleHandler.Cowboy",
        "members": [
          {
            "astId": 16,
            "contract": "BattleHandler.sol:BattleHandler",
            "label": "name",
            "offset": 0,
            "slot": "0",
            "type": "t_string_storage"
          },
          {
            "astId": 18,
            "contract": "BattleHandler.sol:BattleHandler",
            "label": "shots",
            "offset": 0,
            "slot": "1",
            "type": "t_uint256"
          },
          {
            "astId": 20,
            "contract": "BattleHandler.sol:BattleHandler",
            "label": "takenTurn",
            "offset": 0,
            "slot": "2",
            "type": "t_bool"
          },
          {
            "astId": 22,
            "contract": "BattleHandler.sol:BattleHandler",
            "label": "reloading",
            "offset": 1,
            "slot": "2",
            "type": "t_bool"
          },
          {
            "astId": 24,
            "contract": "BattleHandler.sol:BattleHandler",
            "label": "shooting",
            "offset": 2,
            "slot": "2",
            "type": "t_bool"
          }
        ],
        "numberOfBytes": "96"
      },
      "t_uint256": {
        "encoding": "inplace",
        "label": "uint256",
        "numberOfBytes": "32"
      }
    }
  },
  "userdoc": {
    "kind": "user",
    "methods": {},
    "version": 1
  }
}