{
  "abi": [
    {
      "inputs": [],
      "stateMutability": "nonpayable",
      "type": "constructor"
    },
    {
      "inputs": [],
      "name": "getWinner",
      "outputs": [
        {
          "internalType": "string",
          "name": "",
          "type": "string"
        }
      ],
      "stateMutability": "view",
      "type": "function"
    },
    {
      "inputs": [
        {
          "internalType": "uint256",
          "name": "command",
          "type": "uint256"
        },
        {
          "internalType": "uint256",
          "name": "cowboyId",
          "type": "uint256"
        }
      ],
      "name": "takeTurn",
      "outputs": [],
      "stateMutability": "nonpayable",
      "type": "function"
    }
  ],
  "devdoc": {
    "kind": "dev",
    "methods": {},
    "version": 1
  },
  "evm": {
    "assembly": "    /* \"BattleHandler.sol\":74:2783  contract BattleHandler {\r... */\n  mstore(0x40, 0x80)\n    /* \"BattleHandler.sol\":428:652  constructor() {\r... */\n  callvalue\n  dup1\n  iszero\n  tag_1\n  jumpi\n  0x00\n  dup1\n  revert\ntag_1:\n  pop\n    /* \"BattleHandler.sol\":453:474  Cowboy memory cowboy1 */\n  0x00\n    /* \"BattleHandler.sol\":477:514  Cowboy(\"uno\", 0, false, false, false) */\n  mload(0x40)\n  dup1\n  0xa0\n  add\n  0x40\n  mstore\n  dup1\n  mload(0x40)\n  dup1\n  0x40\n  add\n  0x40\n  mstore\n  dup1\n  0x03\n  dup2\n  mstore\n  0x20\n  add\n  0x756e6f0000000000000000000000000000000000000000000000000000000000\n  dup2\n  mstore\n  pop\n  dup2\n  mstore\n  0x20\n  add\n    /* \"BattleHandler.sol\":491:492  0 */\n  0x00\n    /* \"BattleHandler.sol\":477:514  Cowboy(\"uno\", 0, false, false, false) */\n  dup2\n  mstore\n  0x20\n  add\n    /* \"BattleHandler.sol\":494:499  false */\n  0x00\n    /* \"BattleHandler.sol\":477:514  Cowboy(\"uno\", 0, false, false, false) */\n  iszero\n  iszero\n  dup2\n  mstore\n  0x20\n  add\n    /* \"BattleHandler.sol\":501:506  false */\n  0x00\n    /* \"BattleHandler.sol\":477:514  Cowboy(\"uno\", 0, false, false, false) */\n  iszero\n  iszero\n  dup2\n  mstore\n  0x20\n  add\n    /* \"BattleHandler.sol\":508:513  false */\n  0x00\n    /* \"BattleHandler.sol\":477:514  Cowboy(\"uno\", 0, false, false, false) */\n  iszero\n  iszero\n  dup2\n  mstore\n  pop\n    /* \"BattleHandler.sol\":453:514  Cowboy memory cowboy1 = Cowboy(\"uno\", 0, false, false, false) */\n  swap1\n  pop\n    /* \"BattleHandler.sol\":525:546  Cowboy memory cowboy2 */\n  0x00\n    /* \"BattleHandler.sol\":549:586  Cowboy(\"dos\", 0, false, false, false) */\n  mload(0x40)\n  dup1\n  0xa0\n  add\n  0x40\n  mstore\n  dup1\n  mload(0x40)\n  dup1\n  0x40\n  add\n  0x40\n  mstore\n  dup1\n  0x03\n  dup2\n  mstore\n  0x20\n  add\n  0x646f730000000000000000000000000000000000000000000000000000000000\n  dup2\n  mstore\n  pop\n  dup2\n  mstore\n  0x20\n  add\n    /* \"BattleHandler.sol\":563:564  0 */\n  0x00\n    /* \"BattleHandler.sol\":549:586  Cowboy(\"dos\", 0, false, false, false) */\n  dup2\n  mstore\n  0x20\n  add\n    /* \"BattleHandler.sol\":566:571  false */\n  0x00\n    /* \"BattleHandler.sol\":549:586  Cowboy(\"dos\", 0, false, false, false) */\n  iszero\n  iszero\n  dup2\n  mstore\n  0x20\n  add\n    /* \"BattleHandler.sol\":573:578  false */\n  0x00\n    /* \"BattleHandler.sol\":549:586  Cowboy(\"dos\", 0, false, false, false) */\n  iszero\n  iszero\n  dup2\n  mstore\n  0x20\n  add\n    /* \"BattleHandler.sol\":580:585  false */\n  0x00\n    /* \"BattleHandler.sol\":549:586  Cowboy(\"dos\", 0, false, false, false) */\n  iszero\n  iszero\n  dup2\n  mstore\n  pop\n    /* \"BattleHandler.sol\":525:586  Cowboy memory cowboy2 = Cowboy(\"dos\", 0, false, false, false) */\n  swap1\n  pop\n    /* \"BattleHandler.sol\":606:644  Battle(cowboy1, cowboy2, \"\", 0, false) */\n  mload(0x40)\n  dup1\n  0xa0\n  add\n  0x40\n  mstore\n  dup1\n    /* \"BattleHandler.sol\":613:620  cowboy1 */\n  dup4\n    /* \"BattleHandler.sol\":606:644  Battle(cowboy1, cowboy2, \"\", 0, false) */\n  dup2\n  mstore\n  0x20\n  add\n    /* \"BattleHandler.sol\":622:629  cowboy2 */\n  dup3\n    /* \"BattleHandler.sol\":606:644  Battle(cowboy1, cowboy2, \"\", 0, false) */\n  dup2\n  mstore\n  0x20\n  add\n  mload(0x40)\n  dup1\n  0x20\n  add\n  0x40\n  mstore\n  dup1\n  0x00\n  dup2\n  mstore\n  pop\n  dup2\n  mstore\n  0x20\n  add\n    /* \"BattleHandler.sol\":635:636  0 */\n  0x00\n    /* \"BattleHandler.sol\":606:644  Battle(cowboy1, cowboy2, \"\", 0, false) */\n  dup2\n  mstore\n  0x20\n  add\n    /* \"BattleHandler.sol\":638:643  false */\n  0x00\n    /* \"BattleHandler.sol\":606:644  Battle(cowboy1, cowboy2, \"\", 0, false) */\n  iszero\n  iszero\n  dup2\n  mstore\n  pop\n    /* \"BattleHandler.sol\":597:603  battle */\n  0x00\n    /* \"BattleHandler.sol\":597:644  battle = Battle(cowboy1, cowboy2, \"\", 0, false) */\n  dup1\n  dup3\n  add\n  mload\n  dup2\n  0x00\n  add\n  0x00\n  dup3\n  add\n  mload\n  dup2\n  0x00\n  add\n  swap1\n  dup1\n  mload\n  swap1\n  0x20\n  add\n  swap1\n  tag_4\n  swap3\n  swap2\n  swap1\n  tag_5\n  jump\t// in\ntag_4:\n  pop\n  0x20\n  dup3\n  add\n  mload\n  dup2\n  0x01\n  add\n  sstore\n  0x40\n  dup3\n  add\n  mload\n  dup2\n  0x02\n  add\n  exp(0x0100, 0x00)\n  dup2\n  sload\n  dup2\n  0xff\n  mul\n  not\n  and\n  swap1\n  dup4\n  iszero\n  iszero\n  mul\n  or\n  swap1\n  sstore\n  pop\n  0x60\n  dup3\n  add\n  mload\n  dup2\n  0x02\n  add\n  exp(0x0100, 0x01)\n  dup2\n  sload\n  dup2\n  0xff\n  mul\n  not\n  and\n  swap1\n  dup4\n  iszero\n  iszero\n  mul\n  or\n  swap1\n  sstore\n  pop\n  0x80\n  dup3\n  add\n  mload\n  dup2\n  0x02\n  add\n  exp(0x0100, 0x02)\n  dup2\n  sload\n  dup2\n  0xff\n  mul\n  not\n  and\n  swap1\n  dup4\n  iszero\n  iszero\n  mul\n  or\n  swap1\n  sstore\n  pop\n  pop\n  pop\n  0x20\n  dup3\n  add\n  mload\n  dup2\n  0x03\n  add\n  0x00\n  dup3\n  add\n  mload\n  dup2\n  0x00\n  add\n  swap1\n  dup1\n  mload\n  swap1\n  0x20\n  add\n  swap1\n  tag_6\n  swap3\n  swap2\n  swap1\n  tag_5\n  jump\t// in\ntag_6:\n  pop\n  0x20\n  dup3\n  add\n  mload\n  dup2\n  0x01\n  add\n  sstore\n  0x40\n  dup3\n  add\n  mload\n  dup2\n  0x02\n  add\n  exp(0x0100, 0x00)\n  dup2\n  sload\n  dup2\n  0xff\n  mul\n  not\n  and\n  swap1\n  dup4\n  iszero\n  iszero\n  mul\n  or\n  swap1\n  sstore\n  pop\n  0x60\n  dup3\n  add\n  mload\n  dup2\n  0x02\n  add\n  exp(0x0100, 0x01)\n  dup2\n  sload\n  dup2\n  0xff\n  mul\n  not\n  and\n  swap1\n  dup4\n  iszero\n  iszero\n  mul\n  or\n  swap1\n  sstore\n  pop\n  0x80\n  dup3\n  add\n  mload\n  dup2\n  0x02\n  add\n  exp(0x0100, 0x02)\n  dup2\n  sload\n  dup2\n  0xff\n  mul\n  not\n  and\n  swap1\n  dup4\n  iszero\n  iszero\n  mul\n  or\n  swap1\n  sstore\n  pop\n  pop\n  pop\n  0x40\n  dup3\n  add\n  mload\n  dup2\n  0x06\n  add\n  swap1\n  dup1\n  mload\n  swap1\n  0x20\n  add\n  swap1\n  tag_7\n  swap3\n  swap2\n  swap1\n  tag_5\n  jump\t// in\ntag_7:\n  pop\n  0x60\n  dup3\n  add\n  mload\n  dup2\n  0x07\n  add\n  sstore\n  0x80\n  dup3\n  add\n  mload\n  dup2\n  0x08\n  add\n  exp(0x0100, 0x00)\n  dup2\n  sload\n  dup2\n  0xff\n  mul\n  not\n  and\n  swap1\n  dup4\n  iszero\n  iszero\n  mul\n  or\n  swap1\n  sstore\n  pop\n  swap1\n  pop\n  pop\n    /* \"BattleHandler.sol\":442:652  {\r... */\n  pop\n  pop\n    /* \"BattleHandler.sol\":74:2783  contract BattleHandler {\r... */\n  jump(tag_8)\ntag_5:\n  dup3\n  dup1\n  sload\n  tag_9\n  swap1\n  tag_10\n  jump\t// in\ntag_9:\n  swap1\n  0x00\n  mstore\n  keccak256(0x00, 0x20)\n  swap1\n  0x1f\n  add\n  0x20\n  swap1\n  div\n  dup2\n  add\n  swap3\n  dup3\n  tag_12\n  jumpi\n  0x00\n  dup6\n  sstore\n  jump(tag_11)\ntag_12:\n  dup3\n  0x1f\n  lt\n  tag_13\n  jumpi\n  dup1\n  mload\n  not(0xff)\n  and\n  dup4\n  dup1\n  add\n  or\n  dup6\n  sstore\n  jump(tag_11)\ntag_13:\n  dup3\n  dup1\n  add\n  0x01\n  add\n  dup6\n  sstore\n  dup3\n  iszero\n  tag_11\n  jumpi\n  swap2\n  dup3\n  add\ntag_14:\n  dup3\n  dup2\n  gt\n  iszero\n  tag_15\n  jumpi\n  dup3\n  mload\n  dup3\n  sstore\n  swap2\n  0x20\n  add\n  swap2\n  swap1\n  0x01\n  add\n  swap1\n  jump(tag_14)\ntag_15:\ntag_11:\n  pop\n  swap1\n  pop\n  tag_16\n  swap2\n  swap1\n  tag_17\n  jump\t// in\ntag_16:\n  pop\n  swap1\n  jump\t// out\ntag_17:\ntag_18:\n  dup1\n  dup3\n  gt\n  iszero\n  tag_19\n  jumpi\n  0x00\n  dup2\n  0x00\n  swap1\n  sstore\n  pop\n  0x01\n  add\n  jump(tag_18)\ntag_19:\n  pop\n  swap1\n  jump\t// out\n    /* \"#utility.yul\":7:327   */\ntag_10:\n    /* \"#utility.yul\":51:57   */\n  0x00\n    /* \"#utility.yul\":88:89   */\n  0x02\n    /* \"#utility.yul\":82:86   */\n  dup3\n    /* \"#utility.yul\":78:90   */\n  div\n    /* \"#utility.yul\":68:90   */\n  swap1\n  pop\n    /* \"#utility.yul\":135:136   */\n  0x01\n    /* \"#utility.yul\":129:133   */\n  dup3\n    /* \"#utility.yul\":125:137   */\n  and\n    /* \"#utility.yul\":156:174   */\n  dup1\n    /* \"#utility.yul\":146:227   */\n  tag_22\n  jumpi\n    /* \"#utility.yul\":212:216   */\n  0x7f\n    /* \"#utility.yul\":204:210   */\n  dup3\n    /* \"#utility.yul\":200:217   */\n  and\n    /* \"#utility.yul\":190:217   */\n  swap2\n  pop\n    /* \"#utility.yul\":146:227   */\ntag_22:\n    /* \"#utility.yul\":274:276   */\n  0x20\n    /* \"#utility.yul\":266:272   */\n  dup3\n    /* \"#utility.yul\":263:277   */\n  lt\n    /* \"#utility.yul\":243:261   */\n  dup2\n    /* \"#utility.yul\":240:278   */\n  eq\n    /* \"#utility.yul\":237:321   */\n  iszero\n  tag_23\n  jumpi\n    /* \"#utility.yul\":293:311   */\n  tag_24\n  tag_25\n  jump\t// in\ntag_24:\n    /* \"#utility.yul\":237:321   */\ntag_23:\n    /* \"#utility.yul\":58:327   */\n  pop\n    /* \"#utility.yul\":7:327   */\n  swap2\n  swap1\n  pop\n  jump\t// out\n    /* \"#utility.yul\":333:513   */\ntag_25:\n    /* \"#utility.yul\":381:458   */\n  0x4e487b7100000000000000000000000000000000000000000000000000000000\n    /* \"#utility.yul\":378:379   */\n  0x00\n    /* \"#utility.yul\":371:459   */\n  mstore\n    /* \"#utility.yul\":478:482   */\n  0x22\n    /* \"#utility.yul\":475:476   */\n  0x04\n    /* \"#utility.yul\":468:483   */\n  mstore\n    /* \"#utility.yul\":502:506   */\n  0x24\n    /* \"#utility.yul\":499:500   */\n  0x00\n    /* \"#utility.yul\":492:507   */\n  revert\n    /* \"BattleHandler.sol\":74:2783  contract BattleHandler {\r... */\ntag_8:\n  dataSize(sub_0)\n  dup1\n  dataOffset(sub_0)\n  0x00\n  codecopy\n  0x00\n  return\nstop\n\nsub_0: assembly {\n        /* \"BattleHandler.sol\":74:2783  contract BattleHandler {\r... */\n      mstore(0x40, 0x80)\n      callvalue\n      dup1\n      iszero\n      tag_1\n      jumpi\n      0x00\n      dup1\n      revert\n    tag_1:\n      pop\n      jumpi(tag_2, lt(calldatasize, 0x04))\n      shr(0xe0, calldataload(0x00))\n      dup1\n      0x8e7ea5b2\n      eq\n      tag_3\n      jumpi\n      dup1\n      0xf711f7ed\n      eq\n      tag_4\n      jumpi\n    tag_2:\n      0x00\n      dup1\n      revert\n        /* \"BattleHandler.sol\":660:817  function getWinner() public view returns(string memory) {\r... */\n    tag_3:\n      tag_5\n      tag_6\n      jump\t// in\n    tag_5:\n      mload(0x40)\n      tag_7\n      swap2\n      swap1\n      tag_8\n      jump\t// in\n    tag_7:\n      mload(0x40)\n      dup1\n      swap2\n      sub\n      swap1\n      return\n        /* \"BattleHandler.sol\":825:1683  function takeTurn(uint command, uint cowboyId) public {\r... */\n    tag_4:\n      tag_9\n      0x04\n      dup1\n      calldatasize\n      sub\n      dup2\n      add\n      swap1\n      tag_10\n      swap2\n      swap1\n      tag_11\n      jump\t// in\n    tag_10:\n      tag_12\n      jump\t// in\n    tag_9:\n      stop\n        /* \"BattleHandler.sol\":660:817  function getWinner() public view returns(string memory) {\r... */\n    tag_6:\n        /* \"BattleHandler.sol\":701:714  string memory */\n      0x60\n        /* \"BattleHandler.sol\":735:741  battle */\n      0x00\n        /* \"BattleHandler.sol\":735:750  battle.gameOver */\n      0x08\n      add\n      0x00\n      swap1\n      sload\n      swap1\n      0x0100\n      exp\n      swap1\n      div\n      0xff\n      and\n        /* \"BattleHandler.sol\":727:778  require(battle.gameOver, \"There is no winner yet.\") */\n      tag_14\n      jumpi\n      mload(0x40)\n      0x08c379a000000000000000000000000000000000000000000000000000000000\n      dup2\n      mstore\n      0x04\n      add\n      tag_15\n      swap1\n      tag_16\n      jump\t// in\n    tag_15:\n      mload(0x40)\n      dup1\n      swap2\n      sub\n      swap1\n      revert\n    tag_14:\n        /* \"BattleHandler.sol\":796:802  battle */\n      0x00\n        /* \"BattleHandler.sol\":796:809  battle.winner */\n      0x06\n      add\n        /* \"BattleHandler.sol\":789:809  return battle.winner */\n      dup1\n      sload\n      tag_17\n      swap1\n      tag_18\n      jump\t// in\n    tag_17:\n      dup1\n      0x1f\n      add\n      0x20\n      dup1\n      swap2\n      div\n      mul\n      0x20\n      add\n      mload(0x40)\n      swap1\n      dup2\n      add\n      0x40\n      mstore\n      dup1\n      swap3\n      swap2\n      swap1\n      dup2\n      dup2\n      mstore\n      0x20\n      add\n      dup3\n      dup1\n      sload\n      tag_19\n      swap1\n      tag_18\n      jump\t// in\n    tag_19:\n      dup1\n      iszero\n      tag_20\n      jumpi\n      dup1\n      0x1f\n      lt\n      tag_21\n      jumpi\n      0x0100\n      dup1\n      dup4\n      sload\n      div\n      mul\n      dup4\n      mstore\n      swap2\n      0x20\n      add\n      swap2\n      jump(tag_20)\n    tag_21:\n      dup3\n      add\n      swap2\n      swap1\n      0x00\n      mstore\n      keccak256(0x00, 0x20)\n      swap1\n    tag_22:\n      dup2\n      sload\n      dup2\n      mstore\n      swap1\n      0x01\n      add\n      swap1\n      0x20\n      add\n      dup1\n      dup4\n      gt\n      tag_22\n      jumpi\n      dup3\n      swap1\n      sub\n      0x1f\n      and\n      dup3\n      add\n      swap2\n    tag_20:\n      pop\n      pop\n      pop\n      pop\n      pop\n      swap1\n      pop\n        /* \"BattleHandler.sol\":660:817  function getWinner() public view returns(string memory) {\r... */\n      swap1\n      jump\t// out\n        /* \"BattleHandler.sol\":825:1683  function takeTurn(uint command, uint cowboyId) public {\r... */\n    tag_12:\n        /* \"BattleHandler.sol\":899:905  battle */\n      0x00\n        /* \"BattleHandler.sol\":899:914  battle.gameOver */\n      0x08\n      add\n      0x00\n      swap1\n      sload\n      swap1\n      0x0100\n      exp\n      swap1\n      div\n      0xff\n      and\n        /* \"BattleHandler.sol\":898:914  !battle.gameOver */\n      iszero\n        /* \"BattleHandler.sol\":890:965  require(!battle.gameOver, \"The game is over your cowboy can't take turns.\") */\n      tag_24\n      jumpi\n      mload(0x40)\n      0x08c379a000000000000000000000000000000000000000000000000000000000\n      dup2\n      mstore\n      0x04\n      add\n      tag_25\n      swap1\n      tag_26\n      jump\t// in\n    tag_25:\n      mload(0x40)\n      dup1\n      swap2\n      sub\n      swap1\n      revert\n    tag_24:\n        /* \"BattleHandler.sol\":976:997  Cowboy storage cowboy */\n      0x00\n        /* \"BattleHandler.sol\":1024:1025  1 */\n      0x01\n        /* \"BattleHandler.sol\":1012:1020  cowboyId */\n      dup3\n        /* \"BattleHandler.sol\":1012:1025  cowboyId == 1 */\n      eq\n        /* \"BattleHandler.sol\":1008:1132  if (cowboyId == 1){\r... */\n      iszero\n      tag_27\n      jumpi\n        /* \"BattleHandler.sol\":1050:1056  battle */\n      0x00\n        /* \"BattleHandler.sol\":1050:1064  battle.cowboy1 */\n      dup1\n      add\n        /* \"BattleHandler.sol\":1041:1064  cowboy = battle.cowboy1 */\n      swap1\n      pop\n        /* \"BattleHandler.sol\":1008:1132  if (cowboyId == 1){\r... */\n      jump(tag_28)\n    tag_27:\n        /* \"BattleHandler.sol\":1106:1112  battle */\n      0x00\n        /* \"BattleHandler.sol\":1106:1120  battle.cowboy2 */\n      0x03\n      add\n        /* \"BattleHandler.sol\":1097:1120  cowboy = battle.cowboy2 */\n      swap1\n      pop\n        /* \"BattleHandler.sol\":1008:1132  if (cowboyId == 1){\r... */\n    tag_28:\n        /* \"BattleHandler.sol\":1151:1157  cowboy */\n      dup1\n        /* \"BattleHandler.sol\":1151:1167  cowboy.takenTurn */\n      0x02\n      add\n      0x00\n      swap1\n      sload\n      swap1\n      0x0100\n      exp\n      swap1\n      div\n      0xff\n      and\n        /* \"BattleHandler.sol\":1150:1167  !cowboy.takenTurn */\n      iszero\n        /* \"BattleHandler.sol\":1142:1212  require(!cowboy.takenTurn, \"Cowboy has already taken turn this round\") */\n      tag_29\n      jumpi\n      mload(0x40)\n      0x08c379a000000000000000000000000000000000000000000000000000000000\n      dup2\n      mstore\n      0x04\n      add\n      tag_30\n      swap1\n      tag_31\n      jump\t// in\n    tag_30:\n      mload(0x40)\n      dup1\n      swap2\n      sub\n      swap1\n      revert\n    tag_29:\n        /* \"BattleHandler.sol\":1240:1241  0 */\n      0x00\n        /* \"BattleHandler.sol\":1229:1236  command */\n      dup4\n        /* \"BattleHandler.sol\":1229:1241  command == 0 */\n      eq\n        /* \"BattleHandler.sol\":1225:1452  if (command == 0) {\r... */\n      iszero\n      tag_32\n      jumpi\n        /* \"BattleHandler.sol\":1258:1272  reload(cowboy) */\n      tag_33\n        /* \"BattleHandler.sol\":1265:1271  cowboy */\n      dup2\n        /* \"BattleHandler.sol\":1258:1264  reload */\n      tag_34\n        /* \"BattleHandler.sol\":1258:1272  reload(cowboy) */\n      jump\t// in\n    tag_33:\n        /* \"BattleHandler.sol\":1225:1452  if (command == 0) {\r... */\n      jump(tag_35)\n    tag_32:\n        /* \"BattleHandler.sol\":1305:1306  1 */\n      0x01\n        /* \"BattleHandler.sol\":1294:1301  command */\n      dup4\n        /* \"BattleHandler.sol\":1294:1306  command == 1 */\n      eq\n        /* \"BattleHandler.sol\":1290:1452  if (command == 1) {\r... */\n      iszero\n      tag_36\n      jumpi\n        /* \"BattleHandler.sol\":1323:1336  shoot(cowboy) */\n      tag_37\n        /* \"BattleHandler.sol\":1329:1335  cowboy */\n      dup2\n        /* \"BattleHandler.sol\":1323:1328  shoot */\n      tag_38\n        /* \"BattleHandler.sol\":1323:1336  shoot(cowboy) */\n      jump\t// in\n    tag_37:\n        /* \"BattleHandler.sol\":1290:1452  if (command == 1) {\r... */\n      jump(tag_39)\n    tag_36:\n        /* \"BattleHandler.sol\":1369:1370  2 */\n      0x02\n        /* \"BattleHandler.sol\":1358:1365  command */\n      dup4\n        /* \"BattleHandler.sol\":1358:1370  command == 2 */\n      eq\n        /* \"BattleHandler.sol\":1354:1452  if (command == 2) {\r... */\n      iszero\n      tag_40\n      jumpi\n        /* \"BattleHandler.sol\":1387:1400  dodge(cowboy) */\n      tag_41\n        /* \"BattleHandler.sol\":1393:1399  cowboy */\n      dup2\n        /* \"BattleHandler.sol\":1387:1392  dodge */\n      tag_42\n        /* \"BattleHandler.sol\":1387:1400  dodge(cowboy) */\n      jump\t// in\n    tag_41:\n        /* \"BattleHandler.sol\":1354:1452  if (command == 2) {\r... */\n      jump(tag_43)\n    tag_40:\n    tag_43:\n        /* \"BattleHandler.sol\":1290:1452  if (command == 1) {\r... */\n    tag_39:\n        /* \"BattleHandler.sol\":1225:1452  if (command == 0) {\r... */\n    tag_35:\n        /* \"BattleHandler.sol\":1481:1485  true */\n      0x01\n        /* \"BattleHandler.sol\":1462:1468  cowboy */\n      dup2\n        /* \"BattleHandler.sol\":1462:1478  cowboy.takenTurn */\n      0x02\n      add\n      0x00\n        /* \"BattleHandler.sol\":1462:1485  cowboy.takenTurn = true */\n      0x0100\n      exp\n      dup2\n      sload\n      dup2\n      0xff\n      mul\n      not\n      and\n      swap1\n      dup4\n      iszero\n      iszero\n      mul\n      or\n      swap1\n      sstore\n      pop\n        /* \"BattleHandler.sol\":1496:1502  battle */\n      0x00\n        /* \"BattleHandler.sol\":1496:1514  battle.turnCounter */\n      0x07\n      add\n      0x00\n        /* \"BattleHandler.sol\":1496:1516  battle.turnCounter++ */\n      dup2\n      sload\n      dup1\n      swap3\n      swap2\n      swap1\n      tag_44\n      swap1\n      tag_45\n      jump\t// in\n    tag_44:\n      swap2\n      swap1\n      pop\n      sstore\n      pop\n        /* \"BattleHandler.sol\":1553:1554  2 */\n      0x02\n        /* \"BattleHandler.sol\":1531:1537  battle */\n      0x00\n        /* \"BattleHandler.sol\":1531:1549  battle.turnCounter */\n      0x07\n      add\n      sload\n        /* \"BattleHandler.sol\":1531:1554  battle.turnCounter == 2 */\n      eq\n        /* \"BattleHandler.sol\":1527:1676  if (battle.turnCounter == 2) {\r... */\n      iszero\n      tag_46\n      jumpi\n        /* \"BattleHandler.sol\":1622:1664  finishTurn(battle.cowboy1, battle.cowboy2) */\n      tag_47\n        /* \"BattleHandler.sol\":1633:1639  battle */\n      0x00\n        /* \"BattleHandler.sol\":1633:1647  battle.cowboy1 */\n      dup1\n      add\n        /* \"BattleHandler.sol\":1649:1655  battle */\n      0x00\n        /* \"BattleHandler.sol\":1649:1663  battle.cowboy2 */\n      0x03\n      add\n        /* \"BattleHandler.sol\":1622:1632  finishTurn */\n      tag_48\n        /* \"BattleHandler.sol\":1622:1664  finishTurn(battle.cowboy1, battle.cowboy2) */\n      jump\t// in\n    tag_47:\n        /* \"BattleHandler.sol\":1527:1676  if (battle.turnCounter == 2) {\r... */\n    tag_46:\n        /* \"BattleHandler.sol\":879:1683  {\r... */\n      pop\n        /* \"BattleHandler.sol\":825:1683  function takeTurn(uint command, uint cowboyId) public {\r... */\n      pop\n      pop\n      jump\t// out\n        /* \"BattleHandler.sol\":2266:2415  function reload(Cowboy storage cowboy) internal {\r... */\n    tag_34:\n        /* \"BattleHandler.sol\":2325:2331  cowboy */\n      dup1\n        /* \"BattleHandler.sol\":2325:2337  cowboy.shots */\n      0x01\n      add\n      0x00\n        /* \"BattleHandler.sol\":2325:2339  cowboy.shots++ */\n      dup2\n      sload\n      dup1\n      swap3\n      swap2\n      swap1\n      tag_50\n      swap1\n      tag_45\n      jump\t// in\n    tag_50:\n      swap2\n      swap1\n      pop\n      sstore\n      pop\n        /* \"BattleHandler.sol\":2369:2373  true */\n      0x01\n        /* \"BattleHandler.sol\":2350:2356  cowboy */\n      dup2\n        /* \"BattleHandler.sol\":2350:2366  cowboy.reloading */\n      0x02\n      add\n      0x01\n        /* \"BattleHandler.sol\":2350:2373  cowboy.reloading = true */\n      0x0100\n      exp\n      dup2\n      sload\n      dup2\n      0xff\n      mul\n      not\n      and\n      swap1\n      dup4\n      iszero\n      iszero\n      mul\n      or\n      swap1\n      sstore\n      pop\n        /* \"BattleHandler.sol\":2402:2407  false */\n      0x00\n        /* \"BattleHandler.sol\":2384:2390  cowboy */\n      dup2\n        /* \"BattleHandler.sol\":2384:2399  cowboy.shooting */\n      0x02\n      add\n      0x02\n        /* \"BattleHandler.sol\":2384:2407  cowboy.shooting = false */\n      0x0100\n      exp\n      dup2\n      sload\n      dup2\n      0xff\n      mul\n      not\n      and\n      swap1\n      dup4\n      iszero\n      iszero\n      mul\n      or\n      swap1\n      sstore\n      pop\n        /* \"BattleHandler.sol\":2266:2415  function reload(Cowboy storage cowboy) internal {\r... */\n      pop\n      jump\t// out\n        /* \"BattleHandler.sol\":2423:2648  function shoot(Cowboy storage cowboy) internal {\r... */\n    tag_38:\n        /* \"BattleHandler.sol\":2505:2506  1 */\n      0x01\n        /* \"BattleHandler.sol\":2489:2495  cowboy */\n      dup2\n        /* \"BattleHandler.sol\":2489:2501  cowboy.shots */\n      0x01\n      add\n      sload\n        /* \"BattleHandler.sol\":2489:2506  cowboy.shots >= 1 */\n      lt\n      iszero\n        /* \"BattleHandler.sol\":2481:2547  require(cowboy.shots >= 1, \"Your cowboy can't shoot without ammo\") */\n      tag_52\n      jumpi\n      mload(0x40)\n      0x08c379a000000000000000000000000000000000000000000000000000000000\n      dup2\n      mstore\n      0x04\n      add\n      tag_53\n      swap1\n      tag_54\n      jump\t// in\n    tag_53:\n      mload(0x40)\n      dup1\n      swap2\n      sub\n      swap1\n      revert\n    tag_52:\n        /* \"BattleHandler.sol\":2558:2564  cowboy */\n      dup1\n        /* \"BattleHandler.sol\":2558:2570  cowboy.shots */\n      0x01\n      add\n      0x00\n        /* \"BattleHandler.sol\":2558:2572  cowboy.shots-- */\n      dup2\n      sload\n      dup1\n      swap3\n      swap2\n      swap1\n      tag_55\n      swap1\n      tag_56\n      jump\t// in\n    tag_55:\n      swap2\n      swap1\n      pop\n      sstore\n      pop\n        /* \"BattleHandler.sol\":2602:2607  false */\n      0x00\n        /* \"BattleHandler.sol\":2583:2589  cowboy */\n      dup2\n        /* \"BattleHandler.sol\":2583:2599  cowboy.reloading */\n      0x02\n      add\n      0x01\n        /* \"BattleHandler.sol\":2583:2607  cowboy.reloading = false */\n      0x0100\n      exp\n      dup2\n      sload\n      dup2\n      0xff\n      mul\n      not\n      and\n      swap1\n      dup4\n      iszero\n      iszero\n      mul\n      or\n      swap1\n      sstore\n      pop\n        /* \"BattleHandler.sol\":2636:2640  true */\n      0x01\n        /* \"BattleHandler.sol\":2618:2624  cowboy */\n      dup2\n        /* \"BattleHandler.sol\":2618:2633  cowboy.shooting */\n      0x02\n      add\n      0x02\n        /* \"BattleHandler.sol\":2618:2640  cowboy.shooting = true */\n      0x0100\n      exp\n      dup2\n      sload\n      dup2\n      0xff\n      mul\n      not\n      and\n      swap1\n      dup4\n      iszero\n      iszero\n      mul\n      or\n      swap1\n      sstore\n      pop\n        /* \"BattleHandler.sol\":2423:2648  function shoot(Cowboy storage cowboy) internal {\r... */\n      pop\n      jump\t// out\n        /* \"BattleHandler.sol\":2656:2780  function dodge(Cowboy storage cowboy) internal {\r... */\n    tag_42:\n        /* \"BattleHandler.sol\":2733:2738  false */\n      0x00\n        /* \"BattleHandler.sol\":2714:2720  cowboy */\n      dup2\n        /* \"BattleHandler.sol\":2714:2730  cowboy.reloading */\n      0x02\n      add\n      0x01\n        /* \"BattleHandler.sol\":2714:2738  cowboy.reloading = false */\n      0x0100\n      exp\n      dup2\n      sload\n      dup2\n      0xff\n      mul\n      not\n      and\n      swap1\n      dup4\n      iszero\n      iszero\n      mul\n      or\n      swap1\n      sstore\n      pop\n        /* \"BattleHandler.sol\":2767:2772  false */\n      0x00\n        /* \"BattleHandler.sol\":2749:2755  cowboy */\n      dup2\n        /* \"BattleHandler.sol\":2749:2764  cowboy.shooting */\n      0x02\n      add\n      0x02\n        /* \"BattleHandler.sol\":2749:2772  cowboy.shooting = false */\n      0x0100\n      exp\n      dup2\n      sload\n      dup2\n      0xff\n      mul\n      not\n      and\n      swap1\n      dup4\n      iszero\n      iszero\n      mul\n      or\n      swap1\n      sstore\n      pop\n        /* \"BattleHandler.sol\":2656:2780  function dodge(Cowboy storage cowboy) internal {\r... */\n      pop\n      jump\t// out\n        /* \"BattleHandler.sol\":1691:2258  function finishTurn(Cowboy storage cowboy1, Cowboy storage cowboy2) internal {\r... */\n    tag_48:\n        /* \"BattleHandler.sol\":1783:1790  cowboy1 */\n      dup2\n        /* \"BattleHandler.sol\":1783:1799  cowboy1.shooting */\n      0x02\n      add\n      0x02\n      swap1\n      sload\n      swap1\n      0x0100\n      exp\n      swap1\n      div\n      0xff\n      and\n        /* \"BattleHandler.sol\":1783:1820  cowboy1.shooting && cowboy2.reloading */\n      dup1\n      iszero\n      tag_59\n      jumpi\n      pop\n        /* \"BattleHandler.sol\":1803:1810  cowboy2 */\n      dup1\n        /* \"BattleHandler.sol\":1803:1820  cowboy2.reloading */\n      0x02\n      add\n      0x01\n      swap1\n      sload\n      swap1\n      0x0100\n      exp\n      swap1\n      div\n      0xff\n      and\n        /* \"BattleHandler.sol\":1783:1820  cowboy1.shooting && cowboy2.reloading */\n    tag_59:\n        /* \"BattleHandler.sol\":1779:2114  if (cowboy1.shooting && cowboy2.reloading) {\r... */\n      iszero\n      tag_60\n      jumpi\n        /* \"BattleHandler.sol\":1883:1890  cowboy1 */\n      dup2\n        /* \"BattleHandler.sol\":1883:1895  cowboy1.name */\n      0x00\n      add\n        /* \"BattleHandler.sol\":1867:1873  battle */\n      0x00\n        /* \"BattleHandler.sol\":1867:1880  battle.winner */\n      0x06\n      add\n        /* \"BattleHandler.sol\":1867:1895  battle.winner = cowboy1.name */\n      swap1\n      dup1\n      sload\n      tag_61\n      swap1\n      tag_18\n      jump\t// in\n    tag_61:\n      tag_62\n      swap3\n      swap2\n      swap1\n      tag_63\n      jump\t// in\n    tag_62:\n      pop\n        /* \"BattleHandler.sol\":1928:1932  true */\n      0x01\n        /* \"BattleHandler.sol\":1910:1916  battle */\n      0x00\n        /* \"BattleHandler.sol\":1910:1925  battle.gameOver */\n      0x08\n      add\n      0x00\n        /* \"BattleHandler.sol\":1910:1932  battle.gameOver = true */\n      0x0100\n      exp\n      dup2\n      sload\n      dup2\n      0xff\n      mul\n      not\n      and\n      swap1\n      dup4\n      iszero\n      iszero\n      mul\n      or\n      swap1\n      sstore\n      pop\n        /* \"BattleHandler.sol\":1779:2114  if (cowboy1.shooting && cowboy2.reloading) {\r... */\n      jump(tag_64)\n    tag_60:\n        /* \"BattleHandler.sol\":1954:1961  cowboy2 */\n      dup1\n        /* \"BattleHandler.sol\":1954:1970  cowboy2.shooting */\n      0x02\n      add\n      0x02\n      swap1\n      sload\n      swap1\n      0x0100\n      exp\n      swap1\n      div\n      0xff\n      and\n        /* \"BattleHandler.sol\":1954:1991  cowboy2.shooting && cowboy1.reloading */\n      dup1\n      iszero\n      tag_65\n      jumpi\n      pop\n        /* \"BattleHandler.sol\":1974:1981  cowboy1 */\n      dup2\n        /* \"BattleHandler.sol\":1974:1991  cowboy1.reloading */\n      0x02\n      add\n      0x01\n      swap1\n      sload\n      swap1\n      0x0100\n      exp\n      swap1\n      div\n      0xff\n      and\n        /* \"BattleHandler.sol\":1954:1991  cowboy2.shooting && cowboy1.reloading */\n    tag_65:\n        /* \"BattleHandler.sol\":1950:2114  if (cowboy2.shooting && cowboy1.reloading){\r... */\n      iszero\n      tag_66\n      jumpi\n        /* \"BattleHandler.sol\":2053:2060  cowboy2 */\n      dup1\n        /* \"BattleHandler.sol\":2053:2065  cowboy2.name */\n      0x00\n      add\n        /* \"BattleHandler.sol\":2037:2043  battle */\n      0x00\n        /* \"BattleHandler.sol\":2037:2050  battle.winner */\n      0x06\n      add\n        /* \"BattleHandler.sol\":2037:2065  battle.winner = cowboy2.name */\n      swap1\n      dup1\n      sload\n      tag_67\n      swap1\n      tag_18\n      jump\t// in\n    tag_67:\n      tag_68\n      swap3\n      swap2\n      swap1\n      tag_63\n      jump\t// in\n    tag_68:\n      pop\n        /* \"BattleHandler.sol\":2098:2102  true */\n      0x01\n        /* \"BattleHandler.sol\":2080:2086  battle */\n      0x00\n        /* \"BattleHandler.sol\":2080:2095  battle.gameOver */\n      0x08\n      add\n      0x00\n        /* \"BattleHandler.sol\":2080:2102  battle.gameOver = true */\n      0x0100\n      exp\n      dup2\n      sload\n      dup2\n      0xff\n      mul\n      not\n      and\n      swap1\n      dup4\n      iszero\n      iszero\n      mul\n      or\n      swap1\n      sstore\n      pop\n        /* \"BattleHandler.sol\":1950:2114  if (cowboy2.shooting && cowboy1.reloading){\r... */\n    tag_66:\n        /* \"BattleHandler.sol\":1779:2114  if (cowboy1.shooting && cowboy2.reloading) {\r... */\n    tag_64:\n        /* \"BattleHandler.sol\":2176:2181  false */\n      0x00\n        /* \"BattleHandler.sol\":2156:2163  cowboy1 */\n      dup3\n        /* \"BattleHandler.sol\":2156:2173  cowboy1.takenTurn */\n      0x02\n      add\n      0x00\n        /* \"BattleHandler.sol\":2156:2181  cowboy1.takenTurn = false */\n      0x0100\n      exp\n      dup2\n      sload\n      dup2\n      0xff\n      mul\n      not\n      and\n      swap1\n      dup4\n      iszero\n      iszero\n      mul\n      or\n      swap1\n      sstore\n      pop\n        /* \"BattleHandler.sol\":2212:2217  false */\n      0x00\n        /* \"BattleHandler.sol\":2192:2199  cowboy2 */\n      dup2\n        /* \"BattleHandler.sol\":2192:2209  cowboy2.takenTurn */\n      0x02\n      add\n      0x00\n        /* \"BattleHandler.sol\":2192:2217  cowboy2.takenTurn = false */\n      0x0100\n      exp\n      dup2\n      sload\n      dup2\n      0xff\n      mul\n      not\n      and\n      swap1\n      dup4\n      iszero\n      iszero\n      mul\n      or\n      swap1\n      sstore\n      pop\n        /* \"BattleHandler.sol\":2249:2250  0 */\n      0x00\n        /* \"BattleHandler.sol\":2228:2234  battle */\n      dup1\n        /* \"BattleHandler.sol\":2228:2246  battle.turnCounter */\n      0x07\n      add\n        /* \"BattleHandler.sol\":2228:2250  battle.turnCounter = 0 */\n      dup2\n      swap1\n      sstore\n      pop\n        /* \"BattleHandler.sol\":1691:2258  function finishTurn(Cowboy storage cowboy1, Cowboy storage cowboy2) internal {\r... */\n      pop\n      pop\n      jump\t// out\n    tag_63:\n      dup3\n      dup1\n      sload\n      tag_69\n      swap1\n      tag_18\n      jump\t// in\n    tag_69:\n      swap1\n      0x00\n      mstore\n      keccak256(0x00, 0x20)\n      swap1\n      0x1f\n      add\n      0x20\n      swap1\n      div\n      dup2\n      add\n      swap3\n      dup3\n      tag_71\n      jumpi\n      0x00\n      dup6\n      sstore\n      jump(tag_70)\n    tag_71:\n      dup3\n      0x1f\n      lt\n      tag_72\n      jumpi\n      dup1\n      sload\n      dup6\n      sstore\n      jump(tag_70)\n    tag_72:\n      dup3\n      dup1\n      add\n      0x01\n      add\n      dup6\n      sstore\n      dup3\n      iszero\n      tag_70\n      jumpi\n      0x00\n      mstore\n      keccak256(0x00, 0x20)\n      swap2\n      0x1f\n      add\n      0x20\n      swap1\n      div\n      dup3\n      add\n    tag_73:\n      dup3\n      dup2\n      gt\n      iszero\n      tag_74\n      jumpi\n      dup3\n      sload\n      dup3\n      sstore\n      swap2\n      0x01\n      add\n      swap2\n      swap1\n      0x01\n      add\n      swap1\n      jump(tag_73)\n    tag_74:\n    tag_70:\n      pop\n      swap1\n      pop\n      tag_75\n      swap2\n      swap1\n      tag_76\n      jump\t// in\n    tag_75:\n      pop\n      swap1\n      jump\t// out\n    tag_76:\n    tag_77:\n      dup1\n      dup3\n      gt\n      iszero\n      tag_78\n      jumpi\n      0x00\n      dup2\n      0x00\n      swap1\n      sstore\n      pop\n      0x01\n      add\n      jump(tag_77)\n    tag_78:\n      pop\n      swap1\n      jump\t// out\n        /* \"#utility.yul\":7:146   */\n    tag_80:\n        /* \"#utility.yul\":53:58   */\n      0x00\n        /* \"#utility.yul\":91:97   */\n      dup2\n        /* \"#utility.yul\":78:98   */\n      calldataload\n        /* \"#utility.yul\":69:98   */\n      swap1\n      pop\n        /* \"#utility.yul\":107:140   */\n      tag_82\n        /* \"#utility.yul\":134:139   */\n      dup2\n        /* \"#utility.yul\":107:140   */\n      tag_83\n      jump\t// in\n    tag_82:\n        /* \"#utility.yul\":7:146   */\n      swap3\n      swap2\n      pop\n      pop\n      jump\t// out\n        /* \"#utility.yul\":152:626   */\n    tag_11:\n        /* \"#utility.yul\":220:226   */\n      0x00\n        /* \"#utility.yul\":228:234   */\n      dup1\n        /* \"#utility.yul\":277:279   */\n      0x40\n        /* \"#utility.yul\":265:274   */\n      dup4\n        /* \"#utility.yul\":256:263   */\n      dup6\n        /* \"#utility.yul\":252:275   */\n      sub\n        /* \"#utility.yul\":248:280   */\n      slt\n        /* \"#utility.yul\":245:364   */\n      iszero\n      tag_85\n      jumpi\n        /* \"#utility.yul\":283:362   */\n      tag_86\n      tag_87\n      jump\t// in\n    tag_86:\n        /* \"#utility.yul\":245:364   */\n    tag_85:\n        /* \"#utility.yul\":403:404   */\n      0x00\n        /* \"#utility.yul\":428:481   */\n      tag_88\n        /* \"#utility.yul\":473:480   */\n      dup6\n        /* \"#utility.yul\":464:470   */\n      dup3\n        /* \"#utility.yul\":453:462   */\n      dup7\n        /* \"#utility.yul\":449:471   */\n      add\n        /* \"#utility.yul\":428:481   */\n      tag_80\n      jump\t// in\n    tag_88:\n        /* \"#utility.yul\":418:481   */\n      swap3\n      pop\n        /* \"#utility.yul\":374:491   */\n      pop\n        /* \"#utility.yul\":530:532   */\n      0x20\n        /* \"#utility.yul\":556:609   */\n      tag_89\n        /* \"#utility.yul\":601:608   */\n      dup6\n        /* \"#utility.yul\":592:598   */\n      dup3\n        /* \"#utility.yul\":581:590   */\n      dup7\n        /* \"#utility.yul\":577:599   */\n      add\n        /* \"#utility.yul\":556:609   */\n      tag_80\n      jump\t// in\n    tag_89:\n        /* \"#utility.yul\":546:609   */\n      swap2\n      pop\n        /* \"#utility.yul\":501:619   */\n      pop\n        /* \"#utility.yul\":152:626   */\n      swap3\n      pop\n      swap3\n      swap1\n      pop\n      jump\t// out\n        /* \"#utility.yul\":632:996   */\n    tag_90:\n        /* \"#utility.yul\":720:723   */\n      0x00\n        /* \"#utility.yul\":748:787   */\n      tag_92\n        /* \"#utility.yul\":781:786   */\n      dup3\n        /* \"#utility.yul\":748:787   */\n      tag_93\n      jump\t// in\n    tag_92:\n        /* \"#utility.yul\":803:874   */\n      tag_94\n        /* \"#utility.yul\":867:873   */\n      dup2\n        /* \"#utility.yul\":862:865   */\n      dup6\n        /* \"#utility.yul\":803:874   */\n      tag_95\n      jump\t// in\n    tag_94:\n        /* \"#utility.yul\":796:874   */\n      swap4\n      pop\n        /* \"#utility.yul\":883:935   */\n      tag_96\n        /* \"#utility.yul\":928:934   */\n      dup2\n        /* \"#utility.yul\":923:926   */\n      dup6\n        /* \"#utility.yul\":916:920   */\n      0x20\n        /* \"#utility.yul\":909:914   */\n      dup7\n        /* \"#utility.yul\":905:921   */\n      add\n        /* \"#utility.yul\":883:935   */\n      tag_97\n      jump\t// in\n    tag_96:\n        /* \"#utility.yul\":960:989   */\n      tag_98\n        /* \"#utility.yul\":982:988   */\n      dup2\n        /* \"#utility.yul\":960:989   */\n      tag_99\n      jump\t// in\n    tag_98:\n        /* \"#utility.yul\":955:958   */\n      dup5\n        /* \"#utility.yul\":951:990   */\n      add\n        /* \"#utility.yul\":944:990   */\n      swap2\n      pop\n        /* \"#utility.yul\":724:996   */\n      pop\n        /* \"#utility.yul\":632:996   */\n      swap3\n      swap2\n      pop\n      pop\n      jump\t// out\n        /* \"#utility.yul\":1002:1368   */\n    tag_100:\n        /* \"#utility.yul\":1144:1147   */\n      0x00\n        /* \"#utility.yul\":1165:1232   */\n      tag_102\n        /* \"#utility.yul\":1229:1231   */\n      0x28\n        /* \"#utility.yul\":1224:1227   */\n      dup4\n        /* \"#utility.yul\":1165:1232   */\n      tag_95\n      jump\t// in\n    tag_102:\n        /* \"#utility.yul\":1158:1232   */\n      swap2\n      pop\n        /* \"#utility.yul\":1241:1334   */\n      tag_103\n        /* \"#utility.yul\":1330:1333   */\n      dup3\n        /* \"#utility.yul\":1241:1334   */\n      tag_104\n      jump\t// in\n    tag_103:\n        /* \"#utility.yul\":1359:1361   */\n      0x40\n        /* \"#utility.yul\":1354:1357   */\n      dup3\n        /* \"#utility.yul\":1350:1362   */\n      add\n        /* \"#utility.yul\":1343:1362   */\n      swap1\n      pop\n        /* \"#utility.yul\":1002:1368   */\n      swap2\n      swap1\n      pop\n      jump\t// out\n        /* \"#utility.yul\":1374:1740   */\n    tag_105:\n        /* \"#utility.yul\":1516:1519   */\n      0x00\n        /* \"#utility.yul\":1537:1604   */\n      tag_107\n        /* \"#utility.yul\":1601:1603   */\n      0x2e\n        /* \"#utility.yul\":1596:1599   */\n      dup4\n        /* \"#utility.yul\":1537:1604   */\n      tag_95\n      jump\t// in\n    tag_107:\n        /* \"#utility.yul\":1530:1604   */\n      swap2\n      pop\n        /* \"#utility.yul\":1613:1706   */\n      tag_108\n        /* \"#utility.yul\":1702:1705   */\n      dup3\n        /* \"#utility.yul\":1613:1706   */\n      tag_109\n      jump\t// in\n    tag_108:\n        /* \"#utility.yul\":1731:1733   */\n      0x40\n        /* \"#utility.yul\":1726:1729   */\n      dup3\n        /* \"#utility.yul\":1722:1734   */\n      add\n        /* \"#utility.yul\":1715:1734   */\n      swap1\n      pop\n        /* \"#utility.yul\":1374:1740   */\n      swap2\n      swap1\n      pop\n      jump\t// out\n        /* \"#utility.yul\":1746:2112   */\n    tag_110:\n        /* \"#utility.yul\":1888:1891   */\n      0x00\n        /* \"#utility.yul\":1909:1976   */\n      tag_112\n        /* \"#utility.yul\":1973:1975   */\n      0x17\n        /* \"#utility.yul\":1968:1971   */\n      dup4\n        /* \"#utility.yul\":1909:1976   */\n      tag_95\n      jump\t// in\n    tag_112:\n        /* \"#utility.yul\":1902:1976   */\n      swap2\n      pop\n        /* \"#utility.yul\":1985:2078   */\n      tag_113\n        /* \"#utility.yul\":2074:2077   */\n      dup3\n        /* \"#utility.yul\":1985:2078   */\n      tag_114\n      jump\t// in\n    tag_113:\n        /* \"#utility.yul\":2103:2105   */\n      0x20\n        /* \"#utility.yul\":2098:2101   */\n      dup3\n        /* \"#utility.yul\":2094:2106   */\n      add\n        /* \"#utility.yul\":2087:2106   */\n      swap1\n      pop\n        /* \"#utility.yul\":1746:2112   */\n      swap2\n      swap1\n      pop\n      jump\t// out\n        /* \"#utility.yul\":2118:2484   */\n    tag_115:\n        /* \"#utility.yul\":2260:2263   */\n      0x00\n        /* \"#utility.yul\":2281:2348   */\n      tag_117\n        /* \"#utility.yul\":2345:2347   */\n      0x24\n        /* \"#utility.yul\":2340:2343   */\n      dup4\n        /* \"#utility.yul\":2281:2348   */\n      tag_95\n      jump\t// in\n    tag_117:\n        /* \"#utility.yul\":2274:2348   */\n      swap2\n      pop\n        /* \"#utility.yul\":2357:2450   */\n      tag_118\n        /* \"#utility.yul\":2446:2449   */\n      dup3\n        /* \"#utility.yul\":2357:2450   */\n      tag_119\n      jump\t// in\n    tag_118:\n        /* \"#utility.yul\":2475:2477   */\n      0x40\n        /* \"#utility.yul\":2470:2473   */\n      dup3\n        /* \"#utility.yul\":2466:2478   */\n      add\n        /* \"#utility.yul\":2459:2478   */\n      swap1\n      pop\n        /* \"#utility.yul\":2118:2484   */\n      swap2\n      swap1\n      pop\n      jump\t// out\n        /* \"#utility.yul\":2490:2803   */\n    tag_8:\n        /* \"#utility.yul\":2603:2607   */\n      0x00\n        /* \"#utility.yul\":2641:2643   */\n      0x20\n        /* \"#utility.yul\":2630:2639   */\n      dup3\n        /* \"#utility.yul\":2626:2644   */\n      add\n        /* \"#utility.yul\":2618:2644   */\n      swap1\n      pop\n        /* \"#utility.yul\":2690:2699   */\n      dup2\n        /* \"#utility.yul\":2684:2688   */\n      dup2\n        /* \"#utility.yul\":2680:2700   */\n      sub\n        /* \"#utility.yul\":2676:2677   */\n      0x00\n        /* \"#utility.yul\":2665:2674   */\n      dup4\n        /* \"#utility.yul\":2661:2678   */\n      add\n        /* \"#utility.yul\":2654:2701   */\n      mstore\n        /* \"#utility.yul\":2718:2796   */\n      tag_121\n        /* \"#utility.yul\":2791:2795   */\n      dup2\n        /* \"#utility.yul\":2782:2788   */\n      dup5\n        /* \"#utility.yul\":2718:2796   */\n      tag_90\n      jump\t// in\n    tag_121:\n        /* \"#utility.yul\":2710:2796   */\n      swap1\n      pop\n        /* \"#utility.yul\":2490:2803   */\n      swap3\n      swap2\n      pop\n      pop\n      jump\t// out\n        /* \"#utility.yul\":2809:3228   */\n    tag_31:\n        /* \"#utility.yul\":2975:2979   */\n      0x00\n        /* \"#utility.yul\":3013:3015   */\n      0x20\n        /* \"#utility.yul\":3002:3011   */\n      dup3\n        /* \"#utility.yul\":2998:3016   */\n      add\n        /* \"#utility.yul\":2990:3016   */\n      swap1\n      pop\n        /* \"#utility.yul\":3062:3071   */\n      dup2\n        /* \"#utility.yul\":3056:3060   */\n      dup2\n        /* \"#utility.yul\":3052:3072   */\n      sub\n        /* \"#utility.yul\":3048:3049   */\n      0x00\n        /* \"#utility.yul\":3037:3046   */\n      dup4\n        /* \"#utility.yul\":3033:3050   */\n      add\n        /* \"#utility.yul\":3026:3073   */\n      mstore\n        /* \"#utility.yul\":3090:3221   */\n      tag_123\n        /* \"#utility.yul\":3216:3220   */\n      dup2\n        /* \"#utility.yul\":3090:3221   */\n      tag_100\n      jump\t// in\n    tag_123:\n        /* \"#utility.yul\":3082:3221   */\n      swap1\n      pop\n        /* \"#utility.yul\":2809:3228   */\n      swap2\n      swap1\n      pop\n      jump\t// out\n        /* \"#utility.yul\":3234:3653   */\n    tag_26:\n        /* \"#utility.yul\":3400:3404   */\n      0x00\n        /* \"#utility.yul\":3438:3440   */\n      0x20\n        /* \"#utility.yul\":3427:3436   */\n      dup3\n        /* \"#utility.yul\":3423:3441   */\n      add\n        /* \"#utility.yul\":3415:3441   */\n      swap1\n      pop\n        /* \"#utility.yul\":3487:3496   */\n      dup2\n        /* \"#utility.yul\":3481:3485   */\n      dup2\n        /* \"#utility.yul\":3477:3497   */\n      sub\n        /* \"#utility.yul\":3473:3474   */\n      0x00\n        /* \"#utility.yul\":3462:3471   */\n      dup4\n        /* \"#utility.yul\":3458:3475   */\n      add\n        /* \"#utility.yul\":3451:3498   */\n      mstore\n        /* \"#utility.yul\":3515:3646   */\n      tag_125\n        /* \"#utility.yul\":3641:3645   */\n      dup2\n        /* \"#utility.yul\":3515:3646   */\n      tag_105\n      jump\t// in\n    tag_125:\n        /* \"#utility.yul\":3507:3646   */\n      swap1\n      pop\n        /* \"#utility.yul\":3234:3653   */\n      swap2\n      swap1\n      pop\n      jump\t// out\n        /* \"#utility.yul\":3659:4078   */\n    tag_16:\n        /* \"#utility.yul\":3825:3829   */\n      0x00\n        /* \"#utility.yul\":3863:3865   */\n      0x20\n        /* \"#utility.yul\":3852:3861   */\n      dup3\n        /* \"#utility.yul\":3848:3866   */\n      add\n        /* \"#utility.yul\":3840:3866   */\n      swap1\n      pop\n        /* \"#utility.yul\":3912:3921   */\n      dup2\n        /* \"#utility.yul\":3906:3910   */\n      dup2\n        /* \"#utility.yul\":3902:3922   */\n      sub\n        /* \"#utility.yul\":3898:3899   */\n      0x00\n        /* \"#utility.yul\":3887:3896   */\n      dup4\n        /* \"#utility.yul\":3883:3900   */\n      add\n        /* \"#utility.yul\":3876:3923   */\n      mstore\n        /* \"#utility.yul\":3940:4071   */\n      tag_127\n        /* \"#utility.yul\":4066:4070   */\n      dup2\n        /* \"#utility.yul\":3940:4071   */\n      tag_110\n      jump\t// in\n    tag_127:\n        /* \"#utility.yul\":3932:4071   */\n      swap1\n      pop\n        /* \"#utility.yul\":3659:4078   */\n      swap2\n      swap1\n      pop\n      jump\t// out\n        /* \"#utility.yul\":4084:4503   */\n    tag_54:\n        /* \"#utility.yul\":4250:4254   */\n      0x00\n        /* \"#utility.yul\":4288:4290   */\n      0x20\n        /* \"#utility.yul\":4277:4286   */\n      dup3\n        /* \"#utility.yul\":4273:4291   */\n      add\n        /* \"#utility.yul\":4265:4291   */\n      swap1\n      pop\n        /* \"#utility.yul\":4337:4346   */\n      dup2\n        /* \"#utility.yul\":4331:4335   */\n      dup2\n        /* \"#utility.yul\":4327:4347   */\n      sub\n        /* \"#utility.yul\":4323:4324   */\n      0x00\n        /* \"#utility.yul\":4312:4321   */\n      dup4\n        /* \"#utility.yul\":4308:4325   */\n      add\n        /* \"#utility.yul\":4301:4348   */\n      mstore\n        /* \"#utility.yul\":4365:4496   */\n      tag_129\n        /* \"#utility.yul\":4491:4495   */\n      dup2\n        /* \"#utility.yul\":4365:4496   */\n      tag_115\n      jump\t// in\n    tag_129:\n        /* \"#utility.yul\":4357:4496   */\n      swap1\n      pop\n        /* \"#utility.yul\":4084:4503   */\n      swap2\n      swap1\n      pop\n      jump\t// out\n        /* \"#utility.yul\":4590:4689   */\n    tag_93:\n        /* \"#utility.yul\":4642:4648   */\n      0x00\n        /* \"#utility.yul\":4676:4681   */\n      dup2\n        /* \"#utility.yul\":4670:4682   */\n      mload\n        /* \"#utility.yul\":4660:4682   */\n      swap1\n      pop\n        /* \"#utility.yul\":4590:4689   */\n      swap2\n      swap1\n      pop\n      jump\t// out\n        /* \"#utility.yul\":4695:4864   */\n    tag_95:\n        /* \"#utility.yul\":4779:4790   */\n      0x00\n        /* \"#utility.yul\":4813:4819   */\n      dup3\n        /* \"#utility.yul\":4808:4811   */\n      dup3\n        /* \"#utility.yul\":4801:4820   */\n      mstore\n        /* \"#utility.yul\":4853:4857   */\n      0x20\n        /* \"#utility.yul\":4848:4851   */\n      dup3\n        /* \"#utility.yul\":4844:4858   */\n      add\n        /* \"#utility.yul\":4829:4858   */\n      swap1\n      pop\n        /* \"#utility.yul\":4695:4864   */\n      swap3\n      swap2\n      pop\n      pop\n      jump\t// out\n        /* \"#utility.yul\":4870:4947   */\n    tag_134:\n        /* \"#utility.yul\":4907:4914   */\n      0x00\n        /* \"#utility.yul\":4936:4941   */\n      dup2\n        /* \"#utility.yul\":4925:4941   */\n      swap1\n      pop\n        /* \"#utility.yul\":4870:4947   */\n      swap2\n      swap1\n      pop\n      jump\t// out\n        /* \"#utility.yul\":4953:5260   */\n    tag_97:\n        /* \"#utility.yul\":5021:5022   */\n      0x00\n        /* \"#utility.yul\":5031:5144   */\n    tag_137:\n        /* \"#utility.yul\":5045:5051   */\n      dup4\n        /* \"#utility.yul\":5042:5043   */\n      dup2\n        /* \"#utility.yul\":5039:5052   */\n      lt\n        /* \"#utility.yul\":5031:5144   */\n      iszero\n      tag_139\n      jumpi\n        /* \"#utility.yul\":5130:5131   */\n      dup1\n        /* \"#utility.yul\":5125:5128   */\n      dup3\n        /* \"#utility.yul\":5121:5132   */\n      add\n        /* \"#utility.yul\":5115:5133   */\n      mload\n        /* \"#utility.yul\":5111:5112   */\n      dup2\n        /* \"#utility.yul\":5106:5109   */\n      dup5\n        /* \"#utility.yul\":5102:5113   */\n      add\n        /* \"#utility.yul\":5095:5134   */\n      mstore\n        /* \"#utility.yul\":5067:5069   */\n      0x20\n        /* \"#utility.yul\":5064:5065   */\n      dup2\n        /* \"#utility.yul\":5060:5070   */\n      add\n        /* \"#utility.yul\":5055:5070   */\n      swap1\n      pop\n        /* \"#utility.yul\":5031:5144   */\n      jump(tag_137)\n    tag_139:\n        /* \"#utility.yul\":5162:5168   */\n      dup4\n        /* \"#utility.yul\":5159:5160   */\n      dup2\n        /* \"#utility.yul\":5156:5169   */\n      gt\n        /* \"#utility.yul\":5153:5254   */\n      iszero\n      tag_140\n      jumpi\n        /* \"#utility.yul\":5242:5243   */\n      0x00\n        /* \"#utility.yul\":5233:5239   */\n      dup5\n        /* \"#utility.yul\":5228:5231   */\n      dup5\n        /* \"#utility.yul\":5224:5240   */\n      add\n        /* \"#utility.yul\":5217:5244   */\n      mstore\n        /* \"#utility.yul\":5153:5254   */\n    tag_140:\n        /* \"#utility.yul\":5002:5260   */\n      pop\n        /* \"#utility.yul\":4953:5260   */\n      pop\n      pop\n      pop\n      jump\t// out\n        /* \"#utility.yul\":5266:5437   */\n    tag_56:\n        /* \"#utility.yul\":5305:5308   */\n      0x00\n        /* \"#utility.yul\":5328:5352   */\n      tag_142\n        /* \"#utility.yul\":5346:5351   */\n      dup3\n        /* \"#utility.yul\":5328:5352   */\n      tag_134\n      jump\t// in\n    tag_142:\n        /* \"#utility.yul\":5319:5352   */\n      swap2\n      pop\n        /* \"#utility.yul\":5374:5378   */\n      0x00\n        /* \"#utility.yul\":5367:5372   */\n      dup3\n        /* \"#utility.yul\":5364:5379   */\n      eq\n        /* \"#utility.yul\":5361:5402   */\n      iszero\n      tag_143\n      jumpi\n        /* \"#utility.yul\":5382:5400   */\n      tag_144\n      tag_145\n      jump\t// in\n    tag_144:\n        /* \"#utility.yul\":5361:5402   */\n    tag_143:\n        /* \"#utility.yul\":5429:5430   */\n      0x01\n        /* \"#utility.yul\":5422:5427   */\n      dup3\n        /* \"#utility.yul\":5418:5431   */\n      sub\n        /* \"#utility.yul\":5411:5431   */\n      swap1\n      pop\n        /* \"#utility.yul\":5266:5437   */\n      swap2\n      swap1\n      pop\n      jump\t// out\n        /* \"#utility.yul\":5443:5763   */\n    tag_18:\n        /* \"#utility.yul\":5487:5493   */\n      0x00\n        /* \"#utility.yul\":5524:5525   */\n      0x02\n        /* \"#utility.yul\":5518:5522   */\n      dup3\n        /* \"#utility.yul\":5514:5526   */\n      div\n        /* \"#utility.yul\":5504:5526   */\n      swap1\n      pop\n        /* \"#utility.yul\":5571:5572   */\n      0x01\n        /* \"#utility.yul\":5565:5569   */\n      dup3\n        /* \"#utility.yul\":5561:5573   */\n      and\n        /* \"#utility.yul\":5592:5610   */\n      dup1\n        /* \"#utility.yul\":5582:5663   */\n      tag_147\n      jumpi\n        /* \"#utility.yul\":5648:5652   */\n      0x7f\n        /* \"#utility.yul\":5640:5646   */\n      dup3\n        /* \"#utility.yul\":5636:5653   */\n      and\n        /* \"#utility.yul\":5626:5653   */\n      swap2\n      pop\n        /* \"#utility.yul\":5582:5663   */\n    tag_147:\n        /* \"#utility.yul\":5710:5712   */\n      0x20\n        /* \"#utility.yul\":5702:5708   */\n      dup3\n        /* \"#utility.yul\":5699:5713   */\n      lt\n        /* \"#utility.yul\":5679:5697   */\n      dup2\n        /* \"#utility.yul\":5676:5714   */\n      eq\n        /* \"#utility.yul\":5673:5757   */\n      iszero\n      tag_148\n      jumpi\n        /* \"#utility.yul\":5729:5747   */\n      tag_149\n      tag_150\n      jump\t// in\n    tag_149:\n        /* \"#utility.yul\":5673:5757   */\n    tag_148:\n        /* \"#utility.yul\":5494:5763   */\n      pop\n        /* \"#utility.yul\":5443:5763   */\n      swap2\n      swap1\n      pop\n      jump\t// out\n        /* \"#utility.yul\":5769:6002   */\n    tag_45:\n        /* \"#utility.yul\":5808:5811   */\n      0x00\n        /* \"#utility.yul\":5831:5855   */\n      tag_152\n        /* \"#utility.yul\":5849:5854   */\n      dup3\n        /* \"#utility.yul\":5831:5855   */\n      tag_134\n      jump\t// in\n    tag_152:\n        /* \"#utility.yul\":5822:5855   */\n      swap2\n      pop\n        /* \"#utility.yul\":5877:5943   */\n      0xffffffffffffffffffffffffffffffffffffffffffffffffffffffffffffffff\n        /* \"#utility.yul\":5870:5875   */\n      dup3\n        /* \"#utility.yul\":5867:5944   */\n      eq\n        /* \"#utility.yul\":5864:5967   */\n      iszero\n      tag_153\n      jumpi\n        /* \"#utility.yul\":5947:5965   */\n      tag_154\n      tag_145\n      jump\t// in\n    tag_154:\n        /* \"#utility.yul\":5864:5967   */\n    tag_153:\n        /* \"#utility.yul\":5994:5995   */\n      0x01\n        /* \"#utility.yul\":5987:5992   */\n      dup3\n        /* \"#utility.yul\":5983:5996   */\n      add\n        /* \"#utility.yul\":5976:5996   */\n      swap1\n      pop\n        /* \"#utility.yul\":5769:6002   */\n      swap2\n      swap1\n      pop\n      jump\t// out\n        /* \"#utility.yul\":6008:6188   */\n    tag_145:\n        /* \"#utility.yul\":6056:6133   */\n      0x4e487b7100000000000000000000000000000000000000000000000000000000\n        /* \"#utility.yul\":6053:6054   */\n      0x00\n        /* \"#utility.yul\":6046:6134   */\n      mstore\n        /* \"#utility.yul\":6153:6157   */\n      0x11\n        /* \"#utility.yul\":6150:6151   */\n      0x04\n        /* \"#utility.yul\":6143:6158   */\n      mstore\n        /* \"#utility.yul\":6177:6181   */\n      0x24\n        /* \"#utility.yul\":6174:6175   */\n      0x00\n        /* \"#utility.yul\":6167:6182   */\n      revert\n        /* \"#utility.yul\":6194:6374   */\n    tag_150:\n        /* \"#utility.yul\":6242:6319   */\n      0x4e487b7100000000000000000000000000000000000000000000000000000000\n        /* \"#utility.yul\":6239:6240   */\n      0x00\n        /* \"#utility.yul\":6232:6320   */\n      mstore\n        /* \"#utility.yul\":6339:6343   */\n      0x22\n        /* \"#utility.yul\":6336:6337   */\n      0x04\n        /* \"#utility.yul\":6329:6344   */\n      mstore\n        /* \"#utility.yul\":6363:6367   */\n      0x24\n        /* \"#utility.yul\":6360:6361   */\n      0x00\n        /* \"#utility.yul\":6353:6368   */\n      revert\n        /* \"#utility.yul\":6503:6620   */\n    tag_87:\n        /* \"#utility.yul\":6612:6613   */\n      0x00\n        /* \"#utility.yul\":6609:6610   */\n      dup1\n        /* \"#utility.yul\":6602:6614   */\n      revert\n        /* \"#utility.yul\":6626:6728   */\n    tag_99:\n        /* \"#utility.yul\":6667:6673   */\n      0x00\n        /* \"#utility.yul\":6718:6720   */\n      0x1f\n        /* \"#utility.yul\":6714:6721   */\n      not\n        /* \"#utility.yul\":6709:6711   */\n      0x1f\n        /* \"#utility.yul\":6702:6707   */\n      dup4\n        /* \"#utility.yul\":6698:6712   */\n      add\n        /* \"#utility.yul\":6694:6722   */\n      and\n        /* \"#utility.yul\":6684:6722   */\n      swap1\n      pop\n        /* \"#utility.yul\":6626:6728   */\n      swap2\n      swap1\n      pop\n      jump\t// out\n        /* \"#utility.yul\":6734:6961   */\n    tag_104:\n        /* \"#utility.yul\":6874:6908   */\n      0x436f77626f792068617320616c72656164792074616b656e207475726e207468\n        /* \"#utility.yul\":6870:6871   */\n      0x00\n        /* \"#utility.yul\":6862:6868   */\n      dup3\n        /* \"#utility.yul\":6858:6872   */\n      add\n        /* \"#utility.yul\":6851:6909   */\n      mstore\n        /* \"#utility.yul\":6943:6953   */\n      0x697320726f756e64000000000000000000000000000000000000000000000000\n        /* \"#utility.yul\":6938:6940   */\n      0x20\n        /* \"#utility.yul\":6930:6936   */\n      dup3\n        /* \"#utility.yul\":6926:6941   */\n      add\n        /* \"#utility.yul\":6919:6954   */\n      mstore\n        /* \"#utility.yul\":6734:6961   */\n      pop\n      jump\t// out\n        /* \"#utility.yul\":6967:7200   */\n    tag_109:\n        /* \"#utility.yul\":7107:7141   */\n      0x5468652067616d65206973206f76657220796f757220636f77626f792063616e\n        /* \"#utility.yul\":7103:7104   */\n      0x00\n        /* \"#utility.yul\":7095:7101   */\n      dup3\n        /* \"#utility.yul\":7091:7105   */\n      add\n        /* \"#utility.yul\":7084:7142   */\n      mstore\n        /* \"#utility.yul\":7176:7192   */\n      0x27742074616b65207475726e732e000000000000000000000000000000000000\n        /* \"#utility.yul\":7171:7173   */\n      0x20\n        /* \"#utility.yul\":7163:7169   */\n      dup3\n        /* \"#utility.yul\":7159:7174   */\n      add\n        /* \"#utility.yul\":7152:7193   */\n      mstore\n        /* \"#utility.yul\":6967:7200   */\n      pop\n      jump\t// out\n        /* \"#utility.yul\":7206:7379   */\n    tag_114:\n        /* \"#utility.yul\":7346:7371   */\n      0x5468657265206973206e6f2077696e6e6572207965742e000000000000000000\n        /* \"#utility.yul\":7342:7343   */\n      0x00\n        /* \"#utility.yul\":7334:7340   */\n      dup3\n        /* \"#utility.yul\":7330:7344   */\n      add\n        /* \"#utility.yul\":7323:7372   */\n      mstore\n        /* \"#utility.yul\":7206:7379   */\n      pop\n      jump\t// out\n        /* \"#utility.yul\":7385:7608   */\n    tag_119:\n        /* \"#utility.yul\":7525:7559   */\n      0x596f757220636f77626f792063616e27742073686f6f7420776974686f757420\n        /* \"#utility.yul\":7521:7522   */\n      0x00\n        /* \"#utility.yul\":7513:7519   */\n      dup3\n        /* \"#utility.yul\":7509:7523   */\n      add\n        /* \"#utility.yul\":7502:7560   */\n      mstore\n        /* \"#utility.yul\":7594:7600   */\n      0x616d6d6f00000000000000000000000000000000000000000000000000000000\n        /* \"#utility.yul\":7589:7591   */\n      0x20\n        /* \"#utility.yul\":7581:7587   */\n      dup3\n        /* \"#utility.yul\":7577:7592   */\n      add\n        /* \"#utility.yul\":7570:7601   */\n      mstore\n        /* \"#utility.yul\":7385:7608   */\n      pop\n      jump\t// out\n        /* \"#utility.yul\":7614:7736   */\n    tag_83:\n        /* \"#utility.yul\":7687:7711   */\n      tag_166\n        /* \"#utility.yul\":7705:7710   */\n      dup2\n        /* \"#utility.yul\":7687:7711   */\n      tag_134\n      jump\t// in\n    tag_166:\n        /* \"#utility.yul\":7680:7685   */\n      dup2\n        /* \"#utility.yul\":7677:7712   */\n      eq\n        /* \"#utility.yul\":7667:7730   */\n      tag_167\n      jumpi\n        /* \"#utility.yul\":7726:7727   */\n      0x00\n        /* \"#utility.yul\":7723:7724   */\n      dup1\n        /* \"#utility.yul\":7716:7728   */\n      revert\n        /* \"#utility.yul\":7667:7730   */\n    tag_167:\n        /* \"#utility.yul\":7614:7736   */\n      pop\n      jump\t// out\n\n    auxdata: 0xa2646970667358221220d6c3866d2a0287d0a143e7409a5933da73cd91c6868bddafe965e76e81c0c69764736f6c63430008070033\n}\n",
    "bytecode": {
      "linkReferences": {},
      "object": "60806040523480156200001157600080fd5b5060006040518060a001604052806040518060400160405280600381526020017f756e6f000000000000000000000000000000000000000000000000000000000081525081526020016000815260200160001515815260200160001515815260200160001515815250905060006040518060a001604052806040518060400160405280600381526020017f646f7300000000000000000000000000000000000000000000000000000000008152508152602001600081526020016000151581526020016000151581526020016000151581525090506040518060a001604052808381526020018281526020016040518060200160405280600081525081526020016000815260200160001515815250600080820151816000016000820151816000019080519060200190620001489291906200029d565b506020820151816001015560408201518160020160006101000a81548160ff02191690831515021790555060608201518160020160016101000a81548160ff02191690831515021790555060808201518160020160026101000a81548160ff02191690831515021790555050506020820151816003016000820151816000019080519060200190620001dc9291906200029d565b506020820151816001015560408201518160020160006101000a81548160ff02191690831515021790555060608201518160020160016101000a81548160ff02191690831515021790555060808201518160020160026101000a81548160ff02191690831515021790555050506040820151816006019080519060200190620002679291906200029d565b506060820151816007015560808201518160080160006101000a81548160ff0219169083151502179055509050505050620003b2565b828054620002ab906200034d565b90600052602060002090601f016020900481019282620002cf57600085556200031b565b82601f10620002ea57805160ff19168380011785556200031b565b828001600101855582156200031b579182015b828111156200031a578251825591602001919060010190620002fd565b5b5090506200032a91906200032e565b5090565b5b80821115620003495760008160009055506001016200032f565b5090565b600060028204905060018216806200036657607f821691505b602082108114156200037d576200037c62000383565b5b50919050565b7f4e487b7100000000000000000000000000000000000000000000000000000000600052602260045260246000fd5b610a6180620003c26000396000f3fe608060405234801561001057600080fd5b50600436106100365760003560e01c80638e7ea5b21461003b578063f711f7ed14610059575b600080fd5b610043610075565b60405161005091906106ea565b60405180910390f35b610073600480360381019061006e91906105e5565b61015c565b005b6060600060080160009054906101000a900460ff166100c9576040517f08c379a00000000000000000000000000000000000000000000000000000000081526004016100c09061074c565b60405180910390fd5b600060060180546100d99061080f565b80601f01602080910402602001604051908101604052809291908181526020018280546101059061080f565b80156101525780601f1061012757610100808354040283529160200191610152565b820191906000526020600020905b81548152906001019060200180831161013557829003601f168201915b5050505050905090565b600060080160009054906101000a900460ff16156101af576040517f08c379a00000000000000000000000000000000000000000000000000000000081526004016101a69061072c565b60405180910390fd5b600060018214156101c5576000800190506101cd565b600060030190505b8060020160009054906101000a900460ff161561021f576040517f08c379a00000000000000000000000000000000000000000000000000000000081526004016102169061070c565b60405180910390fd5b600083141561023657610231816102c4565b610267565b600183141561024d576102488161031b565b610266565b60028314156102645761025f816103ba565b610265565b5b5b5b60018160020160006101000a81548160ff0219169083151502179055506000600701600081548092919061029a90610841565b9190505550600260006007015414156102bf576102be6000800160006003016103f7565b5b505050565b8060010160008154809291906102d990610841565b919050555060018160020160016101000a81548160ff02191690831515021790555060008160020160026101000a81548160ff02191690831515021790555050565b600181600101541015610363576040517f08c379a000000000000000000000000000000000000000000000000000000000815260040161035a9061076c565b60405180910390fd5b806001016000815480929190610378906107e5565b919050555060008160020160016101000a81548160ff02191690831515021790555060018160020160026101000a81548160ff02191690831515021790555050565b60008160020160016101000a81548160ff02191690831515021790555060008160020160026101000a81548160ff02191690831515021790555050565b8160020160029054906101000a900460ff16801561042357508060020160019054906101000a900460ff165b1561046c5781600001600060060190805461043d9061080f565b610448929190610526565b506001600060080160006101000a81548160ff0219169083151502179055506104de565b8060020160029054906101000a900460ff16801561049857508160020160019054906101000a900460ff165b156104dd578060000160006006019080546104b29061080f565b6104bd929190610526565b506001600060080160006101000a81548160ff0219169083151502179055505b5b60008260020160006101000a81548160ff02191690831515021790555060008160020160006101000a81548160ff021916908315150217905550600080600701819055505050565b8280546105329061080f565b90600052602060002090601f01602090048101928261055457600085556105a2565b82601f1061056557805485556105a2565b828001600101855582156105a257600052602060002091601f016020900482015b828111156105a1578254825591600101919060010190610586565b5b5090506105af91906105b3565b5090565b5b808211156105cc5760008160009055506001016105b4565b5090565b6000813590506105df81610a14565b92915050565b600080604083850312156105fc576105fb6108e8565b5b600061060a858286016105d0565b925050602061061b858286016105d0565b9150509250929050565b60006106308261078c565b61063a8185610797565b935061064a8185602086016107b2565b610653816108ed565b840191505092915050565b600061066b602883610797565b9150610676826108fe565b604082019050919050565b600061068e602e83610797565b91506106998261094d565b604082019050919050565b60006106b1601783610797565b91506106bc8261099c565b602082019050919050565b60006106d4602483610797565b91506106df826109c5565b604082019050919050565b600060208201905081810360008301526107048184610625565b905092915050565b600060208201905081810360008301526107258161065e565b9050919050565b6000602082019050818103600083015261074581610681565b9050919050565b60006020820190508181036000830152610765816106a4565b9050919050565b60006020820190508181036000830152610785816106c7565b9050919050565b600081519050919050565b600082825260208201905092915050565b6000819050919050565b60005b838110156107d05780820151818401526020810190506107b5565b838111156107df576000848401525b50505050565b60006107f0826107a8565b915060008214156108045761080361088a565b5b600182039050919050565b6000600282049050600182168061082757607f821691505b6020821081141561083b5761083a6108b9565b5b50919050565b600061084c826107a8565b91507fffffffffffffffffffffffffffffffffffffffffffffffffffffffffffffffff82141561087f5761087e61088a565b5b600182019050919050565b7f4e487b7100000000000000000000000000000000000000000000000000000000600052601160045260246000fd5b7f4e487b7100000000000000000000000000000000000000000000000000000000600052602260045260246000fd5b600080fd5b6000601f19601f8301169050919050565b7f436f77626f792068617320616c72656164792074616b656e207475726e20746860008201527f697320726f756e64000000000000000000000000000000000000000000000000602082015250565b7f5468652067616d65206973206f76657220796f757220636f77626f792063616e60008201527f27742074616b65207475726e732e000000000000000000000000000000000000602082015250565b7f5468657265206973206e6f2077696e6e6572207965742e000000000000000000600082015250565b7f596f757220636f77626f792063616e27742073686f6f7420776974686f75742060008201527f616d6d6f00000000000000000000000000000000000000000000000000000000602082015250565b610a1d816107a8565b8114610a2857600080fd5b5056fea2646970667358221220d6c3866d2a0287d0a143e7409a5933da73cd91c6868bddafe965e76e81c0c69764736f6c63430008070033",
      "opcodes": "PUSH1 0x80 PUSH1 0x40 MSTORE CALLVALUE DUP1 ISZERO PUSH3 0x11 JUMPI PUSH1 0x0 DUP1 REVERT JUMPDEST POP PUSH1 0x0 PUSH1 0x40 MLOAD DUP1 PUSH1 0xA0 ADD PUSH1 0x40 MSTORE DUP1 PUSH1 0x40 MLOAD DUP1 PUSH1 0x40 ADD PUSH1 0x40 MSTORE DUP1 PUSH1 0x3 DUP2 MSTORE PUSH1 0x20 ADD PUSH32 0x756E6F0000000000000000000000000000000000000000000000000000000000 DUP2 MSTORE POP DUP2 MSTORE PUSH1 0x20 ADD PUSH1 0x0 DUP2 MSTORE PUSH1 0x20 ADD PUSH1 0x0 ISZERO ISZERO DUP2 MSTORE PUSH1 0x20 ADD PUSH1 0x0 ISZERO ISZERO DUP2 MSTORE PUSH1 0x20 ADD PUSH1 0x0 ISZERO ISZERO DUP2 MSTORE POP SWAP1 POP PUSH1 0x0 PUSH1 0x40 MLOAD DUP1 PUSH1 0xA0 ADD PUSH1 0x40 MSTORE DUP1 PUSH1 0x40 MLOAD DUP1 PUSH1 0x40 ADD PUSH1 0x40 MSTORE DUP1 PUSH1 0x3 DUP2 MSTORE PUSH1 0x20 ADD PUSH32 0x646F730000000000000000000000000000000000000000000000000000000000 DUP2 MSTORE POP DUP2 MSTORE PUSH1 0x20 ADD PUSH1 0x0 DUP2 MSTORE PUSH1 0x20 ADD PUSH1 0x0 ISZERO ISZERO DUP2 MSTORE PUSH1 0x20 ADD PUSH1 0x0 ISZERO ISZERO DUP2 MSTORE PUSH1 0x20 ADD PUSH1 0x0 ISZERO ISZERO DUP2 MSTORE POP SWAP1 POP PUSH1 0x40 MLOAD DUP1 PUSH1 0xA0 ADD PUSH1 0x40 MSTORE DUP1 DUP4 DUP2 MSTORE PUSH1 0x20 ADD DUP3 DUP2 MSTORE PUSH1 0x20 ADD PUSH1 0x40 MLOAD DUP1 PUSH1 0x20 ADD PUSH1 0x40 MSTORE DUP1 PUSH1 0x0 DUP2 MSTORE POP DUP2 MSTORE PUSH1 0x20 ADD PUSH1 0x0 DUP2 MSTORE PUSH1 0x20 ADD PUSH1 0x0 ISZERO ISZERO DUP2 MSTORE POP PUSH1 0x0 DUP1 DUP3 ADD MLOAD DUP2 PUSH1 0x0 ADD PUSH1 0x0 DUP3 ADD MLOAD DUP2 PUSH1 0x0 ADD SWAP1 DUP1 MLOAD SWAP1 PUSH1 0x20 ADD SWAP1 PUSH3 0x148 SWAP3 SWAP2 SWAP1 PUSH3 0x29D JUMP JUMPDEST POP PUSH1 0x20 DUP3 ADD MLOAD DUP2 PUSH1 0x1 ADD SSTORE PUSH1 0x40 DUP3 ADD MLOAD DUP2 PUSH1 0x2 ADD PUSH1 0x0 PUSH2 0x100 EXP DUP2 SLOAD DUP2 PUSH1 0xFF MUL NOT AND SWAP1 DUP4 ISZERO ISZERO MUL OR SWAP1 SSTORE POP PUSH1 0x60 DUP3 ADD MLOAD DUP2 PUSH1 0x2 ADD PUSH1 0x1 PUSH2 0x100 EXP DUP2 SLOAD DUP2 PUSH1 0xFF MUL NOT AND SWAP1 DUP4 ISZERO ISZERO MUL OR SWAP1 SSTORE POP PUSH1 0x80 DUP3 ADD MLOAD DUP2 PUSH1 0x2 ADD PUSH1 0x2 PUSH2 0x100 EXP DUP2 SLOAD DUP2 PUSH1 0xFF MUL NOT AND SWAP1 DUP4 ISZERO ISZERO MUL OR SWAP1 SSTORE POP POP POP PUSH1 0x20 DUP3 ADD MLOAD DUP2 PUSH1 0x3 ADD PUSH1 0x0 DUP3 ADD MLOAD DUP2 PUSH1 0x0 ADD SWAP1 DUP1 MLOAD SWAP1 PUSH1 0x20 ADD SWAP1 PUSH3 0x1DC SWAP3 SWAP2 SWAP1 PUSH3 0x29D JUMP JUMPDEST POP PUSH1 0x20 DUP3 ADD MLOAD DUP2 PUSH1 0x1 ADD SSTORE PUSH1 0x40 DUP3 ADD MLOAD DUP2 PUSH1 0x2 ADD PUSH1 0x0 PUSH2 0x100 EXP DUP2 SLOAD DUP2 PUSH1 0xFF MUL NOT AND SWAP1 DUP4 ISZERO ISZERO MUL OR SWAP1 SSTORE POP PUSH1 0x60 DUP3 ADD MLOAD DUP2 PUSH1 0x2 ADD PUSH1 0x1 PUSH2 0x100 EXP DUP2 SLOAD DUP2 PUSH1 0xFF MUL NOT AND SWAP1 DUP4 ISZERO ISZERO MUL OR SWAP1 SSTORE POP PUSH1 0x80 DUP3 ADD MLOAD DUP2 PUSH1 0x2 ADD PUSH1 0x2 PUSH2 0x100 EXP DUP2 SLOAD DUP2 PUSH1 0xFF MUL NOT AND SWAP1 DUP4 ISZERO ISZERO MUL OR SWAP1 SSTORE POP POP POP PUSH1 0x40 DUP3 ADD MLOAD DUP2 PUSH1 0x6 ADD SWAP1 DUP1 MLOAD SWAP1 PUSH1 0x20 ADD SWAP1 PUSH3 0x267 SWAP3 SWAP2 SWAP1 PUSH3 0x29D JUMP JUMPDEST POP PUSH1 0x60 DUP3 ADD MLOAD DUP2 PUSH1 0x7 ADD SSTORE PUSH1 0x80 DUP3 ADD MLOAD DUP2 PUSH1 0x8 ADD PUSH1 0x0 PUSH2 0x100 EXP DUP2 SLOAD DUP2 PUSH1 0xFF MUL NOT AND SWAP1 DUP4 ISZERO ISZERO MUL OR SWAP1 SSTORE POP SWAP1 POP POP POP POP PUSH3 0x3B2 JUMP JUMPDEST DUP3 DUP1 SLOAD PUSH3 0x2AB SWAP1 PUSH3 0x34D JUMP JUMPDEST SWAP1 PUSH1 0x0 MSTORE PUSH1 0x20 PUSH1 0x0 KECCAK256 SWAP1 PUSH1 0x1F ADD PUSH1 0x20 SWAP1 DIV DUP2 ADD SWAP3 DUP3 PUSH3 0x2CF JUMPI PUSH1 0x0 DUP6 SSTORE PUSH3 0x31B JUMP JUMPDEST DUP3 PUSH1 0x1F LT PUSH3 0x2EA JUMPI DUP1 MLOAD PUSH1 0xFF NOT AND DUP4 DUP1 ADD OR DUP6 SSTORE PUSH3 0x31B JUMP JUMPDEST DUP3 DUP1 ADD PUSH1 0x1 ADD DUP6 SSTORE DUP3 ISZERO PUSH3 0x31B JUMPI SWAP2 DUP3 ADD JUMPDEST DUP3 DUP2 GT ISZERO PUSH3 0x31A JUMPI DUP3 MLOAD DUP3 SSTORE SWAP2 PUSH1 0x20 ADD SWAP2 SWAP1 PUSH1 0x1 ADD SWAP1 PUSH3 0x2FD JUMP JUMPDEST JUMPDEST POP SWAP1 POP PUSH3 0x32A SWAP2 SWAP1 PUSH3 0x32E JUMP JUMPDEST POP SWAP1 JUMP JUMPDEST JUMPDEST DUP1 DUP3 GT ISZERO PUSH3 0x349 JUMPI PUSH1 0x0 DUP2 PUSH1 0x0 SWAP1 SSTORE POP PUSH1 0x1 ADD PUSH3 0x32F JUMP JUMPDEST POP SWAP1 JUMP JUMPDEST PUSH1 0x0 PUSH1 0x2 DUP3 DIV SWAP1 POP PUSH1 0x1 DUP3 AND DUP1 PUSH3 0x366 JUMPI PUSH1 0x7F DUP3 AND SWAP2 POP JUMPDEST PUSH1 0x20 DUP3 LT DUP2 EQ ISZERO PUSH3 0x37D JUMPI PUSH3 0x37C PUSH3 0x383 JUMP JUMPDEST JUMPDEST POP SWAP2 SWAP1 POP JUMP JUMPDEST PUSH32 0x4E487B7100000000000000000000000000000000000000000000000000000000 PUSH1 0x0 MSTORE PUSH1 0x22 PUSH1 0x4 MSTORE PUSH1 0x24 PUSH1 0x0 REVERT JUMPDEST PUSH2 0xA61 DUP1 PUSH3 0x3C2 PUSH1 0x0 CODECOPY PUSH1 0x0 RETURN INVALID PUSH1 0x80 PUSH1 0x40 MSTORE CALLVALUE DUP1 ISZERO PUSH2 0x10 JUMPI PUSH1 0x0 DUP1 REVERT JUMPDEST POP PUSH1 0x4 CALLDATASIZE LT PUSH2 0x36 JUMPI PUSH1 0x0 CALLDATALOAD PUSH1 0xE0 SHR DUP1 PUSH4 0x8E7EA5B2 EQ PUSH2 0x3B JUMPI DUP1 PUSH4 0xF711F7ED EQ PUSH2 0x59 JUMPI JUMPDEST PUSH1 0x0 DUP1 REVERT JUMPDEST PUSH2 0x43 PUSH2 0x75 JUMP JUMPDEST PUSH1 0x40 MLOAD PUSH2 0x50 SWAP2 SWAP1 PUSH2 0x6EA JUMP JUMPDEST PUSH1 0x40 MLOAD DUP1 SWAP2 SUB SWAP1 RETURN JUMPDEST PUSH2 0x73 PUSH1 0x4 DUP1 CALLDATASIZE SUB DUP2 ADD SWAP1 PUSH2 0x6E SWAP2 SWAP1 PUSH2 0x5E5 JUMP JUMPDEST PUSH2 0x15C JUMP JUMPDEST STOP JUMPDEST PUSH1 0x60 PUSH1 0x0 PUSH1 0x8 ADD PUSH1 0x0 SWAP1 SLOAD SWAP1 PUSH2 0x100 EXP SWAP1 DIV PUSH1 0xFF AND PUSH2 0xC9 JUMPI PUSH1 0x40 MLOAD PUSH32 0x8C379A000000000000000000000000000000000000000000000000000000000 DUP2 MSTORE PUSH1 0x4 ADD PUSH2 0xC0 SWAP1 PUSH2 0x74C JUMP JUMPDEST PUSH1 0x40 MLOAD DUP1 SWAP2 SUB SWAP1 REVERT JUMPDEST PUSH1 0x0 PUSH1 0x6 ADD DUP1 SLOAD PUSH2 0xD9 SWAP1 PUSH2 0x80F JUMP JUMPDEST DUP1 PUSH1 0x1F ADD PUSH1 0x20 DUP1 SWAP2 DIV MUL PUSH1 0x20 ADD PUSH1 0x40 MLOAD SWAP1 DUP2 ADD PUSH1 0x40 MSTORE DUP1 SWAP3 SWAP2 SWAP1 DUP2 DUP2 MSTORE PUSH1 0x20 ADD DUP3 DUP1 SLOAD PUSH2 0x105 SWAP1 PUSH2 0x80F JUMP JUMPDEST DUP1 ISZERO PUSH2 0x152 JUMPI DUP1 PUSH1 0x1F LT PUSH2 0x127 JUMPI PUSH2 0x100 DUP1 DUP4 SLOAD DIV MUL DUP4 MSTORE SWAP2 PUSH1 0x20 ADD SWAP2 PUSH2 0x152 JUMP JUMPDEST DUP3 ADD SWAP2 SWAP1 PUSH1 0x0 MSTORE PUSH1 0x20 PUSH1 0x0 KECCAK256 SWAP1 JUMPDEST DUP2 SLOAD DUP2 MSTORE SWAP1 PUSH1 0x1 ADD SWAP1 PUSH1 0x20 ADD DUP1 DUP4 GT PUSH2 0x135 JUMPI DUP3 SWAP1 SUB PUSH1 0x1F AND DUP3 ADD SWAP2 JUMPDEST POP POP POP POP POP SWAP1 POP SWAP1 JUMP JUMPDEST PUSH1 0x0 PUSH1 0x8 ADD PUSH1 0x0 SWAP1 SLOAD SWAP1 PUSH2 0x100 EXP SWAP1 DIV PUSH1 0xFF AND ISZERO PUSH2 0x1AF JUMPI PUSH1 0x40 MLOAD PUSH32 0x8C379A000000000000000000000000000000000000000000000000000000000 DUP2 MSTORE PUSH1 0x4 ADD PUSH2 0x1A6 SWAP1 PUSH2 0x72C JUMP JUMPDEST PUSH1 0x40 MLOAD DUP1 SWAP2 SUB SWAP1 REVERT JUMPDEST PUSH1 0x0 PUSH1 0x1 DUP3 EQ ISZERO PUSH2 0x1C5 JUMPI PUSH1 0x0 DUP1 ADD SWAP1 POP PUSH2 0x1CD JUMP JUMPDEST PUSH1 0x0 PUSH1 0x3 ADD SWAP1 POP JUMPDEST DUP1 PUSH1 0x2 ADD PUSH1 0x0 SWAP1 SLOAD SWAP1 PUSH2 0x100 EXP SWAP1 DIV PUSH1 0xFF AND ISZERO PUSH2 0x21F JUMPI PUSH1 0x40 MLOAD PUSH32 0x8C379A000000000000000000000000000000000000000000000000000000000 DUP2 MSTORE PUSH1 0x4 ADD PUSH2 0x216 SWAP1 PUSH2 0x70C JUMP JUMPDEST PUSH1 0x40 MLOAD DUP1 SWAP2 SUB SWAP1 REVERT JUMPDEST PUSH1 0x0 DUP4 EQ ISZERO PUSH2 0x236 JUMPI PUSH2 0x231 DUP2 PUSH2 0x2C4 JUMP JUMPDEST PUSH2 0x267 JUMP JUMPDEST PUSH1 0x1 DUP4 EQ ISZERO PUSH2 0x24D JUMPI PUSH2 0x248 DUP2 PUSH2 0x31B JUMP JUMPDEST PUSH2 0x266 JUMP JUMPDEST PUSH1 0x2 DUP4 EQ ISZERO PUSH2 0x264 JUMPI PUSH2 0x25F DUP2 PUSH2 0x3BA JUMP JUMPDEST PUSH2 0x265 JUMP JUMPDEST JUMPDEST JUMPDEST JUMPDEST PUSH1 0x1 DUP2 PUSH1 0x2 ADD PUSH1 0x0 PUSH2 0x100 EXP DUP2 SLOAD DUP2 PUSH1 0xFF MUL NOT AND SWAP1 DUP4 ISZERO ISZERO MUL OR SWAP1 SSTORE POP PUSH1 0x0 PUSH1 0x7 ADD PUSH1 0x0 DUP2 SLOAD DUP1 SWAP3 SWAP2 SWAP1 PUSH2 0x29A SWAP1 PUSH2 0x841 JUMP JUMPDEST SWAP2 SWAP1 POP SSTORE POP PUSH1 0x2 PUSH1 0x0 PUSH1 0x7 ADD SLOAD EQ ISZERO PUSH2 0x2BF JUMPI PUSH2 0x2BE PUSH1 0x0 DUP1 ADD PUSH1 0x0 PUSH1 0x3 ADD PUSH2 0x3F7 JUMP JUMPDEST JUMPDEST POP POP POP JUMP JUMPDEST DUP1 PUSH1 0x1 ADD PUSH1 0x0 DUP2 SLOAD DUP1 SWAP3 SWAP2 SWAP1 PUSH2 0x2D9 SWAP1 PUSH2 0x841 JUMP JUMPDEST SWAP2 SWAP1 POP SSTORE POP PUSH1 0x1 DUP2 PUSH1 0x2 ADD PUSH1 0x1 PUSH2 0x100 EXP DUP2 SLOAD DUP2 PUSH1 0xFF MUL NOT AND SWAP1 DUP4 ISZERO ISZERO MUL OR SWAP1 SSTORE POP PUSH1 0x0 DUP2 PUSH1 0x2 ADD PUSH1 0x2 PUSH2 0x100 EXP DUP2 SLOAD DUP2 PUSH1 0xFF MUL NOT AND SWAP1 DUP4 ISZERO ISZERO MUL OR SWAP1 SSTORE POP POP JUMP JUMPDEST PUSH1 0x1 DUP2 PUSH1 0x1 ADD SLOAD LT ISZERO PUSH2 0x363 JUMPI PUSH1 0x40 MLOAD PUSH32 0x8C379A000000000000000000000000000000000000000000000000000000000 DUP2 MSTORE PUSH1 0x4 ADD PUSH2 0x35A SWAP1 PUSH2 0x76C JUMP JUMPDEST PUSH1 0x40 MLOAD DUP1 SWAP2 SUB SWAP1 REVERT JUMPDEST DUP1 PUSH1 0x1 ADD PUSH1 0x0 DUP2 SLOAD DUP1 SWAP3 SWAP2 SWAP1 PUSH2 0x378 SWAP1 PUSH2 0x7E5 JUMP JUMPDEST SWAP2 SWAP1 POP SSTORE POP PUSH1 0x0 DUP2 PUSH1 0x2 ADD PUSH1 0x1 PUSH2 0x100 EXP DUP2 SLOAD DUP2 PUSH1 0xFF MUL NOT AND SWAP1 DUP4 ISZERO ISZERO MUL OR SWAP1 SSTORE POP PUSH1 0x1 DUP2 PUSH1 0x2 ADD PUSH1 0x2 PUSH2 0x100 EXP DUP2 SLOAD DUP2 PUSH1 0xFF MUL NOT AND SWAP1 DUP4 ISZERO ISZERO MUL OR SWAP1 SSTORE POP POP JUMP JUMPDEST PUSH1 0x0 DUP2 PUSH1 0x2 ADD PUSH1 0x1 PUSH2 0x100 EXP DUP2 SLOAD DUP2 PUSH1 0xFF MUL NOT AND SWAP1 DUP4 ISZERO ISZERO MUL OR SWAP1 SSTORE POP PUSH1 0x0 DUP2 PUSH1 0x2 ADD PUSH1 0x2 PUSH2 0x100 EXP DUP2 SLOAD DUP2 PUSH1 0xFF MUL NOT AND SWAP1 DUP4 ISZERO ISZERO MUL OR SWAP1 SSTORE POP POP JUMP JUMPDEST DUP2 PUSH1 0x2 ADD PUSH1 0x2 SWAP1 SLOAD SWAP1 PUSH2 0x100 EXP SWAP1 DIV PUSH1 0xFF AND DUP1 ISZERO PUSH2 0x423 JUMPI POP DUP1 PUSH1 0x2 ADD PUSH1 0x1 SWAP1 SLOAD SWAP1 PUSH2 0x100 EXP SWAP1 DIV PUSH1 0xFF AND JUMPDEST ISZERO PUSH2 0x46C JUMPI DUP2 PUSH1 0x0 ADD PUSH1 0x0 PUSH1 0x6 ADD SWAP1 DUP1 SLOAD PUSH2 0x43D SWAP1 PUSH2 0x80F JUMP JUMPDEST PUSH2 0x448 SWAP3 SWAP2 SWAP1 PUSH2 0x526 JUMP JUMPDEST POP PUSH1 0x1 PUSH1 0x0 PUSH1 0x8 ADD PUSH1 0x0 PUSH2 0x100 EXP DUP2 SLOAD DUP2 PUSH1 0xFF MUL NOT AND SWAP1 DUP4 ISZERO ISZERO MUL OR SWAP1 SSTORE POP PUSH2 0x4DE JUMP JUMPDEST DUP1 PUSH1 0x2 ADD PUSH1 0x2 SWAP1 SLOAD SWAP1 PUSH2 0x100 EXP SWAP1 DIV PUSH1 0xFF AND DUP1 ISZERO PUSH2 0x498 JUMPI POP DUP2 PUSH1 0x2 ADD PUSH1 0x1 SWAP1 SLOAD SWAP1 PUSH2 0x100 EXP SWAP1 DIV PUSH1 0xFF AND JUMPDEST ISZERO PUSH2 0x4DD JUMPI DUP1 PUSH1 0x0 ADD PUSH1 0x0 PUSH1 0x6 ADD SWAP1 DUP1 SLOAD PUSH2 0x4B2 SWAP1 PUSH2 0x80F JUMP JUMPDEST PUSH2 0x4BD SWAP3 SWAP2 SWAP1 PUSH2 0x526 JUMP JUMPDEST POP PUSH1 0x1 PUSH1 0x0 PUSH1 0x8 ADD PUSH1 0x0 PUSH2 0x100 EXP DUP2 SLOAD DUP2 PUSH1 0xFF MUL NOT AND SWAP1 DUP4 ISZERO ISZERO MUL OR SWAP1 SSTORE POP JUMPDEST JUMPDEST PUSH1 0x0 DUP3 PUSH1 0x2 ADD PUSH1 0x0 PUSH2 0x100 EXP DUP2 SLOAD DUP2 PUSH1 0xFF MUL NOT AND SWAP1 DUP4 ISZERO ISZERO MUL OR SWAP1 SSTORE POP PUSH1 0x0 DUP2 PUSH1 0x2 ADD PUSH1 0x0 PUSH2 0x100 EXP DUP2 SLOAD DUP2 PUSH1 0xFF MUL NOT AND SWAP1 DUP4 ISZERO ISZERO MUL OR SWAP1 SSTORE POP PUSH1 0x0 DUP1 PUSH1 0x7 ADD DUP2 SWAP1 SSTORE POP POP POP JUMP JUMPDEST DUP3 DUP1 SLOAD PUSH2 0x532 SWAP1 PUSH2 0x80F JUMP JUMPDEST SWAP1 PUSH1 0x0 MSTORE PUSH1 0x20 PUSH1 0x0 KECCAK256 SWAP1 PUSH1 0x1F ADD PUSH1 0x20 SWAP1 DIV DUP2 ADD SWAP3 DUP3 PUSH2 0x554 JUMPI PUSH1 0x0 DUP6 SSTORE PUSH2 0x5A2 JUMP JUMPDEST DUP3 PUSH1 0x1F LT PUSH2 0x565 JUMPI DUP1 SLOAD DUP6 SSTORE PUSH2 0x5A2 JUMP JUMPDEST DUP3 DUP1 ADD PUSH1 0x1 ADD DUP6 SSTORE DUP3 ISZERO PUSH2 0x5A2 JUMPI PUSH1 0x0 MSTORE PUSH1 0x20 PUSH1 0x0 KECCAK256 SWAP2 PUSH1 0x1F ADD PUSH1 0x20 SWAP1 DIV DUP3 ADD JUMPDEST DUP3 DUP2 GT ISZERO PUSH2 0x5A1 JUMPI DUP3 SLOAD DUP3 SSTORE SWAP2 PUSH1 0x1 ADD SWAP2 SWAP1 PUSH1 0x1 ADD SWAP1 PUSH2 0x586 JUMP JUMPDEST JUMPDEST POP SWAP1 POP PUSH2 0x5AF SWAP2 SWAP1 PUSH2 0x5B3 JUMP JUMPDEST POP SWAP1 JUMP JUMPDEST JUMPDEST DUP1 DUP3 GT ISZERO PUSH2 0x5CC JUMPI PUSH1 0x0 DUP2 PUSH1 0x0 SWAP1 SSTORE POP PUSH1 0x1 ADD PUSH2 0x5B4 JUMP JUMPDEST POP SWAP1 JUMP JUMPDEST PUSH1 0x0 DUP2 CALLDATALOAD SWAP1 POP PUSH2 0x5DF DUP2 PUSH2 0xA14 JUMP JUMPDEST SWAP3 SWAP2 POP POP JUMP JUMPDEST PUSH1 0x0 DUP1 PUSH1 0x40 DUP4 DUP6 SUB SLT ISZERO PUSH2 0x5FC JUMPI PUSH2 0x5FB PUSH2 0x8E8 JUMP JUMPDEST JUMPDEST PUSH1 0x0 PUSH2 0x60A DUP6 DUP3 DUP7 ADD PUSH2 0x5D0 JUMP JUMPDEST SWAP3 POP POP PUSH1 0x20 PUSH2 0x61B DUP6 DUP3 DUP7 ADD PUSH2 0x5D0 JUMP JUMPDEST SWAP2 POP POP SWAP3 POP SWAP3 SWAP1 POP JUMP JUMPDEST PUSH1 0x0 PUSH2 0x630 DUP3 PUSH2 0x78C JUMP JUMPDEST PUSH2 0x63A DUP2 DUP6 PUSH2 0x797 JUMP JUMPDEST SWAP4 POP PUSH2 0x64A DUP2 DUP6 PUSH1 0x20 DUP7 ADD PUSH2 0x7B2 JUMP JUMPDEST PUSH2 0x653 DUP2 PUSH2 0x8ED JUMP JUMPDEST DUP5 ADD SWAP2 POP POP SWAP3 SWAP2 POP POP JUMP JUMPDEST PUSH1 0x0 PUSH2 0x66B PUSH1 0x28 DUP4 PUSH2 0x797 JUMP JUMPDEST SWAP2 POP PUSH2 0x676 DUP3 PUSH2 0x8FE JUMP JUMPDEST PUSH1 0x40 DUP3 ADD SWAP1 POP SWAP2 SWAP1 POP JUMP JUMPDEST PUSH1 0x0 PUSH2 0x68E PUSH1 0x2E DUP4 PUSH2 0x797 JUMP JUMPDEST SWAP2 POP PUSH2 0x699 DUP3 PUSH2 0x94D JUMP JUMPDEST PUSH1 0x40 DUP3 ADD SWAP1 POP SWAP2 SWAP1 POP JUMP JUMPDEST PUSH1 0x0 PUSH2 0x6B1 PUSH1 0x17 DUP4 PUSH2 0x797 JUMP JUMPDEST SWAP2 POP PUSH2 0x6BC DUP3 PUSH2 0x99C JUMP JUMPDEST PUSH1 0x20 DUP3 ADD SWAP1 POP SWAP2 SWAP1 POP JUMP JUMPDEST PUSH1 0x0 PUSH2 0x6D4 PUSH1 0x24 DUP4 PUSH2 0x797 JUMP JUMPDEST SWAP2 POP PUSH2 0x6DF DUP3 PUSH2 0x9C5 JUMP JUMPDEST PUSH1 0x40 DUP3 ADD SWAP1 POP SWAP2 SWAP1 POP JUMP JUMPDEST PUSH1 0x0 PUSH1 0x20 DUP3 ADD SWAP1 POP DUP2 DUP2 SUB PUSH1 0x0 DUP4 ADD MSTORE PUSH2 0x704 DUP2 DUP5 PUSH2 0x625 JUMP JUMPDEST SWAP1 POP SWAP3 SWAP2 POP POP JUMP JUMPDEST PUSH1 0x0 PUSH1 0x20 DUP3 ADD SWAP1 POP DUP2 DUP2 SUB PUSH1 0x0 DUP4 ADD MSTORE PUSH2 0x725 DUP2 PUSH2 0x65E JUMP JUMPDEST SWAP1 POP SWAP2 SWAP1 POP JUMP JUMPDEST PUSH1 0x0 PUSH1 0x20 DUP3 ADD SWAP1 POP DUP2 DUP2 SUB PUSH1 0x0 DUP4 ADD MSTORE PUSH2 0x745 DUP2 PUSH2 0x681 JUMP JUMPDEST SWAP1 POP SWAP2 SWAP1 POP JUMP JUMPDEST PUSH1 0x0 PUSH1 0x20 DUP3 ADD SWAP1 POP DUP2 DUP2 SUB PUSH1 0x0 DUP4 ADD MSTORE PUSH2 0x765 DUP2 PUSH2 0x6A4 JUMP JUMPDEST SWAP1 POP SWAP2 SWAP1 POP JUMP JUMPDEST PUSH1 0x0 PUSH1 0x20 DUP3 ADD SWAP1 POP DUP2 DUP2 SUB PUSH1 0x0 DUP4 ADD MSTORE PUSH2 0x785 DUP2 PUSH2 0x6C7 JUMP JUMPDEST SWAP1 POP SWAP2 SWAP1 POP JUMP JUMPDEST PUSH1 0x0 DUP2 MLOAD SWAP1 POP SWAP2 SWAP1 POP JUMP JUMPDEST PUSH1 0x0 DUP3 DUP3 MSTORE PUSH1 0x20 DUP3 ADD SWAP1 POP SWAP3 SWAP2 POP POP JUMP JUMPDEST PUSH1 0x0 DUP2 SWAP1 POP SWAP2 SWAP1 POP JUMP JUMPDEST PUSH1 0x0 JUMPDEST DUP4 DUP2 LT ISZERO PUSH2 0x7D0 JUMPI DUP1 DUP3 ADD MLOAD DUP2 DUP5 ADD MSTORE PUSH1 0x20 DUP2 ADD SWAP1 POP PUSH2 0x7B5 JUMP JUMPDEST DUP4 DUP2 GT ISZERO PUSH2 0x7DF JUMPI PUSH1 0x0 DUP5 DUP5 ADD MSTORE JUMPDEST POP POP POP POP JUMP JUMPDEST PUSH1 0x0 PUSH2 0x7F0 DUP3 PUSH2 0x7A8 JUMP JUMPDEST SWAP2 POP PUSH1 0x0 DUP3 EQ ISZERO PUSH2 0x804 JUMPI PUSH2 0x803 PUSH2 0x88A JUMP JUMPDEST JUMPDEST PUSH1 0x1 DUP3 SUB SWAP1 POP SWAP2 SWAP1 POP JUMP JUMPDEST PUSH1 0x0 PUSH1 0x2 DUP3 DIV SWAP1 POP PUSH1 0x1 DUP3 AND DUP1 PUSH2 0x827 JUMPI PUSH1 0x7F DUP3 AND SWAP2 POP JUMPDEST PUSH1 0x20 DUP3 LT DUP2 EQ ISZERO PUSH2 0x83B JUMPI PUSH2 0x83A PUSH2 0x8B9 JUMP JUMPDEST JUMPDEST POP SWAP2 SWAP1 POP JUMP JUMPDEST PUSH1 0x0 PUSH2 0x84C DUP3 PUSH2 0x7A8 JUMP JUMPDEST SWAP2 POP PUSH32 0xFFFFFFFFFFFFFFFFFFFFFFFFFFFFFFFFFFFFFFFFFFFFFFFFFFFFFFFFFFFFFFFF DUP3 EQ ISZERO PUSH2 0x87F JUMPI PUSH2 0x87E PUSH2 0x88A JUMP JUMPDEST JUMPDEST PUSH1 0x1 DUP3 ADD SWAP1 POP SWAP2 SWAP1 POP JUMP JUMPDEST PUSH32 0x4E487B7100000000000000000000000000000000000000000000000000000000 PUSH1 0x0 MSTORE PUSH1 0x11 PUSH1 0x4 MSTORE PUSH1 0x24 PUSH1 0x0 REVERT JUMPDEST PUSH32 0x4E487B7100000000000000000000000000000000000000000000000000000000 PUSH1 0x0 MSTORE PUSH1 0x22 PUSH1 0x4 MSTORE PUSH1 0x24 PUSH1 0x0 REVERT JUMPDEST PUSH1 0x0 DUP1 REVERT JUMPDEST PUSH1 0x0 PUSH1 0x1F NOT PUSH1 0x1F DUP4 ADD AND SWAP1 POP SWAP2 SWAP1 POP JUMP JUMPDEST PUSH32 0x436F77626F792068617320616C72656164792074616B656E207475726E207468 PUSH1 0x0 DUP3 ADD MSTORE PUSH32 0x697320726F756E64000000000000000000000000000000000000000000000000 PUSH1 0x20 DUP3 ADD MSTORE POP JUMP JUMPDEST PUSH32 0x5468652067616D65206973206F76657220796F757220636F77626F792063616E PUSH1 0x0 DUP3 ADD MSTORE PUSH32 0x27742074616B65207475726E732E000000000000000000000000000000000000 PUSH1 0x20 DUP3 ADD MSTORE POP JUMP JUMPDEST PUSH32 0x5468657265206973206E6F2077696E6E6572207965742E000000000000000000 PUSH1 0x0 DUP3 ADD MSTORE POP JUMP JUMPDEST PUSH32 0x596F757220636F77626F792063616E27742073686F6F7420776974686F757420 PUSH1 0x0 DUP3 ADD MSTORE PUSH32 0x616D6D6F00000000000000000000000000000000000000000000000000000000 PUSH1 0x20 DUP3 ADD MSTORE POP JUMP JUMPDEST PUSH2 0xA1D DUP2 PUSH2 0x7A8 JUMP JUMPDEST DUP2 EQ PUSH2 0xA28 JUMPI PUSH1 0x0 DUP1 REVERT JUMPDEST POP JUMP INVALID LOG2 PUSH5 0x6970667358 0x22 SLT KECCAK256 0xD6 0xC3 DUP7 PUSH14 0x2A0287D0A143E7409A5933DA73CD SWAP2 0xC6 DUP7 DUP12 0xDD 0xAF 0xE9 PUSH6 0xE76E81C0C697 PUSH5 0x736F6C6343 STOP ADDMOD SMOD STOP CALLER "
    },
    "gasEstimates": {
      "creation": {
        "codeDepositCost": "531400",
        "executionCost": "infinite",
        "totalCost": "infinite"
      },
      "external": {
        "getWinner()": "infinite",
        "takeTurn(uint256,uint256)": "infinite"
      },
      "internal": {
        "dodge(struct BattleHandler.Cowboy storage pointer)": "48657",
        "finishTurn(struct BattleHandler.Cowboy storage pointer,struct BattleHandler.Cowboy storage pointer)": "infinite",
        "reload(struct BattleHandler.Cowboy storage pointer)": "73023",
        "shoot(struct BattleHandler.Cowboy storage pointer)": "infinite"
      }
    },
    "methodIdentifiers": {
      "getWinner()": "8e7ea5b2",
      "takeTurn(uint256,uint256)": "f711f7ed"
    }
  },
  "storageLayout": {
    "storage": [
      {
        "astId": 28,
        "contract": "BattleHandler.sol:BattleHandler",
        "label": "battle",
        "offset": 0,
        "slot": "0",
        "type": "t_struct(Battle)14_storage"
      }
    ],
    "types": {
      "t_bool": {
        "encoding": "inplace",
        "label": "bool",
        "numberOfBytes": "1"
      },
      "t_string_storage": {
        "encoding": "bytes",
        "label": "string",
        "numberOfBytes": "32"
      },
      "t_struct(Battle)14_storage": {
        "encoding": "inplace",
        "label": "struct BattleHandler.Battle",
        "members": [
          {
            "astId": 4,
            "contract": "BattleHandler.sol:BattleHandler",
            "label": "cowboy1",
            "offset": 0,
            "slot": "0",
            "type": "t_struct(Cowboy)25_storage"
          },
          {
            "astId": 7,
            "contract": "BattleHandler.sol:BattleHandler",
            "label": "cowboy2",
            "offset": 0,
            "slot": "3",
            "type": "t_struct(Cowboy)25_storage"
          },
          {
            "astId": 9,
            "contract": "BattleHandler.sol:BattleHandler",
            "label": "winner",
            "offset": 0,
            "slot": "6",
            "type": "t_string_storage"
          },
          {
            "astId": 11,
            "contract": "BattleHandler.sol:BattleHandler",
            "label": "turnCounter",
            "offset": 0,
            "slot": "7",
            "type": "t_uint256"
          },
          {
            "astId": 13,
            "contract": "BattleHandler.sol:BattleHandler",
            "label": "gameOver",
            "offset": 0,
            "slot": "8",
            "type": "t_bool"
          }
        ],
        "numberOfBytes": "288"
      },
      "t_struct(Cowboy)25_storage": {
        "encoding": "inplace",
        "label": "struct BattleHandler.Cowboy",
        "members": [
          {
            "astId": 16,
            "contract": "BattleHandler.sol:BattleHandler",
            "label": "name",
            "offset": 0,
            "slot": "0",
            "type": "t_string_storage"
          },
          {
            "astId": 18,
            "contract": "BattleHandler.sol:BattleHandler",
            "label": "shots",
            "offset": 0,
            "slot": "1",
            "type": "t_uint256"
          },
          {
            "astId": 20,
            "contract": "BattleHandler.sol:BattleHandler",
            "label": "takenTurn",
            "offset": 0,
            "slot": "2",
            "type": "t_bool"
          },
          {
            "astId": 22,
            "contract": "BattleHandler.sol:BattleHandler",
            "label": "reloading",
            "offset": 1,
            "slot": "2",
            "type": "t_bool"
          },
          {
            "astId": 24,
            "contract": "BattleHandler.sol:BattleHandler",
            "label": "shooting",
            "offset": 2,
            "slot": "2",
            "type": "t_bool"
          }
        ],
        "numberOfBytes": "96"
      },
      "t_uint256": {
        "encoding": "inplace",
        "label": "uint256",
        "numberOfBytes": "32"
      }
    }
  },
  "userdoc": {
    "kind": "user",
    "methods": {},
    "version": 1
  }
}