{
  "abi": [
    {
      "inputs": [],
      "stateMutability": "nonpayable",
      "type": "constructor"
    },
    {
      "inputs": [
        {
          "internalType": "uint256",
          "name": "cowboyId1",
          "type": "uint256"
        },
        {
          "internalType": "uint256",
          "name": "cowboyId2",
          "type": "uint256"
        }
      ],
      "name": "createBattle",
      "outputs": [],
      "stateMutability": "nonpayable",
      "type": "function"
    },
    {
      "inputs": [
        {
          "internalType": "string",
          "name": "_name",
          "type": "string"
        }
      ],
      "name": "createCowboy",
      "outputs": [],
      "stateMutability": "nonpayable",
      "type": "function"
    },
    {
      "inputs": [
        {
          "internalType": "uint256",
          "name": "battleId",
          "type": "uint256"
        }
      ],
      "name": "getBattle",
      "outputs": [
        {
          "components": [
            {
              "internalType": "uint256",
              "name": "cowboyId0",
              "type": "uint256"
            },
            {
              "internalType": "uint256",
              "name": "cowboyId1",
              "type": "uint256"
            },
            {
              "internalType": "string",
              "name": "winner",
              "type": "string"
            },
            {
              "internalType": "uint256",
              "name": "turnCounter",
              "type": "uint256"
            },
            {
              "internalType": "bool",
              "name": "gameOver",
              "type": "bool"
            }
          ],
          "internalType": "struct BattleHandler.Battle",
          "name": "",
          "type": "tuple"
        }
      ],
      "stateMutability": "view",
      "type": "function"
    },
    {
      "inputs": [
        {
          "internalType": "uint256",
          "name": "cowboyId",
          "type": "uint256"
        }
      ],
      "name": "getCowboy",
      "outputs": [
        {
          "components": [
            {
              "internalType": "string",
              "name": "name",
              "type": "string"
            },
            {
              "internalType": "uint256",
              "name": "shots",
              "type": "uint256"
            },
            {
              "internalType": "bool",
              "name": "takenTurn",
              "type": "bool"
            },
            {
              "internalType": "bool",
              "name": "reloading",
              "type": "bool"
            },
            {
              "internalType": "bool",
              "name": "shooting",
              "type": "bool"
            }
          ],
          "internalType": "struct BattleHandler.Cowboy",
          "name": "",
          "type": "tuple"
        }
      ],
      "stateMutability": "view",
      "type": "function"
    },
    {
      "inputs": [
        {
          "internalType": "uint256",
          "name": "battleId",
          "type": "uint256"
        }
      ],
      "name": "getWinner",
      "outputs": [
        {
          "internalType": "string",
          "name": "",
          "type": "string"
        }
      ],
      "stateMutability": "view",
      "type": "function"
    },
    {
      "inputs": [
        {
          "internalType": "uint256",
          "name": "command",
          "type": "uint256"
        },
        {
          "internalType": "uint256",
          "name": "cowboyId",
          "type": "uint256"
        },
        {
          "internalType": "uint256",
          "name": "battleId",
          "type": "uint256"
        }
      ],
      "name": "takeTurn",
      "outputs": [],
      "stateMutability": "nonpayable",
      "type": "function"
    }
  ],
  "devdoc": {
    "author": "mattauer@umich.edu",
    "kind": "dev",
    "methods": {
      "createBattle(uint256,uint256)": {
        "details": "creates a new battle",
        "params": {
          "cowboyId1": "id of cowboy1",
          "cowboyId2": "id of cowboy2"
        }
      },
      "createCowboy(string)": {
        "details": "creates a new cowboy",
        "params": {
          "_name": "name of the new cowboy*"
        }
      },
      "getBattle(uint256)": {
        "details": "returns the battle of the give battle id",
        "params": {
          "battleId": "id of the battle to return"
        },
        "returns": {
          "_0": "the battle of the given id*"
        }
      },
      "getCowboy(uint256)": {
        "details": "returns the cowboy of the given id",
        "params": {
          "cowboyId": "id of the cowboy to return"
        },
        "returns": {
          "_0": "the cowboy of the given id"
        }
      },
      "getWinner(uint256)": {
        "details": "returns the winning name if the battle is over",
        "params": {
          "battleId": "id of the battle to get the winner"
        },
        "returns": {
          "_0": "returns the name of the winner of the battle*"
        }
      },
      "takeTurn(uint256,uint256,uint256)": {
        "details": "takes turn for a cowboy in a battle",
        "params": {
          "battleId": "specifies the battle for this turn",
          "command": "what action the cowboy takes",
          "cowboyId": "specifies which cowboy to command"
        }
      }
    },
    "title": "handles cowboy battling",
    "version": 1
  },
  "evm": {
    "assembly": "    /* \"BattleHandler.sol\":142:5288  contract BattleHandler {\r... */\n  mstore(0x40, 0x80)\n    /* \"BattleHandler.sol\":544:560  constructor() {} */\n  callvalue\n  dup1\n  iszero\n  tag_1\n  jumpi\n  0x00\n  dup1\n  revert\ntag_1:\n  pop\n    /* \"BattleHandler.sol\":142:5288  contract BattleHandler {\r... */\n  dataSize(sub_0)\n  dup1\n  dataOffset(sub_0)\n  0x00\n  codecopy\n  0x00\n  return\nstop\n\nsub_0: assembly {\n        /* \"BattleHandler.sol\":142:5288  contract BattleHandler {\r... */\n      mstore(0x40, 0x80)\n      callvalue\n      dup1\n      iszero\n      tag_1\n      jumpi\n      0x00\n      dup1\n      revert\n    tag_1:\n      pop\n      jumpi(tag_2, lt(calldatasize, 0x04))\n      shr(0xe0, calldataload(0x00))\n      dup1\n      0x4129b2c9\n      eq\n      tag_3\n      jumpi\n      dup1\n      0x5f4a0b85\n      eq\n      tag_4\n      jumpi\n      dup1\n      0x6dd0ce7a\n      eq\n      tag_5\n      jumpi\n      dup1\n      0x7dbef372\n      eq\n      tag_6\n      jumpi\n      dup1\n      0xdc118019\n      eq\n      tag_7\n      jumpi\n      dup1\n      0xdf73c49f\n      eq\n      tag_8\n      jumpi\n    tag_2:\n      0x00\n      dup1\n      revert\n        /* \"BattleHandler.sol\":992:1217  function getWinner(uint battleId) public view returns(string memory) {\r... */\n    tag_3:\n      tag_9\n      0x04\n      dup1\n      calldatasize\n      sub\n      dup2\n      add\n      swap1\n      tag_10\n      swap2\n      swap1\n      tag_11\n      jump\t// in\n    tag_10:\n      tag_12\n      jump\t// in\n    tag_9:\n      mload(0x40)\n      tag_13\n      swap2\n      swap1\n      tag_14\n      jump\t// in\n    tag_13:\n      mload(0x40)\n      dup1\n      swap2\n      sub\n      swap1\n      return\n        /* \"BattleHandler.sol\":1968:2091  function createCowboy(string memory _name) public {\r... */\n    tag_4:\n      tag_15\n      0x04\n      dup1\n      calldatasize\n      sub\n      dup2\n      add\n      swap1\n      tag_16\n      swap2\n      swap1\n      tag_17\n      jump\t// in\n    tag_16:\n      tag_18\n      jump\t// in\n    tag_15:\n      stop\n        /* \"BattleHandler.sol\":1388:1543  function getBattle(uint battleId) public idInBounds(battleId, battleList.length) view returns(Battle memory) {\r... */\n    tag_5:\n      tag_19\n      0x04\n      dup1\n      calldatasize\n      sub\n      dup2\n      add\n      swap1\n      tag_20\n      swap2\n      swap1\n      tag_11\n      jump\t// in\n    tag_20:\n      tag_21\n      jump\t// in\n    tag_19:\n      mload(0x40)\n      tag_22\n      swap2\n      swap1\n      tag_23\n      jump\t// in\n    tag_22:\n      mload(0x40)\n      dup1\n      swap2\n      sub\n      swap1\n      return\n        /* \"BattleHandler.sol\":2686:3686  function takeTurn(uint command, uint cowboyId, uint battleId) public idInBounds(cowboyId, cowboyList.length) idInBounds(battleId, battleList.length) {\r... */\n    tag_6:\n      tag_24\n      0x04\n      dup1\n      calldatasize\n      sub\n      dup2\n      add\n      swap1\n      tag_25\n      swap2\n      swap1\n      tag_26\n      jump\t// in\n    tag_25:\n      tag_27\n      jump\t// in\n    tag_24:\n      stop\n        /* \"BattleHandler.sol\":1709:1866  function getCowboy(uint cowboyId) public idInBounds(cowboyId, cowboyList.length) view returns(Cowboy memory) {\r... */\n    tag_7:\n      tag_28\n      0x04\n      dup1\n      calldatasize\n      sub\n      dup2\n      add\n      swap1\n      tag_29\n      swap2\n      swap1\n      tag_11\n      jump\t// in\n    tag_29:\n      tag_30\n      jump\t// in\n    tag_28:\n      mload(0x40)\n      tag_31\n      swap2\n      swap1\n      tag_32\n      jump\t// in\n    tag_31:\n      mload(0x40)\n      dup1\n      swap2\n      sub\n      swap1\n      return\n        /* \"BattleHandler.sol\":2226:2447  function createBattle(uint cowboyId1, uint cowboyId2) public idInBounds(cowboyId1, cowboyList.length) idInBounds(cowboyId2, cowboyList.length) {\r... */\n    tag_8:\n      tag_33\n      0x04\n      dup1\n      calldatasize\n      sub\n      dup2\n      add\n      swap1\n      tag_34\n      swap2\n      swap1\n      tag_35\n      jump\t// in\n    tag_34:\n      tag_36\n      jump\t// in\n    tag_33:\n      stop\n        /* \"BattleHandler.sol\":992:1217  function getWinner(uint battleId) public view returns(string memory) {\r... */\n    tag_12:\n        /* \"BattleHandler.sol\":1046:1059  string memory */\n      0x60\n        /* \"BattleHandler.sol\":1072:1093  Battle storage battle */\n      0x00\n        /* \"BattleHandler.sol\":1096:1106  battleList */\n      dup1\n        /* \"BattleHandler.sol\":1107:1115  battleId */\n      dup4\n        /* \"BattleHandler.sol\":1096:1116  battleList[battleId] */\n      dup2\n      sload\n      dup2\n      lt\n      tag_38\n      jumpi\n      tag_39\n      tag_40\n      jump\t// in\n    tag_39:\n    tag_38:\n      swap1\n      0x00\n      mstore\n      keccak256(0x00, 0x20)\n      swap1\n      0x05\n      mul\n      add\n        /* \"BattleHandler.sol\":1072:1116  Battle storage battle = battleList[battleId] */\n      swap1\n      pop\n        /* \"BattleHandler.sol\":1135:1141  battle */\n      dup1\n        /* \"BattleHandler.sol\":1135:1150  battle.gameOver */\n      0x04\n      add\n      0x00\n      swap1\n      sload\n      swap1\n      0x0100\n      exp\n      swap1\n      div\n      0xff\n      and\n        /* \"BattleHandler.sol\":1127:1178  require(battle.gameOver, \"There is no winner yet.\") */\n      tag_42\n      jumpi\n      mload(0x40)\n      0x08c379a000000000000000000000000000000000000000000000000000000000\n      dup2\n      mstore\n      0x04\n      add\n      tag_43\n      swap1\n      tag_44\n      jump\t// in\n    tag_43:\n      mload(0x40)\n      dup1\n      swap2\n      sub\n      swap1\n      revert\n    tag_42:\n        /* \"BattleHandler.sol\":1196:1202  battle */\n      dup1\n        /* \"BattleHandler.sol\":1196:1209  battle.winner */\n      0x02\n      add\n        /* \"BattleHandler.sol\":1189:1209  return battle.winner */\n      dup1\n      sload\n      tag_45\n      swap1\n      tag_46\n      jump\t// in\n    tag_45:\n      dup1\n      0x1f\n      add\n      0x20\n      dup1\n      swap2\n      div\n      mul\n      0x20\n      add\n      mload(0x40)\n      swap1\n      dup2\n      add\n      0x40\n      mstore\n      dup1\n      swap3\n      swap2\n      swap1\n      dup2\n      dup2\n      mstore\n      0x20\n      add\n      dup3\n      dup1\n      sload\n      tag_47\n      swap1\n      tag_46\n      jump\t// in\n    tag_47:\n      dup1\n      iszero\n      tag_48\n      jumpi\n      dup1\n      0x1f\n      lt\n      tag_49\n      jumpi\n      0x0100\n      dup1\n      dup4\n      sload\n      div\n      mul\n      dup4\n      mstore\n      swap2\n      0x20\n      add\n      swap2\n      jump(tag_48)\n    tag_49:\n      dup3\n      add\n      swap2\n      swap1\n      0x00\n      mstore\n      keccak256(0x00, 0x20)\n      swap1\n    tag_50:\n      dup2\n      sload\n      dup2\n      mstore\n      swap1\n      0x01\n      add\n      swap1\n      0x20\n      add\n      dup1\n      dup4\n      gt\n      tag_50\n      jumpi\n      dup3\n      swap1\n      sub\n      0x1f\n      and\n      dup3\n      add\n      swap2\n    tag_48:\n      pop\n      pop\n      pop\n      pop\n      pop\n      swap2\n      pop\n      pop\n        /* \"BattleHandler.sol\":992:1217  function getWinner(uint battleId) public view returns(string memory) {\r... */\n      swap2\n      swap1\n      pop\n      jump\t// out\n        /* \"BattleHandler.sol\":1968:2091  function createCowboy(string memory _name) public {\r... */\n    tag_18:\n        /* \"BattleHandler.sol\":2029:2039  cowboyList */\n      0x01\n        /* \"BattleHandler.sol\":2045:2082  Cowboy(_name, 0, false, false, false) */\n      mload(0x40)\n      dup1\n      0xa0\n      add\n      0x40\n      mstore\n      dup1\n        /* \"BattleHandler.sol\":2052:2057  _name */\n      dup4\n        /* \"BattleHandler.sol\":2045:2082  Cowboy(_name, 0, false, false, false) */\n      dup2\n      mstore\n      0x20\n      add\n        /* \"BattleHandler.sol\":2059:2060  0 */\n      0x00\n        /* \"BattleHandler.sol\":2045:2082  Cowboy(_name, 0, false, false, false) */\n      dup2\n      mstore\n      0x20\n      add\n        /* \"BattleHandler.sol\":2062:2067  false */\n      0x00\n        /* \"BattleHandler.sol\":2045:2082  Cowboy(_name, 0, false, false, false) */\n      iszero\n      iszero\n      dup2\n      mstore\n      0x20\n      add\n        /* \"BattleHandler.sol\":2069:2074  false */\n      0x00\n        /* \"BattleHandler.sol\":2045:2082  Cowboy(_name, 0, false, false, false) */\n      iszero\n      iszero\n      dup2\n      mstore\n      0x20\n      add\n        /* \"BattleHandler.sol\":2076:2081  false */\n      0x00\n        /* \"BattleHandler.sol\":2045:2082  Cowboy(_name, 0, false, false, false) */\n      iszero\n      iszero\n      dup2\n      mstore\n      pop\n        /* \"BattleHandler.sol\":2029:2083  cowboyList.push(Cowboy(_name, 0, false, false, false)) */\n      swap1\n      dup1\n      0x01\n      dup2\n      sload\n      add\n      dup1\n      dup3\n      sstore\n      dup1\n      swap2\n      pop\n      pop\n      0x01\n      swap1\n      sub\n      swap1\n      0x00\n      mstore\n      keccak256(0x00, 0x20)\n      swap1\n      0x03\n      mul\n      add\n      0x00\n      swap1\n      swap2\n      swap1\n      swap2\n      swap1\n      swap2\n      pop\n      0x00\n      dup3\n      add\n      mload\n      dup2\n      0x00\n      add\n      swap1\n      dup1\n      mload\n      swap1\n      0x20\n      add\n      swap1\n      tag_53\n      swap3\n      swap2\n      swap1\n      tag_54\n      jump\t// in\n    tag_53:\n      pop\n      0x20\n      dup3\n      add\n      mload\n      dup2\n      0x01\n      add\n      sstore\n      0x40\n      dup3\n      add\n      mload\n      dup2\n      0x02\n      add\n      exp(0x0100, 0x00)\n      dup2\n      sload\n      dup2\n      0xff\n      mul\n      not\n      and\n      swap1\n      dup4\n      iszero\n      iszero\n      mul\n      or\n      swap1\n      sstore\n      pop\n      0x60\n      dup3\n      add\n      mload\n      dup2\n      0x02\n      add\n      exp(0x0100, 0x01)\n      dup2\n      sload\n      dup2\n      0xff\n      mul\n      not\n      and\n      swap1\n      dup4\n      iszero\n      iszero\n      mul\n      or\n      swap1\n      sstore\n      pop\n      0x80\n      dup3\n      add\n      mload\n      dup2\n      0x02\n      add\n      exp(0x0100, 0x02)\n      dup2\n      sload\n      dup2\n      0xff\n      mul\n      not\n      and\n      swap1\n      dup4\n      iszero\n      iszero\n      mul\n      or\n      swap1\n      sstore\n      pop\n      pop\n      pop\n        /* \"BattleHandler.sol\":1968:2091  function createCowboy(string memory _name) public {\r... */\n      pop\n      jump\t// out\n        /* \"BattleHandler.sol\":1388:1543  function getBattle(uint battleId) public idInBounds(battleId, battleList.length) view returns(Battle memory) {\r... */\n    tag_21:\n        /* \"BattleHandler.sol\":1482:1495  Battle memory */\n      tag_55\n      tag_56\n      jump\t// in\n    tag_55:\n        /* \"BattleHandler.sol\":1440:1448  battleId */\n      dup2\n        /* \"BattleHandler.sol\":1450:1460  battleList */\n      0x00\n        /* \"BattleHandler.sol\":1450:1467  battleList.length */\n      dup1\n      sload\n      swap1\n      pop\n        /* \"BattleHandler.sol\":724:733  arrLength */\n      dup1\n        /* \"BattleHandler.sol\":719:721  id */\n      dup3\n        /* \"BattleHandler.sol\":719:733  id < arrLength */\n      lt\n        /* \"BattleHandler.sol\":711:767  require(id < arrLength, \"The given id is out of bounds\") */\n      tag_58\n      jumpi\n      mload(0x40)\n      0x08c379a000000000000000000000000000000000000000000000000000000000\n      dup2\n      mstore\n      0x04\n      add\n      tag_59\n      swap1\n      tag_60\n      jump\t// in\n    tag_59:\n      mload(0x40)\n      dup1\n      swap2\n      sub\n      swap1\n      revert\n    tag_58:\n        /* \"BattleHandler.sol\":1515:1525  battleList */\n      0x00\n        /* \"BattleHandler.sol\":1526:1534  battleId */\n      dup5\n        /* \"BattleHandler.sol\":1515:1535  battleList[battleId] */\n      dup2\n      sload\n      dup2\n      lt\n      tag_62\n      jumpi\n      tag_63\n      tag_40\n      jump\t// in\n    tag_63:\n    tag_62:\n      swap1\n      0x00\n      mstore\n      keccak256(0x00, 0x20)\n      swap1\n      0x05\n      mul\n      add\n        /* \"BattleHandler.sol\":1508:1535  return battleList[battleId] */\n      mload(0x40)\n      dup1\n      0xa0\n      add\n      0x40\n      mstore\n      swap1\n      dup2\n      0x00\n      dup3\n      add\n      sload\n      dup2\n      mstore\n      0x20\n      add\n      0x01\n      dup3\n      add\n      sload\n      dup2\n      mstore\n      0x20\n      add\n      0x02\n      dup3\n      add\n      dup1\n      sload\n      tag_65\n      swap1\n      tag_46\n      jump\t// in\n    tag_65:\n      dup1\n      0x1f\n      add\n      0x20\n      dup1\n      swap2\n      div\n      mul\n      0x20\n      add\n      mload(0x40)\n      swap1\n      dup2\n      add\n      0x40\n      mstore\n      dup1\n      swap3\n      swap2\n      swap1\n      dup2\n      dup2\n      mstore\n      0x20\n      add\n      dup3\n      dup1\n      sload\n      tag_66\n      swap1\n      tag_46\n      jump\t// in\n    tag_66:\n      dup1\n      iszero\n      tag_67\n      jumpi\n      dup1\n      0x1f\n      lt\n      tag_68\n      jumpi\n      0x0100\n      dup1\n      dup4\n      sload\n      div\n      mul\n      dup4\n      mstore\n      swap2\n      0x20\n      add\n      swap2\n      jump(tag_67)\n    tag_68:\n      dup3\n      add\n      swap2\n      swap1\n      0x00\n      mstore\n      keccak256(0x00, 0x20)\n      swap1\n    tag_69:\n      dup2\n      sload\n      dup2\n      mstore\n      swap1\n      0x01\n      add\n      swap1\n      0x20\n      add\n      dup1\n      dup4\n      gt\n      tag_69\n      jumpi\n      dup3\n      swap1\n      sub\n      0x1f\n      and\n      dup3\n      add\n      swap2\n    tag_67:\n      pop\n      pop\n      pop\n      pop\n      pop\n      dup2\n      mstore\n      0x20\n      add\n      0x03\n      dup3\n      add\n      sload\n      dup2\n      mstore\n      0x20\n      add\n      0x04\n      dup3\n      add\n      0x00\n      swap1\n      sload\n      swap1\n      0x0100\n      exp\n      swap1\n      div\n      0xff\n      and\n      iszero\n      iszero\n      iszero\n      iszero\n      dup2\n      mstore\n      pop\n      pop\n      swap3\n      pop\n        /* \"BattleHandler.sol\":1388:1543  function getBattle(uint battleId) public idInBounds(battleId, battleList.length) view returns(Battle memory) {\r... */\n      pop\n      pop\n      swap2\n      swap1\n      pop\n      jump\t// out\n        /* \"BattleHandler.sol\":2686:3686  function takeTurn(uint command, uint cowboyId, uint battleId) public idInBounds(cowboyId, cowboyList.length) idInBounds(battleId, battleList.length) {\r... */\n    tag_27:\n        /* \"BattleHandler.sol\":2766:2774  cowboyId */\n      dup2\n        /* \"BattleHandler.sol\":2776:2786  cowboyList */\n      0x01\n        /* \"BattleHandler.sol\":2776:2793  cowboyList.length */\n      dup1\n      sload\n      swap1\n      pop\n        /* \"BattleHandler.sol\":724:733  arrLength */\n      dup1\n        /* \"BattleHandler.sol\":719:721  id */\n      dup3\n        /* \"BattleHandler.sol\":719:733  id < arrLength */\n      lt\n        /* \"BattleHandler.sol\":711:767  require(id < arrLength, \"The given id is out of bounds\") */\n      tag_71\n      jumpi\n      mload(0x40)\n      0x08c379a000000000000000000000000000000000000000000000000000000000\n      dup2\n      mstore\n      0x04\n      add\n      tag_72\n      swap1\n      tag_60\n      jump\t// in\n    tag_72:\n      mload(0x40)\n      dup1\n      swap2\n      sub\n      swap1\n      revert\n    tag_71:\n        /* \"BattleHandler.sol\":2806:2814  battleId */\n      dup3\n        /* \"BattleHandler.sol\":2816:2826  battleList */\n      0x00\n        /* \"BattleHandler.sol\":2816:2833  battleList.length */\n      dup1\n      sload\n      swap1\n      pop\n        /* \"BattleHandler.sol\":724:733  arrLength */\n      dup1\n        /* \"BattleHandler.sol\":719:721  id */\n      dup3\n        /* \"BattleHandler.sol\":719:733  id < arrLength */\n      lt\n        /* \"BattleHandler.sol\":711:767  require(id < arrLength, \"The given id is out of bounds\") */\n      tag_74\n      jumpi\n      mload(0x40)\n      0x08c379a000000000000000000000000000000000000000000000000000000000\n      dup2\n      mstore\n      0x04\n      add\n      tag_75\n      swap1\n      tag_60\n      jump\t// in\n    tag_75:\n      mload(0x40)\n      dup1\n      swap2\n      sub\n      swap1\n      revert\n    tag_74:\n        /* \"BattleHandler.sol\":2846:2867  Battle storage battle */\n      0x00\n        /* \"BattleHandler.sol\":2870:2880  battleList */\n      dup1\n        /* \"BattleHandler.sol\":2881:2889  battleId */\n      dup7\n        /* \"BattleHandler.sol\":2870:2890  battleList[battleId] */\n      dup2\n      sload\n      dup2\n      lt\n      tag_77\n      jumpi\n      tag_78\n      tag_40\n      jump\t// in\n    tag_78:\n    tag_77:\n      swap1\n      0x00\n      mstore\n      keccak256(0x00, 0x20)\n      swap1\n      0x05\n      mul\n      add\n        /* \"BattleHandler.sol\":2846:2890  Battle storage battle = battleList[battleId] */\n      swap1\n      pop\n        /* \"BattleHandler.sol\":2910:2916  battle */\n      dup1\n        /* \"BattleHandler.sol\":2910:2925  battle.gameOver */\n      0x04\n      add\n      0x00\n      swap1\n      sload\n      swap1\n      0x0100\n      exp\n      swap1\n      div\n      0xff\n      and\n        /* \"BattleHandler.sol\":2909:2925  !battle.gameOver */\n      iszero\n        /* \"BattleHandler.sol\":2901:2976  require(!battle.gameOver, \"The game is over your cowboy can't take turns.\") */\n      tag_80\n      jumpi\n      mload(0x40)\n      0x08c379a000000000000000000000000000000000000000000000000000000000\n      dup2\n      mstore\n      0x04\n      add\n      tag_81\n      swap1\n      tag_82\n      jump\t// in\n    tag_81:\n      mload(0x40)\n      dup1\n      swap2\n      sub\n      swap1\n      revert\n    tag_80:\n        /* \"BattleHandler.sol\":3007:3013  battle */\n      dup1\n        /* \"BattleHandler.sol\":3007:3023  battle.cowboyId0 */\n      0x00\n      add\n      sload\n        /* \"BattleHandler.sol\":2995:3003  cowboyId */\n      dup8\n        /* \"BattleHandler.sol\":2995:3023  cowboyId == battle.cowboyId0 */\n      eq\n        /* \"BattleHandler.sol\":2995:3055  cowboyId == battle.cowboyId0 || cowboyId == battle.cowboyId1 */\n      dup1\n      tag_83\n      jumpi\n      pop\n        /* \"BattleHandler.sol\":3039:3045  battle */\n      dup1\n        /* \"BattleHandler.sol\":3039:3055  battle.cowboyId1 */\n      0x01\n      add\n      sload\n        /* \"BattleHandler.sol\":3027:3035  cowboyId */\n      dup8\n        /* \"BattleHandler.sol\":3027:3055  cowboyId == battle.cowboyId1 */\n      eq\n        /* \"BattleHandler.sol\":2995:3055  cowboyId == battle.cowboyId0 || cowboyId == battle.cowboyId1 */\n    tag_83:\n        /* \"BattleHandler.sol\":2987:3103  require(cowboyId == battle.cowboyId0 || cowboyId == battle.cowboyId1, \"The given cowboy is not in the given battle\") */\n      tag_84\n      jumpi\n      mload(0x40)\n      0x08c379a000000000000000000000000000000000000000000000000000000000\n      dup2\n      mstore\n      0x04\n      add\n      tag_85\n      swap1\n      tag_86\n      jump\t// in\n    tag_85:\n      mload(0x40)\n      dup1\n      swap2\n      sub\n      swap1\n      revert\n    tag_84:\n        /* \"BattleHandler.sol\":3114:3135  Cowboy storage cowboy */\n      0x00\n        /* \"BattleHandler.sol\":3138:3148  cowboyList */\n      0x01\n        /* \"BattleHandler.sol\":3149:3157  cowboyId */\n      dup9\n        /* \"BattleHandler.sol\":3138:3158  cowboyList[cowboyId] */\n      dup2\n      sload\n      dup2\n      lt\n      tag_87\n      jumpi\n      tag_88\n      tag_40\n      jump\t// in\n    tag_88:\n    tag_87:\n      swap1\n      0x00\n      mstore\n      keccak256(0x00, 0x20)\n      swap1\n      0x03\n      mul\n      add\n        /* \"BattleHandler.sol\":3114:3158  Cowboy storage cowboy = cowboyList[cowboyId] */\n      swap1\n      pop\n        /* \"BattleHandler.sol\":3178:3184  cowboy */\n      dup1\n        /* \"BattleHandler.sol\":3178:3194  cowboy.takenTurn */\n      0x02\n      add\n      0x00\n      swap1\n      sload\n      swap1\n      0x0100\n      exp\n      swap1\n      div\n      0xff\n      and\n        /* \"BattleHandler.sol\":3177:3194  !cowboy.takenTurn */\n      iszero\n        /* \"BattleHandler.sol\":3169:3239  require(!cowboy.takenTurn, \"Cowboy has already taken turn this round\") */\n      tag_90\n      jumpi\n      mload(0x40)\n      0x08c379a000000000000000000000000000000000000000000000000000000000\n      dup2\n      mstore\n      0x04\n      add\n      tag_91\n      swap1\n      tag_92\n      jump\t// in\n    tag_91:\n      mload(0x40)\n      dup1\n      swap2\n      sub\n      swap1\n      revert\n    tag_90:\n        /* \"BattleHandler.sol\":3267:3268  0 */\n      0x00\n        /* \"BattleHandler.sol\":3256:3263  command */\n      dup10\n        /* \"BattleHandler.sol\":3256:3268  command == 0 */\n      eq\n        /* \"BattleHandler.sol\":3252:3479  if (command == 0) {\r... */\n      iszero\n      tag_93\n      jumpi\n        /* \"BattleHandler.sol\":3285:3299  reload(cowboy) */\n      tag_94\n        /* \"BattleHandler.sol\":3292:3298  cowboy */\n      dup2\n        /* \"BattleHandler.sol\":3285:3291  reload */\n      tag_95\n        /* \"BattleHandler.sol\":3285:3299  reload(cowboy) */\n      jump\t// in\n    tag_94:\n        /* \"BattleHandler.sol\":3252:3479  if (command == 0) {\r... */\n      jump(tag_96)\n    tag_93:\n        /* \"BattleHandler.sol\":3332:3333  1 */\n      0x01\n        /* \"BattleHandler.sol\":3321:3328  command */\n      dup10\n        /* \"BattleHandler.sol\":3321:3333  command == 1 */\n      eq\n        /* \"BattleHandler.sol\":3317:3479  if (command == 1) {\r... */\n      iszero\n      tag_97\n      jumpi\n        /* \"BattleHandler.sol\":3350:3363  shoot(cowboy) */\n      tag_98\n        /* \"BattleHandler.sol\":3356:3362  cowboy */\n      dup2\n        /* \"BattleHandler.sol\":3350:3355  shoot */\n      tag_99\n        /* \"BattleHandler.sol\":3350:3363  shoot(cowboy) */\n      jump\t// in\n    tag_98:\n        /* \"BattleHandler.sol\":3317:3479  if (command == 1) {\r... */\n      jump(tag_100)\n    tag_97:\n        /* \"BattleHandler.sol\":3396:3397  2 */\n      0x02\n        /* \"BattleHandler.sol\":3385:3392  command */\n      dup10\n        /* \"BattleHandler.sol\":3385:3397  command == 2 */\n      eq\n        /* \"BattleHandler.sol\":3381:3479  if (command == 2) {\r... */\n      iszero\n      tag_101\n      jumpi\n        /* \"BattleHandler.sol\":3414:3427  dodge(cowboy) */\n      tag_102\n        /* \"BattleHandler.sol\":3420:3426  cowboy */\n      dup2\n        /* \"BattleHandler.sol\":3414:3419  dodge */\n      tag_103\n        /* \"BattleHandler.sol\":3414:3427  dodge(cowboy) */\n      jump\t// in\n    tag_102:\n        /* \"BattleHandler.sol\":3381:3479  if (command == 2) {\r... */\n      jump(tag_104)\n    tag_101:\n    tag_104:\n        /* \"BattleHandler.sol\":3317:3479  if (command == 1) {\r... */\n    tag_100:\n        /* \"BattleHandler.sol\":3252:3479  if (command == 0) {\r... */\n    tag_96:\n        /* \"BattleHandler.sol\":3508:3512  true */\n      0x01\n        /* \"BattleHandler.sol\":3489:3495  cowboy */\n      dup2\n        /* \"BattleHandler.sol\":3489:3505  cowboy.takenTurn */\n      0x02\n      add\n      0x00\n        /* \"BattleHandler.sol\":3489:3512  cowboy.takenTurn = true */\n      0x0100\n      exp\n      dup2\n      sload\n      dup2\n      0xff\n      mul\n      not\n      and\n      swap1\n      dup4\n      iszero\n      iszero\n      mul\n      or\n      swap1\n      sstore\n      pop\n        /* \"BattleHandler.sol\":3523:3529  battle */\n      dup2\n        /* \"BattleHandler.sol\":3523:3541  battle.turnCounter */\n      0x03\n      add\n      0x00\n        /* \"BattleHandler.sol\":3523:3543  battle.turnCounter++ */\n      dup2\n      sload\n      dup1\n      swap3\n      swap2\n      swap1\n      tag_105\n      swap1\n      tag_106\n      jump\t// in\n    tag_105:\n      swap2\n      swap1\n      pop\n      sstore\n      pop\n        /* \"BattleHandler.sol\":3580:3581  2 */\n      0x02\n        /* \"BattleHandler.sol\":3558:3564  battle */\n      dup3\n        /* \"BattleHandler.sol\":3558:3576  battle.turnCounter */\n      0x03\n      add\n      sload\n        /* \"BattleHandler.sol\":3558:3581  battle.turnCounter == 2 */\n      eq\n        /* \"BattleHandler.sol\":3554:3679  if (battle.turnCounter == 2) {\r... */\n      iszero\n      tag_107\n      jumpi\n        /* \"BattleHandler.sol\":3649:3667  finishTurn(battle) */\n      tag_108\n        /* \"BattleHandler.sol\":3660:3666  battle */\n      dup3\n        /* \"BattleHandler.sol\":3649:3659  finishTurn */\n      tag_109\n        /* \"BattleHandler.sol\":3649:3667  finishTurn(battle) */\n      jump\t// in\n    tag_108:\n        /* \"BattleHandler.sol\":3554:3679  if (battle.turnCounter == 2) {\r... */\n    tag_107:\n        /* \"BattleHandler.sol\":2835:3686  {\r... */\n      pop\n      pop\n        /* \"BattleHandler.sol\":779:780  _ */\n      pop\n      pop\n        /* \"BattleHandler.sol\":2686:3686  function takeTurn(uint command, uint cowboyId, uint battleId) public idInBounds(cowboyId, cowboyList.length) idInBounds(battleId, battleList.length) {\r... */\n      pop\n      pop\n      pop\n      pop\n      pop\n      jump\t// out\n        /* \"BattleHandler.sol\":1709:1866  function getCowboy(uint cowboyId) public idInBounds(cowboyId, cowboyList.length) view returns(Cowboy memory) {\r... */\n    tag_30:\n        /* \"BattleHandler.sol\":1803:1816  Cowboy memory */\n      tag_110\n      tag_111\n      jump\t// in\n    tag_110:\n        /* \"BattleHandler.sol\":1761:1769  cowboyId */\n      dup2\n        /* \"BattleHandler.sol\":1771:1781  cowboyList */\n      0x01\n        /* \"BattleHandler.sol\":1771:1788  cowboyList.length */\n      dup1\n      sload\n      swap1\n      pop\n        /* \"BattleHandler.sol\":724:733  arrLength */\n      dup1\n        /* \"BattleHandler.sol\":719:721  id */\n      dup3\n        /* \"BattleHandler.sol\":719:733  id < arrLength */\n      lt\n        /* \"BattleHandler.sol\":711:767  require(id < arrLength, \"The given id is out of bounds\") */\n      tag_113\n      jumpi\n      mload(0x40)\n      0x08c379a000000000000000000000000000000000000000000000000000000000\n      dup2\n      mstore\n      0x04\n      add\n      tag_114\n      swap1\n      tag_60\n      jump\t// in\n    tag_114:\n      mload(0x40)\n      dup1\n      swap2\n      sub\n      swap1\n      revert\n    tag_113:\n        /* \"BattleHandler.sol\":1837:1847  cowboyList */\n      0x01\n        /* \"BattleHandler.sol\":1848:1856  cowboyId */\n      dup5\n        /* \"BattleHandler.sol\":1837:1857  cowboyList[cowboyId] */\n      dup2\n      sload\n      dup2\n      lt\n      tag_116\n      jumpi\n      tag_117\n      tag_40\n      jump\t// in\n    tag_117:\n    tag_116:\n      swap1\n      0x00\n      mstore\n      keccak256(0x00, 0x20)\n      swap1\n      0x03\n      mul\n      add\n        /* \"BattleHandler.sol\":1830:1857  return cowboyList[cowboyId] */\n      mload(0x40)\n      dup1\n      0xa0\n      add\n      0x40\n      mstore\n      swap1\n      dup2\n      0x00\n      dup3\n      add\n      dup1\n      sload\n      tag_119\n      swap1\n      tag_46\n      jump\t// in\n    tag_119:\n      dup1\n      0x1f\n      add\n      0x20\n      dup1\n      swap2\n      div\n      mul\n      0x20\n      add\n      mload(0x40)\n      swap1\n      dup2\n      add\n      0x40\n      mstore\n      dup1\n      swap3\n      swap2\n      swap1\n      dup2\n      dup2\n      mstore\n      0x20\n      add\n      dup3\n      dup1\n      sload\n      tag_120\n      swap1\n      tag_46\n      jump\t// in\n    tag_120:\n      dup1\n      iszero\n      tag_121\n      jumpi\n      dup1\n      0x1f\n      lt\n      tag_122\n      jumpi\n      0x0100\n      dup1\n      dup4\n      sload\n      div\n      mul\n      dup4\n      mstore\n      swap2\n      0x20\n      add\n      swap2\n      jump(tag_121)\n    tag_122:\n      dup3\n      add\n      swap2\n      swap1\n      0x00\n      mstore\n      keccak256(0x00, 0x20)\n      swap1\n    tag_123:\n      dup2\n      sload\n      dup2\n      mstore\n      swap1\n      0x01\n      add\n      swap1\n      0x20\n      add\n      dup1\n      dup4\n      gt\n      tag_123\n      jumpi\n      dup3\n      swap1\n      sub\n      0x1f\n      and\n      dup3\n      add\n      swap2\n    tag_121:\n      pop\n      pop\n      pop\n      pop\n      pop\n      dup2\n      mstore\n      0x20\n      add\n      0x01\n      dup3\n      add\n      sload\n      dup2\n      mstore\n      0x20\n      add\n      0x02\n      dup3\n      add\n      0x00\n      swap1\n      sload\n      swap1\n      0x0100\n      exp\n      swap1\n      div\n      0xff\n      and\n      iszero\n      iszero\n      iszero\n      iszero\n      dup2\n      mstore\n      0x20\n      add\n      0x02\n      dup3\n      add\n      0x01\n      swap1\n      sload\n      swap1\n      0x0100\n      exp\n      swap1\n      div\n      0xff\n      and\n      iszero\n      iszero\n      iszero\n      iszero\n      dup2\n      mstore\n      0x20\n      add\n      0x02\n      dup3\n      add\n      0x02\n      swap1\n      sload\n      swap1\n      0x0100\n      exp\n      swap1\n      div\n      0xff\n      and\n      iszero\n      iszero\n      iszero\n      iszero\n      dup2\n      mstore\n      pop\n      pop\n      swap3\n      pop\n        /* \"BattleHandler.sol\":1709:1866  function getCowboy(uint cowboyId) public idInBounds(cowboyId, cowboyList.length) view returns(Cowboy memory) {\r... */\n      pop\n      pop\n      swap2\n      swap1\n      pop\n      jump\t// out\n        /* \"BattleHandler.sol\":2226:2447  function createBattle(uint cowboyId1, uint cowboyId2) public idInBounds(cowboyId1, cowboyList.length) idInBounds(cowboyId2, cowboyList.length) {\r... */\n    tag_36:\n        /* \"BattleHandler.sol\":2298:2307  cowboyId1 */\n      dup2\n        /* \"BattleHandler.sol\":2309:2319  cowboyList */\n      0x01\n        /* \"BattleHandler.sol\":2309:2326  cowboyList.length */\n      dup1\n      sload\n      swap1\n      pop\n        /* \"BattleHandler.sol\":724:733  arrLength */\n      dup1\n        /* \"BattleHandler.sol\":719:721  id */\n      dup3\n        /* \"BattleHandler.sol\":719:733  id < arrLength */\n      lt\n        /* \"BattleHandler.sol\":711:767  require(id < arrLength, \"The given id is out of bounds\") */\n      tag_125\n      jumpi\n      mload(0x40)\n      0x08c379a000000000000000000000000000000000000000000000000000000000\n      dup2\n      mstore\n      0x04\n      add\n      tag_126\n      swap1\n      tag_60\n      jump\t// in\n    tag_126:\n      mload(0x40)\n      dup1\n      swap2\n      sub\n      swap1\n      revert\n    tag_125:\n        /* \"BattleHandler.sol\":2339:2348  cowboyId2 */\n      dup3\n        /* \"BattleHandler.sol\":2350:2360  cowboyList */\n      0x01\n        /* \"BattleHandler.sol\":2350:2367  cowboyList.length */\n      dup1\n      sload\n      swap1\n      pop\n        /* \"BattleHandler.sol\":724:733  arrLength */\n      dup1\n        /* \"BattleHandler.sol\":719:721  id */\n      dup3\n        /* \"BattleHandler.sol\":719:733  id < arrLength */\n      lt\n        /* \"BattleHandler.sol\":711:767  require(id < arrLength, \"The given id is out of bounds\") */\n      tag_128\n      jumpi\n      mload(0x40)\n      0x08c379a000000000000000000000000000000000000000000000000000000000\n      dup2\n      mstore\n      0x04\n      add\n      tag_129\n      swap1\n      tag_60\n      jump\t// in\n    tag_129:\n      mload(0x40)\n      dup1\n      swap2\n      sub\n      swap1\n      revert\n    tag_128:\n        /* \"BattleHandler.sol\":2380:2390  battleList */\n      0x00\n        /* \"BattleHandler.sol\":2396:2438  Battle(cowboyId1, cowboyId2, \"\", 0, false) */\n      mload(0x40)\n      dup1\n      0xa0\n      add\n      0x40\n      mstore\n      dup1\n        /* \"BattleHandler.sol\":2403:2412  cowboyId1 */\n      dup9\n        /* \"BattleHandler.sol\":2396:2438  Battle(cowboyId1, cowboyId2, \"\", 0, false) */\n      dup2\n      mstore\n      0x20\n      add\n        /* \"BattleHandler.sol\":2414:2423  cowboyId2 */\n      dup8\n        /* \"BattleHandler.sol\":2396:2438  Battle(cowboyId1, cowboyId2, \"\", 0, false) */\n      dup2\n      mstore\n      0x20\n      add\n      mload(0x40)\n      dup1\n      0x20\n      add\n      0x40\n      mstore\n      dup1\n      0x00\n      dup2\n      mstore\n      pop\n      dup2\n      mstore\n      0x20\n      add\n        /* \"BattleHandler.sol\":2429:2430  0 */\n      0x00\n        /* \"BattleHandler.sol\":2396:2438  Battle(cowboyId1, cowboyId2, \"\", 0, false) */\n      dup2\n      mstore\n      0x20\n      add\n        /* \"BattleHandler.sol\":2432:2437  false */\n      0x00\n        /* \"BattleHandler.sol\":2396:2438  Battle(cowboyId1, cowboyId2, \"\", 0, false) */\n      iszero\n      iszero\n      dup2\n      mstore\n      pop\n        /* \"BattleHandler.sol\":2380:2439  battleList.push(Battle(cowboyId1, cowboyId2, \"\", 0, false)) */\n      swap1\n      dup1\n      0x01\n      dup2\n      sload\n      add\n      dup1\n      dup3\n      sstore\n      dup1\n      swap2\n      pop\n      pop\n      0x01\n      swap1\n      sub\n      swap1\n      0x00\n      mstore\n      keccak256(0x00, 0x20)\n      swap1\n      0x05\n      mul\n      add\n      0x00\n      swap1\n      swap2\n      swap1\n      swap2\n      swap1\n      swap2\n      pop\n      0x00\n      dup3\n      add\n      mload\n      dup2\n      0x00\n      add\n      sstore\n      0x20\n      dup3\n      add\n      mload\n      dup2\n      0x01\n      add\n      sstore\n      0x40\n      dup3\n      add\n      mload\n      dup2\n      0x02\n      add\n      swap1\n      dup1\n      mload\n      swap1\n      0x20\n      add\n      swap1\n      tag_132\n      swap3\n      swap2\n      swap1\n      tag_54\n      jump\t// in\n    tag_132:\n      pop\n      0x60\n      dup3\n      add\n      mload\n      dup2\n      0x03\n      add\n      sstore\n      0x80\n      dup3\n      add\n      mload\n      dup2\n      0x04\n      add\n      exp(0x0100, 0x00)\n      dup2\n      sload\n      dup2\n      0xff\n      mul\n      not\n      and\n      swap1\n      dup4\n      iszero\n      iszero\n      mul\n      or\n      swap1\n      sstore\n      pop\n      pop\n      pop\n        /* \"BattleHandler.sol\":779:780  _ */\n      pop\n      pop\n        /* \"BattleHandler.sol\":2226:2447  function createBattle(uint cowboyId1, uint cowboyId2) public idInBounds(cowboyId1, cowboyList.length) idInBounds(cowboyId2, cowboyList.length) {\r... */\n      pop\n      pop\n      pop\n      pop\n      jump\t// out\n        /* \"BattleHandler.sol\":4594:4743  function reload(Cowboy storage cowboy) internal {\r... */\n    tag_95:\n        /* \"BattleHandler.sol\":4653:4659  cowboy */\n      dup1\n        /* \"BattleHandler.sol\":4653:4665  cowboy.shots */\n      0x01\n      add\n      0x00\n        /* \"BattleHandler.sol\":4653:4667  cowboy.shots++ */\n      dup2\n      sload\n      dup1\n      swap3\n      swap2\n      swap1\n      tag_134\n      swap1\n      tag_106\n      jump\t// in\n    tag_134:\n      swap2\n      swap1\n      pop\n      sstore\n      pop\n        /* \"BattleHandler.sol\":4697:4701  true */\n      0x01\n        /* \"BattleHandler.sol\":4678:4684  cowboy */\n      dup2\n        /* \"BattleHandler.sol\":4678:4694  cowboy.reloading */\n      0x02\n      add\n      0x01\n        /* \"BattleHandler.sol\":4678:4701  cowboy.reloading = true */\n      0x0100\n      exp\n      dup2\n      sload\n      dup2\n      0xff\n      mul\n      not\n      and\n      swap1\n      dup4\n      iszero\n      iszero\n      mul\n      or\n      swap1\n      sstore\n      pop\n        /* \"BattleHandler.sol\":4730:4735  false */\n      0x00\n        /* \"BattleHandler.sol\":4712:4718  cowboy */\n      dup2\n        /* \"BattleHandler.sol\":4712:4727  cowboy.shooting */\n      0x02\n      add\n      0x02\n        /* \"BattleHandler.sol\":4712:4735  cowboy.shooting = false */\n      0x0100\n      exp\n      dup2\n      sload\n      dup2\n      0xff\n      mul\n      not\n      and\n      swap1\n      dup4\n      iszero\n      iszero\n      mul\n      or\n      swap1\n      sstore\n      pop\n        /* \"BattleHandler.sol\":4594:4743  function reload(Cowboy storage cowboy) internal {\r... */\n      pop\n      jump\t// out\n        /* \"BattleHandler.sol\":4845:5070  function shoot(Cowboy storage cowboy) internal {\r... */\n    tag_99:\n        /* \"BattleHandler.sol\":4927:4928  1 */\n      0x01\n        /* \"BattleHandler.sol\":4911:4917  cowboy */\n      dup2\n        /* \"BattleHandler.sol\":4911:4923  cowboy.shots */\n      0x01\n      add\n      sload\n        /* \"BattleHandler.sol\":4911:4928  cowboy.shots >= 1 */\n      lt\n      iszero\n        /* \"BattleHandler.sol\":4903:4969  require(cowboy.shots >= 1, \"Your cowboy can't shoot without ammo\") */\n      tag_136\n      jumpi\n      mload(0x40)\n      0x08c379a000000000000000000000000000000000000000000000000000000000\n      dup2\n      mstore\n      0x04\n      add\n      tag_137\n      swap1\n      tag_138\n      jump\t// in\n    tag_137:\n      mload(0x40)\n      dup1\n      swap2\n      sub\n      swap1\n      revert\n    tag_136:\n        /* \"BattleHandler.sol\":4980:4986  cowboy */\n      dup1\n        /* \"BattleHandler.sol\":4980:4992  cowboy.shots */\n      0x01\n      add\n      0x00\n        /* \"BattleHandler.sol\":4980:4994  cowboy.shots-- */\n      dup2\n      sload\n      dup1\n      swap3\n      swap2\n      swap1\n      tag_139\n      swap1\n      tag_140\n      jump\t// in\n    tag_139:\n      swap2\n      swap1\n      pop\n      sstore\n      pop\n        /* \"BattleHandler.sol\":5024:5029  false */\n      0x00\n        /* \"BattleHandler.sol\":5005:5011  cowboy */\n      dup2\n        /* \"BattleHandler.sol\":5005:5021  cowboy.reloading */\n      0x02\n      add\n      0x01\n        /* \"BattleHandler.sol\":5005:5029  cowboy.reloading = false */\n      0x0100\n      exp\n      dup2\n      sload\n      dup2\n      0xff\n      mul\n      not\n      and\n      swap1\n      dup4\n      iszero\n      iszero\n      mul\n      or\n      swap1\n      sstore\n      pop\n        /* \"BattleHandler.sol\":5058:5062  true */\n      0x01\n        /* \"BattleHandler.sol\":5040:5046  cowboy */\n      dup2\n        /* \"BattleHandler.sol\":5040:5055  cowboy.shooting */\n      0x02\n      add\n      0x02\n        /* \"BattleHandler.sol\":5040:5062  cowboy.shooting = true */\n      0x0100\n      exp\n      dup2\n      sload\n      dup2\n      0xff\n      mul\n      not\n      and\n      swap1\n      dup4\n      iszero\n      iszero\n      mul\n      or\n      swap1\n      sstore\n      pop\n        /* \"BattleHandler.sol\":4845:5070  function shoot(Cowboy storage cowboy) internal {\r... */\n      pop\n      jump\t// out\n        /* \"BattleHandler.sol\":5161:5285  function dodge(Cowboy storage cowboy) internal {\r... */\n    tag_103:\n        /* \"BattleHandler.sol\":5238:5243  false */\n      0x00\n        /* \"BattleHandler.sol\":5219:5225  cowboy */\n      dup2\n        /* \"BattleHandler.sol\":5219:5235  cowboy.reloading */\n      0x02\n      add\n      0x01\n        /* \"BattleHandler.sol\":5219:5243  cowboy.reloading = false */\n      0x0100\n      exp\n      dup2\n      sload\n      dup2\n      0xff\n      mul\n      not\n      and\n      swap1\n      dup4\n      iszero\n      iszero\n      mul\n      or\n      swap1\n      sstore\n      pop\n        /* \"BattleHandler.sol\":5272:5277  false */\n      0x00\n        /* \"BattleHandler.sol\":5254:5260  cowboy */\n      dup2\n        /* \"BattleHandler.sol\":5254:5269  cowboy.shooting */\n      0x02\n      add\n      0x02\n        /* \"BattleHandler.sol\":5254:5277  cowboy.shooting = false */\n      0x0100\n      exp\n      dup2\n      sload\n      dup2\n      0xff\n      mul\n      not\n      and\n      swap1\n      dup4\n      iszero\n      iszero\n      mul\n      or\n      swap1\n      sstore\n      pop\n        /* \"BattleHandler.sol\":5161:5285  function dodge(Cowboy storage cowboy) internal {\r... */\n      pop\n      jump\t// out\n        /* \"BattleHandler.sol\":3823:4493  function finishTurn(Battle storage battle) internal {\r... */\n    tag_109:\n        /* \"BattleHandler.sol\":3886:3908  Cowboy storage cowboy1 */\n      0x00\n        /* \"BattleHandler.sol\":3911:3921  cowboyList */\n      0x01\n        /* \"BattleHandler.sol\":3922:3928  battle */\n      dup3\n        /* \"BattleHandler.sol\":3922:3938  battle.cowboyId0 */\n      0x00\n      add\n      sload\n        /* \"BattleHandler.sol\":3911:3939  cowboyList[battle.cowboyId0] */\n      dup2\n      sload\n      dup2\n      lt\n      tag_143\n      jumpi\n      tag_144\n      tag_40\n      jump\t// in\n    tag_144:\n    tag_143:\n      swap1\n      0x00\n      mstore\n      keccak256(0x00, 0x20)\n      swap1\n      0x03\n      mul\n      add\n        /* \"BattleHandler.sol\":3886:3939  Cowboy storage cowboy1 = cowboyList[battle.cowboyId0] */\n      swap1\n      pop\n        /* \"BattleHandler.sol\":3950:3972  Cowboy storage cowboy2 */\n      0x00\n        /* \"BattleHandler.sol\":3975:3985  cowboyList */\n      0x01\n        /* \"BattleHandler.sol\":3986:3992  battle */\n      dup4\n        /* \"BattleHandler.sol\":3986:4002  battle.cowboyId1 */\n      0x01\n      add\n      sload\n        /* \"BattleHandler.sol\":3975:4003  cowboyList[battle.cowboyId1] */\n      dup2\n      sload\n      dup2\n      lt\n      tag_146\n      jumpi\n      tag_147\n      tag_40\n      jump\t// in\n    tag_147:\n    tag_146:\n      swap1\n      0x00\n      mstore\n      keccak256(0x00, 0x20)\n      swap1\n      0x03\n      mul\n      add\n        /* \"BattleHandler.sol\":3950:4003  Cowboy storage cowboy2 = cowboyList[battle.cowboyId1] */\n      swap1\n      pop\n        /* \"BattleHandler.sol\":4018:4025  cowboy1 */\n      dup2\n        /* \"BattleHandler.sol\":4018:4034  cowboy1.shooting */\n      0x02\n      add\n      0x02\n      swap1\n      sload\n      swap1\n      0x0100\n      exp\n      swap1\n      div\n      0xff\n      and\n        /* \"BattleHandler.sol\":4018:4055  cowboy1.shooting && cowboy2.reloading */\n      dup1\n      iszero\n      tag_149\n      jumpi\n      pop\n        /* \"BattleHandler.sol\":4038:4045  cowboy2 */\n      dup1\n        /* \"BattleHandler.sol\":4038:4055  cowboy2.reloading */\n      0x02\n      add\n      0x01\n      swap1\n      sload\n      swap1\n      0x0100\n      exp\n      swap1\n      div\n      0xff\n      and\n        /* \"BattleHandler.sol\":4018:4055  cowboy1.shooting && cowboy2.reloading */\n    tag_149:\n        /* \"BattleHandler.sol\":4014:4349  if (cowboy1.shooting && cowboy2.reloading) {\r... */\n      iszero\n      tag_150\n      jumpi\n        /* \"BattleHandler.sol\":4118:4125  cowboy1 */\n      dup2\n        /* \"BattleHandler.sol\":4118:4130  cowboy1.name */\n      0x00\n      add\n        /* \"BattleHandler.sol\":4102:4108  battle */\n      dup4\n        /* \"BattleHandler.sol\":4102:4115  battle.winner */\n      0x02\n      add\n        /* \"BattleHandler.sol\":4102:4130  battle.winner = cowboy1.name */\n      swap1\n      dup1\n      sload\n      tag_151\n      swap1\n      tag_46\n      jump\t// in\n    tag_151:\n      tag_152\n      swap3\n      swap2\n      swap1\n      tag_153\n      jump\t// in\n    tag_152:\n      pop\n        /* \"BattleHandler.sol\":4163:4167  true */\n      0x01\n        /* \"BattleHandler.sol\":4145:4151  battle */\n      dup4\n        /* \"BattleHandler.sol\":4145:4160  battle.gameOver */\n      0x04\n      add\n      0x00\n        /* \"BattleHandler.sol\":4145:4167  battle.gameOver = true */\n      0x0100\n      exp\n      dup2\n      sload\n      dup2\n      0xff\n      mul\n      not\n      and\n      swap1\n      dup4\n      iszero\n      iszero\n      mul\n      or\n      swap1\n      sstore\n      pop\n        /* \"BattleHandler.sol\":4014:4349  if (cowboy1.shooting && cowboy2.reloading) {\r... */\n      jump(tag_154)\n    tag_150:\n        /* \"BattleHandler.sol\":4189:4196  cowboy2 */\n      dup1\n        /* \"BattleHandler.sol\":4189:4205  cowboy2.shooting */\n      0x02\n      add\n      0x02\n      swap1\n      sload\n      swap1\n      0x0100\n      exp\n      swap1\n      div\n      0xff\n      and\n        /* \"BattleHandler.sol\":4189:4226  cowboy2.shooting && cowboy1.reloading */\n      dup1\n      iszero\n      tag_155\n      jumpi\n      pop\n        /* \"BattleHandler.sol\":4209:4216  cowboy1 */\n      dup2\n        /* \"BattleHandler.sol\":4209:4226  cowboy1.reloading */\n      0x02\n      add\n      0x01\n      swap1\n      sload\n      swap1\n      0x0100\n      exp\n      swap1\n      div\n      0xff\n      and\n        /* \"BattleHandler.sol\":4189:4226  cowboy2.shooting && cowboy1.reloading */\n    tag_155:\n        /* \"BattleHandler.sol\":4185:4349  if (cowboy2.shooting && cowboy1.reloading){\r... */\n      iszero\n      tag_156\n      jumpi\n        /* \"BattleHandler.sol\":4288:4295  cowboy2 */\n      dup1\n        /* \"BattleHandler.sol\":4288:4300  cowboy2.name */\n      0x00\n      add\n        /* \"BattleHandler.sol\":4272:4278  battle */\n      dup4\n        /* \"BattleHandler.sol\":4272:4285  battle.winner */\n      0x02\n      add\n        /* \"BattleHandler.sol\":4272:4300  battle.winner = cowboy2.name */\n      swap1\n      dup1\n      sload\n      tag_157\n      swap1\n      tag_46\n      jump\t// in\n    tag_157:\n      tag_158\n      swap3\n      swap2\n      swap1\n      tag_153\n      jump\t// in\n    tag_158:\n      pop\n        /* \"BattleHandler.sol\":4333:4337  true */\n      0x01\n        /* \"BattleHandler.sol\":4315:4321  battle */\n      dup4\n        /* \"BattleHandler.sol\":4315:4330  battle.gameOver */\n      0x04\n      add\n      0x00\n        /* \"BattleHandler.sol\":4315:4337  battle.gameOver = true */\n      0x0100\n      exp\n      dup2\n      sload\n      dup2\n      0xff\n      mul\n      not\n      and\n      swap1\n      dup4\n      iszero\n      iszero\n      mul\n      or\n      swap1\n      sstore\n      pop\n        /* \"BattleHandler.sol\":4185:4349  if (cowboy2.shooting && cowboy1.reloading){\r... */\n    tag_156:\n        /* \"BattleHandler.sol\":4014:4349  if (cowboy1.shooting && cowboy2.reloading) {\r... */\n    tag_154:\n        /* \"BattleHandler.sol\":4411:4416  false */\n      0x00\n        /* \"BattleHandler.sol\":4391:4398  cowboy1 */\n      dup3\n        /* \"BattleHandler.sol\":4391:4408  cowboy1.takenTurn */\n      0x02\n      add\n      0x00\n        /* \"BattleHandler.sol\":4391:4416  cowboy1.takenTurn = false */\n      0x0100\n      exp\n      dup2\n      sload\n      dup2\n      0xff\n      mul\n      not\n      and\n      swap1\n      dup4\n      iszero\n      iszero\n      mul\n      or\n      swap1\n      sstore\n      pop\n        /* \"BattleHandler.sol\":4447:4452  false */\n      0x00\n        /* \"BattleHandler.sol\":4427:4434  cowboy2 */\n      dup2\n        /* \"BattleHandler.sol\":4427:4444  cowboy2.takenTurn */\n      0x02\n      add\n      0x00\n        /* \"BattleHandler.sol\":4427:4452  cowboy2.takenTurn = false */\n      0x0100\n      exp\n      dup2\n      sload\n      dup2\n      0xff\n      mul\n      not\n      and\n      swap1\n      dup4\n      iszero\n      iszero\n      mul\n      or\n      swap1\n      sstore\n      pop\n        /* \"BattleHandler.sol\":4484:4485  0 */\n      0x00\n        /* \"BattleHandler.sol\":4463:4469  battle */\n      dup4\n        /* \"BattleHandler.sol\":4463:4481  battle.turnCounter */\n      0x03\n      add\n        /* \"BattleHandler.sol\":4463:4485  battle.turnCounter = 0 */\n      dup2\n      swap1\n      sstore\n      pop\n        /* \"BattleHandler.sol\":3875:4493  {\r... */\n      pop\n      pop\n        /* \"BattleHandler.sol\":3823:4493  function finishTurn(Battle storage battle) internal {\r... */\n      pop\n      jump\t// out\n    tag_54:\n      dup3\n      dup1\n      sload\n      tag_159\n      swap1\n      tag_46\n      jump\t// in\n    tag_159:\n      swap1\n      0x00\n      mstore\n      keccak256(0x00, 0x20)\n      swap1\n      0x1f\n      add\n      0x20\n      swap1\n      div\n      dup2\n      add\n      swap3\n      dup3\n      tag_161\n      jumpi\n      0x00\n      dup6\n      sstore\n      jump(tag_160)\n    tag_161:\n      dup3\n      0x1f\n      lt\n      tag_162\n      jumpi\n      dup1\n      mload\n      not(0xff)\n      and\n      dup4\n      dup1\n      add\n      or\n      dup6\n      sstore\n      jump(tag_160)\n    tag_162:\n      dup3\n      dup1\n      add\n      0x01\n      add\n      dup6\n      sstore\n      dup3\n      iszero\n      tag_160\n      jumpi\n      swap2\n      dup3\n      add\n    tag_163:\n      dup3\n      dup2\n      gt\n      iszero\n      tag_164\n      jumpi\n      dup3\n      mload\n      dup3\n      sstore\n      swap2\n      0x20\n      add\n      swap2\n      swap1\n      0x01\n      add\n      swap1\n      jump(tag_163)\n    tag_164:\n    tag_160:\n      pop\n      swap1\n      pop\n      tag_165\n      swap2\n      swap1\n      tag_166\n      jump\t// in\n    tag_165:\n      pop\n      swap1\n      jump\t// out\n    tag_56:\n      mload(0x40)\n      dup1\n      0xa0\n      add\n      0x40\n      mstore\n      dup1\n      0x00\n      dup2\n      mstore\n      0x20\n      add\n      0x00\n      dup2\n      mstore\n      0x20\n      add\n      0x60\n      dup2\n      mstore\n      0x20\n      add\n      0x00\n      dup2\n      mstore\n      0x20\n      add\n      iszero(iszero(0x00))\n      dup2\n      mstore\n      pop\n      swap1\n      jump\t// out\n    tag_111:\n      mload(0x40)\n      dup1\n      0xa0\n      add\n      0x40\n      mstore\n      dup1\n      0x60\n      dup2\n      mstore\n      0x20\n      add\n      0x00\n      dup2\n      mstore\n      0x20\n      add\n      iszero(iszero(0x00))\n      dup2\n      mstore\n      0x20\n      add\n      iszero(iszero(0x00))\n      dup2\n      mstore\n      0x20\n      add\n      iszero(iszero(0x00))\n      dup2\n      mstore\n      pop\n      swap1\n      jump\t// out\n    tag_153:\n      dup3\n      dup1\n      sload\n      tag_167\n      swap1\n      tag_46\n      jump\t// in\n    tag_167:\n      swap1\n      0x00\n      mstore\n      keccak256(0x00, 0x20)\n      swap1\n      0x1f\n      add\n      0x20\n      swap1\n      div\n      dup2\n      add\n      swap3\n      dup3\n      tag_169\n      jumpi\n      0x00\n      dup6\n      sstore\n      jump(tag_168)\n    tag_169:\n      dup3\n      0x1f\n      lt\n      tag_170\n      jumpi\n      dup1\n      sload\n      dup6\n      sstore\n      jump(tag_168)\n    tag_170:\n      dup3\n      dup1\n      add\n      0x01\n      add\n      dup6\n      sstore\n      dup3\n      iszero\n      tag_168\n      jumpi\n      0x00\n      mstore\n      keccak256(0x00, 0x20)\n      swap2\n      0x1f\n      add\n      0x20\n      swap1\n      div\n      dup3\n      add\n    tag_171:\n      dup3\n      dup2\n      gt\n      iszero\n      tag_172\n      jumpi\n      dup3\n      sload\n      dup3\n      sstore\n      swap2\n      0x01\n      add\n      swap2\n      swap1\n      0x01\n      add\n      swap1\n      jump(tag_171)\n    tag_172:\n    tag_168:\n      pop\n      swap1\n      pop\n      tag_173\n      swap2\n      swap1\n      tag_166\n      jump\t// in\n    tag_173:\n      pop\n      swap1\n      jump\t// out\n    tag_166:\n    tag_174:\n      dup1\n      dup3\n      gt\n      iszero\n      tag_175\n      jumpi\n      0x00\n      dup2\n      0x00\n      swap1\n      sstore\n      pop\n      0x01\n      add\n      jump(tag_174)\n    tag_175:\n      pop\n      swap1\n      jump\t// out\n        /* \"#utility.yul\":7:419   */\n    tag_177:\n        /* \"#utility.yul\":85:90   */\n      0x00\n        /* \"#utility.yul\":110:176   */\n      tag_179\n        /* \"#utility.yul\":126:175   */\n      tag_180\n        /* \"#utility.yul\":168:174   */\n      dup5\n        /* \"#utility.yul\":126:175   */\n      tag_181\n      jump\t// in\n    tag_180:\n        /* \"#utility.yul\":110:176   */\n      tag_182\n      jump\t// in\n    tag_179:\n        /* \"#utility.yul\":101:176   */\n      swap1\n      pop\n        /* \"#utility.yul\":199:205   */\n      dup3\n        /* \"#utility.yul\":192:197   */\n      dup2\n        /* \"#utility.yul\":185:206   */\n      mstore\n        /* \"#utility.yul\":237:241   */\n      0x20\n        /* \"#utility.yul\":230:235   */\n      dup2\n        /* \"#utility.yul\":226:242   */\n      add\n        /* \"#utility.yul\":275:278   */\n      dup5\n        /* \"#utility.yul\":266:272   */\n      dup5\n        /* \"#utility.yul\":261:264   */\n      dup5\n        /* \"#utility.yul\":257:273   */\n      add\n        /* \"#utility.yul\":254:279   */\n      gt\n        /* \"#utility.yul\":251:363   */\n      iszero\n      tag_183\n      jumpi\n        /* \"#utility.yul\":282:361   */\n      tag_184\n      tag_185\n      jump\t// in\n    tag_184:\n        /* \"#utility.yul\":251:363   */\n    tag_183:\n        /* \"#utility.yul\":372:413   */\n      tag_186\n        /* \"#utility.yul\":406:412   */\n      dup5\n        /* \"#utility.yul\":401:404   */\n      dup3\n        /* \"#utility.yul\":396:399   */\n      dup6\n        /* \"#utility.yul\":372:413   */\n      tag_187\n      jump\t// in\n    tag_186:\n        /* \"#utility.yul\":91:419   */\n      pop\n        /* \"#utility.yul\":7:419   */\n      swap4\n      swap3\n      pop\n      pop\n      pop\n      jump\t// out\n        /* \"#utility.yul\":439:779   */\n    tag_188:\n        /* \"#utility.yul\":495:500   */\n      0x00\n        /* \"#utility.yul\":544:547   */\n      dup3\n        /* \"#utility.yul\":537:541   */\n      0x1f\n        /* \"#utility.yul\":529:535   */\n      dup4\n        /* \"#utility.yul\":525:542   */\n      add\n        /* \"#utility.yul\":521:548   */\n      slt\n        /* \"#utility.yul\":511:633   */\n      tag_190\n      jumpi\n        /* \"#utility.yul\":552:631   */\n      tag_191\n      tag_192\n      jump\t// in\n    tag_191:\n        /* \"#utility.yul\":511:633   */\n    tag_190:\n        /* \"#utility.yul\":669:675   */\n      dup2\n        /* \"#utility.yul\":656:676   */\n      calldataload\n        /* \"#utility.yul\":694:773   */\n      tag_193\n        /* \"#utility.yul\":769:772   */\n      dup5\n        /* \"#utility.yul\":761:767   */\n      dup3\n        /* \"#utility.yul\":754:758   */\n      0x20\n        /* \"#utility.yul\":746:752   */\n      dup7\n        /* \"#utility.yul\":742:759   */\n      add\n        /* \"#utility.yul\":694:773   */\n      tag_177\n      jump\t// in\n    tag_193:\n        /* \"#utility.yul\":685:773   */\n      swap2\n      pop\n        /* \"#utility.yul\":501:779   */\n      pop\n        /* \"#utility.yul\":439:779   */\n      swap3\n      swap2\n      pop\n      pop\n      jump\t// out\n        /* \"#utility.yul\":785:924   */\n    tag_194:\n        /* \"#utility.yul\":831:836   */\n      0x00\n        /* \"#utility.yul\":869:875   */\n      dup2\n        /* \"#utility.yul\":856:876   */\n      calldataload\n        /* \"#utility.yul\":847:876   */\n      swap1\n      pop\n        /* \"#utility.yul\":885:918   */\n      tag_196\n        /* \"#utility.yul\":912:917   */\n      dup2\n        /* \"#utility.yul\":885:918   */\n      tag_197\n      jump\t// in\n    tag_196:\n        /* \"#utility.yul\":785:924   */\n      swap3\n      swap2\n      pop\n      pop\n      jump\t// out\n        /* \"#utility.yul\":930:1439   */\n    tag_17:\n        /* \"#utility.yul\":999:1005   */\n      0x00\n        /* \"#utility.yul\":1048:1050   */\n      0x20\n        /* \"#utility.yul\":1036:1045   */\n      dup3\n        /* \"#utility.yul\":1027:1034   */\n      dup5\n        /* \"#utility.yul\":1023:1046   */\n      sub\n        /* \"#utility.yul\":1019:1051   */\n      slt\n        /* \"#utility.yul\":1016:1135   */\n      iszero\n      tag_199\n      jumpi\n        /* \"#utility.yul\":1054:1133   */\n      tag_200\n      tag_201\n      jump\t// in\n    tag_200:\n        /* \"#utility.yul\":1016:1135   */\n    tag_199:\n        /* \"#utility.yul\":1202:1203   */\n      0x00\n        /* \"#utility.yul\":1191:1200   */\n      dup3\n        /* \"#utility.yul\":1187:1204   */\n      add\n        /* \"#utility.yul\":1174:1205   */\n      calldataload\n        /* \"#utility.yul\":1232:1250   */\n      0xffffffffffffffff\n        /* \"#utility.yul\":1224:1230   */\n      dup2\n        /* \"#utility.yul\":1221:1251   */\n      gt\n        /* \"#utility.yul\":1218:1335   */\n      iszero\n      tag_202\n      jumpi\n        /* \"#utility.yul\":1254:1333   */\n      tag_203\n      tag_204\n      jump\t// in\n    tag_203:\n        /* \"#utility.yul\":1218:1335   */\n    tag_202:\n        /* \"#utility.yul\":1359:1422   */\n      tag_205\n        /* \"#utility.yul\":1414:1421   */\n      dup5\n        /* \"#utility.yul\":1405:1411   */\n      dup3\n        /* \"#utility.yul\":1394:1403   */\n      dup6\n        /* \"#utility.yul\":1390:1412   */\n      add\n        /* \"#utility.yul\":1359:1422   */\n      tag_188\n      jump\t// in\n    tag_205:\n        /* \"#utility.yul\":1349:1422   */\n      swap2\n      pop\n        /* \"#utility.yul\":1145:1432   */\n      pop\n        /* \"#utility.yul\":930:1439   */\n      swap3\n      swap2\n      pop\n      pop\n      jump\t// out\n        /* \"#utility.yul\":1445:1774   */\n    tag_11:\n        /* \"#utility.yul\":1504:1510   */\n      0x00\n        /* \"#utility.yul\":1553:1555   */\n      0x20\n        /* \"#utility.yul\":1541:1550   */\n      dup3\n        /* \"#utility.yul\":1532:1539   */\n      dup5\n        /* \"#utility.yul\":1528:1551   */\n      sub\n        /* \"#utility.yul\":1524:1556   */\n      slt\n        /* \"#utility.yul\":1521:1640   */\n      iszero\n      tag_207\n      jumpi\n        /* \"#utility.yul\":1559:1638   */\n      tag_208\n      tag_201\n      jump\t// in\n    tag_208:\n        /* \"#utility.yul\":1521:1640   */\n    tag_207:\n        /* \"#utility.yul\":1679:1680   */\n      0x00\n        /* \"#utility.yul\":1704:1757   */\n      tag_209\n        /* \"#utility.yul\":1749:1756   */\n      dup5\n        /* \"#utility.yul\":1740:1746   */\n      dup3\n        /* \"#utility.yul\":1729:1738   */\n      dup6\n        /* \"#utility.yul\":1725:1747   */\n      add\n        /* \"#utility.yul\":1704:1757   */\n      tag_194\n      jump\t// in\n    tag_209:\n        /* \"#utility.yul\":1694:1757   */\n      swap2\n      pop\n        /* \"#utility.yul\":1650:1767   */\n      pop\n        /* \"#utility.yul\":1445:1774   */\n      swap3\n      swap2\n      pop\n      pop\n      jump\t// out\n        /* \"#utility.yul\":1780:2254   */\n    tag_35:\n        /* \"#utility.yul\":1848:1854   */\n      0x00\n        /* \"#utility.yul\":1856:1862   */\n      dup1\n        /* \"#utility.yul\":1905:1907   */\n      0x40\n        /* \"#utility.yul\":1893:1902   */\n      dup4\n        /* \"#utility.yul\":1884:1891   */\n      dup6\n        /* \"#utility.yul\":1880:1903   */\n      sub\n        /* \"#utility.yul\":1876:1908   */\n      slt\n        /* \"#utility.yul\":1873:1992   */\n      iszero\n      tag_211\n      jumpi\n        /* \"#utility.yul\":1911:1990   */\n      tag_212\n      tag_201\n      jump\t// in\n    tag_212:\n        /* \"#utility.yul\":1873:1992   */\n    tag_211:\n        /* \"#utility.yul\":2031:2032   */\n      0x00\n        /* \"#utility.yul\":2056:2109   */\n      tag_213\n        /* \"#utility.yul\":2101:2108   */\n      dup6\n        /* \"#utility.yul\":2092:2098   */\n      dup3\n        /* \"#utility.yul\":2081:2090   */\n      dup7\n        /* \"#utility.yul\":2077:2099   */\n      add\n        /* \"#utility.yul\":2056:2109   */\n      tag_194\n      jump\t// in\n    tag_213:\n        /* \"#utility.yul\":2046:2109   */\n      swap3\n      pop\n        /* \"#utility.yul\":2002:2119   */\n      pop\n        /* \"#utility.yul\":2158:2160   */\n      0x20\n        /* \"#utility.yul\":2184:2237   */\n      tag_214\n        /* \"#utility.yul\":2229:2236   */\n      dup6\n        /* \"#utility.yul\":2220:2226   */\n      dup3\n        /* \"#utility.yul\":2209:2218   */\n      dup7\n        /* \"#utility.yul\":2205:2227   */\n      add\n        /* \"#utility.yul\":2184:2237   */\n      tag_194\n      jump\t// in\n    tag_214:\n        /* \"#utility.yul\":2174:2237   */\n      swap2\n      pop\n        /* \"#utility.yul\":2129:2247   */\n      pop\n        /* \"#utility.yul\":1780:2254   */\n      swap3\n      pop\n      swap3\n      swap1\n      pop\n      jump\t// out\n        /* \"#utility.yul\":2260:2879   */\n    tag_26:\n        /* \"#utility.yul\":2337:2343   */\n      0x00\n        /* \"#utility.yul\":2345:2351   */\n      dup1\n        /* \"#utility.yul\":2353:2359   */\n      0x00\n        /* \"#utility.yul\":2402:2404   */\n      0x60\n        /* \"#utility.yul\":2390:2399   */\n      dup5\n        /* \"#utility.yul\":2381:2388   */\n      dup7\n        /* \"#utility.yul\":2377:2400   */\n      sub\n        /* \"#utility.yul\":2373:2405   */\n      slt\n        /* \"#utility.yul\":2370:2489   */\n      iszero\n      tag_216\n      jumpi\n        /* \"#utility.yul\":2408:2487   */\n      tag_217\n      tag_201\n      jump\t// in\n    tag_217:\n        /* \"#utility.yul\":2370:2489   */\n    tag_216:\n        /* \"#utility.yul\":2528:2529   */\n      0x00\n        /* \"#utility.yul\":2553:2606   */\n      tag_218\n        /* \"#utility.yul\":2598:2605   */\n      dup7\n        /* \"#utility.yul\":2589:2595   */\n      dup3\n        /* \"#utility.yul\":2578:2587   */\n      dup8\n        /* \"#utility.yul\":2574:2596   */\n      add\n        /* \"#utility.yul\":2553:2606   */\n      tag_194\n      jump\t// in\n    tag_218:\n        /* \"#utility.yul\":2543:2606   */\n      swap4\n      pop\n        /* \"#utility.yul\":2499:2616   */\n      pop\n        /* \"#utility.yul\":2655:2657   */\n      0x20\n        /* \"#utility.yul\":2681:2734   */\n      tag_219\n        /* \"#utility.yul\":2726:2733   */\n      dup7\n        /* \"#utility.yul\":2717:2723   */\n      dup3\n        /* \"#utility.yul\":2706:2715   */\n      dup8\n        /* \"#utility.yul\":2702:2724   */\n      add\n        /* \"#utility.yul\":2681:2734   */\n      tag_194\n      jump\t// in\n    tag_219:\n        /* \"#utility.yul\":2671:2734   */\n      swap3\n      pop\n        /* \"#utility.yul\":2626:2744   */\n      pop\n        /* \"#utility.yul\":2783:2785   */\n      0x40\n        /* \"#utility.yul\":2809:2862   */\n      tag_220\n        /* \"#utility.yul\":2854:2861   */\n      dup7\n        /* \"#utility.yul\":2845:2851   */\n      dup3\n        /* \"#utility.yul\":2834:2843   */\n      dup8\n        /* \"#utility.yul\":2830:2852   */\n      add\n        /* \"#utility.yul\":2809:2862   */\n      tag_194\n      jump\t// in\n    tag_220:\n        /* \"#utility.yul\":2799:2862   */\n      swap2\n      pop\n        /* \"#utility.yul\":2754:2872   */\n      pop\n        /* \"#utility.yul\":2260:2879   */\n      swap3\n      pop\n      swap3\n      pop\n      swap3\n      jump\t// out\n        /* \"#utility.yul\":2885:2984   */\n    tag_221:\n        /* \"#utility.yul\":2956:2977   */\n      tag_223\n        /* \"#utility.yul\":2971:2976   */\n      dup2\n        /* \"#utility.yul\":2956:2977   */\n      tag_224\n      jump\t// in\n    tag_223:\n        /* \"#utility.yul\":2951:2954   */\n      dup3\n        /* \"#utility.yul\":2944:2978   */\n      mstore\n        /* \"#utility.yul\":2885:2984   */\n      pop\n      pop\n      jump\t// out\n        /* \"#utility.yul\":2990:3334   */\n    tag_225:\n        /* \"#utility.yul\":3068:3071   */\n      0x00\n        /* \"#utility.yul\":3096:3135   */\n      tag_227\n        /* \"#utility.yul\":3129:3134   */\n      dup3\n        /* \"#utility.yul\":3096:3135   */\n      tag_228\n      jump\t// in\n    tag_227:\n        /* \"#utility.yul\":3151:3212   */\n      tag_229\n        /* \"#utility.yul\":3205:3211   */\n      dup2\n        /* \"#utility.yul\":3200:3203   */\n      dup6\n        /* \"#utility.yul\":3151:3212   */\n      tag_230\n      jump\t// in\n    tag_229:\n        /* \"#utility.yul\":3144:3212   */\n      swap4\n      pop\n        /* \"#utility.yul\":3221:3273   */\n      tag_231\n        /* \"#utility.yul\":3266:3272   */\n      dup2\n        /* \"#utility.yul\":3261:3264   */\n      dup6\n        /* \"#utility.yul\":3254:3258   */\n      0x20\n        /* \"#utility.yul\":3247:3252   */\n      dup7\n        /* \"#utility.yul\":3243:3259   */\n      add\n        /* \"#utility.yul\":3221:3273   */\n      tag_232\n      jump\t// in\n    tag_231:\n        /* \"#utility.yul\":3298:3327   */\n      tag_233\n        /* \"#utility.yul\":3320:3326   */\n      dup2\n        /* \"#utility.yul\":3298:3327   */\n      tag_234\n      jump\t// in\n    tag_233:\n        /* \"#utility.yul\":3293:3296   */\n      dup5\n        /* \"#utility.yul\":3289:3328   */\n      add\n        /* \"#utility.yul\":3282:3328   */\n      swap2\n      pop\n        /* \"#utility.yul\":3072:3334   */\n      pop\n        /* \"#utility.yul\":2990:3334   */\n      swap3\n      swap2\n      pop\n      pop\n      jump\t// out\n        /* \"#utility.yul\":3340:3704   */\n    tag_235:\n        /* \"#utility.yul\":3428:3431   */\n      0x00\n        /* \"#utility.yul\":3456:3495   */\n      tag_237\n        /* \"#utility.yul\":3489:3494   */\n      dup3\n        /* \"#utility.yul\":3456:3495   */\n      tag_228\n      jump\t// in\n    tag_237:\n        /* \"#utility.yul\":3511:3582   */\n      tag_238\n        /* \"#utility.yul\":3575:3581   */\n      dup2\n        /* \"#utility.yul\":3570:3573   */\n      dup6\n        /* \"#utility.yul\":3511:3582   */\n      tag_239\n      jump\t// in\n    tag_238:\n        /* \"#utility.yul\":3504:3582   */\n      swap4\n      pop\n        /* \"#utility.yul\":3591:3643   */\n      tag_240\n        /* \"#utility.yul\":3636:3642   */\n      dup2\n        /* \"#utility.yul\":3631:3634   */\n      dup6\n        /* \"#utility.yul\":3624:3628   */\n      0x20\n        /* \"#utility.yul\":3617:3622   */\n      dup7\n        /* \"#utility.yul\":3613:3629   */\n      add\n        /* \"#utility.yul\":3591:3643   */\n      tag_232\n      jump\t// in\n    tag_240:\n        /* \"#utility.yul\":3668:3697   */\n      tag_241\n        /* \"#utility.yul\":3690:3696   */\n      dup2\n        /* \"#utility.yul\":3668:3697   */\n      tag_234\n      jump\t// in\n    tag_241:\n        /* \"#utility.yul\":3663:3666   */\n      dup5\n        /* \"#utility.yul\":3659:3698   */\n      add\n        /* \"#utility.yul\":3652:3698   */\n      swap2\n      pop\n        /* \"#utility.yul\":3432:3704   */\n      pop\n        /* \"#utility.yul\":3340:3704   */\n      swap3\n      swap2\n      pop\n      pop\n      jump\t// out\n        /* \"#utility.yul\":3710:4076   */\n    tag_242:\n        /* \"#utility.yul\":3852:3855   */\n      0x00\n        /* \"#utility.yul\":3873:3940   */\n      tag_244\n        /* \"#utility.yul\":3937:3939   */\n      0x28\n        /* \"#utility.yul\":3932:3935   */\n      dup4\n        /* \"#utility.yul\":3873:3940   */\n      tag_239\n      jump\t// in\n    tag_244:\n        /* \"#utility.yul\":3866:3940   */\n      swap2\n      pop\n        /* \"#utility.yul\":3949:4042   */\n      tag_245\n        /* \"#utility.yul\":4038:4041   */\n      dup3\n        /* \"#utility.yul\":3949:4042   */\n      tag_246\n      jump\t// in\n    tag_245:\n        /* \"#utility.yul\":4067:4069   */\n      0x40\n        /* \"#utility.yul\":4062:4065   */\n      dup3\n        /* \"#utility.yul\":4058:4070   */\n      add\n        /* \"#utility.yul\":4051:4070   */\n      swap1\n      pop\n        /* \"#utility.yul\":3710:4076   */\n      swap2\n      swap1\n      pop\n      jump\t// out\n        /* \"#utility.yul\":4082:4448   */\n    tag_247:\n        /* \"#utility.yul\":4224:4227   */\n      0x00\n        /* \"#utility.yul\":4245:4312   */\n      tag_249\n        /* \"#utility.yul\":4309:4311   */\n      0x1d\n        /* \"#utility.yul\":4304:4307   */\n      dup4\n        /* \"#utility.yul\":4245:4312   */\n      tag_239\n      jump\t// in\n    tag_249:\n        /* \"#utility.yul\":4238:4312   */\n      swap2\n      pop\n        /* \"#utility.yul\":4321:4414   */\n      tag_250\n        /* \"#utility.yul\":4410:4413   */\n      dup3\n        /* \"#utility.yul\":4321:4414   */\n      tag_251\n      jump\t// in\n    tag_250:\n        /* \"#utility.yul\":4439:4441   */\n      0x20\n        /* \"#utility.yul\":4434:4437   */\n      dup3\n        /* \"#utility.yul\":4430:4442   */\n      add\n        /* \"#utility.yul\":4423:4442   */\n      swap1\n      pop\n        /* \"#utility.yul\":4082:4448   */\n      swap2\n      swap1\n      pop\n      jump\t// out\n        /* \"#utility.yul\":4454:4820   */\n    tag_252:\n        /* \"#utility.yul\":4596:4599   */\n      0x00\n        /* \"#utility.yul\":4617:4684   */\n      tag_254\n        /* \"#utility.yul\":4681:4683   */\n      0x2b\n        /* \"#utility.yul\":4676:4679   */\n      dup4\n        /* \"#utility.yul\":4617:4684   */\n      tag_239\n      jump\t// in\n    tag_254:\n        /* \"#utility.yul\":4610:4684   */\n      swap2\n      pop\n        /* \"#utility.yul\":4693:4786   */\n      tag_255\n        /* \"#utility.yul\":4782:4785   */\n      dup3\n        /* \"#utility.yul\":4693:4786   */\n      tag_256\n      jump\t// in\n    tag_255:\n        /* \"#utility.yul\":4811:4813   */\n      0x40\n        /* \"#utility.yul\":4806:4809   */\n      dup3\n        /* \"#utility.yul\":4802:4814   */\n      add\n        /* \"#utility.yul\":4795:4814   */\n      swap1\n      pop\n        /* \"#utility.yul\":4454:4820   */\n      swap2\n      swap1\n      pop\n      jump\t// out\n        /* \"#utility.yul\":4826:5192   */\n    tag_257:\n        /* \"#utility.yul\":4968:4971   */\n      0x00\n        /* \"#utility.yul\":4989:5056   */\n      tag_259\n        /* \"#utility.yul\":5053:5055   */\n      0x2e\n        /* \"#utility.yul\":5048:5051   */\n      dup4\n        /* \"#utility.yul\":4989:5056   */\n      tag_239\n      jump\t// in\n    tag_259:\n        /* \"#utility.yul\":4982:5056   */\n      swap2\n      pop\n        /* \"#utility.yul\":5065:5158   */\n      tag_260\n        /* \"#utility.yul\":5154:5157   */\n      dup3\n        /* \"#utility.yul\":5065:5158   */\n      tag_261\n      jump\t// in\n    tag_260:\n        /* \"#utility.yul\":5183:5185   */\n      0x40\n        /* \"#utility.yul\":5178:5181   */\n      dup3\n        /* \"#utility.yul\":5174:5186   */\n      add\n        /* \"#utility.yul\":5167:5186   */\n      swap1\n      pop\n        /* \"#utility.yul\":4826:5192   */\n      swap2\n      swap1\n      pop\n      jump\t// out\n        /* \"#utility.yul\":5198:5564   */\n    tag_262:\n        /* \"#utility.yul\":5340:5343   */\n      0x00\n        /* \"#utility.yul\":5361:5428   */\n      tag_264\n        /* \"#utility.yul\":5425:5427   */\n      0x17\n        /* \"#utility.yul\":5420:5423   */\n      dup4\n        /* \"#utility.yul\":5361:5428   */\n      tag_239\n      jump\t// in\n    tag_264:\n        /* \"#utility.yul\":5354:5428   */\n      swap2\n      pop\n        /* \"#utility.yul\":5437:5530   */\n      tag_265\n        /* \"#utility.yul\":5526:5529   */\n      dup3\n        /* \"#utility.yul\":5437:5530   */\n      tag_266\n      jump\t// in\n    tag_265:\n        /* \"#utility.yul\":5555:5557   */\n      0x20\n        /* \"#utility.yul\":5550:5553   */\n      dup3\n        /* \"#utility.yul\":5546:5558   */\n      add\n        /* \"#utility.yul\":5539:5558   */\n      swap1\n      pop\n        /* \"#utility.yul\":5198:5564   */\n      swap2\n      swap1\n      pop\n      jump\t// out\n        /* \"#utility.yul\":5570:5936   */\n    tag_267:\n        /* \"#utility.yul\":5712:5715   */\n      0x00\n        /* \"#utility.yul\":5733:5800   */\n      tag_269\n        /* \"#utility.yul\":5797:5799   */\n      0x24\n        /* \"#utility.yul\":5792:5795   */\n      dup4\n        /* \"#utility.yul\":5733:5800   */\n      tag_239\n      jump\t// in\n    tag_269:\n        /* \"#utility.yul\":5726:5800   */\n      swap2\n      pop\n        /* \"#utility.yul\":5809:5902   */\n      tag_270\n        /* \"#utility.yul\":5898:5901   */\n      dup3\n        /* \"#utility.yul\":5809:5902   */\n      tag_271\n      jump\t// in\n    tag_270:\n        /* \"#utility.yul\":5927:5929   */\n      0x40\n        /* \"#utility.yul\":5922:5925   */\n      dup3\n        /* \"#utility.yul\":5918:5930   */\n      add\n        /* \"#utility.yul\":5911:5930   */\n      swap1\n      pop\n        /* \"#utility.yul\":5570:5936   */\n      swap2\n      swap1\n      pop\n      jump\t// out\n        /* \"#utility.yul\":6008:7147   */\n    tag_272:\n        /* \"#utility.yul\":6121:6124   */\n      0x00\n        /* \"#utility.yul\":6157:6161   */\n      0xa0\n        /* \"#utility.yul\":6152:6155   */\n      dup4\n        /* \"#utility.yul\":6148:6162   */\n      add\n        /* \"#utility.yul\":6249:6253   */\n      0x00\n        /* \"#utility.yul\":6242:6247   */\n      dup4\n        /* \"#utility.yul\":6238:6254   */\n      add\n        /* \"#utility.yul\":6232:6255   */\n      mload\n        /* \"#utility.yul\":6268:6331   */\n      tag_274\n        /* \"#utility.yul\":6325:6329   */\n      0x00\n        /* \"#utility.yul\":6320:6323   */\n      dup7\n        /* \"#utility.yul\":6316:6330   */\n      add\n        /* \"#utility.yul\":6302:6314   */\n      dup3\n        /* \"#utility.yul\":6268:6331   */\n      tag_275\n      jump\t// in\n    tag_274:\n        /* \"#utility.yul\":6172:6341   */\n      pop\n        /* \"#utility.yul\":6428:6432   */\n      0x20\n        /* \"#utility.yul\":6421:6426   */\n      dup4\n        /* \"#utility.yul\":6417:6433   */\n      add\n        /* \"#utility.yul\":6411:6434   */\n      mload\n        /* \"#utility.yul\":6447:6510   */\n      tag_276\n        /* \"#utility.yul\":6504:6508   */\n      0x20\n        /* \"#utility.yul\":6499:6502   */\n      dup7\n        /* \"#utility.yul\":6495:6509   */\n      add\n        /* \"#utility.yul\":6481:6493   */\n      dup3\n        /* \"#utility.yul\":6447:6510   */\n      tag_275\n      jump\t// in\n    tag_276:\n        /* \"#utility.yul\":6351:6520   */\n      pop\n        /* \"#utility.yul\":6604:6608   */\n      0x40\n        /* \"#utility.yul\":6597:6602   */\n      dup4\n        /* \"#utility.yul\":6593:6609   */\n      add\n        /* \"#utility.yul\":6587:6610   */\n      mload\n        /* \"#utility.yul\":6657:6660   */\n      dup5\n        /* \"#utility.yul\":6651:6655   */\n      dup3\n        /* \"#utility.yul\":6647:6661   */\n      sub\n        /* \"#utility.yul\":6640:6644   */\n      0x40\n        /* \"#utility.yul\":6635:6638   */\n      dup7\n        /* \"#utility.yul\":6631:6645   */\n      add\n        /* \"#utility.yul\":6624:6662   */\n      mstore\n        /* \"#utility.yul\":6683:6756   */\n      tag_277\n        /* \"#utility.yul\":6751:6755   */\n      dup3\n        /* \"#utility.yul\":6737:6749   */\n      dup3\n        /* \"#utility.yul\":6683:6756   */\n      tag_225\n      jump\t// in\n    tag_277:\n        /* \"#utility.yul\":6675:6756   */\n      swap2\n      pop\n        /* \"#utility.yul\":6530:6767   */\n      pop\n        /* \"#utility.yul\":6856:6860   */\n      0x60\n        /* \"#utility.yul\":6849:6854   */\n      dup4\n        /* \"#utility.yul\":6845:6861   */\n      add\n        /* \"#utility.yul\":6839:6862   */\n      mload\n        /* \"#utility.yul\":6875:6938   */\n      tag_278\n        /* \"#utility.yul\":6932:6936   */\n      0x60\n        /* \"#utility.yul\":6927:6930   */\n      dup7\n        /* \"#utility.yul\":6923:6937   */\n      add\n        /* \"#utility.yul\":6909:6921   */\n      dup3\n        /* \"#utility.yul\":6875:6938   */\n      tag_275\n      jump\t// in\n    tag_278:\n        /* \"#utility.yul\":6777:6948   */\n      pop\n        /* \"#utility.yul\":7034:7038   */\n      0x80\n        /* \"#utility.yul\":7027:7032   */\n      dup4\n        /* \"#utility.yul\":7023:7039   */\n      add\n        /* \"#utility.yul\":7017:7040   */\n      mload\n        /* \"#utility.yul\":7053:7110   */\n      tag_279\n        /* \"#utility.yul\":7104:7108   */\n      0x80\n        /* \"#utility.yul\":7099:7102   */\n      dup7\n        /* \"#utility.yul\":7095:7109   */\n      add\n        /* \"#utility.yul\":7081:7093   */\n      dup3\n        /* \"#utility.yul\":7053:7110   */\n      tag_221\n      jump\t// in\n    tag_279:\n        /* \"#utility.yul\":6958:7120   */\n      pop\n        /* \"#utility.yul\":7137:7141   */\n      dup1\n        /* \"#utility.yul\":7130:7141   */\n      swap2\n      pop\n        /* \"#utility.yul\":6126:7147   */\n      pop\n        /* \"#utility.yul\":6008:7147   */\n      swap3\n      swap2\n      pop\n      pop\n      jump\t// out\n        /* \"#utility.yul\":7219:8338   */\n    tag_280:\n        /* \"#utility.yul\":7332:7335   */\n      0x00\n        /* \"#utility.yul\":7368:7372   */\n      0xa0\n        /* \"#utility.yul\":7363:7366   */\n      dup4\n        /* \"#utility.yul\":7359:7373   */\n      add\n        /* \"#utility.yul\":7455:7459   */\n      0x00\n        /* \"#utility.yul\":7448:7453   */\n      dup4\n        /* \"#utility.yul\":7444:7460   */\n      add\n        /* \"#utility.yul\":7438:7461   */\n      mload\n        /* \"#utility.yul\":7508:7511   */\n      dup5\n        /* \"#utility.yul\":7502:7506   */\n      dup3\n        /* \"#utility.yul\":7498:7512   */\n      sub\n        /* \"#utility.yul\":7491:7495   */\n      0x00\n        /* \"#utility.yul\":7486:7489   */\n      dup7\n        /* \"#utility.yul\":7482:7496   */\n      add\n        /* \"#utility.yul\":7475:7513   */\n      mstore\n        /* \"#utility.yul\":7534:7607   */\n      tag_282\n        /* \"#utility.yul\":7602:7606   */\n      dup3\n        /* \"#utility.yul\":7588:7600   */\n      dup3\n        /* \"#utility.yul\":7534:7607   */\n      tag_225\n      jump\t// in\n    tag_282:\n        /* \"#utility.yul\":7526:7607   */\n      swap2\n      pop\n        /* \"#utility.yul\":7383:7618   */\n      pop\n        /* \"#utility.yul\":7701:7705   */\n      0x20\n        /* \"#utility.yul\":7694:7699   */\n      dup4\n        /* \"#utility.yul\":7690:7706   */\n      add\n        /* \"#utility.yul\":7684:7707   */\n      mload\n        /* \"#utility.yul\":7720:7783   */\n      tag_283\n        /* \"#utility.yul\":7777:7781   */\n      0x20\n        /* \"#utility.yul\":7772:7775   */\n      dup7\n        /* \"#utility.yul\":7768:7782   */\n      add\n        /* \"#utility.yul\":7754:7766   */\n      dup3\n        /* \"#utility.yul\":7720:7783   */\n      tag_275\n      jump\t// in\n    tag_283:\n        /* \"#utility.yul\":7628:7793   */\n      pop\n        /* \"#utility.yul\":7880:7884   */\n      0x40\n        /* \"#utility.yul\":7873:7878   */\n      dup4\n        /* \"#utility.yul\":7869:7885   */\n      add\n        /* \"#utility.yul\":7863:7886   */\n      mload\n        /* \"#utility.yul\":7899:7956   */\n      tag_284\n        /* \"#utility.yul\":7950:7954   */\n      0x40\n        /* \"#utility.yul\":7945:7948   */\n      dup7\n        /* \"#utility.yul\":7941:7955   */\n      add\n        /* \"#utility.yul\":7927:7939   */\n      dup3\n        /* \"#utility.yul\":7899:7956   */\n      tag_221\n      jump\t// in\n    tag_284:\n        /* \"#utility.yul\":7803:7966   */\n      pop\n        /* \"#utility.yul\":8053:8057   */\n      0x60\n        /* \"#utility.yul\":8046:8051   */\n      dup4\n        /* \"#utility.yul\":8042:8058   */\n      add\n        /* \"#utility.yul\":8036:8059   */\n      mload\n        /* \"#utility.yul\":8072:8129   */\n      tag_285\n        /* \"#utility.yul\":8123:8127   */\n      0x60\n        /* \"#utility.yul\":8118:8121   */\n      dup7\n        /* \"#utility.yul\":8114:8128   */\n      add\n        /* \"#utility.yul\":8100:8112   */\n      dup3\n        /* \"#utility.yul\":8072:8129   */\n      tag_221\n      jump\t// in\n    tag_285:\n        /* \"#utility.yul\":7976:8139   */\n      pop\n        /* \"#utility.yul\":8225:8229   */\n      0x80\n        /* \"#utility.yul\":8218:8223   */\n      dup4\n        /* \"#utility.yul\":8214:8230   */\n      add\n        /* \"#utility.yul\":8208:8231   */\n      mload\n        /* \"#utility.yul\":8244:8301   */\n      tag_286\n        /* \"#utility.yul\":8295:8299   */\n      0x80\n        /* \"#utility.yul\":8290:8293   */\n      dup7\n        /* \"#utility.yul\":8286:8300   */\n      add\n        /* \"#utility.yul\":8272:8284   */\n      dup3\n        /* \"#utility.yul\":8244:8301   */\n      tag_221\n      jump\t// in\n    tag_286:\n        /* \"#utility.yul\":8149:8311   */\n      pop\n        /* \"#utility.yul\":8328:8332   */\n      dup1\n        /* \"#utility.yul\":8321:8332   */\n      swap2\n      pop\n        /* \"#utility.yul\":7337:8338   */\n      pop\n        /* \"#utility.yul\":7219:8338   */\n      swap3\n      swap2\n      pop\n      pop\n      jump\t// out\n        /* \"#utility.yul\":8344:8452   */\n    tag_275:\n        /* \"#utility.yul\":8421:8445   */\n      tag_288\n        /* \"#utility.yul\":8439:8444   */\n      dup2\n        /* \"#utility.yul\":8421:8445   */\n      tag_289\n      jump\t// in\n    tag_288:\n        /* \"#utility.yul\":8416:8419   */\n      dup3\n        /* \"#utility.yul\":8409:8446   */\n      mstore\n        /* \"#utility.yul\":8344:8452   */\n      pop\n      pop\n      jump\t// out\n        /* \"#utility.yul\":8458:8771   */\n    tag_14:\n        /* \"#utility.yul\":8571:8575   */\n      0x00\n        /* \"#utility.yul\":8609:8611   */\n      0x20\n        /* \"#utility.yul\":8598:8607   */\n      dup3\n        /* \"#utility.yul\":8594:8612   */\n      add\n        /* \"#utility.yul\":8586:8612   */\n      swap1\n      pop\n        /* \"#utility.yul\":8658:8667   */\n      dup2\n        /* \"#utility.yul\":8652:8656   */\n      dup2\n        /* \"#utility.yul\":8648:8668   */\n      sub\n        /* \"#utility.yul\":8644:8645   */\n      0x00\n        /* \"#utility.yul\":8633:8642   */\n      dup4\n        /* \"#utility.yul\":8629:8646   */\n      add\n        /* \"#utility.yul\":8622:8669   */\n      mstore\n        /* \"#utility.yul\":8686:8764   */\n      tag_291\n        /* \"#utility.yul\":8759:8763   */\n      dup2\n        /* \"#utility.yul\":8750:8756   */\n      dup5\n        /* \"#utility.yul\":8686:8764   */\n      tag_235\n      jump\t// in\n    tag_291:\n        /* \"#utility.yul\":8678:8764   */\n      swap1\n      pop\n        /* \"#utility.yul\":8458:8771   */\n      swap3\n      swap2\n      pop\n      pop\n      jump\t// out\n        /* \"#utility.yul\":8777:9196   */\n    tag_92:\n        /* \"#utility.yul\":8943:8947   */\n      0x00\n        /* \"#utility.yul\":8981:8983   */\n      0x20\n        /* \"#utility.yul\":8970:8979   */\n      dup3\n        /* \"#utility.yul\":8966:8984   */\n      add\n        /* \"#utility.yul\":8958:8984   */\n      swap1\n      pop\n        /* \"#utility.yul\":9030:9039   */\n      dup2\n        /* \"#utility.yul\":9024:9028   */\n      dup2\n        /* \"#utility.yul\":9020:9040   */\n      sub\n        /* \"#utility.yul\":9016:9017   */\n      0x00\n        /* \"#utility.yul\":9005:9014   */\n      dup4\n        /* \"#utility.yul\":9001:9018   */\n      add\n        /* \"#utility.yul\":8994:9041   */\n      mstore\n        /* \"#utility.yul\":9058:9189   */\n      tag_293\n        /* \"#utility.yul\":9184:9188   */\n      dup2\n        /* \"#utility.yul\":9058:9189   */\n      tag_242\n      jump\t// in\n    tag_293:\n        /* \"#utility.yul\":9050:9189   */\n      swap1\n      pop\n        /* \"#utility.yul\":8777:9196   */\n      swap2\n      swap1\n      pop\n      jump\t// out\n        /* \"#utility.yul\":9202:9621   */\n    tag_60:\n        /* \"#utility.yul\":9368:9372   */\n      0x00\n        /* \"#utility.yul\":9406:9408   */\n      0x20\n        /* \"#utility.yul\":9395:9404   */\n      dup3\n        /* \"#utility.yul\":9391:9409   */\n      add\n        /* \"#utility.yul\":9383:9409   */\n      swap1\n      pop\n        /* \"#utility.yul\":9455:9464   */\n      dup2\n        /* \"#utility.yul\":9449:9453   */\n      dup2\n        /* \"#utility.yul\":9445:9465   */\n      sub\n        /* \"#utility.yul\":9441:9442   */\n      0x00\n        /* \"#utility.yul\":9430:9439   */\n      dup4\n        /* \"#utility.yul\":9426:9443   */\n      add\n        /* \"#utility.yul\":9419:9466   */\n      mstore\n        /* \"#utility.yul\":9483:9614   */\n      tag_295\n        /* \"#utility.yul\":9609:9613   */\n      dup2\n        /* \"#utility.yul\":9483:9614   */\n      tag_247\n      jump\t// in\n    tag_295:\n        /* \"#utility.yul\":9475:9614   */\n      swap1\n      pop\n        /* \"#utility.yul\":9202:9621   */\n      swap2\n      swap1\n      pop\n      jump\t// out\n        /* \"#utility.yul\":9627:10046   */\n    tag_86:\n        /* \"#utility.yul\":9793:9797   */\n      0x00\n        /* \"#utility.yul\":9831:9833   */\n      0x20\n        /* \"#utility.yul\":9820:9829   */\n      dup3\n        /* \"#utility.yul\":9816:9834   */\n      add\n        /* \"#utility.yul\":9808:9834   */\n      swap1\n      pop\n        /* \"#utility.yul\":9880:9889   */\n      dup2\n        /* \"#utility.yul\":9874:9878   */\n      dup2\n        /* \"#utility.yul\":9870:9890   */\n      sub\n        /* \"#utility.yul\":9866:9867   */\n      0x00\n        /* \"#utility.yul\":9855:9864   */\n      dup4\n        /* \"#utility.yul\":9851:9868   */\n      add\n        /* \"#utility.yul\":9844:9891   */\n      mstore\n        /* \"#utility.yul\":9908:10039   */\n      tag_297\n        /* \"#utility.yul\":10034:10038   */\n      dup2\n        /* \"#utility.yul\":9908:10039   */\n      tag_252\n      jump\t// in\n    tag_297:\n        /* \"#utility.yul\":9900:10039   */\n      swap1\n      pop\n        /* \"#utility.yul\":9627:10046   */\n      swap2\n      swap1\n      pop\n      jump\t// out\n        /* \"#utility.yul\":10052:10471   */\n    tag_82:\n        /* \"#utility.yul\":10218:10222   */\n      0x00\n        /* \"#utility.yul\":10256:10258   */\n      0x20\n        /* \"#utility.yul\":10245:10254   */\n      dup3\n        /* \"#utility.yul\":10241:10259   */\n      add\n        /* \"#utility.yul\":10233:10259   */\n      swap1\n      pop\n        /* \"#utility.yul\":10305:10314   */\n      dup2\n        /* \"#utility.yul\":10299:10303   */\n      dup2\n        /* \"#utility.yul\":10295:10315   */\n      sub\n        /* \"#utility.yul\":10291:10292   */\n      0x00\n        /* \"#utility.yul\":10280:10289   */\n      dup4\n        /* \"#utility.yul\":10276:10293   */\n      add\n        /* \"#utility.yul\":10269:10316   */\n      mstore\n        /* \"#utility.yul\":10333:10464   */\n      tag_299\n        /* \"#utility.yul\":10459:10463   */\n      dup2\n        /* \"#utility.yul\":10333:10464   */\n      tag_257\n      jump\t// in\n    tag_299:\n        /* \"#utility.yul\":10325:10464   */\n      swap1\n      pop\n        /* \"#utility.yul\":10052:10471   */\n      swap2\n      swap1\n      pop\n      jump\t// out\n        /* \"#utility.yul\":10477:10896   */\n    tag_44:\n        /* \"#utility.yul\":10643:10647   */\n      0x00\n        /* \"#utility.yul\":10681:10683   */\n      0x20\n        /* \"#utility.yul\":10670:10679   */\n      dup3\n        /* \"#utility.yul\":10666:10684   */\n      add\n        /* \"#utility.yul\":10658:10684   */\n      swap1\n      pop\n        /* \"#utility.yul\":10730:10739   */\n      dup2\n        /* \"#utility.yul\":10724:10728   */\n      dup2\n        /* \"#utility.yul\":10720:10740   */\n      sub\n        /* \"#utility.yul\":10716:10717   */\n      0x00\n        /* \"#utility.yul\":10705:10714   */\n      dup4\n        /* \"#utility.yul\":10701:10718   */\n      add\n        /* \"#utility.yul\":10694:10741   */\n      mstore\n        /* \"#utility.yul\":10758:10889   */\n      tag_301\n        /* \"#utility.yul\":10884:10888   */\n      dup2\n        /* \"#utility.yul\":10758:10889   */\n      tag_262\n      jump\t// in\n    tag_301:\n        /* \"#utility.yul\":10750:10889   */\n      swap1\n      pop\n        /* \"#utility.yul\":10477:10896   */\n      swap2\n      swap1\n      pop\n      jump\t// out\n        /* \"#utility.yul\":10902:11321   */\n    tag_138:\n        /* \"#utility.yul\":11068:11072   */\n      0x00\n        /* \"#utility.yul\":11106:11108   */\n      0x20\n        /* \"#utility.yul\":11095:11104   */\n      dup3\n        /* \"#utility.yul\":11091:11109   */\n      add\n        /* \"#utility.yul\":11083:11109   */\n      swap1\n      pop\n        /* \"#utility.yul\":11155:11164   */\n      dup2\n        /* \"#utility.yul\":11149:11153   */\n      dup2\n        /* \"#utility.yul\":11145:11165   */\n      sub\n        /* \"#utility.yul\":11141:11142   */\n      0x00\n        /* \"#utility.yul\":11130:11139   */\n      dup4\n        /* \"#utility.yul\":11126:11143   */\n      add\n        /* \"#utility.yul\":11119:11166   */\n      mstore\n        /* \"#utility.yul\":11183:11314   */\n      tag_303\n        /* \"#utility.yul\":11309:11313   */\n      dup2\n        /* \"#utility.yul\":11183:11314   */\n      tag_267\n      jump\t// in\n    tag_303:\n        /* \"#utility.yul\":11175:11314   */\n      swap1\n      pop\n        /* \"#utility.yul\":10902:11321   */\n      swap2\n      swap1\n      pop\n      jump\t// out\n        /* \"#utility.yul\":11327:11688   */\n    tag_23:\n        /* \"#utility.yul\":11464:11468   */\n      0x00\n        /* \"#utility.yul\":11502:11504   */\n      0x20\n        /* \"#utility.yul\":11491:11500   */\n      dup3\n        /* \"#utility.yul\":11487:11505   */\n      add\n        /* \"#utility.yul\":11479:11505   */\n      swap1\n      pop\n        /* \"#utility.yul\":11551:11560   */\n      dup2\n        /* \"#utility.yul\":11545:11549   */\n      dup2\n        /* \"#utility.yul\":11541:11561   */\n      sub\n        /* \"#utility.yul\":11537:11538   */\n      0x00\n        /* \"#utility.yul\":11526:11535   */\n      dup4\n        /* \"#utility.yul\":11522:11539   */\n      add\n        /* \"#utility.yul\":11515:11562   */\n      mstore\n        /* \"#utility.yul\":11579:11681   */\n      tag_305\n        /* \"#utility.yul\":11676:11680   */\n      dup2\n        /* \"#utility.yul\":11667:11673   */\n      dup5\n        /* \"#utility.yul\":11579:11681   */\n      tag_272\n      jump\t// in\n    tag_305:\n        /* \"#utility.yul\":11571:11681   */\n      swap1\n      pop\n        /* \"#utility.yul\":11327:11688   */\n      swap3\n      swap2\n      pop\n      pop\n      jump\t// out\n        /* \"#utility.yul\":11694:12055   */\n    tag_32:\n        /* \"#utility.yul\":11831:11835   */\n      0x00\n        /* \"#utility.yul\":11869:11871   */\n      0x20\n        /* \"#utility.yul\":11858:11867   */\n      dup3\n        /* \"#utility.yul\":11854:11872   */\n      add\n        /* \"#utility.yul\":11846:11872   */\n      swap1\n      pop\n        /* \"#utility.yul\":11918:11927   */\n      dup2\n        /* \"#utility.yul\":11912:11916   */\n      dup2\n        /* \"#utility.yul\":11908:11928   */\n      sub\n        /* \"#utility.yul\":11904:11905   */\n      0x00\n        /* \"#utility.yul\":11893:11902   */\n      dup4\n        /* \"#utility.yul\":11889:11906   */\n      add\n        /* \"#utility.yul\":11882:11929   */\n      mstore\n        /* \"#utility.yul\":11946:12048   */\n      tag_307\n        /* \"#utility.yul\":12043:12047   */\n      dup2\n        /* \"#utility.yul\":12034:12040   */\n      dup5\n        /* \"#utility.yul\":11946:12048   */\n      tag_280\n      jump\t// in\n    tag_307:\n        /* \"#utility.yul\":11938:12048   */\n      swap1\n      pop\n        /* \"#utility.yul\":11694:12055   */\n      swap3\n      swap2\n      pop\n      pop\n      jump\t// out\n        /* \"#utility.yul\":12061:12190   */\n    tag_182:\n        /* \"#utility.yul\":12095:12101   */\n      0x00\n        /* \"#utility.yul\":12122:12142   */\n      tag_309\n      tag_310\n      jump\t// in\n    tag_309:\n        /* \"#utility.yul\":12112:12142   */\n      swap1\n      pop\n        /* \"#utility.yul\":12151:12184   */\n      tag_311\n        /* \"#utility.yul\":12179:12183   */\n      dup3\n        /* \"#utility.yul\":12171:12177   */\n      dup3\n        /* \"#utility.yul\":12151:12184   */\n      tag_312\n      jump\t// in\n    tag_311:\n        /* \"#utility.yul\":12061:12190   */\n      swap2\n      swap1\n      pop\n      jump\t// out\n        /* \"#utility.yul\":12196:12271   */\n    tag_310:\n        /* \"#utility.yul\":12229:12235   */\n      0x00\n        /* \"#utility.yul\":12262:12264   */\n      0x40\n        /* \"#utility.yul\":12256:12265   */\n      mload\n        /* \"#utility.yul\":12246:12265   */\n      swap1\n      pop\n        /* \"#utility.yul\":12196:12271   */\n      swap1\n      jump\t// out\n        /* \"#utility.yul\":12277:12585   */\n    tag_181:\n        /* \"#utility.yul\":12339:12343   */\n      0x00\n        /* \"#utility.yul\":12429:12447   */\n      0xffffffffffffffff\n        /* \"#utility.yul\":12421:12427   */\n      dup3\n        /* \"#utility.yul\":12418:12448   */\n      gt\n        /* \"#utility.yul\":12415:12471   */\n      iszero\n      tag_315\n      jumpi\n        /* \"#utility.yul\":12451:12469   */\n      tag_316\n      tag_317\n      jump\t// in\n    tag_316:\n        /* \"#utility.yul\":12415:12471   */\n    tag_315:\n        /* \"#utility.yul\":12489:12518   */\n      tag_318\n        /* \"#utility.yul\":12511:12517   */\n      dup3\n        /* \"#utility.yul\":12489:12518   */\n      tag_234\n      jump\t// in\n    tag_318:\n        /* \"#utility.yul\":12481:12518   */\n      swap1\n      pop\n        /* \"#utility.yul\":12573:12577   */\n      0x20\n        /* \"#utility.yul\":12567:12571   */\n      dup2\n        /* \"#utility.yul\":12563:12578   */\n      add\n        /* \"#utility.yul\":12555:12578   */\n      swap1\n      pop\n        /* \"#utility.yul\":12277:12585   */\n      swap2\n      swap1\n      pop\n      jump\t// out\n        /* \"#utility.yul\":12591:12690   */\n    tag_228:\n        /* \"#utility.yul\":12643:12649   */\n      0x00\n        /* \"#utility.yul\":12677:12682   */\n      dup2\n        /* \"#utility.yul\":12671:12683   */\n      mload\n        /* \"#utility.yul\":12661:12683   */\n      swap1\n      pop\n        /* \"#utility.yul\":12591:12690   */\n      swap2\n      swap1\n      pop\n      jump\t// out\n        /* \"#utility.yul\":12696:12855   */\n    tag_230:\n        /* \"#utility.yul\":12770:12781   */\n      0x00\n        /* \"#utility.yul\":12804:12810   */\n      dup3\n        /* \"#utility.yul\":12799:12802   */\n      dup3\n        /* \"#utility.yul\":12792:12811   */\n      mstore\n        /* \"#utility.yul\":12844:12848   */\n      0x20\n        /* \"#utility.yul\":12839:12842   */\n      dup3\n        /* \"#utility.yul\":12835:12849   */\n      add\n        /* \"#utility.yul\":12820:12849   */\n      swap1\n      pop\n        /* \"#utility.yul\":12696:12855   */\n      swap3\n      swap2\n      pop\n      pop\n      jump\t// out\n        /* \"#utility.yul\":12861:13030   */\n    tag_239:\n        /* \"#utility.yul\":12945:12956   */\n      0x00\n        /* \"#utility.yul\":12979:12985   */\n      dup3\n        /* \"#utility.yul\":12974:12977   */\n      dup3\n        /* \"#utility.yul\":12967:12986   */\n      mstore\n        /* \"#utility.yul\":13019:13023   */\n      0x20\n        /* \"#utility.yul\":13014:13017   */\n      dup3\n        /* \"#utility.yul\":13010:13024   */\n      add\n        /* \"#utility.yul\":12995:13024   */\n      swap1\n      pop\n        /* \"#utility.yul\":12861:13030   */\n      swap3\n      swap2\n      pop\n      pop\n      jump\t// out\n        /* \"#utility.yul\":13036:13126   */\n    tag_224:\n        /* \"#utility.yul\":13070:13077   */\n      0x00\n        /* \"#utility.yul\":13113:13118   */\n      dup2\n        /* \"#utility.yul\":13106:13119   */\n      iszero\n        /* \"#utility.yul\":13099:13120   */\n      iszero\n        /* \"#utility.yul\":13088:13120   */\n      swap1\n      pop\n        /* \"#utility.yul\":13036:13126   */\n      swap2\n      swap1\n      pop\n      jump\t// out\n        /* \"#utility.yul\":13132:13209   */\n    tag_289:\n        /* \"#utility.yul\":13169:13176   */\n      0x00\n        /* \"#utility.yul\":13198:13203   */\n      dup2\n        /* \"#utility.yul\":13187:13203   */\n      swap1\n      pop\n        /* \"#utility.yul\":13132:13209   */\n      swap2\n      swap1\n      pop\n      jump\t// out\n        /* \"#utility.yul\":13215:13369   */\n    tag_187:\n        /* \"#utility.yul\":13299:13305   */\n      dup3\n        /* \"#utility.yul\":13294:13297   */\n      dup2\n        /* \"#utility.yul\":13289:13292   */\n      dup4\n        /* \"#utility.yul\":13276:13306   */\n      calldatacopy\n        /* \"#utility.yul\":13361:13362   */\n      0x00\n        /* \"#utility.yul\":13352:13358   */\n      dup4\n        /* \"#utility.yul\":13347:13350   */\n      dup4\n        /* \"#utility.yul\":13343:13359   */\n      add\n        /* \"#utility.yul\":13336:13363   */\n      mstore\n        /* \"#utility.yul\":13215:13369   */\n      pop\n      pop\n      pop\n      jump\t// out\n        /* \"#utility.yul\":13375:13682   */\n    tag_232:\n        /* \"#utility.yul\":13443:13444   */\n      0x00\n        /* \"#utility.yul\":13453:13566   */\n    tag_326:\n        /* \"#utility.yul\":13467:13473   */\n      dup4\n        /* \"#utility.yul\":13464:13465   */\n      dup2\n        /* \"#utility.yul\":13461:13474   */\n      lt\n        /* \"#utility.yul\":13453:13566   */\n      iszero\n      tag_328\n      jumpi\n        /* \"#utility.yul\":13552:13553   */\n      dup1\n        /* \"#utility.yul\":13547:13550   */\n      dup3\n        /* \"#utility.yul\":13543:13554   */\n      add\n        /* \"#utility.yul\":13537:13555   */\n      mload\n        /* \"#utility.yul\":13533:13534   */\n      dup2\n        /* \"#utility.yul\":13528:13531   */\n      dup5\n        /* \"#utility.yul\":13524:13535   */\n      add\n        /* \"#utility.yul\":13517:13556   */\n      mstore\n        /* \"#utility.yul\":13489:13491   */\n      0x20\n        /* \"#utility.yul\":13486:13487   */\n      dup2\n        /* \"#utility.yul\":13482:13492   */\n      add\n        /* \"#utility.yul\":13477:13492   */\n      swap1\n      pop\n        /* \"#utility.yul\":13453:13566   */\n      jump(tag_326)\n    tag_328:\n        /* \"#utility.yul\":13584:13590   */\n      dup4\n        /* \"#utility.yul\":13581:13582   */\n      dup2\n        /* \"#utility.yul\":13578:13591   */\n      gt\n        /* \"#utility.yul\":13575:13676   */\n      iszero\n      tag_329\n      jumpi\n        /* \"#utility.yul\":13664:13665   */\n      0x00\n        /* \"#utility.yul\":13655:13661   */\n      dup5\n        /* \"#utility.yul\":13650:13653   */\n      dup5\n        /* \"#utility.yul\":13646:13662   */\n      add\n        /* \"#utility.yul\":13639:13666   */\n      mstore\n        /* \"#utility.yul\":13575:13676   */\n    tag_329:\n        /* \"#utility.yul\":13424:13682   */\n      pop\n        /* \"#utility.yul\":13375:13682   */\n      pop\n      pop\n      pop\n      jump\t// out\n        /* \"#utility.yul\":13688:13859   */\n    tag_140:\n        /* \"#utility.yul\":13727:13730   */\n      0x00\n        /* \"#utility.yul\":13750:13774   */\n      tag_331\n        /* \"#utility.yul\":13768:13773   */\n      dup3\n        /* \"#utility.yul\":13750:13774   */\n      tag_289\n      jump\t// in\n    tag_331:\n        /* \"#utility.yul\":13741:13774   */\n      swap2\n      pop\n        /* \"#utility.yul\":13796:13800   */\n      0x00\n        /* \"#utility.yul\":13789:13794   */\n      dup3\n        /* \"#utility.yul\":13786:13801   */\n      eq\n        /* \"#utility.yul\":13783:13824   */\n      iszero\n      tag_332\n      jumpi\n        /* \"#utility.yul\":13804:13822   */\n      tag_333\n      tag_334\n      jump\t// in\n    tag_333:\n        /* \"#utility.yul\":13783:13824   */\n    tag_332:\n        /* \"#utility.yul\":13851:13852   */\n      0x01\n        /* \"#utility.yul\":13844:13849   */\n      dup3\n        /* \"#utility.yul\":13840:13853   */\n      sub\n        /* \"#utility.yul\":13833:13853   */\n      swap1\n      pop\n        /* \"#utility.yul\":13688:13859   */\n      swap2\n      swap1\n      pop\n      jump\t// out\n        /* \"#utility.yul\":13865:14185   */\n    tag_46:\n        /* \"#utility.yul\":13909:13915   */\n      0x00\n        /* \"#utility.yul\":13946:13947   */\n      0x02\n        /* \"#utility.yul\":13940:13944   */\n      dup3\n        /* \"#utility.yul\":13936:13948   */\n      div\n        /* \"#utility.yul\":13926:13948   */\n      swap1\n      pop\n        /* \"#utility.yul\":13993:13994   */\n      0x01\n        /* \"#utility.yul\":13987:13991   */\n      dup3\n        /* \"#utility.yul\":13983:13995   */\n      and\n        /* \"#utility.yul\":14014:14032   */\n      dup1\n        /* \"#utility.yul\":14004:14085   */\n      tag_336\n      jumpi\n        /* \"#utility.yul\":14070:14074   */\n      0x7f\n        /* \"#utility.yul\":14062:14068   */\n      dup3\n        /* \"#utility.yul\":14058:14075   */\n      and\n        /* \"#utility.yul\":14048:14075   */\n      swap2\n      pop\n        /* \"#utility.yul\":14004:14085   */\n    tag_336:\n        /* \"#utility.yul\":14132:14134   */\n      0x20\n        /* \"#utility.yul\":14124:14130   */\n      dup3\n        /* \"#utility.yul\":14121:14135   */\n      lt\n        /* \"#utility.yul\":14101:14119   */\n      dup2\n        /* \"#utility.yul\":14098:14136   */\n      eq\n        /* \"#utility.yul\":14095:14179   */\n      iszero\n      tag_337\n      jumpi\n        /* \"#utility.yul\":14151:14169   */\n      tag_338\n      tag_339\n      jump\t// in\n    tag_338:\n        /* \"#utility.yul\":14095:14179   */\n    tag_337:\n        /* \"#utility.yul\":13916:14185   */\n      pop\n        /* \"#utility.yul\":13865:14185   */\n      swap2\n      swap1\n      pop\n      jump\t// out\n        /* \"#utility.yul\":14191:14472   */\n    tag_312:\n        /* \"#utility.yul\":14274:14301   */\n      tag_341\n        /* \"#utility.yul\":14296:14300   */\n      dup3\n        /* \"#utility.yul\":14274:14301   */\n      tag_234\n      jump\t// in\n    tag_341:\n        /* \"#utility.yul\":14266:14272   */\n      dup2\n        /* \"#utility.yul\":14262:14302   */\n      add\n        /* \"#utility.yul\":14404:14410   */\n      dup2\n        /* \"#utility.yul\":14392:14402   */\n      dup2\n        /* \"#utility.yul\":14389:14411   */\n      lt\n        /* \"#utility.yul\":14368:14386   */\n      0xffffffffffffffff\n        /* \"#utility.yul\":14356:14366   */\n      dup3\n        /* \"#utility.yul\":14353:14387   */\n      gt\n        /* \"#utility.yul\":14350:14412   */\n      or\n        /* \"#utility.yul\":14347:14435   */\n      iszero\n      tag_342\n      jumpi\n        /* \"#utility.yul\":14415:14433   */\n      tag_343\n      tag_317\n      jump\t// in\n    tag_343:\n        /* \"#utility.yul\":14347:14435   */\n    tag_342:\n        /* \"#utility.yul\":14455:14465   */\n      dup1\n        /* \"#utility.yul\":14451:14453   */\n      0x40\n        /* \"#utility.yul\":14444:14466   */\n      mstore\n        /* \"#utility.yul\":14234:14472   */\n      pop\n        /* \"#utility.yul\":14191:14472   */\n      pop\n      pop\n      jump\t// out\n        /* \"#utility.yul\":14478:14711   */\n    tag_106:\n        /* \"#utility.yul\":14517:14520   */\n      0x00\n        /* \"#utility.yul\":14540:14564   */\n      tag_345\n        /* \"#utility.yul\":14558:14563   */\n      dup3\n        /* \"#utility.yul\":14540:14564   */\n      tag_289\n      jump\t// in\n    tag_345:\n        /* \"#utility.yul\":14531:14564   */\n      swap2\n      pop\n        /* \"#utility.yul\":14586:14652   */\n      0xffffffffffffffffffffffffffffffffffffffffffffffffffffffffffffffff\n        /* \"#utility.yul\":14579:14584   */\n      dup3\n        /* \"#utility.yul\":14576:14653   */\n      eq\n        /* \"#utility.yul\":14573:14676   */\n      iszero\n      tag_346\n      jumpi\n        /* \"#utility.yul\":14656:14674   */\n      tag_347\n      tag_334\n      jump\t// in\n    tag_347:\n        /* \"#utility.yul\":14573:14676   */\n    tag_346:\n        /* \"#utility.yul\":14703:14704   */\n      0x01\n        /* \"#utility.yul\":14696:14701   */\n      dup3\n        /* \"#utility.yul\":14692:14705   */\n      add\n        /* \"#utility.yul\":14685:14705   */\n      swap1\n      pop\n        /* \"#utility.yul\":14478:14711   */\n      swap2\n      swap1\n      pop\n      jump\t// out\n        /* \"#utility.yul\":14717:14897   */\n    tag_334:\n        /* \"#utility.yul\":14765:14842   */\n      0x4e487b7100000000000000000000000000000000000000000000000000000000\n        /* \"#utility.yul\":14762:14763   */\n      0x00\n        /* \"#utility.yul\":14755:14843   */\n      mstore\n        /* \"#utility.yul\":14862:14866   */\n      0x11\n        /* \"#utility.yul\":14859:14860   */\n      0x04\n        /* \"#utility.yul\":14852:14867   */\n      mstore\n        /* \"#utility.yul\":14886:14890   */\n      0x24\n        /* \"#utility.yul\":14883:14884   */\n      0x00\n        /* \"#utility.yul\":14876:14891   */\n      revert\n        /* \"#utility.yul\":14903:15083   */\n    tag_339:\n        /* \"#utility.yul\":14951:15028   */\n      0x4e487b7100000000000000000000000000000000000000000000000000000000\n        /* \"#utility.yul\":14948:14949   */\n      0x00\n        /* \"#utility.yul\":14941:15029   */\n      mstore\n        /* \"#utility.yul\":15048:15052   */\n      0x22\n        /* \"#utility.yul\":15045:15046   */\n      0x04\n        /* \"#utility.yul\":15038:15053   */\n      mstore\n        /* \"#utility.yul\":15072:15076   */\n      0x24\n        /* \"#utility.yul\":15069:15070   */\n      0x00\n        /* \"#utility.yul\":15062:15077   */\n      revert\n        /* \"#utility.yul\":15089:15269   */\n    tag_40:\n        /* \"#utility.yul\":15137:15214   */\n      0x4e487b7100000000000000000000000000000000000000000000000000000000\n        /* \"#utility.yul\":15134:15135   */\n      0x00\n        /* \"#utility.yul\":15127:15215   */\n      mstore\n        /* \"#utility.yul\":15234:15238   */\n      0x32\n        /* \"#utility.yul\":15231:15232   */\n      0x04\n        /* \"#utility.yul\":15224:15239   */\n      mstore\n        /* \"#utility.yul\":15258:15262   */\n      0x24\n        /* \"#utility.yul\":15255:15256   */\n      0x00\n        /* \"#utility.yul\":15248:15263   */\n      revert\n        /* \"#utility.yul\":15275:15455   */\n    tag_317:\n        /* \"#utility.yul\":15323:15400   */\n      0x4e487b7100000000000000000000000000000000000000000000000000000000\n        /* \"#utility.yul\":15320:15321   */\n      0x00\n        /* \"#utility.yul\":15313:15401   */\n      mstore\n        /* \"#utility.yul\":15420:15424   */\n      0x41\n        /* \"#utility.yul\":15417:15418   */\n      0x04\n        /* \"#utility.yul\":15410:15425   */\n      mstore\n        /* \"#utility.yul\":15444:15448   */\n      0x24\n        /* \"#utility.yul\":15441:15442   */\n      0x00\n        /* \"#utility.yul\":15434:15449   */\n      revert\n        /* \"#utility.yul\":15461:15578   */\n    tag_192:\n        /* \"#utility.yul\":15570:15571   */\n      0x00\n        /* \"#utility.yul\":15567:15568   */\n      dup1\n        /* \"#utility.yul\":15560:15572   */\n      revert\n        /* \"#utility.yul\":15584:15701   */\n    tag_185:\n        /* \"#utility.yul\":15693:15694   */\n      0x00\n        /* \"#utility.yul\":15690:15691   */\n      dup1\n        /* \"#utility.yul\":15683:15695   */\n      revert\n        /* \"#utility.yul\":15707:15824   */\n    tag_204:\n        /* \"#utility.yul\":15816:15817   */\n      0x00\n        /* \"#utility.yul\":15813:15814   */\n      dup1\n        /* \"#utility.yul\":15806:15818   */\n      revert\n        /* \"#utility.yul\":15830:15947   */\n    tag_201:\n        /* \"#utility.yul\":15939:15940   */\n      0x00\n        /* \"#utility.yul\":15936:15937   */\n      dup1\n        /* \"#utility.yul\":15929:15941   */\n      revert\n        /* \"#utility.yul\":15953:16055   */\n    tag_234:\n        /* \"#utility.yul\":15994:16000   */\n      0x00\n        /* \"#utility.yul\":16045:16047   */\n      0x1f\n        /* \"#utility.yul\":16041:16048   */\n      not\n        /* \"#utility.yul\":16036:16038   */\n      0x1f\n        /* \"#utility.yul\":16029:16034   */\n      dup4\n        /* \"#utility.yul\":16025:16039   */\n      add\n        /* \"#utility.yul\":16021:16049   */\n      and\n        /* \"#utility.yul\":16011:16049   */\n      swap1\n      pop\n        /* \"#utility.yul\":15953:16055   */\n      swap2\n      swap1\n      pop\n      jump\t// out\n        /* \"#utility.yul\":16061:16288   */\n    tag_246:\n        /* \"#utility.yul\":16201:16235   */\n      0x436f77626f792068617320616c72656164792074616b656e207475726e207468\n        /* \"#utility.yul\":16197:16198   */\n      0x00\n        /* \"#utility.yul\":16189:16195   */\n      dup3\n        /* \"#utility.yul\":16185:16199   */\n      add\n        /* \"#utility.yul\":16178:16236   */\n      mstore\n        /* \"#utility.yul\":16270:16280   */\n      0x697320726f756e64000000000000000000000000000000000000000000000000\n        /* \"#utility.yul\":16265:16267   */\n      0x20\n        /* \"#utility.yul\":16257:16263   */\n      dup3\n        /* \"#utility.yul\":16253:16268   */\n      add\n        /* \"#utility.yul\":16246:16281   */\n      mstore\n        /* \"#utility.yul\":16061:16288   */\n      pop\n      jump\t// out\n        /* \"#utility.yul\":16294:16473   */\n    tag_251:\n        /* \"#utility.yul\":16434:16465   */\n      0x54686520676976656e206964206973206f7574206f6620626f756e6473000000\n        /* \"#utility.yul\":16430:16431   */\n      0x00\n        /* \"#utility.yul\":16422:16428   */\n      dup3\n        /* \"#utility.yul\":16418:16432   */\n      add\n        /* \"#utility.yul\":16411:16466   */\n      mstore\n        /* \"#utility.yul\":16294:16473   */\n      pop\n      jump\t// out\n        /* \"#utility.yul\":16479:16709   */\n    tag_256:\n        /* \"#utility.yul\":16619:16653   */\n      0x54686520676976656e20636f77626f79206973206e6f7420696e207468652067\n        /* \"#utility.yul\":16615:16616   */\n      0x00\n        /* \"#utility.yul\":16607:16613   */\n      dup3\n        /* \"#utility.yul\":16603:16617   */\n      add\n        /* \"#utility.yul\":16596:16654   */\n      mstore\n        /* \"#utility.yul\":16688:16701   */\n      0x6976656e20626174746c65000000000000000000000000000000000000000000\n        /* \"#utility.yul\":16683:16685   */\n      0x20\n        /* \"#utility.yul\":16675:16681   */\n      dup3\n        /* \"#utility.yul\":16671:16686   */\n      add\n        /* \"#utility.yul\":16664:16702   */\n      mstore\n        /* \"#utility.yul\":16479:16709   */\n      pop\n      jump\t// out\n        /* \"#utility.yul\":16715:16948   */\n    tag_261:\n        /* \"#utility.yul\":16855:16889   */\n      0x5468652067616d65206973206f76657220796f757220636f77626f792063616e\n        /* \"#utility.yul\":16851:16852   */\n      0x00\n        /* \"#utility.yul\":16843:16849   */\n      dup3\n        /* \"#utility.yul\":16839:16853   */\n      add\n        /* \"#utility.yul\":16832:16890   */\n      mstore\n        /* \"#utility.yul\":16924:16940   */\n      0x27742074616b65207475726e732e000000000000000000000000000000000000\n        /* \"#utility.yul\":16919:16921   */\n      0x20\n        /* \"#utility.yul\":16911:16917   */\n      dup3\n        /* \"#utility.yul\":16907:16922   */\n      add\n        /* \"#utility.yul\":16900:16941   */\n      mstore\n        /* \"#utility.yul\":16715:16948   */\n      pop\n      jump\t// out\n        /* \"#utility.yul\":16954:17127   */\n    tag_266:\n        /* \"#utility.yul\":17094:17119   */\n      0x5468657265206973206e6f2077696e6e6572207965742e000000000000000000\n        /* \"#utility.yul\":17090:17091   */\n      0x00\n        /* \"#utility.yul\":17082:17088   */\n      dup3\n        /* \"#utility.yul\":17078:17092   */\n      add\n        /* \"#utility.yul\":17071:17120   */\n      mstore\n        /* \"#utility.yul\":16954:17127   */\n      pop\n      jump\t// out\n        /* \"#utility.yul\":17133:17356   */\n    tag_271:\n        /* \"#utility.yul\":17273:17307   */\n      0x596f757220636f77626f792063616e27742073686f6f7420776974686f757420\n        /* \"#utility.yul\":17269:17270   */\n      0x00\n        /* \"#utility.yul\":17261:17267   */\n      dup3\n        /* \"#utility.yul\":17257:17271   */\n      add\n        /* \"#utility.yul\":17250:17308   */\n      mstore\n        /* \"#utility.yul\":17342:17348   */\n      0x616d6d6f00000000000000000000000000000000000000000000000000000000\n        /* \"#utility.yul\":17337:17339   */\n      0x20\n        /* \"#utility.yul\":17329:17335   */\n      dup3\n        /* \"#utility.yul\":17325:17340   */\n      add\n        /* \"#utility.yul\":17318:17349   */\n      mstore\n        /* \"#utility.yul\":17133:17356   */\n      pop\n      jump\t// out\n        /* \"#utility.yul\":17362:17484   */\n    tag_197:\n        /* \"#utility.yul\":17435:17459   */\n      tag_364\n        /* \"#utility.yul\":17453:17458   */\n      dup2\n        /* \"#utility.yul\":17435:17459   */\n      tag_289\n      jump\t// in\n    tag_364:\n        /* \"#utility.yul\":17428:17433   */\n      dup2\n        /* \"#utility.yul\":17425:17460   */\n      eq\n        /* \"#utility.yul\":17415:17478   */\n      tag_365\n      jumpi\n        /* \"#utility.yul\":17474:17475   */\n      0x00\n        /* \"#utility.yul\":17471:17472   */\n      dup1\n        /* \"#utility.yul\":17464:17476   */\n      revert\n        /* \"#utility.yul\":17415:17478   */\n    tag_365:\n        /* \"#utility.yul\":17362:17484   */\n      pop\n      jump\t// out\n\n    auxdata: 0xa2646970667358221220774bfabb962b5a9acc34513ec08af541561b45b0a8e5a8cd548087a5429b03b764736f6c63430008070033\n}\n",
    "bytecode": {
      "linkReferences": {},
      "object": "608060405234801561001057600080fd5b50611790806100206000396000f3fe608060405234801561001057600080fd5b50600436106100625760003560e01c80634129b2c9146100675780635f4a0b85146100975780636dd0ce7a146100b35780637dbef372146100e3578063dc118019146100ff578063df73c49f1461012f575b600080fd5b610081600480360381019061007c9190610eef565b61014b565b60405161008e91906111fd565b60405180910390f35b6100b160048036038101906100ac9190610ea6565b610258565b005b6100cd60048036038101906100c89190610eef565b610340565b6040516100da91906112df565b60405180910390f35b6100fd60048036038101906100f89190610f5c565b610492565b005b61011960048036038101906101149190610eef565b610708565b6040516101269190611301565b60405180910390f35b61014960048036038101906101449190610f1c565b61087c565b005b6060600080838154811061016257610161611532565b5b906000526020600020906005020190508060040160009054906101000a900460ff166101c3576040517f08c379a00000000000000000000000000000000000000000000000000000000081526004016101ba9061129f565b60405180910390fd5b8060020180546101d290611428565b80601f01602080910402602001604051908101604052809291908181526020018280546101fe90611428565b801561024b5780601f106102205761010080835404028352916020019161024b565b820191906000526020600020905b81548152906001019060200180831161022e57829003601f168201915b5050505050915050919050565b60016040518060a001604052808381526020016000815260200160001515815260200160001515815260200160001515815250908060018154018082558091505060019003906000526020600020906003020160009091909190915060008201518160000190805190602001906102d0929190610c8b565b506020820151816001015560408201518160020160006101000a81548160ff02191690831515021790555060608201518160020160016101000a81548160ff02191690831515021790555060808201518160020160026101000a81548160ff021916908315150217905550505050565b610348610d11565b81600080549050808210610391576040517f08c379a00000000000000000000000000000000000000000000000000000000081526004016103889061123f565b60405180910390fd5b600084815481106103a5576103a4611532565b5b90600052602060002090600502016040518060a001604052908160008201548152602001600182015481526020016002820180546103e290611428565b80601f016020809104026020016040519081016040528092919081815260200182805461040e90611428565b801561045b5780601f106104305761010080835404028352916020019161045b565b820191906000526020600020905b81548152906001019060200180831161043e57829003601f168201915b50505050508152602001600382015481526020016004820160009054906101000a900460ff16151515158152505092505050919050565b816001805490508082106104db576040517f08c379a00000000000000000000000000000000000000000000000000000000081526004016104d29061123f565b60405180910390fd5b82600080549050808210610524576040517f08c379a000000000000000000000000000000000000000000000000000000000815260040161051b9061123f565b60405180910390fd5b600080868154811061053957610538611532565b5b906000526020600020906005020190508060040160009054906101000a900460ff161561059b576040517f08c379a00000000000000000000000000000000000000000000000000000000081526004016105929061127f565b60405180910390fd5b80600001548714806105b05750806001015487145b6105ef576040517f08c379a00000000000000000000000000000000000000000000000000000000081526004016105e69061125f565b60405180910390fd5b60006001888154811061060557610604611532565b5b906000526020600020906003020190508060020160009054906101000a900460ff1615610667576040517f08c379a000000000000000000000000000000000000000000000000000000000815260040161065e9061121f565b60405180910390fd5b600089141561067e57610679816109d8565b6106af565b60018914156106955761069081610a2f565b6106ae565b60028914156106ac576106a781610ace565b6106ad565b5b5b5b60018160020160006101000a81548160ff0219169083151502179055508160030160008154809291906106e19061148b565b91905055506002826003015414156106fd576106fc82610b0b565b5b505050505050505050565b610710610d42565b81600180549050808210610759576040517f08c379a00000000000000000000000000000000000000000000000000000000081526004016107509061123f565b60405180910390fd5b6001848154811061076d5761076c611532565b5b90600052602060002090600302016040518060a001604052908160008201805461079690611428565b80601f01602080910402602001604051908101604052809291908181526020018280546107c290611428565b801561080f5780601f106107e45761010080835404028352916020019161080f565b820191906000526020600020905b8154815290600101906020018083116107f257829003601f168201915b50505050508152602001600182015481526020016002820160009054906101000a900460ff161515151581526020016002820160019054906101000a900460ff161515151581526020016002820160029054906101000a900460ff16151515158152505092505050919050565b816001805490508082106108c5576040517f08c379a00000000000000000000000000000000000000000000000000000000081526004016108bc9061123f565b60405180910390fd5b8260018054905080821061090e576040517f08c379a00000000000000000000000000000000000000000000000000000000081526004016109059061123f565b60405180910390fd5b60006040518060a0016040528088815260200187815260200160405180602001604052806000815250815260200160008152602001600015158152509080600181540180825580915050600190039060005260206000209060050201600090919091909150600082015181600001556020820151816001015560408201518160020190805190602001906109a3929190610c8b565b506060820151816003015560808201518160040160006101000a81548160ff0219169083151502179055505050505050505050565b8060010160008154809291906109ed9061148b565b919050555060018160020160016101000a81548160ff02191690831515021790555060008160020160026101000a81548160ff02191690831515021790555050565b600181600101541015610a77576040517f08c379a0000000000000000000000000000000000000000000000000000000008152600401610a6e906112bf565b60405180910390fd5b806001016000815480929190610a8c906113fe565b919050555060008160020160016101000a81548160ff02191690831515021790555060018160020160026101000a81548160ff02191690831515021790555050565b60008160020160016101000a81548160ff02191690831515021790555060008160020160026101000a81548160ff02191690831515021790555050565b60006001826000015481548110610b2557610b24611532565b5b9060005260206000209060030201905060006001836001015481548110610b4f57610b4e611532565b5b906000526020600020906003020190508160020160029054906101000a900460ff168015610b8b57508060020160019054906101000a900460ff165b15610bd2578160000183600201908054610ba490611428565b610baf929190610d77565b5060018360040160006101000a81548160ff021916908315150217905550610c42565b8060020160029054906101000a900460ff168015610bfe57508160020160019054906101000a900460ff165b15610c41578060000183600201908054610c1790611428565b610c22929190610d77565b5060018360040160006101000a81548160ff0219169083151502179055505b5b60008260020160006101000a81548160ff02191690831515021790555060008160020160006101000a81548160ff02191690831515021790555060008360030181905550505050565b828054610c9790611428565b90600052602060002090601f016020900481019282610cb95760008555610d00565b82601f10610cd257805160ff1916838001178555610d00565b82800160010185558215610d00579182015b82811115610cff578251825591602001919060010190610ce4565b5b509050610d0d9190610e04565b5090565b6040518060a00160405280600081526020016000815260200160608152602001600081526020016000151581525090565b6040518060a0016040528060608152602001600081526020016000151581526020016000151581526020016000151581525090565b828054610d8390611428565b90600052602060002090601f016020900481019282610da55760008555610df3565b82601f10610db65780548555610df3565b82800160010185558215610df357600052602060002091601f016020900482015b82811115610df2578254825591600101919060010190610dd7565b5b509050610e009190610e04565b5090565b5b80821115610e1d576000816000905550600101610e05565b5090565b6000610e34610e2f84611348565b611323565b905082815260208101848484011115610e5057610e4f611595565b5b610e5b8482856113bc565b509392505050565b600082601f830112610e7857610e77611590565b5b8135610e88848260208601610e21565b91505092915050565b600081359050610ea081611743565b92915050565b600060208284031215610ebc57610ebb61159f565b5b600082013567ffffffffffffffff811115610eda57610ed961159a565b5b610ee684828501610e63565b91505092915050565b600060208284031215610f0557610f0461159f565b5b6000610f1384828501610e91565b91505092915050565b60008060408385031215610f3357610f3261159f565b5b6000610f4185828601610e91565b9250506020610f5285828601610e91565b9150509250929050565b600080600060608486031215610f7557610f7461159f565b5b6000610f8386828701610e91565b9350506020610f9486828701610e91565b9250506040610fa586828701610e91565b9150509250925092565b610fb8816113a6565b82525050565b6000610fc982611379565b610fd38185611384565b9350610fe38185602086016113cb565b610fec816115a4565b840191505092915050565b600061100282611379565b61100c8185611395565b935061101c8185602086016113cb565b611025816115a4565b840191505092915050565b600061103d602883611395565b9150611048826115b5565b604082019050919050565b6000611060601d83611395565b915061106b82611604565b602082019050919050565b6000611083602b83611395565b915061108e8261162d565b604082019050919050565b60006110a6602e83611395565b91506110b18261167c565b604082019050919050565b60006110c9601783611395565b91506110d4826116cb565b602082019050919050565b60006110ec602483611395565b91506110f7826116f4565b604082019050919050565b600060a08301600083015161111a60008601826111ee565b50602083015161112d60208601826111ee565b50604083015184820360408601526111458282610fbe565b915050606083015161115a60608601826111ee565b50608083015161116d6080860182610faf565b508091505092915050565b600060a08301600083015184820360008601526111958282610fbe565b91505060208301516111aa60208601826111ee565b5060408301516111bd6040860182610faf565b5060608301516111d06060860182610faf565b5060808301516111e36080860182610faf565b508091505092915050565b6111f7816113b2565b82525050565b600060208201905081810360008301526112178184610ff7565b905092915050565b6000602082019050818103600083015261123881611030565b9050919050565b6000602082019050818103600083015261125881611053565b9050919050565b6000602082019050818103600083015261127881611076565b9050919050565b6000602082019050818103600083015261129881611099565b9050919050565b600060208201905081810360008301526112b8816110bc565b9050919050565b600060208201905081810360008301526112d8816110df565b9050919050565b600060208201905081810360008301526112f98184611102565b905092915050565b6000602082019050818103600083015261131b8184611178565b905092915050565b600061132d61133e565b9050611339828261145a565b919050565b6000604051905090565b600067ffffffffffffffff82111561136357611362611561565b5b61136c826115a4565b9050602081019050919050565b600081519050919050565b600082825260208201905092915050565b600082825260208201905092915050565b60008115159050919050565b6000819050919050565b82818337600083830152505050565b60005b838110156113e95780820151818401526020810190506113ce565b838111156113f8576000848401525b50505050565b6000611409826113b2565b9150600082141561141d5761141c6114d4565b5b600182039050919050565b6000600282049050600182168061144057607f821691505b6020821081141561145457611453611503565b5b50919050565b611463826115a4565b810181811067ffffffffffffffff8211171561148257611481611561565b5b80604052505050565b6000611496826113b2565b91507fffffffffffffffffffffffffffffffffffffffffffffffffffffffffffffffff8214156114c9576114c86114d4565b5b600182019050919050565b7f4e487b7100000000000000000000000000000000000000000000000000000000600052601160045260246000fd5b7f4e487b7100000000000000000000000000000000000000000000000000000000600052602260045260246000fd5b7f4e487b7100000000000000000000000000000000000000000000000000000000600052603260045260246000fd5b7f4e487b7100000000000000000000000000000000000000000000000000000000600052604160045260246000fd5b600080fd5b600080fd5b600080fd5b600080fd5b6000601f19601f8301169050919050565b7f436f77626f792068617320616c72656164792074616b656e207475726e20746860008201527f697320726f756e64000000000000000000000000000000000000000000000000602082015250565b7f54686520676976656e206964206973206f7574206f6620626f756e6473000000600082015250565b7f54686520676976656e20636f77626f79206973206e6f7420696e20746865206760008201527f6976656e20626174746c65000000000000000000000000000000000000000000602082015250565b7f5468652067616d65206973206f76657220796f757220636f77626f792063616e60008201527f27742074616b65207475726e732e000000000000000000000000000000000000602082015250565b7f5468657265206973206e6f2077696e6e6572207965742e000000000000000000600082015250565b7f596f757220636f77626f792063616e27742073686f6f7420776974686f75742060008201527f616d6d6f00000000000000000000000000000000000000000000000000000000602082015250565b61174c816113b2565b811461175757600080fd5b5056fea2646970667358221220774bfabb962b5a9acc34513ec08af541561b45b0a8e5a8cd548087a5429b03b764736f6c63430008070033",
      "opcodes": "PUSH1 0x80 PUSH1 0x40 MSTORE CALLVALUE DUP1 ISZERO PUSH2 0x10 JUMPI PUSH1 0x0 DUP1 REVERT JUMPDEST POP PUSH2 0x1790 DUP1 PUSH2 0x20 PUSH1 0x0 CODECOPY PUSH1 0x0 RETURN INVALID PUSH1 0x80 PUSH1 0x40 MSTORE CALLVALUE DUP1 ISZERO PUSH2 0x10 JUMPI PUSH1 0x0 DUP1 REVERT JUMPDEST POP PUSH1 0x4 CALLDATASIZE LT PUSH2 0x62 JUMPI PUSH1 0x0 CALLDATALOAD PUSH1 0xE0 SHR DUP1 PUSH4 0x4129B2C9 EQ PUSH2 0x67 JUMPI DUP1 PUSH4 0x5F4A0B85 EQ PUSH2 0x97 JUMPI DUP1 PUSH4 0x6DD0CE7A EQ PUSH2 0xB3 JUMPI DUP1 PUSH4 0x7DBEF372 EQ PUSH2 0xE3 JUMPI DUP1 PUSH4 0xDC118019 EQ PUSH2 0xFF JUMPI DUP1 PUSH4 0xDF73C49F EQ PUSH2 0x12F JUMPI JUMPDEST PUSH1 0x0 DUP1 REVERT JUMPDEST PUSH2 0x81 PUSH1 0x4 DUP1 CALLDATASIZE SUB DUP2 ADD SWAP1 PUSH2 0x7C SWAP2 SWAP1 PUSH2 0xEEF JUMP JUMPDEST PUSH2 0x14B JUMP JUMPDEST PUSH1 0x40 MLOAD PUSH2 0x8E SWAP2 SWAP1 PUSH2 0x11FD JUMP JUMPDEST PUSH1 0x40 MLOAD DUP1 SWAP2 SUB SWAP1 RETURN JUMPDEST PUSH2 0xB1 PUSH1 0x4 DUP1 CALLDATASIZE SUB DUP2 ADD SWAP1 PUSH2 0xAC SWAP2 SWAP1 PUSH2 0xEA6 JUMP JUMPDEST PUSH2 0x258 JUMP JUMPDEST STOP JUMPDEST PUSH2 0xCD PUSH1 0x4 DUP1 CALLDATASIZE SUB DUP2 ADD SWAP1 PUSH2 0xC8 SWAP2 SWAP1 PUSH2 0xEEF JUMP JUMPDEST PUSH2 0x340 JUMP JUMPDEST PUSH1 0x40 MLOAD PUSH2 0xDA SWAP2 SWAP1 PUSH2 0x12DF JUMP JUMPDEST PUSH1 0x40 MLOAD DUP1 SWAP2 SUB SWAP1 RETURN JUMPDEST PUSH2 0xFD PUSH1 0x4 DUP1 CALLDATASIZE SUB DUP2 ADD SWAP1 PUSH2 0xF8 SWAP2 SWAP1 PUSH2 0xF5C JUMP JUMPDEST PUSH2 0x492 JUMP JUMPDEST STOP JUMPDEST PUSH2 0x119 PUSH1 0x4 DUP1 CALLDATASIZE SUB DUP2 ADD SWAP1 PUSH2 0x114 SWAP2 SWAP1 PUSH2 0xEEF JUMP JUMPDEST PUSH2 0x708 JUMP JUMPDEST PUSH1 0x40 MLOAD PUSH2 0x126 SWAP2 SWAP1 PUSH2 0x1301 JUMP JUMPDEST PUSH1 0x40 MLOAD DUP1 SWAP2 SUB SWAP1 RETURN JUMPDEST PUSH2 0x149 PUSH1 0x4 DUP1 CALLDATASIZE SUB DUP2 ADD SWAP1 PUSH2 0x144 SWAP2 SWAP1 PUSH2 0xF1C JUMP JUMPDEST PUSH2 0x87C JUMP JUMPDEST STOP JUMPDEST PUSH1 0x60 PUSH1 0x0 DUP1 DUP4 DUP2 SLOAD DUP2 LT PUSH2 0x162 JUMPI PUSH2 0x161 PUSH2 0x1532 JUMP JUMPDEST JUMPDEST SWAP1 PUSH1 0x0 MSTORE PUSH1 0x20 PUSH1 0x0 KECCAK256 SWAP1 PUSH1 0x5 MUL ADD SWAP1 POP DUP1 PUSH1 0x4 ADD PUSH1 0x0 SWAP1 SLOAD SWAP1 PUSH2 0x100 EXP SWAP1 DIV PUSH1 0xFF AND PUSH2 0x1C3 JUMPI PUSH1 0x40 MLOAD PUSH32 0x8C379A000000000000000000000000000000000000000000000000000000000 DUP2 MSTORE PUSH1 0x4 ADD PUSH2 0x1BA SWAP1 PUSH2 0x129F JUMP JUMPDEST PUSH1 0x40 MLOAD DUP1 SWAP2 SUB SWAP1 REVERT JUMPDEST DUP1 PUSH1 0x2 ADD DUP1 SLOAD PUSH2 0x1D2 SWAP1 PUSH2 0x1428 JUMP JUMPDEST DUP1 PUSH1 0x1F ADD PUSH1 0x20 DUP1 SWAP2 DIV MUL PUSH1 0x20 ADD PUSH1 0x40 MLOAD SWAP1 DUP2 ADD PUSH1 0x40 MSTORE DUP1 SWAP3 SWAP2 SWAP1 DUP2 DUP2 MSTORE PUSH1 0x20 ADD DUP3 DUP1 SLOAD PUSH2 0x1FE SWAP1 PUSH2 0x1428 JUMP JUMPDEST DUP1 ISZERO PUSH2 0x24B JUMPI DUP1 PUSH1 0x1F LT PUSH2 0x220 JUMPI PUSH2 0x100 DUP1 DUP4 SLOAD DIV MUL DUP4 MSTORE SWAP2 PUSH1 0x20 ADD SWAP2 PUSH2 0x24B JUMP JUMPDEST DUP3 ADD SWAP2 SWAP1 PUSH1 0x0 MSTORE PUSH1 0x20 PUSH1 0x0 KECCAK256 SWAP1 JUMPDEST DUP2 SLOAD DUP2 MSTORE SWAP1 PUSH1 0x1 ADD SWAP1 PUSH1 0x20 ADD DUP1 DUP4 GT PUSH2 0x22E JUMPI DUP3 SWAP1 SUB PUSH1 0x1F AND DUP3 ADD SWAP2 JUMPDEST POP POP POP POP POP SWAP2 POP POP SWAP2 SWAP1 POP JUMP JUMPDEST PUSH1 0x1 PUSH1 0x40 MLOAD DUP1 PUSH1 0xA0 ADD PUSH1 0x40 MSTORE DUP1 DUP4 DUP2 MSTORE PUSH1 0x20 ADD PUSH1 0x0 DUP2 MSTORE PUSH1 0x20 ADD PUSH1 0x0 ISZERO ISZERO DUP2 MSTORE PUSH1 0x20 ADD PUSH1 0x0 ISZERO ISZERO DUP2 MSTORE PUSH1 0x20 ADD PUSH1 0x0 ISZERO ISZERO DUP2 MSTORE POP SWAP1 DUP1 PUSH1 0x1 DUP2 SLOAD ADD DUP1 DUP3 SSTORE DUP1 SWAP2 POP POP PUSH1 0x1 SWAP1 SUB SWAP1 PUSH1 0x0 MSTORE PUSH1 0x20 PUSH1 0x0 KECCAK256 SWAP1 PUSH1 0x3 MUL ADD PUSH1 0x0 SWAP1 SWAP2 SWAP1 SWAP2 SWAP1 SWAP2 POP PUSH1 0x0 DUP3 ADD MLOAD DUP2 PUSH1 0x0 ADD SWAP1 DUP1 MLOAD SWAP1 PUSH1 0x20 ADD SWAP1 PUSH2 0x2D0 SWAP3 SWAP2 SWAP1 PUSH2 0xC8B JUMP JUMPDEST POP PUSH1 0x20 DUP3 ADD MLOAD DUP2 PUSH1 0x1 ADD SSTORE PUSH1 0x40 DUP3 ADD MLOAD DUP2 PUSH1 0x2 ADD PUSH1 0x0 PUSH2 0x100 EXP DUP2 SLOAD DUP2 PUSH1 0xFF MUL NOT AND SWAP1 DUP4 ISZERO ISZERO MUL OR SWAP1 SSTORE POP PUSH1 0x60 DUP3 ADD MLOAD DUP2 PUSH1 0x2 ADD PUSH1 0x1 PUSH2 0x100 EXP DUP2 SLOAD DUP2 PUSH1 0xFF MUL NOT AND SWAP1 DUP4 ISZERO ISZERO MUL OR SWAP1 SSTORE POP PUSH1 0x80 DUP3 ADD MLOAD DUP2 PUSH1 0x2 ADD PUSH1 0x2 PUSH2 0x100 EXP DUP2 SLOAD DUP2 PUSH1 0xFF MUL NOT AND SWAP1 DUP4 ISZERO ISZERO MUL OR SWAP1 SSTORE POP POP POP POP JUMP JUMPDEST PUSH2 0x348 PUSH2 0xD11 JUMP JUMPDEST DUP2 PUSH1 0x0 DUP1 SLOAD SWAP1 POP DUP1 DUP3 LT PUSH2 0x391 JUMPI PUSH1 0x40 MLOAD PUSH32 0x8C379A000000000000000000000000000000000000000000000000000000000 DUP2 MSTORE PUSH1 0x4 ADD PUSH2 0x388 SWAP1 PUSH2 0x123F JUMP JUMPDEST PUSH1 0x40 MLOAD DUP1 SWAP2 SUB SWAP1 REVERT JUMPDEST PUSH1 0x0 DUP5 DUP2 SLOAD DUP2 LT PUSH2 0x3A5 JUMPI PUSH2 0x3A4 PUSH2 0x1532 JUMP JUMPDEST JUMPDEST SWAP1 PUSH1 0x0 MSTORE PUSH1 0x20 PUSH1 0x0 KECCAK256 SWAP1 PUSH1 0x5 MUL ADD PUSH1 0x40 MLOAD DUP1 PUSH1 0xA0 ADD PUSH1 0x40 MSTORE SWAP1 DUP2 PUSH1 0x0 DUP3 ADD SLOAD DUP2 MSTORE PUSH1 0x20 ADD PUSH1 0x1 DUP3 ADD SLOAD DUP2 MSTORE PUSH1 0x20 ADD PUSH1 0x2 DUP3 ADD DUP1 SLOAD PUSH2 0x3E2 SWAP1 PUSH2 0x1428 JUMP JUMPDEST DUP1 PUSH1 0x1F ADD PUSH1 0x20 DUP1 SWAP2 DIV MUL PUSH1 0x20 ADD PUSH1 0x40 MLOAD SWAP1 DUP2 ADD PUSH1 0x40 MSTORE DUP1 SWAP3 SWAP2 SWAP1 DUP2 DUP2 MSTORE PUSH1 0x20 ADD DUP3 DUP1 SLOAD PUSH2 0x40E SWAP1 PUSH2 0x1428 JUMP JUMPDEST DUP1 ISZERO PUSH2 0x45B JUMPI DUP1 PUSH1 0x1F LT PUSH2 0x430 JUMPI PUSH2 0x100 DUP1 DUP4 SLOAD DIV MUL DUP4 MSTORE SWAP2 PUSH1 0x20 ADD SWAP2 PUSH2 0x45B JUMP JUMPDEST DUP3 ADD SWAP2 SWAP1 PUSH1 0x0 MSTORE PUSH1 0x20 PUSH1 0x0 KECCAK256 SWAP1 JUMPDEST DUP2 SLOAD DUP2 MSTORE SWAP1 PUSH1 0x1 ADD SWAP1 PUSH1 0x20 ADD DUP1 DUP4 GT PUSH2 0x43E JUMPI DUP3 SWAP1 SUB PUSH1 0x1F AND DUP3 ADD SWAP2 JUMPDEST POP POP POP POP POP DUP2 MSTORE PUSH1 0x20 ADD PUSH1 0x3 DUP3 ADD SLOAD DUP2 MSTORE PUSH1 0x20 ADD PUSH1 0x4 DUP3 ADD PUSH1 0x0 SWAP1 SLOAD SWAP1 PUSH2 0x100 EXP SWAP1 DIV PUSH1 0xFF AND ISZERO ISZERO ISZERO ISZERO DUP2 MSTORE POP POP SWAP3 POP POP POP SWAP2 SWAP1 POP JUMP JUMPDEST DUP2 PUSH1 0x1 DUP1 SLOAD SWAP1 POP DUP1 DUP3 LT PUSH2 0x4DB JUMPI PUSH1 0x40 MLOAD PUSH32 0x8C379A000000000000000000000000000000000000000000000000000000000 DUP2 MSTORE PUSH1 0x4 ADD PUSH2 0x4D2 SWAP1 PUSH2 0x123F JUMP JUMPDEST PUSH1 0x40 MLOAD DUP1 SWAP2 SUB SWAP1 REVERT JUMPDEST DUP3 PUSH1 0x0 DUP1 SLOAD SWAP1 POP DUP1 DUP3 LT PUSH2 0x524 JUMPI PUSH1 0x40 MLOAD PUSH32 0x8C379A000000000000000000000000000000000000000000000000000000000 DUP2 MSTORE PUSH1 0x4 ADD PUSH2 0x51B SWAP1 PUSH2 0x123F JUMP JUMPDEST PUSH1 0x40 MLOAD DUP1 SWAP2 SUB SWAP1 REVERT JUMPDEST PUSH1 0x0 DUP1 DUP7 DUP2 SLOAD DUP2 LT PUSH2 0x539 JUMPI PUSH2 0x538 PUSH2 0x1532 JUMP JUMPDEST JUMPDEST SWAP1 PUSH1 0x0 MSTORE PUSH1 0x20 PUSH1 0x0 KECCAK256 SWAP1 PUSH1 0x5 MUL ADD SWAP1 POP DUP1 PUSH1 0x4 ADD PUSH1 0x0 SWAP1 SLOAD SWAP1 PUSH2 0x100 EXP SWAP1 DIV PUSH1 0xFF AND ISZERO PUSH2 0x59B JUMPI PUSH1 0x40 MLOAD PUSH32 0x8C379A000000000000000000000000000000000000000000000000000000000 DUP2 MSTORE PUSH1 0x4 ADD PUSH2 0x592 SWAP1 PUSH2 0x127F JUMP JUMPDEST PUSH1 0x40 MLOAD DUP1 SWAP2 SUB SWAP1 REVERT JUMPDEST DUP1 PUSH1 0x0 ADD SLOAD DUP8 EQ DUP1 PUSH2 0x5B0 JUMPI POP DUP1 PUSH1 0x1 ADD SLOAD DUP8 EQ JUMPDEST PUSH2 0x5EF JUMPI PUSH1 0x40 MLOAD PUSH32 0x8C379A000000000000000000000000000000000000000000000000000000000 DUP2 MSTORE PUSH1 0x4 ADD PUSH2 0x5E6 SWAP1 PUSH2 0x125F JUMP JUMPDEST PUSH1 0x40 MLOAD DUP1 SWAP2 SUB SWAP1 REVERT JUMPDEST PUSH1 0x0 PUSH1 0x1 DUP9 DUP2 SLOAD DUP2 LT PUSH2 0x605 JUMPI PUSH2 0x604 PUSH2 0x1532 JUMP JUMPDEST JUMPDEST SWAP1 PUSH1 0x0 MSTORE PUSH1 0x20 PUSH1 0x0 KECCAK256 SWAP1 PUSH1 0x3 MUL ADD SWAP1 POP DUP1 PUSH1 0x2 ADD PUSH1 0x0 SWAP1 SLOAD SWAP1 PUSH2 0x100 EXP SWAP1 DIV PUSH1 0xFF AND ISZERO PUSH2 0x667 JUMPI PUSH1 0x40 MLOAD PUSH32 0x8C379A000000000000000000000000000000000000000000000000000000000 DUP2 MSTORE PUSH1 0x4 ADD PUSH2 0x65E SWAP1 PUSH2 0x121F JUMP JUMPDEST PUSH1 0x40 MLOAD DUP1 SWAP2 SUB SWAP1 REVERT JUMPDEST PUSH1 0x0 DUP10 EQ ISZERO PUSH2 0x67E JUMPI PUSH2 0x679 DUP2 PUSH2 0x9D8 JUMP JUMPDEST PUSH2 0x6AF JUMP JUMPDEST PUSH1 0x1 DUP10 EQ ISZERO PUSH2 0x695 JUMPI PUSH2 0x690 DUP2 PUSH2 0xA2F JUMP JUMPDEST PUSH2 0x6AE JUMP JUMPDEST PUSH1 0x2 DUP10 EQ ISZERO PUSH2 0x6AC JUMPI PUSH2 0x6A7 DUP2 PUSH2 0xACE JUMP JUMPDEST PUSH2 0x6AD JUMP JUMPDEST JUMPDEST JUMPDEST JUMPDEST PUSH1 0x1 DUP2 PUSH1 0x2 ADD PUSH1 0x0 PUSH2 0x100 EXP DUP2 SLOAD DUP2 PUSH1 0xFF MUL NOT AND SWAP1 DUP4 ISZERO ISZERO MUL OR SWAP1 SSTORE POP DUP2 PUSH1 0x3 ADD PUSH1 0x0 DUP2 SLOAD DUP1 SWAP3 SWAP2 SWAP1 PUSH2 0x6E1 SWAP1 PUSH2 0x148B JUMP JUMPDEST SWAP2 SWAP1 POP SSTORE POP PUSH1 0x2 DUP3 PUSH1 0x3 ADD SLOAD EQ ISZERO PUSH2 0x6FD JUMPI PUSH2 0x6FC DUP3 PUSH2 0xB0B JUMP JUMPDEST JUMPDEST POP POP POP POP POP POP POP POP POP JUMP JUMPDEST PUSH2 0x710 PUSH2 0xD42 JUMP JUMPDEST DUP2 PUSH1 0x1 DUP1 SLOAD SWAP1 POP DUP1 DUP3 LT PUSH2 0x759 JUMPI PUSH1 0x40 MLOAD PUSH32 0x8C379A000000000000000000000000000000000000000000000000000000000 DUP2 MSTORE PUSH1 0x4 ADD PUSH2 0x750 SWAP1 PUSH2 0x123F JUMP JUMPDEST PUSH1 0x40 MLOAD DUP1 SWAP2 SUB SWAP1 REVERT JUMPDEST PUSH1 0x1 DUP5 DUP2 SLOAD DUP2 LT PUSH2 0x76D JUMPI PUSH2 0x76C PUSH2 0x1532 JUMP JUMPDEST JUMPDEST SWAP1 PUSH1 0x0 MSTORE PUSH1 0x20 PUSH1 0x0 KECCAK256 SWAP1 PUSH1 0x3 MUL ADD PUSH1 0x40 MLOAD DUP1 PUSH1 0xA0 ADD PUSH1 0x40 MSTORE SWAP1 DUP2 PUSH1 0x0 DUP3 ADD DUP1 SLOAD PUSH2 0x796 SWAP1 PUSH2 0x1428 JUMP JUMPDEST DUP1 PUSH1 0x1F ADD PUSH1 0x20 DUP1 SWAP2 DIV MUL PUSH1 0x20 ADD PUSH1 0x40 MLOAD SWAP1 DUP2 ADD PUSH1 0x40 MSTORE DUP1 SWAP3 SWAP2 SWAP1 DUP2 DUP2 MSTORE PUSH1 0x20 ADD DUP3 DUP1 SLOAD PUSH2 0x7C2 SWAP1 PUSH2 0x1428 JUMP JUMPDEST DUP1 ISZERO PUSH2 0x80F JUMPI DUP1 PUSH1 0x1F LT PUSH2 0x7E4 JUMPI PUSH2 0x100 DUP1 DUP4 SLOAD DIV MUL DUP4 MSTORE SWAP2 PUSH1 0x20 ADD SWAP2 PUSH2 0x80F JUMP JUMPDEST DUP3 ADD SWAP2 SWAP1 PUSH1 0x0 MSTORE PUSH1 0x20 PUSH1 0x0 KECCAK256 SWAP1 JUMPDEST DUP2 SLOAD DUP2 MSTORE SWAP1 PUSH1 0x1 ADD SWAP1 PUSH1 0x20 ADD DUP1 DUP4 GT PUSH2 0x7F2 JUMPI DUP3 SWAP1 SUB PUSH1 0x1F AND DUP3 ADD SWAP2 JUMPDEST POP POP POP POP POP DUP2 MSTORE PUSH1 0x20 ADD PUSH1 0x1 DUP3 ADD SLOAD DUP2 MSTORE PUSH1 0x20 ADD PUSH1 0x2 DUP3 ADD PUSH1 0x0 SWAP1 SLOAD SWAP1 PUSH2 0x100 EXP SWAP1 DIV PUSH1 0xFF AND ISZERO ISZERO ISZERO ISZERO DUP2 MSTORE PUSH1 0x20 ADD PUSH1 0x2 DUP3 ADD PUSH1 0x1 SWAP1 SLOAD SWAP1 PUSH2 0x100 EXP SWAP1 DIV PUSH1 0xFF AND ISZERO ISZERO ISZERO ISZERO DUP2 MSTORE PUSH1 0x20 ADD PUSH1 0x2 DUP3 ADD PUSH1 0x2 SWAP1 SLOAD SWAP1 PUSH2 0x100 EXP SWAP1 DIV PUSH1 0xFF AND ISZERO ISZERO ISZERO ISZERO DUP2 MSTORE POP POP SWAP3 POP POP POP SWAP2 SWAP1 POP JUMP JUMPDEST DUP2 PUSH1 0x1 DUP1 SLOAD SWAP1 POP DUP1 DUP3 LT PUSH2 0x8C5 JUMPI PUSH1 0x40 MLOAD PUSH32 0x8C379A000000000000000000000000000000000000000000000000000000000 DUP2 MSTORE PUSH1 0x4 ADD PUSH2 0x8BC SWAP1 PUSH2 0x123F JUMP JUMPDEST PUSH1 0x40 MLOAD DUP1 SWAP2 SUB SWAP1 REVERT JUMPDEST DUP3 PUSH1 0x1 DUP1 SLOAD SWAP1 POP DUP1 DUP3 LT PUSH2 0x90E JUMPI PUSH1 0x40 MLOAD PUSH32 0x8C379A000000000000000000000000000000000000000000000000000000000 DUP2 MSTORE PUSH1 0x4 ADD PUSH2 0x905 SWAP1 PUSH2 0x123F JUMP JUMPDEST PUSH1 0x40 MLOAD DUP1 SWAP2 SUB SWAP1 REVERT JUMPDEST PUSH1 0x0 PUSH1 0x40 MLOAD DUP1 PUSH1 0xA0 ADD PUSH1 0x40 MSTORE DUP1 DUP9 DUP2 MSTORE PUSH1 0x20 ADD DUP8 DUP2 MSTORE PUSH1 0x20 ADD PUSH1 0x40 MLOAD DUP1 PUSH1 0x20 ADD PUSH1 0x40 MSTORE DUP1 PUSH1 0x0 DUP2 MSTORE POP DUP2 MSTORE PUSH1 0x20 ADD PUSH1 0x0 DUP2 MSTORE PUSH1 0x20 ADD PUSH1 0x0 ISZERO ISZERO DUP2 MSTORE POP SWAP1 DUP1 PUSH1 0x1 DUP2 SLOAD ADD DUP1 DUP3 SSTORE DUP1 SWAP2 POP POP PUSH1 0x1 SWAP1 SUB SWAP1 PUSH1 0x0 MSTORE PUSH1 0x20 PUSH1 0x0 KECCAK256 SWAP1 PUSH1 0x5 MUL ADD PUSH1 0x0 SWAP1 SWAP2 SWAP1 SWAP2 SWAP1 SWAP2 POP PUSH1 0x0 DUP3 ADD MLOAD DUP2 PUSH1 0x0 ADD SSTORE PUSH1 0x20 DUP3 ADD MLOAD DUP2 PUSH1 0x1 ADD SSTORE PUSH1 0x40 DUP3 ADD MLOAD DUP2 PUSH1 0x2 ADD SWAP1 DUP1 MLOAD SWAP1 PUSH1 0x20 ADD SWAP1 PUSH2 0x9A3 SWAP3 SWAP2 SWAP1 PUSH2 0xC8B JUMP JUMPDEST POP PUSH1 0x60 DUP3 ADD MLOAD DUP2 PUSH1 0x3 ADD SSTORE PUSH1 0x80 DUP3 ADD MLOAD DUP2 PUSH1 0x4 ADD PUSH1 0x0 PUSH2 0x100 EXP DUP2 SLOAD DUP2 PUSH1 0xFF MUL NOT AND SWAP1 DUP4 ISZERO ISZERO MUL OR SWAP1 SSTORE POP POP POP POP POP POP POP POP POP JUMP JUMPDEST DUP1 PUSH1 0x1 ADD PUSH1 0x0 DUP2 SLOAD DUP1 SWAP3 SWAP2 SWAP1 PUSH2 0x9ED SWAP1 PUSH2 0x148B JUMP JUMPDEST SWAP2 SWAP1 POP SSTORE POP PUSH1 0x1 DUP2 PUSH1 0x2 ADD PUSH1 0x1 PUSH2 0x100 EXP DUP2 SLOAD DUP2 PUSH1 0xFF MUL NOT AND SWAP1 DUP4 ISZERO ISZERO MUL OR SWAP1 SSTORE POP PUSH1 0x0 DUP2 PUSH1 0x2 ADD PUSH1 0x2 PUSH2 0x100 EXP DUP2 SLOAD DUP2 PUSH1 0xFF MUL NOT AND SWAP1 DUP4 ISZERO ISZERO MUL OR SWAP1 SSTORE POP POP JUMP JUMPDEST PUSH1 0x1 DUP2 PUSH1 0x1 ADD SLOAD LT ISZERO PUSH2 0xA77 JUMPI PUSH1 0x40 MLOAD PUSH32 0x8C379A000000000000000000000000000000000000000000000000000000000 DUP2 MSTORE PUSH1 0x4 ADD PUSH2 0xA6E SWAP1 PUSH2 0x12BF JUMP JUMPDEST PUSH1 0x40 MLOAD DUP1 SWAP2 SUB SWAP1 REVERT JUMPDEST DUP1 PUSH1 0x1 ADD PUSH1 0x0 DUP2 SLOAD DUP1 SWAP3 SWAP2 SWAP1 PUSH2 0xA8C SWAP1 PUSH2 0x13FE JUMP JUMPDEST SWAP2 SWAP1 POP SSTORE POP PUSH1 0x0 DUP2 PUSH1 0x2 ADD PUSH1 0x1 PUSH2 0x100 EXP DUP2 SLOAD DUP2 PUSH1 0xFF MUL NOT AND SWAP1 DUP4 ISZERO ISZERO MUL OR SWAP1 SSTORE POP PUSH1 0x1 DUP2 PUSH1 0x2 ADD PUSH1 0x2 PUSH2 0x100 EXP DUP2 SLOAD DUP2 PUSH1 0xFF MUL NOT AND SWAP1 DUP4 ISZERO ISZERO MUL OR SWAP1 SSTORE POP POP JUMP JUMPDEST PUSH1 0x0 DUP2 PUSH1 0x2 ADD PUSH1 0x1 PUSH2 0x100 EXP DUP2 SLOAD DUP2 PUSH1 0xFF MUL NOT AND SWAP1 DUP4 ISZERO ISZERO MUL OR SWAP1 SSTORE POP PUSH1 0x0 DUP2 PUSH1 0x2 ADD PUSH1 0x2 PUSH2 0x100 EXP DUP2 SLOAD DUP2 PUSH1 0xFF MUL NOT AND SWAP1 DUP4 ISZERO ISZERO MUL OR SWAP1 SSTORE POP POP JUMP JUMPDEST PUSH1 0x0 PUSH1 0x1 DUP3 PUSH1 0x0 ADD SLOAD DUP2 SLOAD DUP2 LT PUSH2 0xB25 JUMPI PUSH2 0xB24 PUSH2 0x1532 JUMP JUMPDEST JUMPDEST SWAP1 PUSH1 0x0 MSTORE PUSH1 0x20 PUSH1 0x0 KECCAK256 SWAP1 PUSH1 0x3 MUL ADD SWAP1 POP PUSH1 0x0 PUSH1 0x1 DUP4 PUSH1 0x1 ADD SLOAD DUP2 SLOAD DUP2 LT PUSH2 0xB4F JUMPI PUSH2 0xB4E PUSH2 0x1532 JUMP JUMPDEST JUMPDEST SWAP1 PUSH1 0x0 MSTORE PUSH1 0x20 PUSH1 0x0 KECCAK256 SWAP1 PUSH1 0x3 MUL ADD SWAP1 POP DUP2 PUSH1 0x2 ADD PUSH1 0x2 SWAP1 SLOAD SWAP1 PUSH2 0x100 EXP SWAP1 DIV PUSH1 0xFF AND DUP1 ISZERO PUSH2 0xB8B JUMPI POP DUP1 PUSH1 0x2 ADD PUSH1 0x1 SWAP1 SLOAD SWAP1 PUSH2 0x100 EXP SWAP1 DIV PUSH1 0xFF AND JUMPDEST ISZERO PUSH2 0xBD2 JUMPI DUP2 PUSH1 0x0 ADD DUP4 PUSH1 0x2 ADD SWAP1 DUP1 SLOAD PUSH2 0xBA4 SWAP1 PUSH2 0x1428 JUMP JUMPDEST PUSH2 0xBAF SWAP3 SWAP2 SWAP1 PUSH2 0xD77 JUMP JUMPDEST POP PUSH1 0x1 DUP4 PUSH1 0x4 ADD PUSH1 0x0 PUSH2 0x100 EXP DUP2 SLOAD DUP2 PUSH1 0xFF MUL NOT AND SWAP1 DUP4 ISZERO ISZERO MUL OR SWAP1 SSTORE POP PUSH2 0xC42 JUMP JUMPDEST DUP1 PUSH1 0x2 ADD PUSH1 0x2 SWAP1 SLOAD SWAP1 PUSH2 0x100 EXP SWAP1 DIV PUSH1 0xFF AND DUP1 ISZERO PUSH2 0xBFE JUMPI POP DUP2 PUSH1 0x2 ADD PUSH1 0x1 SWAP1 SLOAD SWAP1 PUSH2 0x100 EXP SWAP1 DIV PUSH1 0xFF AND JUMPDEST ISZERO PUSH2 0xC41 JUMPI DUP1 PUSH1 0x0 ADD DUP4 PUSH1 0x2 ADD SWAP1 DUP1 SLOAD PUSH2 0xC17 SWAP1 PUSH2 0x1428 JUMP JUMPDEST PUSH2 0xC22 SWAP3 SWAP2 SWAP1 PUSH2 0xD77 JUMP JUMPDEST POP PUSH1 0x1 DUP4 PUSH1 0x4 ADD PUSH1 0x0 PUSH2 0x100 EXP DUP2 SLOAD DUP2 PUSH1 0xFF MUL NOT AND SWAP1 DUP4 ISZERO ISZERO MUL OR SWAP1 SSTORE POP JUMPDEST JUMPDEST PUSH1 0x0 DUP3 PUSH1 0x2 ADD PUSH1 0x0 PUSH2 0x100 EXP DUP2 SLOAD DUP2 PUSH1 0xFF MUL NOT AND SWAP1 DUP4 ISZERO ISZERO MUL OR SWAP1 SSTORE POP PUSH1 0x0 DUP2 PUSH1 0x2 ADD PUSH1 0x0 PUSH2 0x100 EXP DUP2 SLOAD DUP2 PUSH1 0xFF MUL NOT AND SWAP1 DUP4 ISZERO ISZERO MUL OR SWAP1 SSTORE POP PUSH1 0x0 DUP4 PUSH1 0x3 ADD DUP2 SWAP1 SSTORE POP POP POP POP JUMP JUMPDEST DUP3 DUP1 SLOAD PUSH2 0xC97 SWAP1 PUSH2 0x1428 JUMP JUMPDEST SWAP1 PUSH1 0x0 MSTORE PUSH1 0x20 PUSH1 0x0 KECCAK256 SWAP1 PUSH1 0x1F ADD PUSH1 0x20 SWAP1 DIV DUP2 ADD SWAP3 DUP3 PUSH2 0xCB9 JUMPI PUSH1 0x0 DUP6 SSTORE PUSH2 0xD00 JUMP JUMPDEST DUP3 PUSH1 0x1F LT PUSH2 0xCD2 JUMPI DUP1 MLOAD PUSH1 0xFF NOT AND DUP4 DUP1 ADD OR DUP6 SSTORE PUSH2 0xD00 JUMP JUMPDEST DUP3 DUP1 ADD PUSH1 0x1 ADD DUP6 SSTORE DUP3 ISZERO PUSH2 0xD00 JUMPI SWAP2 DUP3 ADD JUMPDEST DUP3 DUP2 GT ISZERO PUSH2 0xCFF JUMPI DUP3 MLOAD DUP3 SSTORE SWAP2 PUSH1 0x20 ADD SWAP2 SWAP1 PUSH1 0x1 ADD SWAP1 PUSH2 0xCE4 JUMP JUMPDEST JUMPDEST POP SWAP1 POP PUSH2 0xD0D SWAP2 SWAP1 PUSH2 0xE04 JUMP JUMPDEST POP SWAP1 JUMP JUMPDEST PUSH1 0x40 MLOAD DUP1 PUSH1 0xA0 ADD PUSH1 0x40 MSTORE DUP1 PUSH1 0x0 DUP2 MSTORE PUSH1 0x20 ADD PUSH1 0x0 DUP2 MSTORE PUSH1 0x20 ADD PUSH1 0x60 DUP2 MSTORE PUSH1 0x20 ADD PUSH1 0x0 DUP2 MSTORE PUSH1 0x20 ADD PUSH1 0x0 ISZERO ISZERO DUP2 MSTORE POP SWAP1 JUMP JUMPDEST PUSH1 0x40 MLOAD DUP1 PUSH1 0xA0 ADD PUSH1 0x40 MSTORE DUP1 PUSH1 0x60 DUP2 MSTORE PUSH1 0x20 ADD PUSH1 0x0 DUP2 MSTORE PUSH1 0x20 ADD PUSH1 0x0 ISZERO ISZERO DUP2 MSTORE PUSH1 0x20 ADD PUSH1 0x0 ISZERO ISZERO DUP2 MSTORE PUSH1 0x20 ADD PUSH1 0x0 ISZERO ISZERO DUP2 MSTORE POP SWAP1 JUMP JUMPDEST DUP3 DUP1 SLOAD PUSH2 0xD83 SWAP1 PUSH2 0x1428 JUMP JUMPDEST SWAP1 PUSH1 0x0 MSTORE PUSH1 0x20 PUSH1 0x0 KECCAK256 SWAP1 PUSH1 0x1F ADD PUSH1 0x20 SWAP1 DIV DUP2 ADD SWAP3 DUP3 PUSH2 0xDA5 JUMPI PUSH1 0x0 DUP6 SSTORE PUSH2 0xDF3 JUMP JUMPDEST DUP3 PUSH1 0x1F LT PUSH2 0xDB6 JUMPI DUP1 SLOAD DUP6 SSTORE PUSH2 0xDF3 JUMP JUMPDEST DUP3 DUP1 ADD PUSH1 0x1 ADD DUP6 SSTORE DUP3 ISZERO PUSH2 0xDF3 JUMPI PUSH1 0x0 MSTORE PUSH1 0x20 PUSH1 0x0 KECCAK256 SWAP2 PUSH1 0x1F ADD PUSH1 0x20 SWAP1 DIV DUP3 ADD JUMPDEST DUP3 DUP2 GT ISZERO PUSH2 0xDF2 JUMPI DUP3 SLOAD DUP3 SSTORE SWAP2 PUSH1 0x1 ADD SWAP2 SWAP1 PUSH1 0x1 ADD SWAP1 PUSH2 0xDD7 JUMP JUMPDEST JUMPDEST POP SWAP1 POP PUSH2 0xE00 SWAP2 SWAP1 PUSH2 0xE04 JUMP JUMPDEST POP SWAP1 JUMP JUMPDEST JUMPDEST DUP1 DUP3 GT ISZERO PUSH2 0xE1D JUMPI PUSH1 0x0 DUP2 PUSH1 0x0 SWAP1 SSTORE POP PUSH1 0x1 ADD PUSH2 0xE05 JUMP JUMPDEST POP SWAP1 JUMP JUMPDEST PUSH1 0x0 PUSH2 0xE34 PUSH2 0xE2F DUP5 PUSH2 0x1348 JUMP JUMPDEST PUSH2 0x1323 JUMP JUMPDEST SWAP1 POP DUP3 DUP2 MSTORE PUSH1 0x20 DUP2 ADD DUP5 DUP5 DUP5 ADD GT ISZERO PUSH2 0xE50 JUMPI PUSH2 0xE4F PUSH2 0x1595 JUMP JUMPDEST JUMPDEST PUSH2 0xE5B DUP5 DUP3 DUP6 PUSH2 0x13BC JUMP JUMPDEST POP SWAP4 SWAP3 POP POP POP JUMP JUMPDEST PUSH1 0x0 DUP3 PUSH1 0x1F DUP4 ADD SLT PUSH2 0xE78 JUMPI PUSH2 0xE77 PUSH2 0x1590 JUMP JUMPDEST JUMPDEST DUP2 CALLDATALOAD PUSH2 0xE88 DUP5 DUP3 PUSH1 0x20 DUP7 ADD PUSH2 0xE21 JUMP JUMPDEST SWAP2 POP POP SWAP3 SWAP2 POP POP JUMP JUMPDEST PUSH1 0x0 DUP2 CALLDATALOAD SWAP1 POP PUSH2 0xEA0 DUP2 PUSH2 0x1743 JUMP JUMPDEST SWAP3 SWAP2 POP POP JUMP JUMPDEST PUSH1 0x0 PUSH1 0x20 DUP3 DUP5 SUB SLT ISZERO PUSH2 0xEBC JUMPI PUSH2 0xEBB PUSH2 0x159F JUMP JUMPDEST JUMPDEST PUSH1 0x0 DUP3 ADD CALLDATALOAD PUSH8 0xFFFFFFFFFFFFFFFF DUP2 GT ISZERO PUSH2 0xEDA JUMPI PUSH2 0xED9 PUSH2 0x159A JUMP JUMPDEST JUMPDEST PUSH2 0xEE6 DUP5 DUP3 DUP6 ADD PUSH2 0xE63 JUMP JUMPDEST SWAP2 POP POP SWAP3 SWAP2 POP POP JUMP JUMPDEST PUSH1 0x0 PUSH1 0x20 DUP3 DUP5 SUB SLT ISZERO PUSH2 0xF05 JUMPI PUSH2 0xF04 PUSH2 0x159F JUMP JUMPDEST JUMPDEST PUSH1 0x0 PUSH2 0xF13 DUP5 DUP3 DUP6 ADD PUSH2 0xE91 JUMP JUMPDEST SWAP2 POP POP SWAP3 SWAP2 POP POP JUMP JUMPDEST PUSH1 0x0 DUP1 PUSH1 0x40 DUP4 DUP6 SUB SLT ISZERO PUSH2 0xF33 JUMPI PUSH2 0xF32 PUSH2 0x159F JUMP JUMPDEST JUMPDEST PUSH1 0x0 PUSH2 0xF41 DUP6 DUP3 DUP7 ADD PUSH2 0xE91 JUMP JUMPDEST SWAP3 POP POP PUSH1 0x20 PUSH2 0xF52 DUP6 DUP3 DUP7 ADD PUSH2 0xE91 JUMP JUMPDEST SWAP2 POP POP SWAP3 POP SWAP3 SWAP1 POP JUMP JUMPDEST PUSH1 0x0 DUP1 PUSH1 0x0 PUSH1 0x60 DUP5 DUP7 SUB SLT ISZERO PUSH2 0xF75 JUMPI PUSH2 0xF74 PUSH2 0x159F JUMP JUMPDEST JUMPDEST PUSH1 0x0 PUSH2 0xF83 DUP7 DUP3 DUP8 ADD PUSH2 0xE91 JUMP JUMPDEST SWAP4 POP POP PUSH1 0x20 PUSH2 0xF94 DUP7 DUP3 DUP8 ADD PUSH2 0xE91 JUMP JUMPDEST SWAP3 POP POP PUSH1 0x40 PUSH2 0xFA5 DUP7 DUP3 DUP8 ADD PUSH2 0xE91 JUMP JUMPDEST SWAP2 POP POP SWAP3 POP SWAP3 POP SWAP3 JUMP JUMPDEST PUSH2 0xFB8 DUP2 PUSH2 0x13A6 JUMP JUMPDEST DUP3 MSTORE POP POP JUMP JUMPDEST PUSH1 0x0 PUSH2 0xFC9 DUP3 PUSH2 0x1379 JUMP JUMPDEST PUSH2 0xFD3 DUP2 DUP6 PUSH2 0x1384 JUMP JUMPDEST SWAP4 POP PUSH2 0xFE3 DUP2 DUP6 PUSH1 0x20 DUP7 ADD PUSH2 0x13CB JUMP JUMPDEST PUSH2 0xFEC DUP2 PUSH2 0x15A4 JUMP JUMPDEST DUP5 ADD SWAP2 POP POP SWAP3 SWAP2 POP POP JUMP JUMPDEST PUSH1 0x0 PUSH2 0x1002 DUP3 PUSH2 0x1379 JUMP JUMPDEST PUSH2 0x100C DUP2 DUP6 PUSH2 0x1395 JUMP JUMPDEST SWAP4 POP PUSH2 0x101C DUP2 DUP6 PUSH1 0x20 DUP7 ADD PUSH2 0x13CB JUMP JUMPDEST PUSH2 0x1025 DUP2 PUSH2 0x15A4 JUMP JUMPDEST DUP5 ADD SWAP2 POP POP SWAP3 SWAP2 POP POP JUMP JUMPDEST PUSH1 0x0 PUSH2 0x103D PUSH1 0x28 DUP4 PUSH2 0x1395 JUMP JUMPDEST SWAP2 POP PUSH2 0x1048 DUP3 PUSH2 0x15B5 JUMP JUMPDEST PUSH1 0x40 DUP3 ADD SWAP1 POP SWAP2 SWAP1 POP JUMP JUMPDEST PUSH1 0x0 PUSH2 0x1060 PUSH1 0x1D DUP4 PUSH2 0x1395 JUMP JUMPDEST SWAP2 POP PUSH2 0x106B DUP3 PUSH2 0x1604 JUMP JUMPDEST PUSH1 0x20 DUP3 ADD SWAP1 POP SWAP2 SWAP1 POP JUMP JUMPDEST PUSH1 0x0 PUSH2 0x1083 PUSH1 0x2B DUP4 PUSH2 0x1395 JUMP JUMPDEST SWAP2 POP PUSH2 0x108E DUP3 PUSH2 0x162D JUMP JUMPDEST PUSH1 0x40 DUP3 ADD SWAP1 POP SWAP2 SWAP1 POP JUMP JUMPDEST PUSH1 0x0 PUSH2 0x10A6 PUSH1 0x2E DUP4 PUSH2 0x1395 JUMP JUMPDEST SWAP2 POP PUSH2 0x10B1 DUP3 PUSH2 0x167C JUMP JUMPDEST PUSH1 0x40 DUP3 ADD SWAP1 POP SWAP2 SWAP1 POP JUMP JUMPDEST PUSH1 0x0 PUSH2 0x10C9 PUSH1 0x17 DUP4 PUSH2 0x1395 JUMP JUMPDEST SWAP2 POP PUSH2 0x10D4 DUP3 PUSH2 0x16CB JUMP JUMPDEST PUSH1 0x20 DUP3 ADD SWAP1 POP SWAP2 SWAP1 POP JUMP JUMPDEST PUSH1 0x0 PUSH2 0x10EC PUSH1 0x24 DUP4 PUSH2 0x1395 JUMP JUMPDEST SWAP2 POP PUSH2 0x10F7 DUP3 PUSH2 0x16F4 JUMP JUMPDEST PUSH1 0x40 DUP3 ADD SWAP1 POP SWAP2 SWAP1 POP JUMP JUMPDEST PUSH1 0x0 PUSH1 0xA0 DUP4 ADD PUSH1 0x0 DUP4 ADD MLOAD PUSH2 0x111A PUSH1 0x0 DUP7 ADD DUP3 PUSH2 0x11EE JUMP JUMPDEST POP PUSH1 0x20 DUP4 ADD MLOAD PUSH2 0x112D PUSH1 0x20 DUP7 ADD DUP3 PUSH2 0x11EE JUMP JUMPDEST POP PUSH1 0x40 DUP4 ADD MLOAD DUP5 DUP3 SUB PUSH1 0x40 DUP7 ADD MSTORE PUSH2 0x1145 DUP3 DUP3 PUSH2 0xFBE JUMP JUMPDEST SWAP2 POP POP PUSH1 0x60 DUP4 ADD MLOAD PUSH2 0x115A PUSH1 0x60 DUP7 ADD DUP3 PUSH2 0x11EE JUMP JUMPDEST POP PUSH1 0x80 DUP4 ADD MLOAD PUSH2 0x116D PUSH1 0x80 DUP7 ADD DUP3 PUSH2 0xFAF JUMP JUMPDEST POP DUP1 SWAP2 POP POP SWAP3 SWAP2 POP POP JUMP JUMPDEST PUSH1 0x0 PUSH1 0xA0 DUP4 ADD PUSH1 0x0 DUP4 ADD MLOAD DUP5 DUP3 SUB PUSH1 0x0 DUP7 ADD MSTORE PUSH2 0x1195 DUP3 DUP3 PUSH2 0xFBE JUMP JUMPDEST SWAP2 POP POP PUSH1 0x20 DUP4 ADD MLOAD PUSH2 0x11AA PUSH1 0x20 DUP7 ADD DUP3 PUSH2 0x11EE JUMP JUMPDEST POP PUSH1 0x40 DUP4 ADD MLOAD PUSH2 0x11BD PUSH1 0x40 DUP7 ADD DUP3 PUSH2 0xFAF JUMP JUMPDEST POP PUSH1 0x60 DUP4 ADD MLOAD PUSH2 0x11D0 PUSH1 0x60 DUP7 ADD DUP3 PUSH2 0xFAF JUMP JUMPDEST POP PUSH1 0x80 DUP4 ADD MLOAD PUSH2 0x11E3 PUSH1 0x80 DUP7 ADD DUP3 PUSH2 0xFAF JUMP JUMPDEST POP DUP1 SWAP2 POP POP SWAP3 SWAP2 POP POP JUMP JUMPDEST PUSH2 0x11F7 DUP2 PUSH2 0x13B2 JUMP JUMPDEST DUP3 MSTORE POP POP JUMP JUMPDEST PUSH1 0x0 PUSH1 0x20 DUP3 ADD SWAP1 POP DUP2 DUP2 SUB PUSH1 0x0 DUP4 ADD MSTORE PUSH2 0x1217 DUP2 DUP5 PUSH2 0xFF7 JUMP JUMPDEST SWAP1 POP SWAP3 SWAP2 POP POP JUMP JUMPDEST PUSH1 0x0 PUSH1 0x20 DUP3 ADD SWAP1 POP DUP2 DUP2 SUB PUSH1 0x0 DUP4 ADD MSTORE PUSH2 0x1238 DUP2 PUSH2 0x1030 JUMP JUMPDEST SWAP1 POP SWAP2 SWAP1 POP JUMP JUMPDEST PUSH1 0x0 PUSH1 0x20 DUP3 ADD SWAP1 POP DUP2 DUP2 SUB PUSH1 0x0 DUP4 ADD MSTORE PUSH2 0x1258 DUP2 PUSH2 0x1053 JUMP JUMPDEST SWAP1 POP SWAP2 SWAP1 POP JUMP JUMPDEST PUSH1 0x0 PUSH1 0x20 DUP3 ADD SWAP1 POP DUP2 DUP2 SUB PUSH1 0x0 DUP4 ADD MSTORE PUSH2 0x1278 DUP2 PUSH2 0x1076 JUMP JUMPDEST SWAP1 POP SWAP2 SWAP1 POP JUMP JUMPDEST PUSH1 0x0 PUSH1 0x20 DUP3 ADD SWAP1 POP DUP2 DUP2 SUB PUSH1 0x0 DUP4 ADD MSTORE PUSH2 0x1298 DUP2 PUSH2 0x1099 JUMP JUMPDEST SWAP1 POP SWAP2 SWAP1 POP JUMP JUMPDEST PUSH1 0x0 PUSH1 0x20 DUP3 ADD SWAP1 POP DUP2 DUP2 SUB PUSH1 0x0 DUP4 ADD MSTORE PUSH2 0x12B8 DUP2 PUSH2 0x10BC JUMP JUMPDEST SWAP1 POP SWAP2 SWAP1 POP JUMP JUMPDEST PUSH1 0x0 PUSH1 0x20 DUP3 ADD SWAP1 POP DUP2 DUP2 SUB PUSH1 0x0 DUP4 ADD MSTORE PUSH2 0x12D8 DUP2 PUSH2 0x10DF JUMP JUMPDEST SWAP1 POP SWAP2 SWAP1 POP JUMP JUMPDEST PUSH1 0x0 PUSH1 0x20 DUP3 ADD SWAP1 POP DUP2 DUP2 SUB PUSH1 0x0 DUP4 ADD MSTORE PUSH2 0x12F9 DUP2 DUP5 PUSH2 0x1102 JUMP JUMPDEST SWAP1 POP SWAP3 SWAP2 POP POP JUMP JUMPDEST PUSH1 0x0 PUSH1 0x20 DUP3 ADD SWAP1 POP DUP2 DUP2 SUB PUSH1 0x0 DUP4 ADD MSTORE PUSH2 0x131B DUP2 DUP5 PUSH2 0x1178 JUMP JUMPDEST SWAP1 POP SWAP3 SWAP2 POP POP JUMP JUMPDEST PUSH1 0x0 PUSH2 0x132D PUSH2 0x133E JUMP JUMPDEST SWAP1 POP PUSH2 0x1339 DUP3 DUP3 PUSH2 0x145A JUMP JUMPDEST SWAP2 SWAP1 POP JUMP JUMPDEST PUSH1 0x0 PUSH1 0x40 MLOAD SWAP1 POP SWAP1 JUMP JUMPDEST PUSH1 0x0 PUSH8 0xFFFFFFFFFFFFFFFF DUP3 GT ISZERO PUSH2 0x1363 JUMPI PUSH2 0x1362 PUSH2 0x1561 JUMP JUMPDEST JUMPDEST PUSH2 0x136C DUP3 PUSH2 0x15A4 JUMP JUMPDEST SWAP1 POP PUSH1 0x20 DUP2 ADD SWAP1 POP SWAP2 SWAP1 POP JUMP JUMPDEST PUSH1 0x0 DUP2 MLOAD SWAP1 POP SWAP2 SWAP1 POP JUMP JUMPDEST PUSH1 0x0 DUP3 DUP3 MSTORE PUSH1 0x20 DUP3 ADD SWAP1 POP SWAP3 SWAP2 POP POP JUMP JUMPDEST PUSH1 0x0 DUP3 DUP3 MSTORE PUSH1 0x20 DUP3 ADD SWAP1 POP SWAP3 SWAP2 POP POP JUMP JUMPDEST PUSH1 0x0 DUP2 ISZERO ISZERO SWAP1 POP SWAP2 SWAP1 POP JUMP JUMPDEST PUSH1 0x0 DUP2 SWAP1 POP SWAP2 SWAP1 POP JUMP JUMPDEST DUP3 DUP2 DUP4 CALLDATACOPY PUSH1 0x0 DUP4 DUP4 ADD MSTORE POP POP POP JUMP JUMPDEST PUSH1 0x0 JUMPDEST DUP4 DUP2 LT ISZERO PUSH2 0x13E9 JUMPI DUP1 DUP3 ADD MLOAD DUP2 DUP5 ADD MSTORE PUSH1 0x20 DUP2 ADD SWAP1 POP PUSH2 0x13CE JUMP JUMPDEST DUP4 DUP2 GT ISZERO PUSH2 0x13F8 JUMPI PUSH1 0x0 DUP5 DUP5 ADD MSTORE JUMPDEST POP POP POP POP JUMP JUMPDEST PUSH1 0x0 PUSH2 0x1409 DUP3 PUSH2 0x13B2 JUMP JUMPDEST SWAP2 POP PUSH1 0x0 DUP3 EQ ISZERO PUSH2 0x141D JUMPI PUSH2 0x141C PUSH2 0x14D4 JUMP JUMPDEST JUMPDEST PUSH1 0x1 DUP3 SUB SWAP1 POP SWAP2 SWAP1 POP JUMP JUMPDEST PUSH1 0x0 PUSH1 0x2 DUP3 DIV SWAP1 POP PUSH1 0x1 DUP3 AND DUP1 PUSH2 0x1440 JUMPI PUSH1 0x7F DUP3 AND SWAP2 POP JUMPDEST PUSH1 0x20 DUP3 LT DUP2 EQ ISZERO PUSH2 0x1454 JUMPI PUSH2 0x1453 PUSH2 0x1503 JUMP JUMPDEST JUMPDEST POP SWAP2 SWAP1 POP JUMP JUMPDEST PUSH2 0x1463 DUP3 PUSH2 0x15A4 JUMP JUMPDEST DUP2 ADD DUP2 DUP2 LT PUSH8 0xFFFFFFFFFFFFFFFF DUP3 GT OR ISZERO PUSH2 0x1482 JUMPI PUSH2 0x1481 PUSH2 0x1561 JUMP JUMPDEST JUMPDEST DUP1 PUSH1 0x40 MSTORE POP POP POP JUMP JUMPDEST PUSH1 0x0 PUSH2 0x1496 DUP3 PUSH2 0x13B2 JUMP JUMPDEST SWAP2 POP PUSH32 0xFFFFFFFFFFFFFFFFFFFFFFFFFFFFFFFFFFFFFFFFFFFFFFFFFFFFFFFFFFFFFFFF DUP3 EQ ISZERO PUSH2 0x14C9 JUMPI PUSH2 0x14C8 PUSH2 0x14D4 JUMP JUMPDEST JUMPDEST PUSH1 0x1 DUP3 ADD SWAP1 POP SWAP2 SWAP1 POP JUMP JUMPDEST PUSH32 0x4E487B7100000000000000000000000000000000000000000000000000000000 PUSH1 0x0 MSTORE PUSH1 0x11 PUSH1 0x4 MSTORE PUSH1 0x24 PUSH1 0x0 REVERT JUMPDEST PUSH32 0x4E487B7100000000000000000000000000000000000000000000000000000000 PUSH1 0x0 MSTORE PUSH1 0x22 PUSH1 0x4 MSTORE PUSH1 0x24 PUSH1 0x0 REVERT JUMPDEST PUSH32 0x4E487B7100000000000000000000000000000000000000000000000000000000 PUSH1 0x0 MSTORE PUSH1 0x32 PUSH1 0x4 MSTORE PUSH1 0x24 PUSH1 0x0 REVERT JUMPDEST PUSH32 0x4E487B7100000000000000000000000000000000000000000000000000000000 PUSH1 0x0 MSTORE PUSH1 0x41 PUSH1 0x4 MSTORE PUSH1 0x24 PUSH1 0x0 REVERT JUMPDEST PUSH1 0x0 DUP1 REVERT JUMPDEST PUSH1 0x0 DUP1 REVERT JUMPDEST PUSH1 0x0 DUP1 REVERT JUMPDEST PUSH1 0x0 DUP1 REVERT JUMPDEST PUSH1 0x0 PUSH1 0x1F NOT PUSH1 0x1F DUP4 ADD AND SWAP1 POP SWAP2 SWAP1 POP JUMP JUMPDEST PUSH32 0x436F77626F792068617320616C72656164792074616B656E207475726E207468 PUSH1 0x0 DUP3 ADD MSTORE PUSH32 0x697320726F756E64000000000000000000000000000000000000000000000000 PUSH1 0x20 DUP3 ADD MSTORE POP JUMP JUMPDEST PUSH32 0x54686520676976656E206964206973206F7574206F6620626F756E6473000000 PUSH1 0x0 DUP3 ADD MSTORE POP JUMP JUMPDEST PUSH32 0x54686520676976656E20636F77626F79206973206E6F7420696E207468652067 PUSH1 0x0 DUP3 ADD MSTORE PUSH32 0x6976656E20626174746C65000000000000000000000000000000000000000000 PUSH1 0x20 DUP3 ADD MSTORE POP JUMP JUMPDEST PUSH32 0x5468652067616D65206973206F76657220796F757220636F77626F792063616E PUSH1 0x0 DUP3 ADD MSTORE PUSH32 0x27742074616B65207475726E732E000000000000000000000000000000000000 PUSH1 0x20 DUP3 ADD MSTORE POP JUMP JUMPDEST PUSH32 0x5468657265206973206E6F2077696E6E6572207965742E000000000000000000 PUSH1 0x0 DUP3 ADD MSTORE POP JUMP JUMPDEST PUSH32 0x596F757220636F77626F792063616E27742073686F6F7420776974686F757420 PUSH1 0x0 DUP3 ADD MSTORE PUSH32 0x616D6D6F00000000000000000000000000000000000000000000000000000000 PUSH1 0x20 DUP3 ADD MSTORE POP JUMP JUMPDEST PUSH2 0x174C DUP2 PUSH2 0x13B2 JUMP JUMPDEST DUP2 EQ PUSH2 0x1757 JUMPI PUSH1 0x0 DUP1 REVERT JUMPDEST POP JUMP INVALID LOG2 PUSH5 0x6970667358 0x22 SLT KECCAK256 PUSH24 0x4BFABB962B5A9ACC34513EC08AF541561B45B0A8E5A8CD54 DUP1 DUP8 0xA5 TIMESTAMP SWAP12 SUB 0xB7 PUSH5 0x736F6C6343 STOP ADDMOD SMOD STOP CALLER "
    },
    "gasEstimates": {
      "creation": {
        "codeDepositCost": "1206400",
        "executionCost": "1254",
        "totalCost": "1207654"
      },
      "external": {
        "createBattle(uint256,uint256)": "infinite",
        "createCowboy(string)": "infinite",
        "getBattle(uint256)": "infinite",
        "getCowboy(uint256)": "infinite",
        "getWinner(uint256)": "infinite",
        "takeTurn(uint256,uint256,uint256)": "infinite"
      },
      "internal": {
        "dodge(struct BattleHandler.Cowboy storage pointer)": "48657",
        "finishTurn(struct BattleHandler.Battle storage pointer)": "infinite",
        "reload(struct BattleHandler.Cowboy storage pointer)": "73023",
        "shoot(struct BattleHandler.Cowboy storage pointer)": "infinite"
      }
    },
    "methodIdentifiers": {
      "createBattle(uint256,uint256)": "df73c49f",
      "createCowboy(string)": "5f4a0b85",
      "getBattle(uint256)": "6dd0ce7a",
      "getCowboy(uint256)": "dc118019",
      "getWinner(uint256)": "4129b2c9",
      "takeTurn(uint256,uint256,uint256)": "7dbef372"
    }
  },
  "storageLayout": {
    "storage": [
      {
        "astId": 28,
        "contract": "BattleHandler.sol:BattleHandler",
        "label": "battleList",
        "offset": 0,
        "slot": "0",
        "type": "t_array(t_struct(Battle)13_storage)dyn_storage"
      },
      {
        "astId": 32,
        "contract": "BattleHandler.sol:BattleHandler",
        "label": "cowboyList",
        "offset": 0,
        "slot": "1",
        "type": "t_array(t_struct(Cowboy)24_storage)dyn_storage"
      }
    ],
    "types": {
      "t_array(t_struct(Battle)13_storage)dyn_storage": {
        "base": "t_struct(Battle)13_storage",
        "encoding": "dynamic_array",
        "label": "struct BattleHandler.Battle[]",
        "numberOfBytes": "32"
      },
      "t_array(t_struct(Cowboy)24_storage)dyn_storage": {
        "base": "t_struct(Cowboy)24_storage",
        "encoding": "dynamic_array",
        "label": "struct BattleHandler.Cowboy[]",
        "numberOfBytes": "32"
      },
      "t_bool": {
        "encoding": "inplace",
        "label": "bool",
        "numberOfBytes": "1"
      },
      "t_string_storage": {
        "encoding": "bytes",
        "label": "string",
        "numberOfBytes": "32"
      },
      "t_struct(Battle)13_storage": {
        "encoding": "inplace",
        "label": "struct BattleHandler.Battle",
        "members": [
          {
            "astId": 4,
            "contract": "BattleHandler.sol:BattleHandler",
            "label": "cowboyId0",
            "offset": 0,
            "slot": "0",
            "type": "t_uint256"
          },
          {
            "astId": 6,
            "contract": "BattleHandler.sol:BattleHandler",
            "label": "cowboyId1",
            "offset": 0,
            "slot": "1",
            "type": "t_uint256"
          },
          {
            "astId": 8,
            "contract": "BattleHandler.sol:BattleHandler",
            "label": "winner",
            "offset": 0,
            "slot": "2",
            "type": "t_string_storage"
          },
          {
            "astId": 10,
            "contract": "BattleHandler.sol:BattleHandler",
            "label": "turnCounter",
            "offset": 0,
            "slot": "3",
            "type": "t_uint256"
          },
          {
            "astId": 12,
            "contract": "BattleHandler.sol:BattleHandler",
            "label": "gameOver",
            "offset": 0,
            "slot": "4",
            "type": "t_bool"
          }
        ],
        "numberOfBytes": "160"
      },
      "t_struct(Cowboy)24_storage": {
        "encoding": "inplace",
        "label": "struct BattleHandler.Cowboy",
        "members": [
          {
            "astId": 15,
            "contract": "BattleHandler.sol:BattleHandler",
            "label": "name",
            "offset": 0,
            "slot": "0",
            "type": "t_string_storage"
          },
          {
            "astId": 17,
            "contract": "BattleHandler.sol:BattleHandler",
            "label": "shots",
            "offset": 0,
            "slot": "1",
            "type": "t_uint256"
          },
          {
            "astId": 19,
            "contract": "BattleHandler.sol:BattleHandler",
            "label": "takenTurn",
            "offset": 0,
            "slot": "2",
            "type": "t_bool"
          },
          {
            "astId": 21,
            "contract": "BattleHandler.sol:BattleHandler",
            "label": "reloading",
            "offset": 1,
            "slot": "2",
            "type": "t_bool"
          },
          {
            "astId": 23,
            "contract": "BattleHandler.sol:BattleHandler",
            "label": "shooting",
            "offset": 2,
            "slot": "2",
            "type": "t_bool"
          }
        ],
        "numberOfBytes": "96"
      },
      "t_uint256": {
        "encoding": "inplace",
        "label": "uint256",
        "numberOfBytes": "32"
      }
    }
  },
  "userdoc": {
    "kind": "user",
    "methods": {},
    "version": 1
  }
}