{
  "abi": [
    {
      "inputs": [],
      "stateMutability": "nonpayable",
      "type": "constructor"
    },
    {
      "inputs": [
        {
          "internalType": "uint256",
          "name": "cowboyId1",
          "type": "uint256"
        },
        {
          "internalType": "uint256",
          "name": "cowboyId2",
          "type": "uint256"
        }
      ],
      "name": "createBattle",
      "outputs": [],
      "stateMutability": "nonpayable",
      "type": "function"
    },
    {
      "inputs": [
        {
          "internalType": "string",
          "name": "_name",
          "type": "string"
        }
      ],
      "name": "createCowboy",
      "outputs": [],
      "stateMutability": "nonpayable",
      "type": "function"
    },
    {
      "inputs": [
        {
          "internalType": "uint256",
          "name": "battleId",
          "type": "uint256"
        }
      ],
      "name": "getBattle",
      "outputs": [
        {
          "components": [
            {
              "internalType": "uint256",
              "name": "cowboyId0",
              "type": "uint256"
            },
            {
              "internalType": "uint256",
              "name": "cowboyId1",
              "type": "uint256"
            },
            {
              "internalType": "string",
              "name": "winner",
              "type": "string"
            },
            {
              "internalType": "uint256",
              "name": "turnCounter",
              "type": "uint256"
            },
            {
              "internalType": "bool",
              "name": "gameOver",
              "type": "bool"
            }
          ],
          "internalType": "struct BattleHandler.Battle",
          "name": "",
          "type": "tuple"
        }
      ],
      "stateMutability": "view",
      "type": "function"
    },
    {
      "inputs": [
        {
          "internalType": "uint256",
          "name": "cowboyId",
          "type": "uint256"
        }
      ],
      "name": "getCowboy",
      "outputs": [
        {
          "components": [
            {
              "internalType": "string",
              "name": "name",
              "type": "string"
            },
            {
              "internalType": "uint256",
              "name": "shots",
              "type": "uint256"
            },
            {
              "internalType": "bool",
              "name": "takenTurn",
              "type": "bool"
            },
            {
              "internalType": "bool",
              "name": "reloading",
              "type": "bool"
            },
            {
              "internalType": "bool",
              "name": "shooting",
              "type": "bool"
            }
          ],
          "internalType": "struct BattleHandler.Cowboy",
          "name": "",
          "type": "tuple"
        }
      ],
      "stateMutability": "view",
      "type": "function"
    },
    {
      "inputs": [
        {
          "internalType": "uint256",
          "name": "battleId",
          "type": "uint256"
        }
      ],
      "name": "getWinner",
      "outputs": [
        {
          "internalType": "string",
          "name": "",
          "type": "string"
        }
      ],
      "stateMutability": "view",
      "type": "function"
    },
    {
      "inputs": [
        {
          "internalType": "uint256",
          "name": "command",
          "type": "uint256"
        },
        {
          "internalType": "uint256",
          "name": "cowboyId",
          "type": "uint256"
        },
        {
          "internalType": "uint256",
          "name": "battleId",
          "type": "uint256"
        }
      ],
      "name": "takeTurn",
      "outputs": [],
      "stateMutability": "nonpayable",
      "type": "function"
    }
  ],
  "devdoc": {
    "author": "mattauer@umich.edu",
    "kind": "dev",
    "methods": {
      "createBattle(uint256,uint256)": {
        "details": "creates a new battle",
        "params": {
          "cowboyId1": "id of cowboy1",
          "cowboyId2": "id of cowboy2"
        }
      },
      "createCowboy(string)": {
        "details": "creates a new cowboy",
        "params": {
          "_name": "name of the new cowboy*"
        }
      },
      "getBattle(uint256)": {
        "details": "returns the battle of the give battle id",
        "params": {
          "battleId": "id of the battle to return"
        },
        "returns": {
          "_0": "the battle of the given id*"
        }
      },
      "getCowboy(uint256)": {
        "details": "returns the cowboy of the given id",
        "params": {
          "cowboyId": "id of the cowboy to return"
        },
        "returns": {
          "_0": "the cowboy of the given id"
        }
      },
      "getWinner(uint256)": {
        "details": "returns the winning name if the battle is over",
        "params": {
          "battleId": "id of the battle to get the winner"
        },
        "returns": {
          "_0": "returns the name of the winner of the battle*"
        }
      },
      "takeTurn(uint256,uint256,uint256)": {
        "details": "takes turn for a cowboy in a battle",
        "params": {
          "battleId": "specifies the battle for this turn",
          "command": "what action the cowboy takes",
          "cowboyId": "specifies which cowboy to command"
        }
      }
    },
    "title": "handles cowboy battling",
    "version": 1
  },
  "evm": {
    "assembly": "    /* \"BattleHandler.sol\":142:5437  contract BattleHandler {\r... */\n  mstore(0x40, 0x80)\n    /* \"BattleHandler.sol\":544:560  constructor() {} */\n  callvalue\n  dup1\n  iszero\n  tag_1\n  jumpi\n  0x00\n  dup1\n  revert\ntag_1:\n  pop\n    /* \"BattleHandler.sol\":142:5437  contract BattleHandler {\r... */\n  dataSize(sub_0)\n  dup1\n  dataOffset(sub_0)\n  0x00\n  codecopy\n  0x00\n  return\nstop\n\nsub_0: assembly {\n        /* \"BattleHandler.sol\":142:5437  contract BattleHandler {\r... */\n      mstore(0x40, 0x80)\n      callvalue\n      dup1\n      iszero\n      tag_1\n      jumpi\n      0x00\n      dup1\n      revert\n    tag_1:\n      pop\n      jumpi(tag_2, lt(calldatasize, 0x04))\n      shr(0xe0, calldataload(0x00))\n      dup1\n      0x4129b2c9\n      eq\n      tag_3\n      jumpi\n      dup1\n      0x5f4a0b85\n      eq\n      tag_4\n      jumpi\n      dup1\n      0x6dd0ce7a\n      eq\n      tag_5\n      jumpi\n      dup1\n      0x7dbef372\n      eq\n      tag_6\n      jumpi\n      dup1\n      0xdc118019\n      eq\n      tag_7\n      jumpi\n      dup1\n      0xdf73c49f\n      eq\n      tag_8\n      jumpi\n    tag_2:\n      0x00\n      dup1\n      revert\n        /* \"BattleHandler.sol\":1219:1444  function getWinner(uint battleId) public view returns(string memory) {\r... */\n    tag_3:\n      tag_9\n      0x04\n      dup1\n      calldatasize\n      sub\n      dup2\n      add\n      swap1\n      tag_10\n      swap2\n      swap1\n      tag_11\n      jump\t// in\n    tag_10:\n      tag_12\n      jump\t// in\n    tag_9:\n      mload(0x40)\n      tag_13\n      swap2\n      swap1\n      tag_14\n      jump\t// in\n    tag_13:\n      mload(0x40)\n      dup1\n      swap2\n      sub\n      swap1\n      return\n        /* \"BattleHandler.sol\":2169:2292  function createCowboy(string memory _name) public {\r... */\n    tag_4:\n      tag_15\n      0x04\n      dup1\n      calldatasize\n      sub\n      dup2\n      add\n      swap1\n      tag_16\n      swap2\n      swap1\n      tag_17\n      jump\t// in\n    tag_16:\n      tag_18\n      jump\t// in\n    tag_15:\n      stop\n        /* \"BattleHandler.sol\":1615:1757  function getBattle(uint battleId) public battleIdInBounds(battleId) view returns(Battle memory) {\r... */\n    tag_5:\n      tag_19\n      0x04\n      dup1\n      calldatasize\n      sub\n      dup2\n      add\n      swap1\n      tag_20\n      swap2\n      swap1\n      tag_11\n      jump\t// in\n    tag_20:\n      tag_21\n      jump\t// in\n    tag_19:\n      mload(0x40)\n      tag_22\n      swap2\n      swap1\n      tag_23\n      jump\t// in\n    tag_22:\n      mload(0x40)\n      dup1\n      swap2\n      sub\n      swap1\n      return\n        /* \"BattleHandler.sol\":2861:3835  function takeTurn(uint command, uint cowboyId, uint battleId) public cowboyIdInBounds(cowboyId) battleIdInBounds(battleId) {\r... */\n    tag_6:\n      tag_24\n      0x04\n      dup1\n      calldatasize\n      sub\n      dup2\n      add\n      swap1\n      tag_25\n      swap2\n      swap1\n      tag_26\n      jump\t// in\n    tag_25:\n      tag_27\n      jump\t// in\n    tag_24:\n      stop\n        /* \"BattleHandler.sol\":1923:2067  function getCowboy(uint cowboyId) public cowboyIdInBounds(cowboyId) view returns(Cowboy memory) {\r... */\n    tag_7:\n      tag_28\n      0x04\n      dup1\n      calldatasize\n      sub\n      dup2\n      add\n      swap1\n      tag_29\n      swap2\n      swap1\n      tag_11\n      jump\t// in\n    tag_29:\n      tag_30\n      jump\t// in\n    tag_28:\n      mload(0x40)\n      tag_31\n      swap2\n      swap1\n      tag_32\n      jump\t// in\n    tag_31:\n      mload(0x40)\n      dup1\n      swap2\n      sub\n      swap1\n      return\n        /* \"BattleHandler.sol\":2427:2622  function createBattle(uint cowboyId1, uint cowboyId2) public cowboyIdInBounds(cowboyId1) cowboyIdInBounds(cowboyId2) {\r... */\n    tag_8:\n      tag_33\n      0x04\n      dup1\n      calldatasize\n      sub\n      dup2\n      add\n      swap1\n      tag_34\n      swap2\n      swap1\n      tag_35\n      jump\t// in\n    tag_34:\n      tag_36\n      jump\t// in\n    tag_33:\n      stop\n        /* \"BattleHandler.sol\":1219:1444  function getWinner(uint battleId) public view returns(string memory) {\r... */\n    tag_12:\n        /* \"BattleHandler.sol\":1273:1286  string memory */\n      0x60\n        /* \"BattleHandler.sol\":1299:1320  Battle storage battle */\n      0x00\n        /* \"BattleHandler.sol\":1323:1333  battleList */\n      dup1\n        /* \"BattleHandler.sol\":1334:1342  battleId */\n      dup4\n        /* \"BattleHandler.sol\":1323:1343  battleList[battleId] */\n      dup2\n      sload\n      dup2\n      lt\n      tag_38\n      jumpi\n      tag_39\n      tag_40\n      jump\t// in\n    tag_39:\n    tag_38:\n      swap1\n      0x00\n      mstore\n      keccak256(0x00, 0x20)\n      swap1\n      0x05\n      mul\n      add\n        /* \"BattleHandler.sol\":1299:1343  Battle storage battle = battleList[battleId] */\n      swap1\n      pop\n        /* \"BattleHandler.sol\":1362:1368  battle */\n      dup1\n        /* \"BattleHandler.sol\":1362:1377  battle.gameOver */\n      0x04\n      add\n      0x00\n      swap1\n      sload\n      swap1\n      0x0100\n      exp\n      swap1\n      div\n      0xff\n      and\n        /* \"BattleHandler.sol\":1354:1405  require(battle.gameOver, \"There is no winner yet.\") */\n      tag_42\n      jumpi\n      mload(0x40)\n      0x08c379a000000000000000000000000000000000000000000000000000000000\n      dup2\n      mstore\n      0x04\n      add\n      tag_43\n      swap1\n      tag_44\n      jump\t// in\n    tag_43:\n      mload(0x40)\n      dup1\n      swap2\n      sub\n      swap1\n      revert\n    tag_42:\n        /* \"BattleHandler.sol\":1423:1429  battle */\n      dup1\n        /* \"BattleHandler.sol\":1423:1436  battle.winner */\n      0x02\n      add\n        /* \"BattleHandler.sol\":1416:1436  return battle.winner */\n      dup1\n      sload\n      tag_45\n      swap1\n      tag_46\n      jump\t// in\n    tag_45:\n      dup1\n      0x1f\n      add\n      0x20\n      dup1\n      swap2\n      div\n      mul\n      0x20\n      add\n      mload(0x40)\n      swap1\n      dup2\n      add\n      0x40\n      mstore\n      dup1\n      swap3\n      swap2\n      swap1\n      dup2\n      dup2\n      mstore\n      0x20\n      add\n      dup3\n      dup1\n      sload\n      tag_47\n      swap1\n      tag_46\n      jump\t// in\n    tag_47:\n      dup1\n      iszero\n      tag_48\n      jumpi\n      dup1\n      0x1f\n      lt\n      tag_49\n      jumpi\n      0x0100\n      dup1\n      dup4\n      sload\n      div\n      mul\n      dup4\n      mstore\n      swap2\n      0x20\n      add\n      swap2\n      jump(tag_48)\n    tag_49:\n      dup3\n      add\n      swap2\n      swap1\n      0x00\n      mstore\n      keccak256(0x00, 0x20)\n      swap1\n    tag_50:\n      dup2\n      sload\n      dup2\n      mstore\n      swap1\n      0x01\n      add\n      swap1\n      0x20\n      add\n      dup1\n      dup4\n      gt\n      tag_50\n      jumpi\n      dup3\n      swap1\n      sub\n      0x1f\n      and\n      dup3\n      add\n      swap2\n    tag_48:\n      pop\n      pop\n      pop\n      pop\n      pop\n      swap2\n      pop\n      pop\n        /* \"BattleHandler.sol\":1219:1444  function getWinner(uint battleId) public view returns(string memory) {\r... */\n      swap2\n      swap1\n      pop\n      jump\t// out\n        /* \"BattleHandler.sol\":2169:2292  function createCowboy(string memory _name) public {\r... */\n    tag_18:\n        /* \"BattleHandler.sol\":2230:2240  cowboyList */\n      0x01\n        /* \"BattleHandler.sol\":2246:2283  Cowboy(_name, 0, false, false, false) */\n      mload(0x40)\n      dup1\n      0xa0\n      add\n      0x40\n      mstore\n      dup1\n        /* \"BattleHandler.sol\":2253:2258  _name */\n      dup4\n        /* \"BattleHandler.sol\":2246:2283  Cowboy(_name, 0, false, false, false) */\n      dup2\n      mstore\n      0x20\n      add\n        /* \"BattleHandler.sol\":2260:2261  0 */\n      0x00\n        /* \"BattleHandler.sol\":2246:2283  Cowboy(_name, 0, false, false, false) */\n      dup2\n      mstore\n      0x20\n      add\n        /* \"BattleHandler.sol\":2263:2268  false */\n      0x00\n        /* \"BattleHandler.sol\":2246:2283  Cowboy(_name, 0, false, false, false) */\n      iszero\n      iszero\n      dup2\n      mstore\n      0x20\n      add\n        /* \"BattleHandler.sol\":2270:2275  false */\n      0x00\n        /* \"BattleHandler.sol\":2246:2283  Cowboy(_name, 0, false, false, false) */\n      iszero\n      iszero\n      dup2\n      mstore\n      0x20\n      add\n        /* \"BattleHandler.sol\":2277:2282  false */\n      0x00\n        /* \"BattleHandler.sol\":2246:2283  Cowboy(_name, 0, false, false, false) */\n      iszero\n      iszero\n      dup2\n      mstore\n      pop\n        /* \"BattleHandler.sol\":2230:2284  cowboyList.push(Cowboy(_name, 0, false, false, false)) */\n      swap1\n      dup1\n      0x01\n      dup2\n      sload\n      add\n      dup1\n      dup3\n      sstore\n      dup1\n      swap2\n      pop\n      pop\n      0x01\n      swap1\n      sub\n      swap1\n      0x00\n      mstore\n      keccak256(0x00, 0x20)\n      swap1\n      0x03\n      mul\n      add\n      0x00\n      swap1\n      swap2\n      swap1\n      swap2\n      swap1\n      swap2\n      pop\n      0x00\n      dup3\n      add\n      mload\n      dup2\n      0x00\n      add\n      swap1\n      dup1\n      mload\n      swap1\n      0x20\n      add\n      swap1\n      tag_53\n      swap3\n      swap2\n      swap1\n      tag_54\n      jump\t// in\n    tag_53:\n      pop\n      0x20\n      dup3\n      add\n      mload\n      dup2\n      0x01\n      add\n      sstore\n      0x40\n      dup3\n      add\n      mload\n      dup2\n      0x02\n      add\n      exp(0x0100, 0x00)\n      dup2\n      sload\n      dup2\n      0xff\n      mul\n      not\n      and\n      swap1\n      dup4\n      iszero\n      iszero\n      mul\n      or\n      swap1\n      sstore\n      pop\n      0x60\n      dup3\n      add\n      mload\n      dup2\n      0x02\n      add\n      exp(0x0100, 0x01)\n      dup2\n      sload\n      dup2\n      0xff\n      mul\n      not\n      and\n      swap1\n      dup4\n      iszero\n      iszero\n      mul\n      or\n      swap1\n      sstore\n      pop\n      0x80\n      dup3\n      add\n      mload\n      dup2\n      0x02\n      add\n      exp(0x0100, 0x02)\n      dup2\n      sload\n      dup2\n      0xff\n      mul\n      not\n      and\n      swap1\n      dup4\n      iszero\n      iszero\n      mul\n      or\n      swap1\n      sstore\n      pop\n      pop\n      pop\n        /* \"BattleHandler.sol\":2169:2292  function createCowboy(string memory _name) public {\r... */\n      pop\n      jump\t// out\n        /* \"BattleHandler.sol\":1615:1757  function getBattle(uint battleId) public battleIdInBounds(battleId) view returns(Battle memory) {\r... */\n    tag_21:\n        /* \"BattleHandler.sol\":1696:1709  Battle memory */\n      tag_55\n      tag_56\n      jump\t// in\n    tag_55:\n        /* \"BattleHandler.sol\":1673:1681  battleId */\n      dup2\n        /* \"BattleHandler.sol\":943:953  battleList */\n      0x00\n        /* \"BattleHandler.sol\":943:960  battleList.length */\n      dup1\n      sload\n      swap1\n      pop\n        /* \"BattleHandler.sol\":932:940  battleId */\n      dup2\n        /* \"BattleHandler.sol\":932:960  battleId < battleList.length */\n      lt\n        /* \"BattleHandler.sol\":924:994  require(battleId < battleList.length, \"Given battle id out of bounds\") */\n      tag_58\n      jumpi\n      mload(0x40)\n      0x08c379a000000000000000000000000000000000000000000000000000000000\n      dup2\n      mstore\n      0x04\n      add\n      tag_59\n      swap1\n      tag_60\n      jump\t// in\n    tag_59:\n      mload(0x40)\n      dup1\n      swap2\n      sub\n      swap1\n      revert\n    tag_58:\n        /* \"BattleHandler.sol\":1729:1739  battleList */\n      0x00\n        /* \"BattleHandler.sol\":1740:1748  battleId */\n      dup4\n        /* \"BattleHandler.sol\":1729:1749  battleList[battleId] */\n      dup2\n      sload\n      dup2\n      lt\n      tag_62\n      jumpi\n      tag_63\n      tag_40\n      jump\t// in\n    tag_63:\n    tag_62:\n      swap1\n      0x00\n      mstore\n      keccak256(0x00, 0x20)\n      swap1\n      0x05\n      mul\n      add\n        /* \"BattleHandler.sol\":1722:1749  return battleList[battleId] */\n      mload(0x40)\n      dup1\n      0xa0\n      add\n      0x40\n      mstore\n      swap1\n      dup2\n      0x00\n      dup3\n      add\n      sload\n      dup2\n      mstore\n      0x20\n      add\n      0x01\n      dup3\n      add\n      sload\n      dup2\n      mstore\n      0x20\n      add\n      0x02\n      dup3\n      add\n      dup1\n      sload\n      tag_65\n      swap1\n      tag_46\n      jump\t// in\n    tag_65:\n      dup1\n      0x1f\n      add\n      0x20\n      dup1\n      swap2\n      div\n      mul\n      0x20\n      add\n      mload(0x40)\n      swap1\n      dup2\n      add\n      0x40\n      mstore\n      dup1\n      swap3\n      swap2\n      swap1\n      dup2\n      dup2\n      mstore\n      0x20\n      add\n      dup3\n      dup1\n      sload\n      tag_66\n      swap1\n      tag_46\n      jump\t// in\n    tag_66:\n      dup1\n      iszero\n      tag_67\n      jumpi\n      dup1\n      0x1f\n      lt\n      tag_68\n      jumpi\n      0x0100\n      dup1\n      dup4\n      sload\n      div\n      mul\n      dup4\n      mstore\n      swap2\n      0x20\n      add\n      swap2\n      jump(tag_67)\n    tag_68:\n      dup3\n      add\n      swap2\n      swap1\n      0x00\n      mstore\n      keccak256(0x00, 0x20)\n      swap1\n    tag_69:\n      dup2\n      sload\n      dup2\n      mstore\n      swap1\n      0x01\n      add\n      swap1\n      0x20\n      add\n      dup1\n      dup4\n      gt\n      tag_69\n      jumpi\n      dup3\n      swap1\n      sub\n      0x1f\n      and\n      dup3\n      add\n      swap2\n    tag_67:\n      pop\n      pop\n      pop\n      pop\n      pop\n      dup2\n      mstore\n      0x20\n      add\n      0x03\n      dup3\n      add\n      sload\n      dup2\n      mstore\n      0x20\n      add\n      0x04\n      dup3\n      add\n      0x00\n      swap1\n      sload\n      swap1\n      0x0100\n      exp\n      swap1\n      div\n      0xff\n      and\n      iszero\n      iszero\n      iszero\n      iszero\n      dup2\n      mstore\n      pop\n      pop\n      swap2\n      pop\n        /* \"BattleHandler.sol\":1615:1757  function getBattle(uint battleId) public battleIdInBounds(battleId) view returns(Battle memory) {\r... */\n      pop\n      swap2\n      swap1\n      pop\n      jump\t// out\n        /* \"BattleHandler.sol\":2861:3835  function takeTurn(uint command, uint cowboyId, uint battleId) public cowboyIdInBounds(cowboyId) battleIdInBounds(battleId) {\r... */\n    tag_27:\n        /* \"BattleHandler.sol\":2947:2955  cowboyId */\n      dup2\n        /* \"BattleHandler.sol\":715:725  cowboyList */\n      0x01\n        /* \"BattleHandler.sol\":715:732  cowboyList.length */\n      dup1\n      sload\n      swap1\n      pop\n        /* \"BattleHandler.sol\":704:712  cowboyId */\n      dup2\n        /* \"BattleHandler.sol\":704:732  cowboyId < cowboyList.length */\n      lt\n        /* \"BattleHandler.sol\":696:766  require(cowboyId < cowboyList.length, \"Given cowboy id out of bounds\") */\n      tag_71\n      jumpi\n      mload(0x40)\n      0x08c379a000000000000000000000000000000000000000000000000000000000\n      dup2\n      mstore\n      0x04\n      add\n      tag_72\n      swap1\n      tag_73\n      jump\t// in\n    tag_72:\n      mload(0x40)\n      dup1\n      swap2\n      sub\n      swap1\n      revert\n    tag_71:\n        /* \"BattleHandler.sol\":2974:2982  battleId */\n      dup2\n        /* \"BattleHandler.sol\":943:953  battleList */\n      0x00\n        /* \"BattleHandler.sol\":943:960  battleList.length */\n      dup1\n      sload\n      swap1\n      pop\n        /* \"BattleHandler.sol\":932:940  battleId */\n      dup2\n        /* \"BattleHandler.sol\":932:960  battleId < battleList.length */\n      lt\n        /* \"BattleHandler.sol\":924:994  require(battleId < battleList.length, \"Given battle id out of bounds\") */\n      tag_75\n      jumpi\n      mload(0x40)\n      0x08c379a000000000000000000000000000000000000000000000000000000000\n      dup2\n      mstore\n      0x04\n      add\n      tag_76\n      swap1\n      tag_60\n      jump\t// in\n    tag_76:\n      mload(0x40)\n      dup1\n      swap2\n      sub\n      swap1\n      revert\n    tag_75:\n        /* \"BattleHandler.sol\":2995:3016  Battle storage battle */\n      0x00\n        /* \"BattleHandler.sol\":3019:3029  battleList */\n      dup1\n        /* \"BattleHandler.sol\":3030:3038  battleId */\n      dup5\n        /* \"BattleHandler.sol\":3019:3039  battleList[battleId] */\n      dup2\n      sload\n      dup2\n      lt\n      tag_78\n      jumpi\n      tag_79\n      tag_40\n      jump\t// in\n    tag_79:\n    tag_78:\n      swap1\n      0x00\n      mstore\n      keccak256(0x00, 0x20)\n      swap1\n      0x05\n      mul\n      add\n        /* \"BattleHandler.sol\":2995:3039  Battle storage battle = battleList[battleId] */\n      swap1\n      pop\n        /* \"BattleHandler.sol\":3059:3065  battle */\n      dup1\n        /* \"BattleHandler.sol\":3059:3074  battle.gameOver */\n      0x04\n      add\n      0x00\n      swap1\n      sload\n      swap1\n      0x0100\n      exp\n      swap1\n      div\n      0xff\n      and\n        /* \"BattleHandler.sol\":3058:3074  !battle.gameOver */\n      iszero\n        /* \"BattleHandler.sol\":3050:3125  require(!battle.gameOver, \"The game is over your cowboy can't take turns.\") */\n      tag_81\n      jumpi\n      mload(0x40)\n      0x08c379a000000000000000000000000000000000000000000000000000000000\n      dup2\n      mstore\n      0x04\n      add\n      tag_82\n      swap1\n      tag_83\n      jump\t// in\n    tag_82:\n      mload(0x40)\n      dup1\n      swap2\n      sub\n      swap1\n      revert\n    tag_81:\n        /* \"BattleHandler.sol\":3156:3162  battle */\n      dup1\n        /* \"BattleHandler.sol\":3156:3172  battle.cowboyId0 */\n      0x00\n      add\n      sload\n        /* \"BattleHandler.sol\":3144:3152  cowboyId */\n      dup6\n        /* \"BattleHandler.sol\":3144:3172  cowboyId == battle.cowboyId0 */\n      eq\n        /* \"BattleHandler.sol\":3144:3204  cowboyId == battle.cowboyId0 || cowboyId == battle.cowboyId1 */\n      dup1\n      tag_84\n      jumpi\n      pop\n        /* \"BattleHandler.sol\":3188:3194  battle */\n      dup1\n        /* \"BattleHandler.sol\":3188:3204  battle.cowboyId1 */\n      0x01\n      add\n      sload\n        /* \"BattleHandler.sol\":3176:3184  cowboyId */\n      dup6\n        /* \"BattleHandler.sol\":3176:3204  cowboyId == battle.cowboyId1 */\n      eq\n        /* \"BattleHandler.sol\":3144:3204  cowboyId == battle.cowboyId0 || cowboyId == battle.cowboyId1 */\n    tag_84:\n        /* \"BattleHandler.sol\":3136:3252  require(cowboyId == battle.cowboyId0 || cowboyId == battle.cowboyId1, \"The given cowboy is not in the given battle\") */\n      tag_85\n      jumpi\n      mload(0x40)\n      0x08c379a000000000000000000000000000000000000000000000000000000000\n      dup2\n      mstore\n      0x04\n      add\n      tag_86\n      swap1\n      tag_87\n      jump\t// in\n    tag_86:\n      mload(0x40)\n      dup1\n      swap2\n      sub\n      swap1\n      revert\n    tag_85:\n        /* \"BattleHandler.sol\":3263:3284  Cowboy storage cowboy */\n      0x00\n        /* \"BattleHandler.sol\":3287:3297  cowboyList */\n      0x01\n        /* \"BattleHandler.sol\":3298:3306  cowboyId */\n      dup7\n        /* \"BattleHandler.sol\":3287:3307  cowboyList[cowboyId] */\n      dup2\n      sload\n      dup2\n      lt\n      tag_88\n      jumpi\n      tag_89\n      tag_40\n      jump\t// in\n    tag_89:\n    tag_88:\n      swap1\n      0x00\n      mstore\n      keccak256(0x00, 0x20)\n      swap1\n      0x03\n      mul\n      add\n        /* \"BattleHandler.sol\":3263:3307  Cowboy storage cowboy = cowboyList[cowboyId] */\n      swap1\n      pop\n        /* \"BattleHandler.sol\":3327:3333  cowboy */\n      dup1\n        /* \"BattleHandler.sol\":3327:3343  cowboy.takenTurn */\n      0x02\n      add\n      0x00\n      swap1\n      sload\n      swap1\n      0x0100\n      exp\n      swap1\n      div\n      0xff\n      and\n        /* \"BattleHandler.sol\":3326:3343  !cowboy.takenTurn */\n      iszero\n        /* \"BattleHandler.sol\":3318:3388  require(!cowboy.takenTurn, \"Cowboy has already taken turn this round\") */\n      tag_91\n      jumpi\n      mload(0x40)\n      0x08c379a000000000000000000000000000000000000000000000000000000000\n      dup2\n      mstore\n      0x04\n      add\n      tag_92\n      swap1\n      tag_93\n      jump\t// in\n    tag_92:\n      mload(0x40)\n      dup1\n      swap2\n      sub\n      swap1\n      revert\n    tag_91:\n        /* \"BattleHandler.sol\":3416:3417  0 */\n      0x00\n        /* \"BattleHandler.sol\":3405:3412  command */\n      dup8\n        /* \"BattleHandler.sol\":3405:3417  command == 0 */\n      eq\n        /* \"BattleHandler.sol\":3401:3628  if (command == 0) {\r... */\n      iszero\n      tag_94\n      jumpi\n        /* \"BattleHandler.sol\":3434:3448  reload(cowboy) */\n      tag_95\n        /* \"BattleHandler.sol\":3441:3447  cowboy */\n      dup2\n        /* \"BattleHandler.sol\":3434:3440  reload */\n      tag_96\n        /* \"BattleHandler.sol\":3434:3448  reload(cowboy) */\n      jump\t// in\n    tag_95:\n        /* \"BattleHandler.sol\":3401:3628  if (command == 0) {\r... */\n      jump(tag_97)\n    tag_94:\n        /* \"BattleHandler.sol\":3481:3482  1 */\n      0x01\n        /* \"BattleHandler.sol\":3470:3477  command */\n      dup8\n        /* \"BattleHandler.sol\":3470:3482  command == 1 */\n      eq\n        /* \"BattleHandler.sol\":3466:3628  if (command == 1) {\r... */\n      iszero\n      tag_98\n      jumpi\n        /* \"BattleHandler.sol\":3499:3512  shoot(cowboy) */\n      tag_99\n        /* \"BattleHandler.sol\":3505:3511  cowboy */\n      dup2\n        /* \"BattleHandler.sol\":3499:3504  shoot */\n      tag_100\n        /* \"BattleHandler.sol\":3499:3512  shoot(cowboy) */\n      jump\t// in\n    tag_99:\n        /* \"BattleHandler.sol\":3466:3628  if (command == 1) {\r... */\n      jump(tag_101)\n    tag_98:\n        /* \"BattleHandler.sol\":3545:3546  2 */\n      0x02\n        /* \"BattleHandler.sol\":3534:3541  command */\n      dup8\n        /* \"BattleHandler.sol\":3534:3546  command == 2 */\n      eq\n        /* \"BattleHandler.sol\":3530:3628  if (command == 2) {\r... */\n      iszero\n      tag_102\n      jumpi\n        /* \"BattleHandler.sol\":3563:3576  dodge(cowboy) */\n      tag_103\n        /* \"BattleHandler.sol\":3569:3575  cowboy */\n      dup2\n        /* \"BattleHandler.sol\":3563:3568  dodge */\n      tag_104\n        /* \"BattleHandler.sol\":3563:3576  dodge(cowboy) */\n      jump\t// in\n    tag_103:\n        /* \"BattleHandler.sol\":3530:3628  if (command == 2) {\r... */\n      jump(tag_105)\n    tag_102:\n    tag_105:\n        /* \"BattleHandler.sol\":3466:3628  if (command == 1) {\r... */\n    tag_101:\n        /* \"BattleHandler.sol\":3401:3628  if (command == 0) {\r... */\n    tag_97:\n        /* \"BattleHandler.sol\":3657:3661  true */\n      0x01\n        /* \"BattleHandler.sol\":3638:3644  cowboy */\n      dup2\n        /* \"BattleHandler.sol\":3638:3654  cowboy.takenTurn */\n      0x02\n      add\n      0x00\n        /* \"BattleHandler.sol\":3638:3661  cowboy.takenTurn = true */\n      0x0100\n      exp\n      dup2\n      sload\n      dup2\n      0xff\n      mul\n      not\n      and\n      swap1\n      dup4\n      iszero\n      iszero\n      mul\n      or\n      swap1\n      sstore\n      pop\n        /* \"BattleHandler.sol\":3672:3678  battle */\n      dup2\n        /* \"BattleHandler.sol\":3672:3690  battle.turnCounter */\n      0x03\n      add\n      0x00\n        /* \"BattleHandler.sol\":3672:3692  battle.turnCounter++ */\n      dup2\n      sload\n      dup1\n      swap3\n      swap2\n      swap1\n      tag_106\n      swap1\n      tag_107\n      jump\t// in\n    tag_106:\n      swap2\n      swap1\n      pop\n      sstore\n      pop\n        /* \"BattleHandler.sol\":3729:3730  2 */\n      0x02\n        /* \"BattleHandler.sol\":3707:3713  battle */\n      dup3\n        /* \"BattleHandler.sol\":3707:3725  battle.turnCounter */\n      0x03\n      add\n      sload\n        /* \"BattleHandler.sol\":3707:3730  battle.turnCounter == 2 */\n      eq\n        /* \"BattleHandler.sol\":3703:3828  if (battle.turnCounter == 2) {\r... */\n      iszero\n      tag_108\n      jumpi\n        /* \"BattleHandler.sol\":3798:3816  finishTurn(battle) */\n      tag_109\n        /* \"BattleHandler.sol\":3809:3815  battle */\n      dup3\n        /* \"BattleHandler.sol\":3798:3808  finishTurn */\n      tag_110\n        /* \"BattleHandler.sol\":3798:3816  finishTurn(battle) */\n      jump\t// in\n    tag_109:\n        /* \"BattleHandler.sol\":3703:3828  if (battle.turnCounter == 2) {\r... */\n    tag_108:\n        /* \"BattleHandler.sol\":2984:3835  {\r... */\n      pop\n      pop\n        /* \"BattleHandler.sol\":777:778  _ */\n      pop\n        /* \"BattleHandler.sol\":2861:3835  function takeTurn(uint command, uint cowboyId, uint battleId) public cowboyIdInBounds(cowboyId) battleIdInBounds(battleId) {\r... */\n      pop\n      pop\n      pop\n      pop\n      jump\t// out\n        /* \"BattleHandler.sol\":1923:2067  function getCowboy(uint cowboyId) public cowboyIdInBounds(cowboyId) view returns(Cowboy memory) {\r... */\n    tag_30:\n        /* \"BattleHandler.sol\":2004:2017  Cowboy memory */\n      tag_111\n      tag_112\n      jump\t// in\n    tag_111:\n        /* \"BattleHandler.sol\":1981:1989  cowboyId */\n      dup2\n        /* \"BattleHandler.sol\":715:725  cowboyList */\n      0x01\n        /* \"BattleHandler.sol\":715:732  cowboyList.length */\n      dup1\n      sload\n      swap1\n      pop\n        /* \"BattleHandler.sol\":704:712  cowboyId */\n      dup2\n        /* \"BattleHandler.sol\":704:732  cowboyId < cowboyList.length */\n      lt\n        /* \"BattleHandler.sol\":696:766  require(cowboyId < cowboyList.length, \"Given cowboy id out of bounds\") */\n      tag_114\n      jumpi\n      mload(0x40)\n      0x08c379a000000000000000000000000000000000000000000000000000000000\n      dup2\n      mstore\n      0x04\n      add\n      tag_115\n      swap1\n      tag_73\n      jump\t// in\n    tag_115:\n      mload(0x40)\n      dup1\n      swap2\n      sub\n      swap1\n      revert\n    tag_114:\n        /* \"BattleHandler.sol\":2038:2048  cowboyList */\n      0x01\n        /* \"BattleHandler.sol\":2049:2057  cowboyId */\n      dup4\n        /* \"BattleHandler.sol\":2038:2058  cowboyList[cowboyId] */\n      dup2\n      sload\n      dup2\n      lt\n      tag_117\n      jumpi\n      tag_118\n      tag_40\n      jump\t// in\n    tag_118:\n    tag_117:\n      swap1\n      0x00\n      mstore\n      keccak256(0x00, 0x20)\n      swap1\n      0x03\n      mul\n      add\n        /* \"BattleHandler.sol\":2031:2058  return cowboyList[cowboyId] */\n      mload(0x40)\n      dup1\n      0xa0\n      add\n      0x40\n      mstore\n      swap1\n      dup2\n      0x00\n      dup3\n      add\n      dup1\n      sload\n      tag_120\n      swap1\n      tag_46\n      jump\t// in\n    tag_120:\n      dup1\n      0x1f\n      add\n      0x20\n      dup1\n      swap2\n      div\n      mul\n      0x20\n      add\n      mload(0x40)\n      swap1\n      dup2\n      add\n      0x40\n      mstore\n      dup1\n      swap3\n      swap2\n      swap1\n      dup2\n      dup2\n      mstore\n      0x20\n      add\n      dup3\n      dup1\n      sload\n      tag_121\n      swap1\n      tag_46\n      jump\t// in\n    tag_121:\n      dup1\n      iszero\n      tag_122\n      jumpi\n      dup1\n      0x1f\n      lt\n      tag_123\n      jumpi\n      0x0100\n      dup1\n      dup4\n      sload\n      div\n      mul\n      dup4\n      mstore\n      swap2\n      0x20\n      add\n      swap2\n      jump(tag_122)\n    tag_123:\n      dup3\n      add\n      swap2\n      swap1\n      0x00\n      mstore\n      keccak256(0x00, 0x20)\n      swap1\n    tag_124:\n      dup2\n      sload\n      dup2\n      mstore\n      swap1\n      0x01\n      add\n      swap1\n      0x20\n      add\n      dup1\n      dup4\n      gt\n      tag_124\n      jumpi\n      dup3\n      swap1\n      sub\n      0x1f\n      and\n      dup3\n      add\n      swap2\n    tag_122:\n      pop\n      pop\n      pop\n      pop\n      pop\n      dup2\n      mstore\n      0x20\n      add\n      0x01\n      dup3\n      add\n      sload\n      dup2\n      mstore\n      0x20\n      add\n      0x02\n      dup3\n      add\n      0x00\n      swap1\n      sload\n      swap1\n      0x0100\n      exp\n      swap1\n      div\n      0xff\n      and\n      iszero\n      iszero\n      iszero\n      iszero\n      dup2\n      mstore\n      0x20\n      add\n      0x02\n      dup3\n      add\n      0x01\n      swap1\n      sload\n      swap1\n      0x0100\n      exp\n      swap1\n      div\n      0xff\n      and\n      iszero\n      iszero\n      iszero\n      iszero\n      dup2\n      mstore\n      0x20\n      add\n      0x02\n      dup3\n      add\n      0x02\n      swap1\n      sload\n      swap1\n      0x0100\n      exp\n      swap1\n      div\n      0xff\n      and\n      iszero\n      iszero\n      iszero\n      iszero\n      dup2\n      mstore\n      pop\n      pop\n      swap2\n      pop\n        /* \"BattleHandler.sol\":1923:2067  function getCowboy(uint cowboyId) public cowboyIdInBounds(cowboyId) view returns(Cowboy memory) {\r... */\n      pop\n      swap2\n      swap1\n      pop\n      jump\t// out\n        /* \"BattleHandler.sol\":2427:2622  function createBattle(uint cowboyId1, uint cowboyId2) public cowboyIdInBounds(cowboyId1) cowboyIdInBounds(cowboyId2) {\r... */\n    tag_36:\n        /* \"BattleHandler.sol\":2505:2514  cowboyId1 */\n      dup2\n        /* \"BattleHandler.sol\":715:725  cowboyList */\n      0x01\n        /* \"BattleHandler.sol\":715:732  cowboyList.length */\n      dup1\n      sload\n      swap1\n      pop\n        /* \"BattleHandler.sol\":704:712  cowboyId */\n      dup2\n        /* \"BattleHandler.sol\":704:732  cowboyId < cowboyList.length */\n      lt\n        /* \"BattleHandler.sol\":696:766  require(cowboyId < cowboyList.length, \"Given cowboy id out of bounds\") */\n      tag_126\n      jumpi\n      mload(0x40)\n      0x08c379a000000000000000000000000000000000000000000000000000000000\n      dup2\n      mstore\n      0x04\n      add\n      tag_127\n      swap1\n      tag_73\n      jump\t// in\n    tag_127:\n      mload(0x40)\n      dup1\n      swap2\n      sub\n      swap1\n      revert\n    tag_126:\n        /* \"BattleHandler.sol\":2533:2542  cowboyId2 */\n      dup2\n        /* \"BattleHandler.sol\":715:725  cowboyList */\n      0x01\n        /* \"BattleHandler.sol\":715:732  cowboyList.length */\n      dup1\n      sload\n      swap1\n      pop\n        /* \"BattleHandler.sol\":704:712  cowboyId */\n      dup2\n        /* \"BattleHandler.sol\":704:732  cowboyId < cowboyList.length */\n      lt\n        /* \"BattleHandler.sol\":696:766  require(cowboyId < cowboyList.length, \"Given cowboy id out of bounds\") */\n      tag_129\n      jumpi\n      mload(0x40)\n      0x08c379a000000000000000000000000000000000000000000000000000000000\n      dup2\n      mstore\n      0x04\n      add\n      tag_130\n      swap1\n      tag_73\n      jump\t// in\n    tag_130:\n      mload(0x40)\n      dup1\n      swap2\n      sub\n      swap1\n      revert\n    tag_129:\n        /* \"BattleHandler.sol\":2555:2565  battleList */\n      0x00\n        /* \"BattleHandler.sol\":2571:2613  Battle(cowboyId1, cowboyId2, \"\", 0, false) */\n      mload(0x40)\n      dup1\n      0xa0\n      add\n      0x40\n      mstore\n      dup1\n        /* \"BattleHandler.sol\":2578:2587  cowboyId1 */\n      dup7\n        /* \"BattleHandler.sol\":2571:2613  Battle(cowboyId1, cowboyId2, \"\", 0, false) */\n      dup2\n      mstore\n      0x20\n      add\n        /* \"BattleHandler.sol\":2589:2598  cowboyId2 */\n      dup6\n        /* \"BattleHandler.sol\":2571:2613  Battle(cowboyId1, cowboyId2, \"\", 0, false) */\n      dup2\n      mstore\n      0x20\n      add\n      mload(0x40)\n      dup1\n      0x20\n      add\n      0x40\n      mstore\n      dup1\n      0x00\n      dup2\n      mstore\n      pop\n      dup2\n      mstore\n      0x20\n      add\n        /* \"BattleHandler.sol\":2604:2605  0 */\n      0x00\n        /* \"BattleHandler.sol\":2571:2613  Battle(cowboyId1, cowboyId2, \"\", 0, false) */\n      dup2\n      mstore\n      0x20\n      add\n        /* \"BattleHandler.sol\":2607:2612  false */\n      0x00\n        /* \"BattleHandler.sol\":2571:2613  Battle(cowboyId1, cowboyId2, \"\", 0, false) */\n      iszero\n      iszero\n      dup2\n      mstore\n      pop\n        /* \"BattleHandler.sol\":2555:2614  battleList.push(Battle(cowboyId1, cowboyId2, \"\", 0, false)) */\n      swap1\n      dup1\n      0x01\n      dup2\n      sload\n      add\n      dup1\n      dup3\n      sstore\n      dup1\n      swap2\n      pop\n      pop\n      0x01\n      swap1\n      sub\n      swap1\n      0x00\n      mstore\n      keccak256(0x00, 0x20)\n      swap1\n      0x05\n      mul\n      add\n      0x00\n      swap1\n      swap2\n      swap1\n      swap2\n      swap1\n      swap2\n      pop\n      0x00\n      dup3\n      add\n      mload\n      dup2\n      0x00\n      add\n      sstore\n      0x20\n      dup3\n      add\n      mload\n      dup2\n      0x01\n      add\n      sstore\n      0x40\n      dup3\n      add\n      mload\n      dup2\n      0x02\n      add\n      swap1\n      dup1\n      mload\n      swap1\n      0x20\n      add\n      swap1\n      tag_133\n      swap3\n      swap2\n      swap1\n      tag_54\n      jump\t// in\n    tag_133:\n      pop\n      0x60\n      dup3\n      add\n      mload\n      dup2\n      0x03\n      add\n      sstore\n      0x80\n      dup3\n      add\n      mload\n      dup2\n      0x04\n      add\n      exp(0x0100, 0x00)\n      dup2\n      sload\n      dup2\n      0xff\n      mul\n      not\n      and\n      swap1\n      dup4\n      iszero\n      iszero\n      mul\n      or\n      swap1\n      sstore\n      pop\n      pop\n      pop\n        /* \"BattleHandler.sol\":777:778  _ */\n      pop\n        /* \"BattleHandler.sol\":2427:2622  function createBattle(uint cowboyId1, uint cowboyId2) public cowboyIdInBounds(cowboyId1) cowboyIdInBounds(cowboyId2) {\r... */\n      pop\n      pop\n      pop\n      jump\t// out\n        /* \"BattleHandler.sol\":4743:4892  function reload(Cowboy storage cowboy) internal {\r... */\n    tag_96:\n        /* \"BattleHandler.sol\":4802:4808  cowboy */\n      dup1\n        /* \"BattleHandler.sol\":4802:4814  cowboy.shots */\n      0x01\n      add\n      0x00\n        /* \"BattleHandler.sol\":4802:4816  cowboy.shots++ */\n      dup2\n      sload\n      dup1\n      swap3\n      swap2\n      swap1\n      tag_135\n      swap1\n      tag_107\n      jump\t// in\n    tag_135:\n      swap2\n      swap1\n      pop\n      sstore\n      pop\n        /* \"BattleHandler.sol\":4846:4850  true */\n      0x01\n        /* \"BattleHandler.sol\":4827:4833  cowboy */\n      dup2\n        /* \"BattleHandler.sol\":4827:4843  cowboy.reloading */\n      0x02\n      add\n      0x01\n        /* \"BattleHandler.sol\":4827:4850  cowboy.reloading = true */\n      0x0100\n      exp\n      dup2\n      sload\n      dup2\n      0xff\n      mul\n      not\n      and\n      swap1\n      dup4\n      iszero\n      iszero\n      mul\n      or\n      swap1\n      sstore\n      pop\n        /* \"BattleHandler.sol\":4879:4884  false */\n      0x00\n        /* \"BattleHandler.sol\":4861:4867  cowboy */\n      dup2\n        /* \"BattleHandler.sol\":4861:4876  cowboy.shooting */\n      0x02\n      add\n      0x02\n        /* \"BattleHandler.sol\":4861:4884  cowboy.shooting = false */\n      0x0100\n      exp\n      dup2\n      sload\n      dup2\n      0xff\n      mul\n      not\n      and\n      swap1\n      dup4\n      iszero\n      iszero\n      mul\n      or\n      swap1\n      sstore\n      pop\n        /* \"BattleHandler.sol\":4743:4892  function reload(Cowboy storage cowboy) internal {\r... */\n      pop\n      jump\t// out\n        /* \"BattleHandler.sol\":4994:5219  function shoot(Cowboy storage cowboy) internal {\r... */\n    tag_100:\n        /* \"BattleHandler.sol\":5076:5077  1 */\n      0x01\n        /* \"BattleHandler.sol\":5060:5066  cowboy */\n      dup2\n        /* \"BattleHandler.sol\":5060:5072  cowboy.shots */\n      0x01\n      add\n      sload\n        /* \"BattleHandler.sol\":5060:5077  cowboy.shots >= 1 */\n      lt\n      iszero\n        /* \"BattleHandler.sol\":5052:5118  require(cowboy.shots >= 1, \"Your cowboy can't shoot without ammo\") */\n      tag_137\n      jumpi\n      mload(0x40)\n      0x08c379a000000000000000000000000000000000000000000000000000000000\n      dup2\n      mstore\n      0x04\n      add\n      tag_138\n      swap1\n      tag_139\n      jump\t// in\n    tag_138:\n      mload(0x40)\n      dup1\n      swap2\n      sub\n      swap1\n      revert\n    tag_137:\n        /* \"BattleHandler.sol\":5129:5135  cowboy */\n      dup1\n        /* \"BattleHandler.sol\":5129:5141  cowboy.shots */\n      0x01\n      add\n      0x00\n        /* \"BattleHandler.sol\":5129:5143  cowboy.shots-- */\n      dup2\n      sload\n      dup1\n      swap3\n      swap2\n      swap1\n      tag_140\n      swap1\n      tag_141\n      jump\t// in\n    tag_140:\n      swap2\n      swap1\n      pop\n      sstore\n      pop\n        /* \"BattleHandler.sol\":5173:5178  false */\n      0x00\n        /* \"BattleHandler.sol\":5154:5160  cowboy */\n      dup2\n        /* \"BattleHandler.sol\":5154:5170  cowboy.reloading */\n      0x02\n      add\n      0x01\n        /* \"BattleHandler.sol\":5154:5178  cowboy.reloading = false */\n      0x0100\n      exp\n      dup2\n      sload\n      dup2\n      0xff\n      mul\n      not\n      and\n      swap1\n      dup4\n      iszero\n      iszero\n      mul\n      or\n      swap1\n      sstore\n      pop\n        /* \"BattleHandler.sol\":5207:5211  true */\n      0x01\n        /* \"BattleHandler.sol\":5189:5195  cowboy */\n      dup2\n        /* \"BattleHandler.sol\":5189:5204  cowboy.shooting */\n      0x02\n      add\n      0x02\n        /* \"BattleHandler.sol\":5189:5211  cowboy.shooting = true */\n      0x0100\n      exp\n      dup2\n      sload\n      dup2\n      0xff\n      mul\n      not\n      and\n      swap1\n      dup4\n      iszero\n      iszero\n      mul\n      or\n      swap1\n      sstore\n      pop\n        /* \"BattleHandler.sol\":4994:5219  function shoot(Cowboy storage cowboy) internal {\r... */\n      pop\n      jump\t// out\n        /* \"BattleHandler.sol\":5310:5434  function dodge(Cowboy storage cowboy) internal {\r... */\n    tag_104:\n        /* \"BattleHandler.sol\":5387:5392  false */\n      0x00\n        /* \"BattleHandler.sol\":5368:5374  cowboy */\n      dup2\n        /* \"BattleHandler.sol\":5368:5384  cowboy.reloading */\n      0x02\n      add\n      0x01\n        /* \"BattleHandler.sol\":5368:5392  cowboy.reloading = false */\n      0x0100\n      exp\n      dup2\n      sload\n      dup2\n      0xff\n      mul\n      not\n      and\n      swap1\n      dup4\n      iszero\n      iszero\n      mul\n      or\n      swap1\n      sstore\n      pop\n        /* \"BattleHandler.sol\":5421:5426  false */\n      0x00\n        /* \"BattleHandler.sol\":5403:5409  cowboy */\n      dup2\n        /* \"BattleHandler.sol\":5403:5418  cowboy.shooting */\n      0x02\n      add\n      0x02\n        /* \"BattleHandler.sol\":5403:5426  cowboy.shooting = false */\n      0x0100\n      exp\n      dup2\n      sload\n      dup2\n      0xff\n      mul\n      not\n      and\n      swap1\n      dup4\n      iszero\n      iszero\n      mul\n      or\n      swap1\n      sstore\n      pop\n        /* \"BattleHandler.sol\":5310:5434  function dodge(Cowboy storage cowboy) internal {\r... */\n      pop\n      jump\t// out\n        /* \"BattleHandler.sol\":3972:4642  function finishTurn(Battle storage battle) internal {\r... */\n    tag_110:\n        /* \"BattleHandler.sol\":4035:4057  Cowboy storage cowboy1 */\n      0x00\n        /* \"BattleHandler.sol\":4060:4070  cowboyList */\n      0x01\n        /* \"BattleHandler.sol\":4071:4077  battle */\n      dup3\n        /* \"BattleHandler.sol\":4071:4087  battle.cowboyId0 */\n      0x00\n      add\n      sload\n        /* \"BattleHandler.sol\":4060:4088  cowboyList[battle.cowboyId0] */\n      dup2\n      sload\n      dup2\n      lt\n      tag_144\n      jumpi\n      tag_145\n      tag_40\n      jump\t// in\n    tag_145:\n    tag_144:\n      swap1\n      0x00\n      mstore\n      keccak256(0x00, 0x20)\n      swap1\n      0x03\n      mul\n      add\n        /* \"BattleHandler.sol\":4035:4088  Cowboy storage cowboy1 = cowboyList[battle.cowboyId0] */\n      swap1\n      pop\n        /* \"BattleHandler.sol\":4099:4121  Cowboy storage cowboy2 */\n      0x00\n        /* \"BattleHandler.sol\":4124:4134  cowboyList */\n      0x01\n        /* \"BattleHandler.sol\":4135:4141  battle */\n      dup4\n        /* \"BattleHandler.sol\":4135:4151  battle.cowboyId1 */\n      0x01\n      add\n      sload\n        /* \"BattleHandler.sol\":4124:4152  cowboyList[battle.cowboyId1] */\n      dup2\n      sload\n      dup2\n      lt\n      tag_147\n      jumpi\n      tag_148\n      tag_40\n      jump\t// in\n    tag_148:\n    tag_147:\n      swap1\n      0x00\n      mstore\n      keccak256(0x00, 0x20)\n      swap1\n      0x03\n      mul\n      add\n        /* \"BattleHandler.sol\":4099:4152  Cowboy storage cowboy2 = cowboyList[battle.cowboyId1] */\n      swap1\n      pop\n        /* \"BattleHandler.sol\":4167:4174  cowboy1 */\n      dup2\n        /* \"BattleHandler.sol\":4167:4183  cowboy1.shooting */\n      0x02\n      add\n      0x02\n      swap1\n      sload\n      swap1\n      0x0100\n      exp\n      swap1\n      div\n      0xff\n      and\n        /* \"BattleHandler.sol\":4167:4204  cowboy1.shooting && cowboy2.reloading */\n      dup1\n      iszero\n      tag_150\n      jumpi\n      pop\n        /* \"BattleHandler.sol\":4187:4194  cowboy2 */\n      dup1\n        /* \"BattleHandler.sol\":4187:4204  cowboy2.reloading */\n      0x02\n      add\n      0x01\n      swap1\n      sload\n      swap1\n      0x0100\n      exp\n      swap1\n      div\n      0xff\n      and\n        /* \"BattleHandler.sol\":4167:4204  cowboy1.shooting && cowboy2.reloading */\n    tag_150:\n        /* \"BattleHandler.sol\":4163:4498  if (cowboy1.shooting && cowboy2.reloading) {\r... */\n      iszero\n      tag_151\n      jumpi\n        /* \"BattleHandler.sol\":4267:4274  cowboy1 */\n      dup2\n        /* \"BattleHandler.sol\":4267:4279  cowboy1.name */\n      0x00\n      add\n        /* \"BattleHandler.sol\":4251:4257  battle */\n      dup4\n        /* \"BattleHandler.sol\":4251:4264  battle.winner */\n      0x02\n      add\n        /* \"BattleHandler.sol\":4251:4279  battle.winner = cowboy1.name */\n      swap1\n      dup1\n      sload\n      tag_152\n      swap1\n      tag_46\n      jump\t// in\n    tag_152:\n      tag_153\n      swap3\n      swap2\n      swap1\n      tag_154\n      jump\t// in\n    tag_153:\n      pop\n        /* \"BattleHandler.sol\":4312:4316  true */\n      0x01\n        /* \"BattleHandler.sol\":4294:4300  battle */\n      dup4\n        /* \"BattleHandler.sol\":4294:4309  battle.gameOver */\n      0x04\n      add\n      0x00\n        /* \"BattleHandler.sol\":4294:4316  battle.gameOver = true */\n      0x0100\n      exp\n      dup2\n      sload\n      dup2\n      0xff\n      mul\n      not\n      and\n      swap1\n      dup4\n      iszero\n      iszero\n      mul\n      or\n      swap1\n      sstore\n      pop\n        /* \"BattleHandler.sol\":4163:4498  if (cowboy1.shooting && cowboy2.reloading) {\r... */\n      jump(tag_155)\n    tag_151:\n        /* \"BattleHandler.sol\":4338:4345  cowboy2 */\n      dup1\n        /* \"BattleHandler.sol\":4338:4354  cowboy2.shooting */\n      0x02\n      add\n      0x02\n      swap1\n      sload\n      swap1\n      0x0100\n      exp\n      swap1\n      div\n      0xff\n      and\n        /* \"BattleHandler.sol\":4338:4375  cowboy2.shooting && cowboy1.reloading */\n      dup1\n      iszero\n      tag_156\n      jumpi\n      pop\n        /* \"BattleHandler.sol\":4358:4365  cowboy1 */\n      dup2\n        /* \"BattleHandler.sol\":4358:4375  cowboy1.reloading */\n      0x02\n      add\n      0x01\n      swap1\n      sload\n      swap1\n      0x0100\n      exp\n      swap1\n      div\n      0xff\n      and\n        /* \"BattleHandler.sol\":4338:4375  cowboy2.shooting && cowboy1.reloading */\n    tag_156:\n        /* \"BattleHandler.sol\":4334:4498  if (cowboy2.shooting && cowboy1.reloading){\r... */\n      iszero\n      tag_157\n      jumpi\n        /* \"BattleHandler.sol\":4437:4444  cowboy2 */\n      dup1\n        /* \"BattleHandler.sol\":4437:4449  cowboy2.name */\n      0x00\n      add\n        /* \"BattleHandler.sol\":4421:4427  battle */\n      dup4\n        /* \"BattleHandler.sol\":4421:4434  battle.winner */\n      0x02\n      add\n        /* \"BattleHandler.sol\":4421:4449  battle.winner = cowboy2.name */\n      swap1\n      dup1\n      sload\n      tag_158\n      swap1\n      tag_46\n      jump\t// in\n    tag_158:\n      tag_159\n      swap3\n      swap2\n      swap1\n      tag_154\n      jump\t// in\n    tag_159:\n      pop\n        /* \"BattleHandler.sol\":4482:4486  true */\n      0x01\n        /* \"BattleHandler.sol\":4464:4470  battle */\n      dup4\n        /* \"BattleHandler.sol\":4464:4479  battle.gameOver */\n      0x04\n      add\n      0x00\n        /* \"BattleHandler.sol\":4464:4486  battle.gameOver = true */\n      0x0100\n      exp\n      dup2\n      sload\n      dup2\n      0xff\n      mul\n      not\n      and\n      swap1\n      dup4\n      iszero\n      iszero\n      mul\n      or\n      swap1\n      sstore\n      pop\n        /* \"BattleHandler.sol\":4334:4498  if (cowboy2.shooting && cowboy1.reloading){\r... */\n    tag_157:\n        /* \"BattleHandler.sol\":4163:4498  if (cowboy1.shooting && cowboy2.reloading) {\r... */\n    tag_155:\n        /* \"BattleHandler.sol\":4560:4565  false */\n      0x00\n        /* \"BattleHandler.sol\":4540:4547  cowboy1 */\n      dup3\n        /* \"BattleHandler.sol\":4540:4557  cowboy1.takenTurn */\n      0x02\n      add\n      0x00\n        /* \"BattleHandler.sol\":4540:4565  cowboy1.takenTurn = false */\n      0x0100\n      exp\n      dup2\n      sload\n      dup2\n      0xff\n      mul\n      not\n      and\n      swap1\n      dup4\n      iszero\n      iszero\n      mul\n      or\n      swap1\n      sstore\n      pop\n        /* \"BattleHandler.sol\":4596:4601  false */\n      0x00\n        /* \"BattleHandler.sol\":4576:4583  cowboy2 */\n      dup2\n        /* \"BattleHandler.sol\":4576:4593  cowboy2.takenTurn */\n      0x02\n      add\n      0x00\n        /* \"BattleHandler.sol\":4576:4601  cowboy2.takenTurn = false */\n      0x0100\n      exp\n      dup2\n      sload\n      dup2\n      0xff\n      mul\n      not\n      and\n      swap1\n      dup4\n      iszero\n      iszero\n      mul\n      or\n      swap1\n      sstore\n      pop\n        /* \"BattleHandler.sol\":4633:4634  0 */\n      0x00\n        /* \"BattleHandler.sol\":4612:4618  battle */\n      dup4\n        /* \"BattleHandler.sol\":4612:4630  battle.turnCounter */\n      0x03\n      add\n        /* \"BattleHandler.sol\":4612:4634  battle.turnCounter = 0 */\n      dup2\n      swap1\n      sstore\n      pop\n        /* \"BattleHandler.sol\":4024:4642  {\r... */\n      pop\n      pop\n        /* \"BattleHandler.sol\":3972:4642  function finishTurn(Battle storage battle) internal {\r... */\n      pop\n      jump\t// out\n    tag_54:\n      dup3\n      dup1\n      sload\n      tag_160\n      swap1\n      tag_46\n      jump\t// in\n    tag_160:\n      swap1\n      0x00\n      mstore\n      keccak256(0x00, 0x20)\n      swap1\n      0x1f\n      add\n      0x20\n      swap1\n      div\n      dup2\n      add\n      swap3\n      dup3\n      tag_162\n      jumpi\n      0x00\n      dup6\n      sstore\n      jump(tag_161)\n    tag_162:\n      dup3\n      0x1f\n      lt\n      tag_163\n      jumpi\n      dup1\n      mload\n      not(0xff)\n      and\n      dup4\n      dup1\n      add\n      or\n      dup6\n      sstore\n      jump(tag_161)\n    tag_163:\n      dup3\n      dup1\n      add\n      0x01\n      add\n      dup6\n      sstore\n      dup3\n      iszero\n      tag_161\n      jumpi\n      swap2\n      dup3\n      add\n    tag_164:\n      dup3\n      dup2\n      gt\n      iszero\n      tag_165\n      jumpi\n      dup3\n      mload\n      dup3\n      sstore\n      swap2\n      0x20\n      add\n      swap2\n      swap1\n      0x01\n      add\n      swap1\n      jump(tag_164)\n    tag_165:\n    tag_161:\n      pop\n      swap1\n      pop\n      tag_166\n      swap2\n      swap1\n      tag_167\n      jump\t// in\n    tag_166:\n      pop\n      swap1\n      jump\t// out\n    tag_56:\n      mload(0x40)\n      dup1\n      0xa0\n      add\n      0x40\n      mstore\n      dup1\n      0x00\n      dup2\n      mstore\n      0x20\n      add\n      0x00\n      dup2\n      mstore\n      0x20\n      add\n      0x60\n      dup2\n      mstore\n      0x20\n      add\n      0x00\n      dup2\n      mstore\n      0x20\n      add\n      iszero(iszero(0x00))\n      dup2\n      mstore\n      pop\n      swap1\n      jump\t// out\n    tag_112:\n      mload(0x40)\n      dup1\n      0xa0\n      add\n      0x40\n      mstore\n      dup1\n      0x60\n      dup2\n      mstore\n      0x20\n      add\n      0x00\n      dup2\n      mstore\n      0x20\n      add\n      iszero(iszero(0x00))\n      dup2\n      mstore\n      0x20\n      add\n      iszero(iszero(0x00))\n      dup2\n      mstore\n      0x20\n      add\n      iszero(iszero(0x00))\n      dup2\n      mstore\n      pop\n      swap1\n      jump\t// out\n    tag_154:\n      dup3\n      dup1\n      sload\n      tag_168\n      swap1\n      tag_46\n      jump\t// in\n    tag_168:\n      swap1\n      0x00\n      mstore\n      keccak256(0x00, 0x20)\n      swap1\n      0x1f\n      add\n      0x20\n      swap1\n      div\n      dup2\n      add\n      swap3\n      dup3\n      tag_170\n      jumpi\n      0x00\n      dup6\n      sstore\n      jump(tag_169)\n    tag_170:\n      dup3\n      0x1f\n      lt\n      tag_171\n      jumpi\n      dup1\n      sload\n      dup6\n      sstore\n      jump(tag_169)\n    tag_171:\n      dup3\n      dup1\n      add\n      0x01\n      add\n      dup6\n      sstore\n      dup3\n      iszero\n      tag_169\n      jumpi\n      0x00\n      mstore\n      keccak256(0x00, 0x20)\n      swap2\n      0x1f\n      add\n      0x20\n      swap1\n      div\n      dup3\n      add\n    tag_172:\n      dup3\n      dup2\n      gt\n      iszero\n      tag_173\n      jumpi\n      dup3\n      sload\n      dup3\n      sstore\n      swap2\n      0x01\n      add\n      swap2\n      swap1\n      0x01\n      add\n      swap1\n      jump(tag_172)\n    tag_173:\n    tag_169:\n      pop\n      swap1\n      pop\n      tag_174\n      swap2\n      swap1\n      tag_167\n      jump\t// in\n    tag_174:\n      pop\n      swap1\n      jump\t// out\n    tag_167:\n    tag_175:\n      dup1\n      dup3\n      gt\n      iszero\n      tag_176\n      jumpi\n      0x00\n      dup2\n      0x00\n      swap1\n      sstore\n      pop\n      0x01\n      add\n      jump(tag_175)\n    tag_176:\n      pop\n      swap1\n      jump\t// out\n        /* \"#utility.yul\":7:419   */\n    tag_178:\n        /* \"#utility.yul\":85:90   */\n      0x00\n        /* \"#utility.yul\":110:176   */\n      tag_180\n        /* \"#utility.yul\":126:175   */\n      tag_181\n        /* \"#utility.yul\":168:174   */\n      dup5\n        /* \"#utility.yul\":126:175   */\n      tag_182\n      jump\t// in\n    tag_181:\n        /* \"#utility.yul\":110:176   */\n      tag_183\n      jump\t// in\n    tag_180:\n        /* \"#utility.yul\":101:176   */\n      swap1\n      pop\n        /* \"#utility.yul\":199:205   */\n      dup3\n        /* \"#utility.yul\":192:197   */\n      dup2\n        /* \"#utility.yul\":185:206   */\n      mstore\n        /* \"#utility.yul\":237:241   */\n      0x20\n        /* \"#utility.yul\":230:235   */\n      dup2\n        /* \"#utility.yul\":226:242   */\n      add\n        /* \"#utility.yul\":275:278   */\n      dup5\n        /* \"#utility.yul\":266:272   */\n      dup5\n        /* \"#utility.yul\":261:264   */\n      dup5\n        /* \"#utility.yul\":257:273   */\n      add\n        /* \"#utility.yul\":254:279   */\n      gt\n        /* \"#utility.yul\":251:363   */\n      iszero\n      tag_184\n      jumpi\n        /* \"#utility.yul\":282:361   */\n      tag_185\n      tag_186\n      jump\t// in\n    tag_185:\n        /* \"#utility.yul\":251:363   */\n    tag_184:\n        /* \"#utility.yul\":372:413   */\n      tag_187\n        /* \"#utility.yul\":406:412   */\n      dup5\n        /* \"#utility.yul\":401:404   */\n      dup3\n        /* \"#utility.yul\":396:399   */\n      dup6\n        /* \"#utility.yul\":372:413   */\n      tag_188\n      jump\t// in\n    tag_187:\n        /* \"#utility.yul\":91:419   */\n      pop\n        /* \"#utility.yul\":7:419   */\n      swap4\n      swap3\n      pop\n      pop\n      pop\n      jump\t// out\n        /* \"#utility.yul\":439:779   */\n    tag_189:\n        /* \"#utility.yul\":495:500   */\n      0x00\n        /* \"#utility.yul\":544:547   */\n      dup3\n        /* \"#utility.yul\":537:541   */\n      0x1f\n        /* \"#utility.yul\":529:535   */\n      dup4\n        /* \"#utility.yul\":525:542   */\n      add\n        /* \"#utility.yul\":521:548   */\n      slt\n        /* \"#utility.yul\":511:633   */\n      tag_191\n      jumpi\n        /* \"#utility.yul\":552:631   */\n      tag_192\n      tag_193\n      jump\t// in\n    tag_192:\n        /* \"#utility.yul\":511:633   */\n    tag_191:\n        /* \"#utility.yul\":669:675   */\n      dup2\n        /* \"#utility.yul\":656:676   */\n      calldataload\n        /* \"#utility.yul\":694:773   */\n      tag_194\n        /* \"#utility.yul\":769:772   */\n      dup5\n        /* \"#utility.yul\":761:767   */\n      dup3\n        /* \"#utility.yul\":754:758   */\n      0x20\n        /* \"#utility.yul\":746:752   */\n      dup7\n        /* \"#utility.yul\":742:759   */\n      add\n        /* \"#utility.yul\":694:773   */\n      tag_178\n      jump\t// in\n    tag_194:\n        /* \"#utility.yul\":685:773   */\n      swap2\n      pop\n        /* \"#utility.yul\":501:779   */\n      pop\n        /* \"#utility.yul\":439:779   */\n      swap3\n      swap2\n      pop\n      pop\n      jump\t// out\n        /* \"#utility.yul\":785:924   */\n    tag_195:\n        /* \"#utility.yul\":831:836   */\n      0x00\n        /* \"#utility.yul\":869:875   */\n      dup2\n        /* \"#utility.yul\":856:876   */\n      calldataload\n        /* \"#utility.yul\":847:876   */\n      swap1\n      pop\n        /* \"#utility.yul\":885:918   */\n      tag_197\n        /* \"#utility.yul\":912:917   */\n      dup2\n        /* \"#utility.yul\":885:918   */\n      tag_198\n      jump\t// in\n    tag_197:\n        /* \"#utility.yul\":785:924   */\n      swap3\n      swap2\n      pop\n      pop\n      jump\t// out\n        /* \"#utility.yul\":930:1439   */\n    tag_17:\n        /* \"#utility.yul\":999:1005   */\n      0x00\n        /* \"#utility.yul\":1048:1050   */\n      0x20\n        /* \"#utility.yul\":1036:1045   */\n      dup3\n        /* \"#utility.yul\":1027:1034   */\n      dup5\n        /* \"#utility.yul\":1023:1046   */\n      sub\n        /* \"#utility.yul\":1019:1051   */\n      slt\n        /* \"#utility.yul\":1016:1135   */\n      iszero\n      tag_200\n      jumpi\n        /* \"#utility.yul\":1054:1133   */\n      tag_201\n      tag_202\n      jump\t// in\n    tag_201:\n        /* \"#utility.yul\":1016:1135   */\n    tag_200:\n        /* \"#utility.yul\":1202:1203   */\n      0x00\n        /* \"#utility.yul\":1191:1200   */\n      dup3\n        /* \"#utility.yul\":1187:1204   */\n      add\n        /* \"#utility.yul\":1174:1205   */\n      calldataload\n        /* \"#utility.yul\":1232:1250   */\n      0xffffffffffffffff\n        /* \"#utility.yul\":1224:1230   */\n      dup2\n        /* \"#utility.yul\":1221:1251   */\n      gt\n        /* \"#utility.yul\":1218:1335   */\n      iszero\n      tag_203\n      jumpi\n        /* \"#utility.yul\":1254:1333   */\n      tag_204\n      tag_205\n      jump\t// in\n    tag_204:\n        /* \"#utility.yul\":1218:1335   */\n    tag_203:\n        /* \"#utility.yul\":1359:1422   */\n      tag_206\n        /* \"#utility.yul\":1414:1421   */\n      dup5\n        /* \"#utility.yul\":1405:1411   */\n      dup3\n        /* \"#utility.yul\":1394:1403   */\n      dup6\n        /* \"#utility.yul\":1390:1412   */\n      add\n        /* \"#utility.yul\":1359:1422   */\n      tag_189\n      jump\t// in\n    tag_206:\n        /* \"#utility.yul\":1349:1422   */\n      swap2\n      pop\n        /* \"#utility.yul\":1145:1432   */\n      pop\n        /* \"#utility.yul\":930:1439   */\n      swap3\n      swap2\n      pop\n      pop\n      jump\t// out\n        /* \"#utility.yul\":1445:1774   */\n    tag_11:\n        /* \"#utility.yul\":1504:1510   */\n      0x00\n        /* \"#utility.yul\":1553:1555   */\n      0x20\n        /* \"#utility.yul\":1541:1550   */\n      dup3\n        /* \"#utility.yul\":1532:1539   */\n      dup5\n        /* \"#utility.yul\":1528:1551   */\n      sub\n        /* \"#utility.yul\":1524:1556   */\n      slt\n        /* \"#utility.yul\":1521:1640   */\n      iszero\n      tag_208\n      jumpi\n        /* \"#utility.yul\":1559:1638   */\n      tag_209\n      tag_202\n      jump\t// in\n    tag_209:\n        /* \"#utility.yul\":1521:1640   */\n    tag_208:\n        /* \"#utility.yul\":1679:1680   */\n      0x00\n        /* \"#utility.yul\":1704:1757   */\n      tag_210\n        /* \"#utility.yul\":1749:1756   */\n      dup5\n        /* \"#utility.yul\":1740:1746   */\n      dup3\n        /* \"#utility.yul\":1729:1738   */\n      dup6\n        /* \"#utility.yul\":1725:1747   */\n      add\n        /* \"#utility.yul\":1704:1757   */\n      tag_195\n      jump\t// in\n    tag_210:\n        /* \"#utility.yul\":1694:1757   */\n      swap2\n      pop\n        /* \"#utility.yul\":1650:1767   */\n      pop\n        /* \"#utility.yul\":1445:1774   */\n      swap3\n      swap2\n      pop\n      pop\n      jump\t// out\n        /* \"#utility.yul\":1780:2254   */\n    tag_35:\n        /* \"#utility.yul\":1848:1854   */\n      0x00\n        /* \"#utility.yul\":1856:1862   */\n      dup1\n        /* \"#utility.yul\":1905:1907   */\n      0x40\n        /* \"#utility.yul\":1893:1902   */\n      dup4\n        /* \"#utility.yul\":1884:1891   */\n      dup6\n        /* \"#utility.yul\":1880:1903   */\n      sub\n        /* \"#utility.yul\":1876:1908   */\n      slt\n        /* \"#utility.yul\":1873:1992   */\n      iszero\n      tag_212\n      jumpi\n        /* \"#utility.yul\":1911:1990   */\n      tag_213\n      tag_202\n      jump\t// in\n    tag_213:\n        /* \"#utility.yul\":1873:1992   */\n    tag_212:\n        /* \"#utility.yul\":2031:2032   */\n      0x00\n        /* \"#utility.yul\":2056:2109   */\n      tag_214\n        /* \"#utility.yul\":2101:2108   */\n      dup6\n        /* \"#utility.yul\":2092:2098   */\n      dup3\n        /* \"#utility.yul\":2081:2090   */\n      dup7\n        /* \"#utility.yul\":2077:2099   */\n      add\n        /* \"#utility.yul\":2056:2109   */\n      tag_195\n      jump\t// in\n    tag_214:\n        /* \"#utility.yul\":2046:2109   */\n      swap3\n      pop\n        /* \"#utility.yul\":2002:2119   */\n      pop\n        /* \"#utility.yul\":2158:2160   */\n      0x20\n        /* \"#utility.yul\":2184:2237   */\n      tag_215\n        /* \"#utility.yul\":2229:2236   */\n      dup6\n        /* \"#utility.yul\":2220:2226   */\n      dup3\n        /* \"#utility.yul\":2209:2218   */\n      dup7\n        /* \"#utility.yul\":2205:2227   */\n      add\n        /* \"#utility.yul\":2184:2237   */\n      tag_195\n      jump\t// in\n    tag_215:\n        /* \"#utility.yul\":2174:2237   */\n      swap2\n      pop\n        /* \"#utility.yul\":2129:2247   */\n      pop\n        /* \"#utility.yul\":1780:2254   */\n      swap3\n      pop\n      swap3\n      swap1\n      pop\n      jump\t// out\n        /* \"#utility.yul\":2260:2879   */\n    tag_26:\n        /* \"#utility.yul\":2337:2343   */\n      0x00\n        /* \"#utility.yul\":2345:2351   */\n      dup1\n        /* \"#utility.yul\":2353:2359   */\n      0x00\n        /* \"#utility.yul\":2402:2404   */\n      0x60\n        /* \"#utility.yul\":2390:2399   */\n      dup5\n        /* \"#utility.yul\":2381:2388   */\n      dup7\n        /* \"#utility.yul\":2377:2400   */\n      sub\n        /* \"#utility.yul\":2373:2405   */\n      slt\n        /* \"#utility.yul\":2370:2489   */\n      iszero\n      tag_217\n      jumpi\n        /* \"#utility.yul\":2408:2487   */\n      tag_218\n      tag_202\n      jump\t// in\n    tag_218:\n        /* \"#utility.yul\":2370:2489   */\n    tag_217:\n        /* \"#utility.yul\":2528:2529   */\n      0x00\n        /* \"#utility.yul\":2553:2606   */\n      tag_219\n        /* \"#utility.yul\":2598:2605   */\n      dup7\n        /* \"#utility.yul\":2589:2595   */\n      dup3\n        /* \"#utility.yul\":2578:2587   */\n      dup8\n        /* \"#utility.yul\":2574:2596   */\n      add\n        /* \"#utility.yul\":2553:2606   */\n      tag_195\n      jump\t// in\n    tag_219:\n        /* \"#utility.yul\":2543:2606   */\n      swap4\n      pop\n        /* \"#utility.yul\":2499:2616   */\n      pop\n        /* \"#utility.yul\":2655:2657   */\n      0x20\n        /* \"#utility.yul\":2681:2734   */\n      tag_220\n        /* \"#utility.yul\":2726:2733   */\n      dup7\n        /* \"#utility.yul\":2717:2723   */\n      dup3\n        /* \"#utility.yul\":2706:2715   */\n      dup8\n        /* \"#utility.yul\":2702:2724   */\n      add\n        /* \"#utility.yul\":2681:2734   */\n      tag_195\n      jump\t// in\n    tag_220:\n        /* \"#utility.yul\":2671:2734   */\n      swap3\n      pop\n        /* \"#utility.yul\":2626:2744   */\n      pop\n        /* \"#utility.yul\":2783:2785   */\n      0x40\n        /* \"#utility.yul\":2809:2862   */\n      tag_221\n        /* \"#utility.yul\":2854:2861   */\n      dup7\n        /* \"#utility.yul\":2845:2851   */\n      dup3\n        /* \"#utility.yul\":2834:2843   */\n      dup8\n        /* \"#utility.yul\":2830:2852   */\n      add\n        /* \"#utility.yul\":2809:2862   */\n      tag_195\n      jump\t// in\n    tag_221:\n        /* \"#utility.yul\":2799:2862   */\n      swap2\n      pop\n        /* \"#utility.yul\":2754:2872   */\n      pop\n        /* \"#utility.yul\":2260:2879   */\n      swap3\n      pop\n      swap3\n      pop\n      swap3\n      jump\t// out\n        /* \"#utility.yul\":2885:2984   */\n    tag_222:\n        /* \"#utility.yul\":2956:2977   */\n      tag_224\n        /* \"#utility.yul\":2971:2976   */\n      dup2\n        /* \"#utility.yul\":2956:2977   */\n      tag_225\n      jump\t// in\n    tag_224:\n        /* \"#utility.yul\":2951:2954   */\n      dup3\n        /* \"#utility.yul\":2944:2978   */\n      mstore\n        /* \"#utility.yul\":2885:2984   */\n      pop\n      pop\n      jump\t// out\n        /* \"#utility.yul\":2990:3334   */\n    tag_226:\n        /* \"#utility.yul\":3068:3071   */\n      0x00\n        /* \"#utility.yul\":3096:3135   */\n      tag_228\n        /* \"#utility.yul\":3129:3134   */\n      dup3\n        /* \"#utility.yul\":3096:3135   */\n      tag_229\n      jump\t// in\n    tag_228:\n        /* \"#utility.yul\":3151:3212   */\n      tag_230\n        /* \"#utility.yul\":3205:3211   */\n      dup2\n        /* \"#utility.yul\":3200:3203   */\n      dup6\n        /* \"#utility.yul\":3151:3212   */\n      tag_231\n      jump\t// in\n    tag_230:\n        /* \"#utility.yul\":3144:3212   */\n      swap4\n      pop\n        /* \"#utility.yul\":3221:3273   */\n      tag_232\n        /* \"#utility.yul\":3266:3272   */\n      dup2\n        /* \"#utility.yul\":3261:3264   */\n      dup6\n        /* \"#utility.yul\":3254:3258   */\n      0x20\n        /* \"#utility.yul\":3247:3252   */\n      dup7\n        /* \"#utility.yul\":3243:3259   */\n      add\n        /* \"#utility.yul\":3221:3273   */\n      tag_233\n      jump\t// in\n    tag_232:\n        /* \"#utility.yul\":3298:3327   */\n      tag_234\n        /* \"#utility.yul\":3320:3326   */\n      dup2\n        /* \"#utility.yul\":3298:3327   */\n      tag_235\n      jump\t// in\n    tag_234:\n        /* \"#utility.yul\":3293:3296   */\n      dup5\n        /* \"#utility.yul\":3289:3328   */\n      add\n        /* \"#utility.yul\":3282:3328   */\n      swap2\n      pop\n        /* \"#utility.yul\":3072:3334   */\n      pop\n        /* \"#utility.yul\":2990:3334   */\n      swap3\n      swap2\n      pop\n      pop\n      jump\t// out\n        /* \"#utility.yul\":3340:3704   */\n    tag_236:\n        /* \"#utility.yul\":3428:3431   */\n      0x00\n        /* \"#utility.yul\":3456:3495   */\n      tag_238\n        /* \"#utility.yul\":3489:3494   */\n      dup3\n        /* \"#utility.yul\":3456:3495   */\n      tag_229\n      jump\t// in\n    tag_238:\n        /* \"#utility.yul\":3511:3582   */\n      tag_239\n        /* \"#utility.yul\":3575:3581   */\n      dup2\n        /* \"#utility.yul\":3570:3573   */\n      dup6\n        /* \"#utility.yul\":3511:3582   */\n      tag_240\n      jump\t// in\n    tag_239:\n        /* \"#utility.yul\":3504:3582   */\n      swap4\n      pop\n        /* \"#utility.yul\":3591:3643   */\n      tag_241\n        /* \"#utility.yul\":3636:3642   */\n      dup2\n        /* \"#utility.yul\":3631:3634   */\n      dup6\n        /* \"#utility.yul\":3624:3628   */\n      0x20\n        /* \"#utility.yul\":3617:3622   */\n      dup7\n        /* \"#utility.yul\":3613:3629   */\n      add\n        /* \"#utility.yul\":3591:3643   */\n      tag_233\n      jump\t// in\n    tag_241:\n        /* \"#utility.yul\":3668:3697   */\n      tag_242\n        /* \"#utility.yul\":3690:3696   */\n      dup2\n        /* \"#utility.yul\":3668:3697   */\n      tag_235\n      jump\t// in\n    tag_242:\n        /* \"#utility.yul\":3663:3666   */\n      dup5\n        /* \"#utility.yul\":3659:3698   */\n      add\n        /* \"#utility.yul\":3652:3698   */\n      swap2\n      pop\n        /* \"#utility.yul\":3432:3704   */\n      pop\n        /* \"#utility.yul\":3340:3704   */\n      swap3\n      swap2\n      pop\n      pop\n      jump\t// out\n        /* \"#utility.yul\":3710:4076   */\n    tag_243:\n        /* \"#utility.yul\":3852:3855   */\n      0x00\n        /* \"#utility.yul\":3873:3940   */\n      tag_245\n        /* \"#utility.yul\":3937:3939   */\n      0x28\n        /* \"#utility.yul\":3932:3935   */\n      dup4\n        /* \"#utility.yul\":3873:3940   */\n      tag_240\n      jump\t// in\n    tag_245:\n        /* \"#utility.yul\":3866:3940   */\n      swap2\n      pop\n        /* \"#utility.yul\":3949:4042   */\n      tag_246\n        /* \"#utility.yul\":4038:4041   */\n      dup3\n        /* \"#utility.yul\":3949:4042   */\n      tag_247\n      jump\t// in\n    tag_246:\n        /* \"#utility.yul\":4067:4069   */\n      0x40\n        /* \"#utility.yul\":4062:4065   */\n      dup3\n        /* \"#utility.yul\":4058:4070   */\n      add\n        /* \"#utility.yul\":4051:4070   */\n      swap1\n      pop\n        /* \"#utility.yul\":3710:4076   */\n      swap2\n      swap1\n      pop\n      jump\t// out\n        /* \"#utility.yul\":4082:4448   */\n    tag_248:\n        /* \"#utility.yul\":4224:4227   */\n      0x00\n        /* \"#utility.yul\":4245:4312   */\n      tag_250\n        /* \"#utility.yul\":4309:4311   */\n      0x1d\n        /* \"#utility.yul\":4304:4307   */\n      dup4\n        /* \"#utility.yul\":4245:4312   */\n      tag_240\n      jump\t// in\n    tag_250:\n        /* \"#utility.yul\":4238:4312   */\n      swap2\n      pop\n        /* \"#utility.yul\":4321:4414   */\n      tag_251\n        /* \"#utility.yul\":4410:4413   */\n      dup3\n        /* \"#utility.yul\":4321:4414   */\n      tag_252\n      jump\t// in\n    tag_251:\n        /* \"#utility.yul\":4439:4441   */\n      0x20\n        /* \"#utility.yul\":4434:4437   */\n      dup3\n        /* \"#utility.yul\":4430:4442   */\n      add\n        /* \"#utility.yul\":4423:4442   */\n      swap1\n      pop\n        /* \"#utility.yul\":4082:4448   */\n      swap2\n      swap1\n      pop\n      jump\t// out\n        /* \"#utility.yul\":4454:4820   */\n    tag_253:\n        /* \"#utility.yul\":4596:4599   */\n      0x00\n        /* \"#utility.yul\":4617:4684   */\n      tag_255\n        /* \"#utility.yul\":4681:4683   */\n      0x1d\n        /* \"#utility.yul\":4676:4679   */\n      dup4\n        /* \"#utility.yul\":4617:4684   */\n      tag_240\n      jump\t// in\n    tag_255:\n        /* \"#utility.yul\":4610:4684   */\n      swap2\n      pop\n        /* \"#utility.yul\":4693:4786   */\n      tag_256\n        /* \"#utility.yul\":4782:4785   */\n      dup3\n        /* \"#utility.yul\":4693:4786   */\n      tag_257\n      jump\t// in\n    tag_256:\n        /* \"#utility.yul\":4811:4813   */\n      0x20\n        /* \"#utility.yul\":4806:4809   */\n      dup3\n        /* \"#utility.yul\":4802:4814   */\n      add\n        /* \"#utility.yul\":4795:4814   */\n      swap1\n      pop\n        /* \"#utility.yul\":4454:4820   */\n      swap2\n      swap1\n      pop\n      jump\t// out\n        /* \"#utility.yul\":4826:5192   */\n    tag_258:\n        /* \"#utility.yul\":4968:4971   */\n      0x00\n        /* \"#utility.yul\":4989:5056   */\n      tag_260\n        /* \"#utility.yul\":5053:5055   */\n      0x2b\n        /* \"#utility.yul\":5048:5051   */\n      dup4\n        /* \"#utility.yul\":4989:5056   */\n      tag_240\n      jump\t// in\n    tag_260:\n        /* \"#utility.yul\":4982:5056   */\n      swap2\n      pop\n        /* \"#utility.yul\":5065:5158   */\n      tag_261\n        /* \"#utility.yul\":5154:5157   */\n      dup3\n        /* \"#utility.yul\":5065:5158   */\n      tag_262\n      jump\t// in\n    tag_261:\n        /* \"#utility.yul\":5183:5185   */\n      0x40\n        /* \"#utility.yul\":5178:5181   */\n      dup3\n        /* \"#utility.yul\":5174:5186   */\n      add\n        /* \"#utility.yul\":5167:5186   */\n      swap1\n      pop\n        /* \"#utility.yul\":4826:5192   */\n      swap2\n      swap1\n      pop\n      jump\t// out\n        /* \"#utility.yul\":5198:5564   */\n    tag_263:\n        /* \"#utility.yul\":5340:5343   */\n      0x00\n        /* \"#utility.yul\":5361:5428   */\n      tag_265\n        /* \"#utility.yul\":5425:5427   */\n      0x2e\n        /* \"#utility.yul\":5420:5423   */\n      dup4\n        /* \"#utility.yul\":5361:5428   */\n      tag_240\n      jump\t// in\n    tag_265:\n        /* \"#utility.yul\":5354:5428   */\n      swap2\n      pop\n        /* \"#utility.yul\":5437:5530   */\n      tag_266\n        /* \"#utility.yul\":5526:5529   */\n      dup3\n        /* \"#utility.yul\":5437:5530   */\n      tag_267\n      jump\t// in\n    tag_266:\n        /* \"#utility.yul\":5555:5557   */\n      0x40\n        /* \"#utility.yul\":5550:5553   */\n      dup3\n        /* \"#utility.yul\":5546:5558   */\n      add\n        /* \"#utility.yul\":5539:5558   */\n      swap1\n      pop\n        /* \"#utility.yul\":5198:5564   */\n      swap2\n      swap1\n      pop\n      jump\t// out\n        /* \"#utility.yul\":5570:5936   */\n    tag_268:\n        /* \"#utility.yul\":5712:5715   */\n      0x00\n        /* \"#utility.yul\":5733:5800   */\n      tag_270\n        /* \"#utility.yul\":5797:5799   */\n      0x17\n        /* \"#utility.yul\":5792:5795   */\n      dup4\n        /* \"#utility.yul\":5733:5800   */\n      tag_240\n      jump\t// in\n    tag_270:\n        /* \"#utility.yul\":5726:5800   */\n      swap2\n      pop\n        /* \"#utility.yul\":5809:5902   */\n      tag_271\n        /* \"#utility.yul\":5898:5901   */\n      dup3\n        /* \"#utility.yul\":5809:5902   */\n      tag_272\n      jump\t// in\n    tag_271:\n        /* \"#utility.yul\":5927:5929   */\n      0x20\n        /* \"#utility.yul\":5922:5925   */\n      dup3\n        /* \"#utility.yul\":5918:5930   */\n      add\n        /* \"#utility.yul\":5911:5930   */\n      swap1\n      pop\n        /* \"#utility.yul\":5570:5936   */\n      swap2\n      swap1\n      pop\n      jump\t// out\n        /* \"#utility.yul\":5942:6308   */\n    tag_273:\n        /* \"#utility.yul\":6084:6087   */\n      0x00\n        /* \"#utility.yul\":6105:6172   */\n      tag_275\n        /* \"#utility.yul\":6169:6171   */\n      0x24\n        /* \"#utility.yul\":6164:6167   */\n      dup4\n        /* \"#utility.yul\":6105:6172   */\n      tag_240\n      jump\t// in\n    tag_275:\n        /* \"#utility.yul\":6098:6172   */\n      swap2\n      pop\n        /* \"#utility.yul\":6181:6274   */\n      tag_276\n        /* \"#utility.yul\":6270:6273   */\n      dup3\n        /* \"#utility.yul\":6181:6274   */\n      tag_277\n      jump\t// in\n    tag_276:\n        /* \"#utility.yul\":6299:6301   */\n      0x40\n        /* \"#utility.yul\":6294:6297   */\n      dup3\n        /* \"#utility.yul\":6290:6302   */\n      add\n        /* \"#utility.yul\":6283:6302   */\n      swap1\n      pop\n        /* \"#utility.yul\":5942:6308   */\n      swap2\n      swap1\n      pop\n      jump\t// out\n        /* \"#utility.yul\":6380:7519   */\n    tag_278:\n        /* \"#utility.yul\":6493:6496   */\n      0x00\n        /* \"#utility.yul\":6529:6533   */\n      0xa0\n        /* \"#utility.yul\":6524:6527   */\n      dup4\n        /* \"#utility.yul\":6520:6534   */\n      add\n        /* \"#utility.yul\":6621:6625   */\n      0x00\n        /* \"#utility.yul\":6614:6619   */\n      dup4\n        /* \"#utility.yul\":6610:6626   */\n      add\n        /* \"#utility.yul\":6604:6627   */\n      mload\n        /* \"#utility.yul\":6640:6703   */\n      tag_280\n        /* \"#utility.yul\":6697:6701   */\n      0x00\n        /* \"#utility.yul\":6692:6695   */\n      dup7\n        /* \"#utility.yul\":6688:6702   */\n      add\n        /* \"#utility.yul\":6674:6686   */\n      dup3\n        /* \"#utility.yul\":6640:6703   */\n      tag_281\n      jump\t// in\n    tag_280:\n        /* \"#utility.yul\":6544:6713   */\n      pop\n        /* \"#utility.yul\":6800:6804   */\n      0x20\n        /* \"#utility.yul\":6793:6798   */\n      dup4\n        /* \"#utility.yul\":6789:6805   */\n      add\n        /* \"#utility.yul\":6783:6806   */\n      mload\n        /* \"#utility.yul\":6819:6882   */\n      tag_282\n        /* \"#utility.yul\":6876:6880   */\n      0x20\n        /* \"#utility.yul\":6871:6874   */\n      dup7\n        /* \"#utility.yul\":6867:6881   */\n      add\n        /* \"#utility.yul\":6853:6865   */\n      dup3\n        /* \"#utility.yul\":6819:6882   */\n      tag_281\n      jump\t// in\n    tag_282:\n        /* \"#utility.yul\":6723:6892   */\n      pop\n        /* \"#utility.yul\":6976:6980   */\n      0x40\n        /* \"#utility.yul\":6969:6974   */\n      dup4\n        /* \"#utility.yul\":6965:6981   */\n      add\n        /* \"#utility.yul\":6959:6982   */\n      mload\n        /* \"#utility.yul\":7029:7032   */\n      dup5\n        /* \"#utility.yul\":7023:7027   */\n      dup3\n        /* \"#utility.yul\":7019:7033   */\n      sub\n        /* \"#utility.yul\":7012:7016   */\n      0x40\n        /* \"#utility.yul\":7007:7010   */\n      dup7\n        /* \"#utility.yul\":7003:7017   */\n      add\n        /* \"#utility.yul\":6996:7034   */\n      mstore\n        /* \"#utility.yul\":7055:7128   */\n      tag_283\n        /* \"#utility.yul\":7123:7127   */\n      dup3\n        /* \"#utility.yul\":7109:7121   */\n      dup3\n        /* \"#utility.yul\":7055:7128   */\n      tag_226\n      jump\t// in\n    tag_283:\n        /* \"#utility.yul\":7047:7128   */\n      swap2\n      pop\n        /* \"#utility.yul\":6902:7139   */\n      pop\n        /* \"#utility.yul\":7228:7232   */\n      0x60\n        /* \"#utility.yul\":7221:7226   */\n      dup4\n        /* \"#utility.yul\":7217:7233   */\n      add\n        /* \"#utility.yul\":7211:7234   */\n      mload\n        /* \"#utility.yul\":7247:7310   */\n      tag_284\n        /* \"#utility.yul\":7304:7308   */\n      0x60\n        /* \"#utility.yul\":7299:7302   */\n      dup7\n        /* \"#utility.yul\":7295:7309   */\n      add\n        /* \"#utility.yul\":7281:7293   */\n      dup3\n        /* \"#utility.yul\":7247:7310   */\n      tag_281\n      jump\t// in\n    tag_284:\n        /* \"#utility.yul\":7149:7320   */\n      pop\n        /* \"#utility.yul\":7406:7410   */\n      0x80\n        /* \"#utility.yul\":7399:7404   */\n      dup4\n        /* \"#utility.yul\":7395:7411   */\n      add\n        /* \"#utility.yul\":7389:7412   */\n      mload\n        /* \"#utility.yul\":7425:7482   */\n      tag_285\n        /* \"#utility.yul\":7476:7480   */\n      0x80\n        /* \"#utility.yul\":7471:7474   */\n      dup7\n        /* \"#utility.yul\":7467:7481   */\n      add\n        /* \"#utility.yul\":7453:7465   */\n      dup3\n        /* \"#utility.yul\":7425:7482   */\n      tag_222\n      jump\t// in\n    tag_285:\n        /* \"#utility.yul\":7330:7492   */\n      pop\n        /* \"#utility.yul\":7509:7513   */\n      dup1\n        /* \"#utility.yul\":7502:7513   */\n      swap2\n      pop\n        /* \"#utility.yul\":6498:7519   */\n      pop\n        /* \"#utility.yul\":6380:7519   */\n      swap3\n      swap2\n      pop\n      pop\n      jump\t// out\n        /* \"#utility.yul\":7591:8710   */\n    tag_286:\n        /* \"#utility.yul\":7704:7707   */\n      0x00\n        /* \"#utility.yul\":7740:7744   */\n      0xa0\n        /* \"#utility.yul\":7735:7738   */\n      dup4\n        /* \"#utility.yul\":7731:7745   */\n      add\n        /* \"#utility.yul\":7827:7831   */\n      0x00\n        /* \"#utility.yul\":7820:7825   */\n      dup4\n        /* \"#utility.yul\":7816:7832   */\n      add\n        /* \"#utility.yul\":7810:7833   */\n      mload\n        /* \"#utility.yul\":7880:7883   */\n      dup5\n        /* \"#utility.yul\":7874:7878   */\n      dup3\n        /* \"#utility.yul\":7870:7884   */\n      sub\n        /* \"#utility.yul\":7863:7867   */\n      0x00\n        /* \"#utility.yul\":7858:7861   */\n      dup7\n        /* \"#utility.yul\":7854:7868   */\n      add\n        /* \"#utility.yul\":7847:7885   */\n      mstore\n        /* \"#utility.yul\":7906:7979   */\n      tag_288\n        /* \"#utility.yul\":7974:7978   */\n      dup3\n        /* \"#utility.yul\":7960:7972   */\n      dup3\n        /* \"#utility.yul\":7906:7979   */\n      tag_226\n      jump\t// in\n    tag_288:\n        /* \"#utility.yul\":7898:7979   */\n      swap2\n      pop\n        /* \"#utility.yul\":7755:7990   */\n      pop\n        /* \"#utility.yul\":8073:8077   */\n      0x20\n        /* \"#utility.yul\":8066:8071   */\n      dup4\n        /* \"#utility.yul\":8062:8078   */\n      add\n        /* \"#utility.yul\":8056:8079   */\n      mload\n        /* \"#utility.yul\":8092:8155   */\n      tag_289\n        /* \"#utility.yul\":8149:8153   */\n      0x20\n        /* \"#utility.yul\":8144:8147   */\n      dup7\n        /* \"#utility.yul\":8140:8154   */\n      add\n        /* \"#utility.yul\":8126:8138   */\n      dup3\n        /* \"#utility.yul\":8092:8155   */\n      tag_281\n      jump\t// in\n    tag_289:\n        /* \"#utility.yul\":8000:8165   */\n      pop\n        /* \"#utility.yul\":8252:8256   */\n      0x40\n        /* \"#utility.yul\":8245:8250   */\n      dup4\n        /* \"#utility.yul\":8241:8257   */\n      add\n        /* \"#utility.yul\":8235:8258   */\n      mload\n        /* \"#utility.yul\":8271:8328   */\n      tag_290\n        /* \"#utility.yul\":8322:8326   */\n      0x40\n        /* \"#utility.yul\":8317:8320   */\n      dup7\n        /* \"#utility.yul\":8313:8327   */\n      add\n        /* \"#utility.yul\":8299:8311   */\n      dup3\n        /* \"#utility.yul\":8271:8328   */\n      tag_222\n      jump\t// in\n    tag_290:\n        /* \"#utility.yul\":8175:8338   */\n      pop\n        /* \"#utility.yul\":8425:8429   */\n      0x60\n        /* \"#utility.yul\":8418:8423   */\n      dup4\n        /* \"#utility.yul\":8414:8430   */\n      add\n        /* \"#utility.yul\":8408:8431   */\n      mload\n        /* \"#utility.yul\":8444:8501   */\n      tag_291\n        /* \"#utility.yul\":8495:8499   */\n      0x60\n        /* \"#utility.yul\":8490:8493   */\n      dup7\n        /* \"#utility.yul\":8486:8500   */\n      add\n        /* \"#utility.yul\":8472:8484   */\n      dup3\n        /* \"#utility.yul\":8444:8501   */\n      tag_222\n      jump\t// in\n    tag_291:\n        /* \"#utility.yul\":8348:8511   */\n      pop\n        /* \"#utility.yul\":8597:8601   */\n      0x80\n        /* \"#utility.yul\":8590:8595   */\n      dup4\n        /* \"#utility.yul\":8586:8602   */\n      add\n        /* \"#utility.yul\":8580:8603   */\n      mload\n        /* \"#utility.yul\":8616:8673   */\n      tag_292\n        /* \"#utility.yul\":8667:8671   */\n      0x80\n        /* \"#utility.yul\":8662:8665   */\n      dup7\n        /* \"#utility.yul\":8658:8672   */\n      add\n        /* \"#utility.yul\":8644:8656   */\n      dup3\n        /* \"#utility.yul\":8616:8673   */\n      tag_222\n      jump\t// in\n    tag_292:\n        /* \"#utility.yul\":8521:8683   */\n      pop\n        /* \"#utility.yul\":8700:8704   */\n      dup1\n        /* \"#utility.yul\":8693:8704   */\n      swap2\n      pop\n        /* \"#utility.yul\":7709:8710   */\n      pop\n        /* \"#utility.yul\":7591:8710   */\n      swap3\n      swap2\n      pop\n      pop\n      jump\t// out\n        /* \"#utility.yul\":8716:8824   */\n    tag_281:\n        /* \"#utility.yul\":8793:8817   */\n      tag_294\n        /* \"#utility.yul\":8811:8816   */\n      dup2\n        /* \"#utility.yul\":8793:8817   */\n      tag_295\n      jump\t// in\n    tag_294:\n        /* \"#utility.yul\":8788:8791   */\n      dup3\n        /* \"#utility.yul\":8781:8818   */\n      mstore\n        /* \"#utility.yul\":8716:8824   */\n      pop\n      pop\n      jump\t// out\n        /* \"#utility.yul\":8830:9143   */\n    tag_14:\n        /* \"#utility.yul\":8943:8947   */\n      0x00\n        /* \"#utility.yul\":8981:8983   */\n      0x20\n        /* \"#utility.yul\":8970:8979   */\n      dup3\n        /* \"#utility.yul\":8966:8984   */\n      add\n        /* \"#utility.yul\":8958:8984   */\n      swap1\n      pop\n        /* \"#utility.yul\":9030:9039   */\n      dup2\n        /* \"#utility.yul\":9024:9028   */\n      dup2\n        /* \"#utility.yul\":9020:9040   */\n      sub\n        /* \"#utility.yul\":9016:9017   */\n      0x00\n        /* \"#utility.yul\":9005:9014   */\n      dup4\n        /* \"#utility.yul\":9001:9018   */\n      add\n        /* \"#utility.yul\":8994:9041   */\n      mstore\n        /* \"#utility.yul\":9058:9136   */\n      tag_297\n        /* \"#utility.yul\":9131:9135   */\n      dup2\n        /* \"#utility.yul\":9122:9128   */\n      dup5\n        /* \"#utility.yul\":9058:9136   */\n      tag_236\n      jump\t// in\n    tag_297:\n        /* \"#utility.yul\":9050:9136   */\n      swap1\n      pop\n        /* \"#utility.yul\":8830:9143   */\n      swap3\n      swap2\n      pop\n      pop\n      jump\t// out\n        /* \"#utility.yul\":9149:9568   */\n    tag_93:\n        /* \"#utility.yul\":9315:9319   */\n      0x00\n        /* \"#utility.yul\":9353:9355   */\n      0x20\n        /* \"#utility.yul\":9342:9351   */\n      dup3\n        /* \"#utility.yul\":9338:9356   */\n      add\n        /* \"#utility.yul\":9330:9356   */\n      swap1\n      pop\n        /* \"#utility.yul\":9402:9411   */\n      dup2\n        /* \"#utility.yul\":9396:9400   */\n      dup2\n        /* \"#utility.yul\":9392:9412   */\n      sub\n        /* \"#utility.yul\":9388:9389   */\n      0x00\n        /* \"#utility.yul\":9377:9386   */\n      dup4\n        /* \"#utility.yul\":9373:9390   */\n      add\n        /* \"#utility.yul\":9366:9413   */\n      mstore\n        /* \"#utility.yul\":9430:9561   */\n      tag_299\n        /* \"#utility.yul\":9556:9560   */\n      dup2\n        /* \"#utility.yul\":9430:9561   */\n      tag_243\n      jump\t// in\n    tag_299:\n        /* \"#utility.yul\":9422:9561   */\n      swap1\n      pop\n        /* \"#utility.yul\":9149:9568   */\n      swap2\n      swap1\n      pop\n      jump\t// out\n        /* \"#utility.yul\":9574:9993   */\n    tag_60:\n        /* \"#utility.yul\":9740:9744   */\n      0x00\n        /* \"#utility.yul\":9778:9780   */\n      0x20\n        /* \"#utility.yul\":9767:9776   */\n      dup3\n        /* \"#utility.yul\":9763:9781   */\n      add\n        /* \"#utility.yul\":9755:9781   */\n      swap1\n      pop\n        /* \"#utility.yul\":9827:9836   */\n      dup2\n        /* \"#utility.yul\":9821:9825   */\n      dup2\n        /* \"#utility.yul\":9817:9837   */\n      sub\n        /* \"#utility.yul\":9813:9814   */\n      0x00\n        /* \"#utility.yul\":9802:9811   */\n      dup4\n        /* \"#utility.yul\":9798:9815   */\n      add\n        /* \"#utility.yul\":9791:9838   */\n      mstore\n        /* \"#utility.yul\":9855:9986   */\n      tag_301\n        /* \"#utility.yul\":9981:9985   */\n      dup2\n        /* \"#utility.yul\":9855:9986   */\n      tag_248\n      jump\t// in\n    tag_301:\n        /* \"#utility.yul\":9847:9986   */\n      swap1\n      pop\n        /* \"#utility.yul\":9574:9993   */\n      swap2\n      swap1\n      pop\n      jump\t// out\n        /* \"#utility.yul\":9999:10418   */\n    tag_73:\n        /* \"#utility.yul\":10165:10169   */\n      0x00\n        /* \"#utility.yul\":10203:10205   */\n      0x20\n        /* \"#utility.yul\":10192:10201   */\n      dup3\n        /* \"#utility.yul\":10188:10206   */\n      add\n        /* \"#utility.yul\":10180:10206   */\n      swap1\n      pop\n        /* \"#utility.yul\":10252:10261   */\n      dup2\n        /* \"#utility.yul\":10246:10250   */\n      dup2\n        /* \"#utility.yul\":10242:10262   */\n      sub\n        /* \"#utility.yul\":10238:10239   */\n      0x00\n        /* \"#utility.yul\":10227:10236   */\n      dup4\n        /* \"#utility.yul\":10223:10240   */\n      add\n        /* \"#utility.yul\":10216:10263   */\n      mstore\n        /* \"#utility.yul\":10280:10411   */\n      tag_303\n        /* \"#utility.yul\":10406:10410   */\n      dup2\n        /* \"#utility.yul\":10280:10411   */\n      tag_253\n      jump\t// in\n    tag_303:\n        /* \"#utility.yul\":10272:10411   */\n      swap1\n      pop\n        /* \"#utility.yul\":9999:10418   */\n      swap2\n      swap1\n      pop\n      jump\t// out\n        /* \"#utility.yul\":10424:10843   */\n    tag_87:\n        /* \"#utility.yul\":10590:10594   */\n      0x00\n        /* \"#utility.yul\":10628:10630   */\n      0x20\n        /* \"#utility.yul\":10617:10626   */\n      dup3\n        /* \"#utility.yul\":10613:10631   */\n      add\n        /* \"#utility.yul\":10605:10631   */\n      swap1\n      pop\n        /* \"#utility.yul\":10677:10686   */\n      dup2\n        /* \"#utility.yul\":10671:10675   */\n      dup2\n        /* \"#utility.yul\":10667:10687   */\n      sub\n        /* \"#utility.yul\":10663:10664   */\n      0x00\n        /* \"#utility.yul\":10652:10661   */\n      dup4\n        /* \"#utility.yul\":10648:10665   */\n      add\n        /* \"#utility.yul\":10641:10688   */\n      mstore\n        /* \"#utility.yul\":10705:10836   */\n      tag_305\n        /* \"#utility.yul\":10831:10835   */\n      dup2\n        /* \"#utility.yul\":10705:10836   */\n      tag_258\n      jump\t// in\n    tag_305:\n        /* \"#utility.yul\":10697:10836   */\n      swap1\n      pop\n        /* \"#utility.yul\":10424:10843   */\n      swap2\n      swap1\n      pop\n      jump\t// out\n        /* \"#utility.yul\":10849:11268   */\n    tag_83:\n        /* \"#utility.yul\":11015:11019   */\n      0x00\n        /* \"#utility.yul\":11053:11055   */\n      0x20\n        /* \"#utility.yul\":11042:11051   */\n      dup3\n        /* \"#utility.yul\":11038:11056   */\n      add\n        /* \"#utility.yul\":11030:11056   */\n      swap1\n      pop\n        /* \"#utility.yul\":11102:11111   */\n      dup2\n        /* \"#utility.yul\":11096:11100   */\n      dup2\n        /* \"#utility.yul\":11092:11112   */\n      sub\n        /* \"#utility.yul\":11088:11089   */\n      0x00\n        /* \"#utility.yul\":11077:11086   */\n      dup4\n        /* \"#utility.yul\":11073:11090   */\n      add\n        /* \"#utility.yul\":11066:11113   */\n      mstore\n        /* \"#utility.yul\":11130:11261   */\n      tag_307\n        /* \"#utility.yul\":11256:11260   */\n      dup2\n        /* \"#utility.yul\":11130:11261   */\n      tag_263\n      jump\t// in\n    tag_307:\n        /* \"#utility.yul\":11122:11261   */\n      swap1\n      pop\n        /* \"#utility.yul\":10849:11268   */\n      swap2\n      swap1\n      pop\n      jump\t// out\n        /* \"#utility.yul\":11274:11693   */\n    tag_44:\n        /* \"#utility.yul\":11440:11444   */\n      0x00\n        /* \"#utility.yul\":11478:11480   */\n      0x20\n        /* \"#utility.yul\":11467:11476   */\n      dup3\n        /* \"#utility.yul\":11463:11481   */\n      add\n        /* \"#utility.yul\":11455:11481   */\n      swap1\n      pop\n        /* \"#utility.yul\":11527:11536   */\n      dup2\n        /* \"#utility.yul\":11521:11525   */\n      dup2\n        /* \"#utility.yul\":11517:11537   */\n      sub\n        /* \"#utility.yul\":11513:11514   */\n      0x00\n        /* \"#utility.yul\":11502:11511   */\n      dup4\n        /* \"#utility.yul\":11498:11515   */\n      add\n        /* \"#utility.yul\":11491:11538   */\n      mstore\n        /* \"#utility.yul\":11555:11686   */\n      tag_309\n        /* \"#utility.yul\":11681:11685   */\n      dup2\n        /* \"#utility.yul\":11555:11686   */\n      tag_268\n      jump\t// in\n    tag_309:\n        /* \"#utility.yul\":11547:11686   */\n      swap1\n      pop\n        /* \"#utility.yul\":11274:11693   */\n      swap2\n      swap1\n      pop\n      jump\t// out\n        /* \"#utility.yul\":11699:12118   */\n    tag_139:\n        /* \"#utility.yul\":11865:11869   */\n      0x00\n        /* \"#utility.yul\":11903:11905   */\n      0x20\n        /* \"#utility.yul\":11892:11901   */\n      dup3\n        /* \"#utility.yul\":11888:11906   */\n      add\n        /* \"#utility.yul\":11880:11906   */\n      swap1\n      pop\n        /* \"#utility.yul\":11952:11961   */\n      dup2\n        /* \"#utility.yul\":11946:11950   */\n      dup2\n        /* \"#utility.yul\":11942:11962   */\n      sub\n        /* \"#utility.yul\":11938:11939   */\n      0x00\n        /* \"#utility.yul\":11927:11936   */\n      dup4\n        /* \"#utility.yul\":11923:11940   */\n      add\n        /* \"#utility.yul\":11916:11963   */\n      mstore\n        /* \"#utility.yul\":11980:12111   */\n      tag_311\n        /* \"#utility.yul\":12106:12110   */\n      dup2\n        /* \"#utility.yul\":11980:12111   */\n      tag_273\n      jump\t// in\n    tag_311:\n        /* \"#utility.yul\":11972:12111   */\n      swap1\n      pop\n        /* \"#utility.yul\":11699:12118   */\n      swap2\n      swap1\n      pop\n      jump\t// out\n        /* \"#utility.yul\":12124:12485   */\n    tag_23:\n        /* \"#utility.yul\":12261:12265   */\n      0x00\n        /* \"#utility.yul\":12299:12301   */\n      0x20\n        /* \"#utility.yul\":12288:12297   */\n      dup3\n        /* \"#utility.yul\":12284:12302   */\n      add\n        /* \"#utility.yul\":12276:12302   */\n      swap1\n      pop\n        /* \"#utility.yul\":12348:12357   */\n      dup2\n        /* \"#utility.yul\":12342:12346   */\n      dup2\n        /* \"#utility.yul\":12338:12358   */\n      sub\n        /* \"#utility.yul\":12334:12335   */\n      0x00\n        /* \"#utility.yul\":12323:12332   */\n      dup4\n        /* \"#utility.yul\":12319:12336   */\n      add\n        /* \"#utility.yul\":12312:12359   */\n      mstore\n        /* \"#utility.yul\":12376:12478   */\n      tag_313\n        /* \"#utility.yul\":12473:12477   */\n      dup2\n        /* \"#utility.yul\":12464:12470   */\n      dup5\n        /* \"#utility.yul\":12376:12478   */\n      tag_278\n      jump\t// in\n    tag_313:\n        /* \"#utility.yul\":12368:12478   */\n      swap1\n      pop\n        /* \"#utility.yul\":12124:12485   */\n      swap3\n      swap2\n      pop\n      pop\n      jump\t// out\n        /* \"#utility.yul\":12491:12852   */\n    tag_32:\n        /* \"#utility.yul\":12628:12632   */\n      0x00\n        /* \"#utility.yul\":12666:12668   */\n      0x20\n        /* \"#utility.yul\":12655:12664   */\n      dup3\n        /* \"#utility.yul\":12651:12669   */\n      add\n        /* \"#utility.yul\":12643:12669   */\n      swap1\n      pop\n        /* \"#utility.yul\":12715:12724   */\n      dup2\n        /* \"#utility.yul\":12709:12713   */\n      dup2\n        /* \"#utility.yul\":12705:12725   */\n      sub\n        /* \"#utility.yul\":12701:12702   */\n      0x00\n        /* \"#utility.yul\":12690:12699   */\n      dup4\n        /* \"#utility.yul\":12686:12703   */\n      add\n        /* \"#utility.yul\":12679:12726   */\n      mstore\n        /* \"#utility.yul\":12743:12845   */\n      tag_315\n        /* \"#utility.yul\":12840:12844   */\n      dup2\n        /* \"#utility.yul\":12831:12837   */\n      dup5\n        /* \"#utility.yul\":12743:12845   */\n      tag_286\n      jump\t// in\n    tag_315:\n        /* \"#utility.yul\":12735:12845   */\n      swap1\n      pop\n        /* \"#utility.yul\":12491:12852   */\n      swap3\n      swap2\n      pop\n      pop\n      jump\t// out\n        /* \"#utility.yul\":12858:12987   */\n    tag_183:\n        /* \"#utility.yul\":12892:12898   */\n      0x00\n        /* \"#utility.yul\":12919:12939   */\n      tag_317\n      tag_318\n      jump\t// in\n    tag_317:\n        /* \"#utility.yul\":12909:12939   */\n      swap1\n      pop\n        /* \"#utility.yul\":12948:12981   */\n      tag_319\n        /* \"#utility.yul\":12976:12980   */\n      dup3\n        /* \"#utility.yul\":12968:12974   */\n      dup3\n        /* \"#utility.yul\":12948:12981   */\n      tag_320\n      jump\t// in\n    tag_319:\n        /* \"#utility.yul\":12858:12987   */\n      swap2\n      swap1\n      pop\n      jump\t// out\n        /* \"#utility.yul\":12993:13068   */\n    tag_318:\n        /* \"#utility.yul\":13026:13032   */\n      0x00\n        /* \"#utility.yul\":13059:13061   */\n      0x40\n        /* \"#utility.yul\":13053:13062   */\n      mload\n        /* \"#utility.yul\":13043:13062   */\n      swap1\n      pop\n        /* \"#utility.yul\":12993:13068   */\n      swap1\n      jump\t// out\n        /* \"#utility.yul\":13074:13382   */\n    tag_182:\n        /* \"#utility.yul\":13136:13140   */\n      0x00\n        /* \"#utility.yul\":13226:13244   */\n      0xffffffffffffffff\n        /* \"#utility.yul\":13218:13224   */\n      dup3\n        /* \"#utility.yul\":13215:13245   */\n      gt\n        /* \"#utility.yul\":13212:13268   */\n      iszero\n      tag_323\n      jumpi\n        /* \"#utility.yul\":13248:13266   */\n      tag_324\n      tag_325\n      jump\t// in\n    tag_324:\n        /* \"#utility.yul\":13212:13268   */\n    tag_323:\n        /* \"#utility.yul\":13286:13315   */\n      tag_326\n        /* \"#utility.yul\":13308:13314   */\n      dup3\n        /* \"#utility.yul\":13286:13315   */\n      tag_235\n      jump\t// in\n    tag_326:\n        /* \"#utility.yul\":13278:13315   */\n      swap1\n      pop\n        /* \"#utility.yul\":13370:13374   */\n      0x20\n        /* \"#utility.yul\":13364:13368   */\n      dup2\n        /* \"#utility.yul\":13360:13375   */\n      add\n        /* \"#utility.yul\":13352:13375   */\n      swap1\n      pop\n        /* \"#utility.yul\":13074:13382   */\n      swap2\n      swap1\n      pop\n      jump\t// out\n        /* \"#utility.yul\":13388:13487   */\n    tag_229:\n        /* \"#utility.yul\":13440:13446   */\n      0x00\n        /* \"#utility.yul\":13474:13479   */\n      dup2\n        /* \"#utility.yul\":13468:13480   */\n      mload\n        /* \"#utility.yul\":13458:13480   */\n      swap1\n      pop\n        /* \"#utility.yul\":13388:13487   */\n      swap2\n      swap1\n      pop\n      jump\t// out\n        /* \"#utility.yul\":13493:13652   */\n    tag_231:\n        /* \"#utility.yul\":13567:13578   */\n      0x00\n        /* \"#utility.yul\":13601:13607   */\n      dup3\n        /* \"#utility.yul\":13596:13599   */\n      dup3\n        /* \"#utility.yul\":13589:13608   */\n      mstore\n        /* \"#utility.yul\":13641:13645   */\n      0x20\n        /* \"#utility.yul\":13636:13639   */\n      dup3\n        /* \"#utility.yul\":13632:13646   */\n      add\n        /* \"#utility.yul\":13617:13646   */\n      swap1\n      pop\n        /* \"#utility.yul\":13493:13652   */\n      swap3\n      swap2\n      pop\n      pop\n      jump\t// out\n        /* \"#utility.yul\":13658:13827   */\n    tag_240:\n        /* \"#utility.yul\":13742:13753   */\n      0x00\n        /* \"#utility.yul\":13776:13782   */\n      dup3\n        /* \"#utility.yul\":13771:13774   */\n      dup3\n        /* \"#utility.yul\":13764:13783   */\n      mstore\n        /* \"#utility.yul\":13816:13820   */\n      0x20\n        /* \"#utility.yul\":13811:13814   */\n      dup3\n        /* \"#utility.yul\":13807:13821   */\n      add\n        /* \"#utility.yul\":13792:13821   */\n      swap1\n      pop\n        /* \"#utility.yul\":13658:13827   */\n      swap3\n      swap2\n      pop\n      pop\n      jump\t// out\n        /* \"#utility.yul\":13833:13923   */\n    tag_225:\n        /* \"#utility.yul\":13867:13874   */\n      0x00\n        /* \"#utility.yul\":13910:13915   */\n      dup2\n        /* \"#utility.yul\":13903:13916   */\n      iszero\n        /* \"#utility.yul\":13896:13917   */\n      iszero\n        /* \"#utility.yul\":13885:13917   */\n      swap1\n      pop\n        /* \"#utility.yul\":13833:13923   */\n      swap2\n      swap1\n      pop\n      jump\t// out\n        /* \"#utility.yul\":13929:14006   */\n    tag_295:\n        /* \"#utility.yul\":13966:13973   */\n      0x00\n        /* \"#utility.yul\":13995:14000   */\n      dup2\n        /* \"#utility.yul\":13984:14000   */\n      swap1\n      pop\n        /* \"#utility.yul\":13929:14006   */\n      swap2\n      swap1\n      pop\n      jump\t// out\n        /* \"#utility.yul\":14012:14166   */\n    tag_188:\n        /* \"#utility.yul\":14096:14102   */\n      dup3\n        /* \"#utility.yul\":14091:14094   */\n      dup2\n        /* \"#utility.yul\":14086:14089   */\n      dup4\n        /* \"#utility.yul\":14073:14103   */\n      calldatacopy\n        /* \"#utility.yul\":14158:14159   */\n      0x00\n        /* \"#utility.yul\":14149:14155   */\n      dup4\n        /* \"#utility.yul\":14144:14147   */\n      dup4\n        /* \"#utility.yul\":14140:14156   */\n      add\n        /* \"#utility.yul\":14133:14160   */\n      mstore\n        /* \"#utility.yul\":14012:14166   */\n      pop\n      pop\n      pop\n      jump\t// out\n        /* \"#utility.yul\":14172:14479   */\n    tag_233:\n        /* \"#utility.yul\":14240:14241   */\n      0x00\n        /* \"#utility.yul\":14250:14363   */\n    tag_334:\n        /* \"#utility.yul\":14264:14270   */\n      dup4\n        /* \"#utility.yul\":14261:14262   */\n      dup2\n        /* \"#utility.yul\":14258:14271   */\n      lt\n        /* \"#utility.yul\":14250:14363   */\n      iszero\n      tag_336\n      jumpi\n        /* \"#utility.yul\":14349:14350   */\n      dup1\n        /* \"#utility.yul\":14344:14347   */\n      dup3\n        /* \"#utility.yul\":14340:14351   */\n      add\n        /* \"#utility.yul\":14334:14352   */\n      mload\n        /* \"#utility.yul\":14330:14331   */\n      dup2\n        /* \"#utility.yul\":14325:14328   */\n      dup5\n        /* \"#utility.yul\":14321:14332   */\n      add\n        /* \"#utility.yul\":14314:14353   */\n      mstore\n        /* \"#utility.yul\":14286:14288   */\n      0x20\n        /* \"#utility.yul\":14283:14284   */\n      dup2\n        /* \"#utility.yul\":14279:14289   */\n      add\n        /* \"#utility.yul\":14274:14289   */\n      swap1\n      pop\n        /* \"#utility.yul\":14250:14363   */\n      jump(tag_334)\n    tag_336:\n        /* \"#utility.yul\":14381:14387   */\n      dup4\n        /* \"#utility.yul\":14378:14379   */\n      dup2\n        /* \"#utility.yul\":14375:14388   */\n      gt\n        /* \"#utility.yul\":14372:14473   */\n      iszero\n      tag_337\n      jumpi\n        /* \"#utility.yul\":14461:14462   */\n      0x00\n        /* \"#utility.yul\":14452:14458   */\n      dup5\n        /* \"#utility.yul\":14447:14450   */\n      dup5\n        /* \"#utility.yul\":14443:14459   */\n      add\n        /* \"#utility.yul\":14436:14463   */\n      mstore\n        /* \"#utility.yul\":14372:14473   */\n    tag_337:\n        /* \"#utility.yul\":14221:14479   */\n      pop\n        /* \"#utility.yul\":14172:14479   */\n      pop\n      pop\n      pop\n      jump\t// out\n        /* \"#utility.yul\":14485:14656   */\n    tag_141:\n        /* \"#utility.yul\":14524:14527   */\n      0x00\n        /* \"#utility.yul\":14547:14571   */\n      tag_339\n        /* \"#utility.yul\":14565:14570   */\n      dup3\n        /* \"#utility.yul\":14547:14571   */\n      tag_295\n      jump\t// in\n    tag_339:\n        /* \"#utility.yul\":14538:14571   */\n      swap2\n      pop\n        /* \"#utility.yul\":14593:14597   */\n      0x00\n        /* \"#utility.yul\":14586:14591   */\n      dup3\n        /* \"#utility.yul\":14583:14598   */\n      eq\n        /* \"#utility.yul\":14580:14621   */\n      iszero\n      tag_340\n      jumpi\n        /* \"#utility.yul\":14601:14619   */\n      tag_341\n      tag_342\n      jump\t// in\n    tag_341:\n        /* \"#utility.yul\":14580:14621   */\n    tag_340:\n        /* \"#utility.yul\":14648:14649   */\n      0x01\n        /* \"#utility.yul\":14641:14646   */\n      dup3\n        /* \"#utility.yul\":14637:14650   */\n      sub\n        /* \"#utility.yul\":14630:14650   */\n      swap1\n      pop\n        /* \"#utility.yul\":14485:14656   */\n      swap2\n      swap1\n      pop\n      jump\t// out\n        /* \"#utility.yul\":14662:14982   */\n    tag_46:\n        /* \"#utility.yul\":14706:14712   */\n      0x00\n        /* \"#utility.yul\":14743:14744   */\n      0x02\n        /* \"#utility.yul\":14737:14741   */\n      dup3\n        /* \"#utility.yul\":14733:14745   */\n      div\n        /* \"#utility.yul\":14723:14745   */\n      swap1\n      pop\n        /* \"#utility.yul\":14790:14791   */\n      0x01\n        /* \"#utility.yul\":14784:14788   */\n      dup3\n        /* \"#utility.yul\":14780:14792   */\n      and\n        /* \"#utility.yul\":14811:14829   */\n      dup1\n        /* \"#utility.yul\":14801:14882   */\n      tag_344\n      jumpi\n        /* \"#utility.yul\":14867:14871   */\n      0x7f\n        /* \"#utility.yul\":14859:14865   */\n      dup3\n        /* \"#utility.yul\":14855:14872   */\n      and\n        /* \"#utility.yul\":14845:14872   */\n      swap2\n      pop\n        /* \"#utility.yul\":14801:14882   */\n    tag_344:\n        /* \"#utility.yul\":14929:14931   */\n      0x20\n        /* \"#utility.yul\":14921:14927   */\n      dup3\n        /* \"#utility.yul\":14918:14932   */\n      lt\n        /* \"#utility.yul\":14898:14916   */\n      dup2\n        /* \"#utility.yul\":14895:14933   */\n      eq\n        /* \"#utility.yul\":14892:14976   */\n      iszero\n      tag_345\n      jumpi\n        /* \"#utility.yul\":14948:14966   */\n      tag_346\n      tag_347\n      jump\t// in\n    tag_346:\n        /* \"#utility.yul\":14892:14976   */\n    tag_345:\n        /* \"#utility.yul\":14713:14982   */\n      pop\n        /* \"#utility.yul\":14662:14982   */\n      swap2\n      swap1\n      pop\n      jump\t// out\n        /* \"#utility.yul\":14988:15269   */\n    tag_320:\n        /* \"#utility.yul\":15071:15098   */\n      tag_349\n        /* \"#utility.yul\":15093:15097   */\n      dup3\n        /* \"#utility.yul\":15071:15098   */\n      tag_235\n      jump\t// in\n    tag_349:\n        /* \"#utility.yul\":15063:15069   */\n      dup2\n        /* \"#utility.yul\":15059:15099   */\n      add\n        /* \"#utility.yul\":15201:15207   */\n      dup2\n        /* \"#utility.yul\":15189:15199   */\n      dup2\n        /* \"#utility.yul\":15186:15208   */\n      lt\n        /* \"#utility.yul\":15165:15183   */\n      0xffffffffffffffff\n        /* \"#utility.yul\":15153:15163   */\n      dup3\n        /* \"#utility.yul\":15150:15184   */\n      gt\n        /* \"#utility.yul\":15147:15209   */\n      or\n        /* \"#utility.yul\":15144:15232   */\n      iszero\n      tag_350\n      jumpi\n        /* \"#utility.yul\":15212:15230   */\n      tag_351\n      tag_325\n      jump\t// in\n    tag_351:\n        /* \"#utility.yul\":15144:15232   */\n    tag_350:\n        /* \"#utility.yul\":15252:15262   */\n      dup1\n        /* \"#utility.yul\":15248:15250   */\n      0x40\n        /* \"#utility.yul\":15241:15263   */\n      mstore\n        /* \"#utility.yul\":15031:15269   */\n      pop\n        /* \"#utility.yul\":14988:15269   */\n      pop\n      pop\n      jump\t// out\n        /* \"#utility.yul\":15275:15508   */\n    tag_107:\n        /* \"#utility.yul\":15314:15317   */\n      0x00\n        /* \"#utility.yul\":15337:15361   */\n      tag_353\n        /* \"#utility.yul\":15355:15360   */\n      dup3\n        /* \"#utility.yul\":15337:15361   */\n      tag_295\n      jump\t// in\n    tag_353:\n        /* \"#utility.yul\":15328:15361   */\n      swap2\n      pop\n        /* \"#utility.yul\":15383:15449   */\n      0xffffffffffffffffffffffffffffffffffffffffffffffffffffffffffffffff\n        /* \"#utility.yul\":15376:15381   */\n      dup3\n        /* \"#utility.yul\":15373:15450   */\n      eq\n        /* \"#utility.yul\":15370:15473   */\n      iszero\n      tag_354\n      jumpi\n        /* \"#utility.yul\":15453:15471   */\n      tag_355\n      tag_342\n      jump\t// in\n    tag_355:\n        /* \"#utility.yul\":15370:15473   */\n    tag_354:\n        /* \"#utility.yul\":15500:15501   */\n      0x01\n        /* \"#utility.yul\":15493:15498   */\n      dup3\n        /* \"#utility.yul\":15489:15502   */\n      add\n        /* \"#utility.yul\":15482:15502   */\n      swap1\n      pop\n        /* \"#utility.yul\":15275:15508   */\n      swap2\n      swap1\n      pop\n      jump\t// out\n        /* \"#utility.yul\":15514:15694   */\n    tag_342:\n        /* \"#utility.yul\":15562:15639   */\n      0x4e487b7100000000000000000000000000000000000000000000000000000000\n        /* \"#utility.yul\":15559:15560   */\n      0x00\n        /* \"#utility.yul\":15552:15640   */\n      mstore\n        /* \"#utility.yul\":15659:15663   */\n      0x11\n        /* \"#utility.yul\":15656:15657   */\n      0x04\n        /* \"#utility.yul\":15649:15664   */\n      mstore\n        /* \"#utility.yul\":15683:15687   */\n      0x24\n        /* \"#utility.yul\":15680:15681   */\n      0x00\n        /* \"#utility.yul\":15673:15688   */\n      revert\n        /* \"#utility.yul\":15700:15880   */\n    tag_347:\n        /* \"#utility.yul\":15748:15825   */\n      0x4e487b7100000000000000000000000000000000000000000000000000000000\n        /* \"#utility.yul\":15745:15746   */\n      0x00\n        /* \"#utility.yul\":15738:15826   */\n      mstore\n        /* \"#utility.yul\":15845:15849   */\n      0x22\n        /* \"#utility.yul\":15842:15843   */\n      0x04\n        /* \"#utility.yul\":15835:15850   */\n      mstore\n        /* \"#utility.yul\":15869:15873   */\n      0x24\n        /* \"#utility.yul\":15866:15867   */\n      0x00\n        /* \"#utility.yul\":15859:15874   */\n      revert\n        /* \"#utility.yul\":15886:16066   */\n    tag_40:\n        /* \"#utility.yul\":15934:16011   */\n      0x4e487b7100000000000000000000000000000000000000000000000000000000\n        /* \"#utility.yul\":15931:15932   */\n      0x00\n        /* \"#utility.yul\":15924:16012   */\n      mstore\n        /* \"#utility.yul\":16031:16035   */\n      0x32\n        /* \"#utility.yul\":16028:16029   */\n      0x04\n        /* \"#utility.yul\":16021:16036   */\n      mstore\n        /* \"#utility.yul\":16055:16059   */\n      0x24\n        /* \"#utility.yul\":16052:16053   */\n      0x00\n        /* \"#utility.yul\":16045:16060   */\n      revert\n        /* \"#utility.yul\":16072:16252   */\n    tag_325:\n        /* \"#utility.yul\":16120:16197   */\n      0x4e487b7100000000000000000000000000000000000000000000000000000000\n        /* \"#utility.yul\":16117:16118   */\n      0x00\n        /* \"#utility.yul\":16110:16198   */\n      mstore\n        /* \"#utility.yul\":16217:16221   */\n      0x41\n        /* \"#utility.yul\":16214:16215   */\n      0x04\n        /* \"#utility.yul\":16207:16222   */\n      mstore\n        /* \"#utility.yul\":16241:16245   */\n      0x24\n        /* \"#utility.yul\":16238:16239   */\n      0x00\n        /* \"#utility.yul\":16231:16246   */\n      revert\n        /* \"#utility.yul\":16258:16375   */\n    tag_193:\n        /* \"#utility.yul\":16367:16368   */\n      0x00\n        /* \"#utility.yul\":16364:16365   */\n      dup1\n        /* \"#utility.yul\":16357:16369   */\n      revert\n        /* \"#utility.yul\":16381:16498   */\n    tag_186:\n        /* \"#utility.yul\":16490:16491   */\n      0x00\n        /* \"#utility.yul\":16487:16488   */\n      dup1\n        /* \"#utility.yul\":16480:16492   */\n      revert\n        /* \"#utility.yul\":16504:16621   */\n    tag_205:\n        /* \"#utility.yul\":16613:16614   */\n      0x00\n        /* \"#utility.yul\":16610:16611   */\n      dup1\n        /* \"#utility.yul\":16603:16615   */\n      revert\n        /* \"#utility.yul\":16627:16744   */\n    tag_202:\n        /* \"#utility.yul\":16736:16737   */\n      0x00\n        /* \"#utility.yul\":16733:16734   */\n      dup1\n        /* \"#utility.yul\":16726:16738   */\n      revert\n        /* \"#utility.yul\":16750:16852   */\n    tag_235:\n        /* \"#utility.yul\":16791:16797   */\n      0x00\n        /* \"#utility.yul\":16842:16844   */\n      0x1f\n        /* \"#utility.yul\":16838:16845   */\n      not\n        /* \"#utility.yul\":16833:16835   */\n      0x1f\n        /* \"#utility.yul\":16826:16831   */\n      dup4\n        /* \"#utility.yul\":16822:16836   */\n      add\n        /* \"#utility.yul\":16818:16846   */\n      and\n        /* \"#utility.yul\":16808:16846   */\n      swap1\n      pop\n        /* \"#utility.yul\":16750:16852   */\n      swap2\n      swap1\n      pop\n      jump\t// out\n        /* \"#utility.yul\":16858:17085   */\n    tag_247:\n        /* \"#utility.yul\":16998:17032   */\n      0x436f77626f792068617320616c72656164792074616b656e207475726e207468\n        /* \"#utility.yul\":16994:16995   */\n      0x00\n        /* \"#utility.yul\":16986:16992   */\n      dup3\n        /* \"#utility.yul\":16982:16996   */\n      add\n        /* \"#utility.yul\":16975:17033   */\n      mstore\n        /* \"#utility.yul\":17067:17077   */\n      0x697320726f756e64000000000000000000000000000000000000000000000000\n        /* \"#utility.yul\":17062:17064   */\n      0x20\n        /* \"#utility.yul\":17054:17060   */\n      dup3\n        /* \"#utility.yul\":17050:17065   */\n      add\n        /* \"#utility.yul\":17043:17078   */\n      mstore\n        /* \"#utility.yul\":16858:17085   */\n      pop\n      jump\t// out\n        /* \"#utility.yul\":17091:17270   */\n    tag_252:\n        /* \"#utility.yul\":17231:17262   */\n      0x476976656e20626174746c65206964206f7574206f6620626f756e6473000000\n        /* \"#utility.yul\":17227:17228   */\n      0x00\n        /* \"#utility.yul\":17219:17225   */\n      dup3\n        /* \"#utility.yul\":17215:17229   */\n      add\n        /* \"#utility.yul\":17208:17263   */\n      mstore\n        /* \"#utility.yul\":17091:17270   */\n      pop\n      jump\t// out\n        /* \"#utility.yul\":17276:17455   */\n    tag_257:\n        /* \"#utility.yul\":17416:17447   */\n      0x476976656e20636f77626f79206964206f7574206f6620626f756e6473000000\n        /* \"#utility.yul\":17412:17413   */\n      0x00\n        /* \"#utility.yul\":17404:17410   */\n      dup3\n        /* \"#utility.yul\":17400:17414   */\n      add\n        /* \"#utility.yul\":17393:17448   */\n      mstore\n        /* \"#utility.yul\":17276:17455   */\n      pop\n      jump\t// out\n        /* \"#utility.yul\":17461:17691   */\n    tag_262:\n        /* \"#utility.yul\":17601:17635   */\n      0x54686520676976656e20636f77626f79206973206e6f7420696e207468652067\n        /* \"#utility.yul\":17597:17598   */\n      0x00\n        /* \"#utility.yul\":17589:17595   */\n      dup3\n        /* \"#utility.yul\":17585:17599   */\n      add\n        /* \"#utility.yul\":17578:17636   */\n      mstore\n        /* \"#utility.yul\":17670:17683   */\n      0x6976656e20626174746c65000000000000000000000000000000000000000000\n        /* \"#utility.yul\":17665:17667   */\n      0x20\n        /* \"#utility.yul\":17657:17663   */\n      dup3\n        /* \"#utility.yul\":17653:17668   */\n      add\n        /* \"#utility.yul\":17646:17684   */\n      mstore\n        /* \"#utility.yul\":17461:17691   */\n      pop\n      jump\t// out\n        /* \"#utility.yul\":17697:17930   */\n    tag_267:\n        /* \"#utility.yul\":17837:17871   */\n      0x5468652067616d65206973206f76657220796f757220636f77626f792063616e\n        /* \"#utility.yul\":17833:17834   */\n      0x00\n        /* \"#utility.yul\":17825:17831   */\n      dup3\n        /* \"#utility.yul\":17821:17835   */\n      add\n        /* \"#utility.yul\":17814:17872   */\n      mstore\n        /* \"#utility.yul\":17906:17922   */\n      0x27742074616b65207475726e732e000000000000000000000000000000000000\n        /* \"#utility.yul\":17901:17903   */\n      0x20\n        /* \"#utility.yul\":17893:17899   */\n      dup3\n        /* \"#utility.yul\":17889:17904   */\n      add\n        /* \"#utility.yul\":17882:17923   */\n      mstore\n        /* \"#utility.yul\":17697:17930   */\n      pop\n      jump\t// out\n        /* \"#utility.yul\":17936:18109   */\n    tag_272:\n        /* \"#utility.yul\":18076:18101   */\n      0x5468657265206973206e6f2077696e6e6572207965742e000000000000000000\n        /* \"#utility.yul\":18072:18073   */\n      0x00\n        /* \"#utility.yul\":18064:18070   */\n      dup3\n        /* \"#utility.yul\":18060:18074   */\n      add\n        /* \"#utility.yul\":18053:18102   */\n      mstore\n        /* \"#utility.yul\":17936:18109   */\n      pop\n      jump\t// out\n        /* \"#utility.yul\":18115:18338   */\n    tag_277:\n        /* \"#utility.yul\":18255:18289   */\n      0x596f757220636f77626f792063616e27742073686f6f7420776974686f757420\n        /* \"#utility.yul\":18251:18252   */\n      0x00\n        /* \"#utility.yul\":18243:18249   */\n      dup3\n        /* \"#utility.yul\":18239:18253   */\n      add\n        /* \"#utility.yul\":18232:18290   */\n      mstore\n        /* \"#utility.yul\":18324:18330   */\n      0x616d6d6f00000000000000000000000000000000000000000000000000000000\n        /* \"#utility.yul\":18319:18321   */\n      0x20\n        /* \"#utility.yul\":18311:18317   */\n      dup3\n        /* \"#utility.yul\":18307:18322   */\n      add\n        /* \"#utility.yul\":18300:18331   */\n      mstore\n        /* \"#utility.yul\":18115:18338   */\n      pop\n      jump\t// out\n        /* \"#utility.yul\":18344:18466   */\n    tag_198:\n        /* \"#utility.yul\":18417:18441   */\n      tag_373\n        /* \"#utility.yul\":18435:18440   */\n      dup2\n        /* \"#utility.yul\":18417:18441   */\n      tag_295\n      jump\t// in\n    tag_373:\n        /* \"#utility.yul\":18410:18415   */\n      dup2\n        /* \"#utility.yul\":18407:18442   */\n      eq\n        /* \"#utility.yul\":18397:18460   */\n      tag_374\n      jumpi\n        /* \"#utility.yul\":18456:18457   */\n      0x00\n        /* \"#utility.yul\":18453:18454   */\n      dup1\n        /* \"#utility.yul\":18446:18458   */\n      revert\n        /* \"#utility.yul\":18397:18460   */\n    tag_374:\n        /* \"#utility.yul\":18344:18466   */\n      pop\n      jump\t// out\n\n    auxdata: 0xa2646970667358221220cea75a17fc927a1755a3a54b09a5a056da131ecdb44595ff094711a2c57d9f7c64736f6c63430008070033\n}\n",
    "bytecode": {
      "linkReferences": {},
      "object": "608060405234801561001057600080fd5b506117f0806100206000396000f3fe608060405234801561001057600080fd5b50600436106100625760003560e01c80634129b2c9146100675780635f4a0b85146100975780636dd0ce7a146100b35780637dbef372146100e3578063dc118019146100ff578063df73c49f1461012f575b600080fd5b610081600480360381019061007c9190610ee3565b61014b565b60405161008e9190611214565b60405180910390f35b6100b160048036038101906100ac9190610e9a565b610258565b005b6100cd60048036038101906100c89190610ee3565b610340565b6040516100da9190611316565b60405180910390f35b6100fd60048036038101906100f89190610f50565b610490565b005b61011960048036038101906101149190610ee3565b610702565b6040516101269190611338565b60405180910390f35b61014960048036038101906101449190610f10565b610874565b005b6060600080838154811061016257610161611569565b5b906000526020600020906005020190508060040160009054906101000a900460ff166101c3576040517f08c379a00000000000000000000000000000000000000000000000000000000081526004016101ba906112d6565b60405180910390fd5b8060020180546101d29061145f565b80601f01602080910402602001604051908101604052809291908181526020018280546101fe9061145f565b801561024b5780601f106102205761010080835404028352916020019161024b565b820191906000526020600020905b81548152906001019060200180831161022e57829003601f168201915b5050505050915050919050565b60016040518060a001604052808381526020016000815260200160001515815260200160001515815260200160001515815250908060018154018082558091505060019003906000526020600020906003020160009091909190915060008201518160000190805190602001906102d0929190610c7f565b506020820151816001015560408201518160020160006101000a81548160ff02191690831515021790555060608201518160020160016101000a81548160ff02191690831515021790555060808201518160020160026101000a81548160ff021916908315150217905550505050565b610348610d05565b816000805490508110610390576040517f08c379a000000000000000000000000000000000000000000000000000000000815260040161038790611256565b60405180910390fd5b600083815481106103a4576103a3611569565b5b90600052602060002090600502016040518060a001604052908160008201548152602001600182015481526020016002820180546103e19061145f565b80601f016020809104026020016040519081016040528092919081815260200182805461040d9061145f565b801561045a5780601f1061042f5761010080835404028352916020019161045a565b820191906000526020600020905b81548152906001019060200180831161043d57829003601f168201915b50505050508152602001600382015481526020016004820160009054906101000a900460ff161515151581525050915050919050565b8160018054905081106104d8576040517f08c379a00000000000000000000000000000000000000000000000000000000081526004016104cf90611276565b60405180910390fd5b816000805490508110610520576040517f08c379a000000000000000000000000000000000000000000000000000000000815260040161051790611256565b60405180910390fd5b600080848154811061053557610534611569565b5b906000526020600020906005020190508060040160009054906101000a900460ff1615610597576040517f08c379a000000000000000000000000000000000000000000000000000000000815260040161058e906112b6565b60405180910390fd5b80600001548514806105ac5750806001015485145b6105eb576040517f08c379a00000000000000000000000000000000000000000000000000000000081526004016105e290611296565b60405180910390fd5b60006001868154811061060157610600611569565b5b906000526020600020906003020190508060020160009054906101000a900460ff1615610663576040517f08c379a000000000000000000000000000000000000000000000000000000000815260040161065a90611236565b60405180910390fd5b600087141561067a57610675816109cc565b6106ab565b60018714156106915761068c81610a23565b6106aa565b60028714156106a8576106a381610ac2565b6106a9565b5b5b5b60018160020160006101000a81548160ff0219169083151502179055508160030160008154809291906106dd906114c2565b91905055506002826003015414156106f9576106f882610aff565b5b50505050505050565b61070a610d36565b816001805490508110610752576040517f08c379a000000000000000000000000000000000000000000000000000000000815260040161074990611276565b60405180910390fd5b6001838154811061076657610765611569565b5b90600052602060002090600302016040518060a001604052908160008201805461078f9061145f565b80601f01602080910402602001604051908101604052809291908181526020018280546107bb9061145f565b80156108085780601f106107dd57610100808354040283529160200191610808565b820191906000526020600020905b8154815290600101906020018083116107eb57829003601f168201915b50505050508152602001600182015481526020016002820160009054906101000a900460ff161515151581526020016002820160019054906101000a900460ff161515151581526020016002820160029054906101000a900460ff161515151581525050915050919050565b8160018054905081106108bc576040517f08c379a00000000000000000000000000000000000000000000000000000000081526004016108b390611276565b60405180910390fd5b816001805490508110610904576040517f08c379a00000000000000000000000000000000000000000000000000000000081526004016108fb90611276565b60405180910390fd5b60006040518060a001604052808681526020018581526020016040518060200160405280600081525081526020016000815260200160001515815250908060018154018082558091505060019003906000526020600020906005020160009091909190915060008201518160000155602082015181600101556040820151816002019080519060200190610999929190610c7f565b506060820151816003015560808201518160040160006101000a81548160ff021916908315150217905550505050505050565b8060010160008154809291906109e1906114c2565b919050555060018160020160016101000a81548160ff02191690831515021790555060008160020160026101000a81548160ff02191690831515021790555050565b600181600101541015610a6b576040517f08c379a0000000000000000000000000000000000000000000000000000000008152600401610a62906112f6565b60405180910390fd5b806001016000815480929190610a8090611435565b919050555060008160020160016101000a81548160ff02191690831515021790555060018160020160026101000a81548160ff02191690831515021790555050565b60008160020160016101000a81548160ff02191690831515021790555060008160020160026101000a81548160ff02191690831515021790555050565b60006001826000015481548110610b1957610b18611569565b5b9060005260206000209060030201905060006001836001015481548110610b4357610b42611569565b5b906000526020600020906003020190508160020160029054906101000a900460ff168015610b7f57508060020160019054906101000a900460ff165b15610bc6578160000183600201908054610b989061145f565b610ba3929190610d6b565b5060018360040160006101000a81548160ff021916908315150217905550610c36565b8060020160029054906101000a900460ff168015610bf257508160020160019054906101000a900460ff165b15610c35578060000183600201908054610c0b9061145f565b610c16929190610d6b565b5060018360040160006101000a81548160ff0219169083151502179055505b5b60008260020160006101000a81548160ff02191690831515021790555060008160020160006101000a81548160ff02191690831515021790555060008360030181905550505050565b828054610c8b9061145f565b90600052602060002090601f016020900481019282610cad5760008555610cf4565b82601f10610cc657805160ff1916838001178555610cf4565b82800160010185558215610cf4579182015b82811115610cf3578251825591602001919060010190610cd8565b5b509050610d019190610df8565b5090565b6040518060a00160405280600081526020016000815260200160608152602001600081526020016000151581525090565b6040518060a0016040528060608152602001600081526020016000151581526020016000151581526020016000151581525090565b828054610d779061145f565b90600052602060002090601f016020900481019282610d995760008555610de7565b82601f10610daa5780548555610de7565b82800160010185558215610de757600052602060002091601f016020900482015b82811115610de6578254825591600101919060010190610dcb565b5b509050610df49190610df8565b5090565b5b80821115610e11576000816000905550600101610df9565b5090565b6000610e28610e238461137f565b61135a565b905082815260208101848484011115610e4457610e436115cc565b5b610e4f8482856113f3565b509392505050565b600082601f830112610e6c57610e6b6115c7565b5b8135610e7c848260208601610e15565b91505092915050565b600081359050610e94816117a3565b92915050565b600060208284031215610eb057610eaf6115d6565b5b600082013567ffffffffffffffff811115610ece57610ecd6115d1565b5b610eda84828501610e57565b91505092915050565b600060208284031215610ef957610ef86115d6565b5b6000610f0784828501610e85565b91505092915050565b60008060408385031215610f2757610f266115d6565b5b6000610f3585828601610e85565b9250506020610f4685828601610e85565b9150509250929050565b600080600060608486031215610f6957610f686115d6565b5b6000610f7786828701610e85565b9350506020610f8886828701610e85565b9250506040610f9986828701610e85565b9150509250925092565b610fac816113dd565b82525050565b6000610fbd826113b0565b610fc781856113bb565b9350610fd7818560208601611402565b610fe0816115db565b840191505092915050565b6000610ff6826113b0565b61100081856113cc565b9350611010818560208601611402565b611019816115db565b840191505092915050565b60006110316028836113cc565b915061103c826115ec565b604082019050919050565b6000611054601d836113cc565b915061105f8261163b565b602082019050919050565b6000611077601d836113cc565b915061108282611664565b602082019050919050565b600061109a602b836113cc565b91506110a58261168d565b604082019050919050565b60006110bd602e836113cc565b91506110c8826116dc565b604082019050919050565b60006110e06017836113cc565b91506110eb8261172b565b602082019050919050565b60006111036024836113cc565b915061110e82611754565b604082019050919050565b600060a0830160008301516111316000860182611205565b5060208301516111446020860182611205565b506040830151848203604086015261115c8282610fb2565b91505060608301516111716060860182611205565b5060808301516111846080860182610fa3565b508091505092915050565b600060a08301600083015184820360008601526111ac8282610fb2565b91505060208301516111c16020860182611205565b5060408301516111d46040860182610fa3565b5060608301516111e76060860182610fa3565b5060808301516111fa6080860182610fa3565b508091505092915050565b61120e816113e9565b82525050565b6000602082019050818103600083015261122e8184610feb565b905092915050565b6000602082019050818103600083015261124f81611024565b9050919050565b6000602082019050818103600083015261126f81611047565b9050919050565b6000602082019050818103600083015261128f8161106a565b9050919050565b600060208201905081810360008301526112af8161108d565b9050919050565b600060208201905081810360008301526112cf816110b0565b9050919050565b600060208201905081810360008301526112ef816110d3565b9050919050565b6000602082019050818103600083015261130f816110f6565b9050919050565b600060208201905081810360008301526113308184611119565b905092915050565b60006020820190508181036000830152611352818461118f565b905092915050565b6000611364611375565b90506113708282611491565b919050565b6000604051905090565b600067ffffffffffffffff82111561139a57611399611598565b5b6113a3826115db565b9050602081019050919050565b600081519050919050565b600082825260208201905092915050565b600082825260208201905092915050565b60008115159050919050565b6000819050919050565b82818337600083830152505050565b60005b83811015611420578082015181840152602081019050611405565b8381111561142f576000848401525b50505050565b6000611440826113e9565b915060008214156114545761145361150b565b5b600182039050919050565b6000600282049050600182168061147757607f821691505b6020821081141561148b5761148a61153a565b5b50919050565b61149a826115db565b810181811067ffffffffffffffff821117156114b9576114b8611598565b5b80604052505050565b60006114cd826113e9565b91507fffffffffffffffffffffffffffffffffffffffffffffffffffffffffffffffff821415611500576114ff61150b565b5b600182019050919050565b7f4e487b7100000000000000000000000000000000000000000000000000000000600052601160045260246000fd5b7f4e487b7100000000000000000000000000000000000000000000000000000000600052602260045260246000fd5b7f4e487b7100000000000000000000000000000000000000000000000000000000600052603260045260246000fd5b7f4e487b7100000000000000000000000000000000000000000000000000000000600052604160045260246000fd5b600080fd5b600080fd5b600080fd5b600080fd5b6000601f19601f8301169050919050565b7f436f77626f792068617320616c72656164792074616b656e207475726e20746860008201527f697320726f756e64000000000000000000000000000000000000000000000000602082015250565b7f476976656e20626174746c65206964206f7574206f6620626f756e6473000000600082015250565b7f476976656e20636f77626f79206964206f7574206f6620626f756e6473000000600082015250565b7f54686520676976656e20636f77626f79206973206e6f7420696e20746865206760008201527f6976656e20626174746c65000000000000000000000000000000000000000000602082015250565b7f5468652067616d65206973206f76657220796f757220636f77626f792063616e60008201527f27742074616b65207475726e732e000000000000000000000000000000000000602082015250565b7f5468657265206973206e6f2077696e6e6572207965742e000000000000000000600082015250565b7f596f757220636f77626f792063616e27742073686f6f7420776974686f75742060008201527f616d6d6f00000000000000000000000000000000000000000000000000000000602082015250565b6117ac816113e9565b81146117b757600080fd5b5056fea2646970667358221220cea75a17fc927a1755a3a54b09a5a056da131ecdb44595ff094711a2c57d9f7c64736f6c63430008070033",
      "opcodes": "PUSH1 0x80 PUSH1 0x40 MSTORE CALLVALUE DUP1 ISZERO PUSH2 0x10 JUMPI PUSH1 0x0 DUP1 REVERT JUMPDEST POP PUSH2 0x17F0 DUP1 PUSH2 0x20 PUSH1 0x0 CODECOPY PUSH1 0x0 RETURN INVALID PUSH1 0x80 PUSH1 0x40 MSTORE CALLVALUE DUP1 ISZERO PUSH2 0x10 JUMPI PUSH1 0x0 DUP1 REVERT JUMPDEST POP PUSH1 0x4 CALLDATASIZE LT PUSH2 0x62 JUMPI PUSH1 0x0 CALLDATALOAD PUSH1 0xE0 SHR DUP1 PUSH4 0x4129B2C9 EQ PUSH2 0x67 JUMPI DUP1 PUSH4 0x5F4A0B85 EQ PUSH2 0x97 JUMPI DUP1 PUSH4 0x6DD0CE7A EQ PUSH2 0xB3 JUMPI DUP1 PUSH4 0x7DBEF372 EQ PUSH2 0xE3 JUMPI DUP1 PUSH4 0xDC118019 EQ PUSH2 0xFF JUMPI DUP1 PUSH4 0xDF73C49F EQ PUSH2 0x12F JUMPI JUMPDEST PUSH1 0x0 DUP1 REVERT JUMPDEST PUSH2 0x81 PUSH1 0x4 DUP1 CALLDATASIZE SUB DUP2 ADD SWAP1 PUSH2 0x7C SWAP2 SWAP1 PUSH2 0xEE3 JUMP JUMPDEST PUSH2 0x14B JUMP JUMPDEST PUSH1 0x40 MLOAD PUSH2 0x8E SWAP2 SWAP1 PUSH2 0x1214 JUMP JUMPDEST PUSH1 0x40 MLOAD DUP1 SWAP2 SUB SWAP1 RETURN JUMPDEST PUSH2 0xB1 PUSH1 0x4 DUP1 CALLDATASIZE SUB DUP2 ADD SWAP1 PUSH2 0xAC SWAP2 SWAP1 PUSH2 0xE9A JUMP JUMPDEST PUSH2 0x258 JUMP JUMPDEST STOP JUMPDEST PUSH2 0xCD PUSH1 0x4 DUP1 CALLDATASIZE SUB DUP2 ADD SWAP1 PUSH2 0xC8 SWAP2 SWAP1 PUSH2 0xEE3 JUMP JUMPDEST PUSH2 0x340 JUMP JUMPDEST PUSH1 0x40 MLOAD PUSH2 0xDA SWAP2 SWAP1 PUSH2 0x1316 JUMP JUMPDEST PUSH1 0x40 MLOAD DUP1 SWAP2 SUB SWAP1 RETURN JUMPDEST PUSH2 0xFD PUSH1 0x4 DUP1 CALLDATASIZE SUB DUP2 ADD SWAP1 PUSH2 0xF8 SWAP2 SWAP1 PUSH2 0xF50 JUMP JUMPDEST PUSH2 0x490 JUMP JUMPDEST STOP JUMPDEST PUSH2 0x119 PUSH1 0x4 DUP1 CALLDATASIZE SUB DUP2 ADD SWAP1 PUSH2 0x114 SWAP2 SWAP1 PUSH2 0xEE3 JUMP JUMPDEST PUSH2 0x702 JUMP JUMPDEST PUSH1 0x40 MLOAD PUSH2 0x126 SWAP2 SWAP1 PUSH2 0x1338 JUMP JUMPDEST PUSH1 0x40 MLOAD DUP1 SWAP2 SUB SWAP1 RETURN JUMPDEST PUSH2 0x149 PUSH1 0x4 DUP1 CALLDATASIZE SUB DUP2 ADD SWAP1 PUSH2 0x144 SWAP2 SWAP1 PUSH2 0xF10 JUMP JUMPDEST PUSH2 0x874 JUMP JUMPDEST STOP JUMPDEST PUSH1 0x60 PUSH1 0x0 DUP1 DUP4 DUP2 SLOAD DUP2 LT PUSH2 0x162 JUMPI PUSH2 0x161 PUSH2 0x1569 JUMP JUMPDEST JUMPDEST SWAP1 PUSH1 0x0 MSTORE PUSH1 0x20 PUSH1 0x0 KECCAK256 SWAP1 PUSH1 0x5 MUL ADD SWAP1 POP DUP1 PUSH1 0x4 ADD PUSH1 0x0 SWAP1 SLOAD SWAP1 PUSH2 0x100 EXP SWAP1 DIV PUSH1 0xFF AND PUSH2 0x1C3 JUMPI PUSH1 0x40 MLOAD PUSH32 0x8C379A000000000000000000000000000000000000000000000000000000000 DUP2 MSTORE PUSH1 0x4 ADD PUSH2 0x1BA SWAP1 PUSH2 0x12D6 JUMP JUMPDEST PUSH1 0x40 MLOAD DUP1 SWAP2 SUB SWAP1 REVERT JUMPDEST DUP1 PUSH1 0x2 ADD DUP1 SLOAD PUSH2 0x1D2 SWAP1 PUSH2 0x145F JUMP JUMPDEST DUP1 PUSH1 0x1F ADD PUSH1 0x20 DUP1 SWAP2 DIV MUL PUSH1 0x20 ADD PUSH1 0x40 MLOAD SWAP1 DUP2 ADD PUSH1 0x40 MSTORE DUP1 SWAP3 SWAP2 SWAP1 DUP2 DUP2 MSTORE PUSH1 0x20 ADD DUP3 DUP1 SLOAD PUSH2 0x1FE SWAP1 PUSH2 0x145F JUMP JUMPDEST DUP1 ISZERO PUSH2 0x24B JUMPI DUP1 PUSH1 0x1F LT PUSH2 0x220 JUMPI PUSH2 0x100 DUP1 DUP4 SLOAD DIV MUL DUP4 MSTORE SWAP2 PUSH1 0x20 ADD SWAP2 PUSH2 0x24B JUMP JUMPDEST DUP3 ADD SWAP2 SWAP1 PUSH1 0x0 MSTORE PUSH1 0x20 PUSH1 0x0 KECCAK256 SWAP1 JUMPDEST DUP2 SLOAD DUP2 MSTORE SWAP1 PUSH1 0x1 ADD SWAP1 PUSH1 0x20 ADD DUP1 DUP4 GT PUSH2 0x22E JUMPI DUP3 SWAP1 SUB PUSH1 0x1F AND DUP3 ADD SWAP2 JUMPDEST POP POP POP POP POP SWAP2 POP POP SWAP2 SWAP1 POP JUMP JUMPDEST PUSH1 0x1 PUSH1 0x40 MLOAD DUP1 PUSH1 0xA0 ADD PUSH1 0x40 MSTORE DUP1 DUP4 DUP2 MSTORE PUSH1 0x20 ADD PUSH1 0x0 DUP2 MSTORE PUSH1 0x20 ADD PUSH1 0x0 ISZERO ISZERO DUP2 MSTORE PUSH1 0x20 ADD PUSH1 0x0 ISZERO ISZERO DUP2 MSTORE PUSH1 0x20 ADD PUSH1 0x0 ISZERO ISZERO DUP2 MSTORE POP SWAP1 DUP1 PUSH1 0x1 DUP2 SLOAD ADD DUP1 DUP3 SSTORE DUP1 SWAP2 POP POP PUSH1 0x1 SWAP1 SUB SWAP1 PUSH1 0x0 MSTORE PUSH1 0x20 PUSH1 0x0 KECCAK256 SWAP1 PUSH1 0x3 MUL ADD PUSH1 0x0 SWAP1 SWAP2 SWAP1 SWAP2 SWAP1 SWAP2 POP PUSH1 0x0 DUP3 ADD MLOAD DUP2 PUSH1 0x0 ADD SWAP1 DUP1 MLOAD SWAP1 PUSH1 0x20 ADD SWAP1 PUSH2 0x2D0 SWAP3 SWAP2 SWAP1 PUSH2 0xC7F JUMP JUMPDEST POP PUSH1 0x20 DUP3 ADD MLOAD DUP2 PUSH1 0x1 ADD SSTORE PUSH1 0x40 DUP3 ADD MLOAD DUP2 PUSH1 0x2 ADD PUSH1 0x0 PUSH2 0x100 EXP DUP2 SLOAD DUP2 PUSH1 0xFF MUL NOT AND SWAP1 DUP4 ISZERO ISZERO MUL OR SWAP1 SSTORE POP PUSH1 0x60 DUP3 ADD MLOAD DUP2 PUSH1 0x2 ADD PUSH1 0x1 PUSH2 0x100 EXP DUP2 SLOAD DUP2 PUSH1 0xFF MUL NOT AND SWAP1 DUP4 ISZERO ISZERO MUL OR SWAP1 SSTORE POP PUSH1 0x80 DUP3 ADD MLOAD DUP2 PUSH1 0x2 ADD PUSH1 0x2 PUSH2 0x100 EXP DUP2 SLOAD DUP2 PUSH1 0xFF MUL NOT AND SWAP1 DUP4 ISZERO ISZERO MUL OR SWAP1 SSTORE POP POP POP POP JUMP JUMPDEST PUSH2 0x348 PUSH2 0xD05 JUMP JUMPDEST DUP2 PUSH1 0x0 DUP1 SLOAD SWAP1 POP DUP2 LT PUSH2 0x390 JUMPI PUSH1 0x40 MLOAD PUSH32 0x8C379A000000000000000000000000000000000000000000000000000000000 DUP2 MSTORE PUSH1 0x4 ADD PUSH2 0x387 SWAP1 PUSH2 0x1256 JUMP JUMPDEST PUSH1 0x40 MLOAD DUP1 SWAP2 SUB SWAP1 REVERT JUMPDEST PUSH1 0x0 DUP4 DUP2 SLOAD DUP2 LT PUSH2 0x3A4 JUMPI PUSH2 0x3A3 PUSH2 0x1569 JUMP JUMPDEST JUMPDEST SWAP1 PUSH1 0x0 MSTORE PUSH1 0x20 PUSH1 0x0 KECCAK256 SWAP1 PUSH1 0x5 MUL ADD PUSH1 0x40 MLOAD DUP1 PUSH1 0xA0 ADD PUSH1 0x40 MSTORE SWAP1 DUP2 PUSH1 0x0 DUP3 ADD SLOAD DUP2 MSTORE PUSH1 0x20 ADD PUSH1 0x1 DUP3 ADD SLOAD DUP2 MSTORE PUSH1 0x20 ADD PUSH1 0x2 DUP3 ADD DUP1 SLOAD PUSH2 0x3E1 SWAP1 PUSH2 0x145F JUMP JUMPDEST DUP1 PUSH1 0x1F ADD PUSH1 0x20 DUP1 SWAP2 DIV MUL PUSH1 0x20 ADD PUSH1 0x40 MLOAD SWAP1 DUP2 ADD PUSH1 0x40 MSTORE DUP1 SWAP3 SWAP2 SWAP1 DUP2 DUP2 MSTORE PUSH1 0x20 ADD DUP3 DUP1 SLOAD PUSH2 0x40D SWAP1 PUSH2 0x145F JUMP JUMPDEST DUP1 ISZERO PUSH2 0x45A JUMPI DUP1 PUSH1 0x1F LT PUSH2 0x42F JUMPI PUSH2 0x100 DUP1 DUP4 SLOAD DIV MUL DUP4 MSTORE SWAP2 PUSH1 0x20 ADD SWAP2 PUSH2 0x45A JUMP JUMPDEST DUP3 ADD SWAP2 SWAP1 PUSH1 0x0 MSTORE PUSH1 0x20 PUSH1 0x0 KECCAK256 SWAP1 JUMPDEST DUP2 SLOAD DUP2 MSTORE SWAP1 PUSH1 0x1 ADD SWAP1 PUSH1 0x20 ADD DUP1 DUP4 GT PUSH2 0x43D JUMPI DUP3 SWAP1 SUB PUSH1 0x1F AND DUP3 ADD SWAP2 JUMPDEST POP POP POP POP POP DUP2 MSTORE PUSH1 0x20 ADD PUSH1 0x3 DUP3 ADD SLOAD DUP2 MSTORE PUSH1 0x20 ADD PUSH1 0x4 DUP3 ADD PUSH1 0x0 SWAP1 SLOAD SWAP1 PUSH2 0x100 EXP SWAP1 DIV PUSH1 0xFF AND ISZERO ISZERO ISZERO ISZERO DUP2 MSTORE POP POP SWAP2 POP POP SWAP2 SWAP1 POP JUMP JUMPDEST DUP2 PUSH1 0x1 DUP1 SLOAD SWAP1 POP DUP2 LT PUSH2 0x4D8 JUMPI PUSH1 0x40 MLOAD PUSH32 0x8C379A000000000000000000000000000000000000000000000000000000000 DUP2 MSTORE PUSH1 0x4 ADD PUSH2 0x4CF SWAP1 PUSH2 0x1276 JUMP JUMPDEST PUSH1 0x40 MLOAD DUP1 SWAP2 SUB SWAP1 REVERT JUMPDEST DUP2 PUSH1 0x0 DUP1 SLOAD SWAP1 POP DUP2 LT PUSH2 0x520 JUMPI PUSH1 0x40 MLOAD PUSH32 0x8C379A000000000000000000000000000000000000000000000000000000000 DUP2 MSTORE PUSH1 0x4 ADD PUSH2 0x517 SWAP1 PUSH2 0x1256 JUMP JUMPDEST PUSH1 0x40 MLOAD DUP1 SWAP2 SUB SWAP1 REVERT JUMPDEST PUSH1 0x0 DUP1 DUP5 DUP2 SLOAD DUP2 LT PUSH2 0x535 JUMPI PUSH2 0x534 PUSH2 0x1569 JUMP JUMPDEST JUMPDEST SWAP1 PUSH1 0x0 MSTORE PUSH1 0x20 PUSH1 0x0 KECCAK256 SWAP1 PUSH1 0x5 MUL ADD SWAP1 POP DUP1 PUSH1 0x4 ADD PUSH1 0x0 SWAP1 SLOAD SWAP1 PUSH2 0x100 EXP SWAP1 DIV PUSH1 0xFF AND ISZERO PUSH2 0x597 JUMPI PUSH1 0x40 MLOAD PUSH32 0x8C379A000000000000000000000000000000000000000000000000000000000 DUP2 MSTORE PUSH1 0x4 ADD PUSH2 0x58E SWAP1 PUSH2 0x12B6 JUMP JUMPDEST PUSH1 0x40 MLOAD DUP1 SWAP2 SUB SWAP1 REVERT JUMPDEST DUP1 PUSH1 0x0 ADD SLOAD DUP6 EQ DUP1 PUSH2 0x5AC JUMPI POP DUP1 PUSH1 0x1 ADD SLOAD DUP6 EQ JUMPDEST PUSH2 0x5EB JUMPI PUSH1 0x40 MLOAD PUSH32 0x8C379A000000000000000000000000000000000000000000000000000000000 DUP2 MSTORE PUSH1 0x4 ADD PUSH2 0x5E2 SWAP1 PUSH2 0x1296 JUMP JUMPDEST PUSH1 0x40 MLOAD DUP1 SWAP2 SUB SWAP1 REVERT JUMPDEST PUSH1 0x0 PUSH1 0x1 DUP7 DUP2 SLOAD DUP2 LT PUSH2 0x601 JUMPI PUSH2 0x600 PUSH2 0x1569 JUMP JUMPDEST JUMPDEST SWAP1 PUSH1 0x0 MSTORE PUSH1 0x20 PUSH1 0x0 KECCAK256 SWAP1 PUSH1 0x3 MUL ADD SWAP1 POP DUP1 PUSH1 0x2 ADD PUSH1 0x0 SWAP1 SLOAD SWAP1 PUSH2 0x100 EXP SWAP1 DIV PUSH1 0xFF AND ISZERO PUSH2 0x663 JUMPI PUSH1 0x40 MLOAD PUSH32 0x8C379A000000000000000000000000000000000000000000000000000000000 DUP2 MSTORE PUSH1 0x4 ADD PUSH2 0x65A SWAP1 PUSH2 0x1236 JUMP JUMPDEST PUSH1 0x40 MLOAD DUP1 SWAP2 SUB SWAP1 REVERT JUMPDEST PUSH1 0x0 DUP8 EQ ISZERO PUSH2 0x67A JUMPI PUSH2 0x675 DUP2 PUSH2 0x9CC JUMP JUMPDEST PUSH2 0x6AB JUMP JUMPDEST PUSH1 0x1 DUP8 EQ ISZERO PUSH2 0x691 JUMPI PUSH2 0x68C DUP2 PUSH2 0xA23 JUMP JUMPDEST PUSH2 0x6AA JUMP JUMPDEST PUSH1 0x2 DUP8 EQ ISZERO PUSH2 0x6A8 JUMPI PUSH2 0x6A3 DUP2 PUSH2 0xAC2 JUMP JUMPDEST PUSH2 0x6A9 JUMP JUMPDEST JUMPDEST JUMPDEST JUMPDEST PUSH1 0x1 DUP2 PUSH1 0x2 ADD PUSH1 0x0 PUSH2 0x100 EXP DUP2 SLOAD DUP2 PUSH1 0xFF MUL NOT AND SWAP1 DUP4 ISZERO ISZERO MUL OR SWAP1 SSTORE POP DUP2 PUSH1 0x3 ADD PUSH1 0x0 DUP2 SLOAD DUP1 SWAP3 SWAP2 SWAP1 PUSH2 0x6DD SWAP1 PUSH2 0x14C2 JUMP JUMPDEST SWAP2 SWAP1 POP SSTORE POP PUSH1 0x2 DUP3 PUSH1 0x3 ADD SLOAD EQ ISZERO PUSH2 0x6F9 JUMPI PUSH2 0x6F8 DUP3 PUSH2 0xAFF JUMP JUMPDEST JUMPDEST POP POP POP POP POP POP POP JUMP JUMPDEST PUSH2 0x70A PUSH2 0xD36 JUMP JUMPDEST DUP2 PUSH1 0x1 DUP1 SLOAD SWAP1 POP DUP2 LT PUSH2 0x752 JUMPI PUSH1 0x40 MLOAD PUSH32 0x8C379A000000000000000000000000000000000000000000000000000000000 DUP2 MSTORE PUSH1 0x4 ADD PUSH2 0x749 SWAP1 PUSH2 0x1276 JUMP JUMPDEST PUSH1 0x40 MLOAD DUP1 SWAP2 SUB SWAP1 REVERT JUMPDEST PUSH1 0x1 DUP4 DUP2 SLOAD DUP2 LT PUSH2 0x766 JUMPI PUSH2 0x765 PUSH2 0x1569 JUMP JUMPDEST JUMPDEST SWAP1 PUSH1 0x0 MSTORE PUSH1 0x20 PUSH1 0x0 KECCAK256 SWAP1 PUSH1 0x3 MUL ADD PUSH1 0x40 MLOAD DUP1 PUSH1 0xA0 ADD PUSH1 0x40 MSTORE SWAP1 DUP2 PUSH1 0x0 DUP3 ADD DUP1 SLOAD PUSH2 0x78F SWAP1 PUSH2 0x145F JUMP JUMPDEST DUP1 PUSH1 0x1F ADD PUSH1 0x20 DUP1 SWAP2 DIV MUL PUSH1 0x20 ADD PUSH1 0x40 MLOAD SWAP1 DUP2 ADD PUSH1 0x40 MSTORE DUP1 SWAP3 SWAP2 SWAP1 DUP2 DUP2 MSTORE PUSH1 0x20 ADD DUP3 DUP1 SLOAD PUSH2 0x7BB SWAP1 PUSH2 0x145F JUMP JUMPDEST DUP1 ISZERO PUSH2 0x808 JUMPI DUP1 PUSH1 0x1F LT PUSH2 0x7DD JUMPI PUSH2 0x100 DUP1 DUP4 SLOAD DIV MUL DUP4 MSTORE SWAP2 PUSH1 0x20 ADD SWAP2 PUSH2 0x808 JUMP JUMPDEST DUP3 ADD SWAP2 SWAP1 PUSH1 0x0 MSTORE PUSH1 0x20 PUSH1 0x0 KECCAK256 SWAP1 JUMPDEST DUP2 SLOAD DUP2 MSTORE SWAP1 PUSH1 0x1 ADD SWAP1 PUSH1 0x20 ADD DUP1 DUP4 GT PUSH2 0x7EB JUMPI DUP3 SWAP1 SUB PUSH1 0x1F AND DUP3 ADD SWAP2 JUMPDEST POP POP POP POP POP DUP2 MSTORE PUSH1 0x20 ADD PUSH1 0x1 DUP3 ADD SLOAD DUP2 MSTORE PUSH1 0x20 ADD PUSH1 0x2 DUP3 ADD PUSH1 0x0 SWAP1 SLOAD SWAP1 PUSH2 0x100 EXP SWAP1 DIV PUSH1 0xFF AND ISZERO ISZERO ISZERO ISZERO DUP2 MSTORE PUSH1 0x20 ADD PUSH1 0x2 DUP3 ADD PUSH1 0x1 SWAP1 SLOAD SWAP1 PUSH2 0x100 EXP SWAP1 DIV PUSH1 0xFF AND ISZERO ISZERO ISZERO ISZERO DUP2 MSTORE PUSH1 0x20 ADD PUSH1 0x2 DUP3 ADD PUSH1 0x2 SWAP1 SLOAD SWAP1 PUSH2 0x100 EXP SWAP1 DIV PUSH1 0xFF AND ISZERO ISZERO ISZERO ISZERO DUP2 MSTORE POP POP SWAP2 POP POP SWAP2 SWAP1 POP JUMP JUMPDEST DUP2 PUSH1 0x1 DUP1 SLOAD SWAP1 POP DUP2 LT PUSH2 0x8BC JUMPI PUSH1 0x40 MLOAD PUSH32 0x8C379A000000000000000000000000000000000000000000000000000000000 DUP2 MSTORE PUSH1 0x4 ADD PUSH2 0x8B3 SWAP1 PUSH2 0x1276 JUMP JUMPDEST PUSH1 0x40 MLOAD DUP1 SWAP2 SUB SWAP1 REVERT JUMPDEST DUP2 PUSH1 0x1 DUP1 SLOAD SWAP1 POP DUP2 LT PUSH2 0x904 JUMPI PUSH1 0x40 MLOAD PUSH32 0x8C379A000000000000000000000000000000000000000000000000000000000 DUP2 MSTORE PUSH1 0x4 ADD PUSH2 0x8FB SWAP1 PUSH2 0x1276 JUMP JUMPDEST PUSH1 0x40 MLOAD DUP1 SWAP2 SUB SWAP1 REVERT JUMPDEST PUSH1 0x0 PUSH1 0x40 MLOAD DUP1 PUSH1 0xA0 ADD PUSH1 0x40 MSTORE DUP1 DUP7 DUP2 MSTORE PUSH1 0x20 ADD DUP6 DUP2 MSTORE PUSH1 0x20 ADD PUSH1 0x40 MLOAD DUP1 PUSH1 0x20 ADD PUSH1 0x40 MSTORE DUP1 PUSH1 0x0 DUP2 MSTORE POP DUP2 MSTORE PUSH1 0x20 ADD PUSH1 0x0 DUP2 MSTORE PUSH1 0x20 ADD PUSH1 0x0 ISZERO ISZERO DUP2 MSTORE POP SWAP1 DUP1 PUSH1 0x1 DUP2 SLOAD ADD DUP1 DUP3 SSTORE DUP1 SWAP2 POP POP PUSH1 0x1 SWAP1 SUB SWAP1 PUSH1 0x0 MSTORE PUSH1 0x20 PUSH1 0x0 KECCAK256 SWAP1 PUSH1 0x5 MUL ADD PUSH1 0x0 SWAP1 SWAP2 SWAP1 SWAP2 SWAP1 SWAP2 POP PUSH1 0x0 DUP3 ADD MLOAD DUP2 PUSH1 0x0 ADD SSTORE PUSH1 0x20 DUP3 ADD MLOAD DUP2 PUSH1 0x1 ADD SSTORE PUSH1 0x40 DUP3 ADD MLOAD DUP2 PUSH1 0x2 ADD SWAP1 DUP1 MLOAD SWAP1 PUSH1 0x20 ADD SWAP1 PUSH2 0x999 SWAP3 SWAP2 SWAP1 PUSH2 0xC7F JUMP JUMPDEST POP PUSH1 0x60 DUP3 ADD MLOAD DUP2 PUSH1 0x3 ADD SSTORE PUSH1 0x80 DUP3 ADD MLOAD DUP2 PUSH1 0x4 ADD PUSH1 0x0 PUSH2 0x100 EXP DUP2 SLOAD DUP2 PUSH1 0xFF MUL NOT AND SWAP1 DUP4 ISZERO ISZERO MUL OR SWAP1 SSTORE POP POP POP POP POP POP POP JUMP JUMPDEST DUP1 PUSH1 0x1 ADD PUSH1 0x0 DUP2 SLOAD DUP1 SWAP3 SWAP2 SWAP1 PUSH2 0x9E1 SWAP1 PUSH2 0x14C2 JUMP JUMPDEST SWAP2 SWAP1 POP SSTORE POP PUSH1 0x1 DUP2 PUSH1 0x2 ADD PUSH1 0x1 PUSH2 0x100 EXP DUP2 SLOAD DUP2 PUSH1 0xFF MUL NOT AND SWAP1 DUP4 ISZERO ISZERO MUL OR SWAP1 SSTORE POP PUSH1 0x0 DUP2 PUSH1 0x2 ADD PUSH1 0x2 PUSH2 0x100 EXP DUP2 SLOAD DUP2 PUSH1 0xFF MUL NOT AND SWAP1 DUP4 ISZERO ISZERO MUL OR SWAP1 SSTORE POP POP JUMP JUMPDEST PUSH1 0x1 DUP2 PUSH1 0x1 ADD SLOAD LT ISZERO PUSH2 0xA6B JUMPI PUSH1 0x40 MLOAD PUSH32 0x8C379A000000000000000000000000000000000000000000000000000000000 DUP2 MSTORE PUSH1 0x4 ADD PUSH2 0xA62 SWAP1 PUSH2 0x12F6 JUMP JUMPDEST PUSH1 0x40 MLOAD DUP1 SWAP2 SUB SWAP1 REVERT JUMPDEST DUP1 PUSH1 0x1 ADD PUSH1 0x0 DUP2 SLOAD DUP1 SWAP3 SWAP2 SWAP1 PUSH2 0xA80 SWAP1 PUSH2 0x1435 JUMP JUMPDEST SWAP2 SWAP1 POP SSTORE POP PUSH1 0x0 DUP2 PUSH1 0x2 ADD PUSH1 0x1 PUSH2 0x100 EXP DUP2 SLOAD DUP2 PUSH1 0xFF MUL NOT AND SWAP1 DUP4 ISZERO ISZERO MUL OR SWAP1 SSTORE POP PUSH1 0x1 DUP2 PUSH1 0x2 ADD PUSH1 0x2 PUSH2 0x100 EXP DUP2 SLOAD DUP2 PUSH1 0xFF MUL NOT AND SWAP1 DUP4 ISZERO ISZERO MUL OR SWAP1 SSTORE POP POP JUMP JUMPDEST PUSH1 0x0 DUP2 PUSH1 0x2 ADD PUSH1 0x1 PUSH2 0x100 EXP DUP2 SLOAD DUP2 PUSH1 0xFF MUL NOT AND SWAP1 DUP4 ISZERO ISZERO MUL OR SWAP1 SSTORE POP PUSH1 0x0 DUP2 PUSH1 0x2 ADD PUSH1 0x2 PUSH2 0x100 EXP DUP2 SLOAD DUP2 PUSH1 0xFF MUL NOT AND SWAP1 DUP4 ISZERO ISZERO MUL OR SWAP1 SSTORE POP POP JUMP JUMPDEST PUSH1 0x0 PUSH1 0x1 DUP3 PUSH1 0x0 ADD SLOAD DUP2 SLOAD DUP2 LT PUSH2 0xB19 JUMPI PUSH2 0xB18 PUSH2 0x1569 JUMP JUMPDEST JUMPDEST SWAP1 PUSH1 0x0 MSTORE PUSH1 0x20 PUSH1 0x0 KECCAK256 SWAP1 PUSH1 0x3 MUL ADD SWAP1 POP PUSH1 0x0 PUSH1 0x1 DUP4 PUSH1 0x1 ADD SLOAD DUP2 SLOAD DUP2 LT PUSH2 0xB43 JUMPI PUSH2 0xB42 PUSH2 0x1569 JUMP JUMPDEST JUMPDEST SWAP1 PUSH1 0x0 MSTORE PUSH1 0x20 PUSH1 0x0 KECCAK256 SWAP1 PUSH1 0x3 MUL ADD SWAP1 POP DUP2 PUSH1 0x2 ADD PUSH1 0x2 SWAP1 SLOAD SWAP1 PUSH2 0x100 EXP SWAP1 DIV PUSH1 0xFF AND DUP1 ISZERO PUSH2 0xB7F JUMPI POP DUP1 PUSH1 0x2 ADD PUSH1 0x1 SWAP1 SLOAD SWAP1 PUSH2 0x100 EXP SWAP1 DIV PUSH1 0xFF AND JUMPDEST ISZERO PUSH2 0xBC6 JUMPI DUP2 PUSH1 0x0 ADD DUP4 PUSH1 0x2 ADD SWAP1 DUP1 SLOAD PUSH2 0xB98 SWAP1 PUSH2 0x145F JUMP JUMPDEST PUSH2 0xBA3 SWAP3 SWAP2 SWAP1 PUSH2 0xD6B JUMP JUMPDEST POP PUSH1 0x1 DUP4 PUSH1 0x4 ADD PUSH1 0x0 PUSH2 0x100 EXP DUP2 SLOAD DUP2 PUSH1 0xFF MUL NOT AND SWAP1 DUP4 ISZERO ISZERO MUL OR SWAP1 SSTORE POP PUSH2 0xC36 JUMP JUMPDEST DUP1 PUSH1 0x2 ADD PUSH1 0x2 SWAP1 SLOAD SWAP1 PUSH2 0x100 EXP SWAP1 DIV PUSH1 0xFF AND DUP1 ISZERO PUSH2 0xBF2 JUMPI POP DUP2 PUSH1 0x2 ADD PUSH1 0x1 SWAP1 SLOAD SWAP1 PUSH2 0x100 EXP SWAP1 DIV PUSH1 0xFF AND JUMPDEST ISZERO PUSH2 0xC35 JUMPI DUP1 PUSH1 0x0 ADD DUP4 PUSH1 0x2 ADD SWAP1 DUP1 SLOAD PUSH2 0xC0B SWAP1 PUSH2 0x145F JUMP JUMPDEST PUSH2 0xC16 SWAP3 SWAP2 SWAP1 PUSH2 0xD6B JUMP JUMPDEST POP PUSH1 0x1 DUP4 PUSH1 0x4 ADD PUSH1 0x0 PUSH2 0x100 EXP DUP2 SLOAD DUP2 PUSH1 0xFF MUL NOT AND SWAP1 DUP4 ISZERO ISZERO MUL OR SWAP1 SSTORE POP JUMPDEST JUMPDEST PUSH1 0x0 DUP3 PUSH1 0x2 ADD PUSH1 0x0 PUSH2 0x100 EXP DUP2 SLOAD DUP2 PUSH1 0xFF MUL NOT AND SWAP1 DUP4 ISZERO ISZERO MUL OR SWAP1 SSTORE POP PUSH1 0x0 DUP2 PUSH1 0x2 ADD PUSH1 0x0 PUSH2 0x100 EXP DUP2 SLOAD DUP2 PUSH1 0xFF MUL NOT AND SWAP1 DUP4 ISZERO ISZERO MUL OR SWAP1 SSTORE POP PUSH1 0x0 DUP4 PUSH1 0x3 ADD DUP2 SWAP1 SSTORE POP POP POP POP JUMP JUMPDEST DUP3 DUP1 SLOAD PUSH2 0xC8B SWAP1 PUSH2 0x145F JUMP JUMPDEST SWAP1 PUSH1 0x0 MSTORE PUSH1 0x20 PUSH1 0x0 KECCAK256 SWAP1 PUSH1 0x1F ADD PUSH1 0x20 SWAP1 DIV DUP2 ADD SWAP3 DUP3 PUSH2 0xCAD JUMPI PUSH1 0x0 DUP6 SSTORE PUSH2 0xCF4 JUMP JUMPDEST DUP3 PUSH1 0x1F LT PUSH2 0xCC6 JUMPI DUP1 MLOAD PUSH1 0xFF NOT AND DUP4 DUP1 ADD OR DUP6 SSTORE PUSH2 0xCF4 JUMP JUMPDEST DUP3 DUP1 ADD PUSH1 0x1 ADD DUP6 SSTORE DUP3 ISZERO PUSH2 0xCF4 JUMPI SWAP2 DUP3 ADD JUMPDEST DUP3 DUP2 GT ISZERO PUSH2 0xCF3 JUMPI DUP3 MLOAD DUP3 SSTORE SWAP2 PUSH1 0x20 ADD SWAP2 SWAP1 PUSH1 0x1 ADD SWAP1 PUSH2 0xCD8 JUMP JUMPDEST JUMPDEST POP SWAP1 POP PUSH2 0xD01 SWAP2 SWAP1 PUSH2 0xDF8 JUMP JUMPDEST POP SWAP1 JUMP JUMPDEST PUSH1 0x40 MLOAD DUP1 PUSH1 0xA0 ADD PUSH1 0x40 MSTORE DUP1 PUSH1 0x0 DUP2 MSTORE PUSH1 0x20 ADD PUSH1 0x0 DUP2 MSTORE PUSH1 0x20 ADD PUSH1 0x60 DUP2 MSTORE PUSH1 0x20 ADD PUSH1 0x0 DUP2 MSTORE PUSH1 0x20 ADD PUSH1 0x0 ISZERO ISZERO DUP2 MSTORE POP SWAP1 JUMP JUMPDEST PUSH1 0x40 MLOAD DUP1 PUSH1 0xA0 ADD PUSH1 0x40 MSTORE DUP1 PUSH1 0x60 DUP2 MSTORE PUSH1 0x20 ADD PUSH1 0x0 DUP2 MSTORE PUSH1 0x20 ADD PUSH1 0x0 ISZERO ISZERO DUP2 MSTORE PUSH1 0x20 ADD PUSH1 0x0 ISZERO ISZERO DUP2 MSTORE PUSH1 0x20 ADD PUSH1 0x0 ISZERO ISZERO DUP2 MSTORE POP SWAP1 JUMP JUMPDEST DUP3 DUP1 SLOAD PUSH2 0xD77 SWAP1 PUSH2 0x145F JUMP JUMPDEST SWAP1 PUSH1 0x0 MSTORE PUSH1 0x20 PUSH1 0x0 KECCAK256 SWAP1 PUSH1 0x1F ADD PUSH1 0x20 SWAP1 DIV DUP2 ADD SWAP3 DUP3 PUSH2 0xD99 JUMPI PUSH1 0x0 DUP6 SSTORE PUSH2 0xDE7 JUMP JUMPDEST DUP3 PUSH1 0x1F LT PUSH2 0xDAA JUMPI DUP1 SLOAD DUP6 SSTORE PUSH2 0xDE7 JUMP JUMPDEST DUP3 DUP1 ADD PUSH1 0x1 ADD DUP6 SSTORE DUP3 ISZERO PUSH2 0xDE7 JUMPI PUSH1 0x0 MSTORE PUSH1 0x20 PUSH1 0x0 KECCAK256 SWAP2 PUSH1 0x1F ADD PUSH1 0x20 SWAP1 DIV DUP3 ADD JUMPDEST DUP3 DUP2 GT ISZERO PUSH2 0xDE6 JUMPI DUP3 SLOAD DUP3 SSTORE SWAP2 PUSH1 0x1 ADD SWAP2 SWAP1 PUSH1 0x1 ADD SWAP1 PUSH2 0xDCB JUMP JUMPDEST JUMPDEST POP SWAP1 POP PUSH2 0xDF4 SWAP2 SWAP1 PUSH2 0xDF8 JUMP JUMPDEST POP SWAP1 JUMP JUMPDEST JUMPDEST DUP1 DUP3 GT ISZERO PUSH2 0xE11 JUMPI PUSH1 0x0 DUP2 PUSH1 0x0 SWAP1 SSTORE POP PUSH1 0x1 ADD PUSH2 0xDF9 JUMP JUMPDEST POP SWAP1 JUMP JUMPDEST PUSH1 0x0 PUSH2 0xE28 PUSH2 0xE23 DUP5 PUSH2 0x137F JUMP JUMPDEST PUSH2 0x135A JUMP JUMPDEST SWAP1 POP DUP3 DUP2 MSTORE PUSH1 0x20 DUP2 ADD DUP5 DUP5 DUP5 ADD GT ISZERO PUSH2 0xE44 JUMPI PUSH2 0xE43 PUSH2 0x15CC JUMP JUMPDEST JUMPDEST PUSH2 0xE4F DUP5 DUP3 DUP6 PUSH2 0x13F3 JUMP JUMPDEST POP SWAP4 SWAP3 POP POP POP JUMP JUMPDEST PUSH1 0x0 DUP3 PUSH1 0x1F DUP4 ADD SLT PUSH2 0xE6C JUMPI PUSH2 0xE6B PUSH2 0x15C7 JUMP JUMPDEST JUMPDEST DUP2 CALLDATALOAD PUSH2 0xE7C DUP5 DUP3 PUSH1 0x20 DUP7 ADD PUSH2 0xE15 JUMP JUMPDEST SWAP2 POP POP SWAP3 SWAP2 POP POP JUMP JUMPDEST PUSH1 0x0 DUP2 CALLDATALOAD SWAP1 POP PUSH2 0xE94 DUP2 PUSH2 0x17A3 JUMP JUMPDEST SWAP3 SWAP2 POP POP JUMP JUMPDEST PUSH1 0x0 PUSH1 0x20 DUP3 DUP5 SUB SLT ISZERO PUSH2 0xEB0 JUMPI PUSH2 0xEAF PUSH2 0x15D6 JUMP JUMPDEST JUMPDEST PUSH1 0x0 DUP3 ADD CALLDATALOAD PUSH8 0xFFFFFFFFFFFFFFFF DUP2 GT ISZERO PUSH2 0xECE JUMPI PUSH2 0xECD PUSH2 0x15D1 JUMP JUMPDEST JUMPDEST PUSH2 0xEDA DUP5 DUP3 DUP6 ADD PUSH2 0xE57 JUMP JUMPDEST SWAP2 POP POP SWAP3 SWAP2 POP POP JUMP JUMPDEST PUSH1 0x0 PUSH1 0x20 DUP3 DUP5 SUB SLT ISZERO PUSH2 0xEF9 JUMPI PUSH2 0xEF8 PUSH2 0x15D6 JUMP JUMPDEST JUMPDEST PUSH1 0x0 PUSH2 0xF07 DUP5 DUP3 DUP6 ADD PUSH2 0xE85 JUMP JUMPDEST SWAP2 POP POP SWAP3 SWAP2 POP POP JUMP JUMPDEST PUSH1 0x0 DUP1 PUSH1 0x40 DUP4 DUP6 SUB SLT ISZERO PUSH2 0xF27 JUMPI PUSH2 0xF26 PUSH2 0x15D6 JUMP JUMPDEST JUMPDEST PUSH1 0x0 PUSH2 0xF35 DUP6 DUP3 DUP7 ADD PUSH2 0xE85 JUMP JUMPDEST SWAP3 POP POP PUSH1 0x20 PUSH2 0xF46 DUP6 DUP3 DUP7 ADD PUSH2 0xE85 JUMP JUMPDEST SWAP2 POP POP SWAP3 POP SWAP3 SWAP1 POP JUMP JUMPDEST PUSH1 0x0 DUP1 PUSH1 0x0 PUSH1 0x60 DUP5 DUP7 SUB SLT ISZERO PUSH2 0xF69 JUMPI PUSH2 0xF68 PUSH2 0x15D6 JUMP JUMPDEST JUMPDEST PUSH1 0x0 PUSH2 0xF77 DUP7 DUP3 DUP8 ADD PUSH2 0xE85 JUMP JUMPDEST SWAP4 POP POP PUSH1 0x20 PUSH2 0xF88 DUP7 DUP3 DUP8 ADD PUSH2 0xE85 JUMP JUMPDEST SWAP3 POP POP PUSH1 0x40 PUSH2 0xF99 DUP7 DUP3 DUP8 ADD PUSH2 0xE85 JUMP JUMPDEST SWAP2 POP POP SWAP3 POP SWAP3 POP SWAP3 JUMP JUMPDEST PUSH2 0xFAC DUP2 PUSH2 0x13DD JUMP JUMPDEST DUP3 MSTORE POP POP JUMP JUMPDEST PUSH1 0x0 PUSH2 0xFBD DUP3 PUSH2 0x13B0 JUMP JUMPDEST PUSH2 0xFC7 DUP2 DUP6 PUSH2 0x13BB JUMP JUMPDEST SWAP4 POP PUSH2 0xFD7 DUP2 DUP6 PUSH1 0x20 DUP7 ADD PUSH2 0x1402 JUMP JUMPDEST PUSH2 0xFE0 DUP2 PUSH2 0x15DB JUMP JUMPDEST DUP5 ADD SWAP2 POP POP SWAP3 SWAP2 POP POP JUMP JUMPDEST PUSH1 0x0 PUSH2 0xFF6 DUP3 PUSH2 0x13B0 JUMP JUMPDEST PUSH2 0x1000 DUP2 DUP6 PUSH2 0x13CC JUMP JUMPDEST SWAP4 POP PUSH2 0x1010 DUP2 DUP6 PUSH1 0x20 DUP7 ADD PUSH2 0x1402 JUMP JUMPDEST PUSH2 0x1019 DUP2 PUSH2 0x15DB JUMP JUMPDEST DUP5 ADD SWAP2 POP POP SWAP3 SWAP2 POP POP JUMP JUMPDEST PUSH1 0x0 PUSH2 0x1031 PUSH1 0x28 DUP4 PUSH2 0x13CC JUMP JUMPDEST SWAP2 POP PUSH2 0x103C DUP3 PUSH2 0x15EC JUMP JUMPDEST PUSH1 0x40 DUP3 ADD SWAP1 POP SWAP2 SWAP1 POP JUMP JUMPDEST PUSH1 0x0 PUSH2 0x1054 PUSH1 0x1D DUP4 PUSH2 0x13CC JUMP JUMPDEST SWAP2 POP PUSH2 0x105F DUP3 PUSH2 0x163B JUMP JUMPDEST PUSH1 0x20 DUP3 ADD SWAP1 POP SWAP2 SWAP1 POP JUMP JUMPDEST PUSH1 0x0 PUSH2 0x1077 PUSH1 0x1D DUP4 PUSH2 0x13CC JUMP JUMPDEST SWAP2 POP PUSH2 0x1082 DUP3 PUSH2 0x1664 JUMP JUMPDEST PUSH1 0x20 DUP3 ADD SWAP1 POP SWAP2 SWAP1 POP JUMP JUMPDEST PUSH1 0x0 PUSH2 0x109A PUSH1 0x2B DUP4 PUSH2 0x13CC JUMP JUMPDEST SWAP2 POP PUSH2 0x10A5 DUP3 PUSH2 0x168D JUMP JUMPDEST PUSH1 0x40 DUP3 ADD SWAP1 POP SWAP2 SWAP1 POP JUMP JUMPDEST PUSH1 0x0 PUSH2 0x10BD PUSH1 0x2E DUP4 PUSH2 0x13CC JUMP JUMPDEST SWAP2 POP PUSH2 0x10C8 DUP3 PUSH2 0x16DC JUMP JUMPDEST PUSH1 0x40 DUP3 ADD SWAP1 POP SWAP2 SWAP1 POP JUMP JUMPDEST PUSH1 0x0 PUSH2 0x10E0 PUSH1 0x17 DUP4 PUSH2 0x13CC JUMP JUMPDEST SWAP2 POP PUSH2 0x10EB DUP3 PUSH2 0x172B JUMP JUMPDEST PUSH1 0x20 DUP3 ADD SWAP1 POP SWAP2 SWAP1 POP JUMP JUMPDEST PUSH1 0x0 PUSH2 0x1103 PUSH1 0x24 DUP4 PUSH2 0x13CC JUMP JUMPDEST SWAP2 POP PUSH2 0x110E DUP3 PUSH2 0x1754 JUMP JUMPDEST PUSH1 0x40 DUP3 ADD SWAP1 POP SWAP2 SWAP1 POP JUMP JUMPDEST PUSH1 0x0 PUSH1 0xA0 DUP4 ADD PUSH1 0x0 DUP4 ADD MLOAD PUSH2 0x1131 PUSH1 0x0 DUP7 ADD DUP3 PUSH2 0x1205 JUMP JUMPDEST POP PUSH1 0x20 DUP4 ADD MLOAD PUSH2 0x1144 PUSH1 0x20 DUP7 ADD DUP3 PUSH2 0x1205 JUMP JUMPDEST POP PUSH1 0x40 DUP4 ADD MLOAD DUP5 DUP3 SUB PUSH1 0x40 DUP7 ADD MSTORE PUSH2 0x115C DUP3 DUP3 PUSH2 0xFB2 JUMP JUMPDEST SWAP2 POP POP PUSH1 0x60 DUP4 ADD MLOAD PUSH2 0x1171 PUSH1 0x60 DUP7 ADD DUP3 PUSH2 0x1205 JUMP JUMPDEST POP PUSH1 0x80 DUP4 ADD MLOAD PUSH2 0x1184 PUSH1 0x80 DUP7 ADD DUP3 PUSH2 0xFA3 JUMP JUMPDEST POP DUP1 SWAP2 POP POP SWAP3 SWAP2 POP POP JUMP JUMPDEST PUSH1 0x0 PUSH1 0xA0 DUP4 ADD PUSH1 0x0 DUP4 ADD MLOAD DUP5 DUP3 SUB PUSH1 0x0 DUP7 ADD MSTORE PUSH2 0x11AC DUP3 DUP3 PUSH2 0xFB2 JUMP JUMPDEST SWAP2 POP POP PUSH1 0x20 DUP4 ADD MLOAD PUSH2 0x11C1 PUSH1 0x20 DUP7 ADD DUP3 PUSH2 0x1205 JUMP JUMPDEST POP PUSH1 0x40 DUP4 ADD MLOAD PUSH2 0x11D4 PUSH1 0x40 DUP7 ADD DUP3 PUSH2 0xFA3 JUMP JUMPDEST POP PUSH1 0x60 DUP4 ADD MLOAD PUSH2 0x11E7 PUSH1 0x60 DUP7 ADD DUP3 PUSH2 0xFA3 JUMP JUMPDEST POP PUSH1 0x80 DUP4 ADD MLOAD PUSH2 0x11FA PUSH1 0x80 DUP7 ADD DUP3 PUSH2 0xFA3 JUMP JUMPDEST POP DUP1 SWAP2 POP POP SWAP3 SWAP2 POP POP JUMP JUMPDEST PUSH2 0x120E DUP2 PUSH2 0x13E9 JUMP JUMPDEST DUP3 MSTORE POP POP JUMP JUMPDEST PUSH1 0x0 PUSH1 0x20 DUP3 ADD SWAP1 POP DUP2 DUP2 SUB PUSH1 0x0 DUP4 ADD MSTORE PUSH2 0x122E DUP2 DUP5 PUSH2 0xFEB JUMP JUMPDEST SWAP1 POP SWAP3 SWAP2 POP POP JUMP JUMPDEST PUSH1 0x0 PUSH1 0x20 DUP3 ADD SWAP1 POP DUP2 DUP2 SUB PUSH1 0x0 DUP4 ADD MSTORE PUSH2 0x124F DUP2 PUSH2 0x1024 JUMP JUMPDEST SWAP1 POP SWAP2 SWAP1 POP JUMP JUMPDEST PUSH1 0x0 PUSH1 0x20 DUP3 ADD SWAP1 POP DUP2 DUP2 SUB PUSH1 0x0 DUP4 ADD MSTORE PUSH2 0x126F DUP2 PUSH2 0x1047 JUMP JUMPDEST SWAP1 POP SWAP2 SWAP1 POP JUMP JUMPDEST PUSH1 0x0 PUSH1 0x20 DUP3 ADD SWAP1 POP DUP2 DUP2 SUB PUSH1 0x0 DUP4 ADD MSTORE PUSH2 0x128F DUP2 PUSH2 0x106A JUMP JUMPDEST SWAP1 POP SWAP2 SWAP1 POP JUMP JUMPDEST PUSH1 0x0 PUSH1 0x20 DUP3 ADD SWAP1 POP DUP2 DUP2 SUB PUSH1 0x0 DUP4 ADD MSTORE PUSH2 0x12AF DUP2 PUSH2 0x108D JUMP JUMPDEST SWAP1 POP SWAP2 SWAP1 POP JUMP JUMPDEST PUSH1 0x0 PUSH1 0x20 DUP3 ADD SWAP1 POP DUP2 DUP2 SUB PUSH1 0x0 DUP4 ADD MSTORE PUSH2 0x12CF DUP2 PUSH2 0x10B0 JUMP JUMPDEST SWAP1 POP SWAP2 SWAP1 POP JUMP JUMPDEST PUSH1 0x0 PUSH1 0x20 DUP3 ADD SWAP1 POP DUP2 DUP2 SUB PUSH1 0x0 DUP4 ADD MSTORE PUSH2 0x12EF DUP2 PUSH2 0x10D3 JUMP JUMPDEST SWAP1 POP SWAP2 SWAP1 POP JUMP JUMPDEST PUSH1 0x0 PUSH1 0x20 DUP3 ADD SWAP1 POP DUP2 DUP2 SUB PUSH1 0x0 DUP4 ADD MSTORE PUSH2 0x130F DUP2 PUSH2 0x10F6 JUMP JUMPDEST SWAP1 POP SWAP2 SWAP1 POP JUMP JUMPDEST PUSH1 0x0 PUSH1 0x20 DUP3 ADD SWAP1 POP DUP2 DUP2 SUB PUSH1 0x0 DUP4 ADD MSTORE PUSH2 0x1330 DUP2 DUP5 PUSH2 0x1119 JUMP JUMPDEST SWAP1 POP SWAP3 SWAP2 POP POP JUMP JUMPDEST PUSH1 0x0 PUSH1 0x20 DUP3 ADD SWAP1 POP DUP2 DUP2 SUB PUSH1 0x0 DUP4 ADD MSTORE PUSH2 0x1352 DUP2 DUP5 PUSH2 0x118F JUMP JUMPDEST SWAP1 POP SWAP3 SWAP2 POP POP JUMP JUMPDEST PUSH1 0x0 PUSH2 0x1364 PUSH2 0x1375 JUMP JUMPDEST SWAP1 POP PUSH2 0x1370 DUP3 DUP3 PUSH2 0x1491 JUMP JUMPDEST SWAP2 SWAP1 POP JUMP JUMPDEST PUSH1 0x0 PUSH1 0x40 MLOAD SWAP1 POP SWAP1 JUMP JUMPDEST PUSH1 0x0 PUSH8 0xFFFFFFFFFFFFFFFF DUP3 GT ISZERO PUSH2 0x139A JUMPI PUSH2 0x1399 PUSH2 0x1598 JUMP JUMPDEST JUMPDEST PUSH2 0x13A3 DUP3 PUSH2 0x15DB JUMP JUMPDEST SWAP1 POP PUSH1 0x20 DUP2 ADD SWAP1 POP SWAP2 SWAP1 POP JUMP JUMPDEST PUSH1 0x0 DUP2 MLOAD SWAP1 POP SWAP2 SWAP1 POP JUMP JUMPDEST PUSH1 0x0 DUP3 DUP3 MSTORE PUSH1 0x20 DUP3 ADD SWAP1 POP SWAP3 SWAP2 POP POP JUMP JUMPDEST PUSH1 0x0 DUP3 DUP3 MSTORE PUSH1 0x20 DUP3 ADD SWAP1 POP SWAP3 SWAP2 POP POP JUMP JUMPDEST PUSH1 0x0 DUP2 ISZERO ISZERO SWAP1 POP SWAP2 SWAP1 POP JUMP JUMPDEST PUSH1 0x0 DUP2 SWAP1 POP SWAP2 SWAP1 POP JUMP JUMPDEST DUP3 DUP2 DUP4 CALLDATACOPY PUSH1 0x0 DUP4 DUP4 ADD MSTORE POP POP POP JUMP JUMPDEST PUSH1 0x0 JUMPDEST DUP4 DUP2 LT ISZERO PUSH2 0x1420 JUMPI DUP1 DUP3 ADD MLOAD DUP2 DUP5 ADD MSTORE PUSH1 0x20 DUP2 ADD SWAP1 POP PUSH2 0x1405 JUMP JUMPDEST DUP4 DUP2 GT ISZERO PUSH2 0x142F JUMPI PUSH1 0x0 DUP5 DUP5 ADD MSTORE JUMPDEST POP POP POP POP JUMP JUMPDEST PUSH1 0x0 PUSH2 0x1440 DUP3 PUSH2 0x13E9 JUMP JUMPDEST SWAP2 POP PUSH1 0x0 DUP3 EQ ISZERO PUSH2 0x1454 JUMPI PUSH2 0x1453 PUSH2 0x150B JUMP JUMPDEST JUMPDEST PUSH1 0x1 DUP3 SUB SWAP1 POP SWAP2 SWAP1 POP JUMP JUMPDEST PUSH1 0x0 PUSH1 0x2 DUP3 DIV SWAP1 POP PUSH1 0x1 DUP3 AND DUP1 PUSH2 0x1477 JUMPI PUSH1 0x7F DUP3 AND SWAP2 POP JUMPDEST PUSH1 0x20 DUP3 LT DUP2 EQ ISZERO PUSH2 0x148B JUMPI PUSH2 0x148A PUSH2 0x153A JUMP JUMPDEST JUMPDEST POP SWAP2 SWAP1 POP JUMP JUMPDEST PUSH2 0x149A DUP3 PUSH2 0x15DB JUMP JUMPDEST DUP2 ADD DUP2 DUP2 LT PUSH8 0xFFFFFFFFFFFFFFFF DUP3 GT OR ISZERO PUSH2 0x14B9 JUMPI PUSH2 0x14B8 PUSH2 0x1598 JUMP JUMPDEST JUMPDEST DUP1 PUSH1 0x40 MSTORE POP POP POP JUMP JUMPDEST PUSH1 0x0 PUSH2 0x14CD DUP3 PUSH2 0x13E9 JUMP JUMPDEST SWAP2 POP PUSH32 0xFFFFFFFFFFFFFFFFFFFFFFFFFFFFFFFFFFFFFFFFFFFFFFFFFFFFFFFFFFFFFFFF DUP3 EQ ISZERO PUSH2 0x1500 JUMPI PUSH2 0x14FF PUSH2 0x150B JUMP JUMPDEST JUMPDEST PUSH1 0x1 DUP3 ADD SWAP1 POP SWAP2 SWAP1 POP JUMP JUMPDEST PUSH32 0x4E487B7100000000000000000000000000000000000000000000000000000000 PUSH1 0x0 MSTORE PUSH1 0x11 PUSH1 0x4 MSTORE PUSH1 0x24 PUSH1 0x0 REVERT JUMPDEST PUSH32 0x4E487B7100000000000000000000000000000000000000000000000000000000 PUSH1 0x0 MSTORE PUSH1 0x22 PUSH1 0x4 MSTORE PUSH1 0x24 PUSH1 0x0 REVERT JUMPDEST PUSH32 0x4E487B7100000000000000000000000000000000000000000000000000000000 PUSH1 0x0 MSTORE PUSH1 0x32 PUSH1 0x4 MSTORE PUSH1 0x24 PUSH1 0x0 REVERT JUMPDEST PUSH32 0x4E487B7100000000000000000000000000000000000000000000000000000000 PUSH1 0x0 MSTORE PUSH1 0x41 PUSH1 0x4 MSTORE PUSH1 0x24 PUSH1 0x0 REVERT JUMPDEST PUSH1 0x0 DUP1 REVERT JUMPDEST PUSH1 0x0 DUP1 REVERT JUMPDEST PUSH1 0x0 DUP1 REVERT JUMPDEST PUSH1 0x0 DUP1 REVERT JUMPDEST PUSH1 0x0 PUSH1 0x1F NOT PUSH1 0x1F DUP4 ADD AND SWAP1 POP SWAP2 SWAP1 POP JUMP JUMPDEST PUSH32 0x436F77626F792068617320616C72656164792074616B656E207475726E207468 PUSH1 0x0 DUP3 ADD MSTORE PUSH32 0x697320726F756E64000000000000000000000000000000000000000000000000 PUSH1 0x20 DUP3 ADD MSTORE POP JUMP JUMPDEST PUSH32 0x476976656E20626174746C65206964206F7574206F6620626F756E6473000000 PUSH1 0x0 DUP3 ADD MSTORE POP JUMP JUMPDEST PUSH32 0x476976656E20636F77626F79206964206F7574206F6620626F756E6473000000 PUSH1 0x0 DUP3 ADD MSTORE POP JUMP JUMPDEST PUSH32 0x54686520676976656E20636F77626F79206973206E6F7420696E207468652067 PUSH1 0x0 DUP3 ADD MSTORE PUSH32 0x6976656E20626174746C65000000000000000000000000000000000000000000 PUSH1 0x20 DUP3 ADD MSTORE POP JUMP JUMPDEST PUSH32 0x5468652067616D65206973206F76657220796F757220636F77626F792063616E PUSH1 0x0 DUP3 ADD MSTORE PUSH32 0x27742074616B65207475726E732E000000000000000000000000000000000000 PUSH1 0x20 DUP3 ADD MSTORE POP JUMP JUMPDEST PUSH32 0x5468657265206973206E6F2077696E6E6572207965742E000000000000000000 PUSH1 0x0 DUP3 ADD MSTORE POP JUMP JUMPDEST PUSH32 0x596F757220636F77626F792063616E27742073686F6F7420776974686F757420 PUSH1 0x0 DUP3 ADD MSTORE PUSH32 0x616D6D6F00000000000000000000000000000000000000000000000000000000 PUSH1 0x20 DUP3 ADD MSTORE POP JUMP JUMPDEST PUSH2 0x17AC DUP2 PUSH2 0x13E9 JUMP JUMPDEST DUP2 EQ PUSH2 0x17B7 JUMPI PUSH1 0x0 DUP1 REVERT JUMPDEST POP JUMP INVALID LOG2 PUSH5 0x6970667358 0x22 SLT KECCAK256 0xCE 0xA7 GAS OR 0xFC SWAP3 PUSH27 0x1755A3A54B09A5A056DA131ECDB44595FF094711A2C57D9F7C6473 PUSH16 0x6C634300080700330000000000000000 "
    },
    "gasEstimates": {
      "creation": {
        "codeDepositCost": "1225600",
        "executionCost": "1275",
        "totalCost": "1226875"
      },
      "external": {
        "createBattle(uint256,uint256)": "infinite",
        "createCowboy(string)": "infinite",
        "getBattle(uint256)": "infinite",
        "getCowboy(uint256)": "infinite",
        "getWinner(uint256)": "infinite",
        "takeTurn(uint256,uint256,uint256)": "infinite"
      },
      "internal": {
        "dodge(struct BattleHandler.Cowboy storage pointer)": "48657",
        "finishTurn(struct BattleHandler.Battle storage pointer)": "infinite",
        "reload(struct BattleHandler.Cowboy storage pointer)": "73023",
        "shoot(struct BattleHandler.Cowboy storage pointer)": "infinite"
      }
    },
    "methodIdentifiers": {
      "createBattle(uint256,uint256)": "df73c49f",
      "createCowboy(string)": "5f4a0b85",
      "getBattle(uint256)": "6dd0ce7a",
      "getCowboy(uint256)": "dc118019",
      "getWinner(uint256)": "4129b2c9",
      "takeTurn(uint256,uint256,uint256)": "7dbef372"
    }
  },
  "storageLayout": {
    "storage": [
      {
        "astId": 28,
        "contract": "BattleHandler.sol:BattleHandler",
        "label": "battleList",
        "offset": 0,
        "slot": "0",
        "type": "t_array(t_struct(Battle)13_storage)dyn_storage"
      },
      {
        "astId": 32,
        "contract": "BattleHandler.sol:BattleHandler",
        "label": "cowboyList",
        "offset": 0,
        "slot": "1",
        "type": "t_array(t_struct(Cowboy)24_storage)dyn_storage"
      }
    ],
    "types": {
      "t_array(t_struct(Battle)13_storage)dyn_storage": {
        "base": "t_struct(Battle)13_storage",
        "encoding": "dynamic_array",
        "label": "struct BattleHandler.Battle[]",
        "numberOfBytes": "32"
      },
      "t_array(t_struct(Cowboy)24_storage)dyn_storage": {
        "base": "t_struct(Cowboy)24_storage",
        "encoding": "dynamic_array",
        "label": "struct BattleHandler.Cowboy[]",
        "numberOfBytes": "32"
      },
      "t_bool": {
        "encoding": "inplace",
        "label": "bool",
        "numberOfBytes": "1"
      },
      "t_string_storage": {
        "encoding": "bytes",
        "label": "string",
        "numberOfBytes": "32"
      },
      "t_struct(Battle)13_storage": {
        "encoding": "inplace",
        "label": "struct BattleHandler.Battle",
        "members": [
          {
            "astId": 4,
            "contract": "BattleHandler.sol:BattleHandler",
            "label": "cowboyId0",
            "offset": 0,
            "slot": "0",
            "type": "t_uint256"
          },
          {
            "astId": 6,
            "contract": "BattleHandler.sol:BattleHandler",
            "label": "cowboyId1",
            "offset": 0,
            "slot": "1",
            "type": "t_uint256"
          },
          {
            "astId": 8,
            "contract": "BattleHandler.sol:BattleHandler",
            "label": "winner",
            "offset": 0,
            "slot": "2",
            "type": "t_string_storage"
          },
          {
            "astId": 10,
            "contract": "BattleHandler.sol:BattleHandler",
            "label": "turnCounter",
            "offset": 0,
            "slot": "3",
            "type": "t_uint256"
          },
          {
            "astId": 12,
            "contract": "BattleHandler.sol:BattleHandler",
            "label": "gameOver",
            "offset": 0,
            "slot": "4",
            "type": "t_bool"
          }
        ],
        "numberOfBytes": "160"
      },
      "t_struct(Cowboy)24_storage": {
        "encoding": "inplace",
        "label": "struct BattleHandler.Cowboy",
        "members": [
          {
            "astId": 15,
            "contract": "BattleHandler.sol:BattleHandler",
            "label": "name",
            "offset": 0,
            "slot": "0",
            "type": "t_string_storage"
          },
          {
            "astId": 17,
            "contract": "BattleHandler.sol:BattleHandler",
            "label": "shots",
            "offset": 0,
            "slot": "1",
            "type": "t_uint256"
          },
          {
            "astId": 19,
            "contract": "BattleHandler.sol:BattleHandler",
            "label": "takenTurn",
            "offset": 0,
            "slot": "2",
            "type": "t_bool"
          },
          {
            "astId": 21,
            "contract": "BattleHandler.sol:BattleHandler",
            "label": "reloading",
            "offset": 1,
            "slot": "2",
            "type": "t_bool"
          },
          {
            "astId": 23,
            "contract": "BattleHandler.sol:BattleHandler",
            "label": "shooting",
            "offset": 2,
            "slot": "2",
            "type": "t_bool"
          }
        ],
        "numberOfBytes": "96"
      },
      "t_uint256": {
        "encoding": "inplace",
        "label": "uint256",
        "numberOfBytes": "32"
      }
    }
  },
  "userdoc": {
    "kind": "user",
    "methods": {},
    "version": 1
  }
}